:020000040000FA
:10000000B86C0010C5010000C9010000CB01000060
:10001000CD010000CF010000D10100000000000070
:10002000000000000000000000000000D3010000FC
:10003000D501000000000000D701000017A5000056
:10004000DB010000DB010000DB010000DB01000040
:10005000DB0100000B3A0100DB010000F52201008A
:10006000DB010000DB010000DB010000DB01000020
:10007000DB010000DB010000DB010000DB01000010
:10008000DB010000DB010000DB010000DB01000000
:10009000DB010000DB010000DB010000DB010000F0
:1000A000DB010000F51F0100DB010000DB010000A7
:1000B00071450100DB010000DB010000DB010000F5
:1000C000DB01000000F002F800F06DF80AA090E8F3
:1000D000000C82448344AAF10107DA4501D100F003
:1000E00062F8AFF2090EBAE80F0013F0010F18BF63
:1000F000FB1A43F00103184734E6030074E60300DB
:100100000A444FF0000C10F8013B13F0070408BF3D
:1001100010F8014B1D1108BF10F8015B641E05D0DB
:1001200010F8016B641E01F8016BF9D113F0080F90
:100130001EBF10F8014BAD1C0C1B09D16D1E58BF22
:1001400001F801CBFAD505E014F8016B01F8016B59
:100150006D1EF9D59142D6D37047000000230024CC
:1001600000250026103A28BF78C1FBD8520728BFC7
:1001700030C148BF0B607047642916F06184732951
:1001800016F09B86002070471FB51AF0BDFD16F0D3
:1001900083FF0400002000211AF0A0FD401C6060D5
:1001A0001FBD10B510BD16F052FF1146FFF7ECFF52
:1001B0000AF046FA16F084FF03B4FFF7F2FF03BC1F
:1001C00016F088FF08480047FEE7FEE7FEE7FEE777
:1001D000FEE7FEE7FEE7FEE7FEE7FEE70348044929
:1001E000024A044B70470000C5000000B02C0820F4
:1001F000B86C0010B86A0010FEE710B518F0B4FB38
:1002000018F054FC18F046FC18F0C0FB18F000FC85
:10021000AFF30080BDE8104018F00EBC10B519F027
:10022000ABFA1AF027F919F0FFFABDE8104019F0FF
:1002300077BC19F0BFB918F087BF09B1002070472B
:1002400017F03CBC0020704790F900308B4200DA78
:10025000027090F90030934200DD0170704790F910
:1002600000308B4200DA017090F90010914200DDFD
:1002700002707047B0F900308B4200DA0180B0F9AB
:100280000010914200DD02807047B0F900308B42CF
:1002900000DA0280B0F90030934200DD018070473F
:1002A00003688B4200DA02600368934200DD01605C
:1002B000704700000FB41CB5084B06AA7B44694682
:1002C0000090059816F0CFFD04460020694616F010
:1002D000DDFD20461CBC5DF814FB0000CD6B010069
:1002E00070B5064616F05AFD0468054630460A22E7
:1002F000002116F0E6FD2C6070BD7047FFFFFFFF88
:1003000030B54E482021C0F8A01100BFD0F8A01190
:100310004906FBD500F180000322C0F8842048493B
:10032000C0F828114FF00001C0F82C114FF0010364
:10033000C0F88C30434C446003604FF0AA03C360A4
:100340004FF05504C460A0F1800000BFD0F8885081
:100350006D01FBD540F8802FC360C460C0F88810E1
:10036000394A4264C0F848118168A0F180006FEA00
:1003700011618A073549D0F80C2102F0030207D039
:1003800092B3012A46D0022A4AD0032A51D13BE037
:100390002AB1012A11D0022A27D0032A49D150F8C4
:1003A000882FC2F30E02521C53000268C2F30742A8
:1003B000521CB3FBF2F2264B0CE050F8882FC2F32C
:1003C0000E02521C53000268C2F30742521CB3FBD8
:1003D000F2F2204B5A43C36FA0F18800DBB203F165
:1003E0000103B2FBF3F223E00EE050F8882FC2F3D2
:1003F0000E02521C53000268C2F30742521CB3FBA8
:10040000F2F24FF4FA43E5E7D0F80421104BD2B2F0
:10041000521C0BE0D0F804210E4BD2B2521C05E066
:10042000D0F804214FF4FA43D2B2521CB3FBF2F2DB
:100430000A6043F23A01016030BD000000C00F4085
:10044000000002084F00030048F1004114C00720DB
:1004500000093D008096980010B54FF4027010F02E
:1004600071FAFB4C207040F20A2010F06BFA6070B9
:100470004FF4037010F066FAA07040F20E2010F0F6
:1004800061FAE0704FF4047010F05CFA207240F2F0
:10049000122010F057FA60724FF4057010F052FA03
:1004A000A07240F2162010F04DFAE0724FF4117075
:1004B00010F048FA207140F2462010F043FA6071C3
:1004C0004FF4127010F03EFAA07140F24A2010F082
:1004D00039FAE07110BD002801DA404200B27047DD
:1004E000DC4A916C936C5B1A8342FBD37047DA4908
:1004F000112008727047D948C16941F44021C16197
:10050000C16941F44011C161D5480021C1604FF477
:100510004061C164022141614FF47A7282614FF4FB
:100520004872026242620122026541600921416013
:1005300070472DE9F04F0020CA4A85B04FF4F4719E
:1005400004461454401C00B28842FADBC648017EBF
:1005500071B100214FF0140C7A2301FB03F001EB81
:1005600081039B0001EB81041BB20CEB84045BE272
:10057000804690F824004FF00205C0074FF00306B4
:100580001BD098F81500002816D0B8483227CDE9BE
:100590000204CDE90076032118233A4608460FF0FD
:1005A00060FBB348CDE90204CDE9007603211823AE
:1005B000322208460FF055FBB8E0B8F97A00DFF8B0
:1005C0009492DFF8B0A20F27DFF8ACB2A9F10409CA
:1005D000012853DB1423002100941A460846019495
:1005E0000FF083FA1223012100941A460846019461
:1005F0000FF07BFA99F8000010F03C0F0BD0C10609
:1006000011D598F81500F0B10F23CDE902A402210D
:100610001A46032013E09948CDE902040F23022172
:100620001A4603200BE010F00C0F0CD098F81500C0
:1006300048B10F23CDE902B402211A460846CDE99C
:1006400000750FF00EFB8E48406DC00716D10B23CE
:1006500000221421092000940FF02CF800235B22C3
:100660001F21092000940FF025F898F805000423B5
:100670001330C1B2002209200FF074FAB8F97A00E1
:10068000022853DB142300941A46002117200194FA
:100690000FF02BFA122300941A460121182001941E
:1006A0000FF023FA99F8010010F03C0F0BD0C106AF
:1006B00011D598F81500F0B10F23CDE902A402215D
:1006C0001A46192013E06F48CDE902040F230221D6
:1006D0001A4619200BE010F00C0F0CD098F81500FA
:1006E00048B10F23CDE902B402211A461920CDE901
:1006F00000750FF0B6FA6248406D800716D40B23E0
:1007000000221421202000940EF0D4FF0023442264
:100710001F21202000940EF0CDFF98F8050004233F
:100720001330C1B2002220200FF01CFAB8F8780074
:10073000C1464FF00A0B4FF0010800282CD000945E
:10074000142323220021322001940FF0CEF90094CB
:10075000022303221421352001940FF0C6F90094DE
:100760000223032214214F2001940FF0BEF999F8BF
:1007700024004F46800710D599F8150000280BD0AB
:1007800032213B48CDE90016CDE902040A46182380
:1007900000212B200FF065FA8DE00B23002214219D
:1007A000422000940EF086FF002322221F214220C7
:1007B00000940EF07FFFDFF89CA0AAF1800ABAF93E
:1007C0007A00002805DA7879042300221330C1B2B8
:1007D00005E078790423C0F12200C1B20222422050
:1007E0000FF0C0F9387A1E287ED2BAF90010A1F5B0
:1007F000AA42553A78D097F92500052190FBF1F0EF
:10080000ADF81000B9461422002104A8FFF732FD0C
:10081000CDE900844746BDF9103020220021332065
:100820000FF063F999F925000A282FDACDE9007550
:1008300009230C2205213D200FF057F999F92500D5
:1008400002238DE8910005210FA23D20039730E09F
:10085000142C0820100100100040024000C002408B
:100860000080014046E70720100000101DAE010087
:10087000B3AE010085AF0100A3AF010049AF010095
:1008800000C0092067AF01002025000064284FF058
:1008900009035FDACDE90075122205213A200FF035
:1008A00024F999F9250003238DE8B100FEA2052162
:1008B0003A200FF002FA00940E231B2202215C2042
:1008C00001940FF012F900231A1F08215C200094F4
:1008D0000EF0F0FE002304220821762000940EF092
:1008E000E9FE0023272200E044E01F21432000947A
:1008F0000EF0E0FE6FF00F0300221F21692000942C
:100900000EF0D8FE99F807004D46C0F12200C1B2A2
:100910000423022269200FF025F9E449474688465E
:10092000B1F9021000910420CDE901700523E0A285
:100930001621462003970FF0C0F9B8F9000064288B
:1009400025DACDE9000704230521DBA25D20CDE9EE
:10095000026725E0CDE900751822052137200FF048
:10096000C4F899F9250004238DE8D1000521D4A20B
:1009700037209EE7BAF97A10CDE9026891FBFBF0C7
:1009800001B2CDE900180423CBA2052190E790FB2A
:10099000FBF000B28DE8D1000423C7A205215A2044
:1009A0000FF08BF92879401CC0B2287103281CD3A2
:1009B0002C716879401CC0B268710D2800D36C712D
:1009C000A879401CC0B2A871202800D3AC71E87986
:1009D000401CC0B2E871112800D3EC71287A401C89
:1009E000C0B22872282800D32C7205B0BDE8F08F61
:1009F000B54DB64FED5C05EB450517F8156016547F
:100A000007EB4505401C6E781654401CAE78165412
:100A1000401CEE781654401C2E791654401C6D79FB
:100A20001554401C5B1C1BB29C42E1DC491C09B202
:100A30000429FFF691ADD8E72DE9F04FA44AD9B0CB
:100A4000052192F80080002001240DF1A80CB8F1D6
:100A5000050F03D0B8F1210F02D005E09DA000E002
:100A6000A2A02A9001200621A64D95F82460F20745
:100A700008D0A5A24CF8202000F1010001F10101ED
:100A8000C0B2C9B2B20708D5A5A24CF8202000F127
:100A9000010001F10101C0B2C9B2320606D5A6A219
:100AA0004CF82020401C491CC0B2C9B27F4B1B1F10
:100AB0001A7812F01C0F06D0A5A24CF82020401C7A
:100AC000491CC0B2C9B2794A121F527812F01C0FE9
:100AD00006D0A5A24CF82020401C491CC0B2C9B2C7
:100AE000724A0F3213786D32012BB2F9002002D016
:100AF000022B03D00AE04AB9A1A201E032B9A6A2B2
:100B00004CF82020401C491CC0B2C9B2674B1533B9
:100B10001A78552A0AD103F19902128832B9A4A28F
:100B20004CF82020401C491CC0B2C9B25A78552A42
:100B30000AD15E4AAE32528832B9A3A24CF82020C4
:100B4000401C491CC0B2C9B29A78552A0AD1574AEA
:100B5000AE32928832B9A2A24CF82020401C491C27
:100B6000C0B2C9B2DA78552A0AD1504AAE32D28818
:100B700032B9A1A24CF82020401C491CC0B2C9B215
:100B8000A34B1A7832B1A3A24CF82020401C491C78
:100B9000C0B2C9B25A7832B1A4A24CF82020401C8D
:100BA000491CC0B2C9B29A7822B1A6A2491C4CF81D
:100BB0002020C9B2AA7AAA46521CD2B22846AA72EA
:100BC000142A09D300228272437A5B1CDBB243727F
:100BD0008B4201D38AF80920DFF8D0900DF1080B81
:100BE00009F14C094A4699F8000092F9045092F92B
:100BF00001100BEB8507292854D0002853D0414A17
:100C00000528527D56924A4692F90220964601F0F6
:100C100080814A4692F9043092F90120D31A0628BD
:100C200001F05482122801F07384022801F08484B8
:100C30004A465278921E56B20D2801F09E8415281D
:100C400001F0B884112801F0C284162801F0E28472
:100C5000412801F0F584442801F06C85452801F015
:100C60008F87A9F1CC0241F27C7CB2F9082041F2D5
:100C7000D828342802F0F283362802F05E86032852
:100C800003F0AE804C2803F0FF821E4A2528127D17
:100C9000579203F00D831B4A282892F81D8003F019
:100CA0002C83DBE05EE1FEE3202025001001001034
:100CB00020202020420000002020204100000000D1
:100CC00020202025000000007EE60720C1AF0100A3
:100CD0002302001020C2FBF0E0E2ED2EE7E0F0FF7F
:100CE000E420207A3A305A20000000002020CAEE8A
:100CF000EDF2F0EEEBFC20E5ECEAEEF1F2E820207C
:100D00000000000010000010202020C0E2E0F0E809
:100D1000FF20F1E5F2E82121212020200000000041
:100D200020C0E2E0F0E8FF20E1E0F2E0F0E5E821B9
:100D3000212120200000000020C0F1E8ECECE5F2C9
:100D4000F0E8FF20C0CAC1212121202000000000BE
:100D500020C0E2E0F0E8FF20E8F1F2EEF7EDE8EA8B
:100D6000E0204E310000000020C0E2E0F0E8FF206B
:100D7000E8F1F2EEF7EDE8EAE0204E320000000084
:100D8000C2EDE5F82EF2E5ECEF2E4E31E7E0E2FBA6
:100D9000F8E5EDE000000000C2EDE5F82EF2E5EC2C
:100DA000EF2E4E31E7E0EDE8E6E5EDE00000000073
:100DB00020202020C0E2E0F0E8FF20D1CA20B93195
:100DC000202020200000000020202020C0E2E0F0B1
:100DD000E8FF20D1CA20B9322020202000000000E6
:100DE00020202020C0E2E0F0E8FF20D1CA20B93363
:100DF000202020200000000020202020C0E2E0F081
:100E0000E8FF20D1CA20B9342020202000000000B3
:100E10006102001020C0E2E0F0E8FF20EFF0E5E41E
:100E2000EEF5F02E20B931200000000020C0E2E0F5
:100E3000F0E8FF20EFF0E5E4EEF5F02E20B93220E7
:100E40000000000020C0E2E0F0E8FF20EFF0E5E461
:100E5000EEF5F02E20B93320000000001B2803F02F
:100E6000D482FF4F482803F033831F2803F0AF8359
:100E7000202803F01485212803F04185222803F05F
:100E80008885232803F0CE85182803F04086B2F920
:100E90007C703E280BEB870C03F073864A46527831
:100EA000521E52B23F2803F09986402804F0C680B3
:100EB000462804F07481492804F071844A2804F01B
:100EC0009184272804F024850B2804F026851C280B
:100ED00004F04485C8461E2804F03087372804F003
:100EE0005087A9F5A6772A2897F8207004F0818703
:100EF0002B2804F0CB87A9F5A676DFF86493B6F922
:100F00004E60A9F13F093746761EB44609F1010645
:100F1000382804F0E687392805F000803A2805F0E3
:100F2000B1813B2805F0DD813C2805F08C824646E6
:100F30003D2805F0CC82082805F0ED830928FBD078
:100F40001328F9D01428F7D03528F5D01A28F3D073
:100F50000A2805F005842C2805F007844B2805F0A5
:100F60000B8457E2D1B1BF4E01297ED0BE4C02297D
:100F70007CD003297BD004297AD0052979D0062991
:100F8000EFD0072976D0082975D0092974D00A290D
:100F900073D00B2972D00C2971D0E2E7B3A3B3A2AE
:100FA000B2A1B2A00DF04EFD0023022219460AF1B3
:100FB00016049AF816000DF054FBA08E00230222AE
:100FC000012180B20DF04DFB208E0222002311463C
:100FD00080B20DF046FBAB4800230722008819467B
:100FE00080B20DF03EFBA8480023072200880121B3
:100FF00080B20DF036FBA5480023072200880221AD
:1010000080B20DF02EFBA24800230722B0F8780032
:10101000032180B20DF025FB9E4800230A221946C9
:1010200000780DF01EFB9C4800230A220121007865
:101030000DF017FB994800230A22022100780DF0D9
:1010400010FB974C00231322207819460DF009FB62
:1010500060780023132201210DF003FBA078002308
:10106000132202210DF0FDFA0AE01BE05CE0BDE076
:101070003AE178E185E1CEE1E1E165E2D3E3FDE348
:10108000834C0023D2341122208819460DF0E9FA4E
:1010900060880023112201210DF0E3FA0023A088CB
:1010A00011225EE17F4B80A11A4684A00DF0CAFC9C
:1010B000308800230422194680B20DF0D2FA854808
:1010C00000231A4690F90000012180B20DF0C9FA00
:1010D0006F4C0123B4340E22208800210DF0C1FA98
:1010E000012360880E2219460DF0BBFA241D01234E
:1010F0002088132200210DF0B4FA01236088132206
:1011000019460DF0AEFA3C3C0A22207800210DF081
:101110000BFC60780A2201210DF006FC002301225D
:101120000221BAF87A000DE250A350A24FA14FA0BD
:101130000DF088FC00232088042219460DF091FA56
:1011400060880023042201210DF08BFAA08800237F
:10115000042202210DF085FAE088002304220321F5
:101160000DF07FFA00232089092219460DF079FA43
:1011700060890023092201210DF073FAA089002360
:10118000092202210DF06DFAE089002309220321D2
:101190000DF067FA0023208A0E2219460DF061FA3D
:1011A000608A00230E2201210DF05BFAA08A002341
:1011B0000E2202210DF055FAE08A00230E220321AF
:1011C0000DF04FFA0023208B132219460DF049FA37
:1011D000608B0023132201210DF043FAA08B002322
:1011E000132202210DF03DFAE08B08E31FA31FA29A
:1011F0001EA11EA00DF026FC0023208C04221946FF
:101200000DF02FFA608C0023042201210DF029FA41
:10121000A08C0023042202210DF023FAE08C00238D
:10122000042203210DF01DFA0023208D0922194606
:101230000DF017FA608D0023092201210DF011FA3B
:10124000A08D0023092202210DF00BFAE08D00236E
:10125000092203210DF005FA0023208E0E223BE027
:1012600085EB07203802001018E6072020202020F8
:10127000202020202020202020202020202020206E
:10128000000000004C020010480200104E02001046
:1012900090000010340200103502001036020010D9
:1012A00067020010AEAD0100202020202020202069
:1012B000202020202020202020202000322020203C
:1012C000202020202020202020202020202020201E
:1012D000000000002C02001019460DF0C2F9002396
:1012E0000E22608E01218DE2AFF28003AFF2840204
:1012F000AFF28801FAA00DF0A5FBFF4C00230322FA
:10130000208801210DF0ADF960880023032202211D
:101310000DF0A7F90322A088002311460DF0A1F9D2
:101320000023E088082219460DF09BF9208900234C
:10133000082201210DF095F960890023082202217D
:101340000DF08FF90023A0890D2219460DF089F9BF
:10135000E08900230D2201210DF083F9208A00236A
:101360000D2202214EE2E5A3EAA2F0A1F5A00DF0C4
:1013700069FBFA4801222821008880B20DF057FA53
:1013800005E0DEA3E3A2E9A1F5A00DF05BFBFA48BE
:1013900000222121008880B20DF049FAF74800228E
:1013A0004021008880B20DF042FAF54C0122232141
:1013B00020880DF03CFA6088012224210DF037FAD4
:1013C000241D0122208825210DF031FA6088012298
:1013D0005E210DF02CFAB83C0122B4F878003C21D3
:1013E00080B20DF024FA02223E21B4F97A000DF009
:1013F00055F87C340D22207803210DF095FA6078A1
:10140000132203210DF090FA052203219AF82400FB
:101410000DF08AFAF8E1DB4BDBA01A4611460DF01D
:1014200011FBDF48002303220088194680B20DF02B
:1014300018F9DC480023032201210078E2E1AFF231
:10144000D413AFF2D812D8A1DDA00DF0FBFAC34837
:10145000002308220088194680B20DF002F9308876
:1014600000230822012180B20DF0FBF8C44D0023B7
:10147000343D13226889194680B20DF0F2F80AF162
:10148000240400230F221946607C0DF0EAF8D248AC
:101490000023132290F8290001210DF0E2F8002327
:1014A0000F22012100E08CE2207C0DF0DAF800230D
:1014B00013220221A07C0DF0D4F800231122022176
:1014C000E07C0DF0CEF800231322032120780DF0EC
:1014D000C8F8A5F180060123B6F87800032202219E
:1014E00080B20DF0BEF8032201231146B6F97A004E
:1014F0000DF071F8688801230822022180B20DF0F6
:10150000B0F8012308220321B5F900000DF063F8BB
:10151000F08800230A22194680B20DF0A2F8AF4DE0
:1015200000230A22E88D01210DF09BF8B5F85E003A
:1015300000230A2202210DF094F800230A22B4F8B5
:101540004000032180B25DE1AFF2E023AFF2E4227C
:10155000AFF2E821A2A00DF075FA99F9020000237C
:10156000401C80B2032219460DF07BF899F9020065
:101570009A4C00EB400004EB00100023408C062244
:1015800019460DF06EF899F90200002300EB4000B7
:1015900004EB00100E22808819460DF062F899F9CC
:1015A0000200002300EB400004EB00101322C0886F
:1015B00019460DF056F899F90200002300EB40009F
:1015C00004EB00100422008801210DF04AF899F97B
:1015D0000200002300EB400004EB001009224088C9
:1015E00001210DF03EF899F90200002300EB4000C4
:1015F00004EB00100E22008901210DF032F899F958
:101600000200002300EB400004EB00101322008ACC
:1016100001210DF026F899F90200002300EB4000AB
:1016200004EB00100422408902210DF01AF899F908
:101630000200002300EB400004EB00100922808927
:1016400002210DF00EF899F90200002300EB400092
:1016500004EB00100E22C08902210DF002F899F966
:101660000200002300EB400004EB00101322408A2C
:1016700002210CF0F6FF99F90200002300EB400074
:1016800004EB00100422808A03210CF0EAFF99F990
:101690000200002300EB400004EB00100922C08A86
:1016A00003210CF0DEFF99F90200002300EB40005B
:1016B00004EB00100E22008B03210CF0D2FF99F9ED
:1016C0000200002300EB400004EB00101022C08B4E
:1016D00003210CF0C6FF99F9020000EB40008BE0FB
:1016E00043414E2020202020202020202020202088
:1016F000202020200000000090EB072053742020C1
:1017000020202020537431202020537432202020A8
:101710000000000049E1202020203E204931202007
:10172000202549322020205E0000000055E12020C5
:1017300020203C20553120202023553220202024F9
:1017400000000000556E202020202820D8312020C5
:101750002021D83220202040000000004802001044
:10176000706C202020202820D83120202021D83241
:10177000202020400000000044020010460200101B
:1017800044010010AEAD01004D202020202020207B
:1017900020202020202020202020202000000000C9
:1017A000C41F0010C11F00104374726C2020202041
:1017B00020202020202020202020202000000000A9
:1017C000556E65632020202020202020202020200E
:1017D000202020200000000008EF0720B8ED07209F
:1017E0004C422020202020202020202020202020AB
:1017F000202020200000000004EB0010008C0023BB
:10180000132203210CF02DFF9AF8151050460029E1
:101810007ED0817E0029FBD09AF81900D74A202477
:10182000014404F0C0BFD6A00290DBA00390E0A06A
:101830000490E5A00590EAA00690EFA00790F4A020
:101840003F1D08900ECF5BF825000DF0FBF8F64821
:1018500002223F21B0F97A000CF020FEF34C606DBB
:10186000002200F0010024210CF0E1FFEE4D2321C5
:101870007C3528780DF046F8606D00E075E0C0F327
:101880004000002240210CF0D2FF687821210DF0A9
:1018900039F805F13804002220884A210CF0C7FFEE
:1018A000608800226A210CF0C2FFE14C002259211D
:1018B00020780CF0BCFF6078002279210CF0B7FF93
:1018C000DC4C00226821206880B20CF0B0FFDA48BE
:1018D00000226D21006880B20CF0A9FFD74D0022D4
:1018E000512128880CF0A3FFD54E002271213088A9
:1018F0000CF09DFF688800225A210CF098FF708838
:1019000000227A210CF093FFCE4D0022287800E0CF
:10191000F2E341210CF08BFFCB4E002261213078A5
:101920000CF085FF6878002242210CF080FF70786F
:10193000002262210CF07BFF2068002280B243214C
:101940000CF075FF6068002280B244210CF06FFF3C
:10195000BE4C00226321206880B20CF068FF6068F2
:10196000002280B2642104F06DBEB94B1A461146C4
:1019700008460DF067F8B74C20784FF000034FF0A1
:10198000060219460CF06DFE0023062201219AF88A
:101990001F000CF066FEB4200EF0D4FF80B20023CE
:1019A000062202210CF05DFEA088002310221946B9
:1019B0000CF057FEB6200EF0C5FF002380B21022B7
:1019C000CFE4A5A002909848B430B0F90020B0F957
:1019D0000200C82A05DDC82801DDA5A00BE0AAA0E9
:1019E00009E0C82801DDAEA005E08F48B0F9780015
:1019F000C82801DDB0A00290B5A00390BAA0049061
:101A0000BFA00590C4A04890C9A04990CEA04A901C
:101A1000D3A04B90D8A04C90DDA04D90E84AE2A016
:101A20004E90137848A84E4650F8233006935378CA
:101A300050F823300793937850F823300893D378E5
:101A400050F823300993137950F823300A935379CF
:101A500050F823300B939279DAA350F82200724A9F
:101A60000C90B2F906200BEB82021361DBA35361E9
:101A7000E0A39361E5A3D361EAA31362EFA35362EA
:101A8000F4A39362F9A3D362FEA31363704B1533DF
:101A9000536331B16A1A022A01DD891C01E0A942AF
:101AA00000DD317196F904109AF809500BEB8100B2
:101AB00000F10400052D0EC801D2029803E00CEBE2
:101AC000850050F8140C0CF0BDFF96F90400A0B18D
:101AD00096F9011089B1884203D1284880F83C402A
:101AE0000BE0401A012802D0022804D005E0234868
:101AF00080F8284001E021480475E84C01226C215F
:101B0000A08D0CF094FEB4F92A00012240210CF0C3
:101B1000C5FC454C012280342321608880B20CF042
:101B200086FE20880122242180B20CF080FEDC4C4D
:101B300020784FF000024FF026010CF078FE20795B
:101B400000225E210CF073FE207A002225210CF089
:101B50006EFE207B00223C210CF069FE217E3C4879
:101B600000222A3000EB81003E210CF09AFFA08B6E
:101B700000227B210CF05BFE94E100007EE6072052
:101B8000202020203F20202020202020202420232F
:101B900020402021000000002020202020202020A4
:101BA000202020202020204A2020206A0000000041
:101BB00020202020202020202020202020202059EC
:101BC0002020207900000000202020682020206DA7
:101BD0002020202020512071205A207A000000006F
:101BE000202020732020205320202020202020434C
:101BF00020202044000000002020206620202046D5
:101C000020202020202020632020206400000000CD
:101C10002020202020202020202020202041206162
:101C200020422062000000009000001000C0092047
:101C3000400200108002001064C0072072020010F1
:101C40006E020010980200109A0200108802001024
:101C5000AEAD0100384002402020CDE5EEEFF0E5CA
:101C6000E4E5EBE5EDEDEEF1F2FC202000000000F4
:101C700020C220F0E0E1EEF2E520C1CFD1312CC14D
:101C8000CFD132200000000020202020C220F0E030
:101C9000E1EEF2E520C1CFD131202020000000008C
:101CA00020202020C220F0E0E1EEF2E520C1CFD1DB
:101CB00032202020000000002020D0E0E1EEF2E001
:101CC00020EEF220E1E0F2E0F0E5E8200000000084
:101CD0002055E13D2020206CC22049E13D202020FC
:101CE0002040C020000000002055ED3D2020202392
:101CF000C22049ED3D2020202024C020000000000B
:101D00002030253A305E3A302620303C2F3E2020CD
:101D10002F307B200000000020C1E0F2E0F0E5FF62
:101D2000204E3120202020202020202000000000F4
:101D300020C1E0F2E0F0E5FF204E322020202020FC
:101D4000202020200000000020C1E0F2E0F0E5FFAC
:101D5000204E3320202020202020202000000000C2
:101D600020C1E0F2E0F0E5FF204E342020202020CA
:101D7000202020200000000020C1E0F2E0F0E5FF7C
:101D8000204E352020202020202020200000000090
:101D900020C1E0F2E0F0E5FF204E36202020202098
:101DA000202020200000000020C1E0F2E0F0E5FF4C
:101DB000204E37202020202020202020000000005E
:101DC0009E01001020C1CFD13120202020202020D2
:101DD00020202020202020200000000020C1CFD182
:101DE00032202020202020202020202020202020E1
:101DF0000000000020CDE0E3F0F3E7EAE02020203F
:101E000020202020202020200000000020D1E5F20A
:101E1000FC202020202020202020202020202020E6
:101E20000000000020D1EFE5F6F4F3EDEAF6E8E873
:101E300020202020202020200000000020C6F3F0D9
:101E4000EDE0EB20F1EEE1FBF2E8E920202020209C
:101E50000000000020C1E0F2E0F0E5E9EDFBE92040
:101E6000E6F3F0EDE0EB20200000000020D3F1F2DB
:101E7000E0EDEEE2EAE820202020202020202020B3
:101E80000000000020D1E1F0EEF120E0E2E0F0E817
:101E9000E92020202020202000000000B8ED0720AD
:101EA000204002409AF8150068B13A200CF055FA2B
:101EB000C94C202525543A200CF04FFA25543A20DD
:101EC0000CF04BFA2554C54C4FF461610022206898
:101ED000B0FBF1F080B27A210CF0A9FC21683C2023
:101EE000B1FBF0F1B1FBF0F200FB121000225A211D
:101EF0000CF09DFCCC200EF025FD002380B21322B7
:101F000019460CF0AEFB002304221946B44804F035
:101F100044BC104602EB400202EB0010B14A02EB57
:101F2000800090F83D00C0070FD05698D8B1AE4B56
:101F3000AEA2B4A1B9A000BF0CF084FD99F90200D3
:101F40000022401C80B223210DE5BA4D0EEB4E005D
:101F500005EB0010828C5AB1569820B1A24BB6A264
:101F6000BBA1C1A0E8E7A04B1A4611460846E3E72B
:101F7000B0F90A00002803DDC1A00390C6A002E06A
:101F8000CBA00390D0A00590D5A00490DAA0069035
:101F9000DFA00790E4A00890E9A00990EEA00A90C5
:101FA000F3A00B90904815300C900BEB8100F6A13C
:101FB000D0E90123FAA00CF045FD99F902000022B6
:101FC000401C80B240210CF032FC99F902000A2634
:101FD00000EB400005EB00100122B0F908002421BD
:101FE00090FBF6F080B20CF022FC99F9020000EBB5
:101FF000400005EB0011B1F90A00002801DCB1F93D
:102000000C00022223210CF049FA99F90200002267
:1020100000EB400005EB00103F21B0F904000CF08C
:102020003DFA99F90200002200EB400005EB001098
:102030007721408A0CF0FBFB99F90200012200EBAA
:10204000400005EB0010B0F90E10B0F9100041434C
:102050004FF47A7091FBF0F080B251210CF0E7FB65
:1020600099F80100082802D15B4880F83C4099F9B2
:102070000200012200EB400005EB00105121C08955
:102080000CF0D5FB99F90200012200EB400005EBB2
:1020900000103C21B0F9140090FBF6F080B20CF077
:1020A000C6FB99F90200002200EB400005EB00108E
:1020B0003E21008A0CF0BBFB99F90200012200EBE3
:1020C000400005EB00105B21C08A4CE4BA484F4643
:1020D000BEF1000F406D05D0C0F34000BEF1010F0E
:1020E00003D006E000F0010003E0BAF87A20012AEC
:1020F00003D050B1B1A009E040E3BCA20292C1A25A
:102100000392394AB3A0049228E0C4A0F20701D098
:10211000C8A212E0CD4A12F80E20D60601D5CCA2F4
:102120000BE0160701D5D0A207E0560701D5D4A2CF
:1021300003E012F03C0F01D1D7A20292DCA2C34E01
:102140000392E1A2B61C049216F80E200AB1E4A292
:1021500000E0E9A20592244A15320692002B01DC28
:10216000A94200DA397197F904500BEB8502121D70
:102170005BF825100CCA0CF065FC97F902000022F0
:10218000401C80B221210CF052FBB04897F902109C
:102190003830012230F8110040210CF048FBAB48E8
:1021A00097F902103C30012230F8110023210CF085
:1021B0003EFBA64897F902103430002230F8110097
:1021C00024210CF034FB787802287FF41DAB024800
:1021D00080F83C40FFF718BB7EE60720780200102D
:1021E00048020010A4EB0720AEAD01002020202003
:1021F000EDE520EFEEE4EAEBFEF7E5EDE020202050
:10220000202000002020202020C1E0F2E0F0E5FFA7
:1022100020B9232020202020202000002020202062
:10222000202020C0C2C0D0C8DF21202020202020B4
:1022300020200000B8ED0720202020202020202092
:1022400020202020202020202020202020200000CE
:102250002020202020EDE520EFE5F0E5E4E0FEF28F
:10226000F1FF2020202000002020D1E8E3EDE0EB6A
:10227000FB20F2E5EBE5ECE5F2F0E8E820200000D9
:1022800020202020E7E0F0FFE6E0E5F2F1FF20204B
:1022900020202020000000002049E7E0F03D202021
:1022A000202020202023C02020202020000000000B
:1022B000202020F0E0E7F0FFE6E0E5F2F1FF20204B
:1022C00020202020000000002049F0E0E7F03D2021
:1022D000202020202023C0202020202000000000DB
:1022E0002055E1E0F2203D2020202024C2202020A3
:1022F00020202020000000002074E1E0F2203D209A
:102300002020203FB043202020202020000000007B
:1023100020534F4320203D202020207725202020BF
:1023200020202020000000002043E1E0F2203D209A
:1023300020202051C02AF72020202020000000006B
:1023400020534F4820203D202020203E25202020C3
:10235000202020200000000020496D6178203D20D1
:102360002020203C412020202020202000000000B0
:102370002052425420203D202020205BF7202020A6
:10238000202020200000000020202020202047596D
:10239000465034383735202020202020000000000F
:1023A0002020202020C1C0D2C0D0C5DF204E402038
:1023B000202020200000000000C009202020202034
:1023C000C1CFD12120C2DBCACBDED7C5CD20202092
:1023D000000000002020202020202020C1CFD1326A
:1023E000202020202020202000000000202020206D
:1023F000CED2D1D3D2D1D2C2D3C5D2202020202058
:10240000000000002020C220D1D2D0D3CAD2D3D025
:10241000C520C8C1DDCF20200000000020202020E2
:10242000C1CFD12120C2CACBDED7C5CD20202020EC
:102430000000000020E0E2E0F0E8FF20F1E5F2E833
:102440002020202020202020000000000C0100106F
:1024500020E0E2E0F0E8FF20EFE5F0E5E3F0E5E280
:10246000202020200000000020E0E2E0F0E8FF2033
:1024700055E2FBF53C55ECE8ED2020200000000083
:1024800020E0E2E0F0E8FF2055E2FBF53E55ECE00D
:10249000EAF120200000000020F1EEF1F2EEFFED65
:1024A000E8E5202D20EDEEF0ECE02020000000001B
:1024B0002055E8F1F2203D2020202040C22020209D
:1024C00020202020000000002049E8F1F2203D20DB
:1024D00020202023C02020202020202000000000D9
:1024E00020C4D220EDE5E8F1EFF0E0E2E5ED2020B8
:1024F00020202020000000002074E8F1F2203D2080
:10250000202024B043202020202020200000000094
:102510009BA3A1A2A6A1ACA00CF094FAB048012202
:10252000212180F83C40AF4C608880B20CF07FF9EC
:102530000122402120881EE05546F00719D0569808
:1025400008B1A9A000E0AD488DA3ADA2B2A1029050
:102550000CF078FAA24805F14805002280F83C40CA
:10256000A888232180B20CF062F90122402128883A
:1025700001E0AFA0E8E780B2E6E4B3A00290B8A023
:102580000390BDA004909D4815300590022B02DDFC
:1025900089F8046003E0A94201DA89F8041099F986
:1025A00004000BEB8002121D5BF820100CCAB8A0CF
:1025B00003F0CEB9B8F1210F07D0BBA08F4B014675
:1025C000029003F11502BEA0F2E7C3A0F6E7C848E7
:1025D0000290C8A0039031B1012908D002290AD085
:1025E00003290CD00FE0C9A00290CEA00AE0D3A02E
:1025F0000290D8A006E0DDA00290E2A002E0DBA0FD
:102600000290E6A003900346BAA1B948029A04F0EA
:10261000B0B800BFB8F1050F10D0A3A0774B0246A9
:1026200002901533E3A1E9A00CF00CFA01200CF0A4
:10263000FBFF00222121BAF872009CE7A6A0EDE77B
:10264000E2A3E2A2E1A1E1A00CF0FCF904218AF8E6
:102650001C109AF81F10012922D0022922D0032928
:102660002DD006292DD00C292DD0DEA16348029152
:102670008AF81C401530039099F90400DFA10BEB98
:10268000800253685BF82020E2A00CF0DBF999F996
:10269000010099F90410884217DA89F804001AE059
:1026A000E2A000E0E7A00290ECA00390F1A004906B
:1026B000AFF6B4100590514815300690DCE7F3A052
:1026C000F1E7F8A0EFE7FDA0EDE7411A012902DDEF
:1026D000411E89F80410022801D189F80400022063
:1026E0000CF0A2FF3F4C0022803C2521608A0CF0B8
:1026F0009EF800225E21A08A0CF099F80022262183
:10270000E08A0CF094F800223C21208B0CF08FF82A
:102710003A48618B2A3000EB810000223E210CF008
:10272000C0F900227B21A08B0CF081F80022282127
:10273000E08B09E440F602600EF004F901B2504665
:10274000AAF84E10402902DD0021A0F84E10BAF977
:102750004E1071B101290DD002290CD00CDD99F970
:10276000010099F90420904207DA00BF89F80400BB
:10277000E0E1AFE1B3E1BDE1EAE1D6E18AE30000E7
:1027800020C2FBF5EEE42020202020202020202065
:1027900020202020000000002049EDE0E3F03D2053
:1027A0002020202020204041202020200000000068
:1027B0002055EDE0E3F03D2020202020202021C204
:1027C0002020202000000000202020202020CDC03C
:1027D000C3D0D3C7CAC02020202020200000000082
:1027E0007EE6072010010010202020C0C2C0D0C803
:1027F000DF20D1C5D2C8212121202000AEAD0100AB
:102800002046F1E5F2E83D2020202020202040C392
:10281000F6202020000000002055F1E5F2E83D20E0
:1028200020202020202023C2202020200000000083
:1028300020202020202020D1C5D2DC2020202020D4
:10284000202020200000000020CAEEEDF2F0EEEB88
:10285000FC20E5ECEAEEF1F2E82020200000000088
:1028600020C2FBF0E0E2EDE8E2E0FEF9E8E920E773
:10287000E0F0FFE40000000020C0E2F22EE2FBF0F6
:10288000E0E2EDE8E22E20E7E0F0FFE400000000E7
:1028900020202020D1CFC5D6D4D3CDCAD6C8C820B9
:1028A000202020200000000020C2FBEAEBFEF7E51C
:1028B000ED202020202020202020202000000000CB
:1028C0002020CACECDD2D0CECBDC20C5CCCACED132
:1028D000D2C820200000000020C2EAEBFEF7E5EDA0
:1028E0002020202020202020202020200000000068
:1028F000EC0C0000202020EDE5E2EEE7ECEEE6E552
:10290000ED21212120202020000000002020202077
:10291000CEF2F1F3F2F1F2E2F3E5F22020202020F2
:1029200000000000202020202020E1E0F2E0F0E57F
:10293000FF20202020202020000000002020202038
:10294000202020C0E2E0F0E8FF20202020202020EE
:10295000000000002020202020202020F1E5F2E8C7
:1029600020202020202020200000000020202020E7
:102970002020C1E0F2E0F0E5FF20202020202020F0
:102980000000000020202020F0E0E7F0FFE6E0E576
:10299000F2F1FF2020202020000000002020202035
:1029A00020E7E0F0FFE6E0E5F2F1FF202020202024
:1029B0000000000020E4EBE8F2E5EBFCEDEEF1F2C4
:1029C000FC202D202021F72E0000000020C2DBD0AB
:1029D000C0C2CDC8C2C0DED9C8C920C7C0D0DFC4FC
:1029E0000000000020E2FBEAEBFEF7E5ED202020EE
:1029F000202020202020202000000000C2DBD0C0AA
:102A0000C2CDC8C2C0DED9C8C920C7C0D0DFC4206B
:102A100000000000202020C0C2D2CECCC0D2C8D737
:102A2000C5D1CAC8C92020200000000020F0E0E77E
:102A300020E220ECE5F1FFF62020202020202020BD
:102A40000000000020F0E0E720E2203220ECE5F179
:102A5000FFF6E020202020200000000020E4EBE82A
:102A6000F2E5EBFCEDEEF1F2FC20202028F72E2021
:102A70000000000020EEF7E5F0E5E4EDEEE520E2F1
:102A8000EAEBFEF7E5EDE8E50000000020F0E0E706
:102A900020E2203320ECE5F1FFF6E020202020208A
:102AA0000000000020F0E0E720E220EFEEEBE3EE94
:102AB000E4E02020202020200000000020F0E0E7BB
:102AC00020E220E3EEE420202020202020202020EF
:102AD00000000000F04BF1A103F1150203E0EE4A03
:102AE000F4A31532F9A1FFA00BF0ACFF002089F888
:102AF00004002DE099F9010099F90410884202DAE6
:102B000089F8040004E0411A022901DD801EF7E77C
:102B100099F9040010B1012803D019E0DE4B1533F8
:102B200011E0DD4AE3A315320EE0821A022A01DD2C
:102B3000801E1BE699F904004A1E9042F1D0891EBE
:102B40008842EBD0EDA3F3A2E0A1E6A00BF07AFF60
:102B500001200CF069FD99F8040028210CF04DF8D3
:102B600099F804005B21401CC0B20CF046F899F8BB
:102B700004007B21801CC0B20CF03FF8FEF744BE7D
:102B8000C54B1A46114608460BF05CFF4FF46060D7
:102B90000DF0D8FE99F902104D464A42402100B28C
:102BA0000BF03DFF400100F5806080B2064656A95B
:102BB0000DF045FF57A9301D0DF041FF4FA906F15B
:102BC00008000DF03CFF50A906F10C000DF037FF96
:102BD00051A906F110000DF032FF52A906F11400C0
:102BE0000DF02DFF55A906F118000DF028FF9DF8F6
:102BF0005801552840D050287ED042287AD05328FA
:102C000079D04628BAD1AFF2CC200290C7A0039069
:102C1000CCA00490D14802AD0346059007CD0BF03F
:102C200011FF9DF859010022401C21210BF0FFFDEE
:102C30009DF84001002240210BF0F9FD9DF8410173
:102C4000002223210BF0F3FD9DF8420100222421F4
:102C50000BF0EDFD9DF83E01002225210BF0E7FD74
:102C60009DF83C0100225E210BF0E1FD9DF83D0145
:102C7000401E0C287ED2ACE09DF85A015228C1D1EA
:102C8000B0A3B7A2BCA1C2A00BF0DCFE9DF840012E
:102C9000002240210BF0CBFD9DF8410100222321B1
:102CA0000BF0C5FD9DF84201002224210BF0BFFD71
:102CB0009DF83E01002225210BF0B9FD9DF83C0155
:102CC00000225E210BF0B3FD9DF83D01401E0C2853
:102CD00001D38DF83D4170489DF83D112A3000EB3D
:102CE0008100002228210BF0DCFE0020AAF84E0013
:102CF00044E701E07AE00BE39DF85A014128F7D15F
:102D0000A94802908FA003909DF84401412803D167
:102D10009DF8450141284DD001220021281DFDF7D5
:102D20009EFAA2A00490A7A00590ACA0069095F9E9
:102D300004500BEB8501091D5BF825000EC90BF053
:102D400081FE9DF8480100223E210BF070FD9DF8A8
:102D5000490100223D210BF06AFD9DF84A01002245
:102D600029210BF064FD9DF8460100225B210BF048
:102D70005EFD00E06FE39DF8440100223C210BF072
:102D800056FD9DF84501401E0C2801D38DF84541A4
:102D900041489DF845112A3000EB810000225D2159
:102DA0000BF07FFE9DF854019DF8551100EB0120BA
:102DB00080B2FAE18FA0049094A002AD0346059082
:102DC00007CD0BF03FFEBAF84C0000222B2180B259
:102DD0002CE731489DF83D112A3000EB810000229C
:102DE00028210BF05EFEAAF84E40C7E69DF85A0176
:102DF00043284BD053284AD05A2849D00526572873
:102E000047D04B28F1D168481C38029085A0039028
:102E10008AA004908FA0059094A0069099A0079096
:102E20009EA00890A3A00990A8A00A9095F904700C
:102E30000BEB8700001D0EC85BF827000BF002FEAD
:102E40009DF859010022401C21210BF0F0FC9DF857
:102E50004001002240210BF0EAFC9DF841010022D4
:102E600023210BF0E4FC9DF84201002224210BF009
:102E7000DEFC9DF83E01002225210BF0D8FC9DF8D8
:102E80003C0100225E210BF0D2FC2BE15EE18FE1E0
:102E9000D9E101E221E30000AEAD010020C6F3F06C
:102EA000EDE0EB20EFF3F1F2202020202020202085
:102EB0000000000020CEF7E8F1F2E8F2FC20E6F393
:102EC000F0EDE0EB20202020000000002028202052
:102ED00020202020202020202020202020202020F2
:102EE00000000000202020C6D3D0CDC0CB20D1CE02
:102EF000C1DBD2C8C920202000000000207B202098
:102F000020202020202020202020202020202020C1
:102F100000000000205B20202020202020202020F6
:102F200020202020202020200000000020EFF0E5BD
:102F3000E4EEF5F0E0EDE8F2E5EBFF20B92120202A
:102F40000000000020203025282020305E20304066
:102F50003A30233A30242020000000006C12000098
:102F60002020202020202020C8C1DDCF20202020AC
:102F70002020202000000000202020E8EBE820E2B4
:102F8000EAEBFEF7E5EDE8E5202020200000000058
:102F900020202020CFE5F0E5E7E0E3F0F3E7EAE0EA
:102FA0002020202000000000080D0000202020200C
:102FB0002020F3F1F2F0E0EDE5EDE02020202020EC
:102FC000000000002020305B5D2020303C20303E9F
:102FD0003A303D3A302920200000000020202020F7
:102FE0002055ECE8ED3D20202BC220202020202081
:102FF0000000000020202020EDE520F3F1F2F0E0B9
:10300000EDE5EDE020202020000000002020202021
:103010002055F1E5F2E83D20202BC2202020202081
:103020000000000020202020202020E1E0F2E0F03D
:10303000E5E82020202020200000000020CDE0F73F
:10304000E0EBEE2020202020202020202020202027
:10305000000000002030252F2820202F305E203057
:10306000403A30233A302420000000002020202065
:10307000202020202055E1E0F23D20203CC22020ED
:103080000000000020CAEEEDE5F6202020202020E0
:103090002020202020202020000000002030712F40
:1030A0007720202F30722030693A306C3A3073200C
:1030B0000000000020202020202020202055E1E0DA
:1030C000F23D20203EC220200000000020A8ECEAB3
:1030D000EEF1F2FC20202020207AE02AF72E20209A
:1030E000000000009DF83D01401E0C2801D38DF822
:1030F0003D419DF83D01F94D002205EB800028215E
:103100000BF0CFFC9DF84801002269210BF08FFBEA
:103110009DF8490100226C210BF089FB9DF84A01C2
:10312000002273210BF083FB9DF8460100227121E0
:103130000BF07DFB9DF84401002272210BF077FB20
:103140009DF84501401E0C287CD2BCE0AFF614006F
:103150000290E3A00390AFF2142004909DF8440184
:10316000412803D19DF84501412813D001220021B7
:10317000281DFDF774F8AFF2CC100590AFF2BC102B
:10318000069095F904500BEB8501091D5BF82500AD
:103190000EC928E0AFF2A41077E000BF8DF84541DA
:1031A00046E000BF9DF85901401C00222B213DE55F
:1031B000AFF678000290D0A00390AFF27820049090
:1031C0009DF84401412803D19DF845014128E1D0F3
:1031D00001220021281DFDF742F8AFF230200590B2
:1031E000AFF2202046E00BF02DFC9DF848010022B4
:1031F0003E210BF01CFB9DF8490100223D210BF004
:1032000016FB9DF84A01002229210BF010FB9DF8C6
:10321000460100225B210BF00AFB9DF844010022CD
:103220003C210BF004FB9DF84501401E0C28B5D253
:103230009DF84511A948002200EB81005D210BF0AB
:1032400030FCAFE761E0B2A00290B7A00390AFF20C
:10325000FC1004909DF84401412803D19DF84501DC
:10326000412811D001220021281DFCF7F8FFB4A04D
:103270000590B9A0069095F904600BEB8600001D3F
:103280000EC85BF82600AEE7B9A002AD0346059074
:1032900007CD0BF0D7FB85E7BBA00290AFF27C20F7
:1032A0000390AFF268200490AFF258200590BCA0C4
:1032B0000690AFF230200790AFF220200890BEA019
:1032C0000990C3A0B1E59DF84501002205EB8000FF
:1032D00077210BF0E6FBBDF85C0101227A210BF0AF
:1032E000A6FA9DF83F019DF84311012200EB012051
:1032F00080B23C210BF09BFABDF85E0101223E2119
:103300000BF095FAAAF84E6038E48DF84541DAE7FB
:10331000B5A002909DF85A014C2806D0542806D03A
:10332000552806D0752806D007E0B5A004E0BAA05D
:1033300002E0BFA000E0C4A00390AFF2F830049018
:103340009DF84401412803D19DF84501412879D0D9
:1033500001220021281DFCF782FFAFF2B03005905A
:10336000AFF2A030069095F904500BEB8501091DD2
:103370005BF825000EC90BF065FB9DF848010022A3
:103380003E210BF054FA9DF8490100223D210BF03B
:103390004EFA9DF84A01002229210BF048FA9DF8C7
:1033A000460100225B210BF042FA9DF84401002205
:1033B0003C210BF03CFA9DF84501401E0C2801D33E
:1033C0008DF845419DF845114448002200EB8100ED
:1033D0005D210BF066FB00BF9DF859010022401CE7
:1033E0002B210BF024FA9DF84001002240210BF024
:1033F0001EFA9DF84101002223210BF018FA9DF8D6
:103400004201002224210BF012FA9DF83E01002215
:1034100025210BF00CFA9DF83C0100225E210BF0F7
:1034200006FA9DF83D01401E0C2801D38DF83D4160
:103430009DF83D112948002200EB8100282102F06F
:10344000F8BFFFE7AFF2544002AD0346059007CD49
:103450000BF0F8FAC0E78DF83D41BAE4A2F5B85098
:10346000883801D17EA0A4E1624501D182A0A0E10B
:10347000424501D186A09CE1A2F59050CC3801D103
:1034800089A096E1A2F5B8507A3801D18CA090E1DC
:10349000A2F5B850753801D18FA08AE1A2F59050FD
:1034A000CA3801D192A084E1A2F59050C53801D16B
:1034B00095A07EE140F67810824201D198A078E193
:1034C00040F66C118A4201D19BA072E1A2F59053A3
:1034D000E83B01D19EA06CE146E1FDE3D8AD0100DF
:1034E000202020202020E1E0F2E0F0E5E82020206C
:1034F000202020200000000020E0F1E8ECECE5F2C4
:10350000F0E8FF20E1E0F2E0F0E5E8200000000054
:10351000202020C2FBF0E0E2EDE8E2E0FEF9E8E97D
:10352000202020200000000020202020202020E754
:10353000E0F0FFE4202020202020202000000000D8
:10354000202020202020E7E0E2E5F0F8E5ED202033
:10355000202020200000000020305B2F5D20202F45
:10356000303C20303E3A303D3A3029200000000007
:1035700020202020EDE520E7E0E2E5F0F8E5ED2071
:10358000202020200000000020202020202020D00B
:10359000E0E7F0FFE42020202020202000000000B1
:1035A0002020202020202020202055E1E0F23D2076
:1035B000203CC220000000002020202020202020CD
:1035C000202055E1E0F23D20203EC2200000000016
:1035D00020202020CEF2E4E0EDEE202020207AE032
:1035E0002AF72E2000000000202020C0E2E0F0E8B2
:1035F000FF20C1CFD1204E2B202020200000000032
:103600002020202020EEF2EAEBFEF7E8EBF1FF208D
:103610002020202000000000202020202020EFE596
:10362000F0E5E3F0E5E2202020202020000000006B
:10363000202020E7E0E2FBF8E5EDEE2055E2FBF587
:103640002E20202000000000202020E7E0EDE8E60A
:10365000E5EDEE2055E2FBF52E20202000000000D5
:10366000202020C8C1DDCF3232302F36302D323409
:103670004120202000000000202020C8C1DDCF32E2
:1036800032302F36302D3132412020200000000012
:10369000202020C8C1DDCF3232302F34382D3234D3
:1036A0004120202000000000202020C8C1DDCF32B2
:1036B00032302F34382D31324120202000000000DC
:1036C000202020C8C1DDCF3232302F36302D3130AE
:1036D0004120202000000000202020C8C1DDCF3282
:1036E00032302F36302D35412020202000000000C0
:1036F000202020C8C1DDCF3232302F34382D313078
:103700004120202000000000202020C8C1DDCF3251
:1037100032302F34382D3541202020200000000089
:10372000202020C8C1DDCF3232302F32342D323448
:103730004120202000000000202020C8C1DDCF3221
:1037400032302F32342D3132412020200000000051
:10375000202020C8C1DDCF3232302F34382D343014
:103760004120202000000000A2F5B853983B01D171
:10377000B6A01EE0A2F59053D43B01D1B9A018E049
:10378000A2F5B853843B01D1BCA012E0A2F51063AE
:10379000923B01D1BFA00CE0A2F51063793B01D1AF
:1037A000C2A006E082423FF489AE8A423FF48CAE6A
:1037B000C4A00290C9A00390CEA00490D3A005900D
:1037C000D8A00690DDA00790E2A00890E7A009909D
:1037D000ECA00A90F1A00B90F6A00C90FB483F1DC6
:1037E0000D900ECF4E465BF825000BF02BF930798B
:1037F000082802D1F64880F83C40F64CB4F90A009B
:10380000202805DA0022212180B20BF010F805E013
:103810004FF0FF322121F0A00BF043F9B4F90C0076
:103820000D2805DA0022402180B20BF000F805E0F7
:103830004FF0FF324021E8A00BF033F9B4F90E004D
:10384000642805DA0022232180B20AF0F0FF05E0A7
:103850004FF0FF322321E0A00BF023F9DD4CDF4DC8
:103860008034206AA84206DB6FF004023F21DCA00E
:103870000BF017F903E000223F210AF05EFE002260
:103880002B2109200AF0D3FF0022282105200AF06D
:10389000CEFF606AA84206DB6FF004022921D0A0A7
:1038A0000BF0FFF803E0002229210AF046FE606ACF
:1038B000A84206DB6FF004022921C9A00BF0F1F841
:1038C00003E0002229210AF038FEA06AA84206DBA4
:1038D0006FF004023C21C2A00BF0E3F803E00022E9
:1038E0003C210AF02AFEE06AA84206DB6FF00402DF
:1038F0003E21BBA00BF0D5F803E000223E210AF0E8
:103900001CFE6FF0030422465B21B7A00BF0C9F840
:1039100022462421B4A00BF0C4F822462521B2A0EF
:103920000BF0BFF822465E21AFA00BF0BAF822469A
:103930002621ADA00BF0B5F84EE2A64EA2F5B85088
:10394000883802D1AFF2E82060E0624502D1AFF2E0
:10395000D8205BE0424502D1AFF2CC2056E0A2F580
:103960009050CC3802D1AFF2C0204FE0A2F5B85051
:103970007A3802D1AFF2B82048E0A2F5B8507538D5
:1039800002D1AFF2AC2041E0A2F59050CA3802D18A
:10399000AFF2A4203AE0A2F59050C53802D1AFF2C0
:1039A000982033E0A2F51060783802D1AFF2902071
:1039B0002CE0A2F510606C3802D1AFF2842025E033
:1039C000A2F59050E83802D1AFF27C201EE0A2F5BB
:1039D000B8508E3801D187A018E0A2F59050D438A5
:1039E00001D120A012E0A2F5B8507F3801D187A004
:1039F0000CE0A2F51060923801D126A006E0A2F5F5
:103A00001060793801D129A000E02EA0029033A0E7
:103A1000039038A0049083A0059048A006904DA084
:103A200007906A483F1D08900ECF5BF825000BF009
:103A300009F8B6F90A003546202805DA00222121C6
:103A400080B20AF0F4FE00E1F8E00000202020C877
:103A5000C1DDCF3232302F36302D3430412020209E
:103A600000000000202020C8C1DDCF3232302F34CA
:103A7000382D32304120202000000000202020C8B6
:103A8000C1DDCF3232302F36302D32304120202070
:103A900000000000202020C8C1DDCF3232302F329C
:103AA000342D35304120202000000000202020C887
:103AB000C1DDCF3232302F32342D3235412020203B
:103AC00000000000202020D2E8EF20EDE5E8E7E24A
:103AD000E5F1F2E5ED20202000000000C4E0F2E076
:103AE00020E8E7E3EEF22E2030212F30402F302364
:103AF00000000000F8E0F1F1E82020202020532F02
:103B00004E30303030303F2000000000D3CAD33276
:103B100030322E2B2820532F4E3030303030292099
:103B200000000000CFCE2020202020202020762062
:103B30002020205B2020202000000000C1CFD131B8
:103B4000202D20202020532F4E30303030303C208C
:103B500000000000C1CFD132202D20202020532F83
:103B60004E30303030303E200000000052533233AF
:103B700032202020202020762020202420202020D9
:103B80000000000043414E20504448202D20207664
:103B900020202025202020200000000043414E202E
:103BA000534448202D2020762020205E20202020F5
:103BB0000000000045746865726E65742D202076E3
:103BC0002020202620202020000000008027000048
:103BD0007EE60720900000102A2A000040420F00D5
:103BE0002A2A2A2A2A2A00002D2D2D2D2D2D2D2D71
:103BF0002D000000202020C8C1DDCF3232302F360A
:103C0000302D33304120202000000000202020C82B
:103C1000C1DDCF3232302F36302D313541202020DA
:103C200000000000D3CAD330302B2E302820532F71
:103C30004E30303030302920000000004FF0FF328D
:103C40002121AFF26C000AF02CFFB5F90C000D2811
:103C500005DA0022402180B20AF0E9FD06E04FF0CB
:103C6000FF324021AFF290000AF01BFFB5F90E00C1
:103C7000642805DA0022232180B20AF0D8FD06E08C
:103C80004FF0FF322321AFF2B0000AF00AFFCD4D12
:103C9000CD4E286AB04207DB6FF004023F21AFF23D
:103CA000C0000AF0FEFE03E000223F210AF045FCBE
:103CB00000222B214FF461700AF0B9FD0022282167
:103CC00005200AF0B4FD686AB04209DB6FF0040217
:103CD0002921AFF2F40000E0F9E30AF0E2FE03E08C
:103CE000002229210AF029FCA86AB04207DB6FF004
:103CF00004023C21AFF218100AF0D3FE03E00022C8
:103D00003C210AF01AFCE86AB04207DB6FF00402BB
:103D10003E21AFF234100AF0C4FE03E000223E213F
:103D20000AF00BFC99F904004946032802D14A78AD
:103D3000092A13D099F90110A1B1012915D002293E
:103D40001ED0032924D004292AD005292DD00629E4
:103D500033D0072936D0082938D03DE09B4880F879
:103D60003C4039E088BB142237E0022834DAC0F145
:103D70000100C0B202220C210AF0A6FEFDF744BDEC
:103D8000022829DAC0F101000222C0B20F21F3E7B4
:103D9000022821DAC0F101000222C0B21221EBE7B1
:103DA000032819DAC0F1020012E0042814DAC0F185
:103DB00003000622C0B20321DEE704280CDAC0F1BA
:103DC000030005E0C0F1040002E005E0C0F10500D9
:103DD0000A22C0B21146CFE7002200210846CBE7F5
:103DE0007BA0029080A0039085A004908AA00590FB
:103DF0008FA0069094A0079099A008909EA009908B
:103E0000A3A00A90A8A00B90ADA00C90B2A00D901A
:103E1000B7A00E90BCA00F90C1A01090C6A01190AA
:103E2000CBA01290D0A01390D5A01490DAA015903A
:103E3000DFA01690E4A01790E9A01890EEA01990CA
:103E4000F3481A90F3A01B90F8A01C90022B02DDFF
:103E500089F8046003E0A94201DA89F8041099F9AD
:103E600004000BEB8002121D5BF820100CCAF5A0B9
:103E70000AF0E8FD01200BF0D7FB99F904001128A6
:103E800051DABAF852000022401C3C21544680B25C
:103E90000AF0CDFCB4F862004FF000024FF02801A8
:103EA00010B1DB481F3801E0D9481A380AF0F9FD93
:103EB000B4F85C004FF000024FF0290108B1E7A010
:103EC00000E0E8A00AF0EDFD94F82300552863D047
:103ED0006FF003027921E5A00AF0E3FD34F8540FF6
:103EE0000122212180B20AF0A2FC60880122402137
:103EF00080B20AF09CFCA0880122232180B20AF043
:103F000096FC608901225E2180B20AF090FCA089B3
:103F10000022262180B20AF08AFC608B01223E2119
:103F200080B20AF084FC0AF15A040022208824217D
:103F300080B20AF07CFC608902226A2180B20AF019
:103F400076FCA08903225B2180B20AF070FCE08934
:103F500001225D2180B20AF06AFC208A01227B21C5
:103F600080B20AF064FC608A01224A2180B20AF021
:103F70005EFCE08A0022212180B20AF058FC608BAE
:103F80000022712180B20AF052FCB4F91C0090B1F9
:103F900000225121FEF7EFBA6FF007027921B5A098
:103FA0000AF07FFD0748002280387921B0F87400BC
:103FB0000AF03DFC92E76FF001025121B0A002F03F
:103FC00038BA00001001001040420F007EE60720C2
:103FD00020D1F2E0EDE4E0F0F2EDFBE5202020203E
:103FE000202020200000000020C2F0E5ECFF20E8A7
:103FF00020E4E0F2E020202020202020000000002B
:1040000020D1F2F0F3EAF2F3F0E02020202020208B
:10401000202020200000000020CCEDE5ECEEEDE8B3
:10402000EAE020202020202020202079000000002D
:1040300020CEF1EDEEE2EDEEE920E8F1F2EEF7ED63
:104040002E204E3C0000000020C7E22EF1E8E3EDF8
:104050002E202020282020202020202000000000CA
:1040600020CEF2EAEBFEF7E5EDE8E520F1E8E3ED3E
:10407000E0EBE020000000002020E0E2E0F0E8E8D3
:1040800020202020292020202020202000000000A7
:1040900020C0CFC220E8F1F2EEF7EDE8EAEEE22030
:1040A000202020200000000020556D61783D202058
:1040B000202020202021C2202020202000000000DD
:1040C0002055E1E0F26D6178203D20202040C220A3
:1040D00020202020000000002055F1E8E3ED3D20E5
:1040E00020202020205EC220202020200000000070
:1040F00020556D696E2EF1E5F2E83D202026C220A4
:104100002020202000000000205530E13D2020200C
:1041100020202020203EC22020202020000000005F
:104120002049E1EA2E3D202020202020206AC020C6
:1041300020202020000000002049E72EECE0F52E92
:104140003D202020204AC020202020200000000008
:1041500020496D61783D202020202020205D4120D5
:104160002020202000000000204B696D61783D2058
:1041700020202020207B2020202020200000000064
:104180002054E72EE2EAEB2EE02EF12E2021F12042
:10419000202020200000000020746D61783D202048
:1041A000202020202024B0432020202000000000D8
:1041B0002045746865726E657420202020202020C0
:1041C000202020200000000020C2EDE5F8EDE8E509
:1041D00020E4E0F2F7E8EAE82020202000000000D8
:1041E000204D4F44425553202020202020202020C5
:1041F000202020200000000020C0E2E0F0E8E9EDEF
:10420000FBE520F0E5EBE520202020200000000069
:10421000C3AD010020CAE0EBE8E1F0EEE2EAE820FD
:1042200020202020202020200000000020D2E5F1C6
:10423000F2202020202020202020202020202020AC
:10424000000000002020202020D3D1D2C0CDCEC23B
:10425000CAC820202020202000000000E0E2F2EE6A
:10426000EC2E0000F0F3F7ED2E000000E2FBEAEB8D
:104270002E000000F7E5F0E5E72079F12E000000C0
:10428000C2DBCACB2E000000DA4BDBA2E0A1E6A025
:104290000AF0D8FB01200BF0C7F9E94C00223C21C1
:1042A000208880B20AF0C3FA00223E21608871E6BD
:1042B000E4A00290E9A00390EEA00490F3A0059082
:1042C000F84806902AB1A0F115029AF81B004BF8A5
:1042D0002020A94202DA89F8041003E0022B01DD54
:1042E00089F8046099F904400BEB8400D0E90123BC
:1042F0005BF82410ECA001F02BBB9AF80B0054469D
:10430000401CC0B28AF80B000F2809D3002008F126
:10431000010808F0FF01E0726177032900D360779C
:10432000E7480290DF4815380390607F20B10128EC
:1043300004D0022817D003E0E2A000E0E7A0049038
:1043400002ADECA00ECD0AF07DFB99F9010060B141
:1043500001280FD0022812D0032815D0042818D025
:1043600005281BD01EE0E9A0E9E7EE495E2081F8B0
:104370002A0017E0EB495E2081F82D0012E0E949A0
:104380005E2081F830000DE0E6495E2081F83300C0
:1043900008E0E4495E2081F8360003E0E1495E2050
:1043A00081F83A00E04D28784FF000024FF02601E6
:1043B0000AF03DFA287900225E210AF038FA287ABC
:1043C000002225210AF033FA287B00223C210AF042
:1043D0002EFA297EB3480022153000EB81003E21E1
:1043E0000AF05FFBA88B00227B210AF020FA607D97
:1043F00000286CD03A2009F0B0FFCA4D20242C547C
:104400003A2009F0AAFF2C54B8E4C8A002909AF808
:1044100021005746552808D076480390A148153802
:104420000490059006903C7716E097F822005528F6
:10443000C4A0039007D06F4804909A48153805909F
:104440000690022007E0C5A004906A4805909548B0
:104450001538069003203877A94202DA89F804104B
:1044600003E0022B01DD89F8046099F904000BEBED
:104470008002121D5BF820100CCABEA00AF0E2FAFE
:1044800001200BF0D1F897F821004FF000025528D9
:104490004FF021010DD08348B0F11A000AF001FB62
:1044A00097F822004FF0000255284FF0400103D04A
:1044B00086E07C481F38F1E77A481F380AF0F1FAA5
:1044C0005F48002223216838B0F8720062E5D5E326
:1044D000AEA00290B3A00390B8A00490BDA0059038
:1044E000C2A006907648C430079018300890C5A046
:1044F00009906C480A90A94202DA89F8041003E096
:10450000022B01DD89F8046099F904400BEB84006B
:10451000D0E901235BF82410C0A00AF093FA01202F
:104520000BF082F8387820B3012828D06FF004020D
:104530002121C0A00AF0B5FA787830B301282AD03A
:104540006FF004024021BBA00AF0ABFAB87840B388
:1045500001282CD06FF004022321B6A00AF0A1FAA2
:10456000F87850B301282ED06FF004022821B1A0B2
:1045700025E54C4821216FF002021A38DAE7494854
:1045800021216FF002021F38D4E7464840216FF026
:1045900002021A38D8E7434840216FF002021F3860
:1045A000D2E7404823216FF002021A38D6E73D488F
:1045B00023216FF002021F38D0E76FF0020228219A
:1045C00038481A38FBE46FF00202282159E39BA017
:1045D000029080A003903A48C430049018300590AF
:1045E00088A006902F480790A94202DA89F80410A3
:1045F00034E12FE1802700002042415544524154CC
:104600004520202020202020203E302000000000D7
:104610002041445245535320202020202020202098
:1046200020203C20000000002020D3D1D2C0CDCEDD
:10463000C2CAC8204D4F44425553202000000000FC
:10464000F800001020C8C1DDCF3232302F36302DB7
:104650003132C02D312F32200000000020C8C1DDD2
:10466000CF3232302F36302D3132C02D322F322022
:104670000000000020C8C1DDCF3232302F34382D89
:104680003132C02D312F32200000000020C8C1DDA2
:10469000CF3232302F34382D3132C02D322F3220EC
:1046A00000000000C3AD0100D1D2C0CDC4C0D0D243
:1046B000CDDBC520D3D1D22E2DCAC82000000000EA
:1046C000001D0000202020209A209C202D20E2FBAD
:1046D000E1EEF0202020202000000000202020BF5C
:1046E000209D202D20F3F1F2E0EDEEE2EAE0202023
:1046F0000000000020D3D1D2C0CDCEC2CAC020203D
:10470000C2D0C5CCC5CDC82000000000202020208C
:1047100020A420202D20E2FBF5EEE4202020202004
:10472000000000007EE607202040024020C0CFC2EB
:104730002031E920F3F0EEE2E5EDFC2021202020FD
:104740000000000020C0CFC22032E920F3F0EEE2EA
:10475000E5EDFC20402020200000000020CFE5F007
:10476000E8EEE420C0CFC232202020202023F72E04
:1047700000000000202020C0CFC220C8D1D2CED758
:10478000CDC8CACEC22020200000000020D0E5EB1A
:10479000E520E0E22EB93120202020202020202119
:1047A0000000000020D0E5EBE520E0E22EB9322049
:1047B00020202020202020400000000020D0E5EB19
:1047C000E520E0E22EB933202020202020202023E5
:1047D0000000000020D0E5EBE520F1E0ECEEEAE09F
:1047E000EBE8E1F0EEE2EAE80000000020D0E5EBC3
:1047F000E520E1E0F2E0F0E5E8202020202020287C
:104800000000000020C1CFD1312BC1CFD1322020F8
:104810002020202020202020000000002020202018
:1048200020202020D2C5D1D22020202020202020CE
:1048300000000000D0C0C1CED72E000020D0E5EB94
:10484000E520E0E2E0F0E8FF2020202028202020E2
:1048500000000000022B01DD89F8046099F9045082
:104860000BEB8501D1E901235BF82510AFF2540071
:104870000AF0E8F801200AF0D7FE387810B10128D4
:1048800004D009E000222821FE4803E0FD48002270
:104890002821401F0AF005F98AF83140B4E5A94201
:1048A00002DA89F8041003E0022B01DD89F80460C4
:1048B000F44BF5A21A33FAA1FFA00AF0C3F80120C5
:1048C0000AF0B2FE387920B1012806D0032809D0B9
:1048D0000EE000223C21EB4808E0EA4800223C219F
:1048E000401F03E000223C21AFF2B8000AF0D9F8E3
:1048F000F74802223A21B0F97A0001F077BAA942CA
:1049000002DA89F8041003E0022B01DD89F8046063
:10491000DC4BF0A21A33F5A1FAA00AF093F80120BB
:104920000AF082FE787920B1012809D002280FD040
:1049300018E000224021F9A00AF0B3F81E200EE092
:1049400000224021F7A00AF0ACF840F2CA3006E09D
:1049500000224021F5A00AF0A4F845F25550DC49A8
:104960008031888000222421F1A00AF09AF8D848EA
:104970000122B4303C21008809F059FFD4480122BB
:10498000B8303E21008809F052FF00222321EA4876
:10499000AFE0A94202DA89F8041003E0022B01DD3E
:1049A00089F80460B74BE5A21A33D0A1E9A00AF058
:1049B00049F801200AF038FEB87920B1012809D061
:1049C00002280FD018E000224021D4A00AF069F894
:1049D0001E200EE000224021D2A00AF062F840F230
:1049E000CA3006E000224021D0A00AF05AF845F271
:1049F0005550B7498031C88000222421CCA00AF04C
:104A000050F8B3480122B4305B21408809F00FFF11
:104A1000AF480122B8305D21408809F008FF00222C
:104A2000232165E0D1A00290AAA00390C3A0049026
:104A300094481A300590A94202DA89F8041003E07C
:104A4000022B01DD89F8046099F90410CDA00BEB6D
:104A50008102121D5BF821100CCA09F0F3FF01203E
:104A60000AF0E2FDF87920B1012809D002280FD020
:104A700019E000224021A9A00AF013F81E200EE040
:104A800000224021A7A00AF00CF840F2CA3006E04C
:104A900000224021A5A00AF004F845F255508C49A7
:104AA00080318880C88000222421A1A009F0F9FF6C
:104AB000874D0122B4353C21288809F0B8FE2E1D0F
:104AC000012230883E2109F0B2FE9B4800222321BA
:104AD000008880B209F0ABFE688801225B2109F0F2
:104AE000A6FE708801225D2109F0A1FE002221218D
:104AF000AA48008880B209F09AFEA9480122242120
:104B0000008880B209F093FE8AF832407CE4A5A0C8
:104B10000290AAA00390AFA00490B4A005905948B9
:104B20001A300690A94202DA89F8041003E0022B39
:104B300001DD89F8046099F90410B2A00BEB810241
:104B4000121D5BF821100CCA09F07CFF01200AF04D
:104B50006BFD0AF1780400226088212180B209F0FF
:104B600066FE20880022402180B209F060FEA08805
:104B70000022232180B209F05AFE00222421E0887D
:104B8000A4E4A6A00290ABA24BF82720AFA2CCF8D9
:104B90000420B4A2CCF80820B8A2CCF80C20394AE2
:104BA000BAF97E401A323C4458464BF824200BEBAD
:104BB0008404B84A6260A2604A46A94201DA1171CF
:104BC00002E0022B00DD167199F9041000EB81025E
:104BD000121D5BF821100CCAAFA0C0E3B4A0029074
:104BE000B9A00390BEA00490C3A00590C8A00690F1
:104BF000CDA00790D2A0089022484C461A300990C8
:104C0000A94201DA217102E0012B00DD227194F941
:104C10000410D7A00BEB810253685BF82120CEA1D2
:104C200009F010FF02200AF0FFFC94F902000022B4
:104C3000401C80B2212109F0FAFD94F90210D248FB
:104C4000002230F91100402109F028FCCE4994F9E6
:104C50000200303931F8101089B16FF001022321C0
:104C6000AFF6F81009F01DFFC74994F90200243986
:104C700031F8101021B16FF0010287E173E3BEE15A
:104C8000C7E171E3A9AD01002049E1E0F23D202038
:104C90002020202020202020203A41200000000059
:104CA00020D0E5EBE52020202020202020203C20E3
:104CB000202020200000000020D2C5D1D220D1C069
:104CC000CCCECAC0CBC8C1D0CEC2CAC00000000082
:104CD000900000102055313D202020203CC220496A
:104CE000313D202020203EC0000000002055F03D36
:104CF000402020242020202020F8E8EC3D20202304
:104D0000000000002020202020D2C5D1D220C1CF19
:104D1000D13120202020202000000000556D696E38
:104D200000000000556D6178000000005532300031
:104D30002820202024290000440200102055323D64
:104D4000202020205BC22049323D202020205DC051
:104D5000000000002020202020D2C5D1D220C1CFC9
:104D6000D132202020202020000000002055F03DDE
:104D7000402020242020202020202023202020210B
:104D800000000000202020D2C5D1D220C1CFD131D7
:104D90002BC1CFD13220202000000000460200109D
:104DA0004802001020C1E0F2E0F0E5E920202020D8
:104DB00020202020202020400000000020C8F1F208
:104DC000EEF7EDE8EAEEE22020202020202020214E
:104DD0000000000020C4E0F2F7E8EAEEE220F2E58D
:104DE000ECEFE5F02E2020230000000020D1F3F5A9
:104DF000E8F520EAEEEDF2E0EAF2EEE220202024EF
:104E000000000000202020202020D1D2D0D3CAD200
:104E1000D3D0C020202020200000000020C4E0F2D9
:104E2000F7E8EA20F2E5ECEFE5F02E204E31202005
:104E30000000000020D1F3F5EEE920EAEEEDF2E00B
:104E4000EAF2204E312020200000000020D1F3F5AE
:104E5000EEE920EAEEEDF2E0EAF2204E32202020E8
:104E60000000000020D1F3F5EEE920EAEEEDF2E0DB
:104E7000EAF2204E332020200000000020D1F3F57C
:104E8000EEE920EAEEEDF2E0EAF2204E34202020B6
:104E9000000000006C1200002020C2CDC5D8CDC893
:104EA000C520C4C0D2D7C8CAC82020200000000036
:104EB00020F2E5ECEFE5F0E0F2F3F0E02020202036
:104EC0002040B0430000000020746D617820202055
:104ED00020202020202020202023B043000000009C
:104EE00020746D696E20202020202020202020208A
:104EF0002024B0430000000020D0E5EBE520202076
:104F00002020202020202020205B202000000000E6
:104F100020C7E2F3EA20202020202020202020208B
:104F2000205D20200000000020C4E8F1EFEBE5E95F
:104F300020202020202020202028202000000000E9
:104F400020534E4D502054524150202020202020EC
:104F50002029202000000000202020D2C5CCCFC571
:104F6000D0C0D2D3D0DB204E212020200000000072
:104F70002020C2CDC5D8CDC8C920C4C0D2D7C8CA88
:104F80002020202000000000980100102421AFF60E
:104F9000245009F086FD00BF94F90200F3496FF038
:104FA000010231F810004FF05B0188B3AFF64450B6
:104FB00009F077FDED4994F90200891D6FF00102B7
:104FC00031F810004FF05D0170B3AFF6605000BFD4
:104FD00009F067FDE54894F902100C306FF001020A
:104FE00030F811004FF0280100B3AFF6805000BF39
:104FF00009F057FDDD4994F902001231B1E0DB49B7
:105000000022123931F91000232109F047FA2BE66A
:1050100008E0D6490022891F31F91000242109F047
:105020003DFAB9E7D2A0C3E7D1A0D1E7D0A0DFE72E
:10503000CFA001F0FEB9AFF6CC50FAE7CEA00290B7
:10504000D3A00390D8A00490AFF254100590AFF213
:1050500040100690AFF230100790AFF21C1008908D
:10506000D7484C460990A94201DA217102E0022B8F
:1050700000DD267194F90450D2A00BEB8501D1E933
:1050800001235BF8251009F0DDFC01200AF0CCFAC1
:1050900094F902000022401C80B2212109F0C7FBD4
:1050A000B24994F9020034394FF00002085C4FF025
:1050B0004001FF285FD0C9A009F0F3FCAB4994F987
:1050C000020026314FF0000231F810004FF02301AA
:1050D000F0B3C2A009F0E5FCA44994F902000C3930
:1050E00031F81010A9B36FF005022421AFF68460E7
:1050F00009F0D7FC9D4994F902002E316FF00102AE
:1051000031F810004FF05B0120B3AFF6A06000BF94
:1051100009F0C7FC954994F9020036316FF001029D
:1051200031F810004FF05D0190B3AFF6C06000BFE2
:1051300009F0B7FC8D4894F902103E306FF001027F
:1051400030F811004FF0280138B3AFF6E06002E00C
:1051500013E014E01DE009F0A4FC844994F9020076
:1051600046316FF0010231F810004FF0290100289C
:105170007FF461AF5CE79BA09EE79AA0AAE77B491A
:105180000022891F31F91000242109F087F9B1E7C5
:1051900001E077A0BCE776A0CAE775A0D7E7884C06
:1051A00052AF493415CC15C790A0029095A003903A
:1051B0009AA004909FA00590A4A00690A9A0079093
:1051C000AEA00890B3A00990B8A00A90BDA00B9023
:1051D000C2A00C90C7A00D90CCA00E90D1A00F90B3
:1051E000D6A01090DBA01190E0A01290E5A0139043
:1051F000EAA01490EFA01590F4A05C4C1690F9482A
:10520000F03C1790208C20B9F6480390F6480490A3
:1052100005904F46A94201DA397102E0022B00DD08
:105220003E7197F904000BEB8002121D5BF8201011
:105230000CCAEEA009F006FC01200AF0F5F9208C5A
:1052400020B16FF002022121EEA004E06FF0030212
:105250002121AFF6D47009F024FC608C20B16FF0EE
:1052600002024021E7A004E06FF003024021AFF604
:10527000F07009F016FC79782320022945D000212E
:10528000CDE90001B4F92A30B4F92820B4F9261088
:10529000B4F9240009F029FA79782420042938D0B7
:1052A0005FF00001CDE90001B4F93230B4F93020EB
:1052B000B4F92E10B4F92C0009F017FA79782920E6
:1052C00006292AD05FF00001CDE90001B4F966306B
:1052D000B4F96420B4F96210B4F9600009F005FA79
:1052E000B4F85C0000225B2180B209F0A0FAB4F8A7
:1052F0005E0000225D2180B209F099FAB4F9340011
:105300006FF00D05FF280CD014E0B978491CC9B224
:10531000B6E7B978491CC9B2C4E7B978491CC9B223
:10532000D2E7E18EFF2905D1218FFF2902D1618FBC
:10533000FF2915D07A7825210B2A12D05FF00002C0
:10534000CDE90012B4F93A30B4F93820B4F9361086
:1053500009F0CBF9B4F93C00FF2803D06BE140E23F
:1053600054E159E15CE152E3CFE20000800100101A
:10537000E2EAEB2E0000000020F2E5EAF3F92EF15C
:10538000EEF1F22E204020202020202000000000FE
:1053900020E0E2E0F0E8E9EDEEE520F1EEF1F2EEFA
:1053A000FFEDE8E500000000202020202020202044
:1053B000202D20232020202020202020000000005D
:1053C000C3AD01002020D1D3D5CEC920CACECDD2C5
:1053D000C0CAD2204E21202000000000EDE5E7E009
:1053E000ECEA2E00E7E0ECEAEDF3F2002045746809
:1053F00065726E657420202020202020202021202E
:10540000000000002044484350EAEBE8E5EDF220BC
:10541000202020202020402000000000204950E0D3
:10542000E4F0E5F120202020202020202020202052
:105430000000000020203030302E3030302E303050
:10544000302E3030232020200000000020CCE0F15E
:10545000EAE020EFEEE4F1E5F2E820202020202031
:105460000000000020203030302E3030302E303020
:10547000302E3030242020200000000020D8EBFE09
:10548000E720202020202020202020202020202055
:105490000000000020203030302E3030302E3030F0
:1054A000302E3030292020200000000020CFEEF0E8
:1054B000F22EF7F2E5EDE8FF202020202020205BEF
:1054C0000000000020CFEEF0F22EE7E0EFE8F1E878
:1054D000202020202020205D0000000020436F6D50
:1054E0006D756E697479203C2020202020202020BA
:1054F0000000000020C0E4F0E5F1E0F220E4EBFF62
:105500002054524150204E31000000002020303005
:10551000302E3030302E3030302E303025202020CC
:105520000000000020C0E4F0E5F1E0F220E4EBFF31
:105530002054524150204E320000000020203030D4
:10554000302E3030302E3030302E30305E20202063
:105550000000000020C0E4F0E5F1E0F220E4EBFF01
:105560002054524150204E330000000020203030A3
:10557000302E3030302E3030302E3030262020206B
:105580000000000020C0E4F0E5F1E0F220E4EBFFD1
:105590002054524150204E34000000002020303072
:1055A000302E3030302E3030302E30302A20202037
:1055B0000000000020C0E4F0E5F1E0F220E4EBFFA1
:1055C0002054524150204E35000000002020303041
:1055D000302E3030302E3030302E30302820202009
:1055E00000000000802700006C12000020D3D1D200
:1055F000C0CDCEC2CAC82045746865726E6574207D
:1056000000000000C2CACB2E000000002A4625215F
:10561000FFA009F046FA9DE6BA78521CD2B28FE696
:10562000E18FFF2907D1B4F84010FF2903D1B4F866
:105630004210FF2913D079780D2916D000225E215F
:10564000CDE90012B4F94230B4F94020B4F93E106B
:1056500009F04BF8B4F94400FF280DD018E02A46B1
:105660005E21EBA009F01DFAF4E7B978491CC9B234
:105670005E22CDE90021E5E7B4F84610FF2907D105
:10568000B4F84810FF2903D1B4F84A10FF2914D008
:105690007A7826210F2A16D05FF00002CDE9001299
:1056A000B4F94A30B4F94820B4F9461009F01DF8AD
:1056B000B4F94C00FF280AD015E02A462621D4A0D0
:1056C00009F0EFF9F4E7BA78521CD2B2E6E7B4F881
:1056D0004E10FF2907D1B4F85010FF2903D1B4F8B8
:1056E0005210FF2913D07A782A21112A15D00022CE
:1056F000CDE90012B4F95230B4F95020B4F94E108B
:1057000008F0F3FFB4F95400FF280AD015E02A4648
:105710002A21BFA009F0C5F9F4E7BA78521CD2B229
:10572000E6E7B4F85610FF2907D1B4F85810FF295E
:1057300003D1B4F85A10FF2925D07A782821132AEA
:1057400027D00022CDE90012B4F95A30B4F958201C
:10575000B4F9561008F0C9FFB249002052AA0B5CF8
:105760001354401CC0B20928F9D300208DF8510110
:105770007878BA780A2810D000233C2152A808F083
:1057800097FFFCF741B82A462821A1A009F089F922
:10579000E2E7BA78521CD2B2D4E70123EDE7A2A027
:1057A0000290A7A00390ACA00490B1A00590484639
:1057B000BEF11E0F03D1569A0AB1B34A0592B34AFD
:1057C0000692A94201DA017102E0022B00DD0671A6
:1057D00099F904400BEB8400D0E901235BF8241015
:1057E000ABA0B5E0B0A00290B5A00390BAA0049021
:1057F000BFA00590C4A00690C9A00790CEA00890B5
:10580000D3A00990D8A00A90A0484C460B90A9427A
:1058100001DA217102E0022B00DD267194F90450B7
:10582000D7A00BEB8501D1E901235BF8251009F026
:1058300009F9012009F0F8FE94F902000022401C49
:1058400080B2212108F0F3FF94F90200D24D6FF0ED
:1058500002024FF0400135F81000C00702D08B481B
:105860001F3801E089481A3809F01BF994F9020041
:105870006FF002024FF0230135F81000800702D5C7
:1058800082481F3801E081481A3809F00AF994F972
:1058900002006FF002024FF0240135F810004007BB
:1058A00002D57A481F3801E078481A3809F0F9F82B
:1058B00094F902006FF002024FF0260135F8100053
:1058C000000702D571481F3801E070481A3809F006
:1058D000E8F894F902006FF002024FF0250135F864
:1058E0001000C00602D569481F3801E067481A3821
:1058F00009F0D7F894F902006FF002024FF05E0150
:1059000035F8100080067EF55BAE60481F3865E212
:10591000A2A3A8A2ADA1B3A0B4E3B84802904838AE
:10592000039018300490B6480590584806904846B1
:10593000022B01DD067102E0A94200DA017199F93A
:105940000410B0A00BEB8102121D5BF821100CCAF1
:1059500009F078F8012009F067FE12E7AF485546D4
:105960000290B8F1000F4FD0ADA00390B2A0049008
:10597000AA48894A18380590B5A00690AEA00790AD
:10598000A6484E463030543A089012F80E00C8B37C
:105990003E48579A153809900AB1B3A209920A9065
:1059A0003A480B9015380C900D9061B301292AD01C
:1059B000022928D0032928D0042926D0052924D05B
:1059C000062923D0072921D008291FD0092041B258
:1059D0000BEB81023071121D5BF821100CCAA8A0DC
:1059E00009F030F8012009F01FFE96F902000022AC
:1059F000401C80B2212108F01AFF674896F9021076
:105A00001E3849E16BE16FE165E16FE170E13AE376
:105A100020202020EDE5E0EAF2E8E2E5ED2020207C
:105A2000200000006C6A001020D0E5EBE520B931C1
:105A300020202020202020202020202000000000E6
:105A400020D0E5EBE520B9322020202020202020A6
:105A5000202020200000000020D0E5EBE520B93315
:105A600020202020202020202020202000000000B6
:105A700020C7E0E2EEE4F1EAE8E520F3F1F2E0ED40
:105A8000EEE2EAE8000000006C120000C3AD010085
:105A9000202020C0C2C0D0C8C9CDDBC520D0C5CB16
:105AA000C52020200000000020C0E2E0F0E8FF2038
:105AB000F1E5F2E820202020202020400000000016
:105AC00020C0E2E0F0E8FF20E1E0F2E0F0E5E820CD
:105AD000202020230000000020C0E2E0F0E8FF20AA
