:020000040000FA
:1000000028260010D9000000DD000000DF000000FD
:10001000E1000000E3000000E50000000000000037
:10002000000000000000000000000000E7000000E9
:10003000E900000000000000EB0000000BC8000019
:10004000EF000000EF000000EF000000EF000000F4
:10005000EF00000005690100EF000000716601007B
:10006000EF000000EF000000EF000000EF000000D4
:10007000EF000000EF000000EF000000EF000000C4
:10008000EF000000EF000000EF000000EF000000B4
:10009000EF000000EF000000EF000000EF000000A4
:1000A000EF00000023660100EF000000EF000000F9
:1000B000EF000000EF000000EF000000EF00000084
:1000C000EF000000DFF80CD000F0BAF8004800475D
:1000D00009CA00002826001005480047FEE7FEE791
:1000E000FEE7FEE7FEE7FEE7FEE7FEE7FEE7FEE7E8
:1000F000C500000090F900308B4200DA027090F9E0
:100100000030934200DD0170704790F900308B425F
:1001100000DA017090F90030934200DD0270704700
:10012000B0F900308B4200DA0180B0F90030934220
:1001300000DD02807047B0F900308B4200DA0280A7
:10014000B0F90030934200DD0180704703688B42B4
:1001500000DA02600368934200DD0160704700002E
:100160002C4B1A602C4B18702C4B19707047294877
:100170000068D0B127480068401E2649086014D1A5
:1001800025480078264908702448007840B2487015
:100190000846407808714FF0000022490870224953
:1001A000087022490870224908707047214A11607E
:1001B000214A107070471F480068A0B11D480068B0
:1001C000401E1C4908600ED11B4800781449087075
:1001D0004FF0000048701349087013490870134924
:1001E000087013490870704714490880704710B5AB
:1001F0001248008868B111480088A0F1010000B2DF
:100200000E4908800846008818B90021084613F0F6
:1002100017F910BDCC020010C8020010C90200106E
:100220009A000010D4020010D5020010D60200106F
:10023000D7020010D0020010CA020010D80200102D
:10024000064C074D06E0E06840F0010394E8070023
:1002500098471034AC42F6D3FFF738FF1876010008
:100260003876010070B501EB020410F8015B15F05F
:10027000070301D110F8013B2A1106D110F8012B18
:1002800003E010F8016B01F8016B5B1EF9D12B073D
:1002900005D40023521E0FD401F8013BFAE710F8F1
:1002A000013B02F10202A1EB030303E013F8015B3F
:1002B00001F8015B521EF9D5A142D6D3002070BDD2
:1002C00002E008C8121F08C1002AFAD1704770471F
:1002D000002001E001C1121F002AFBD1704700007D
:1002E000000000000000000000000000000000000E
:1002F000000000000000000000000000FFFFFFFF02
:100300004FF020007649086000BF7548006810F083
:10031000400FFAD04FF003007249086072487349E9
:10032000C1F8A8014FF00000714908604FF00100CA
:10033000704908607048714908604FF00100A1F1F0
:10034000040108604FF0AA006D4908604FF05500A5
:100350006649C1F88C0000BF6848001D006810F0B5
:10036000806FF9D04FF00300664908604FF0AA0093
:100370005E49C1F88C004FF05500614908604FF0AC
:100380000000614908606148614908604FF0000061
:100390005649C1F8C8015F480068C0F301600328EE
:1003A00068D15448006810F0030006D0012823D01B
:1003B00002283FD003285CD100E000BF5548006808
:1003C000C0F30E0000F101004FEA40014748D0F8A9
:1003D0008800C0F3074000F10100B1FBF0F04E4986
:1003E00000FB01F03F490968C9B201F10101B0FB0E
:1003F000F1F04A4908603CE046480068C0F30E004E
:1004000000F101004FEA40013848D0F88800C0F3FD
:10041000074000F10100B1FBF0F0414900FB01F0A1
:1004200030490968C9B201F10101B0FBF1F03B4963
:1004300008601EE037480068C0F30E0000F10100BC
:100440004FEA40012948D0F88800C0F3074000F186
:100450000100B1FBF0F04FF4FA4100FB01F021493B
:100460000968C9B201F10101B0FBF1F02B49086044
:1004700000BF2FE01F48006810F0030006D00128DD
:1004800010D0022819D0032823D100E000BF15485E
:100490000068C0B200F101001F49B1FBF0F01F4934
:1004A000086016E00F480068C0B200F101001C4966
:1004B000B1FBF0F0194908600BE00A480068C0B2CF
:1004C00000F101004FF4FA41B1FBF0F0134908606C
:1004D00000BF00BF43F23A000449086070470000C3
:1004E000A0C10F4004C10F400000020800C00F402F
:1004F000ACC10F400CC10F404F00030084C00F403F
:100500008CC00F4080C00F4008C10F4048F100016F
:10051000C4C00F4088C00F4000093D00000000101B
:10052000809698004FF01100FF4908727047FF480D
:10053000C06940F44020FD49C8610846C06940F4E4
:100540004010C8614FF00000F949C8604FF44060A6
:10055000C8644FF0020048614FF47A7088614FF42C
:100560004870086248624FF0010008654FF00200D1
:1005700048604FF009004860704700B589B04FF0FF
:100580000000079009E04FF00001EA4A0798115473
:10059000079800F1010000B207900798B0F5F47FCA
:1005A000F1DBE548007800287DD1E448007810F0C0
:1005B000010F20D0E248007800281BD00020E1493C
:1005C00003223223CDE90032CDE902101823322272
:1005D0000321084613F0DCFC0020DB490322322310
:1005E000CDE90032CDE9021018233222032108465A
:1005F00013F0CEFCF5E0D548B0F90000012876DB19
:100600000020009014231A460146019013F0ADFB20
:100610000020009012231A4601210190084613F091
:10062000A4FBCB48007810F03C0F0DD10020C94945
:1006300002220F23CDE90032CDE902101A46022131
:10064000032013F0A5FC32E0C148007810F0100F31
:1006500010D0BB48007838B30020BF4902220F23D6
:10066000CDE90032CDE902101A460221032013F031
:100670008FFC1CE0B648007810F0080F04D1B44895
:10068000007810F0040F12D0AD48007860B100205F
:10069000B24902220F23CDE90032CDE902101A46F9
:1006A0000221084601E08EE201E013F071FCAC4843
:1006B000406D10F0010F1AD100200B2302461421C7
:1006C0000090092012F07AFF002003465B221F21D0
:1006D0000090092012F072FFA24800781330C0B2D7
:1006E0000423002201460490092013F087FB974859
:1006F000B0F90000022874DB0020009014231A4691
:1007000001460190172013F030FB002000901223C7
:100710001A4601210190182013F027FB8C484078DD
:1007200010F03C0F0DD100208F4902220F23CDE99C
:100730000032CDE902101A460221192013F028FCDC
:100740002FE08348407810F0100F10D07C480078DC
:1007500038B30020804902220F23CDE90032CDE9D1
:1007600002101A460221192013F012FC19E07848F1
:10077000407810F0080F04D17548407810F0040F4D
:100780000FD06F48007860B10020744902220F2317
:10079000CDE90032CDE902101A460221192013F0EA
:1007A000F7FB6F48406DC0F34000D0B900200B2329
:1007B000024614210090202012F000FF0020034682
:1007C00044221F210090202012F0F8FE6548007896
:1007D0001330C0B20423002201460490202013F0FD
:1007E0000DFB62480088002831D0002000901423BF
:1007F000232201460190322013F0B7FA0020009026
:100800000223032214210190352013F0AEFA0020B8
:10081000009002230322142101904F2013F0A5FA27
:100820004648007810F0020F12D0454800780028A2
:10083000DAD00020444903223223CDE90032CDE949
:1008400002101823322201462B2013F0A1FB09E1EC
:1008500000200B23024614210090422012F0AEFE2D
:100860000020034622221F210090422012F0A6FE03
:100870003F48B0F9000000280BDA3A4800781330FE
:10088000C0B20423002201460490422013F0B6FABD
:1008900010E03748B0F9000000280BDB3148007841
:1008A000C0F12200C0B2042302220146049042207B
:1008B00013F0A4FA2F4800781E2834DA2E48B0F935
:1008C0000000A0F5AA4155397DD02C4890F90000D0
:1008D0004FF0050190FBF1F000B204904FF01402CC
:1008E0004FF0000104A8FFF71BFC00200121CDE917
:1008F0000010BDF9103020220146332013F035FAE4
:100900001E4890F900000A2847DA02200121092335
:100910000C22CDE9001005213D2013F026FA01221A
:100920000020164B2CE089E00040024000C002404D
:1009300000800140760C0010A5000010A8010010F6
:10094000810000100D6B0100A36B0100FC00001082
:10095000DC010010396C0100756C0100936C010022
:1009600000C009205D000010576C0100FA00001063
:10097000B00100106000001002010010BC01001066
:1009800093F90030CDE90102009303920223FFA204
:1009900005213D2013F038FB3BE0FD4890F90000B5
:1009A00064281CDA0220012109231222CDE900105B
:1009B00005213A2013F0D9F9012102220020F44B3D
:1009C00093F9003000E025E0CDE90030CDE90221C7
:1009D0000323F0A205213A2013F016FB19E00220B0
:1009E000012109231822CDE900100521372013F039
:1009F000BCF9012203200021E54B93F90030CDE939
:100A00000031CDE902020423E3A20521372013F0CF
:100A1000FBFA27E0E248B0F900000A2190FBF1F070
:100A200000B20121032204908DE807000423DDA217
:100A3000039105213A2013F0E7FA13E0D848B0F902
:100A400000000A2190FBF1F000B201220321049082
:100A5000CDE90121042303920090D2A205213A207E
:100A600013F0D2FA002000900E231B2202210190E5
:100A70005C2013F07AF900200346021F0821009041
:100A80005C2012F09BFD0020034604220821009008
:100A9000762012F093FD0020034627221F210090AC
:100AA000432012F08BFD00206FF00F0302461F2140
:100AB0000090692012F082FDBC480078C0F122004D
:100AC000C0B20423022201460490692013F096F973
:100AD00001200421B64BB3F90030CDE900300523E5
:100AE000B4A2CDE902101621462013F08DFAB348C6
:100AF000B0F9000064280FDA01200321AF4BB3F9ED
:100B00000030CDE900300423A6A2CDE90210052172
:100B10005D2013F079FA14E0A848B0F900000A212A
:100B200090FBF1F000B20121032200230490CDE9F3
:100B300001320391009004239AA205215A2013F058
:100B400063FA9F48007800F101009D49087008464B
:100B50000078032836DB4FF00000087099480078D1
:100B600000F1010097490870084600780D2802DB63
:100B70004FF0000008709448007800F1010092499D
:100B8000087008460078202802DB4FF0000008704B
:100B90008648007800F10100844908700846007812
:100BA000112802DB4FF0000008708848007800F13F
:100BB00001008649087008460078282802DB4FF0BB
:100BC000000008708AE04FF00000069082E04FF0CD
:100BD0007A01069800FB01F00590069800EB800072
:100BE0004FEA800000B2089067E079490898085CF5
:100BF00000EB4000774911F81020059800F1010141
:100C0000059175490A5472490898085C00EB400048
:100C10004FF0010101EB40006E490A5C059800F1BC
:100C2000010105916C490A5469490898085C00EB78
:100C300040004FF0020101EB400066490A5C059854
:100C400000F10101059164490A5461490898085C62
:100C500000EB40004FF0030101EB40005D490A5CEE
:100C6000059800F1010105915B490A54584908981B
:100C7000085C00EB40004FF0040101EB40005549D7
:100C80000A5C059800F10101059153490A54504945
:100C90000898085C00EB40004FF0050101EB4000B4
:100CA0004C490A5C059800F1010105914A490A5432
:100CB000089800F1010000B20890069800EB80004F
:100CC00080001430089988428FDC069800F10100FA
:100CD00000B2069006980428FFF679AF09B000BD6F
:100CE00000B5CBB04FF005000D904FF000000E9016
:100CF0003A48007805280ED139A20E9800F101017A
:100D0000C9B20E910FA941F820200D9800F1010001
:100D1000C0B20D9011E03148007821280DD136A2E3
:100D20000E9800F10101C9B20E910FA941F82020DF
:100D30000D9800F10100C0B20D903548007810F018
:100D4000010F0DD033A20E9800F10101C9B20E912E
:100D50000FA941F820200D9800F10100C0B20D90BC
:100D60002B48007810F0020F0DD030A20E9800F141
:100D70000101C9B20E910FA941F820200D9800F190
:100D80000100C0B20D902F4800785DE020250000E2
:100D9000BC0100102020250020202025000000009C
:100DA000B001001020202041000000005F00001072
:100DB000EE0100102020202042000000EC01001075
:100DC0005C0000105D0000105E000010600000106C
:100DD000AE0B0010B16C0100760C00104C0200103C
:100DE00020C2FBF0E0E2ED2EE7E0F0FFE420207A05
:100DF0003A305A20000000002020CAEEEDF2F0EE5A
:100E0000EBFC20E5ECEAEEF1F2E820200000000027
:100E1000A8010010202020C0E2E0F0E8FF20F1E56A
:100E2000F2E82121212020200000000020C0E2E083
:100E3000F0E8FF20E1E0F2E0F0E5E82121212020C8
:100E400000000000DC01001010F01C0F0DD0FFA20C
:100E50000E9800F10101C9B20E910FA941F82020AE
:100E60000D9800F10100C0B20D90FE48407810F0DE
:100E70001C0F0DD0FCA20E9800F10101C9B20E9119
:100E80000FA941F820200D9800F10100C0B20D908B
:100E9000FB480078012811D1FA48008870B9FAA2FD
:100EA0000E9800F10101C9B20E910FA941F820205E
:100EB0000D9800F10100C0B20D9014E0F0480078E8
:100EC000022810D1EF48008868B9F5A20E9800F109
:100ED0000101C9B20E910FA941F820200D9800F12F
:100EE0000100C0B20D90F4480078552810D1F348A5
:100EF000008868B9F2A20E9800F10101C9B20E9102
:100F00000FA941F820200D9800F10100C0B20D900A
:100F1000E9484078552810D1E848408868B9EEA2E1
:100F20000E9800F10101C9B20E910FA941F82020DD
:100F30000D9800F10100C0B20D90ED48007800F16D
:100F40000100EB49087008460078142811DB4FF0C7
:100F500000000870E748007800F10100E5490870DA
:100F6000084601780D98814203DB4FF00000E1490B
:100F70000870E1480078292870D1DF4840780028BF
:100F80006ED1DEA3DDA2DDA1DCA010F00FFE0023F8
:100F900002221946DF48007810F00CFD00230222DF
:100FA0000121DD48008880B210F004FD00230222F8
:100FB0001146DA48008880B210F0FCFC00230722BA
:100FC0001946D748008880B210F0F4FC00230722AD
:100FD0000121D448008880B210F0ECFC00230722E5
:100FE0000221D148008880B210F0E4FC00230722DF
:100FF0000321CE48008880B210F0DCFC00230A22D6
:101000001946CB48007810F0D5FC00230A220121B4
:10101000C848007810F0CEFC00230A220221C648FE
:10102000007810F0C7FC002313221946C34890F93A
:10103000000080B210F0BEFC002313220121C04842
:10104000008880B210F0B6FC002313220221BD48B4
:10105000008880B210F0AEFC06F063BCA0E3FFE7AE
:10106000A5484078012851D1B74B1A46B7A1BCA07A
:1010700010F09CFD002304221946BF48008880B26E
:1010800010F098FC00231A460121BC4890F900009A
:1010900080B210F08FFCBA48008880B201230E2283
:1010A00000210C9010F086FCB548408880B20123E6
:1010B0000E2219460C9010F07DFCB248008880B2D8
:1010C0000123132200210C9010F074FCAD484088DD
:1010D00080B20123132219460C9010F06BFC61487A
:1010E00000780A2200210C9010F018FD5D4840782D
:1010F0000A2201210C9010F011FD0023012202218F
:10110000A148008880B210F055FCA5E77A484078E5
:10111000022868D179A379A278A178A010F046FDC1
:101120009A48006880B20023032219460C9010F000
:1011300041FC9648406880B20023032201210C90B4
:1011400010F038FC9148806880B20023032202210D
:101150000C9010F02FFC8D48C06880B20023032251
:1011600011460C9010F026FC8848006980B20023DC
:10117000092219460C9010F01DFC8448406980B289
:101180000023092201210C9010F014FC7F48806993
:1011900080B20023092202210C9010F00BFC7B4846
:1011A000C06980B20023092203210C9010F002FCD8
:1011B0007648006A80B20023132201210C9010F0BF
:1011C000F9FB7348006A80B20023132202210C90BD
:1011D00010F0F0FB0023132203216E48006880B258
:1011E00010F0E8FB38E74448407803282DD143A3AA
:1011F00042A242A141A010F0D9FC6548006880B22B
:101200000023032219460C9010F0D4FB604840687C
:1012100080B20023032201210C9010F0CBFB5C482C
:10122000806880B20023032202210C9010F0C2FBE0
:101230005748C06880B20023032211460C9010F07A
:10124000B9FB5348006980B2A6E00FE120C0E2E09C
:10125000F0E8FF20E8F1F2EEF7EDE8EAE0204E31A9
:1012600000000000DC01001020C0E2E0F0E8FF20F8
:10127000E8F1F2EEF7EDE8EAE0204E32000000007F
:10128000FC01001054010010C2EDE5F82EF2E5EC6F
:10129000EF2E4E31E7E0E2FBF8E5EDE00000000064
:1012A000C2EDE5F82EF2E5ECEF2E4E31E7E0EDE889
:1012B000E6E5EDE0000000000500001078010010F8
:1012C00020D1F0E0E1EEF2E0EB20F8EBE5E9F420EC
:1012D0004E3120200000000020D1F0E0E1EEF2E0ED
:1012E000EB20F8EBE5E9F4204E322020000000006E
:1012F00062000010610000109A00001020202020E1
:1013000020202020202020202020202020202020DD
:101310000000000092000010900000108C000010EF
:10132000840200108002001086020010AE0100103E
:10133000B6020010B7020010B8020010BC01001085
:101340000201001004010010A56A010020202020E5
:1013500020202020202020202020202020202000AD
:10136000322020202020202020202020202020206B
:101370002020202000000000400200108B020010FE
:10138000E2010010E6010010FC000010B00A00109D
:10139000D80A0010840000100023082219460C907F
:1013A00010F008FBFF48406980B2002308220121A9
:1013B0000C9010F0FFFAFB48806980B200230822ED
:1013C00002210C9010F0F6FAF648C06980B20023B2
:1013D000082203210C9010F0EDFAF348006880B267
:1013E00000230E2219460C9010F0E4FAEE484068F3
:1013F00080B200230E2201210C9010F0DBFAEA48A3
:10140000806880B200230E2202210C9010F0D2FAE4
:10141000E548C06880B200230E2203210C9010F032
:10142000C9FAE148006980B20023132219460C90E2
:1014300010F0C0FADC48406980B200231322012179
:101440000C9010F0B7FAD848806980B200231322BC
:1014500002210C9010F0AEFAD348C06980B200238C
:10146000132203210C9010F0A5FAF5E5CF4840783F
:1014700004287DD1AFF27C13AFF28012AFF2841159
:10148000AFF2881010F092FBC948006880B20023C8
:10149000032219460C9010F08DFAC548406880B2BE
:1014A0000023032201210C9010F084FAC0488068C8
:1014B00080B20023032202210C9010F07BFABC487A
:1014C000C06880B20023032211460C9010F072FA1B
:1014D000B748006980B20023072219460C9010F02B
:1014E00069FAB348406980B20023072201210C90B9
:1014F00010F060FAAE48806980B200230722022112
:101500000C9010F057FAAA48C06980B20023072255
:1015100003210C9010F04EFAA548006A80B2002317
:101520000B2219460C9010F045FAA148406A80B28F
:1015300000230B2201210C9010F03CFA9C48806A99
:1015400080B200230B2202210C9010F033FA98484D
:10155000C06A80B200230B2203210C9010F02AFAFB
:101560009348006B80B200230F2219460C9000E0D4
:101570002BE010F01FFA8E48406B80B200230F2240
:1015800001210C9010F016FA8948806B80B200237C
:101590000F2202210C9010F00DFA8548C06B80B22A
:1015A00000230F2203210C9010F004FA00231322D1
:1015B00019468048007810F0FDF90023132201211C
:1015C0007D48007810F0F6F946E578484078012823
:1015D0005DD17AA37FA285A18AA010F0E7FA01224B
:1015E00028218E48008880B210F026FA002221219E
:1015F0008B48008880B210F01FFA002240218948F1
:10160000008880B210F018FA8748008880B2012262
:1016100023210C9010F010FA8348408880B20122F8
:1016200024210C9010F008FA8048008880B2012232
:1016300025210C9010F000FA7C48408880B20122ED
:101640005E210C9010F0F8F901223C2178480088C6
:1016500080B210F0F1F902223E217648B0F9000084
:1016600010F096F8744800780D2203210C9010F0C9
:1016700055FA71484078132203210C9010F04EFA6D
:10168000052203216D48007810F048FAE4E4474849
:101690004078022898D045484078022856D147A380
:1016A0004CA252A166A010F081FA002221215C48D0
:1016B000008880B210F0C0F900224021594800880B
:1016C00080B210F0B9F95848008880B20122232175
:1016D0000C9010F0B1F95448408880B201222421C6
:1016E0000C9010F0A9F95148008880B20122252100
:1016F0000C9010F0A1F94D48408880B201225E2183
:101700000C9010F099F901223C214948008880B2E0
:1017100010F092F902223E214648B0F9000010F084
:1017200037F8454800780D2203210C9010F0F6F9A7
:1017300041484078132203210C9010F0EFF9052264
:1017400003213E48007810F0E9F985E41748407815
:10175000032806D1404B1A461146084610F026FAD7
:101760007AE41248407805281BD1AFF27043AFF2FB
:101770007442AFF27841AFF27C4010F017FA37486C
:1017800000780023012219460C9010F013F9344818
:1017900000780023012211460C9010F00BF961E053
:1017A0009CE183E0D80A0010000B00109A000010A2
:1017B000280B0010890000108800001053742020AE
:1017C00020202020537431202020537432202020E8
:1017D0000000000049E1202020203E204931202047
:1017E000202549322020205E0000000055E1202005
:1017F00020203C2055312020202355322020202439
:1018000000000000556E202020202820D831202004
:101810002021D8322020204000000000800200104B
:101820007C0200107E020010E2010010E6010010B0
:10183000AE010010B0010010DC010010A801001082
:10184000706C202020202820D83120202021D83260
:101850002020204000000000A56A0100F6010010D1
:10186000F9010010F04800780023012202210C90B9
:1018700010F0A0F8ED48008880B200230522194638
:101880000C9010F097F8EA48008880B200230522F7
:1018900001210C9010F08EF8E648008880B20023F9
:1018A000052202210C9010F085F82EE4E2484078E1
:1018B00006287ED1E1A02D90E6A02E90EBA02F90DF
:1018C000F0A03090F5A03190FAA03290FFA03390B4
:1018D000D94890F90400C01C2DA951F820000C90A3
:1018E000D54890F90400801C51F820000B90D24894
:1018F00090F90400401C51F820000A90CE4890F95D
:10190000040051F8200009900AA90EC910F04EF900
:1019100002223F21F348B0F900000FF039FFF248EE
:10192000406D00F00100002224210C9010F084F89A
:10193000EE48007823210C9010F0C8F8EA48406D7A
:10194000C0F34000002240210C9010F075F8E748E9
:10195000407821210C9010F0B9F8E548008880B259
:1019600000224A210C9010F067F8E148408880B2CC
:1019700000226A210C9010F05FF8DE480078002207
:1019800059210C9010F058F8DA484078002279215B
:101990000C9010F051F8D848006880B200226821FD
:1019A0000C9010F049F800226D21D448006880B2F4
:1019B00000E05AE010F040F8D148008800225121A0
:1019C0000C9010F039F8CF480088002271210C905B
:1019D00010F032F8CA48408800225A210C9010F0CA
:1019E0002BF8C848408800227A210C9010F024F887
:1019F000C5480078002241210C9010F01DF8C34822
:101A00000078002261210C9010F016F8BE48407852
:101A1000002242210C9010F00FF8BC4840780022C0
:101A200062210C9010F008F8B348006880B20022E0
:101A300043210C9010F000F8AF48406880B20022BB
:101A400044210C900FF0F8FFB148006880B20022EA
:101A500063210C900FF0F0FFAD48406880B2002287
:101A600064210C900FF0E8FFFFE4734840780728EA
:101A7000FAD1A84B1A461146084610F097F8A64826
:101A800000784FF000034FF0060219460C900FF05B
:101A900091FF002306220121A04800780FF08AFF61
:101AA000682012F0DEFF80B20023062202210C9093
:101AB0000FF080FF98483838808F00231022194695
:101AC0000C900FF077FF6A2012F0CBFF80B200235A
:101AD000102202210C900FF06DFFC6E456480078EA
:101AE00000287DD18EA02D908148B0F90000C82833
:101AF00007DD7F48B0F90200C82802DD8EA02D90D6
:101B000016E07B48B0F90000C82802DD90A02D90B7
:101B10000EE07748B0F90200C82802DD92A02D90AF
:101B200006E09748B0F90000C82801DD95A02D9087
:101B30009AA02E909FA02F90A4A03090A9A03190A1
:101B4000AEA03290B3A03390B8A03490BDA0359031
:101B5000C2A03690C7A03790CCA03890D1A03990C1
:101B6000D6A03A90DBA03B90E0483C9032484078C9
:101B700020B94FF00000304908711CE02E4890F960
:101B800004002D4991F90110401A022807DD2A4866
:101B9000407800F1020040B2274908710BE0264866
:101BA00090F90100244991F90410884203DD22488C
:101BB000407821490871CE48007805281EDA1E4871
:101BC00090F90400C01C2DA951F820000C901A486F
:101BD00090F90400801C51F820000B90164800E09A
:101BE0004CE290F90400401C51F820000A902D9816
:101BF00009900AA90EC90FF0D9FF87E10E4890F9A4
:101C00000400C01C2DA951F820000C900A4890F93E
:101C10000400801C51F820000B90074890F9040044
:101C2000401C51F8200065E1FC0100103601001055
:101C3000F0010010420100109A0000102020202026
:101C40003F2020202020202020242023204020214D
:101C50000000000020202020202020202020202004
:101C60002020204A2020206A000000002020202080
:101C700020202020202020202020205920202079D2
:101C800000000000202020682020206D202020203F
:101C900020512071205A207A00000000202020735B
:101CA00020202053202020202020204320202044BA
:101CB0000000000020202066202020462020202038
:101CC000202020632020206400000000202020200D
:101CD000202020202020202020412061204220623E
:101CE00000000000B001001000C00920DC0100105D
:101CF000E201001078020010580200105402001097
:101D00006C02001068020010BA020010BC02001041
:101D100060020010A56A01003840024088010010EE
:101D20002020CDE5EEEFF0E5E4E5EBE5EDEDEEF1BD
:101D3000F2FC20200000000020C220F0E0E1EEF2E2
:101D4000E520C1CFD1312CC1CFD13220000000001D
:101D500020202020C220F0E0E1EEF2E520C1CFD12A
:101D6000312020200000000020202020C220F0E0B0
:101D7000E1EEF2E520C1CFD13220202000000000AA
:101D8000AE0100102020D0E0E1EEF2E020EEF220E3
:101D9000E1E0F2E0F0E5E820000000002055E13D40
:101DA0002020206CC22049E13D2020202040C0207E
:101DB000000000002055ED3D20202023C22049EDE9
:101DC0003D2020202024C020000000002030253AA3
:101DD000305E3A302620303C2F3E20202F307B20B2
:101DE0000000000020C1E0F2E0F0E5FF202020200C
:101DF00020202020202020200000000020C1CFD162
:101E000031202020202020202020202020202020C1
:101E10000000000020C1CFD132202020202020202F
:101E200020202020202020200000000020CDE0E302
:101E3000F0F3E7EAE02020202020202020202020AE
:101E40000000000020D1E5F2FC20202020202020EE
:101E500020202020202020200000000020D1EFE5BD
:101E6000F6F4F3EDEAF6E8E82020202020202020F8
:101E70000000000020C6F3F0EDE0EB20F1EEE1FB06
:101E8000F2E8E920202020200000000020C1E0F23C
:101E9000E0F0E5E9EDFBE920E6F3F0EDE0EB2020F2
:101EA0000000000020CFE0F1EFEEF0F22020202033
:101EB00020202020202020200000000020D3F1F24C
:101EC000E0EDEEE2EAE82020202020202020202063
:101ED0000000000020D1E1F0EEF120E0E2E0F0E8C7
:101EE000E92020202020202000000000BA6A010004
:101EF000610000100A90FF480078401F0FA951F8B8
:101F0000200009900AA90EC90FF050FEFA48007986
:101F100050B3F948407838B3F74890F90400F649CF
:101F200091F90110884205D14FF00100F34981F881
:101F30003C0019E0F04890F90400EF4991F90110D4
:101F4000401A012803D1ED4981F828000CE0EA4845
:101F500090F90400E84991F90110401A022803D1D0
:101F60004FF00100E549087501226C21E448008822
:101F700080B20FF061FD02224021E248B0F900007A
:101F80000FF006FC01222321DF48008880B20FF009
:101F900053FD01222421DD48008880B20FF04CFD62
:101FA000DB4800784FF000024FF026010C900FF054
:101FB00043FDD748203890F8240000225E210C9081
:101FC0000FF03AFDD34800784FF000024FF02501A2
:101FD0000C900FF031FDCE48203890F82C000022F4
:101FE0003C210C900FF028FDCB480078CB4901EB49
:101FF00080004FF000024FF03E010C900FF02BFEDE
:10200000C3482038808F00227B210C900FF014FDF4
:10201000C3480078B0B13A200FF0F1FAB7494FF059
:1020200020020A544FF03A000FF0E9FAB3494FF09A
:1020300020020A544FF03A000FF0E1FAAF494FF096
:1020400020020A54B74800684FF46161B0FBF1F018
:1020500080B200227A210C900FF0EEFCB1480068AB
:102060003C21B0FBF1F0B0FBF1F201FB120080B2B9
:1020700000225A210C900FF0DFFC16E49E480078F5
:1020800004287ED1A848008830B9A8A3ADA2B3A186
:10209000B8A00FF08BFD08E4BC48007810F0020FE8
:1020A00010D09F48007830B1B94BBAA2BFA1C5A0EB
:1020B0000FF07CFDD8E4B64B1A46114608460FF0E7
:1020C00075FDD1E4C5A02D90CA48007820B9CAA0FA
:1020D0002E90CFA0309003E0D3A02E90D8A03090C7
:1020E000DDA02F90E248007810B1E2A0319001E02D
:1020F000E6A03190EBA03290F0A03390F5483490F8
:102100007D4890F90100C01C2DA951F820000C90C9
:10211000794890F90100801C51F820000B90764816
:1021200090F90100401C51F820000A900146ABA034
:10213000DDE90B230FF03AFD0122402170480088B1
:1021400080B20FF079FC022221216E48B0F9000024
:102150000FF01EFB00222421DF48008880B20FF020
:102160006BFC00227721DD4890F9000080B20FF06F
:1021700063FCDB48B0F90000A0F5AA41553907D14E
:1021800000E016E04A1E5121D6A00FF064FD06E0E3
:1021900001225121D248008880B20FF04DFC5648F0
:1021A0004078042886D14FF00100544981F83C0062
:1021B0005AE451480078052877D14F48807828B9EB
:1021C000CA48406D00F001000C9004E0C748406D23
:1021D000C0F340000C904848807801280CD1C448D6
:1021E0000088012808D1C3A00B90C8A02D90CDA0D5
:1021F0002E9067482F904AE00C9810B1CFA00B901A
:1022000001E0D4A00B906148007810F0010F02D0DB
:10221000D6A02D902AE0384890F90200D949085CF0
:1022200010F0100F02D0D8A02D901FE0324890F986
:102230000200D449085C10F0080F02D0D8A02D90FD
:1022400014E02D4890F90200CE49085C10F0040F0C
:1022500002D0D9A02D9009E0274890F90200C94981
:10226000085C10F03C0F01D1D9A02D90DEA02E907B
:10227000E3A02F90204890F90200E749085C10B1D4
:10228000E6A0309001E0EBA03090924831901A48DF
:1022900090F90100184991F90410401A002805DD51
:1022A00015484078144908710CE00CE2124890F986
:1022B0000100114991F90410884203DA0E48407870
:1022C0000D4908710C4890F90400801C2DA951F8A3
:1022D00020000A90084890F90400401C51F82000A2
:1022E0000990054890F9040051F820000890014633
:1022F000ACE10000610000109A000010AE0B00106D
:10230000AE010010B0010010EE010010EC01001051
:10231000204002402840024038400240D96A010073
:1023200081000010A4020010FA000010E220E1E099
:10233000F2E0F0E5E9EDEEEC20E6F3F0EDE0EBE5C0
:10234000000000002020202020E2E2E5E4E8F2E5A1
:1023500020E5B820202020200000000020CFF0E859
:102360002020EDE5EEE1F5EEE4E8ECEEF1F2E82018
:102370000000000020C1C0D2C0D0C5DF20CDC520E4
:10238000C2C2C5C4C5CDC02000000000A801001015
:10239000A56A010020202020EDE520EFEEE4EAEB25
:1023A000FEF7E5EDE0202020202000002020202066
:1023B000202020C1E0F2E0F0E5FF202020202020B6
:1023C0002020000020202020202020C0C2C0D0C813
:1023D000DF2121202020202020200000202020207C
:1023E0002020C1C0D2C0D0C5DF2020202020202046
:1023F00000000000B402001020202020E7E0F0FFE1
:10240000E6E0E5F2F1FF202020202020000000007F
:1024100020202049E7E0F03D202020202021C0207E
:102420002020202000000000202020F0E0E7F0FF26
:10243000E6E0E5F2F1FF202020202020000000004F
:1024400020202049F0E0E7F03D2020202021C0207E
:10245000202020200000000020202055E1E0F23D57
:10246000202020202040C22020202020000000002A
:10247000D801001020202020C4D22E20EDE5E8F164
:10248000EFF0E0E2E5ED20200000000020202074C5
:10249000E1E0F2203D20202024B043202020202015
:1024A00000000000202020C7E0F0FFE43D202020B5
:1024B000207725202020202000000000202020431D
:1024C000E1E0F23D202020202051C02AF7202020EA
:1024D00000000000BA6A0100AC010010BC0100104D
:1024E000020100102D2D2D2D2D2D000000C00920E2
:1024F000FC0000102020202020202020C1CFD1323D
:10250000202020202020202000000000202020204B
:10251000CED2D1D3D2D1D2C2D3C5D2202020202036
:10252000000000002020C220D1D2D0D3CAD2D3D004
:10253000C520C8C1DDCF20200000000020202020C1
:10254000C1CFD12120C2DBCACBDED7C5CD20202010
:102550000000000020202020C1CFD12120C2CACB02
:10256000DED7C5CD202020200000000020E0E2E0E2
:10257000F0E8FF20F1E5F2E82020202020202020B4
:1025800000000000DC01001020E0E2E0F0E8FF20A5
:10259000EFE5F0E5E3F0E5E2202020200000000078
:1025A00020E0E2E0F0E8FF2055E2FBF53C55ECE8E6
:1025B000ED2020200000000020E0E2E0F0E8FF2015
:1025C00055E2FBF53E55ECE0EAF12020000000006A
:1025D00020F1EEF1F2EEFFEDE8E5202D20EDEEF03A
:1025E000ECE02020000000002055E8F1F2203D2022
:1025F00020202040C2202020202020200000000099
:102600002049E8F1F2203D2020202023C020202076
:102610002020202000000000EA01001020C4D22069
:10262000EDE5E8F1EFF0E0E2E5ED202020202020CC
:10263000000000002074E8F1F2203D20202024B0AA
:10264000432020202020202000000000DDE9092375
:102650000B980FF0ABFAEC4890F90200401C80B2E6
:10266000002221210A900FF0E7F9E74890F90200D3
:10267000E64931F8100080B2012240210A900FF0A3
:10268000DBF9E14890F90200E14931F8100080B22D
:10269000012223210A900FF0CFF9DB4890F90200C4
:1026A000DC4931F8100080B2002224210A900FF09A
:1026B000C3F9D5484078022804D14FF00100D6492B
:1026C00081F83C00D9E4D048007811281AD1D3A36E
:1026D000D8A2DEA1E3A00FF069FA4FF00100CE49C5
:1026E00081F83C0002464FF02101E448008880B2A6
:1026F0000FF0A2F901224021E148008880B20FF0DA
:102700009BF9BAE4C048007802282CD1DD48007853
:1027100010F0010F08D0DC48007810B1DBA02D903C
:1027200004E0DF482D9001E0DEA02D902D98BBA3A2
:10273000E2A2E8A10C900FF039FA4FF00100B6497F
:1027400081F83C004FF000024FF02301E748008879
:1027500080B20FF071F901224021E548008880B273
:102760000FF06AF989E4A84800780C2843D1E1A069
:102770002D90E6A02E90EBA02F90F0483090A2482C
:1027800090F90100A04991F90410401A022807DDD0
:102790009D484078A0F1020040B29B4908710BE0CF
:1027A000994890F90100984991F90410884203DA98
:1027B0009548407894490871934890F90400801C2A
:1027C0002DA951F820000C908F4890F90400401C6E
:1027D00051F820000B908C4890F9040051F820002B
:1027E0000A900146D6A0DDE90B230FF0DFF90120A6
:1027F00010F04DFE41E484480078142814D1D648E6
:102800000078212802D1D5A02D9001E0D9A02D90EB
:102810002D98A34BC94A01460C90DCA00FF0C6F9D5
:10282000012010F034FE28E477480078102830D1D9
:10283000DC482D90DCA02E907348407820B9E0A0B1
:102840002D90E5A02E9019E06F484078012804D122
:10285000E7A02D90ECA02E9010E06B484078022865
:1028600004D1EFA02D90F4A02E9007E066484078A8
:10287000032803D1EAA02D90F5A02E902E980C905D
:102880002D980B900246C8A1C6480C9B0FF08EF9FC
:1028900010E45D48007815281BD1AF480078052862
:1028A00002D1AEA02D9001E0B2A02D902D98A34BA7
:1028B0000246EDA10C90F2A00FF078F9012010F083
:1028C000E6FD00222121F448008880B20FF0B4F820
:1028D0006EE44D48007841287ED1E9A3E8A2E8A142
:1028E000E7A00FF063F94FF00400EC490870EC48E2
:1028F0000078012802D1EBA02D9021E0E848007873
:10290000022802D1EDA02D901AE0E54800780328B6
:1029100002D1F0A02D9013E0E1480078062802D102
:10292000F2A02D900CE0DE4800780C2802D1F5A032
:102930002D9005E0F9A02D904FF00100D7490870C7
:10294000D6480078042809D1FAA02E90FFA02F9035
:10295000AFF6883030907948319001E077482E907A
:10296000294890F90400401C2DA951F820000C9032
:10297000254890F904102DA850F821000B9002462C
:10298000F8A1FEA00C9B0FF011F91F4890F901006F
:102990001D4991F90410884204DA1B4840781A490D
:1029A00008710FE0184890F90100174991F90410D7
:1029B000401A012806DD14484078A0F1010040B219
:1029C0001149087110484078022801D10E49087158
:1029D000022010F05CFD00E0FDE100222521ED4821
:1029E00000880FF029F800225E21EB4800880FF0E4
:1029F00023F800222621E94800880FF01DF8002264
:102A00003C21E7480088CDE19A000010E201001067
:102A1000E6010010DE010010AE0B001020C2FBF535
:102A2000EEE4202020202020202020202020202014
:102A3000000000002049EDE0E3F03D2020202020B0
:102A40002020404120202020000000002055EDE003
:102A5000E3F03D2020202020202021C22020202023
:102A600000000000202020202020CDC0C3D0D3C7EC
:102A7000CAC020202020202000000000EE0100100D
:102A8000EC010010A801001081000010202020C0DF
:102A9000C2C0D0C8DF20D1C5D2C82121212020004A
:102AA000A56A010020202020202020D1C5D2DC20D2
:102AB0002020202020202020000000002046F1E5DA
:102AC000F2E83D2020202020202040C3F6202020B6
:102AD000000000002055F1E5F2E83D2020202020F4
:102AE000202023C22020202000000000940000109D
:102AF0008E00001020CAEEEDF2F0EEEBFC20E5ECCB
:102B0000EAEEF1F2E82020200000000020C2FBF0F5
:102B1000E0E2EDE8E2E0FEF9E8E920E7E0F0FFE4DA
:102B20000000000020C0E2F22EE2FBF0E0E2EDE85F
:102B3000E22E20E7E0F0FFE400000000BA6A0100A6
:102B400020202020D1CFC5D6D4D3CDCAD6C8C82006
:102B500020202020000000004C02001020C2EAEBE0
:102B6000FEF7E5ED2020202020202020202020201E
:102B70000000000020C2FBEAEBFEF7E5ED2020207C
:102B80002020202020202020000000002020CACE6D
:102B9000CDD2D0CECBDC20C5CCCACED1D2C820205D
:102BA00000000000F80D0000202020EDE5E2EEE737
:102BB000ECEEE6E5ED2121212020202000000000A0
:102BC00020202020CEF2F1F3F2F1F2E2F3E5F22040
:102BD0002020202000000000202020202020E1E0F4
:102BE000F2E0F0E5FF20202020202020000000005F
:102BF00020202020202020C0E2E0F0E8FF2020203C
:102C00002020202000000000202020202020202044
:102C1000F1E5F2E820202020202020200000000004
:102C2000202020202020C1E0F2E0F0E5FF2020203D
:102C3000202020200000000020202020F0E0E7F0ED
:102C4000FFE6E0E5F2F1FF20202020200000000058
:102C50002020202020E7E0F0FFE6E0E5F2F1FF2071
:102C6000202020200000000020E4EBE8F2E5EBFC4F
:102C7000EDEEF1F2FC202D202021F72E00000000C7
:102C800020C2DBD0C0C2CDC8C2C0DED9C8C920C7EF
:102C9000C0D0DFC400000000F6000010B00000103B
:102CA0008801001020F0E0E720E220ECE5F1FFF6DB
:102CB00020202020202020200000000020F0E0E73D
:102CC00020E2203220ECE5F1FFF6E0202020202059
:102CD0000000000020F0E0E720E2203320ECE5F1E6
:102CE000FFF6E020202020200000000020F0E0E798
:102CF00020E220EFEEEBE3EEE4E020202020202095
:102D00000000000020F0E0E720E220E3EEE42020D5
:102D100020202020202020200000000020E2FBEACC
:102D2000EBFEF7E5ED202020202020202020202091
:102D30000000000020E4EBE8F2E5EBFCEDEEF1F240
:102D4000FC20202028F72E200000000020EEF7E5D0
:102D5000F0E5E4EDEEE520E2EAEBFEF7E5EDE8E58F
:102D600000000000C2DBD0C0C2CDC8C2C0DED9C8DE
:102D7000C920C7C0D0DFC42000000000202020C030
:102D8000C2D2CECCC0D2C8D7C5D1CAC8C920202093
:102D9000000000008A0100108C0100108E0100105C
:102DA000900100100EF048FEFE48FF49098800EB34
:102DB000810000223E210C900EF04DFF00227B216D
:102DC000FA4800880EF038FE00222821F8480088D2
:102DD0000EF032FE76E4F7480078442873D140F6CE
:102DE000026011F03EFE00B2F34908800846B0F9D7
:102DF0000000402802DD4FF000000880EE48008807
:102E000050B9EE4BEE4AEFA1F4A00EF0CFFE4FF01A
:102E10000000E84908718DE0E748008801280AD1E0
:102E2000F4A3E74AF9A1EDA00EF0C0FE4FF00000B8
:102E3000E04908717EE0E0480088022831D1DD4891
:102E400090F90100DB4991F90410884204DAD9486D
:102E50004078D84908710FE0D64890F90100D5496B
:102E600091F90410401A022806DDD2484078A0F1FA
:102E7000020040B2CF490871CE48007930B9D04B3A
:102E8000E8A2E2A1D5A00EF091FE53E0C948007976
:102E900001284FD1D7A3CA4ADCA1D0A00EF086FEEC
:102EA00048E0C548B0F90000022843DDC14890F968
:102EB0000100C04991F90410884205DABD48407804
:102EC000BC49087110E04FE0BA4890F90100B949D7
:102ED00091F90410401A022806DDB6484078A0F1A6
:102EE000020040B2B3490871B24890F90410B248E8
:102EF000B0F90000401E814206D1BEA3B04AC3A172
:102F0000B6A00EF053FE15E0AA4890F90410AA48A6
:102F1000B0F90000801E814206D1A94BC1A2BBA11D
:102F2000AEA00EF043FE05E0C4A3BEA2B7A1ABA0C5
:102F30000EF03CFE012010F0AAFA9E4800792821EC
:102F40000C900EF0C1FF9B480079401CC0B25B2181
:102F50000C900EF0B9FF97480079801CC0B27B211D
:102F60000C900EF0B1FF45E49248007845287DD1E1
:102F7000924B1A46114608460EF018FE4FF4606058
:102F800011F06FFD80B20C908A4890F90200C0F1F8
:102F9000000002464FF0400104900C9800B20EF081
:102FA000E7FD80B20C900C984FEA40504FEA104079
:102FB0000C900C9800F5806080B20C900BA90C98D6
:102FC00011F0FDFD05A90C98001D11F0F8FD09A9EF
:102FD0000C98083011F0F3FD0AA90C980C3011F090
:102FE000EEFD07A90C98103011F0E9FD08A90C9826
:102FF000143011F0E4FD06A90C98183011F0DFFD33
:103000009DF82C00552849D19DF82E00522845D115
:1030100090A396A29BA1A1A00EF0C8FD9DF8280048
:103020000022402104900EF007FD9DF829000022A7
:10303000232104900EF000FD9DF82A000022242197
:1030400004900EF0F9FC9DF8260000222521049042
:103050000EF0F2FC9DF8240000225E2104900EF098
:10306000EBFC9DF82500012805DB00E0FEE39DF860
:1030700025000C2803DD4FF001008DF825009DF898
:103080002500484901EB80000022282104900EF021
:10309000E2FD4FF00000484908804FE39DF82C0006
:1030A00050287DD19DF82E00412879D181482D905E
:1030B00068A02E909DF81C0041281BD19DF81D0092
:1030C000412817D17CA02F9081A030903098049097
:1030D0002F9803902E9802902D98019002A90EC966
:1030E0000EF064FD00222B217F48008880B20EF094
:1030F000A3FC3BE1012200212E48001DFDF705F84D
:103100007AA02F907FA0309084A03190294890F928
:103110000400C01C2DA951F820000490254890F906
:103120000400801C51F820000390224890F904000C
:10313000401C51F8200002901E4890F9040051F8FC
:103140002000019002A90EC90EF030FD9DF820006C
:1031500000223E2104900EF06FFC9DF82100002219
:103160003D2104900EF068FC9DF8220000222921E8
:1031700004900EF061FC9DF81E0000225B2104907B
:103180000EF05AFC9DF81C0000223C2104900EF029
:1031900053FC9DF81D00012803DB9DF81D00C9E0CC
:1031A00022E1C9E0D96A01009201001094010010E7
:1031B000960100109A000010AC000010A56A0100F2
:1031C000BA6A010020C6F3F0EDE0EB20EFF3F1F274
:1031D000202020202020202000000000202020C6C9
:1031E000D3D0CDC0CB20D1CEC1DBD2C8C9202020C6
:1031F0000000000020CEF7E8F1F2E8F2FC20E6F350
:10320000F0EDE0EB2020202000000000202820200E
:1032100020202020202020202020202020202020AE
:1032200000000000205B20202020202020202020E3
:10323000202020202020202000000000207B2020B3
:10324000202020202020202020202020202020207E
:103250000000000020203025282020305E20304053
:103260003A30233A30242020000000002020202083
:1032700020202020C8C1DDCF202020202020202099
:1032800000000000202020E8EBE820E2EAEBFEF757
:10329000E5EDE8E52020202000000000202020208F
:1032A000CFE5F0E5E7E0E3F0F3E7EAE020202020D7
:1032B00000000000140E000020202020EDE520F387
:1032C000F1F2F0E0EDE5EDE020202020000000002C
:1032D000202020202055F1E5F2E83D20202BC220BF
:1032E000202020200000000094000010202020203A
:1032F0002020F3F1F2F0E0EDE5EDE02020202020A9
:10330000000000002020305B5D2020303C20303E5B
:103310003A303D3A302920200000000020202020B3
:103320002055ECE8ED3D20202BC22020202020203D
:10333000000000000C2803DD4FF001008DF81D0097
:103340009DF81D00FE4901EB800000225D210490E4
:103350000EF081FC9DF818109DF8190001EB00207B
:1033600080B200222B2104900EF066FB9DF828000D
:103370000022402104900EF05FFB9DF829000022FE
:10338000232104900EF058FB9DF82A0000222421EE
:1033900004900EF051FB9DF8260000222521049098
:1033A0000EF04AFB9DF8240000225E2104900EF0EE
:1033B00043FB9DF82500012803DB9DF825000C2820
:1033C00003DD4FF001008DF825009DF82510DC4845
:1033D00000EB81000022282104900EF03CFC4FF00D
:1033E0000100D849088058E69DF82C0042287ED17B
:1033F0009DF82E0043287AD1AFF60C002D90D2A074
:103400002E90AFF2B0102F909DF81C00412813D1E0
:103410009DF81D0041280FD1AFF264103090309814
:1034200004902F9803902E9802902D98019002A955
:103430000EC90EF0BBFB69E001220021C848FCF771
:1034400064FEAFF258103090AFF248103190C4488B
:10345000001F90F90400C01C2DA951F82000049011
:10346000BF48001F90F90400801C51F82000039011
:10347000BB48001F90F90400401C51F82000029046
:10348000B748001F90F9040051F82000019002A9EC
:103490000EC90EF08BFB9DF8200000223E21049007
:1034A0000EF0CAFA9DF8210000223D2104900EF092
:1034B000C3FA9DF822000022292104900EF0BCFAE4
:1034C0009DF81E0000225B2104900EF0B5FA9DF8D5
:1034D0001C0000223C2104900EF0AEFA9DF81D0065
:1034E000012803DB9DF81D000C2805DD00E053E0FA
:1034F0004FF001008DF81D009DF81D00904901EB73
:10350000800000225D2104900EF0A5FB9DF82D00A7
:10351000401C00222B2104900EF08EFA9DF828000A
:103520000022402104900EF087FA9DF82900002225
:10353000232104900EF080FA9DF82A000022242115
:1035400004900EF079FA9DF82600002225210490BF
:103550000EF072FA9DF8240000225E2104900EF015
:103560006BFA9DF82500012803DB9DF825000C2847
:1035700003DD4FF001008DF825009DF8250070490E
:1035800001EB80000022282104900EF064FB4FF034
:1035900001006C49088080E59DF82C0042287DD10F
:1035A0009DF82E005A2879D16EA02D9073A02E90F0
:1035B00078A02F909DF81C00412812D19DF81D0085
:1035C00041280ED179A03090309804902F98039024
:1035D0002E9802902D98019002A90EC90EF0E6FADD
:1035E00067E0012200215E48FCF78FFD75A0309056
:1035F0007AA031905A48001F90F90400C01C2DA9F0
:1036000051F8200004905648001F90F90400801CD7
:1036100051F8200003905248001F90F90400401C0C
:1036200051F8200002904E48001F90F9040051F814
:103630002000019002A90EC90EF0B8FA9DF82000F2
:1036400000223E2104900EF0F7F99DF8210000229F
:103650003D2104900EF0F0F99DF82200002229216E
:1036600004900EF0E9F99DF81E0000225B21049001
:103670000EF0E2F99DF81C0000223C2104900EF0AF
:10368000DBF99DF81D00012803DB9DF81D000C28C7
:1036900003DD4FF001008DF81D0000E0AAE09DF869
:1036A0001D00274901EB800000225D2104900EF0EF
:1036B000D2FA9DF82D00401C00222B2104900EF020
:1036C000BBF99DF828000022402104900EF0B4F9C7
:1036D0009DF829000022232104900EF0ADF99DF8F9
:1036E0002A000022242104900EF0A6F99DF826005D
:1036F0000022252104900EF09FF99DF8240000225D
:103700005E2104900EF098F99DF82500012803DB56
:103710009DF825000C2803DD4FF001008DF82500F1
:103720009DF82500064901EB800000222821049025
:103730000EF091FA4FF00100024908807FE300008B
:10374000D96A0100AC000010202020202020E1E0F8
:10375000F2E0F0E5E82020202020202000000000FA
:103760009E000010202020C2FBF0E0E2EDE8E2E045
:10377000FEF9E8E920202020000000002020202081
:10378000202020E7E0F0FFE420202020202020203F
:10379000000000002030252F2820202F305E203010
:1037A000403A30233A30242000000000202020201E
:1037B000EDE520E7E0E2E5F0F8E5ED20202020202F
:1037C00000000000202020202020E7E0E2E5F0F8C3
:1037D000E5ED2020202020200000000020305B2F7D
:1037E0005D20202F303C20303E3A303D3A302920B9
:1037F000000000009DF82C0042287ED19DF82E008C
:1038000057287AD1D4A02D90D9A02E90DEA02F9049
:10381000AFF280003090E2A03190E7A03290ECA0AF
:103820003390F1A03490F6A03590FB4890F9040055
:10383000C01C2DA951F820000490F74890F904000D
:10384000801C51F820000390F34890F90400401CBC
:1038500051F820000290F04890F9040051F820003F
:10386000019002A90EC90EF0A1F900E0E9E29DF86D
:103870002D00401C0022212104900EF0DDF89DF85F
:1038800028000022402104900EF0D6F89DF829006F
:103890000022232104900EF0CFF89DF82A00002288
:1038A000242104900EF0C8F89DF82600002225215E
:1038B00004900EF0C1F89DF8240000225E210490CF
:1038C0000EF0BAF89DF82500012803DB9DF82500CD
:1038D0000C2803DD4FF001008DF825009DF8250030
:1038E000CE4901EB80000022282104900EF0B3F9AC
:1038F0009DF820000022692100E055E004900EF0C0
:103900009BF89DF8210000226C2104900EF094F8A1
:103910009DF822000022732104900EF08DF89DF88E
:103920001E000022712104900EF086F89DF81C0004
:103930000022722104900EF07FF89DF81D000128EE
:1039400003DB9DF81D000C2803DD4FF001008DF80E
:103950001D009DF81D00B14901EB80000022772178
:1039600004900EF078F9BDF8140080B201227A219B
:1039700004900EF061F89DF827109DF82B0001EBE4
:10398000002080B201223C2104900EF055F8BDF8D1
:10399000160080B201223E2104900EF04DF84FF047
:1039A00005009F4908804AE29DF82C0042287DD1FD
:1039B0009DF82E004B2879D19A482D906CA02E901E
:1039C00071A02F90AFF23420309097A031907AA060
:1039D00032907FA033909AA034909FA035908E486B
:1039E00090F90400C01C2DA951F8200004908A48C9
:1039F00090F90400801C51F820000390864890F94B
:103A00000400401C51F820000290834890F9040003
:103A100051F82000019002A90EC90EF0C7F89DF8D8
:103A20002D00401C0022212104900EF005F89DF885
:103A300028000022402104900DF0FEFF9DF829008F
:103A40000022232104900DF0F7FF9DF82A000022A8
:103A5000242104900DF0F0FF9DF82600002225217E
:103A600004900DF0E9FF9DF8240000225E210490EF
:103A70000DF0E2FF9DF82500012803DB9DF82500ED
:103A80000C2803DD4FF001008DF825009DF825007E
:103A9000624901EB80000022282104900EF0DBF83F
:103AA0009DF8200000226921049000E0E0E00DF084
:103AB000C3FF9DF8210000226C2104900DF0BCFF93
:103AC0009DF822000022732104900DF0B5FF9DF8AF
:103AD0001E000022712104900DF0AEFF9DF81C0025
:103AE0000022722104900DF0A7FF9DF81D0001280F
:103AF00003DB9DF81D000C2803DD4FF001008DF85D
:103B00001D009DF81D00454901EB80000022772132
:103B100004900EF0A0F8BDF8140080B201227A21C2
:103B200004900DF089FF9DF827109DF82B0001EB04
:103B3000002080B201223C2104900DF07DFFBDF8F1
:103B4000160080B201223E2104900DF075FF4FF067
:103B500005013348018072E120202020202020D060
:103B6000E0E7F0FFE42020202020202000000000DB
:103B700020202020202020E1E0F2E0F0E5E82020D5
:103B8000202020200000000020CDE0F7E0EBEE2018
:103B900020202020202020202020202000000000A5
:103BA0002020202020202020202055E1E0F23D2070
:103BB000203CC2200000000020CAEEEDE5F62020E7
:103BC0002020202020202020202020200000000075
:103BD0002030712F7720202F30722030693A306CDE
:103BE0003A307320000000002020202020202020D8
:103BF000202055E1E0F23D20203EC22000000000E0
:103C000020202020CEF2E4E0EDEE202020207AE0FB
:103C10002AF72E20000000009A000010D96A010047
:103C2000AC000010F80D00002020202020202020D3
:103C30002055E1E0F23D20203CC2202000000000A1
:103C400020202020202020202055E1E0F23D2020CF
:103C50003EC220200000000020A8ECEAEEF1F2FCB9
:103C600020202020207AE02AF72E202000000000CB
:103C70009DF82C0053287ED1F4A02D909DF82E00A5
:103C80004C2802D1F7A02E9013E09DF82E00542866
:103C900002D1FAA02E900CE09DF82E00552802D1FA
:103CA000FCA02E9005E09DF82E00752801D1FFA004
:103CB0002E90AFF660202F909DF81C00412813D164
:103CC0009DF81D0041280FD1AFF614203090309898
:103CD00004902F9803902E9802902D98019002A99D
:103CE0000EC90DF063FF69E001220021F548FCF7E1
:103CF0000CFAAFF608203090AFF6F8103190F1488A
:103D0000001F90F90400C01C2DA951F82000049058
:103D1000EC48001F90F90400801C51F8200003902B
:103D2000E848001F90F90400401C51F82000029060
:103D3000E448001F90F9040051F82000019002A906
:103D40000EC90DF033FF9DF8200000223E210490A3
:103D50000DF072FE9DF8210000223D2104900DF02F
:103D60006BFE9DF822000022292104900DF064FED4
:103D70009DF81E0000E062E000225B2104900DF03F
:103D80005BFE9DF81C0000223C2104900DF054FEC7
:103D90009DF81D00012803DB9DF81D000C2803DDA4
:103DA0004FF001008DF81D009DF81D00C64901EB84
:103DB000800000225D2104900DF04DFF9DF82D0044
:103DC000401C00222B2104900DF036FE9DF82800A7
:103DD0000022402104900DF02FFE9DF829000022C2
:103DE000232104900DF028FE9DF82A0000222421B2
:103DF00004900DF021FE9DF826000022252104905C
:103E00000DF01AFE9DF8240000225E2104900DF0B2
:103E100013FE9DF82500012803DB9DF825000C28E2
:103E200003DD4FF001008DF825009DF82500A6491F
:103E300001EB80000022282104900DF00CFF03F01C
:103E400070BDA048001F0078342877D19F48B0F992
:103E50000000A0F5B851883902D19DA02D90ACE0AA
:103E60009A48B0F90000A0F5B8517C3902D19EA063
:103E70002D90A2E09548B0F90000A0F59051D839F6
:103E800002D19FA02D9098E09048B0F90000A0F5D5
:103E90009051CC3902D1A0A02D908EE08B48B0F982
:103EA0000000A0F5B8517A3902D1A1A02D9084E08C
:103EB0008648B0F90000A0F5B851753902D1A2A02A
:103EC0002D907AE08148B0F90000A0F59051CA39F0
:103ED00002D1A3A02D9070E07C48B0F90000A0F5BD
:103EE0009051C53902D1A4A02D9066E07748B0F971
:103EF0000000A0F51061783902D1A5A02D905CE0FA
:103F00007248B0F90000A0F510616C3902D1A6A08A
:103F10002D9052E06D48B0F90000A0F59051E839BD
:103F200002D1A7A02D9048E06848B0F90000A0F5A4
:103F3000B851983903D1A8A02D903EE0CFE2634854
:103F4000B0F90000A0F59051D43902D1A8A02D906D
:103F500033E05E48B0F90000A0F5B851843902D1D1
:103F6000A9A02D9029E05948B0F90000A0F51061F2
:103F7000923902D1AAA02D901FE05448B0F9000058
:103F8000A0F51061793902D1ABA02D9015E04F4812
:103F9000B0F90000A0F51061783902D17CA02D9015
:103FA0000BE04A48B0F90000A0F510616C3902D16D
:103FB0007DA02D9001E0A6A02D90ABA02E90B0A0EA
:103FC0002F90B5A03090BAA03190BFA03290C4A07D
:103FD0003390C9A03490CEA03590D3A03690D8A00D
:103FE0003790DD4838903748001F90F90400C01C16
:103FF0002DA951F820000C903248001F90F90400C0
:10400000801C51F820000B902E48001F90F90400EE
:10401000401C51F820000A902A48001F90F9040023
:1040200051F8200009900AA90EC90DF0BFFD2548DE
:10403000001F0079082804D14FF00100C74981F81A
:104040003C00C748B0F9000020288BE1202020C0A8
:10405000E2E0F0E8FF20C1CFD1204E2B202020202D
:10406000000000002020202020EEF2EAEBFEF7E81E
:10407000EBF1FF2020202020000000002020202045
:104080002020EFE5F0E5E3F0E5E2202020202020ED
:1040900000000000202020E7E0E2FBF8E5EDEE2044
:1040A00055E2FBF52E20202000000000202020E714
:1040B000E0EDE8E6E5EDEE2055E2FBF52E202020D0
:1040C000000000009E000010D96A010008010010E5
:1040D000202020C8C1DDCF3232302F36302D32348F
:1040E0004120202000000000202020C8C1DDCF3268
:1040F00032302F36302D3132412020200000000098
:10410000202020C8C1DDCF3232302F34382D323458
:104110004120202000000000202020C8C1DDCF3237
:1041200032302F34382D3132412020200000000061
:10413000202020C8C1DDCF3232302F36302D313033
:104140004120202000000000202020C8C1DDCF3207
:1041500032302F36302D3541202020200000000045
:10416000202020C8C1DDCF3232302F34382D3130FD
:104170004120202000000000202020C8C1DDCF32D7
:1041800032302F34382D354120202020000000000F
:10419000202020C8C1DDCF3232302F32342D3234CE
:1041A0004120202000000000202020C8C1DDCF32A7
:1041B00032302F32342D31324120202000000000D7
:1041C000202020C8C1DDCF3232302F34382D34309A
:1041D0004120202000000000202020C8C1DDCF3277
:1041E00032302F36302D34304120202000000000A6
:1041F000202020C8C1DDCF3232302F34382D32306C
:104200004120202000000000202020C8C1DDCF3246
:1042100032302F36302D3230412020200000000077
:10422000202020C8C1DDCF3232302F32342D35303E
:104230004120202000000000202020C8C1DDCF3216
:1042400032302F32342D3235412020200000000042
:10425000202020D2E8EF20EDE5E8E7E2E5F1F2E505
:10426000ED20202000000000C4E0F2E020E8E7E3B9
:10427000EEF22E2030212F30402F3023000000009E
:10428000F8E0F1F1E82020202020532F4E3030308C
:1042900030303F2000000000D3CAD33230322E2B02
:1042A0002820532F4E3030303030292000000000BD
:1042B000CFCE202020202020202076202020205B10
:1042C0002020202000000000C1CFD131202D20204F
:1042D0002020532F4E30303030303C200000000082
:1042E000C1CFD132202D20202020532F4E3030300E
:1042F00030303E2000000000525332333220202064
:1043000020202076202020242020202000000000D3
:1043100043414E20504448202D2020762020202547
:10432000202020200000000043414E20534448201C
:104330002D2020762020205E20202020000000005C
:1043400045746865726E65742D20207620202026C5
:1043500020202020000000001C2A0000AE0B0010CE
:104360001001001007DA00222121FF48008880B2E6
:104370000DF062FB05E04FF0FF322121FBA00DF0B4
:104380006AFCFB48B0F900000D2807DA0022402142
:10439000F748008880B20DF04FFB05E04FF0FF3288
:1043A0004021F2A00DF057FCF248B0F9000064285B
:1043B00007DA00222321EF48008880B20DF03CFB91
:1043C00005E04FF0FF322321E8A00DF044FCEA485D
:1043D0000068EA49884206DB6FF004023F21E8A04A
:1043E0000DF039FC05E000223F21E34800680DF0A4
:1043F00059FA00222B2103200DF01EFB0022282158
:1044000005200DF019FBE0480068DC49884206DB16
:104410006FF004022921DAA00DF01DFC05E0002256
:104420002921D94800680DF03DFAD7480068D349E2
:10443000884206DB6FF004022921D1A00DF00BFCAD
:1044400005E000222921D04800680DF02BFACF4862
:104450000068CA49884206DB6FF004023C21C8A00C
:104460000DF0F9FB05E000223C21C84800680DF082
:1044700019FAC7480068C149884206DB6FF0040298
:104480003E21BFA00DF0E7FB05E000223E21C04821
:1044900000680DF007FA6FF003025B21BDA00DF07C
:1044A000DAFB6FF003022421BAA00DF0D4FB6FF009
:1044B00003022521B7A00DF0CEFB6FF003025E21B1
:1044C000B4A00DF0C8FB6FF003022621B1A00DF0DF
:1044D000C2FB0022114610460DF0D8FBAFE4B048F5
:1044E0000078362878D1AF48B0F90000A0F5B8516F
:1044F000883903D1AFF228402D90A6E0A948B0F941
:104500000000A0F5B8517C3903D1AFF224402D90C2
:104510009BE0A448B0F90000A0F59051D83903D130
:10452000AFF224402D9090E09E48B0F90000A0F535
:104530009051CC3903D1AFF220402D9085E09948BD
:10454000B0F90000A0F5B8517A3903D1AFF220409C
:104550002D907AE09348B0F90000A0F5B851753974
:1045600003D1AFF21C402D906FE08E48B0F90000EF
:10457000A0F59051CA3903D1AFF21C402D9064E0F0
:104580008848B0F90000A0F59051C53903D1AFF2C9
:1045900018402D9059E08348B0F90000A0F5106153
:1045A000783903D1AFF218402D904EE07D48B0F934
:1045B0000000A0F510616C3903D1AFF214402D90CA
:1045C00043E07848B0F90000A0F59051E83904D1F3
:1045D000AFF214402D9038E0FAE17248B0F90000D3
:1045E000A0F5B8518E3902D16FA02D902DE06D4805
:1045F000B0F90000A0F59051D43903D1AFF21040CA
:104600002D9022E06748B0F90000A0F5B8517F393D
:1046100002D16BA02D9018E06248B0F90000A0F51F
:104620001061923903D1AFF208402D900DE05D4842
:10463000B0F90000A0F51061793903D1AFF208405C
:104640002D9002E0AFF2F8302D90AFF2E4302E90D2
:10465000AFF2D4302F9060A03090AFF29430319010
:10466000AFF284303290624833904D4890F90400A4
:10467000C01C2DA951F820000C90494890F9040065
:10468000801C51F820000B90454890F90400401C14
:1046900051F820000A90424890F9040051F8200097
:1046A00009900AA90EC90DF081FA2F48B0F900004F
:1046B000202807DA002221212B48008880B20DF043
:1046C000BBF905E04FF0FF32212128A00DF0C3FA1D
:1046D0002748B0F900000D2807DA002240212448BD
:1046E000008880B20DF0A8F905E04FF0FF324021BC
:1046F0001EA00DF0B0FA1F48B0F90000642807DAD8
:10470000002223211B48008880B20DF095F905E0B6
:104710004FF0FF32232115A00DF09DFA16480068D6
:104720001649884206DB6FF004023F2114A00DF009
:1047300092FA05E000223F210F4800680DF0B2F820
:1047400000222B214FF496700DF076F900222821DB
:1047500005200DF071F90C480068084988424EDBCD
:104760006FF00402292145E0100100102A2A000000
:1047700012010010140100100C01001040420F0043
:104780002A2A2A2A2A2A00001C01001020010010CF
:10479000240100102D2D2D2D2D2D2D2D2D0000004F
:1047A0009A00001008010010202020C8C1DDCF327F
:1047B00032302F36302D33304120202000000000D1
:1047C000202020C8C1DDCF3232302F36302D313598
:1047D0004120202000000000D3CAD330302B2E30DF
:1047E0002820532F4E303030303029200000000078
:1047F0001C2A0000AFF278000DF02DFA05E000222F
:104800002921ED4800680DF04DF8EC480068EC49AE
:10481000884207DB6FF004023C21AFF29C000DF0F0
:104820001AFA05E000223C21E44800680DF03AF84D
:10483000E4480068E249884207DB6FF004023E2149
:10484000AFF2C4000DF007FA05E000223E21DD487A
:1048500000680DF027F8DC480079032808D1DA4811
:104860004078092804D14FF00100D84981F83C0074
:10487000D548407840B9D448007928B9142200219D
:1048800008460DF003FA29E6CF484078012810D1F8
:10489000CD4890F9040002280BDACB4890F90400C7
:1048A000C0F10100C0B202220C210C900DF0EEF913
:1048B00014E6C5484078022810D1C34890F9040096
:1048C00002280BDAC04890F90400C0F10100C0B220
:1048D00002220F210C900DF0D9F9FFE5BA4840787B
:1048E000032810D1B84890F9040002280BDAB64822
:1048F00090F90400C0F10100C0B2022212210C9014
:104900000DF0C4F9EAE5B0484078042810D1AE486B
:1049100090F9040003280BDAAB4890F90400C0F1C9
:104920000200C0B20A2211460C900DF0AFF9D5E595
:10493000A5484078052810D1A34890F90400042820
:104940000BDAA14890F90400C0F10300C0B20622BE
:1049500003210C900DF09AF9C0E59B484078062899
:1049600010D1994890F9040004280BDA964890F980
:104970000400C0F10300C0B20A2211460C900DF0F1
:1049800085F9ABE59048407807280BD18E4890F91F
:104990000400C0F10400C0B20A2211460C900DF0D0
:1049A00075F99BE58848407808280BD1864890F92E
:1049B0000400C0F10500C0B20A2211460C900DF0AF
:1049C00065F98BE50022114610460DF05FF985E58B
:1049D0007D48007803287ED17DA02D9082A02E9066
:1049E00087A02F908CA0309091A0319096A032900B
:1049F0009BA03390A0A03490A5A03590AAA036909B
:104A0000AFA03790B4A03890B9A03990BEA03A902A
:104A1000C3A03B90C8A03C90CDA03D90D2A03E90BA
:104A2000D7A03F90DCA04090E1A04190E6A042904A
:104A3000EBA04390F0A04490F5A04590FA48469032
:104A4000FAA04790FFA048905F4890F901005E49A6
:104A500091F90410401A022807DD5B484078A0F164
:104A6000020040B2584908710BE0574890F9010024
:104A7000554991F90410884203DA53484078524965
:104A80000871514890F90400801C2DA951F82000AC
:104A90000C904D4890F90400401C51F820000B90F8
:104AA000494890F9040051F820000A900146EBA013
:104AB000DDE90B230DF07AF801200EF0E8FC424806
:104AC00090F90400112866DA00223C21E9480088A8
:104AD000401C80B200E026E20CF0AEFFE648008801
:104AE00028B100222821E5480DF0B5F804E00022A5
:104AF0002821E3480DF0AFF8E248008828B10022F1
:104B00002921E1A00DF0A7F804E000222921E0A06E
:104B10000DF0A1F8E048007855280CD16FF007029D
:104B20007921DEA00DF097F800227921DE48008877
:104B30000CF082FF05E06FF003027921DBA00DF09D
:104B40008AF801222121DB48008880B20CF074FF32
:104B500001224021D848008880B20CF06DFF01226C
:104B60002321D648008880B20CF066FF01225E2126
:104B7000D348008880B20CF05FFF00222621D14884
:104B8000008880B20CF058FF01223E21CE480088F8
:104B900080B20CF051FF00222421CC48008880B262
:104BA0000CF04AFF02226A21C948008880B20CF04A
:104BB00043FF03225B218DE11C0100102001001046
:104BC00040420F00240100109A000010AE0B0010AC
:104BD00020D1F2E0EDE4E0F0F2EDFBE52020202032
:104BE000202020200000000020C2F0E5ECFF20E89B
:104BF00020E4E0F2E020202020202020000000001F
:104C000020D1F2F0F3EAF2F3F0E02020202020207F
:104C1000202020200000000020CCEDE5ECEEEDE8A7
:104C2000EAE0202020202020202020790000000021
:104C300020CEF1EDEEE2EDEEE920E8F1F2EEF7ED57
:104C40002E204E3C0000000020C7E22EF1E8E3EDEC
:104C50002E202020282020202020202000000000BE
:104C600020CEF2EAEBFEF7E5EDE8E520F1E8E3ED32
:104C7000E0EBE020000000002020E0E2E0F0E8E8C7
:104C8000202020202920202020202020000000009B
:104C900020C0CFC220E8F1F2EEF7EDE8EAEEE22024
:104CA0002020202000000000205420EFF0EEE2E55C
:104CB000F0EAE8202020F6E5EFE8202000000000E0
:104CC00020E1E0F2E0F0E5E8202020202071ECE88F
:104CD000ED2E20200000000020556D61783D202041
:104CE000202020202021C2202020202000000000A1
:104CF0002055E130B03D2020202020202040C2203F
:104D000020202020000000002055E13230B03D205E
:104D1000202020202023C22020202020000000006E
:104D20002055F1E8E3ED3D2020202020205EC22028
:104D3000202020200000000020556D696E2EF1E536
:104D4000F2E83D202026C220202020200000000084
:104D5000205530E13D20202020202020203EC22070
:104D600020202020000000002049E1EA2E3D2020E4
:104D700020202020206AC0202020202000000000C9
:104D80002049E72EECE0F52E3D202020204AC020CF
:104D9000202020200000000020496D61783D202067
:104DA00020202020205D4120202020200000000025
:104DB000204B696D61783D2020202020207B202021
:104DC0002020202000000000204BE2FBF02EE7E036
:104DD000F02E3D202020205B20202020000000001D
:104DE0002054E72EE2EAEB2EE02EF12E2021F120D6
:104DF000202020200000000020746D61783D2020DC
:104E0000202020202024B04320202020000000006B
:104E100020C2EDE5F8EDE8E520E4E0F2F7E8EAE8A5
:104E20002020202000000000BA6A010020CAE0EB28
:104E3000E8E1F0EEE2EAE8202020202020202020F7
:104E40000000000020D2E5F1F220202020202020C8
:104E500020202020202020200000000020202020D2
:104E600020D3D1D2C0CDCEC2CAC82020202020203D
:104E700000000000D4000010E4000010CF6A010020
:104E8000D46A0100DE000010E0E2F2EEEC2E000039
:104E9000F0F3F7ED2E000000A4010010F7E5F0E5B7
:104EA000E72079F12E000000A6010010E2FBEAEBFA
:104EB0002E000000D6000010D8000010DA0000100C
:104EC000E0000010E2000010F2000010DC00001012
:104ED000E6000010F948008880B20CF0ADFD012218
:104EE0005D21F748008880B20CF0A6FD01227B21ED
:104EF000F448008880B20CF09FFD01224A21F2485C
:104F0000008880B20CF098FD00222121EF48008833
:104F100080B20CF091FD00227121ED48008880B232
:104F20000CF08AFDAFE4EB48007825284ED1EAA0CA
:104F30002D90EFA02E90F4A02F90F9A03090FE4875
:104F40003190FE48007828B1FD492DA8FD4A12781D
:104F500040F82210DF4890F90100DE4991F9041071
:104F6000884204DADB484078DA4908710FE0D94812
:104F700090F90100D74991F90410401A022806DD82
:104F8000D4484078A0F1020040B2D2490871D1481B
:104F900090F90400801C2DA951F820000C90CD48F8
:104FA00090F90400401C51F820000B90C94890F97A
:104FB000040051F820000A900146E3A0DDE90B232C
:104FC0000CF0F4FD01200EF062FA5CE4C1480078B8
:104FD00028287DD1E2480078401CC0B2E049087022
:104FE0000F280EDB4FF000000870DE48007800F15B
:104FF0000100C0B2DB490870032802DB4FF000005B
:105000000870D9482D90CE482E90D648007808B91F
:10501000D6A02F90D3480078012801D1D9A02F9095
:10502000D0480078022801D1DCA02F902F980C9056
:105030002E980B902D980A900146DEA0DDE90B23F7
:105040000CF0B4FDA348407828B94FF05E00DF496A
:1050500081F82A0030E09F484078012805D14FF0C0
:105060005E00DA4981F82D0026E09A48407802284F
:1050700005D14FF05E00D54981F830001CE095481D
:105080004078032805D14FF05E00D04981F8330005
:1050900012E090484078042805D14FF05E00CB49DB
:1050A00081F8360008E08B484078052804D14FF09D
:1050B0005E00C64981F83A00C54800784FF000020A
:1050C0004FF026010C900CF0B7FCC148203800E0EE
:1050D00041E090F8240000225E210C900CF0ACFC22
:1050E000BC4800784FF000024FF025010C900CF006
:1050F000A3FCB748203890F82C0000223C210C90EB
:105100000CF09AFCB4480078B44901EB80004FF0F1
:1051100000024FF03E010C900CF09DFDAC48203891
:10512000808F00227B210C900CF086FCAC4800782C
:10513000002802F0F6833A200CF061FAA3494FF000
:1051400020020A544FF03A000CF059FA9F494FF0F0
:1051500020020A5415E45F4800781A2871D1A1A0F2
:105160002D90A648007855280AD0A5482E9074485E
:105170002F90309031904FF00100A24908701BE051
:10518000A148007855280BD0A0A02E909C482F90C5
:105190006B48309031904FF002009A4908700BE054
:1051A0009AA02E909FA02F909548309064483190FF
:1051B0004FF0030093490870464890F901004549B3
:1051C00091F90410884204DA424840784149087154
:1051D0000FE0404890F901003E4991F90410401A4F
:1051E000022806DD3B484078A0F1020040B2394970
:1051F0000871384890F90400801C2DA951F820004E
:105200000C90344890F90400401C51F820000B9099
:10521000304890F9040051F820000A90014687A018
:10522000DDE90B230CF0C2FC01200EF030F97348CD
:105230000078552806D10022212186480CF00BFD6C
:1052400005E01BE00022212183480CF004FD6E489C
:10525000007855280CD1002240217E480CF0FBFC40
:10526000002223217D48008880B20CF0E5FB59E63E
:105270000022402178480CF0EEFC53E615480078F7
:105280001F2819D176A02D907BA02E903648303063
:105290002F90183030907EA03190274832900D48E2
:1052A00090F901000B4991F90410884205DA094888
:1052B00040780849087107E137E1F5E0E80000109F
:1052C000EA000010EC000010F0000010F4000010E4
:1052D000F80000109A00001020C8C1DDCF32323033
:1052E0002F36302D3130C02020202020000000003B
:1052F00020C8C1DDCF3232302F34382D3130C020BC
:10530000202020200000000020C8C1DDCF32323034
:105310002F36302D35C02020202020200000000016
:1053200020C8C1DDCF3232302F34382D35C0202097
:105330002020202000000000BA6A01008000001038
:10534000A56A0100AB000010D1D2C0CDC4C0D0D23C
:10535000CDDBC520D3D1D22E2DCAC820000000003D
:1053600063000010B1000010CC1D000020202020A0
:105370009A209C202D20E2FBE1EEF020202020202E
:1053800000000000202020BF209D202D20F3F1F2FE
:10539000E0EDEEE2EAE020200000000020202020E6
:1053A00020A420202D20E2FBF5EEE4202020202068
:1053B0000000000020D3D1D2C0CDCEC2CAC0202070
:1053C000C2D0C5CCC5CDC82000000000AE0B001077
:1053D000204002402840024038400240D96A010083
:1053E0008100001020C0CFC22031E920F3F0EEE2AE
:1053F000E5EDFC2021202020000000009901001094
:105400001C2A0000B00000109A01001020C0CFC27A
:105410002032E920F3F0EEE2E5EDFC2040202020F0
:105420000000000020CFE5F0E8EEE420C0CFC2325B
:10543000202020202023F72E00000000202020C064
:10544000CFC220C8D1D2CED7CDC8CACEC22020204C
:1054500000000000CF6A0100D46A0100A201001020
:1054600020D0E5EBE520E0E2E0F0E8FF202020207E
:10547000282020200000000020D0E5EBE520F1E00E
:10548000ECEEEAE0EBE8E1F0EEE2EAE80000000032
:1054900020C1CFD1312BC1CFD132202020202020DC
:1054A0002020202000000000FF4890F90100FE4964
:1054B00091F90410401A022806DDFB484078A0F15B
:1054C000020040B2F8490871F74890F90400801CC6
:1054D0002DA951F820000C90F34890F90400401CCD
:1054E00051F820000B90F04890F9040051F820008A
:1054F0000A900146EDA0DDE90B230CF057FB0120DB
:105500000DF0C5FFEF48007828B900222821EE48A9
:105510000CF0A1FB06E5EB4800780128FAD1002247
:105520002821EA480CF097FBFCE4DF4800782028AB
:105530003FD1DD4890F90100DB4991F90410884220
:1055400004DAD9484078D84908710FE0D64890F974
:105550000100D54991F90410401A022806DDD2480D
:105560004078A0F1020040B2CF490871D84BD9A2CF
:10557000DEA1E4A00CF01AFB01200DF088FFD14859
:10558000407828B900223C21CF480CF064FB08E0A9
:10559000CC484078012804D100223C21CB480CF0B3
:1055A0005AFB02223A21DD48B0F900000CF0F0F875
:1055B000B8E4BD480078212872D1BB4890F90100B9
:1055C000B94991F90410884204DAB7484078B649DD
:1055D00008710FE0B44890F90100B34991F9041043
:1055E000401A022806DDB0484078A0F1020040B21F
:1055F000AD490871B64BCAA2CFA1D5A00CF0D6FA1E
:1056000001200DF044FFAF48807848B900224021C6
:10561000D5A00CF020FB4FF01E00D54908801AE001
:10562000A8488078012809D100224021D1A00CF09F
:1056300012FB40F2CA30CE4908800CE0A1488078C5
:10564000022808D100224021CCA00CF004FB45F236
:105650005550C749088000222421C9A00CF0FBFA4C
:10566000C948008880B201223C210C900CF0E4F97A
:10567000C648008880B201223E210C900CF0DCF973
:1056800000222321C248008880B20CF0D5F9012203
:105690002421C048008880B20CF0CEF942E4FFE734
:1056A00081480078222872D17F4890F901007E4914
:1056B00091F90410884204DA7B4840787A490871ED
:1056C0000FE0794890F90100774991F90410401AE8
:1056D000022806DD74484078A0F1020040B2724909
:1056E00008717B4BACA294A1B1A00CF05FFA012031
:1056F0000DF0CDFE7348C07848B9002240219AA031
:105700000CF0A9FA4FF01E00AF4908801AE06D486E
:10571000C078012809D10022402196A00CF09BFA04
:1057200040F2CA30A84908800CE06648C0780228D8
:1057300008D10022402191A00CF08DFA45F255507D
:10574000A1490880002224218DA00CF084FA8E4803
:10575000408880B201225B210C900CF06DF98B48DF
:10576000408880B201225D210C900CF065F9002286
:1057700023219648008880B20CF05EF90122242192
:105780008448008880B20CF057F91EE4FFE74648D1
:10579000007823287DD18EA02D9061A02E907EA030
:1057A0002F904B483090404890F901003E4991F9C4
:1057B0000410884204DA3C4840783B4908710FE005
:1057C000394890F90100384991F90410401A02282B
:1057D00006DD35484078A0F1020040B23249087138
:1057E000314890F90400801C2DA951F820000C903C
:1057F0002D4890F90400401C51F820000B902A48D5
:1058000090F904102DA850F821000A90014676A0C6
:10581000DDE90B230CF0CAF901200DF038FE294810
:10582000007958B9002240214FA00CF014FA4FF033
:105830001E004F490880644908801EE02148007915
:1058400001280BD1002240214AA00CF004FA40F2BA
:10585000CA30474908805C4908800EE01948007941
:1058600002280AD10022402144A00CF0F4F945F2AC
:1058700055503F490880544908800022242140A007
:105880000CF0E9F94048008880B201223C210C90DC
:1058900000E0DDE00CF0D0F83C48008880B2012246
:1058A0003E210C90ACE000009A0000102020202047
:1058B00020202020D2C5D1D220202020202020202E
:1058C00000000000E0100010D46A0100CF6A01005F
:1058D000BA6A01002049E1E0F23D2020202020208A
:1058E00020202020203A41200000000020D0E5EBBD
:1058F000E52020202020202020203C2020202020C7
:105900000000000020D2C5D1D220D1C0CCCECAC068
:10591000CBC8C1D0CEC2CAC000000000B001001088
:105920002055313D202020203CC22049313D2020FF
:1059300020203EC0000000002055F03D40202024E3
:105940002020202020F8E8EC3D202023000000004B
:105950002020202020D2C5D1D220C1CFD13120207B
:105960002020202000000000556D696E000000001E
:1059700026020010556D617800000000553230009D
:105980002820202024290000E2010010E601001058
:105990007C020010800200102055323D2020202083
:1059A0005BC22049323D202020205DC00000000065
:1059B0002020202020D2C5D1D220C1CFD13220201A
:1059C0002020202000000000280200107E0200108D
:1059D0002055F03D4020202420202020202020237E
:1059E0002020202100000000202020D2C5D1D2207C
:1059F000C1CFD1312BC1CFD13220202000000000F7
:105A00000CF01AF800222321F248008880B20CF032
:105A100013F8F148408880B201225B210C900CF011
:105A20000BF8EE48408880B201225D210C900CF00A
:105A300003F800222121EA48008880B20BF0FCFF25
:105A400001222421E748008880B20BF0F5FF0EE424
:105A5000E5480078172861D1E4A02D90E9A02E90A8
:105A6000EEA02F90F3A03090F8483190DE4890F9E6
:105A70000100DD4991F90410884204DADA484078DF
:105A8000D94908710FE0D84890F90100D64991F939
:105A90000410401A022806DDD3484078A0F1020025
:105AA00040B2D1490871D04890F90400801C2DA95A
:105AB00051F820000C90CC4890F90400401C51F89B
:105AC00020000B90C84890F9040051F820000A907B
:105AD0000146DFA0DDE90B230CF068F801200DF092
