:020000040000FA
:10000000C01608202102000025020000270200007F
:10001000290200002B0200002D0200000000000059
:100020000000000000000000000000002F0200009F
:10003000310200000000000033020000EDAF0000BC
:1000400037020000370200003702000037020000CC
:1000500037020000C752010037020000993B01003F
:1000600037020000370200003702000037020000AC
:10007000370200003702000037020000370200009C
:10008000370200003702000037020000370200008C
:10009000370200003702000037020000370200007C
:1000A000370200003702000037020000370200006C
:1000B000FD5D01003702000037020000370200003A
:1000C0003702000000F002F800F09BF80AA090E868
:1000D000000C82448344AAF10107DA4501D100F003
:1000E00090F8AFF2090EBAE80F0013F0010F18BF35
:1000F000FB1A43F0010318479C620400DC62040011
:100100000A444FF0000C10F8013B13F0070408BF3D
:1001100010F8014B1D1108BF10F8015B641E05D0DB
:1001200010F8016B641E01F8016BF9D113F0080F90
:100130001EBF10F8014BAD1C0C1B09D16D1E58BF22
:1001400001F801CBFAD505E014F8016B01F8016B59
:100150006D1EF9D59142D6D37047000000230024CC
:1001600000250026103A28BF78C1FBD8520728BFC7
:1001700030C148BF0B6070476E2919F01B81702990
:1001800019F0EE8166291EF0FF8765291EF0FC87B5
:1001900067291EF0F98761291EF0F887692919F08F
:1001A000CD80642919F0CA80752919F0C7806F299C
:1001B00019F07481782919F0C6810368DB0928BF1A
:1001C00041F0800163291AF06C8073291AF0718064
:1001D000E3291AF07C80002070471FB51EF0CDFF88
:1001E0001AF060F90400002000211EF025FE401CDA
:1001F0006060002000211EF009FEE0601FBD10B508
:1002000010BD1AF065FC1146FFF7E7FF0AF07EFF0C
:100210001AF083FC03B4FFF7F2FF03BC1AF088FC6A
:1002200008480047FEE7FEE7FEE7FEE7FEE7FEE7D9
:10023000FEE7FEE7FEE7FEE703480449024A044BF7
:1002400070470000C5000000C0140820C016082038
:10025000C0140820FEE710B51CF0CAFC1CF056FDC7
:100260001CF048FD1CF0D6FCAFF30080BDE8104048
:100270001CF012BD10B51DF023FB1EF093F91DF00C
:1002800077FBBDE810401DF0EFBC1DF037BA1CF045
:10029000FFBF09B1002070471BF006BD002070476A
:1002A0000FB41CB5084B06AA7B446946009005981C
:1002B00019F0D5FF04460020694619F0E3FF2046F7
:1002C0001CBC5DF814FB0000D99F010009684A05B9
:1002D00001D540B27047C905FCD500B27047096826
:1002E0004A0501D5C0B27047C905FCD580B2704738
:1002F000704770477047704700207047FFFFFFFF4F
:1003000030B54E482021C0F8A01100BFD0F8A01190
:100310004906FBD500F180000322C0F8842048493B
:10032000C0F828114FF00001C0F82C114FF0010364
:10033000C0F88C30434C446003604FF0AA03C360A4
:100340004FF05504C460A0F1800000BFD0F8885081
:100350006D01FBD540F8802FC360C460C0F88810E1
:10036000394A4264C0F848118168A0F180006FEA00
:1003700011618A073549D0F80C2102F0030207D039
:1003800092B3012A46D0022A4AD0032A51D13BE037
:100390002AB1012A11D0022A27D0032A49D150F8C4
:1003A000882FC2F30E02521C53000268C2F30742A8
:1003B000521CB3FBF2F2264B0CE050F8882FC2F32C
:1003C0000E02521C53000268C2F30742521CB3FBD8
:1003D000F2F2204B5A43C36FA0F18800DBB203F165
:1003E0000103B2FBF3F223E00EE050F8882FC2F3D2
:1003F0000E02521C53000268C2F30742521CB3FBA8
:10040000F2F24FF4FA43E5E7D0F80421104BD2B2F0
:10041000521C0BE0D0F804210E4BD2B2521C05E066
:10042000D0F804214FF4FA43D2B2521CB3FBF2F2DB
:100430000A6043F23A01016030BD000000C00F4085
:10044000000002084F00030048F1004108000010BE
:1004500000093D008096980010B54FF4027012F02C
:1004600017FEFA4C207040F20A2012F011FE607064
:100470004FF4037012F00CFEA07040F20E2012F048
:1004800007FEE0704FF4047012F002FE207240F29A
:10049000122012F0FDFD60724FF4057012F0F8FDAD
:1004A000A07240F2162012F0F3FDE0724FF41170CA
:1004B00012F0EEFD207140F2462012F0E9FD60716D
:1004C0004FF4127012F0E4FDA07140F24A2012F0D5
:1004D000DFFDE07110BD002801DA404200B2704734
:1004E000DB4AD16CD36C5B1A8342FBD37047D9498A
:1004F000112008727047D848C16941F44021C16198
:10050000C16941F44011C161D4480021C1604FF478
:100510004061C164022141614FF47A7282614FF4FB
:100520004872026242620122026541600921416013
:1005300070472DE9F04F0020C94A85B04FF4F4719F
:1005400004461454401C00B28842FADBC548417E80
:1005500071B100214FF0140C7A2301FB03F001EB81
:1005600081039B0001EB81041BB20CEB840459E274
:10057000804690F825004FF00205C0074FF00306B3
:100580001BD098F81400002816D0B7483227CDE9C0
:100590000204CDE90076032118233A46084610F0FC
:1005A0003AFDB248CDE90204CDE9007603211823D3
:1005B0003222084610F02FFDB6E0B8F97C00DFF8D3
:1005C000B0A20F27DFF8ACB2DFF88492012853DB2A
:1005D0001423002100941A460846019410F05FFC91
:1005E0001223012100941A460846019410F057FC8A
:1005F00099F8000010F03C0F0BD0C10611D598F807
:100600001400F0B10F23CDE902A402211A46032001
:1006100013E09948CDE902040F2302211A46032072
:100620000BE010F00C0F0CD098F8140048B10F2319
:10063000CDE902B402211A460846CDE9007510F052
:10064000EAFC8E48406DC00716D10B23002214210E
:100650000920009410F008FA00235B221F210920D2
:10066000009410F001FA98F8030004231330C1B28B
:100670000022092010F050FCB8F97C00022853DB5E
:10068000142300941A4600211720019410F007FC4F
:10069000122300941A4601211820019410F0FFFB48
:1006A00099F8010010F03C0F0BD0C10611D598F855
:1006B0001400F0B10F23CDE902A402211A4619203B
:1006C00013E06F48CDE902040F2302211A461920D6
:1006D0000BE010F00C0F0CD098F8140048B10F2369
:1006E000CDE902B402211A461920CDE9007510F0B7
:1006F00092FC6248406D800716D40B23002214211F
:100700002020009410F0B0F9002344221F21202063
:10071000009410F0A9F998F8030004231330C1B233
:100720000022202010F0F8FBB8F87A00C1464FF004
:100730000A0B4FF0010800282CD000941423232228
:1007400000213220019410F0AAFB0094022303221E
:1007500014213520019410F0A2FB009402230322FF
:1007600014214F20019410F09AFB99F825004F4670
:10077000800710D599F8140000280BD032213B488F
:10078000CDE90016CDE902040A46182300212B20EA
:1007900010F041FC8DE00B23002214214220009434
:1007A00010F062F9002322221F214220009410F051
:1007B0005BF9DFF89CA0AAF1800ABAF97E00002854
:1007C00005DAF878042300221330C1B205E0F87886
:1007D0000423C0F12200C1B20222422010F09CFB8F
:1007E000B8791E287ED2BAF90210A1F5AA42553A6C
:1007F00078D097F92600052190FBF1F0ADF81000B4
:10080000B9461422002104A810F00EF9CDE90084A5
:100810004746BDF9103020220021332010F03FFB65
:1008200099F926000A282FDACDE9007509230C2250
:1008300005213D2010F033FB99F9260002238DE8B5
:10084000910005210FA23D20039730E0845600104F
:1008500008C107200040024000C002400080014063
:10086000A20E082008C0072091F3010027F4010020
:10087000F9F4010017F50100BDF4010000C00920E2
:10088000DBF401002025000064284FF009035FDA43
:10089000CDE90075122205213A2010F000FB99F9EC
:1008A000260003238DE8B100FEA205213A2010F0B6
:1008B000DEFB00940E231B2202215C20019410F029
:1008C000EEFA00231A1F08215C20009410F0CCF8E7
:1008D0000023042208217620009410F0C5F800239C
:1008E000272200E044E01F214320009410F0BCF8D0
:1008F0006FF00F0300221F216920009410F0B4F85C
:1009000099F805004D46C0F12200C1B2042302222D
:10091000692010F001FBE44947468846B1F906100A
:1009200000910420CDE901700523E0A216214620A4
:10093000039710F09CFBB8F90400642825DACDE990
:10094000000704230521DBA25D20CDE9026725E035
:10095000CDE9007518220521372010F0A0FA99F989
:10096000260004238DE8D1000521D4A237209EE77C
:10097000BAF97E10CDE9026891FBFBF001B2CDE936
:1009800000180423CBA2052190E790FBFBF000B2F6
:100990008DE8D1000423C7A205215A2010F067FB7F
:1009A000A878401CC0B2A87003281CD3AC70E878AB
:1009B000401CC0B2E8700D2800D3EC702879401CB0
:1009C000C0B22871202800D32C716879401CC0B2B5
:1009D0006871112800D36C71A879401CC0B2A8714D
:1009E000282800D3AC7105B0BDE8F08FB54DB64FE7
:1009F000ED5C05EB450517F81560165407EB45054A
:100A0000401C6E781654401CAE781654401CEE788C
:100A10001654401C2E791654401C6D791554401CF8
:100A20005B1C1BB29C42E1DC491C09B20429FFF6A5
:100A300093ADD8E72DE9F04FA448D3B00522037851
:100A4000002101249A462AA8052B03D0BAF1210FD0
:100A500002D005E09EA100E0A3A12A910121062277
:100A6000A74F97F825309C46DB0708D0A5A340F890
:100A7000213001F1010102F10102C9B2D2B25FEAF3
:100A80008C7308D5A5A340F8213001F1010102F1D2
:100A90000102C9B2D2B25FEA0C6306D5A5A340F841
:100AA0002130491C521CC9B2D2B27F4B1D7815F0BF
:100AB0001C0F06D0A5A540F82150491C521CC9B2F4
:100AC000D2B2794B5B7813F01C0F06D0A5A340F887
:100AD0002130491C521CC9B2D2B2734B724E18332A
:100AE00015361B780BB1A5A30EE06F4B357880331C
:100AF000012DB3F9003002D0022D03D00AE04BB92A
:100B0000A4A301E033B9A9A340F82130491C521C29
:100B1000C9B2D2B2644B1B331D78552D0AD103F1F3
:100B20008F052D8835B9A7A540F82150491C521CC6
:100B3000C9B2D2B25D78552D0AD15B4DAA356D8808
:100B400035B9A6A540F82150491C521CC9B2D2B2F1
:100B50009D78552D0AD1544DAA35AD8835B9A5A536
:100B600040F82150491C521CC9B2D2B2DB78552B37
:100B70000AD14D4BAA33DB8833B9A4A340F8213006
:100B8000491C521CC9B2D2B2A64B1D7835B1A6A5DC
:100B900040F82150491C521CC9B2D2B25D7835B11F
:100BA000A7A540F82150491C521CC9B2D2B29B786B
:100BB00023B1A9A3521C40F82130D2B23B7ABB46E4
:100BC0005B1CDBB239463B72142B09D300230B723A
:100BD000CD796D1CEDB2CD71954201D38BF8073004
:100BE000314F50373B463A7893F9011093F904504E
:100BF00002AB03EB8509292A50D0002A4FD0404888
:100C0000A7F1D003007DB3F908308646642093FB3A
:100C1000F0F64F96042A43D0384690F9046090F9D4
:100C2000017090F90280BF1B052A3AD0112A01F009
:100C3000AD81022A01F0BE8106464078801E4FFA3F
:100C400080FC0C2A01F0D981142A01F0F381102ACA
:100C500001F00182152A01F01F82412A01F032823F
:100C6000442A01F0A782B246452A01F0C084804898
:100C7000342A008886B202F08682362A02F01C8569
:100C80005646032A02F07E861D48252AC07C4C90D9
:100C900003F07D811A48807F0646EBE078E1FEE3B1
:100CA000FEE3FEE32020250008C1072020202020AD
:100CB00042000000202020410000000020202025CC
:100CC00000000000DA0D082035F50100AB0000102F
:100CD00020C2FBF0E0E2ED2EE7E0F0FFE420207A16
:100CE0003A305A20000000002020CAEEEDF2F0EE6B
:100CF000EBFC20E5ECEAEEF1F2E820200000000039
:100D000008C00720202020C0E2E0F0E8FF20F1E545
:100D1000F2E82121212020200000000020C0E2E094
:100D2000F0E8FF20E1E0F2E0F0E5E82121212020D9
:100D30000000000020C0F1E8ECECE5F2F0E8FF2054
:100D4000C0CAC121212120200000000020C0E2E013
:100D5000F0E8FF20E8F1F2EEF7EDE8EAE0204E31AE
:100D60000000000020C0E2E0F0E8FF20E8F1F2EE31
:100D7000F7EDE8EAE0204E32000000002020C4D267
:100D8000204E3120EDE5E8F1EFF0E0E2E5ED202046
:100D900000000000C2EDE5F82EF2E5ECEF2E4E313A
:100DA000E7E0E2FBF8E5EDE000000000C2EDE5F869
:100DB0002EF2E5ECEF2E4E31E7E0EDE8E6E5EDE072
:100DC0000000000020202020C0E2E0F0E8FF20D159
:100DD000CA20B9312020202000000000202020203F
:100DE000C0E2E0F0E8FF20D1CA20B9322020202064
:100DF0000000000020202020C0E2E0F0E8FF20D129
:100E0000CA20B9332020202000000000202020200C
:100E1000C0E2E0F0E8FF20D1CA20B9342020202031
:100E200000000000E900001020C0E2E0F0E8FF2030
:100E3000EFF0E5E4EEF5F02E20B9312000000000DF
:100E400020C0E2E0F0E8FF20EFF0E5E4EEF5F02E60
:100E500020B932200000000020C0E2E0F0E8FF20CE
:100E6000EFF0E5E4EEF5F02E20B9332000000000AD
:100E7000A8FB0100282A03F0B280FF484078401EFA
:100E80004FFA80F94C2A03F030811A2A03F00483C8
:100E9000482A03F05F831F2A03F0DE83202A03F031
:100EA0001484212A03F04284222A03F08A84232A0C
:100EB00003F0D484172A03F06786F04802AB3E2A79
:100EC000B0F97E0003EB800303F09A863F2A03F01B
:100ED000C486402A03F08087462A04F07781492A95
:100EE00004F083844A2A04F0A784272A04F03C856E
:100EF0000A2A04F03E851C2A04F05B851B2A04F0B4
:100F0000A48756461E2A05F04C801D2A05F06D80E8
:100F1000372A05F0A080D9482A2A90F8210005F048
:100F2000D0802B2A05F01C81D448D046DFF850A38E
:100F3000B0F94C000AF10106431E382A05F03A8147
:100F4000392A05F055813A2A05F017833B2A05F026
:100F50003F833C2A05F0EF8345463D2A05F0328465
:100F6000072A05F05785082AFBD0122AF9D0132A40
:100F7000F7D0352AF5D0192AF3D0092A05F0728561
:100F80002C2A05F074854B2A05F0788505F0A3BD61
:100F900079B101297ED0BB4C02297CD003297BD0BA
:100FA00004297AD0052979D0062978D0072977D065
:100FB000ECE7B5A3B4A2B4A1B3A00EF0E7FE002302
:100FC000022219460BF116049BF817000EF0EDFCF7
:100FD000608E00230222012180B20EF0E6FCE08D3B
:100FE00002220023114680B20EF0DFFCAC48002341
:100FF00007220088194680B20EF0D7FCA9480023CA
:1010000007220088012180B20EF0CFFCA648002301
:1010100007220088022180B20EF0C7FC9748002307
:1010200080300722B0F87C00032180B20EF0BDFCB6
:101030009E4800230A22194600780EF0B6FC9C4810
:1010400000230A22012100780EF0AFFC994800230A
:101050000A22022100780EF0A8FC974C00231322EC
:10106000207819460EF0A1FC60780023132201219C
:101070000EF09BFCA0780023132202210EF095FCB9
:101080007D4C0023A41D1122208819460EF08DFCF2
:10109000608806E00EE051E0B5E034E14AE17EE12F
:1010A00023E20023112201210EF07FFC0023A088FF
:1010B000112245E2814B82A11A4686A00EF066FEFF
:1010C0008A48002304220088194680B20EF06DFC85
:1010D000874800231A4690F90000012180B20EF0E3
:1010E00064FC654C0123183C0E22208800210EF080
:1010F0005CFC012360880E2219460EF056FC241D6C
:1011000001232088132200210EF04FFC0123608868
:10111000132219460EF049FC3C3C0A22207800219B
:101120000EF0A6FD60780A2201210EF0A1FDBBF8A9
:101130007C0000230122022180B202E252A352A2CB
:1011400051A151A00EF022FE00232088042219464E
:101150000EF02BFC60880023042201210EF025FCF8
:10116000A0880023042202210EF01FFCE088002347
:10117000042203210EF019FC0023208909221946BC
:101180000EF013FC60890023092201210EF00DFCF2
:10119000A0890023092202210EF007FCE089002328
:1011A000092203210EF001FC0023208A0E22194699
:1011B0000EF0FBFB608A00230E2201210EF0F5FBEE
:1011C000A08A00230E2202210EF0EFFBE08A00230A
:1011D0000E2203210EF0E9FB0023208B1322194677
:1011E0000EF0E3FB608B0023132201210EF0DDFBE8
:1011F000A08B0023132202210EF0D7FB0023132221
:10120000E08B03219DE120A31FA21FA11EA00EF0D1
:10121000BDFD0023208C042219460EF0C6FB608C15
:101220000023042201210EF0C0FBA08C0023042225
:1012300002210EF0BAFBE08C0023042203210EF001
:10124000B4FB0023208D092219460EF0AEFB608D01
:101250000023092201210EF0A8FBA08D0023092202
:1012600002210EF0A2FBE08D0023092203210EF0E3
:101270009CFB208E00233DE058C1072008C00720BA
:10128000A2120820740D08202020202020202020D9
:1012900020202020202020202020202000000000CE
:1012A000D4000010D0000010D6000010BC000010C8
:1012B000BD000010BE000010EF00001022F301007E
:1012C000202020202020202020202020202020201E
:1012D000202020003220202020202020202020201C
:1012E000202020202020202000000000C00000102E
:1012F000B40000100E2219460EF057FB00230E22F8
:10130000608E01211DE1AFF28003AFF28402AFF2E3
:101310008801AFF28C000EF039FD0023132219462C
:101320005C469BF816000EF040FB002313220121BF
:10133000607D06E1AFF2B003AFF2B402AFF2B801E4
:10134000AFF2BC000EF022FDEE480023012200782F
:1013500019460EF02AFBEB480122C01C002300783E
:1013600011460EF022FB30780023012202210EF0FC
:101370001CFBE448002353300522008819460EF078
:1013800014FBE04800237D300522008801210EF087
:101390000CFBDC4800235F3005220088D0E0DAA097
:1013A0000290DFA00390E4A00490E9A00590EEA0D5
:1013B0000690F3A00790F8A00890184609F10409D8
:1013C00050F82500B9E80E000EF0E0FCCD480222EE
:1013D0008F383F21B0F97E000EF004FAF44C606DB6
:1013E000002200F0010024210EF0C5FBC54D232191
:1013F0000F3D28780EF02AFC606D0022C0F34000FB
:1014000040210EF0B8FB687821210EF01FFC05F199
:101410003804002220884A210EF0ADFB60880022AB
:101420006A210EF0A8FBE34C0022592120780EF02F
:10143000A2FB6078002279210EF09DFBDE4C002299
:101440006821206880B20EF096FBDC4800226D21F6
:10145000006880B20EF08FFBD94E002251213088F7
:101460000EF089FBD74D0022712128880EF083FBF6
:10147000708800225A210EF07EFB688800227A21B3
:101480000EF079FBD04D0022412128780EF073FB3D
:10149000CE4E0022612130780EF06DFB02E053E069
:1014A00086E22BE36878002242210EF064FB70781C
:1014B000002262210EF05FFB2068002280B24321EF
:1014C0000EF059FB6068002280B244210EF053FBFD
:1014D000BF4C00226321206880B20EF04CFB606894
:1014E000002280B2642105F092BABA4B1A46114626
:1014F00008460EF04BFCB84C20784FF000034FF03C
:10150000060219460EF051FA0023062201219BF82B
:1015100020000EF04AFAB42011F0BAFD80B2002388
:10152000062202210EF041FAA0880023102219465B
:101530000EF03BFAB62011F0ABFD002380B2102272
:1015400002210EF032FA21E5A4A202926D4A29325C
:10155000B2F90030B2F90220C82B05DDC82A01DD3E
:10156000A4A20CE0A9A20AE0C82A01DDADA206E00F
:10157000644A8F3AB2F97C20C82A01DDAFA20292F8
:10158000B4A20392B9A20492BEA20592C3A206928B
:10159000C8A20792CDA20892D2A20992D7A20A921B
:1015A000DCA20B92E1A20C92E6A20D92EBA20E92AB
:1015B000F0A20F92F5A21092864A1532119231B123
:1015C0006A1A022A01DD891C01E0A94200DD397195
:1015D0009BF807605D46052E08D297F9041002A813
:1015E00000EB8100001D0EC802980AE097F9042064
:1015F00002A901EB8201091D00EB86000EC950F81B
:10160000140C0EF0C3FB97F90400A0B197F9011078
:1016100089B1884203D1E34880F83C400BE0401A8E
:10162000012802D0022804D005E0DE4880F82840D6
:1016300001E0DC480475334C01228F3C6C21B4F886
:101640007C0080B20EF097FA02224021B4F97E00AD
:101650000EF0C8F880340122E088232180B20EF019
:101660008AFAA0880122242180B20EF084FACE4C9E
:1016700020784FF000024FF026010EF07CFA20791E
:1016800000225E210EF077FA207A002225210EF04A
:1016900072FA207B00223C210EF06DFA217E4D482B
:1016A00000222A3000EB81003E210EF09EFBA08B31
:1016B00000227B210EF05FFA287D68B13A200DF000
:1016C000F0FFB84D20242C543A200DF0EAFF2C54A2
:1016D0003A200DF0E6FF2C54B44C4FF46161002227
:1016E0002068B0FBF1F080B27A210EF044FA216854
:1016F0003C20B1FBF0F1B1FBF0F200FB1210002234
:101700005A21F0E617C10720202020203F2020206A
:101710002020202020242023204020210000000021
:101720002020202020202020202020202020204A8F
:101730002020206A000000002020202020202020DF
:101740002020202020202059202020790000000087
:10175000202020682020206D202020202051207172
:10176000205A207A000000002020207320202053DF
:1017700020202020202020432020204400000000A2
:1017800020202066202020462020202020202063AA
:101790002020206400000000202020202020202085
:1017A00020202020204120612042206200000000F3
:1017B00000C00920C800001008010010200100101E
:1017C000FA000010F600001024010010260100109D
:1017D0001001001022F30100384002402020CDE526
:1017E000EEEFF0E5E4E5EBE5EDEDEEF1F2FC2020C7
:1017F0000000000020C220F0E0E1EEF2E520C1CFC1
:10180000D1312CC1CFD13220000000002020202077
:10181000C220F0E0E1EEF2E520C1CFD1312020205E
:101820000000000020202020C220F0E0E1EEF2E5E0
:1018300020C1CFD132202020000000002020D0E0A5
:10184000E1EEF2E020EEF220E1E0F2E0F0E5E82067
:10185000000000002055E13D2020206CC22049E11D
:101860003D2020202040C020000000002055ED3DFC
:1018700020202023C22049ED3D2020202024C0200C
:10188000000000002030253A305E3A302620303CFF
:101890002F3E20202F307B200000000020C1E0F2EE
:1018A000E0F0E5FF20202020202020202020202004
:1018B0000000000020C1CFD1312020202020202096
:1018C00020202020202020200000000020C1CFD197
:1018D00032202020202020202020202020202020F6
:1018E0000000000020CDE0E3F0F3E7EAE020202054
:1018F00020202020202020200000000020D1E5F220
:10190000FC202020202020202020202020202020FB
:101910000000000020D1EFE5F6F4F3EDEAF6E8E888
:1019200020202020202020200000000020C6F3F0EE
:10193000EDE0EB20F1EEE1FBF2E8E92020202020B1
:101940000000000020C1E0F2E0F0E5E9EDFBE92055
:10195000E6F3F0EDE0EB20200000000020C2E5F00F
:10196000F1E8FF20CFCE20202020202020202020A2
:101970000000000020D3F1F2E0EDEEE2EAE82020E2
:1019800020202020202020200000000020D1E1F095
:10199000EEF120E0E2E0F0E8E92020202020202005
:1019A00000000000DA0D0820204002400001001075
:1019B000BBF87A205D465AB15FEA8C7211D5934B21
:1019C000BEF1000F09D092A297A19DA005F053B8D7
:1019D000A1A3A7A2ACA1B2A0F8E78C4A1146084681
:1019E000F4E7B5A20292BA4A127852B1B9A20392B0
:1019F000BEA20592C3A2049295F827202AB1C7A2DD
:101A000004E0CCA20392D1A2F3E7D6A20692DBA215
:101A10000792E0A20892E5A20992EAA20A92804601
:101A2000EEA24F980B92F3A230280C927748F7A2BF
:101A3000FC4E0D9200F115002FD00E9002A800EB85
:101A40008100001D0EC89CA00EF0A0F9B6F87C0025
:101A50000122402180B20EF08EF802222121B6F937
:101A60007E000DF0BFFEB6F87A000022242180B27D
:101A70000EF081F895F926000022772180B20EF051
:101A80007AF8B6F90200A0F5AA41553907D14A1EE5
:101A90005121E5A00EF0A9F906E00D90CEE7012254
:101AA000512180B20EF067F8B6F9081091FBF8F0FA
:101AB000302802D17978082904D03C2805D17878DB
:101AC000092802D1DA4880F83C40DA4C01225B2137
:101AD00020880EF050F8608801225D210EF04BF84E
:101AE000A08801227B210EF046F8E08801227D21AA
:101AF0000EF041F8012220892921F4E4CE48C94E94
:101B0000D036406DB8F1000F05D0C0F34000B8F1F9
:101B1000010F03D006E000F0010003E0BBF87C20D9
:101B2000012A02D048B1C5A008E0D0A20292D5A2F5
:101B30000392364AC7A004922AE0D8A05FEACC728A
:101B400001D0DCA213E0B74A803212F80820D30695
:101B500001D5DEA20BE0130701D5E2A207E053078F
:101B600001D5E6A203E012F03C0F01D1E9A20292F6
:101B7000EEA20392F3A20492AA4A823212F808203B
:101B80000AB1F6A200E0FBA20592204A15320692A5
:101B9000002F01DCA94200DA317196F9045002A944
:101BA00001EB8502121D51F825100CCA0EF0EEF85B
:101BB00096F902000022401C80B221210DF0DBFFCB
:101BC000984896F90210B830012230F811004021EF
:101BD0000DF0D1FF934896F90210BC30012230F885
:101BE000110023210DF0C7FF8E4896F90210B43082
:101BF000002230F8110024210DF0BDFF707802287A
:101C000044F069878A4880F83C409CE422F3010054
:101C100020202020EDE520EFEEE4EAEBFEF7E5EDF5
:101C2000E02020202020000020202020202020C193
:101C3000E0F2E0F0E5FF202020202020202000001E
:101C400020202020202020C0C2C0D0C8DF21212099
:101C50002020202020200000E220E1E0F2E0F0E55A
:101C6000E9EDEEEC20E6F3F0EDE0EBE5000000003E
:101C70002020202020E2E2E5E4E8F2E520E5B8209B
:101C8000202020200000000020CFF0E82020EDE5FB
:101C9000EEE1F5EEE4E8ECEEF1F2E8200000000001
:101CA00020C1C0D2C0D0C5DF20CDC520C2C2C5C4AE
:101CB000C5CDC02000000000202020202020C1C071
:101CC000D2C0D0C5DF20202020202020000000002E
:101CD000BA000010202020F0E0E7F0FFE6E0E5F297
:101CE000F1FF20202020202000000000202020499B
:101CF000F0E0E7F03D2020202021C02020202020FF
:101D00000000000020202055E1E0F23D20202020AE
:101D10002040C22020202020000000002020202081
:101D2000C4D22E20EDE5E8F1EFF0E0E2E5ED202071
:101D30000000000020202020E7E0F0FFE6E0E5F2D0
:101D4000F1FF20202020202000000000202020493A
:101D5000E7E0F03D202020202021C020202020206E
:101D60000000000020202074E1E0F2203D2020202F
:101D700024B043202020202000000000202020C785
:101D8000E0F0FFE43D2020202077252020202020A7
:101D90000000000020202043E1E0F23D2020202030
:101DA0002051C02AF72020200000000020202055CC
:101DB000FD31203D20202020205BC220202020203B
:101DC0000000000020202055FD32203D2020202052
:101DD000205DC2202020202000000000202020556F
:101DE000FD33203D20202020207BC22020202020E9
:101DF0000000000020202055FD34203D2020202020
:101E0000207DC2202020202000000000202020551E
:101E1000FD35203D202020202029C2202020202008
:101E20000000000088C007202D2D2D2D2D2D000035
:101E3000DA0D0820E212082000C00920202020200E
:101E4000C1CFD12120C2DBCACBDED7C5CD20202017
:101E5000000000002020202020202020C1CFD132EF
:101E600020202020202020200000000020202020F2
:101E7000CED2D1D3D2D1D2C2D3C5D22020202020DD
:101E8000000000002020C220D1D2D0D3CAD2D3D0AB
:101E9000C520C8C1DDCF2020000000002020202068
:101EA000C1CFD12120C2CACBDED7C5CD2020202072
:101EB0000000000020E0E2E0F0E8FF20F1E5F2E8B9
:101EC00020202020202020200000000020E0E2E050
:101ED000F0E8FF20EFE5F0E5E3F0E5E22020202048
:101EE0000000000020E0E2E0F0E8FF2055E2FBF512
:101EF0003C55ECE8ED2020200000000020E0E2E06E
:101F0000F0E8FF2055E2FBF53E55ECE0EAF1202039
:101F10000000000020F1EEF1F2EEFFEDE8E5202DEB
:101F200020EDEEF0ECE02020000000002055E8F16C
:101F3000F2203D2020202040C220202020202020F0
:101F4000000000002049E8F1F2203D20202020235D
:101F5000C0202020202020200000000020C4D2200B
:101F6000EDE5E8F1EFF0E0E2E5ED20202020202093
:101F7000000000002074E8F1F2203D20202024B071
:101F80004320202020202020000000009AA3A0A2AF
:101F9000A5A1ABA00DF0FAFEAF480122212180F8E7
:101FA0003C40AE4CE08880B20DF0E5FD01224021BE
:101FB000A08820E05D465FEACC701AD0BEF1000F29
:101FC00001D0A7A000E0AB488BA3ABA2B0A10290C8
:101FD0000DF0DCFEA04805F14605002280F83C40EB
:101FE000A888232180B20DF0C6FD01224021288857
:101FF00001E0ADA0E8E780B27FE5B1A00290B6A015
:102000000390BBA004909B48153005903046022FEA
:1020100002DD80F804C002E0A94200DA017196F9FD
:10202000040002A901EB8002121D51F820100CCA15
:10203000B5A009E0BAF1210F0BD0B9A08D4B014634
:10204000029003F11502BCA00DF0A0FE012002F0E9
:10205000D1B8BFA0F2E7C4480290C4A0039031B148
:10206000012908D002290AD003290CD00FE0C5A00D
:102070000290CAA00AE0CFA00290D4A006E0D9A0A6
:102080000290DEA002E0D7A00290E2A003900346F7
:10209000B6A1B548029A99E4BAF1050F10D0A0A0F4
:1020A000744B024602901533E0A1E6A00DF06EFEDF
:1020B00001200EF05DFC00222121BBF874009AE79C
:1020C000A3A0EDE7DFA3DFA2DEA1DEA00DF05EFEA0
:1020D00004218BF81D109BF82010012922D0022921
:1020E00022D003292DD006292DD00C292DD0DBA1FB
:1020F000604802918BF81D401530039096F904005A
:1021000002A901EB8002536851F82020D9A1DFA079
:102110000DF03CFE96F9010096F90410884216DA9B
:10212000307119E0DFA000E0E4A00290E9A0039084
:10213000EEA00490AFF6B40005904E48153006901E
:10214000DCE7F0A0F1E7F5A0EFE7FAA0EDE7411A30
:10215000012901DD411E3171022800D130710220B8
:102160000EF006FC3D4C0022803C2521608A0DF0DB
:1021700002FD00225E21A08A0DF0FDFC0022262136
:10218000E08A0DF0F8FC00223C21208B0DF0F3FCDE
:102190003848618B2A3000EB810000223E210DF08F
:1021A00024FE00227B21A08B0DF0E5FC00222821DB
:1021B000E08BA2E440F6026010F06AFF01B25846DC
:1021C000ABF84C10402902DD0021A0F84C10BBF9FF
:1021D0004C1061B101290BD002290AD00ADD96F911
:1021E000010096F90420904205DA3071DCE1ADE19E
:1021F000B1E1BAE1E6E1D2E120C2FBF5EEE4202054
:10220000202020202020202020202020000000004E
:102210002049EDE0E3F03D20202020202020404117
:1022200020202020000000002055EDE0E3F03D20BC
:1022300020202020202021C220202020000000007B
:10224000202020202020CDC0C3D0D3C7CAC020204A
:102250002020202000000000DA0D082008C10720FF
:10226000202020C0C2C0D0C8DF20D1C5D2C82121C3
:102270002120200022F301002046F1E5F2E83D2074
:1022800020202020202040C3F62020200000000035
:102290002055F1E5F2E83D2020202020202023C217
:1022A000202020200000000020202020202020D1FD
:1022B000C5D2DC202020202020202020000000008B
:1022C00020CAEEEDF2F0EEEBFC20E5ECEAEEF1F2E6
:1022D000E82020200000000020C2FBF0E0E2EDE852
:1022E000E2E0FEF9E8E920E7E0F0FFE400000000AA
:1022F00020C0E2F22EE2FBF0E0E2EDE8E22E20E781
:10230000E0F0FFE40000000020202020D1CFC5D65F
:10231000D4D3CDCAD6C8C820202020200000000079
:1023200020C2FBEAEBFEF7E5ED2020202020202054
:1023300020202020000000002020CACECDD2D0CE08
:10234000CBDC20C5CCCACED1D2C8202000000000F2
:1023500020C2EAEBFEF7E5ED2020202020202020FF
:102360002020202000000000E80C0000202020EDAC
:10237000E5E2EEE7ECEEE6E5ED212121202020204C
:102380000000000020202020CEF2F1F3F2F1F2E272
:10239000F3E5F22020202020000000002020202053
:1023A0002020E1E0F2E0F0E5FF20202020202020A6
:1023B0000000000020202020202020C0E2E0F0E8E3
:1023C000FF202020202020200000000020202020AE
:1023D00020202020F1E5F2E82020202020202020CD
:1023E00000000000202020202020C1E0F2E0F0E5E5
:1023F000FF2020202020202000000000202020207E
:10240000F0E0E7F0FFE6E0E5F2F1FF2020202020F9
:10241000000000002020202020E7E0F0FFE6E0E5BB
:10242000F2F1FF20202020200000000020E4EBE853
:10243000F2E5EBFCEDEEF1F2FC202D202021F72E51
:102440000000000020C2DBD0C0C2CDC8C2C0DED9AF
:10245000C8C920C7C0D0DFC40000000020E2FBEAEA
:10246000EBFEF7E5ED20202020202020202020205A
:1024700000000000C2DBD0C0C2CDC8C2C0DED9C8D7
:10248000C920C7C0D0DFC42000000000202020C029
:10249000C2D2CECCC0D2C8D7C5D1CAC8C92020208C
:1024A0000000000020F0E0E720E220ECE5F1FFF67C
:1024B00020202020202020200000000020F0E0E745
:1024C00020E2203220ECE5F1FFF6E0202020202061
:1024D0000000000020E4EBE8F2E5EBFCEDEEF1F2A9
:1024E000FC20202028F72E200000000020EEF7E539
:1024F000F0E5E4EDEEE520E2EAEBFEF7E5EDE8E5F8
:102500000000000020F0E0E720E2203320ECE5F1BD
:10251000FFF6E020202020200000000020F0E0E76F
:1025200020E220EFEEEBE3EEE4E02020202020206C
:102530000000000020F0E0E720E220E3EEE42020AD
:10254000202020202020202000000000E94BEAA1CC
:1025500003F1150203E0E74AEDA31532F2A1F8A05A
:102560000DF014FC002030712CE096F9010096F972
:102570000410884201DA307104E0411A022901DDB9
:10258000801EF8E796F9040010B1012803D019E085
:10259000D84B153311E0D74ADDA315320EE0821A6D
:1025A000022A01DD801E20E696F904004A1E9042B0
:1025B000F1D0891E8842EBD0E7A3EDA2DAA1E0A01A
:1025C0000DF0E4FB01200EF0D3F9307928210DF055
:1025D000B8FC30795B21401CC0B20DF0B2FC307900
:1025E0007B21801CC0B20DF0ACFC04F074BAC14B6E
:1025F0001A46114608460DF0C9FB4FF4606010F012
:1026000047FD9AF9021055464A42402100B20DF0AA
:10261000AAFB400100F5806080B206464BA910F08D
:10262000B4FD4CA9301D10F0B0FD694606F108005C
:1026300010F0ABFD01A906F10C0010F0A6FD48A9B1
:1026400006F1100010F0A1FD49A906F1140010F0E8
:102650009CFD50A906F1180010F097FD9DF82C0183
:10266000552808D0502843D042287ED053287DD00A
:1026700046287CD0B9E79DF82E015228B5D1C2A3D7
:10268000C7A2CDA1D2A00DF081FB9DF804000022CD
:1026900040210DF070FA9DF80500002223210DF075
:1026A0006AFA9DF80600002224210DF064FA9DF8D4
:1026B0000200002225210DF05EFA9DF800000022A4
:1026C0005E210DF058FA9DF80100401E0C2801D340
:1026D0008DF8014087489DF801102A3000EB8100F9
:1026E000002228210DF081FB0020ABF84C007CE794
:1026F0009DF82E01412802D0422858D075E7BAA093
:102700000290BFA003909DF82001412803D19DF8BD
:10271000210141287ED001220021281D0EF079F9E7
:10272000BDA00490C2A00590C7A0069095F90460D2
:1027300002AD05EB8600001D0EC855F8260056E0D8
:102740008DF821417AE000BF0DF015FA9DF80400E4
:10275000002240210DF00FFA9DF8050000222321F0
:102760000DF009FA9DF8060002E08EE00BE3A5E308
:10277000002224210DF0FFF99DF8020000222521FE
:102780000DF0F9F99DF8000000225E210DF0F3F93B
:102790009DF80100401E0C2874D200BF55489DF8DA
:1027A00001102A3000EB810000226621B1E1ACA0CB
:1027B000029093A003909DF82001412803D19DF839
:1027C000210141284ED001220021281D0EF021F9BF
:1027D00091A0049096A00590A7A0069095F90450AA
:1027E00002A800EB8501091D50F825000EC90DF067
:1027F000CDFA9DF8240100223E210DF0BCF99DF890
:10280000250100223D210DF0B6F900229DF8260198
:10281000462100E026E00DF0AEF99DF822010022ED
:102820005B210DF0A8F99DF8200100223C210DF05C
:10283000A2F99DF82101401E0C2881D22D489DF857
:1028400021112A3000EB810000225D210DF0CDFA2C
:102850009DF840019DF84111002200EB012080B25B
:102860002B2171E78AA004908FA002AD034605904A
:1028700007CD0DF08BFABBF84A0000222B2180B265
:1028800062E7FFE78DF8014088E79DF82E014328B5
:1028900009D0532829D05A2828D00526572826D0D1
:1028A0004B2825D0A1E6AFF2F440029084A003901B
:1028B00035A004909DF82001412803D19DF8210105
:1028C000412816D001220021281D0EF0A2F852A0A6
:1028D000059081A0069095F9045002A800EB8501AF
:1028E000091D50F825000EC93CE117E169E191E1AD
:1028F000D2E1FDE022F3010020C6F3F0EDE0EB2091
:10290000EFF3F1F220202020202020200000000002
:1029100020CEF7E8F1F2E8F2FC20E6F3F0EDE0EB90
:10292000202020200000000020282020202020201F
:102930002020202020202020202020200000000017
:10294000202020C6D3D0CDC0CB20D1CEC1DBD2C871
:10295000C920202000000000207B202020202020F3
:1029600020202020202020202020202000000000E7
:10297000205B20202020202020202020202020201C
:10298000202020200000000020203025282020309A
:102990005E2030403A30233A3024202000000000EE
:1029A0002020202020202020C8C1DDCF2020202072
:1029B0002020202000000000202020E8EBE820E27A
:1029C000EAEBFEF7E5EDE8E520202020000000001E
:1029D00020202020CFE5F0E5E7E0E3F0F3E7EAE0B0
:1029E0002020202000000000C0E2E0F0E8FF20F1FD
:1029F000E5F2E82128E7E0EDE8E62E2900000000F6
:102A000020203025662020305E2030403A30233AA6
:102A10003024202000000000202020202020F3F17E
:102A2000F2F0E0EDE5EDE0202020202000000000A5
:102A30002020305B5D2020303C20303E3A303D3A53
:102A40003046202000000000202020202055ECE807
:102A5000ED3D20202BC2202020202020000000005F
:102A6000C0E2E0F0E8FF20F1E5F2E82128E7E0E24B
:102A7000FBF82E2900000000202020202055ECE04B
:102A8000EAF13D20202BC220202020200000000061
:102A900020202020EDE520F3F1F2F0E0EDE5EDE07F
:102AA0002020202000000000202020202055F1E5DB
:102AB000F2E83D20202BC220202020200000000032
:102AC000202020202020E1E0F2E0F0E5E820202096
:102AD00020202020000000002020305B5D202030DE
:102AE0003C20303E3A303D3A3029202000000000A2
:102AF000AFF2640087E000BF8DF8214157E000BFCE
:102B00009DF82D010022401C2B210EE38DF8014081
:102B100031E30DF06AF9ABF84C4066E5AFF26C704A
:102B20000290E7A00390AFF2A01004909DF820015E
:102B3000412803D19DF821014128D9D0012200214B
:102B4000281D0DF066FFAFF230100590AFF278004F
:102B5000069095F9040002AD05EB8001091D55F8BA
:102B600020000EC90DF012F99DF8240100223E212B
:102B70000DF001F89DF8250100223D210CF0FBFF2E
:102B80009DF82601002229210CF0F5FF9DF8220175
:102B900000225B210CF0EFFF9DF8200100223C2178
:102BA0000CF0E9FF9DF82101401E0C28A4D29DF8ED
:102BB0002111C948002200EB81005D210DF015F9BB
:102BC0009EE7C6A00290CBA00390D0A004909DF8F1
:102BD0002001412803D19DF82101412812D0012272
:102BE0000021281D0DF015FFCEA00590D3A0069062
:102BF00095F9046002AD05EB8600001D0EC855F87E
:102C00002600AFE7D3A002AD0346059007CD0DF037
:102C1000BDF875E7D5A00290DAA00390DFA004907C
:102C2000BAA00590E3A00690E8A00790EDA0089058
:102C3000F2A00990F7A00A9095F9047002AD05EB97
:102C40008700001D0EC855F8270040E08DF80140B0
:102C500069E000BF9DF82101002205EB800077218B
:102C60000DF0C3F8BDF8300101227A210CF083FF8A
:102C70009DF803009DF80710012200EB012080B2AF
:102C80003C210CF078FFBDF8320101223E210CF00E
:102C900072FFABF84C60A8E4E4480290B9A003903E
:102CA000BEA0049099A00590E1A00690C7A007904F
:102CB000CCA00890E4A00990E9A00A9095F90450EE
:102CC00002A800EB8501091D50F825000EC90DF082
:102CD0005DF89DF82D010022401C21210CF04BFFD6
:102CE0009DF80400002240210CF045FF9DF80500EE
:102CF000002223210CF03FFF9DF806000022242132
:102D00000CF039FF9DF80200002225210CF033FF62
:102D10009DF8000000225E210CF02DFF9DF80100BF
:102D2000401E0C2892D29DF801006B4D002205EB4D
:102D3000800028210DF059F89DF824010022692116
:102D40000CF019FF9DF8250100226C210CF013FFF7
:102D50009DF82601002273210CF00DFF9DF8220141
:102D6000002271210CF007FF9DF820010022722142
:102D70000CF001FF9DF82101401E0C28FFF46AAF02
:102D80008DF8214166E7BCA002909DF82E014C28E9
:102D900006D0542806D0552806D0752806D007E05E
:102DA000BBA004E0C0A002E0C5A000E0CAA0039060
:102DB000AFF22C4004909DF82001412803D19DF8EA
:102DC0002101412879D001220021281D0DF021FE8A
:102DD000AFF2BC300590AFF20030069095F9046078
:102DE00002AD05EB8600001D0EC855F826000CF05C
:102DF000CDFF9DF8240100223E210CF0BCFE9DF881
:102E0000250100223D210CF0B6FE9DF8260100228E
:102E100029210CF0B0FE9DF8220100225B210CF06C
:102E2000AAFE9DF8200100223C210CF0A4FE9DF892
:102E30002101401E0C2801D38DF821419DF821115C
:102E40002548002200EB81005D210CF0CEFF00BF81
:102E50009DF82D010022401C2B210CF08CFE9DF8CA
:102E60000400002240210CF086FE9DF8050000229F
:102E700023210CF080FE9DF80600002224210CF096
:102E80007AFE9DF80200002225210CF074FE9DF8C8
:102E9000000000225E210CF06EFE9DF80100401E35
:102EA0000C2801D38DF801409DF801100A4800223A
:102EB00000EB8100282103F034BC19E121E100007E
:102EC00020E0F1E8ECECE5F2F0E8FF20E1E0F2E0F0
:102ED000F0E5E820000000004CF30100202020C2B3
:102EE000FBF0E0E2EDE8E2E0FEF9E8E92020202056
:102EF0000000000020202020202020E7E0F0FFE458
:102F00002020202020202020000000002030252F1D
:102F10002820202F305E2030403A30233A302420C1
:102F200000000000202020202020E7E0E2E5F0F86B
:102F3000E5ED2020202020200000000020305B2F25
:102F40005D20202F303C20303E3A303D3A30292061
:102F50000000000020202020EDE520E7E0E2E5F081
:102F6000F8E5ED2020202020000000002020202077
:102F7000202020D0E0E7F0FFE420202020202020A7
:102F80000000000020202020202020E1E0F2E0F0DE
:102F9000E5E82020202020200000000020CDE0F7E0
:102FA000E0EBEE20202020202020202020202020C8
:102FB000000000002020202020202020202055E19B
:102FC000E0F23D20203CC2200000000020CAEEEDCF
:102FD000E5F6202020202020202020202020202056
:102FE000000000002030712F7720202F3072203019
:102FF000693A306C3A307320000000002020202015
:1030000020202020202055E1E0F23D20203EC2205B
:103010000000000020202020CEF2E4E0EDEE202091
:1030200020207AE02AF72E2000000000E80C0000A3
:1030300020202020202020202055E1E0F23D2020EB
:103040003CC2202000000000202020202020202042
:103050002055E1E0F23D20203EC22020000000008B
:1030600020A8ECEAEEF1F2FC20202020207AE02AD1
:10307000F72E202000000000202020C0E2E0F0E831
:10308000FF20C1CFD1204E2B2020202000000000A7
:103090002020202020EEF2EAEBFEF7E8EBF1FF2003
:1030A0002020202000000000202020202020EFE50C
:1030B000F0E5E3F0E5E220202020202000000000E1
:1030C000202020E7E0E2FBF8E5EDEE2055E2FBF5FD
:1030D0002E20202000000000202020E7E0EDE8E680
:1030E000E5EDEE2055E2FBF52E202020000000004B
:1030F000AFF2646002AD0346059007CD0CF046FECA
:10310000A6E6AFF650500290B1A00390AFF28870DF
:103110000490B54802AD0346059007CD0CF036FE8D
:103120009DF82D010022401C21210CF024FD9DF86A
:103130000400002240210CF01EFD9DF80500002235
:1031400023210CF018FD9DF80600002224210CF02C
:1031500012FD9DF80200002225210CF00CFD9DF8C7
:10316000000000225E210CF006FD9DF80100401ECB
:103170000C28BFF4CBAC9DF801109C48002200EB5A
:1031800081002821C5E4DFF86882A3F5B8508838AB
:1031900001D198A05EE0A3F5B8507C3801D19BA086
:1031A00058E0A3F59050D83801D19EA052E0A3F585
:1031B0009050CC3801D1A1A04CE0A3F5B8507A389A
:1031C00001D1A4A046E0A3F5B850753801D1A7A05D
:1031D00040E0A3F59050CA3801D1AAA03AE0A3F587
:1031E0009050C53801D1ADA034E040F6781083424C
:1031F00001D1B0A02EE040F66C118B4201D1B3A0FA
:1032000028E0A3F59052E83A01D1B6A022E0A3F558
:10321000B852983A01D1B9A01CE0A3F59052D43A23
:1032200001D1BCA016E0A3F5B852843A01D1BFA0E9
:1032300010E0A3F51062923A01D1C2A00AE0A3F512
:103240001062793A01D1C5A004E08342D1D08B420B
:10325000D5D0C8A00290CDA00390D2A00490D7A052
:103260000590DCA00690E1A00790E6A00890EBA0F6
:103270000990F0A00A90F5A00B90FAA00C90FF48DE
:103280000D9009F1040902A8B9E80E00574650F85C
:1032900025000CF07BFD3879082802D1F84880F829
:1032A0003C40B8F90A004446202805DA00222121D2
:1032B00080B20CF060FC05E04FF0FF322121F1A05C
:1032C0000CF093FDB4F90C000D2805DA0022402122
:1032D00080B20CF050FC05E04FF0FF324021E9A035
:1032E0000CF083FDB4F90E00642805DA00222321D6
:1032F00080B20CF040FC05E04FF0FF322321E1A04A
:103300000CF073FD3A4DE04C8035686AA04206DB54
:103310006FF004023F21DDA00CF067FD03E0002206
:103320003F210CF0AEFA00222B2109200CF023FCE7
:103330000022282130460CF01EFCA86AA04206DBC1
:103340006FF004022921D1A00CF04FFD03E0002210
:1033500029210CF096FAA86AA04206DB6FF004025D
:103360002921CAA00CF041FD03E0002229210CF024
:1033700088FAE86AA04206DB6FF004023C21C3A091
:103380000CF033FD03E000223C210CF07AFA286BAC
:10339000A04206DB6FF004023E21BCA00CF025FD2C
:1033A00003E000223E210CF06CFA6FF00304224689
:1033B0005B21B8A00CF019FD22462421B5A00CF029
:1033C00014FD22462521B3A00CF00FFD224667E133
:1033D00020EFF0E5E4EEF5F0E0EDE8F2E5EBFF20BC
:1033E000B921202000000000881200004CF30100E9
:1033F00088C00720202020C8C1DDCF3232302F36D0
:10340000302D32344120202000000000202020C830
:10341000C1DDCF3232302F36302D313241202020E5
:1034200000000000202020C8C1DDCF3232302F3410
:10343000382D32344120202000000000202020C8F8
:10344000C1DDCF3232302F34382D313241202020AF
:1034500000000000202020C8C1DDCF3232302F36DE
:10346000302D31304120202000000000202020C8D5
:10347000C1DDCF3232302F36302D35412020202093
:1034800000000000202020C8C1DDCF3232302F34B0
:10349000382D31304120202000000000202020C89D
:1034A000C1DDCF3232302F34382D3541202020205D
:1034B00000000000202020C8C1DDCF3232302F3282
:1034C000342D32344120202000000000202020C86C
:1034D000C1DDCF3232302F32342D31324120202025
:1034E00000000000202020C8C1DDCF3232302F3450
:1034F000382D34304120202000000000202020C83A
:10350000C1DDCF3232302F36302D343041202020F3
:1035100000000000202020C8C1DDCF3232302F341F
:10352000382D32304120202000000000202020C80B
:10353000C1DDCF3232302F36302D323041202020C5
:1035400000000000202020C8C1DDCF3232302F32F1
:10355000342D35304120202000000000202020C8DC
:10356000C1DDCF3232302F32342D32354120202090
:1035700000000000202020D2E8EF20EDE5E8E7E29F
:10358000E5F1F2E5ED20202000000000C4E0F2E0CB
:1035900020E8E7E3EEF22E2030212F30402F3023B9
:1035A00000000000F8E0F1F1E82020202020532F57
:1035B0004E30303030303F2000000000D3CAD332CC
:1035C00030322E2B2820532F4E30303030302920EF
:1035D00000000000CFCE20202020202020207620B8
:1035E0002020205B2020202000000000C1CFD1310E
:1035F000202D20202020532F4E30303030303C20E2
:1036000000000000C1CFD132202D20202020532FD8
:103610004E30303030303E20000000005253323304
:10362000322020202020207620202024202020202E
:103630000000000043414E20504448202D202076B9
:1036400020202025202020200000000043414E2083
:10365000534448202D2020762020205E202020204A
:103660000000000045746865726E65742D20207638
:10367000202020262020202000000000F82100002B
:10368000DA0D08202A2A000040420F002A2A2A2A9E
:103690002A2A00002D2D2D2D2D2D2D2D2D00000041
:1036A0005E21AFF210000CF0A0FB22462621AFF203
:1036B0001C000CF09AFB61E1ED4FA3F5B85088387F
:1036C00002D1AFF2D02068E0A3F5B8507C3802D127
:1036D000AFF2C82061E0A3F59050D83802D1AFF224
:1036E000BC205AE0A3F59050CC3802D1AFF2B42000
:1036F00053E0A3F5B8507A3802D1AFF2A8204CE0DD
:10370000A3F5B850753802D1AFF2A02045E0A3F57B
:103710009050CA3802D1AFF294203EE0A3F5905009
:10372000C53802D1AFF28C2037E0A3F510607838AD
:1037300002D1AFF2802030E0A3F510606C3802D1E6
:10374000AFF2782029E0A3F59050E83802D1AFF22B
:103750006C2022E0A3F5B8508E3801D1C5A01CE042
:10376000A3F59050D43802D1AFF2582015E0A3F55C
:10377000B8507F3801D1C5A00FE0A3F51060923892
:1037800002D1AFF2402008E0A3F51060793802D1F1
:10379000AFF2382001E0AFF224200290AFF2142003
:1037A0000390AFF200200490BEA00590AFF2C410C9
:1037B0000690AFF2B0100790C048089009F10409D4
:1037C00002A8B9E80E0050F825000CF0DFFAB7F9AE
:1037D0000A00202805DA0022212180B20CF0CBF962
:1037E00006E04FF0FF322121AFF268100CF0FDFA35
:1037F000B7F90C000D2805DA0022402180B20CF048
:10380000BAF906E04FF0FF324021AFF288100CF019
:10381000ECFAB7F90E00642805DA0022232180B201
:103820000CF0A9F906E04FF0FF322321AFF2AC1003
:103830000CF0DBFA8E4FA24D8037786AA84207DB86
:103840006FF004023F21AFF2BC100CF0CEFA03E09F
:1038500000223F210CF015F800222B214FF461705B
:103860000CF089F90022282130460CF084F9B86A5E
:10387000A84207DB6FF004022921AFF2F0100CF030
:10388000B4FA03E0002229210BF0FBFFF86AA842FA
:1038900007DB6FF004023C21AFF210200CF0A5FA18
:1038A00003E000223C210BF0ECFF386BA84207DB61
:1038B0006FF004023E21AFF22C200CF096FA03E0E8
:1038C00000223E210BF0DDFF9AF904005146032847
:1038D00002D14A78092A13D09AF90110A1B101291D
:1038E00015D002291ED0032924D004292AD0052965
:1038F0002DD0062933D0072936D0082938D03DE00D
:10390000704880F83C4039E088BB142237E0022838
:1039100034DAC0F10100C0B202220C210CF078FAB6
:1039200003F0D9B8022829DAC0F101000222C0B29E
:103930000F21F3E7022821DAC0F101000222C0B210
:103940001221EBE7032819DAC0F1020012E0042883
:1039500014DAC0F103000622C0B20321DEE7042816
:103960000CDAC0F1030005E0C0F1040002E005E05C
:10397000C0F105000A22C0B21146CFE700220021A3
:103980000846CBE750A0029055A003905AA004909F
:103990005FA0059064A0069069A007906EA00890B3
:1039A00073A0099078A00A907DA00B9082A00C9043
:1039B00087A00D908CA00E9091A00F9096A01090D3
:1039C0009BA01190A0A01290A5A01390AAA0149063
:1039D000AFA01590B4A01690B9A01790BEA01890F3
:1039E000C3A01990C8A01A90CDA01B90D2A01C9083
:1039F000D7A01D90DCA01E90E1A01F90E6A0209013
:103A0000EBA02190F0A02290F5A02390FA482490FA
:103A1000FAA02590FFA02690022F02DD86F804C0B0
:103A200002E0A94200DA317196F9041002A800EB15
:103A30008102121D50F821100CCAFCA00CF0A6F94E
:103A400001200CF095FF96F9040014280FDABBF85A
:103A500050000022401C3C215C4680B20CF08BF8E8
:103A6000B4F862004FF000024FF02801EAE12BE2C7
:103A700088C00720202020C8C1DDCF3232302F3649
:103A8000302D33304120202000000000202020C8AD
:103A9000C1DDCF3232302F36302D3135412020205C
:103AA00000000000D3CAD330302B2E302820532FF3
:103AB0004E3030303030292000000000F821000066
:103AC00040420F00DA0D082020D1F2E0EDE4E0F0F2
:103AD000F2EDFBE520202020202020200000000027
:103AE00020C2F0E5ECFF20E820E4E0F2E020202016
:103AF000202020200000000020D1E8EDF5F0EEEDC0
:103B0000E8E7E0F6E8FF2020202020200000000069
:103B1000202020E2F0E5ECE5EDE820E820E4E0F20A
:103B2000FB2020200000000020D1F2F0F3EAF2F3A5
:103B3000F0E0202020202020202020200000000075
:103B400020CCEDE5ECEEEDE8EAE02020202020207E
:103B5000202020790000000020CEF1EDEEE2EDEE15
:103B6000E920E8F1F2EEF7ED2E204E3C00000000D7
:103B700020C7E22EF1E8E3ED2E202020282020208F
:103B8000202020200000000020CEF2EAEBFEF7E526
:103B9000EDE8E520F1E8E3EDE0EBE02000000000D7
:103BA0002020E0E2E0F0E8E820202020292020206A
:103BB000202020200000000020C0CFC220E8F1F229
:103BC000EEF7EDE8EAEEE2202020202000000000E1
:103BD000205420EFF0EEE2E5F0EAE8202020F6E5C0
:103BE000EFE820200000000020E1E0F2E0F0E5E84E
:103BF000202020202071ECE8ED2E20200000000085
:103C000020556D61783D2020202020202021C220D9
:103C100020202020000000002055E130B03D202071
:103C2000202020202040C220202020200000000052
:103C30002055E13230B03D20202020202023C2201A
:103C400020202020000000002055F1E8E3ED3D2079
:103C500020202020205EC220202020200000000004
:103C600020556D696E2EF1E5F2E83D202026C22038
:103C7000202020200000000020556D61782EF1E505
:103C8000F2E83D202046C220202020200000000035
:103C9000205530E13D20202020202020203EC22041
:103CA00020202020000000002049E1EA2E3D2020B5
:103CB00020202020206AC02020202020000000009A
:103CC0002049E72EECE0F52E3D202020204AC020A0
:103CD000202020200000000020496D61783D202038
:103CE00020202020205D41202020202000000000F6
:103CF00020496D696E3D202020202020207BC0209F
:103D00002020202000000000204BE2FBF02EE7E006
:103D1000F02E3D202020205B2020202000000000ED
:103D20002054E72EE2EAEB2EE02EF12E2021F120A6
:103D3000202020200000000020746D61783D2020AC
:103D4000202020202024B04320202020000000003C
:103D50002045746865726E65742020202020202024
:103D6000202020200000000020C2EDE5F8EDE8E56D
:103D700020E4E0F2F7E8EAE820202020000000003C
:103D800020CFEEFDEBE5ECE5EDF2EDFBE920EA2DD1
:103D9000EBFC2E200000000020E1E0F2E0F0E5E87E
:103DA000202020202020202020512520000000005D
:103DB00020C0E2E0F0E8E9EDFBE520F0E5EBE520EE
:103DC000202020200000000020D1E5F0E8E9EDFBF4
:103DD000E9204E2020202020202020770000000015
:103DE000204D4F44425553204144524553532020C7
:103DF000202020570000000037F3010020CAE0EB2C
:103E0000E8E1F0EEE2EAE820202020202020202037
:103E10000000000020D2E5F1F22020202020202008
:103E20002020202020202020000000002020202012
:103E300020D3D1D2C0CDCEC2CAC82020202020207D
:103E40000000000008B1FA4801E0F948401D0BF0FD
:103E5000CCFFB4F85A004FF000024FF0290108B12E
:103E6000F4A000E0F5A00BF0C0FF94F82400552862
:103E70006BD06FF003027921F2A00BF0B6FF34F89B
:103E8000520F0122212180B20BF075FE60880122C1
:103E9000402180B20BF06FFEA0880122232180B266
:103EA0000BF069FE608901225E2180B20BF063FE97
:103EB000A0890022262180B20BF05DFEE08B01225A
:103EC0003E2180B20BF057FE0BF1580400222088EF
:103ED000242180B20BF04FFEA08902226A2180B219
:103EE0000BF049FEE08903225B2180B20BF043FE18
:103EF000208A01225D2180B20BF03DFEA08A0122C2
:103F00007B2180B20BF037FEE08A01224A2180B289
:103F10000BF031FE608B0022212180B20BF02BFED2
:103F2000E08B0022712180B20BF025FE2089002257
:103F3000462180B20BF01FFEB4F9200098B1002298
:103F4000512180B20BF017FE13E06FF007027921C8
:103F5000BEA00BF04AFFC04800227921B0F87000E3
:103F60000BF009FE8BE76FF001025121BBA00BF0B3
:103F70003CFFB948002280307721406A0BF081FC79
:103F8000B54800225721B0F87600FEF734B8B5A046
:103F90000290BAA00390BFA00490C4A00590A448CA
:103FA0001F3006904C9A32B1A0F115029BF81C000C
:103FB00002AB43F82020A94201DA317103E0022F5D
:103FC00001DD86F804C09AF9041002A800EB810212
:103FD000121D50F821100CCABAA0FEF735B89BF894
:103FE00009005C46401CC0B28BF809000F2807D3BB
:103FF0000020711CC9B26072A177032900D3A07799
:10400000B64802908A480A300390A07F20B1012868
:1040100004D0022817D003E0B1A000E0B6A00490BD
:1040200002ADBBA00ECD0BF0B1FE9AF9010060B15C
:1040300001280FD0022812D0032815D0042818D048
:1040400005281BD01EE0B8A0E9E7BD495E2081F835
:104050002A0017E0BA495E2081F82D0012E0B84925
:104060005E2081F830000DE0B5495E2081F8330014
:1040700008E0B3495E2081F8360003E0B0495E20D5
:1040800081F83A00AF4D28784FF000024FF026013A
:104090000BF071FD287900225E210BF06CFD287A6F
:1040A000002225210BF067FD287B00223C210BF02C
:1040B00062FD297E5E480022343000EB81003E2103
:1040C0000BF093FEA88B00227B210BF054FD207D8A
:1040D00000287ED03A200BF0E4FA994D20242C548D
:1040E0003A200BF0DEFA2C541AE45B4CB4F972005F
:1040F00030B101280DD002280DD0032813D00CE0D8
:1041000091A002904A481F30039015380490059002
:104110001BE093A000E098A00290B4F97400092875
:1041200003D89BA010E0A0A0F6E7A0F10A02032AA2
:1041300001D8A3A008E010F1090201D3A6A003E072
:104140000C30022801D8AAA00390A94202DA8AF80A
:10415000041003E0012F01DD8AF8049041F26C00A5
:104160000EF096FF0128A8A0049046D0ACA00590C0
:10417000B1A006902E481F300790153808909AF984
:10418000041002A800EB8102536850F82120B0A16E
:10419000B5A00BF0FBFDB4F97400002800DA404232
:1041A00080B2002221210BF0E6FC41F274009AF863
:1041B0000110851E061F871F022920D00EF068FF00
:1041C00004B228460EF064FF05B230460EF060FFE0
:1041D00000E052E306B238460EF05AFF00222321D7
:1041E000CDE9001200B223462A4631460BF021FCED
:1041F0005FF002000CF0BCFB76E7A1A0B7E70EF081
:1042000047FF04B228460EF043FF05B230460EF0D9
:104210003FFF06B238460EF03BFF9AF8021000B29C
:10422000491CC9B22322CDE900212346DCE7000066
:1042300018F30100E0E2F2EEEC2E0000F0F3F7EDEF
:104240002E000000E2FBEAEB2E000000F7E5F0E5AF
:10425000E72079F12E00000088C00720C2DBCACB1E
:104260002E00000020C8C1DDCF3232302F36302D75
:104270003132C02D312F32200000000020C8C1DDB6
:10428000CF3232302F36302D3132C02D322F322006
:104290000000000020C8C1DDCF3232302F34382D6D
:1042A0003132C02D312F32200000000020C8C1DD86
:1042B000CF3232302F34382D3132C02D322F3220D0
:1042C00000000000D1D2C0CDC4C0D0D2CDDBC5200B
:1042D000D3D1D22E2DCAC8200000000084180000BF
:1042E000202020209A209C202D20E2FBE1EEF020CF
:1042F0002020202000000000202020BF209D202D15
:1043000020F3F1F2E0EDEEE2EAE020200000000010
:1043100020D3D1D2C0CDCEC2CAC02020C2D0C5CCFD
:10432000C5CDC820000000002020202020A420208F
:104330002D20E2FBF5EEE4202020202000000000EC
:10434000DA0D08202040024020C2FBEAEBFEF7E530
:10435000EDEE202020202020202020200000000042
:1043600020CFE5F0E8EEE42020202020202020319E
:1043700020F7E0F10000000020CFE5F0E8EEE420B7
:1043800020202020203120F1F3F2EAE80000000094
:1043900020D7E0F1EEE2EEE920EFEEFFF120474D0D
:1043A000542B21200000000020CFE5F0E8EEE420AF
:1043B000202020203120EDE5E4E5EBFF00000000A7
:1043C00020D7E0F1EEE2EEE920EFEEFFF120474DDD
:1043D000542B20210000000020D7E0F1EEE2EEE9AE
:1043E00020EFEEFFF120474D542D2120000000006A
:1043F00020D7E0F1EEE2EEE920EFEEFFF120474DAD
:10440000542D20210000000020D1E8EDF5F0EEED64
:10441000E8E7E0F6E8FF20F7E5F0E5E70000000058
:10442000204950203030302E3030302E3030302E79
:10443000303023200000000020D1E8EDF5F0EEED53
:10444000E8E7E8F0EEE2E0F2FC20202000000000C7
:1044500020202020C2D0C5CCC5CDC82028534E5422
:10446000502920200000000020202020D1C8CDD5D8
:10447000D0CECDC8C7C0D6C8DF20202000000000A5
:104480002020202020C8CDD2C5D0CDC5D2202020CC
:104490002020202000000000F8A002909BF82200BD
:1044A0005E46552807D0FB480390FB4804900590D2
:1044B0000690747714E096F823005528F7A003902F
:1044C00006D0F4480490F44805900690022006E0D7
:1044D000F8A00490EF480590EF480690032070770D
:1044E000A94202DA8AF8041003E0022F01DD8AF8FB
:1044F00004C09AF9041002A800EB8102121D50F8C2
:1045000021100CCAF1A00BF041FC01200CF030FA94
:1045100096F822004FF0000255284FF021010CD0F0
:10452000DD48401F0BF061FC96F823004FF00002BD
:1045300055284FF0400103D087E0D7480A38F1E70B
:10454000D5480A380BF051FCE64800222321B0F888
:104550006E001AE5E4A00290E9A00390EEA004909A
:10456000F3A00590F8A00690FD4807901830089039
:10457000FCA00990C84815300A90A94202DA8AF8CE
:10458000041003E0022F01DD8AF804C09AF9041038
:1045900002A800EB8102121D50F821100CCAF7A0EE
:1045A0000BF0F4FB01200CF0E3F9FA4C207828B36F
:1045B000012829D06FF004022121F7A00BF015FC8F
:1045C000607838B301282BD06FF004024021F2A0AC
:1045D0000BF00BFCA07848B301282DD06FF004023B
:1045E0002321EDA00BF001FCE07858B301282FD077
:1045F0006FF004022821E8A002F093B8A648212118
:104600006FF00202401FD9E7A34821216FF0020298
:104610000A38D3E7A04840216FF00202401FD7E7D5
:104620009D4840216FF002020A38D1E79A482321C1
:104630006FF00202401FD5E7974823216FF0020276
:104640000A38CFE76FF0020228219348401FD3E7D2
:104650006FF002022821FEE3D1A00290B4A00390E3
:10466000BF48049018300590BEA006908A481530C7
:104670000790A94202DA8AF8041003E0022F01DD54
:104680008AF804C09AF9045002A800EB8501D1E928
:10469000012350F82510B9A00BF078FB01200CF095
:1046A00067F9BC48007810B1012805D00AE07A48C3
:1046B00000222821401F03E07748002228210A38E1
:1046C0000BF093FB8BF834400EE5A94202DA8AF82E
:1046D000041003E0022F01DD8AF804C06E4BB6A27D
:1046E0001533BBA1C0A00BF051FB01200CF040F929
:1046F000A848007920B1012807D003280AD00EE08D
:10470000654800223C21401F07E0634800223C210D
:104710000A3802E000223C219FA00BF066FB7148A2
:1047200002223A21B0F97E0001F0C8BCA94202DAA7
:104730008AF8041003E0022F01DD8AF804C0564B0A
:10474000AFA21533B4A1BAA00BF020FB01200CF0EE
:104750000FF99048407920B1012809D002280FD0E4
:1047600018E000224021B8A00BF03FFB1E200EE015
:1047700000224021B6A00BF038FB40F2CA3006E020
:1047800000224021B4A00BF030FB45F255505549B2
:104790008031088100222421B0A00BF026FB514873
:1047A0000122B8303C2100880BF0E5F94D48012288
:1047B000BC303E2100880BF0DEF900222321A948FD
:1047C000D4E1A94202DA8AF8041003E0022F01DDE5
:1047D0008AF804C0304BA4A215338FA1A8A00BF017
:1047E000D5FA01200CF0C4F86A48807920B101287C
:1047F0000CD0022812D01BE00022402192A00BF026
:10480000F4FA38491E208031488111E0002240210D
:104810008FA00BF0EAFA40F2CA3106E000224021F4
:104820008DA00BF0E2FA45F255512E4880304181BF
:104830000022242189A00BF0D8FA2A480122B8309E
:104840005B2140880BF097F926480122BC305D219E
:1048500040880BF090F90022232186E18EA002907F
:1048600067A0039080A004900B4815300590A942E2
:1048700002DA8AF804101FE11AE110E320C0CFC267
:104880002031E920F3F0EEE2E5EDFC2021202020AC
:1048900000000000F821000022F3010020C0CFC278
:1048A0002032E920F3F0EEE2E5EDFC20402020206C
:1048B0000000000020CFE5F0E8EEE420C0CFC232D7
:1048C000202020202023F72E00000000202020C0E0
:1048D000CFC220C8D1D2CED7CDC8CACEC2202020C8
:1048E0000000000088C0072020D0E5EBE520E0E2D2
:1048F0002EB931202020202020202021000000007F
:1049000020D0E5EBE520E0E22EB932202020202067
:10491000202020400000000020D0E5EBE520E0E270
:104920002EB933202020202020202023000000004A
:1049300020D0E5EBE520F1E0ECEEEAE0EBE8E1F099
:10494000EEE2EAE80000000020D0E5EBE520E1E03F
:10495000F2E0F0E5E82020202020202800000000E0
:10496000B418000020C1CFD1312BC1CFD1322020CB
:1049700020202020202020200000000020202020B7
:1049800020202020D2C5D1D220202020202020206D
:1049900000000000EC120820D0C0C1CED72E0000CD
:1049A00020D0E5EBE520E0E2E0F0E8FF2020202049
:1049B00028202020000000002049E1E0F23D2020D6
:1049C0002020202020202020203A4120000000002C
:1049D00020D0E5EBE52020202020202020203C20B6
:1049E000202020200000000020D2C5D1D220D1C03C
:1049F000CCCECAC0CBC8C1D0CEC2CAC00000000055
:104A00002055313D202020203CC22049313D20202E
:104A100020203EC0000000002055F03D4020202412
:104A20002020202020F8E8EC3D202023000000007A
:104A30002020202020D2C5D1D220C1CFD1312020AA
:104A40002020202000000000556D696E000000004D
:104A5000556D61780000000055323000282020207C
:104A600024290000CC0000102055323D20202020B9
:104A70005BC22049323D202020205DC000000000A4
:104A80002020202020D2C5D1D220C1CFD132202059
:104A900020202020000000002055F03D4020202450
:104AA0002020202020202023202020210000000082
:104AB000022F01DD8AF804C09AF9045002A800EB25
:104AC0008501D1E9012350F82510F5A00BF05EF91E
:104AD00001200BF04DFFF848C07920B101280AD021
:104AE000022811D01BE000224021AFF2A4000BF0FD
:104AF0007CF91E2010E000224021AFF2AC000BF048
:104B000074F940F2CA3007E000224021AFF2B80049
:104B10000BF06BF945F25550E849088148810022B5
:104B20002421AFF2C8000BF060F9E44D01223835C2
:104B30003C2128880BF01FF82E1D012230883E21D1
:104B40000BF019F8DE4800222321008880B20BF018
:104B500012F8688801225B210BF00DF870880122A1
:104B60005D210BF008F800222121D648008880B290
:104B70000BF001F8D44801222421008880B20AF009
:104B8000FAFF8BF835409FE5D0A00290D5A00390A6
:104B9000DAA00490DFA00590E4480690A94202DA6A
:104BA0008AF8041003E0022F01DD8AF804C09AF9A4
:104BB000041002A800EB8102121D50F821100CCA4B
:104BC000DBA00BF0E3F801200BF0D2FE0BF17A042E
:104BD00000226088212180B20AF0CDFF20880022C7
:104BE000402180B20AF0C7FFA0880022232180B2B2
:104BF0000AF0C1FFB1480022242180380088A8E4CF
:104C0000D1A2029202ACD6A244F82020DAA25A60C5
:104C1000DFA29A60E4A2DA60A84AC44B803AA942B3
:104C2000B2F900201044E64A44F8203004EB80003A
:104C300042608260504601DA017103E0022F01DD1B
:104C400080F804C09AF9041004EB8100D0E9012334
:104C500054F82110DBA0FDF7F7B9E0A00290E5A021
:104C60000390EAA00490EFA00590F4A00690F9A0AC
:104C70000790FEA00890AD4854460990A94201DA79
:104C8000217103E0012F01DD84F8049094F90410F0
:104C900002A800EB8102536850F82120F9A1FFA07F
:104CA0000BF074F802200BF063FE94F9020000226E
:104CB000401C80B221210AF05EFF804994F9020075
:104CC0001831095C69B19BF814006FF003024FF0D2
:104CD000400108B1F7A001E0B94844300BF085F875
:104CE00007E0764900228C3131F9100040210AF0AA
:104CF00079FD724994F902005C3131F81010F1B37A
:104D00006FF001022321AFF6C4200BF06EF800BF54
:104D10006A4994F90200683131F8101081B36FF0DC
:104D200001022421AFF6E4200BF05FF8634994F907
:104D3000020074316FF0010231F810004FF05B0196
:104D4000A0B3AFF6003000BF0BF04FF85B4994F909
:104D500002007A316FF0010231F810004FF05D016E
:104D600080B3AFF6203000BF0BF03FF8534894F902
:104D7000021080306FF0010230F8110001E00CE009
:104D800015E04FF0280100B3AFF648300BF02DF8D6
:104D90004A4994F902008631F6E14849002262311D
:104DA00031F9100023210AF01DFDB1E708E0434965
:104DB00000226E3131F9100024210AF013FDB5E70D
:104DC000BEA0C1E7FFE7BDA0CEE7BCA0DEE7BBA069
:104DD00012E4AFF690300FE4BAA00290BFA00390A7
:104DE000C4A004908FA0059094A0069099A007906D
:104DF0009EA008904D4854460990A94201DA2171BD
:104E000003E0022F01DD84F804C094F9041002A825
:104E100000EB8102121D50F821100CCABBA00AF051
:104E2000B5FF01200BF0A4FD94F902000022401C04
:104E300080B221210AF09FFE204994F902004031FE
:104E40004FF00002085C4FF04001FF2826D0B5A0CB
:104E50000AF0CBFF00E0CFE2184994F9020092314A
:104E60004FF0000231F810004FF02301A0B1ADA0C7
:104E70000AF0BBFF114994F90200683131F81010B3
:104E800059B16FF005022421AFF648400AF0ADFF9A
:104E900094F90200094949E183E184E17FE1ACE250
:104EA000202020D2C5D1D220C1CFD1312BC1CFD12A
:104EB0003220202000000000EC12082008C107204A
:104EC000CC000010CE000010D000001020C1E0F295
:104ED000E0F0E5E920202020202020202020204094
:104EE0000000000020C8F1F2EEF7EDE8EAEEE22063
:104EF00020202020202020210000000020C4E0F2FB
:104F0000F7E8EAEEE220F2E5ECEFE5F02E202023D0
:104F10000000000020D1F3F5E8F520EAEEEDF2E024
:104F2000EAF2EEE2202020240000000037F3010026
:104F3000202020202020D1D2D0D3CAD2D3D0C0204C
:104F4000202020200000000020C4E0F2F7E8EA2042
:104F5000F2E5ECEFE5F02E204E31202000000000BD
:104F600020D1F3F5EEE920EAEEEDF2E0EAF2204E90
:104F7000312020200000000020D1F3F5EEE920EAE6
:104F8000EEEDF2E0EAF2204E322020200000000098
:104F900020D1F3F5EEE920EAEEEDF2E0EAF2204E60
:104FA000332020200000000020D1F3F5EEE920EAB4
:104FB000EEEDF2E0EAF2204E342020200000000066
:104FC000881200002020C2CDC5D8CDC8C520C4C0DD
:104FD000D2D7C8CAC82020200000000020F2E5EC8B
:104FE000EFE5F0E0F2F3F0E0202020202040B04395
:104FF0000000000020746D617820202020202020F7
:10500000202020202023B0430000000020746D6980
:105010006E20202020202020202020202024B0438B
:105020000000000020D0E5EBE520202020202020FB
:1050300020202020205B20200000000020C7E2F379
:10504000EA2020202020202020202020205D202059
:105050000000000020C4E8F1EFEBE5E9202020206B
:1050600020202020202820200000000020534E4D2A
:105070005020545241502020202020202029202040
:1050800000000000202020D2C5CCCFC5D0C0D2D394
:10509000D0DB204E21202020000000002020C2CDA7
:1050A000C5D8CDC8C920C4C0D2D7C8CA20202020A6
:1050B00000000000EDE5E8F1EFF02E00E2EAEB2E53
:1050C0000000000020F2E5EAF3F92EF1EEF1F22EF5
:1050D00020402020202020200000000020E0E2E0EE
:1050E000F0E8E9EDEEE520F1EEF1F2EEFFEDE8E5B6
:1050F000000000002020202020202020202D202320
:105100002020202020202020000000002020D1D3BB
:10511000D5CEC920CACECDD2C0CAD2204E212020A1
:1051200000000000EDE5E7E0ECEA2E009A316FF0B8
:10513000010231F810004FF05B0178B3AFF6FC606C
:105140000AF053FE94F90200AC496FF0010231F805
:1051500010004FF05D0178B3AFF618700AF045FE0D
:10516000A64894F9021008306FF0010230F81100DF
:105170004FF0280138B3AFF6347000BF0AF035FEA7
:105180009E4994F9020010316FF0010231F81000CD
:105190004FF0290100287FF41CAE18E60DE098A01E
:1051A00056E697A064E695490022343931F910009B
:1051B00024210AF017FB6BE602E0AFF20010BFE714
:1051C000AFF20810CAE7AFF20C10D7E78E48D0E96B
:1051D0001A23006F4A92CDE94B308CA0029091A027
:1051E000039096A004909BA00590A0A00690A5A077
:1051F0000790AAA00890AFA00990B4A00A90B9A007
:105200000B90BEA00C90C3A00D90C8A00E90CDA096
:105210000F90D2A01090D7A01190DCA01290E1A026
:105220001390E6A01490EBA01590F0A01690F5A0B6
:105230001790FAA01890FF48FF4C1990208C28B9BD
:10524000FC480390A0F57760049005905646A9426B
:1052500001DA317103E0022F01DD86F804C096F90E
:10526000041002A800EB8102121D50F821100CCA94
:10527000F2A00AF08BFD01200BF07AFB208C20B10C
:105280006FF002022121F3A003E06FF0030221215D
:10529000F2480AF0AAFD608C20B16FF002024021B2
:1052A000ECA003E06FF003024021EC480AF09DFD02
:1052B0007078022847D000212320CDE9000100BFEB
:1052C000B4F92A30B4F92820B4F92610B4F924002E
:1052D0000AF0AFFB7178242004293BD05FF0000175
:1052E000CDE90001B4F93230B4F93020B4F92E1010
:1052F000B4F92C000AF09DFB7178292006292DD0E5
:105300005FF00001CDE90001B4F96630B4F9642022
:10531000B4F96210B4F960000AF08BFBB4F85C00D9
:1053200000225B2180B20AF026FCB4F85E00002265
:105330005D2180B20AF01FFCB4F934006FF00D0556
:10534000FF280FD017E0B078401CC0B22321CDE970
:105350000010B5E7B178491CC9B2C1E7B178491C62
:10536000C9B2CFE7E18EFF2905D1218FFF2902D1F4
:10537000618FFF2913D0727825210B2A15D00022C6
:10538000CDE90012B4F93A30B4F93820B4F9361046
:105390000AF04FFBB4F93C00FF280AD014E02A467B
:1053A0002521AFA00AF021FDF4E7B278521CD2B259
:1053B000E6E7E18FFF2907D1B4F84010FF2903D1B8
:1053C000B4F84210FF2914D071780D2912D00022B0
:1053D0005E21CDE9001200BFB4F94230B4F940209B
:1053E000B4F93E100AF025FBB4F94400FF2802D0BE
:1053F0005AE13FE145E14BE1B3E268E3AAC107208E
:10540000E7E0ECEAEDF3F20018F3010020457468E0
:1054100065726E657420202020202020202021200D
:10542000000000002044484350EAEBE8E5EDF2209C
:10543000202020202020402000000000204950E0B3
:10544000E4F0E5F120202020202020202020202032
:105450000000000020203030302E3030302E303030
:10546000302E3030232020200000000020CCE0F13E
:10547000EAE020EFEEE4F1E5F2E820202020202011
:105480000000000020203030302E3030302E303000
:10549000302E3030242020200000000020D8EBFEE9
:1054A000E720202020202020202020202020202035
:1054B0000000000020203030302E3030302E3030D0
:1054C000302E3030292020200000000020CFEEF0C8
:1054D000F22EF7F2E5EDE8FF202020202020205BCF
:1054E0000000000020CFEEF0F22EE7E0EFE8F1E858
:1054F000202020202020205D0000000020436F6D30
:105500006D756E697479203C202020202020202099
:105510000000000020C0E4F0E5F1E0F220E4EBFF41
:105520002054524150204E310000000020203030E5
:10553000302E3030302E3030302E303025202020AC
:105540000000000020C0E4F0E5F1E0F220E4EBFF11
:105550002054524150204E320000000020203030B4
:10556000302E3030302E3030302E30305E20202043
:105570000000000020C0E4F0E5F1E0F220E4EBFFE1
:105580002054524150204E33000000002020303083
:10559000302E3030302E3030302E3030262020204B
:1055A0000000000020C0E4F0E5F1E0F220E4EBFFB1
:1055B0002054524150204E34000000002020303052
:1055C000302E3030302E3030302E30302A20202017
:1055D0000000000020C0E4F0E5F1E0F220E4EBFF81
:1055E0002054524150204E35000000002020303021
:1055F000302E3030302E3030302E303028202020E9
:105600000000000020CFE0F0EEEBFC20F3F1F2E030
:10561000EDEEE2EEEA202020000000002057454297
:10562000E8EDF2E5F0F4E5E9F1E0203E202020206D
:1056300000000000F821000088C0072020D3D1D24C
:10564000C0CDCEC2CAC82045746865726E6574202C
:1056500000000000C2CACB2E000000005C42000027
:1056600020202020EDE5E0EAF2E8E2E5ED20202030
:10567000200000002A465E21AFF21C000AF0B5FBB4
:10568000B2E6B178491CC9B25E22CDE90021A3E699
:10569000B4F84610FF2907D1B4F84810FF2903D108
:1056A000B4F84A10FF2914D0727826210F2A17D097
:1056B0005FF00002CDE90012B4F94A30B4F9482095
:1056C000B4F946100AF0B5F9B4F94C00FF280BD034
:1056D00016E02A462621AFF278000AF086FBF3E7AF
:1056E000B278521CD2B2E5E7B4F84E10FF2907D1C8
:1056F000B4F85010FF2903D1B4F85210FF2914D088
:1057000072782A21112A17D05FF00002CDE9001229
:10571000B4F95230B4F95020B4F94E100AF089F9B6
:10572000B4F95400FF280BD016E02A462A21AFF224
:10573000D0000AF05AFBF3E7B278521CD2B2E5E788
:10574000B4F85610FF2907D1B4F85810FF2903D137
:10575000B4F85A10FF2939D072782821132A3CD086
:105760005FF00002CDE90012B4F95A30B4F95820C4
:10577000B4F956100AF05DF9D54900204AAC0A5C2C
:105780002254401CC0B20928F9D300258DF83151AC
:105790007078B2780A2824D000233C2120460AF0F1
:1057A0002BF9CC4900200A5C2254401CC0B20328CB
:1057B000F9D38DF82B517078B278152813D00023C7
:1057C0003E214AA80AF018F901F085B92A46282195
:1057D000AFF274100AF009FBCEE7B278521CD2B2D5
:1057E000C0E70123D9E70123EAE7BBA00290C0A0EC
:1057F0000390C5A00490CAA005905046B8F11E0FB2
:1058000004D1BEF1000F01D0CB4A0592CB4A0692DB
:10581000A94201DA017103E0022F01DD80F804C022
:105820009AF9044002A800EB8401D1E9012350F861
:105830002410C3A0FCF708BCC7A00290CCA0039022
:10584000D1A00490D6A00590DBA00690E0A0079020
:10585000E5A00890EAA00990EFA00A90B748544646
:105860000B90A94201DA217103E0022F01DD84F8D7
:1058700004C094F9041002A800EB8102121D50F834
:1058800021100CCAEAA00AF081FA01200BF070F88E
:1058900094F902000022401C80B221210AF06BF929
:1058A00094F90200E84D6FF002024FF0400135F824
:1058B0001000C00702D0A1481F3801E09F481A38E5
:1058C0000AF093FA94F902006FF002024FF02301FC
:1058D00035F81000800702D598481F3801E0974836
:1058E0001A380AF082FA94F902006FF002024FF0BF
:1058F000240135F81000400702D590481F3801E018
:105900008E481A380AF071FA94F902006FF0020218
:105910004FF0260135F81000000702D587481F38E0
:1059200001E086481A380AF060FA94F902006FF034
:1059300002024FF0250135F81000C00602D57F485D
:105940001F3801E07D481A380AF04FFA94F9020036
:105950006FF002024FF05E0135F8100080067EF510
:1059600074AE76481F38A2E3B8A3BEA2C3A1C9A0F3
:10597000F5E3CE4802906038039018300490183058
:105980000590CB4806906D4807905046022F02DDE7
:1059900080F804C002E0A94200DA01719AF90440DB
:1059A00002A800EB8401D1E9012350F82410C1A022
:1059B00040E7C6A00290CBA00390D0A00490D5A051
:1059C0000590EEB1D9A00690CCA00790DDA008907C
:1059D000E2A00990C9A00A90E6A00B90EBA00C9061
:1059E000F0A00D90554AF5A0CDE90E02964EA2F119
:1059F00015004F9BD63E10901190302B04D005E03F
:105A0000F4A00690F9A0E0E7CDE90E205046A1B140
:105A1000012912D0022910D0032910D004290ED058
:105A200005290CD006290CD007290AD0082908D04E
:105A3000022F08DD80F804C008E0002105E0032102
:105A400003E0062101E0A94200DA01719AF904108D
:105A500002A800EB8102121D50F821100CCA574613
:105A6000E8A00AF093F901200AF082FFB6F87C0062
:105A70000122402180B20AF07EF802222321B6F9E9
:105A80007E0009F047FE704D012264355B212888B5
:105A90000AF071F8688801225D210AF06CF8A88884
:105AA00001227B210AF067F8E88801227D210AF0B3
:105AB00062F89BF827005D4640B1287D30B16FF059
:105AC00004022421D5A00AF090F9B3E1ACE1B5E3DA
:105AD000F612082020E3072020D0E5EBE520B931BD
