:020000040000FA
:10000000986C0010C5010000C9010000CB01000080
:10001000CD010000CF010000D10100000000000070
:10002000000000000000000000000000D3010000FC
:10003000D501000000000000D70100001BA5000052
:10004000DB010000DB010000DB010000DB01000040
:10005000DB0100004B3A0100DB0100003523010009
:10006000DB010000DB010000DB010000DB01000020
:10007000DB010000DB010000DB010000DB01000010
:10008000DB010000DB010000DB010000DB01000000
:10009000DB010000DB010000DB010000DB010000F0
:1000A000DB01000035200100DB010000DB01000066
:1000B000B1450100DB010000DB010000DB010000B5
:1000C000DB01000000F002F800F06DF80AA090E8F3
:1000D000000C82448344AAF10107DA4501D100F003
:1000E00062F8AFF2090EBAE80F0013F0010F18BF63
:1000F000FB1A43F00103184748E6030088E60300B3
:100100000A444FF0000C10F8013B13F0070408BF3D
:1001100010F8014B1D1108BF10F8015B641E05D0DB
:1001200010F8016B641E01F8016BF9D113F0080F90
:100130001EBF10F8014BAD1C0C1B09D16D1E58BF22
:1001400001F801CBFAD505E014F8016B01F8016B59
:100150006D1EF9D59142D6D37047000000230024CC
:1001600000250026103A28BF78C1FBD8520728BFC7
:1001700030C148BF0B607047642916F06B84732947
:1001800016F0A586002070471FB51AF0C7FD16F0BF
:100190008DFF0400002000211AF0AAFD401C6060C1
:1001A0001FBD10B510BD16F05CFF1146FFF7ECFF48
:1001B0000AF048FA16F08EFF03B4FFF7F2FF03BC13
:1001C00016F092FF08480047FEE7FEE7FEE7FEE76D
:1001D000FEE7FEE7FEE7FEE7FEE7FEE70348044929
:1001E000024A044B70470000C5000000982C08200C
:1001F000986C0010986A0010FEE710B518F0BEFB6E
:1002000018F05EFC18F050FC18F0CAFB18F00AFC5D
:10021000AFF30080BDE8104018F018BC10B519F01D
:10022000B5FA1AF031F919F009FBBDE8104019F0E0
:1002300081BC19F0C9B918F091BF09B1002070470D
:1002400017F046BC0020704790F900308B4200DA6E
:10025000027090F90030934200DD0170704790F910
:1002600000308B4200DA017090F90010914200DDFD
:1002700002707047B0F900308B4200DA0180B0F9AB
:100280000010914200DD02807047B0F900308B42CF
:1002900000DA0280B0F90030934200DD018070473F
:1002A00003688B4200DA02600368934200DD01605C
:1002B000704700000FB41CB5084B06AA7B44694682
:1002C0000090059816F0D9FD04460020694616F006
:1002D000E7FD20461CBC5DF814FB0000E16B01004B
:1002E00070B5064616F064FD0468054630460A22DD
:1002F000002116F0F0FD2C6070BD7047FFFFFFFF7E
:1003000030B54E482021C0F8A01100BFD0F8A01190
:100310004906FBD500F180000322C0F8842048493B
:10032000C0F828114FF00001C0F82C114FF0010364
:10033000C0F88C30434C446003604FF0AA03C360A4
:100340004FF05504C460A0F1800000BFD0F8885081
:100350006D01FBD540F8802FC360C460C0F88810E1
:10036000394A4264C0F848118168A0F180006FEA00
:1003700011618A073549D0F80C2102F0030207D039
:1003800092B3012A46D0022A4AD0032A51D13BE037
:100390002AB1012A11D0022A27D0032A49D150F8C4
:1003A000882FC2F30E02521C53000268C2F30742A8
:1003B000521CB3FBF2F2264B0CE050F8882FC2F32C
:1003C0000E02521C53000268C2F30742521CB3FBD8
:1003D000F2F2204B5A43C36FA0F18800DBB203F165
:1003E0000103B2FBF3F223E00EE050F8882FC2F3D2
:1003F0000E02521C53000268C2F30742521CB3FBA8
:10040000F2F24FF4FA43E5E7D0F80421104BD2B2F0
:10041000521C0BE0D0F804210E4BD2B2521C05E066
:10042000D0F804214FF4FA43D2B2521CB3FBF2F2DB
:100430000A6043F23A01016030BD000000C00F4085
:10044000000002084F00030048F1004114C00720DB
:1004500000093D008096980010B54FF4027010F02E
:1004600091FAFB4C207040F20A2010F08BFA607079
:100470004FF4037010F086FAA07040F20E2010F0D6
:1004800081FAE0704FF4047010F07CFA207240F2B0
:10049000122010F077FA60724FF4057010F072FAC3
:1004A000A07240F2162010F06DFAE0724FF4117055
:1004B00010F068FA207140F2462010F063FA607183
:1004C0004FF4127010F05EFAA07140F24A2010F062
:1004D00059FAE07110BD002801DA404200B27047BD
:1004E000DC4A916C936C5B1A8342FBD37047DA4908
:1004F000112008727047D948C16941F44021C16197
:10050000C16941F44011C161D5480021C1604FF477
:100510004061C164022141614FF47A7282614FF4FB
:100520004872026242620122026541600921416013
:1005300070472DE9F04F0020CA4A85B04FF4F4719E
:1005400004461454401C00B28842FADBC648017EBF
:1005500071B100214FF0140C7A2301FB03F001EB81
:1005600081039B0001EB81041BB20CEB84045BE272
:10057000804690F824004FF00205C0074FF00306B4
:100580001BD098F81500002816D0B8483227CDE9BE
:100590000204CDE90076032118233A4608460FF0FD
:1005A00080FBB348CDE90204CDE90076032118238E
:1005B000322208460FF075FBB8E0B8F97A00DFF890
:1005C0009492DFF8B0A20F27DFF8ACB2A9F10409CA
:1005D000012853DB1423002100941A460846019495
:1005E0000FF0A3FA1223012100941A460846019441
:1005F0000FF09BFA99F8000010F03C0F0BD0C106E9
:1006000011D598F81500F0B10F23CDE902A402210D
:100610001A46032013E09948CDE902040F23022172
:100620001A4603200BE010F00C0F0CD098F81500C0
:1006300048B10F23CDE902B402211A460846CDE99C
:1006400000750FF02EFB8E48406DC00716D10B23AE
:1006500000221421092000940FF04CF800235B22A3
:100660001F21092000940FF045F898F80500042395
:100670001330C1B2002209200FF094FAB8F97A00C1
:10068000022853DB142300941A46002117200194FA
:100690000FF04BFA122300941A46012118200194FE
:1006A0000FF043FA99F8010010F03C0F0BD0C1068F
:1006B00011D598F81500F0B10F23CDE902A402215D
:1006C0001A46192013E06F48CDE902040F230221D6
:1006D0001A4619200BE010F00C0F0CD098F81500FA
:1006E00048B10F23CDE902B402211A461920CDE901
:1006F00000750FF0D6FA6248406D800716D40B23C0
:1007000000221421202000940EF0F4FF0023442244
:100710001F21202000940EF0EDFF98F8050004231F
:100720001330C1B2002220200FF03CFAB8F8780054
:10073000C1464FF00A0B4FF0010800282CD000945E
:10074000142323220021322001940FF0EEF90094AB
:10075000022303221421352001940FF0E6F90094BE
:100760000223032214214F2001940FF0DEF999F89F
:1007700024004F46800710D599F8150000280BD0AB
:1007800032213B48CDE90016CDE902040A46182380
:1007900000212B200FF085FA8DE00B23002214217D
:1007A000422000940EF0A6FF002322221F214220A7
:1007B00000940EF09FFFDFF89CA0AAF1800ABAF91E
:1007C0007A00002805DA7879042300221330C1B2B8
:1007D00005E078790423C0F12200C1B20222422050
:1007E0000FF0E0F9387A1E287ED2BAF90010A1F590
:1007F000AA42553A78D097F92500052190FBF1F0EF
:10080000ADF81000B9461422002104A8FFF732FD0C
:10081000CDE900844746BDF9103020220021332065
:100820000FF083F999F925000A282FDACDE9007530
:1008300009230C2205213D200FF077F999F92500B5
:1008400002238DE8910005210FA23D20039730E09F
:10085000FC69001018C107200040024000C002409F
:10086000008001409EE9072018C0072031AE01003A
:10087000C7AE010099AF0100B7AF01005DAF010045
:1008800000C009207BAF01002025000064284FF044
:1008900009035FDACDE90075122205213A200FF035
:1008A00044F999F9250003238DE8B100FEA2052142
:1008B0003A200FF022FA00940E231B2202215C2022
:1008C00001940FF032F900231A1F08215C200094D4
:1008D0000EF010FF002304220821762000940EF071
:1008E00009FF0023272200E044E01F214320009459
:1008F0000EF000FF6FF00F0300221F21692000940B
:100900000EF0F8FE99F807004D46C0F12200C1B282
:100910000423022269200FF045F9E449474688463E
:10092000B1F9021000910420CDE901700523E0A285
:100930001621462003970FF0E0F9B8F9000064286B
:1009400025DACDE9000704230521DBA25D20CDE9EE
:10095000026725E0CDE900751822052137200FF048
:10096000E4F899F9250004238DE8D1000521D4A2EB
:1009700037209EE7BAF97A10CDE9026891FBFBF0C7
:1009800001B2CDE900180423CBA2052190E790FB2A
:10099000FBF000B28DE8D1000423C7A205215A2044
:1009A0000FF0ABF92879401CC0B2287103281CD382
:1009B0002C716879401CC0B268710D2800D36C712D
:1009C000A879401CC0B2A871202800D3AC71E87986
:1009D000401CC0B2E871112800D3EC71287A401C89
:1009E000C0B22872282800D32C7205B0BDE8F08F61
:1009F000B54DB64FED5C05EB450517F8156016547F
:100A000007EB4505401C6E781654401CAE78165412
:100A1000401CEE781654401C2E791654401C6D79FB
:100A20001554401C5B1C1BB29C42E1DC491C09B202
:100A30000429FFF691ADD8E72DE9F04FA44AD9B0CB
:100A4000052192F80080002001240DF1A80CB8F1D6
:100A5000050F03D0B8F1210F02D005E09DA000E002
:100A6000A2A02A9001200621A64D95F82460F20745
:100A700008D0A5A24CF8202000F1010001F10101ED
:100A8000C0B2C9B2B20708D5A5A24CF8202000F127
:100A9000010001F10101C0B2C9B2320606D5A6A219
:100AA0004CF82020401C491CC0B2C9B27F4B1B1F10
:100AB0001A7812F01C0F06D0A5A24CF82020401C7A
:100AC000491CC0B2C9B2794A121F527812F01C0FE9
:100AD00006D0A5A24CF82020401C491CC0B2C9B2C7
:100AE000724A0F3213786D32012BB2F9002002D016
:100AF000022B03D00AE04AB9A1A201E032B9A6A2B2
:100B00004CF82020401C491CC0B2C9B2674B1533B9
:100B10001A78552A0AD103F19902128832B9A4A28F
:100B20004CF82020401C491CC0B2C9B25A78552A42
:100B30000AD15E4AAE32528832B9A3A24CF82020C4
:100B4000401C491CC0B2C9B29A78552A0AD1574AEA
:100B5000AE32928832B9A2A24CF82020401C491C27
:100B6000C0B2C9B2DA78552A0AD1504AAE32D28818
:100B700032B9A1A24CF82020401C491CC0B2C9B215
:100B8000A34B1A7832B1A3A24CF82020401C491C78
:100B9000C0B2C9B25A7832B1A4A24CF82020401C8D
:100BA000491CC0B2C9B29A7822B1A6A2491C4CF81D
:100BB0002020C9B2AA7AAA46521CD2B22846AA72EA
:100BC000142A09D300238372427A521CD2B2427291
:100BD0008A4201D38AF80930DFF8D0900DF1080B72
:100BE00009F14C094A4699F8000092F9045092F92B
:100BF00001100BEB8507292854D0002853D0414A17
:100C00000528527D55924A4692F90220964601F0F7
:100C10006D814A4692F9043092F90120D31A0628D0
:100C200001F05482122801F06F84022801F08084C0
:100C30004A465278921E56B20D2801F09A84152821
:100C400001F0B484112801F0BE84162801F0DE847E
:100C5000412801F0F184442801F06885452801F01D
:100C60008887A9F1CC0241F27C7CB2F9082041F2DC
:100C7000D828342802F0AE84362802F0D185032823
:100C800003F084804C2803F0F2821E4A2528127D4E
:100C9000579203F001831B4A282892F81D8003F025
:100CA0002083DBE05FE1FEE32020250018C1072060
:100CB00020202020420000002020204100000000D1
:100CC0002020202500000000D6E80720D5AF010035
:100CD00027C2072020C2FBF0E0E2ED2EE7E0F0FFA4
:100CE000E420207A3A305A20000000002020CAEE8A
:100CF000EDF2F0EEEBFC20E5ECEAEEF1F2E820207C
:100D00000000000018C00720202020C0E2E0F0E82A
:100D1000FF20F1E5F2E82121212020200000000041
:100D200020C0E2E0F0E8FF20E1E0F2E0F0E5E821B9
:100D3000212120200000000020C0F1E8ECECE5F2C9
:100D4000F0E8FF20C0CAC1212121202000000000BE
:100D500020C0E2E0F0E8FF20E8F1F2EEF7EDE8EA8B
:100D6000E0204E310000000020C0E2E0F0E8FF206B
:100D7000E8F1F2EEF7EDE8EAE0204E320000000084
:100D8000C2EDE5F82EF2E5ECEF2E4E31E7E0E2FBA6
:100D9000F8E5EDE000000000C2EDE5F82EF2E5EC2C
:100DA000EF2E4E31E7E0EDE8E6E5EDE00000000073
:100DB00020202020C0E2E0F0E8FF20D1CA20B93195
:100DC000202020200000000020202020C0E2E0F0B1
:100DD000E8FF20D1CA20B9322020202000000000E6
:100DE00020202020C0E2E0F0E8FF20D1CA20B93363
:100DF000202020200000000020202020C0E2E0F081
:100E0000E8FF20D1CA20B9342020202000000000B3
:100E100065C2072020C0E2E0F0E8FF20EFF0E5E443
:100E2000EEF5F02E20B931200000000020C0E2E0F5
:100E3000F0E8FF20EFF0E5E4EEF5F02E20B93220E7
:100E40000000000020C0E2E0F0E8FF20EFF0E5E461
:100E5000EEF5F02E20B93320000000001B2803F02F
:100E6000C882FF4F482803F025831F2803F0A3837F
:100E7000202803F01285212803F03F85222803F063
:100E80008685232803F0CC85182803F03E86B2F926
:100E90007C703E280BEB870C03F071864A46527833
:100EA000521E52B23F2803F09786402804F0C480B7
:100EB000462804F07281492804F06E844A2804F020
:100EC0008E84272804F021850B2804F023851C2814
:100ED00004F04285C8461E2804F02C87372804F009
:100EE0004C87A9F5A6772A2897F8207004F07D870B
:100EF0002B2804F0C787A9F5A676DFF86493B6F926
:100F00004E60A9F13F093746761EB44609F1010645
:100F1000382804F0E287392804F0FC873A2805F0E5
:100F2000AD813B2805F0CD813C2805F07C8245460B
:100F30003D2805F0BC82082805F075830928FBD000
:100F40001328F9D01428F7D03528F5D01A28F3D073
:100F50000A2805F001842C2805F003844B2805F0AD
:100F6000078405F01BBCD1B1BE4E01297ED0BE4C1A
:100F700002297CD003297BD004297AD0052979D095
:100F80000629EED0072976D0082975D0092974D012
:100F90000A2973D00B2972D00C2971D0E1E7B3A3D1
:100FA000B2A2B2A1B1A00DF06DFD0023022219463C
:100FB0000AF116049AF816000DF073FBA08E0023B8
:100FC0000222012180B20DF06CFB208E0222002350
:100FD000114680B20DF065FBAA4800230722008865
:100FE000194680B20DF05DFBA74800230722008858
:100FF000012180B20DF055FBA44800230722008890
:10100000022180B20DF04DFBA14800230722B0F869
:101010007800032180B20DF044FB9E4800230A2291
:10102000194600780DF03DFB9B4800230A22012160
:1010300000780DF036FB994800230A22022100783F
:101040000DF02FFB964C00231322207819460DF04B
:1010500028FB60780023132201210DF022FBA078E9
:101060000023132202210DF01CFB0AE01BE05DE0CF
:10107000BEE03CE17AE187E1D0E1E3E12BE21BE372
:1010800031E3834C0023D2341122208819460DF01D
:1010900008FB60880023112201210DF002FB0023D0
:1010A000A088112260E17F4B7FA11A4683A00DF03A
:1010B000E9FC308800230422194680B20DF0F1FAD1
:1010C000844800231A4690F90000012180B20DF0F7
:1010D000E8FA6F4C0123B4340E22208800210DF071
:1010E000E0FA012360880E2219460DF0DAFA241D79
:1010F00001232088132200210DF0D3FA01236088F8
:10110000132219460DF0CDFA3C3C0A22207800212A
:101110000DF02AFC60780A2201210DF025FC002345
:1011200001220221BAF87A0005F034BB4FA34FA286
:101130004EA14EA00DF0A6FC0023208804221946E3
:101140000DF0AFFA60880023042201210DF0A9FA06
:10115000A0880023042202210DF0A3FAE0880023D6
:10116000042203210DF09DFA00232089092219464B
:101170000DF097FA60890023092201210DF091FA00
:10118000A0890023092202210DF08BFAE0890023B7
:10119000092203210DF085FA0023208A0E22194628
:1011A0000DF07FFA608A00230E2201210DF079FAFA
:1011B000A08A00230E2202210DF073FAE08A002398
:1011C0000E2203210DF06DFA0023208B1322194605
:1011D0000DF067FA608B0023132201210DF061FAF4
:1011E000A08B0023132202210DF05BFAE08B5FE25B
:1011F0001EA31EA21DA11DA00DF044FC0023208CE7
:10120000042219460DF04DFA608C002304220121BE
:101210000DF047FAA08C0023042202210DF041FAC0
:10122000E08C0023042203210DF03BFA0023208DE3
:10123000092219460DF035FA608D0023092201219B
:101240000DF02FFAA08D0023092202210DF029FABA
:10125000E08D0023092203210DF023FA208E3BE0CC
:10126000DDED07203CC2072070E807202020202069
:10127000202020202020202020202020202020206E
:101280000000000050C207204CC2072052C20720B5
:1012900098C0072038C2072039C207203AC2072069
:1012A0006BC20720C2AD010020202020202020207A
:1012B000202020202020202020202000322020203C
:1012C000202020202020202020202020202020201E
:1012D0000000000030C2072000230E2219460DF046
:1012E000E0F900230E22608E012105F055BAAFF21D
:1012F0008403AFF28802AFF28C01FBA00DF0C2FBB9
:10130000FF4C00230322208801210DF0CAF96088D8
:101310000023032202210DF0C4F90322A088002338
:1013200011460DF0BEF90023E088082219460DF0A1
:10133000B8F920890023082201210DF0B2F9608953
:101340000023082202210DF0ACF90023A0890D2210
:1013500019460DF0A6F9E08900230D2201210DF0B8
:10136000A0F9208A00230D220221BEE7E5A3EBA20B
:10137000F0A1F6A00DF086FBFA4801222821008892
:1013800080B20DF074FA05E0DEA3E4A2E9A1F6A0B4
:101390000DF078FBFA4800222121008880B20DF080
:1013A00066FAF84800224021008880B20DF05FFA0A
:1013B000F54C0122232120880DF059FA6088012282
:1013C00024210DF054FA241D0122208825210DF03E
:1013D0004EFA608801225E210DF049FAB83C0122E4
:1013E000B4F878003C2180B20DF041FA02223E218F
:1013F000B4F97A000DF072F87C340D2220780321C4
:101400000DF0B2FA6078132203210DF0ADFA052237
:1014100003219AF824000DF0A7FAA2E5DB4BDCA02B
:101420001A4611460DF02EFBDF48002303220088E8
:10143000194680B20DF035F9DC4800230322012162
:10144000007852E7AFF2DC13AFF2E012D8A1DEA0D1
:101450000DF018FBC348002308220088194680B20B
:101460000DF01FF9308800230822012180B20DF011
:1014700018F9C5480023343813224089194680B230
:101480000DF00FF90AF1240400230F221946607CA5
:101490000DF007F9D2480023132290F8290001210A
:1014A0000DF0FFF800E0B3E200230F220121207CC1
:1014B0000DF0F7F8002313220221A07C0DF0F1F8C3
:1014C000002311220221E07C0DF0EBF8002313220F
:1014D0000321207809E7AFF26C23AFF27022AFF25C
:1014E0007421C0A00DF0CEFA99F902000023401C2F
:1014F00080B2032219460DF0D4F899F90200BF4CCE
:10150000C0EBC00000EB400004EB40000023408C27
:10151000062219460DF0C5F899F902000023C0EB28
:10152000C00000EB400004EB40000E22808819460A
:101530000DF0B7F899F902000023C0EBC00000EBF2
:10154000400004EB40001322C08819460DF0A9F8B2
:1015500099F902000023C0EBC00000EB4000042218
:1015600034F8100001210DF09CF899F902000023D5
:10157000C0EBC00000EB400004EB400009224088B3
:1015800001210DF08EF899F902000023C0EBC00094
:1015900000EB400004EB40000E22008901210DF019
:1015A00080F899F902000023C0EBC00000EB400076
:1015B00004EB40001322008A01210DF072F899F922
:1015C00002000023C0EBC00000EB400004EB400031
:1015D0000422408902210DF064F899F902000023E9
:1015E000C0EBC00000EB400004EB40000922808902
:1015F00002210DF056F899F902000023C0EBC0005B
:1016000000EB400004EB40000E22C08902210DF0E7
:1016100048F899F902000023C0EBC00000EB40003D
:1016200004EB40001322408A02210DF03AF899F9A8
:1016300002000023C0EBC00000EB400004EB4000C0
:101640000422808A03210DF02CF899F9020000236E
:10165000C0EBC00000EB400004EB40000922C08A50
:1016600003210DF01EF899F902000023C0EBC00021
:1016700000EB400004EB40000E22008B03210DF034
:1016800010F899F902000023C0EBC00000EB400005
:1016900004EB40001022C08B03210DF002F899F9F1
:1016A0000200C0EBC00000EB400004EB4000008CE7
:1016B00000231322032118E651A0029056A00390A4
:1016C0005BA0049060A0059065A006906AA00790BA
:1016D0006FA03F1D08900ECF5BF825000DF0D2F9EA
:1016E00002223F21E0E067E143414E2020202020FC
:1016F000202020202020202020202020000000006A
:10170000E8ED07205374202020202020537431203E
:1017100020205374322020200000000049E12020C6
:1017200020203E2049312020202549322020205EE3
:101730000000000055E1202020203C2055312020D1
:10174000202355322020202400000000556E202048
:1017500020202820D83120202021D83220202040CD
:10176000000000004CC20720706C202020202820A0
:10177000D83120202021D832202020400000000035
:1017800048C207204AC207204CC10720C2AD010051
:101790004D2020202020202020202020202020201C
:1017A00020202020000000006AE3072067E30720D4
:1017B0004374726C20202020202020202020202014
:1017C0002020202000000000556E6563202020208E
:1017D0002020202020202020202020200000000089
:1017E00036F107204C4220202020202020202020DD
:1017F00020202020202020200000000010F00720C2
:10180000202020203F2020202020202020242023B2
:101810002040202100000000202020202020202027
:10182000202020202020204A2020206A00000000C4
:10183000202020202020202020202020202020596F
:101840002020207900000000202020682020206D2A
:101850002020202020512071205A207A00000000F2
:1018600020202073202020532020202020202043CF
:101870002020204400000000202020662020204658
:101880002020202020202063202020640000000051
:1018900020202020202020202020202020412061E6
:1018A0002042206200000000EC48B0F97A000CF001
:1018B00015FEEB4C606D002200F0010024210CF0BD
:1018C000D6FFE64D23217C3528780DF03BF8606D7E
:1018D0000022C0F3400040210CF0C9FF68782121AC
:1018E0000DF030F805F13804002220884A210CF070
:1018F000BEFF608800226A210CF0B9FFD94C00229B
:10190000592120780CF0B3FF6078002279210CF087
:10191000AEFFD54C00226821206880B20CF0A7FFF2
:10192000D24800226D21006880B20CF0A0FFD04E9A
:101930000022512130880CF09AFFCE4D00227121F7
:1019400028880CF094FF708800225A210CF08FFF39
:10195000688800227A210CF08AFFC74D00224121BD
:1019600028780CF084FFC54E0022612130780CF0FD
:101970007EFF6878002242210CF079FF7078002207
:1019800062210CF074FF2068002280B243210CF029
:101990006EFF6068002280B244210CF068FFB84CF2
:1019A00000226321206880B20CF061FF6068002291
:1019B00080B2642104F034BEB24B1A461146084688
:1019C0000DF060F8B04C20784FF000034FF00602A5
:1019D00019460CF066FE0023062201219AF81F002A
:1019E0000CF05FFEB4200EF0CDFF80B20023062283
:1019F00002210CF056FEA0880023102219460CF09C
:101A000050FEB6200EF0BEFF002380B21022ABE4E1
:101A10009EA002909148B430B0F90020B0F90200C5
:101A2000C82A05DDC82801DD9EA00BE0A3A009E0BF
:101A3000C82801DDA7A005E08848B0F97800C828CB
:101A400001DDAAA00290AFA00390B4A00490B9A0B9
:101A50000590BEA04890C3A04990C8A04A90CDA0D0
:101A60004B90D2A04C90D7A04D90E24ADBA04E9074
:101A7000137848A84E4650F823300693537850F810
:101A800023300793937850F823300893D37850F895
:101A900023300993137950F823300A93537950F87F
:101AA00023300B939279D4A350F822000C906B480A
:101AB000B0F906000BEB80000361D5A34361DAA304
:101AC0008361DFA3C361E4A30362E9A34362EEA3DE
:101AD0008362F3A3C362F8A303636A4B15334363C2
:101AE00021B1681A022804DD891C04E0002030714D
:101AF00002E0A94200DD31719AF80900052807D2F9
:101B000096F904000BEB8000001D0EC8029809E056
:101B100096F904100CEB80000BEB8101091D50F8C5
:101B2000140C0EC90CF0AEFF96F90400A0B196F9A2
:101B3000011089B1884203D1E54880F83C400BE0B0
:101B4000401A012802D0022804D005E0E04880F8BD
:101B5000284001E0DE480475DE4C0A250122B4F974
:101B600008006C2190FBF5F080B20CF080FEB4F917
:101B70000A00F0B390FBF5F000B2012240210CF016
:101B8000ADFC364C012280342321608880B20CF0F9
:101B90006EFE20880122242180B20CF068FECE4C1B
:101BA00020784FF000024FF026010CF060FE207903
:101BB00000225E210CF05BFE207A002225210CF031
:101BC00056FE207B00223C210CF051FE217E2D4848
:101BD00000222A3000EB81003E210CF082FFA08B16
:101BE00000227B210CF043FE9AF8150078B13A20D0
:101BF00000E077E10CF0D1FBB54D20242C543A20C5
:101C00000CF0CBFB2C543A200CF0C7FB2C54B34CFB
:101C10004FF4616100222068B0FBF1F080B27A21BC
:101C20000CF025FE21683C20B1FBF0F1B1FBF0F295
:101C300000FB121000225A210CF019FECC200EF0ED
:101C4000A1FE002380B2132219460CF02AFD0023C6
:101C500004221946A24804F09CBD000098C0072049
:101C600000C0092044C2072084C207209CC207206C
:101C700076C2072072C20720A0C20720A2C2072096
:101C80008CC20720C2AD0100384002402020CDE5C3
:101C9000EEEFF0E5E4E5EBE5EDEDEEF1F2FC202012
:101CA0000000000020C220F0E0E1EEF2E520C1CF0C
:101CB000D1312CC1CFD132200000000020202020C3
:101CC000C220F0E0E1EEF2E520C1CFD131202020AA
:101CD0000000000020202020C220F0E0E1EEF2E52C
:101CE00020C1CFD132202020000000002020D0E0F1
:101CF000E1EEF2E020EEF220E1E0F2E0F0E5E820B3
:101D0000000000002055E13D2020206CC22049E168
:101D10003D2020202040C020000000002055ED3D47
:101D200020202023C22049ED3D2020202024C02057
:101D3000000000002030253A305E3A302620303C4A
:101D40002F3E20202F307B200000000020C1E0F239
:101D5000E0F0E5FF204E3120202020202020202010
:101D60000000000020C1E0F2E0F0E5FF204E32204C
:101D700020202020202020200000000020C1E0F2B0
:101D8000E0F0E5FF204E33202020202020202020DE
:101D90000000000020C1E0F2E0F0E5FF204E34201A
:101DA00020202020202020200000000020C1E0F280
:101DB000E0F0E5FF204E35202020202020202020AC
:101DC0000000000020C1E0F2E0F0E5FF204E3620E8
:101DD00020202020202020200000000020C1E0F250
:101DE000E0F0E5FF204E372020202020202020207A
:101DF00000000000A6C1072020C1CFD13120202043
:101E00002020202020202020202020200000000052
:101E100020C1CFD1322020202020202020202020AF
:101E2000202020200000000020CDE0E3F0F3E7EACE
:101E3000E020202020202020202020200000000062
:101E400020D1E5F2FC20202020202020202020206E
:101E5000202020200000000020D1EFE5F6F4F3ED73
:101E6000EAF6E8E8202020202020202000000000C2
:101E700020C6F3F0EDE0EB20F1EEE1FBF2E8E92023
:101E8000202020200000000020C1E0F2E0F0E5E981
:101E9000EDFBE920E6F3F0EDE0EB20200000000090
:101EA00020D3F1F2E0EDEEE2EAE82020202020202D
:101EB000202020200000000020D1E1F0EEF120E001
:101EC000E2E0F0E8E92020202020202000000000AF
:101ED000D6E8072010F00720204002407CC20720EF
:101EE0004CC20720B4F90C00404243E6104602EB16
:101EF000400202EB0010B74A02EB800090F83D0070
:101F0000C0070ED05598E0B1B34BB4A2B9A1BFA0A1
:101F10000CF0B8FD99F902000022401C80B2232188
:101F200048E5CEEBCE00BF4D00EB400005EB400096
:101F3000828C5AB1559820B1A74BBBA2C0A1C6A0B4
:101F4000E6E7A54B1A4611460846E1E7B0F90A0054
:101F5000002803DDC6A00390CBA002E0D0A0039030
:101F6000D5A00590DAA00490DFA00690E4A0079029
:101F7000E9A00890EEA00990F3A00A90F8A00B90B9
:101F8000954815300C900BEB8100FBA1D0E90123A3
:101F9000FFA00CF077FD99F902000022401C80B2EE
:101FA00040210CF064FC99F902000A26C0EBC00045
:101FB00000EB400005EB40000122B0F9081091FB56
:101FC000F6F080B224210CF052FC99F90200C0EB2B
:101FD000C00000EB400005EB4001B1F90A00002809
:101FE00001DCB1F90C00022223210CF077FA99F9F7
:101FF00002000022C0EBC00000EB400005EB4000F7
:102000003F21B0F904000CF069FA99F902000022AE
:10201000C0EBC00000EB400005EB40007721408A98
:102020000CF025FC99F902000122C0EBC00000EB86
:10203000400005EB4000B0F90E10B0F9100041432C
:102040004FF47A7091FBF0F080B251210CF00FFC4C
:1020500099F80100082802D1D34880F83C4099F94A
:1020600002000122C0EBC00000EB400005EB400085
:102070005121C0890CF0FBFB99F902000122C0EB51
:10208000C00000EB400005EB4000B0F9141091FBDC
:10209000F6F080B23C210CF0EAFB99F90200002234
:1020A000C0EBC00000EB400005EB40003E21008A81
:1020B0000CF0DDFB99F902000122C0EBC00000EB3F
:1020C000400005EB40005B21C08A73E4B7484F46EF
:1020D000BEF1000F406D05D0C0F34000BEF1010F0E
:1020E00003D006E000F0010003E0BAF87A20012AEC
:1020F00002D048B1AEA008E0B9A20292BEA20392FB
:10210000354AB1A0049228E0C1A0F20701D0C6A2CE
:1021100012E0CB4A12F80E20D60601D5C9A20BE078
:10212000160701D5CDA207E0560701D5D1A203E0DD
:1021300012F03C0F01D1D5A20292DAA2C04E039256
:10214000DEA2B61C049216F80E200AB1E1A200E04D
:10215000E6A20592204A15320692002B01DCA94224
:1021600000DA397197F904500BEB8502121D5BF808
:1021700025100CCA0CF086FC97F902000022401CC6
:1021800080B221210CF073FBAD4897F90210383072
:10219000012230F8110040210CF069FBA84897F9A2
:1021A00002103C30012230F8110023210CF05FFBBB
:1021B000A34897F902103430002230F8110024218E
:1021C0000CF055FB7878022844F0E882764880F8D5
:1021D0003C4097E1FCED0720C2AD0100202020200B
:1021E000EDE520EFEEE4EAEBFEF7E5EDE020202060
:1021F000202000002020202020C1E0F2E0F0E5FFB8
:1022000020B9232020202020202000002020202072
:10221000202020C0C2C0D0C8DF21202020202020C4
:102220002020000010F00720202020202020202047
:1022300020202020202020202020202020200000DE
:102240002020202020EDE520EFE5F0E5E4E0FEF29F
:10225000F1FF2020202000002020D1E8E3EDE0EB7A
:10226000FB20F2E5EBE5ECE5F2F0E8E820200000E9
:1022700020202020E7E0F0FFE6E0E5F2F1FF20205B
:1022800020202020000000002049E7E0F03D202031
:10229000202020202023C02020202020000000001B
:1022A000202020F0E0E7F0FFE6E0E5F2F1FF20205B
:1022B00020202020000000002049F0E0E7F03D2031
:1022C000202020202023C0202020202000000000EB
:1022D0002055E1E0F2203D2020202024C2202020B3
:1022E00020202020000000002074E1E0F2203D20AA
:1022F0002020203FB043202020202020000000008C
:1023000020534F4320203D202020207725202020CF
:1023100020202020000000002043E1E0F2203D20AA
:1023200020202051C02AF72020202020000000007B
:1023300020534F4820203D202020203E25202020D3
:10234000202020200000000020496D6178203D20E1
:102350002020203C412020202020202000000000C0
:102360002052425420203D202020205BF7202020B6
:10237000202020200000000020202020202047597D
:10238000465034383735202020202020000000001F
:102390002020202020C1C0D2C0D0C5DF204E402048
:1023A0002020202000000000D6E8072000C00920DF
:1023B00020202020C1CFD12120C2DBCACBDED7C54F
:1023C000CD202020000000002020202020202020E0
:1023D000C1CFD1322020202020202020000000006A
:1023E00020202020CED2D1D3D2D1D2C2D3C5D22068
:1023F00020202020000000002020C220D1D2D0D3F5
:10240000CAD2D3D0C520C8C1DDCF20200000000033
:1024100020202020C1CFD12120C2CACBDED7C5CDFC
:10242000202020200000000020E0E2E0F0E8FF2073
:10243000F1E5F2E8202020202020202000000000EC
:1024400014C1072020E0E2E0F0E8FF20EFE5F0E52E
:10245000E3F0E5E2202020200000000020E0E2E0A0
:10246000F0E8FF2055E2FBF53C55ECE8ED2020209C
:102470000000000020E0E2E0F0E8FF2055E2FBF57C
:102480003E55ECE0EAF120200000000020F1EEF1E2
:10249000F2EEFFEDE8E5202D20EDEEF0ECE020205F
:1024A000000000002055E8F1F2203D2020202040CF
:1024B000C220202020202020000000002049E8F138
:1024C000F2203D2020202023C0202020202020207A
:1024D0000000000020C4D220EDE5E8F1EFF0E0E2DA
:1024E000E5ED202020202020000000002074E8F1ED
:1024F000F2203D20202024B0432020202020202036
:102500000000000004F04AB99AA3A0A2A5A1ABA0C4
:102510000CF0B8FAAF480122212180F83C40AE4CC3
:10252000608880B20CF0A3F90122402120881EE0CF
:102530005546F00719D0559808B1A8A000E0AC485E
:102540008CA3ACA2B1A102900CF09CFAA14805F1B9
:102550004805002280F83C40A888232180B20CF076
:1025600086F901224021288801E0AEA0E8E780B288
:10257000D6E4B2A00290B7A00390BCA004909C48FF
:1025800015300590022B02DD89F8046003E0A942B2
:1025900001DA89F8041099F90410BAA00BEB810252
:1025A000121D5BF821100CCA03F0D0B9B8F1210F4D
:1025B00007D0BAA08E4B0146029003F11502BDA0D0
:1025C000F2E7C2A0F6E7C7480290C7A0039031B176
:1025D000012908D002290AD003290CD00FE0C8A095
:1025E0000290CDA00AE0D2A00290D7A006E0DCA025
:1025F0000290E1A002E0DAA00290E5A00390034679
:10260000B9A1B848029A04F0B0B800BFB8F1050FFC
:1026100010D0A2A0764B024602901533E2A1E8A0AA
:102620000CF030FA01200DF01FF800222121BAF839
:1026300072009CE7A5A0EDE7E1A3E1A2E0A1E0A084
:102640000CF020FA04208AF81C009AF81F000128D8
:1026500022D0022822D003282DD006282DD00C28E5
:102660002DD0DDA0029062488AF81C4015300390FE
:1026700099F90410E4A00BEB810253685BF8212068
:10268000DBA10CF0FFF999F9010099F904108842D7
:1026900017DA89F804001AE0E1A000E0E6A0029051
:1026A000EBA00390F0A00490AFF67810059050488E
:1026B00015300690DCE7F2A0F1E7F7A0EFE7FCA009
:1026C000EDE7411A012902DD411E89F804100228B4
:1026D00001D189F8040002200CF0C6FF3E4C002214
:1026E000803C2521608A0CF0C2F800225E21A08A7D
:1026F0000CF0BDF800222621E08A0CF0B8F8002288
:102700003C21208B0CF0B3F83948618B2A3000EB68
:10271000810000223E210CF0E4F900227B21A08BF5
:102720000CF0A5F800222821E08BCEE440F60260F0
:102730000EF028F901B25046AAF84E10402902DDE9
:102740000021A0F84E10BAF94E0070B101280DD04A
:1027500002280CD00CDD99F9011099F9042091425E
:1027600007DA00BF89F80410DEE1ADE1B1E1BBE1B9
:10277000E8E1D4E120C2FBF5EEE420202020202077
:102780002020202020202020000000002049EDE013
:10279000E3F03D2020202020202040412020202048
:1027A000000000002055EDE0E3F03D202020202037
:1027B000202021C2202020200000000020202020F6
:1027C0002020CDC0C3D0D3C7CAC0202020202020C5
:1027D00000000000D6E8072018C10720202020C0F4
:1027E000C2C0D0C8DF20D1C5D2C8212121202000FD
:1027F000C2AD01002046F1E5F2E83D202020202076
:10280000202040C3F6202020000000002055F1E5E4
:10281000F2E83D2020202020202023C2202020205C
:102820000000000020202020202020D1C5D2DC2064
:1028300020202020202020200000000020CAEEEDD3
:10284000F2F0EEEBFC20E5ECEAEEF1F2E8202020DD
:102850000000000020C2FBF0E0E2EDE8E2E0FEF95B
:10286000E8E920E7E0F0FFE40000000020C0E2F229
:102870002EE2FBF0E0E2EDE8E22E20E7E0F0FFE4FC
:102880000000000020202020D1CFC5D6D4D3CDCA4F
:10289000D6C8C820202020200000000020C2FBEA6B
:1028A000EBFEF7E5ED202020202020202020202016
:1028B000000000002020CACECDD2D0CECBDC20C577
:1028C000CCCACED1D2C820200000000020C2EAEB42
:1028D000FEF7E5ED202020202020202020202020B1
:1028E00000000000EC0C0000202020EDE5E2EEE707
:1028F000ECEEE6E5ED212121202020200000000063
:1029000020202020CEF2F1F3F2F1F2E2F3E5F22002
:102910002020202000000000202020202020E1E0B6
:10292000F2E0F0E5FF202020202020200000000021
:1029300020202020202020C0E2E0F0E8FF202020FE
:102940002020202000000000202020202020202007
:10295000F1E5F2E8202020202020202000000000C7
:10296000202020202020C1E0F2E0F0E5FF20202000
:10297000202020200000000020202020F0E0E7F0B0
:10298000FFE6E0E5F2F1FF2020202020000000001B
:102990002020202020E7E0F0FFE6E0E5F2F1FF2034
:1029A000202020200000000020E4EBE8F2E5EBFC12
:1029B000EDEEF1F2FC202D202021F72E000000008A
:1029C00020C2DBD0C0C2CDC8C2C0DED9C8C920C7B2
:1029D000C0D0DFC40000000020E2FBEAEBFEF7E518
:1029E000ED2020202020202020202020000000009A
:1029F000C2DBD0C0C2CDC8C2C0DED9C8C920C7C0E2
:102A0000D0DFC42000000000202020C0C2D2CECCE5
:102A1000C0D2C8D7C5D1CAC8C92020200000000034
:102A200020F0E0E720E220ECE5F1FFF62020202076
:102A3000202020200000000020F0E0E720E22032EB
:102A400020ECE5F1FFF6E02020202020000000002F
:102A500020E4EBE8F2E5EBFCEDEEF1F2FC202020C7
:102A600028F72E200000000020EEF7E5F0E5E4ED69
:102A7000EEE520E2EAEBFEF7E5EDE8E50000000018
:102A800020F0E0E720E2203320ECE5F1FFF6E02043
:102A9000202020200000000020F0E0E720E220EFCE
:102AA000EEEBE3EEE4E020202020202000000000F8
:102AB00020F0E0E720E220E3EEE4202020202020A8
:102AC0002020202000000000EC4BEDA103F11502B6
:102AD00003E0EA4AF0A31532F5A1FBA00BF0D2FF08
:102AE000002089F804002DE099F9010099F90410FB
:102AF000884202DA89F8040004E0411A022901DD63
:102B0000801EF7E799F9040010B1012803D019E0FD
:102B1000DA4B153311E0D94ADFA315320EE08A1AD9
:102B2000022A01DD891E1DE699F90410421E914218
:102B3000F1D0801E8142EBD0E9A3EFA2DCA1E2A09C
:102B40000BF0A0FF01200CF08FFD99F80400282164
:102B50000CF073F899F804005B21401CC0B20CF033
:102B60006CF899F804007B21801CC0B20CF065F869
:102B7000C8E4C24B1A46114608460BF083FF4FF4D7
:102B800060600DF0FFFE99F902104D464A42402167
:102B900000B20BF064FF400100F5806080B2064691
:102BA00053A90DF06CFF57A9301D0DF068FF4FA918
:102BB00006F108000DF063FF50A906F10C000DF0BE
:102BC0005EFF51A906F110000DF059FF52A906F160
:102BD00014000DF054FF56A906F118000DF04FFF38
:102BE0009DF84C01552808D0502843D042287DD06C
:102BF00053287CD046287BD084E49DF84E0152288F
:102C0000B6D1C3A3C8A2CEA1D3A00BF03BFF9DF8C1
:102C10004001002240210BF02AFE9DF841010022D4
:102C200023210BF024FE9DF84201002224210BF009
:102C30001EFE9DF83E01002225210BF018FE9DF896
:102C40003C0100225E210BF012FE9DF83D01401E6A
:102C50000C2801D38DF83D4188489DF83D112A305C
:102C600000EB8100002228210BF03BFF0020AAF896
:102C70004E0047E49DF84E014128BDD1BC4802906A
:102C8000A3A003909DF84401412803D19DF845017C
:102C900041284FD001220021281DFDF7E0FAB5A000
:102CA0000490BAA00590BFA0069095F904600BEBC4
:102CB0008600001D0EC85BF826000BF0E3FE9DF8B1
:102CC000480100223E210BF0D2FD9DF8490100226F
:102CD0003D210BF0CCFD9DF84A01002229210BF08B
:102CE000C6FD00229DF846015B2102E03FE075E24F
:102CF00017E30BF0BCFD9DF8440100223C210BF0D2
:102D0000B6FD9DF84501401E0C2801D38DF84541C4
:102D10005A489DF845112A3000EB810000225D21C0
:102D20000BF0DFFE9DF858019DF8591100EB0120D2
:102D300080B24CE0A1A00490A6A002AD034605908D
:102D400007CD0BF09FFEBAF84C0000222B2180B279
:102D5000FBE200BF49489DF83D112A3000EB81009D
:102D6000002228210BF0BDFEAAF84E4000E79DF896
:102D70004E01432809D053282CD05A287AD0052652
:102D8000572878D04B2877D0F2E6AFF25C4002901B
:102D900096A003905EA004909DF84401412803D1C1
:102DA0009DF84501412808D001220021281DFDF78A
:102DB00056FA70A0059075A046E180A04FE100BFD3
:102DC0008DF845414BE000BF9DF84D01401C0022AD
:102DD0002B21BAE2AFF2A84002908AA003904CA047
:102DE00004909DF84401412803D19DF845014128F4
:102DF000E3D001220021281DFDF731FA5DA00590E6
:102E000062A0069095F904600BEB8600001D0EC8C9
:102E10005BF826000BF036FE9DF8480100223E21AB
:102E20000BF025FD9DF8490100223D210BF01FFD0F
:102E30009DF84A01002229210BF019FD9DF8460159
:102E400000225B210BF013FD9DF8440100223C2180
:102E50000BF00DFD9DF84501401E0C28B0D207482F
:102E60009DF845112A3000EB810000225D210BF016
:102E700038FEA9E7D2E0F9E03AE10000C2AD010076
:102E800020C6F3F0EDE0EB20EFF3F1F2202020205C
:102E9000202020200000000020CEF7E8F1F2E8F228
:102EA000FC20E6F3F0EDE0EB202020200000000005
:102EB000202820202020202020202020202020200A
:102EC0002020202000000000202020C6D3D0CDC02C
:102ED000CB20D1CEC1DBD2C8C92020200000000009
:102EE000207B202020202020202020202020202087
:102EF0002020202000000000205B20202020202017
:102F00002020202020202020202020200000000041
:102F100020203025282020305E2030403A30233ACF
:102F2000302420200000000020202020202020200D
:102F3000C8C1DDCF2020202020202020000000005C
:102F4000202020E8EBE820E2EAEBFEF7E5EDE8E5FB
:102F5000202020200000000020202020CFE5F0E5E8
:102F6000E7E0E3F0F3E7EAE02020202000000000A3
:102F7000080D0000202020202020F3F1F2F0E0EDE9
:102F8000E5EDE02020202020000000002020305B24
:102F90005D2020303C20303E3A303D3A3029202020
:102FA00000000000202020202055ECE8ED3D2020EE
:102FB0002BC22020202020200000000020202020E4
:102FC000EDE520F3F1F2F0E0EDE5EDE0202020204A
:102FD00000000000202020202055F1E5F2E83D20EF
:102FE000202BC220202020200000000020202020B4
:102FF0002020E1E0F2E0F0E5E82020202020202061
:103000000000000020E0F1E8ECECE5F2F0E8FF2041
:10301000E1E0F2E0F0E5E82000000000CDA0029041
:10302000D2A00390D7A004909DF84401412803D179
:103030009DF84501412811D001220021281DFDF7EE
:103040000EF9D6A00590DBA0069095F904500BEB85
:103050008501091D5BF825000EC9DBE6DBA002AD8A
:103060000346059007CD0BF00DFDADE6DDA0029007
:10307000E2A00390E7A00490C2A00590EBA0069008
:10308000F0A00790F5A00890FAA00990FFA00A9080
:1030900095F904500BEB8501091D5BF825000EC95D
:1030A00040E000BF8DF83D4168E000BF9DF845015C
:1030B000002205EB800077210BF013FDBDF85C01C9
:1030C00001227A210BF0D3FB9DF83F019DF84311BB
:1030D000012200EB012080B23C210BF0C8FBBDF8BF
:1030E0005E0101223E210BF0C2FBAAF84E603FE5D3
:1030F000EC480290C1A00390C6A00490A1A0059046
:10310000E9A00690CFA00790D4A00890ECA0099069
:10311000F1A00A9095F904700BEB8700001D0EC812
:103120005BF827000BF0AEFC9DF84D010022401C1F
:1031300021210BF09CFB9DF84001002240210BF067
:1031400096FB9DF84101002223210BF090FB9DF896
:103150004201002224210BF08AFB9DF83E0100224F
:1031600025210BF084FB9DF83C0100225E210BF031
:103170007EFB9DF83D01401E0C2893D29DF83D0139
:10318000DB4D002205EB800028210BF0AAFC9DF806
:103190004801002269210BF06AFB9DF849010022D9
:1031A0006C210BF064FB9DF84A01002273210BF0A7
:1031B0005EFB9DF84601002271210BF058FB9DF843
:1031C0004401002272210BF052FB9DF84501401E84
:1031D0000C28FFF46BAF8DF8454167E7C5A002905E
:1031E0009DF84E014C2806D0542806D0552806D00C
:1031F000752806D007E0C5A004E0CAA002E0CFA071
:1032000000E0D4A00390AFF2F82004909DF84401B0
:10321000412803D19DF84501412879D001220021A0
:10322000281DFDF71CF8AFF2B4200590AFF2A420E2
:10323000069095F904600BEB8600001D0EC85BF844
:1032400026000BF01FFC9DF8480100223E210BF0E8
:103250000EFB9DF8490100223D210BF008FB9DF873
:103260004A01002229210BF002FB9DF846010022B1
:103270005B210BF0FCFA9DF8440100223C210BF08D
:10328000F6FA9DF84501401E0C2801D38DF8454102
:103290009DF845119648002200EB81005D210BF05E
:1032A00020FC00BF9DF84D010022401C2B210BF09B
:1032B000DEFA9DF84001002240210BF0D8FA9DF87B
:1032C0004101002223210BF0D2FA9DF84201002295
:1032D00024210BF0CCFA9DF83E01002225210BF0B1
:1032E000C6FA9DF83C0100225E210BF0C0FA9DF861
:1032F0003D01401E0C2801D38DF83D419DF83D1144
:103300007B48002200EB8100282103F082B8FFE710
:10331000AFF2583002AD0346059007CD0BF0B2FB7B
:10332000C0E7AFF6F410029090A00390AFF22040F7
:103330000490944802AD0346059007CD0BF0A2FB24
:103340009DF84D010022401C21210BF090FA9DF8C0
:10335000400119E1202020C2FBF0E0E2EDE8E2E0CC
:10336000FEF9E8E920202020000000002020202095
:10337000202020E7E0F0FFE4202020202020202053
:10338000000000002030252F2820202F305E203024
:10339000403A30233A302420000000002020202032
:1033A0002020E7E0E2E5F0F8E5ED202020202020D5
:1033B0000000000020305B2F5D20202F303C2030AB
:1033C0003E3A303D3A3029200000000020202020E5
:1033D000EDE520E7E0E2E5F0F8E5ED202020202013
:1033E0000000000020202020202020D0E0E7F0FF77
:1033F000E420202020202020000000002020202089
:10340000202020E1E0F2E0F0E5E82020202020204C
:103410000000000020CDE0F7E0EBEE20202020208F
:10342000202020202020202000000000202020201C
:1034300020202020202055E1E0F23D20203CC22029
:103440000000000020CAEEEDE5F62020202020201C
:103450002020202020202020000000002030712F7C
:103460007720202F30722030693A306C3A30732048
:10347000000000002020202020202020202055E1D6
:10348000E0F23D20203EC22000000000202020204D
:10349000CEF2E4E0EDEE202020207AE02AF72E2084
:1034A00000000000EC0C0000202020202020202024
:1034B0002055E1E0F23D20203CC220200000000029
:1034C00020202020202020202055E1E0F23D202057
:1034D0003EC220200000000020A8ECEAEEF1F2FC41
:1034E00020202020207AE02AF72E20200000000053
:1034F000ECAD0100202020C0E2E0F0E8FF20C1CFC9
:10350000D1204E2B20202020000000002020202051
:1035100020EEF2EAEBFEF7E8EBF1FF20202020207E
:1035200000000000202020202020EFE5F0E5E3F05F
:10353000E5E220202020202000000000202020E7BD
:10354000E0E2FBF8E5EDEE2055E2FBF52E20202031
:1035500000000000202020E7E0EDE8E6E5EDEE20A9
:1035600055E2FBF52E2020200000000020EFF0E5C2
:10357000E4EEF5F0E0EDE8F2E5EBFF20B9212020E4
:10358000000000006C120000002240210BF06FF9D7
:103590009DF84101002223210BF069F99DF84201B9
:1035A000002224210BF063F99DF83E010022252121
:1035B0000BF05DF99DF83C0100225E210BF057F9FC
:1035C0009DF83D01401E0C28FFF4C4AB8DF83D4131
:1035D000FFF7C0BBA2F5B850883801D194A05AE0DB
:1035E000624501D198A056E0424501D19CA052E02D
:1035F000A2F59050CC3801D19FA04CE0A2F5B85074
:103600007A3801D1A2A046E0A2F5B850753801D1B0
:10361000A5A040E0A2F59050CA3801D1A8A03AE098
:10362000A2F59050C53801D1ABA034E040F6781037
:10363000824201D1AEA02EE040F66C118A4201D147
:10364000B1A028E0A2F59053E83B01D1B4A022E05C
:10365000A2F5B853983B01D1B7A01CE0A2F5905356
:10366000D43B01D1BAA016E0A2F5B853843B01D1F6
:10367000BDA010E0A2F51063923B01D1C0A00AE00A
:10368000A2F51063793B01D1C3A004E08242D1D0FE
:103690008A42D5D0C6A00290CBA00390D0A00490BF
:1036A000D5A00590DAA00690DFA00790E4A00890CE
:1036B000E9A00990EEA00A90F3A00B90F8A00C905E
:1036C000AFF650703F1D0D900ECF4E465BF82500B3
:1036D0000BF0D8F93079082802D1F74880F83C403F
:1036E000F64CB4F90A00202805DA0022212180B224
:1036F0000BF0BDF805E04FF0FF322121F0A00BF0F8
:10370000F0F9B4F90C000D2805DA0022402180B24E
:103710000BF0ADF805E04FF0FF324021E8A00BF0D0
:10372000E0F9B4F90E00642805DA0022232180B202
:103730000BF09DF805E04FF0FF322321E0A00BF0E5
:10374000D0F9DE4DDF4C8035286AA04206DB6FF0F1
:1037500004023F21DCA00BF0C4F903E000223F216A
:103760000AF00BFF00222B2109200BF080F8002229
:10377000282105200BF07BF8686AA04206DB6FF079
:1037800004022921D0A00BF0ACF903E0002229218A
:103790000AF0F3FE686AA04206DB6FF004022921FA
:1037A000C9A00BF09EF903E0002229210AF0E5FEF2
:1037B000A86AA04206DB6FF004023C21C2A00BF015
:1037C00090F903E000223C210AF0D7FEE86AA0420B
:1037D00006DB6FF004023E21BBA00BF082F903E090
:1037E00000223E210AF0C9FE6FF0030422465B214D
:1037F000B7A00BF076F922462421B5A00BF071F9A1
:1038000022462521B2A00BF06CF922465E21B0A021
:103810000BF067F922462621ADA00BF062F9B1E268
:10382000A64EA2F5B850883801D101A0BBE155E100
:10383000202020C8C1DDCF3232302F36302D323437
:103840004120202000000000202020C8C1DDCF3210
:1038500032302F36302D3132412020200000000040
:10386000202020C8C1DDCF3232302F34382D323401
:103870004120202000000000202020C8C1DDCF32E0
:1038800032302F34382D313241202020000000000A
:10389000202020C8C1DDCF3232302F36302D3130DC
:1038A0004120202000000000202020C8C1DDCF32B0
:1038B00032302F36302D35412020202000000000EE
:1038C000202020C8C1DDCF3232302F34382D3130A6
:1038D0004120202000000000202020C8C1DDCF3280
:1038E00032302F34382D35412020202000000000B8
:1038F000202020C8C1DDCF3232302F32342D323477
:103900004120202000000000202020C8C1DDCF324F
:1039100032302F32342D313241202020000000007F
:10392000202020C8C1DDCF3232302F34382D343042
:103930004120202000000000202020C8C1DDCF321F
:1039400032302F36302D343041202020000000004E
:10395000202020C8C1DDCF3232302F34382D323014
:103960004120202000000000202020C8C1DDCF32EF
:1039700032302F36302D3230412020200000000020
:10398000202020C8C1DDCF3232302F32342D3530E7
:103990004120202000000000202020C8C1DDCF32BF
:1039A00032302F32342D32354120202000000000EB
:1039B000202020D2E8EF20EDE5E8E7E2E5F1F2E5AE
:1039C000ED20202000000000C4E0F2E020E8E7E362
:1039D000EEF22E2030212F30402F30230000000047
:1039E000F8E0F1F1E82020202020532F4E30303035
:1039F00030303F2000000000D3CAD33230322E2BAB
:103A00002820532F4E303030303029200000000065
:103A1000CFCE202020202020202076202020205BB8
:103A20002020202000000000C1CFD131202D2020F7
:103A30002020532F4E30303030303C20000000002A
:103A4000C1CFD132202D20202020532F4E303030B6
:103A500030303E200000000052533233322020200C
:103A6000202020762020202420202020000000007C
:103A700043414E20504448202D20207620202025F0
:103A8000202020200000000043414E2053444820C5
:103A90002D2020762020205E202020200000000005
:103AA00045746865726E65742D202076202020266E
:103AB0002020202000000000D6E8072098C0072022
:103AC0002A2A000040420F002A2A2A2A2A2A000015
:103AD0002D2D2D2D2D2D2D2D2D000000624502D1D7
:103AE000AFF29C205FE0424502D1AFF28C205AE059
:103AF000A2F59050CC3802D1AFF2842053E0A2F569
:103B0000B8507A3802D1AFF278204CE0A2F5B85024
:103B1000753802D1AFF2702045E0A2F59050CA3856
:103B200002D1AFF264203EE0A2F59050C53802D138
:103B3000AFF25C2037E0A2F51060783802D1AFF226
:103B4000502030E0A2F510606C3802D1AFF248206E
:103B500029E0A2F59050E83802D1AFF23C2022E0F3
:103B6000A2F5B8508E3801D1F5A01CE0A2F5905016
:103B7000D43802D1AFF2282015E0A2F5B8507F3832
:103B800001D1F5A00FE0A2F51060923802D1AFF29A
:103B9000102008E0A2F51060793802D1AFF20820B9
:103BA00001E0AFF2F4100290AFF2E4100390AFF234
:103BB000D0100490EEA00590AFF294100690AFF2F2
:103BC00080100790F0483F1D08900ECF5BF825004D
:103BD0000AF058FFB6F90A003546202805DA002217
:103BE000212180B20AF043FE06E04FF0FF3221218E
:103BF000AFF234100AF075FFB5F90C000D2805DAA4
:103C00000022402180B20AF032FE06E04FF0FF327F
:103C10004021AFF254100AF064FFB5F90E00642899
:103C200005DA0022232180B20AF021FE06E04FF0DF
:103C3000FF322321AFF278100AF053FFD34DD44E58
:103C4000286AB04207DB6FF004023F21AFF2881010
:103C50000AF047FF03E000223F210AF08EFC002219
:103C60002B214FF461700AF002FE0022282105206A
:103C70000AF0FDFD686AB04207DB6FF004022921FB
:103C8000AFF2BC100AF02DFF03E0002229210AF058
:103C900074FCA86AB04207DB6FF004023C21AFF26B
:103CA000D8100AF01EFF03E000223C210AF065FC58
:103CB000E86AB04207DB6FF004023E21AFF2F81071
:103CC0000AF00FFF03E000223E210AF056FC99F9AA
:103CD00004004946032802D14A78092A13D099F9E9
:103CE0000110A1B1012915D002291FD0032925D027
:103CF00004292BD005292ED0062934D0072938D005
:103D0000082939D03EE0A34880F83C403AE078BB2F
:103D1000142238E0022835DAC0F10100C0B20222D4
:103D20005FF00C010AF0F0FE02F038BD022829DA3B
:103D3000C0F101000222C0B20F21F3E7022821DA0C
:103D4000C0F101000222C0B21221EBE7032819DA08
:103D5000C0F1020012E0042814DAC0F103000622C8
:103D6000C0B20321DEE704280CDAC0F1030005E04D
:103D700008E0C0F1040001E0C0F105000A22C0B271
:103D80001146CFE7002200210846CBE782A002902F
:103D900087A003908CA0049091A0059096A0069017
:103DA0009BA00790A0A00890A5A00990AAA00A90A7
:103DB000AFA00B90B4A00C90B9A00D90BEA00E9037
:103DC000C3A00F90C8A01090CDA01190D2A01290C7
:103DD000D7A01390DCA01490E1A01590E6A0169057
:103DE000EBA01790F0A01890F5A01990FA481A903F
:103DF000FAA01B90FFA01C90022B02DD89F8046042
:103E000003E0A94201DA89F8041099F90440FFA0FF
:103E10000BEB8401D1E901235BF824100AF032FE98
:103E200001200BF021FC99F90400112851DABAF8AD
:103E300052000022401C3C21544680B20AF017FD7B
:103E4000B4F862004FF000024FF0280110B1E248D0
:103E50001F3801E0E0481A380AF043FEB4F85C006D
:103E60004FF000024FF0290108B1EEA000E0EFA0F2
:103E70000AF037FE94F8230055285FD06FF0030254
:103E80007921ECA00AF02DFE34F8540F01222121F3
:103E900080B20AF0ECFC60880122402180B20AF076
:103EA000E6FCA0880122232180B20AF0E0FC6089B0
:103EB00001225E2180B20AF0DAFCA08900222621CC
:103EC00080B20AF0D4FC608B01223E2180B20AF05D
:103ED000CEFC0AF15A0400222088242180B20AF084
:103EE000C6FC608902226A2180B20AF0C0FCA08967
:103EF00003225B2180B20AF0BAFCE08901225D2135
:103F000080B20AF0B4FC208A01227B2180B20AF040
:103F1000AEFC608A01224A2180B20AF0A8FCE08A45
:103F20000022212180B20AF0A2FC608B00227121C4
:103F300080B20AF09CFCB4F91C007FE183E1000030
:103F4000202020C8C1DDCF3232302F36302D333023
:103F50004120202000000000202020C8C1DDCF32F9
:103F600032302F36302D3135412020200000000026
:103F7000D3CAD330302B2E302820532F4E30303040
:103F800030302920000000007427000018C10720ED
:103F900040420F00D6E8072020D1F2E0EDE4E0F047
:103FA000F2EDFBE520202020202020200000000052
:103FB00020C2F0E5ECFF20E820E4E0F2E020202041
:103FC000202020200000000020D1F2F0F3EAF2F3DC
:103FD000F0E02020202020202020202000000000D1
:103FE00020CCEDE5ECEEEDE8EAE0202020202020DA
:103FF000202020790000000020CEF1EDEEE2EDEE71
:10400000E920E8F1F2EEF7ED2E204E3C0000000032
:1040100020C7E22EF1E8E3ED2E20202028202020EA
:10402000202020200000000020CEF2EAEBFEF7E581
:10403000EDE8E520F1E8E3EDE0EBE0200000000032
:104040002020E0E2E0F0E8E82020202029202020C5
:10405000202020200000000020C0CFC220E8F1F284
:10406000EEF7EDE8EAEEE22020202020000000003C
:1040700020556D61783D2020202020202021C22065
:1040800020202020000000002055E1E0F26D617842
:10409000203D20202040C2202020202000000000C1
:1040A0002055F1E8E3ED3D2020202020205EC220B5
:1040B000202020200000000020556D696E2EF1E5C3
:1040C000F2E83D202026C220202020200000000011
:1040D000205530E13D20202020202020203EC220FD
:1040E00020202020000000002049E1EA2E3D202071
:1040F00020202020206AC020202020200000000056
:104100002049E72EECE0F52E3D202020204AC0205B
:10411000202020200000000020496D61783D2020F3
:1041200020202020205D41202020202000000000B1
:10413000204B696D61783D2020202020207B2020AD
:1041400020202020000000002054E72EE2EAEB2E81
:10415000E02EF12E2021F120202020200000000060
:1041600020746D61783D2020202020202024B04341
:1041700020202020000000002045746865726E65D4
:10418000742020202020202020202020000000005B
:1041900020C2EDE5F8EDE8E520E4E0F2F7E8EAE832
:1041A0002020202000000000204D4F444255532085
:1041B000202020202020202020202020000000007F
:1041C00020C0E2E0F0E8E9EDFBE520F0E5EBE520DA
:1041D0002020202000000000D7AD010020CAE0EB25
:1041E000E8E1F0EEE2EAE820202020202020202054
:1041F0000000000020D2E5F1F22020202020202025
:10420000202020202020202000000000202020202E
:1042100020D3D1D2C0CDCEC2CAC820202020202099
:1042200000000000E0E2F2EEEC2E0000F0F3F7ED0B
:104230002E000000E2FBEAEB2E00000088B1002215
:104240005121FEF794B96FF007027921E3A00AF03B
:1042500048FCE54800227921B0F874000AF007FB19
:1042600012E66FF001025121E0A002F0D2B8E14B5A
:10427000E1A2E7A1ECA00AF005FC01200BF0F4F9A3
:10428000D94C002268343C21208880B20AF0EFFA31
:1042900000223E216088D4E7E9A00290EEA00390BE
:1042A000F3A00490F8A00590FD4806902AB1A0F173
:1042B00015029AF81B004BF82020A94202DA89F86F
:1042C000041003E0022B01DD89F8046099F9044031
:1042D000F4A00BEB8401D1E901235BF8241001F079
:1042E00035BB9AF80B005446401CC0B28AF80B004C
:1042F0000F2809D3002008F1010808F0FF01E0723F
:104300006177032900D36077EC480290E4481538C0
:104310000390607F20B1012804D0022817D003E069
:10432000E7A000E0ECA0049002ADF1A00ECD0AF0F1
:10433000A9FB99F9010060B101280FD0022812D021
:10434000032815D0042818D005281BD01EE0EEA0A5
:10435000E9E7F3495E2081F82A0017E0F0495E2082
:1043600081F82D0012E0EE495E2081F830000DE06A
:10437000EB495E2081F8330008E0E9495E2081F8CE
:10438000360003E0E6495E2081F83A00E54D2878E2
:104390004FF000024FF026010AF069FA2879002256
:1043A0005E210AF064FA287A002225210AF05FFAD9
:1043B000287B00223C210AF05AFA297EB8480022C4
:1043C000153000EB81003E210AF08BFBA88B002208
:1043D0007B210AF04CFA607D00287ED03A2009F05B
:1043E000DCFFCF4C202525543A2009F0D6FF255478
:1043F0009AE4CDA002909AF821005746552808D09B
:104400007C480390A64815380490059006903C77A8
:1044100016E097F822005528C9A0039007D07548E8
:1044200004909F48153805900690022007E0CAA026
:104430000490704805909A48153806900320387704
:10444000A94202DA89F8041003E0022B01DD89F8A1
:10445000046099F90440C6A00BEB8401D1E9012363
:104460005BF824100AF00EFB01200BF0FDF897F822
:1044700021004FF0000255284FF021010DD088484F
:10448000B0F11A000AF02DFB97F822004FF000025D
:1044900055284FF0400103D086E081481F38F1E7EE
:1044A0007F481F380AF01DFB4F4800222321B0F837
:1044B0007200C6E6B4A00290B9A00390BEA004901A
:1044C000C3A00590C8A006907C48C430079018305F
:1044D0000890CBA00990724800E0CEE30A90A94270
:1044E00002DA89F8041003E0022B01DD89F8046088
:1044F00099F90440C8A00BEB8401D1E901235BF8D2
:1045000024100AF0BFFA01200BF0AEF8387820B37F
:10451000012828D06FF004022121C5A00AF0E1FA99
:10452000787830B301282AD06FF004024021C0A06F
:104530000AF0D7FAB87840B301282CD06FF0040203
:104540002321BBA00AF0CDFAF87850B301282ED071
:104550006FF004022821B6A087E6514821216FF0B0
:1045600002021A38DAE74E4821216FF002021F38A2
:10457000D4E74B4840216FF002021A38D8E7484888
:1045800040216FF002021F38D2E7454823216FF027
:1045900002021A38D6E7424823216FF002021F3880
:1045A000D0E76FF0020228213D481A385DE66FF02F
:1045B0000202282163E3A0A0029085A003903F4857
:1045C000C4300490183005908DA0069034480790B0
:1045D000A94202DA89F804103EE139E1F7E5F0E595
:1045E000E72079F12E00000098C00720C2DBCACB7B
:1045F0002E000000742700002042415544524154CF
:104600004520202020202020203E302000000000D7
:104610002041445245535320202020202020202098
:1046200020203C20000000002020D3D1D2C0CDCEDD
:10463000C2CAC8204D4F44425553202000000000FC
:1046400020C8C1DDCF3232302F36302D3132C02D6F
:10465000312F32200000000020C8C1DDCF323230BF
:104660002F36302D3132C02D322F32200000000085
:1046700020C8C1DDCF3232302F34382D3132C02D39
:10468000312F32200000000020C8C1DDCF3232308F
:104690002F34382D3132C02D322F3220000000004F
:1046A000D7AD0100D1D2C0CDC4C0D0D2CDDBC520A2
:1046B000D3D1D22E2DCAC82000000000341D000026
:1046C000202020209A209C202D20E2FBE1EEF020EB
:1046D0002020202000000000202020BF209D202D31
:1046E00020F3F1F2E0EDEEE2EAE02020000000002D
:1046F00020D3D1D2C0CDCEC2CAC02020C2D0C5CC1A
:10470000C5CDC820000000002020202020A42020AB
:104710002D20E2FBF5EEE420202020200000000008
:10472000D6E807202040024020C0CFC22031E92037
:10473000F3F0EEE2E5EDFC20212020200000000057
:1047400020C0CFC22032E920F3F0EEE2E5EDFC20FC
:10475000402020200000000020CFE5F0E8EEE4201B
:10476000C0CFC232202020202023F72E00000000DE
:10477000202020C0CFC220C8D1D2CED7CDC8CACE2B
:10478000C22020200000000020D0E5EBE520E0E280
:104790002EB93120202020202020202100000000E0
:1047A00020D0E5EBE520E0E22EB9322020202020C9
:1047B000202020400000000020D0E5EBE520E0E2D2
:1047C0002EB93320202020202020202300000000AC
:1047D00020D0E5EBE520F1E0ECEEEAE0EBE8E1F0FB
:1047E000EEE2EAE80000000020D0E5EBE520E1E0A1
:1047F000F2E0F0E5E8202020202020280000000042
:1048000020C1CFD1312BC1CFD13220202020202078
:104810002020202000000000202020202020202018
:10482000D2C5D1D22020202020202020000000004E
:10483000D0C0C1CED72E000020D0E5EBE520E0E2CD
:10484000E0F0E8FF202020202820202000000000A9
:10485000022B01DD89F8046099F904100BEB810249
:10486000121D5BF821100CCAAFF254000AF00AF9CD
:1048700001200AF0F9FE387810B1012804D009E0CF
:1048800000222821FE4803E0FD4800222821401F85
:104890000AF027F98AF83140AAE5A94202DA89F834
:1048A000041003E0022B01DD89F80460F44BF5A24B
:1048B0001A33FAA1FFA00AF0E5F801200AF0D4FEAD
:1048C000387920B1012806D0032809D00EE0002253
:1048D0003C21EB4808E0EA4800223C21401F03E06D
:1048E00000223C21AFF2B8000AF0FBF8F7480222A0
:1048F0003A21B0F97A0001F075BAA94202DA89F8D2
:10490000041003E0022B01DD89F80460DC4BF0A207
:104910001A33F5A1FAA00AF0B5F801200AF0A4FEB6
:10492000787920B1012809D002280FD018E00022A0
:104930004021F9A00AF0D5F81E200EE00022402107
:10494000F7A00AF0CEF840F2CA3006E0002240217B
:10495000F5A00AF0C6F845F25550DC498031888050
:1049600000222421F1A00AF0BCF8D8480122B4307A
:104970003C21008809F07BFFD4480122B8303E2159
:10498000008809F074FF00222321EA48AFE0A94221
:1049900002DA89F8041003E0022B01DD89F80460D3
:1049A000B74BE5A21A33D0A1E9A00AF06BF80120B9
:1049B0000AF05AFEB87920B1012809D002280FD098
:1049C00018E000224021D4A00AF08BF81E200EE04F
:1049D00000224021D2A00AF084F840F2CA3006E05A
:1049E00000224021D0A00AF07CF845F25550B7498A
:1049F0008031C88000222421CCA00AF072F8B3488C
:104A00000122B4305B21408809F031FFAF48012218
:104A1000B8305D21408809F02AFF0022232165E09B
:104A2000D1A00290AAA00390C3A0049094481A3089
:104A30000590A94202DA89F8041003E0022B01DD97
:104A400089F8046099F90450CDA00BEB8501D1E9F8
:104A500001235BF825100AF015F801200AF004FE86
:104A6000F87920B1012809D002280FD019E00022DE
:104A70004021A9A00AF035F81E200EE000224021B6
:104A8000A7A00AF02EF840F2CA3006E0002240212A
:104A9000A5A00AF026F845F255508C49803188804F
:104AA000C88000222421A1A00AF01BF8874D012212
:104AB000B4353C21288809F0DAFE2E1D0122308809
:104AC0003E2109F0D4FE9B4800222321008880B2B9
:104AD00009F0CDFE688801225B2109F0C8FE7088CC
:104AE00001225D2109F0C3FE00222121AA4800888D
:104AF00080B209F0BCFEA94801222421008880B2BE
:104B000009F0B5FE8AF8324072E4A5A00290AAA08E
:104B10000390AFA00490B4A0059059481A300690B5
:104B2000A94202DA89F8041003E0022B01DD89F8BA
:104B3000046099F904000BEB8002121D5BF8201051
:104B40000CCAAFA009F09EFF01200AF08DFD0AF10A
:104B5000780400226088212180B209F088FE208834
:104B60000022402180B209F082FEA0880022232189
:104B700080B209F07CFE00222421E08899E4A6A0FE
:104B80000290ABA24BF82720AFA2CCF80420B4A22D
:104B9000CCF80820B8A2CCF80C20394ABAF97E40EB
:104BA0001A323C4458464BF824200BEB8404B84A94
:104BB0006260A2604A46A94201DA117102E0022B4A
:104BC00000DD167199F9044000EB8401B1A0D1E930
:104BD00001235BF82410C0E3B4A00290B9A00390B5
:104BE000BEA00490C3A00590C8A00690CDA00790D9
:104BF000D2A0089022484C461A300990A94201DA06
:104C0000217102E0012B00DD227194F90410D7A07C
:104C10000BEB810253685BF82120CEA109F032FF33
:104C200002200AF021FD94F902000022401C80B20B
:104C3000212109F01CFE94F90210D248002230F91B
:104C40001100402109F04AFCCE4994F902003039A4
:104C500031F8101081B16FF001022321AFF62C2042
:104C600009F03FFFC74994F90200243931F81010C8
:104C700021B16FF0010287E1BFE172E3C7E171E3A7
:104C8000BDAD01002049E1E0F23D202020202020A0
:104C900020202020203A41200000000020D0E5EB19
:104CA000E52020202020202020203C202020202023
:104CB0000000000020D2C5D1D220D1C0CCCECAC0C5
:104CC000CBC8C1D0CEC2CAC00000000098C0072027
:104CD0002055313D202020203CC22049313D20205C
:104CE00020203EC0000000002055F03D4020202440
:104CF0002020202020F8E8EC3D20202300000000A8
:104D00002020202020D2C5D1D220C1CFD1312020D7
:104D10002020202000000000556D696E000000007A
:104D2000556D6178000000005532300028202020A9
:104D30002429000048C207202055323D2020202091
:104D40005BC22049323D202020205DC000000000D1
:104D50002020202020D2C5D1D220C1CFD132202086
:104D600020202020000000002055F03D402020247D
:104D700020202020202020232020202100000000AF
:104D8000202020D2C5D1D220C1CFD1312BC1CFD14B
:104D900032202020000000004AC207204CC2072019
:104DA00020C1E0F2E0F0E5E92020202020202020B2
:104DB000202020400000000020C8F1F2EEF7EDE8CE
:104DC000EAEEE22020202020202020210000000008
:104DD00020C4E0F2F7E8EAEEE220F2E5ECEFE5F0DD
:104DE0002E2020230000000020D1F3F5E8F520EA72
:104DF000EEEDF2E0EAF2EEE22020202400000000D6
:104E0000202020202020D1D2D0D3CAD2D3D0C0207D
:104E1000202020200000000020C4E0F2F7E8EA2073
:104E2000F2E5ECEFE5F02E204E31202000000000EE
:104E300020D1F3F5EEE920EAEEEDF2E0EAF2204EC1
:104E4000312020200000000020D1F3F5EEE920EA17
:104E5000EEEDF2E0EAF2204E3220202000000000C9
:104E600020D1F3F5EEE920EAEEEDF2E0EAF2204E91
:104E7000332020200000000020D1F3F5EEE920EAE5
:104E8000EEEDF2E0EAF2204E342020200000000097
:104E90006C1200002020C2CDC5D8CDC8C520C4C02A
:104EA000D2D7C8CAC82020200000000020F2E5ECBC
:104EB000EFE5F0E0F2F3F0E0202020202040B043C6
:104EC0000000000020746D61782020202020202028
:104ED000202020202023B0430000000020746D69B2
:104EE0006E20202020202020202020202024B043BD
:104EF0000000000020D0E5EBE5202020202020202D
:104F000020202020205B20200000000020C7E2F3AA
:104F1000EA2020202020202020202020205D20208A
:104F20000000000020C4E8F1EFEBE5E9202020209C
:104F300020202020202820200000000020534E4D5B
:104F40005020545241502020202020202029202071
:104F500000000000202020D2C5CCCFC5D0C0D2D3C5
:104F6000D0DB204E21202020000000002020C2CDD8
:104F7000C5D8CDC8C920C4C0D2D7C8CA20202020D7
:104F800000000000A0C107202421AFF6585009F00E
:104F9000A8FD00BF94F90200F3496FF0010231F857
:104FA00010004FF05B0188B3AFF6785009F099FD1F
:104FB000ED4994F90200891D6FF0010231F81000EB
:104FC0004FF05D0170B3AFF6945000BF09F089FD5A
:104FD000E54894F902100C306FF0010230F811002E
:104FE0004FF0280100B3AFF6B45000BF09F079FDCF
:104FF000DD4994F902001231B1E0DB490022123997
:1050000031F91000232109F069FA2BE608E0D649AE
:105010000022891F31F91000242109F05FFAB9E755
:10502000D2A0C3E7D1A0D1E7D0A0DFE7CFA001F0A5
:10503000F0B9AFF60060FAE7CEA00290D3A00390DB
:10504000D8A00490AFF254100590AFF24010069033
:10505000AFF230100790AFF21C100890D7484C46C2
:105060000990A94201DA217102E0022B00DD2671CC
:1050700094F90450D2A00BEB8501D1E901235BF830
:10508000251009F0FFFC01200AF0EEFA94F9020065
:105090000022401C80B2212109F0E9FBB24994F9B9
:1050A000020034394FF00002085C4FF04001FF2845
:1050B0005FD0C9A009F015FDAB4994F90200263173
:1050C0004FF0000231F810004FF02301F0B3C2A0FE
:1050D00009F007FDA44994F902000C3931F81010C9
:1050E000A9B36FF005022421AFF6B86009F0F9FC0E
:1050F0009D4994F902002E316FF0010231F8100041
:105100004FF05B0120B3AFF6D46000BF09F0E9FCBB
:10511000954994F9020036316FF0010231F8100020
:105120004FF05D0190B3AFF6F46000BF09F0D9FC19
:105130008D4894F902103E306FF0010230F81100F2
:105140004FF0280138B3AFF6147002E013E014E01A
:105150001DE009F0C6FC844994F9020046316FF065
:10516000010231F810004FF0290100287FF461AFEF
:105170005CE79BA09EE79AA0AAE77B490022891FD3
:1051800031F91000242109F0A9F9B1E701E077A075
:10519000BCE776A0CAE775A0D7E7884C53AF49347F
:1051A00015CC15C790A0029095A003909AA00490EA
:1051B0009FA00590A4A00690A9A00790AEA008907B
:1051C000B3A00990B8A00A90BDA00B90C2A00C900B
:1051D000C7A00D90CCA00E90D1A00F90D6A010909B
:1051E000DBA01190E0A01290E5A01390EAA014902B
:1051F000EFA01590F4A05C4C1690F948F03C179085
:10520000208C20B9F6480390F648049005904F464C
:10521000A94201DA397102E0022B00DD3E7197F9F3
:105220000410F1A00BEB8102121D5BF821100CCAD7
:1052300009F028FC01200AF017FA208C20B16FF049
:1052400002022121EEA004E06FF003022121AFF65B
:10525000644009F046FC608C20B16FF002024021EE
:10526000E7A004E06FF003024021AFF6804009F0B0
:1052700038FC79782320022945D00021CDE90001AE
:10528000B4F92A30B4F92820B4F92610B4F924006E
:1052900009F04BFA79782420042938D05FF0000116
:1052A000CDE90001B4F93230B4F93020B4F92E1050
:1052B000B4F92C0009F039FA7978292006292AD086
:1052C0005FF00001CDE90001B4F96630B4F9642063
:1052D000B4F96210B4F9600009F027FAB4F85C0080
:1052E00000225B2180B209F0C2FAB4F85E0000220D
:1052F0005D2180B209F0BBFAB4F934006FF00D05FE
:10530000FF280CD014E0B978491CC9B2B6E7B978C7
:10531000491CC9B2C4E7B978491CC9B2D2E7E18EC9
:10532000FF2905D1218FFF2902D1618FFF2915D0D7
:105330007A7825210B2A12D05FF00002CDE9001205
:10534000B4F93A30B4F93820B4F9361009F0EDF96F
:10535000B4F93C00FF2803D06BE13FE254E159E18E
:105360005CE152E3CEE2000088C10720E2EAEB2EC6
:105370000000000020F2E5EAF3F92EF1EEF1F22E42
:1053800020402020202020200000000020E0E2E03B
:10539000F0E8E9EDEEE520F1EEF1F2EEFFEDE8E503
:1053A000000000002020202020202020202D20236D
:1053B000202020202020202000000000D7AD010068
:1053C0002020D1D3D5CEC920CACECDD2C0CAD220BA
:1053D0004E21202000000000EDE5E7E0ECEA2E0081
:1053E000E7E0ECEAEDF3F2002045746865726E6563
:1053F00074202020202020202020212000000000D8
:105400002044484350EAEBE8E5EDF220202020203C
:105410002020402000000000204950E0E4F0E5F1A9
:1054200020202020202020202020202000000000FC
:1054300020203030302E3030302E3030302E303092
:10544000232020200000000020CCE0F1EAE020EF43
:10545000EEE4F1E5F2E8202020202020000000000A
:1054600020203030302E3030302E3030302E303062
:10547000242020200000000020D8EBFEE720202080
:10548000202020202020202020202020000000009C
:1054900020203030302E3030302E3030302E303032
:1054A000292020200000000020CFEEF0F22EF7F29D
:1054B000E5EDE8FF202020202020205B00000000F8
:1054C00020CFEEF0F22EE7E0EFE8F1E820202020F8
:1054D0002020205D0000000020436F6D6D756E6917
:1054E0007479203C20202020202020200000000073
:1054F00020C0E4F0E5F1E0F220E4EBFF205452415B
:1055000050204E310000000020203030302E30304E
:10551000302E3030302E303025202020000000008A
:1055200020C0E4F0E5F1E0F220E4EBFF205452412A
:1055300050204E320000000020203030302E30301D
:10554000302E3030302E30305E2020200000000021
:1055500020C0E4F0E5F1E0F220E4EBFF20545241FA
:1055600050204E330000000020203030302E3030EC
:10557000302E3030302E3030262020200000000029
:1055800020C0E4F0E5F1E0F220E4EBFF20545241CA
:1055900050204E340000000020203030302E3030BB
:1055A000302E3030302E30302A20202000000000F5
:1055B00020C0E4F0E5F1E0F220E4EBFF205452419A
:1055C00050204E350000000020203030302E30308A
:1055D000302E3030302E30302820202000000000C7
:1055E000742700006C12000020D3D1D2C0CDCEC2EF
:1055F000CAC82045746865726E657420000000009A
:10560000C2CACB2E000000002A462521FFA009F0C7
:1056100068FA9DE6BA78521CD2B28FE6E18FFF2974
:1056200007D1B4F84010FF2903D1B4F84210FF2984
:1056300013D079780D2916D000225E21CDE9001211
:10564000B4F94230B4F94020B4F93E1009F06DF8D5
:10565000B4F94400FF280DD018E02A465E21EBA0E3
:1056600009F03FFAF4E7B978491CC9B25E22CDE9E6
:105670000021E5E7B4F84610FF2907D1B4F8481037
:10568000FF2903D1B4F84A10FF2914D07A782621D3
:105690000F2A16D05FF00002CDE90012B4F94A30AB
:1056A000B4F94820B4F9461009F03FF8B4F94C00B9
:1056B000FF280AD015E02A462621D4A009F011FAC5
:1056C000F4E7BA78521CD2B2E6E7B4F84E10FF29DC
:1056D00007D1B4F85010FF2903D1B4F85210FF29B4
:1056E00013D07A782A21112A15D00022CDE9001290
:1056F000B4F95230B4F95020B4F94E1009F015F84D
:10570000B4F95400FF280AD015E02A462A21BFA088
:1057100009F0E7F9F4E7BA78521CD2B2E6E7B4F838
:105720005610FF2907D1B4F85810FF2903D1B4F857
:105730005A10FF2924D07A782821132A26D0002253
:10574000CDE90012B4F95A30B4F95820B4F9561022
:1057500008F0EBFFB24A002053A9135C0B54401C25
:10576000C0B20928F9D300208DF855017878BA78AD
:105770000A280FD000233C2153A808F0B9FF33E3D7
:105780002A462821A1A009F0ACF9E3E7BA78521C17
:10579000D2B2D5E70123EEE7A2A00290A7A0039022
:1057A000ACA00490B1A005904846BEF11E0F03D1F5
:1057B000559A0AB1B34A0592B34A0692A94201DA50
:1057C000017102E0022B00DD067199F90440AFA0DF
:1057D0000BEB8401D1E901235BF82410B6E0B1A002
:1057E0000290B6A00390BBA00490C0A00590C5A0F5
:1057F0000690CAA00790CFA00890D4A00990D9A085
:105800000A90A1484C460B90A94201DA217102E0AE
:10581000022B00DD267194F90410D8A00BEB810255
:10582000121D5BF821100CCA09F02CF9012009F0B7
:105830001BFF94F902000022401C80B2212109F0D4
:1058400016F894F90200D34D6FF002024FF04001B8
:1058500035F81000C00702D08B481F3801E08A4895
:105860001A3809F03EF994F902006FF002024FF085
:10587000230135F81000800702D583481F3801E066
:1058800081481A3809F02DF994F902006FF00202EC
:105890004FF0240135F81000400702D57A481F3830
:1058A00001E079481A3809F01CF994F902006FF008
:1058B00002024FF0260135F81000000702D57248A9
:1058C0001F3801E070481A3809F00BF994F902000A
:1058D0006FF002024FF0250135F81000C00602D526
:1058E00069481F3801E068481A3809F0FAF894F955
:1058F00002006FF002024FF05E0135F810008006E2
:105900007EF552AE60481F3864E2A3A3A8A2AEA100
:10591000B3A0B3E3B848029048380390183004901D
:1059200000F50E500590584806904846022B01DDC0
:10593000067102E0A94200DA017199F90410AFA0E2
:105940000BEB8102121D5BF821100CCA09F09AF8CA
:10595000012009F089FE12E7AE4855460290B8F1E1
:10596000000F4FD0ACA00390B1A00490A948894A81
:1059700018380590B4A00690ADA00790A5484E46F3
:105980003030543A089012F80E00C8B33E48579A87
:10599000153809900AB1B2A209920A903A480B90C0
:1059A00015380C900D9061B301292AD0022928D016
:1059B000032928D0042926D0052924D0062923D05C
:1059C000072921D008291FD0092041B20BEB810201
:1059D0003071121D5BF821100CCAA7A009F052F813
:1059E000012009F041FE96F902000022401C80B21D
:1059F000212108F03CFF674896F902101E3847E164
:105A000069E16DE163E16DE16EE138E32020202082
:105A1000EDE5E0EAF2E8E2E5ED20202020000000DC
:105A20003C26082020D0E5EBE520B93120202020BD
:105A300020202020202020200000000020D0E5EBA6
:105A4000E520B932202020202020202020202020E6
:105A50000000000020D0E5EBE520B9332020202015
:105A600020202020202020200000000020C7E0E28D
:105A7000EEE4F1EAE8E520F3F1F2E0EDEEE2EAE847
:105A8000000000006C120000D7AD0100202020C0F3
:105A9000C2C0D0C8C9CDDBC520D0C5CBC520202011
:105AA0000000000020C0E2E0F0E8FF20F1E5F2E8AD
:105AB00020202020202020400000000020C0E2E024
:105AC000F0E8FF20E1E0F2E0F0E5E82020202023EC
:105AD0000000000020C0E2E0F0E8FF20C1CFD120AC
