:020000040000FA
:10000000C01608202102000025020000270200007F
:10001000290200002B0200002D0200000000000059
:100020000000000000000000000000002F0200009F
:10003000310200000000000033020000A1AF000008
:1000400037020000370200003702000037020000CC
:10005000370200007F52010037020000513B0100CF
:1000600037020000370200003702000037020000AC
:10007000370200003702000037020000370200009C
:10008000370200003702000037020000370200008C
:10009000370200003702000037020000370200007C
:1000A000370200003702000037020000370200006C
:1000B000B55D010037020000370200003702000082
:1000C0003702000000F002F800F09BF80AA090E868
:1000D000000C82448344AAF10107DA4501D100F003
:1000E00090F8AFF2090EBAE80F0013F0010F18BF35
:1000F000FB1A43F001031847D462040014630400A0
:100100000A444FF0000C10F8013B13F0070408BF3D
:1001100010F8014B1D1108BF10F8015B641E05D0DB
:1001200010F8016B641E01F8016BF9D113F0080F90
:100130001EBF10F8014BAD1C0C1B09D16D1E58BF22
:1001400001F801CBFAD505E014F8016B01F8016B59
:100150006D1EF9D59142D6D37047000000230024CC
:1001600000250026103A28BF78C1FBD8520728BFC7
:1001700030C148BF0B6070476E2919F0F7807029B5
:1001800019F0CA8166291EF0DB8765291EF0D88721
:1001900067291EF0D58761291EF0D487692919F0D7
:1001A000A980642919F0A680752919F0A3806F2908
:1001B00019F05081782919F0A2810368DB0928BF62
:1001C00041F0800163291AF0488073291AF04D80AC
:1001D000E3291AF05880002070471FB51EF0A9FFD0
:1001E0001AF03CF90400002000211EF001FE401C22
:1001F0006060002000211EF0E5FDE0601FBD10B52D
:1002000010BD1AF041FC1146FFF7E7FF0AF04AFF64
:100210001AF05FFC03B4FFF7F2FF03BC1AF064FCB2
:1002200008480047FEE7FEE7FEE7FEE7FEE7FEE7D9
:10023000FEE7FEE7FEE7FEE703480449024A044BF7
:1002400070470000C5000000C0140820C016082038
:10025000C0140820FEE710B51CF0A6FC1CF032FD0F
:100260001CF024FD1CF0B2FCAFF30080BDE8104090
:100270001CF0EEBC10B51DF0FFFA1EF06FF91DF07A
:1002800053FBBDE810401DF0CBBC1DF013BA1CF0B1
:10029000DBBF09B1002070471BF0E2BC00207047B3
:1002A0000FB41CB5084B06AA7B446946009005981C
:1002B00019F0B1FF04460020694619F0BFFF20463F
:1002C0001CBC5DF814FB0000919F010009684A0501
:1002D00001D540B27047C905FCD500B27047096826
:1002E0004A0501D5C0B27047C905FCD580B2704738
:1002F000704770477047704700207047FFFFFFFF4F
:1003000030B54E482021C0F8A01100BFD0F8A01190
:100310004906FBD500F180000322C0F8842048493B
:10032000C0F828114FF00001C0F82C114FF0010364
:10033000C0F88C30434C446003604FF0AA03C360A4
:100340004FF05504C460A0F1800000BFD0F8885081
:100350006D01FBD540F8802FC360C460C0F88810E1
:10036000394A4264C0F848118168A0F180006FEA00
:1003700011618A073549D0F80C2102F0030207D039
:1003800092B3012A46D0022A4AD0032A51D13BE037
:100390002AB1012A11D0022A27D0032A49D150F8C4
:1003A000882FC2F30E02521C53000268C2F30742A8
:1003B000521CB3FBF2F2264B0CE050F8882FC2F32C
:1003C0000E02521C53000268C2F30742521CB3FBD8
:1003D000F2F2204B5A43C36FA0F18800DBB203F165
:1003E0000103B2FBF3F223E00EE050F8882FC2F3D2
:1003F0000E02521C53000268C2F30742521CB3FBA8
:10040000F2F24FF4FA43E5E7D0F80421104BD2B2F0
:10041000521C0BE0D0F804210E4BD2B2521C05E066
:10042000D0F804214FF4FA43D2B2521CB3FBF2F2DB
:100430000A6043F23A01016030BD000000C00F4085
:10044000000002084F00030048F1004108000010BE
:1004500000093D008096980010B54FF4027012F02C
:10046000F3FDFA4C207040F20A2012F0EDFD6070AE
:100470004FF4037012F0E8FDA07040F20E2012F06D
:10048000E3FDE0704FF4047012F0DEFD207240F2E4
:10049000122012F0D9FD60724FF4057012F0D4FDF5
:1004A000A07240F2162012F0CFFDE0724FF41170EE
:1004B00012F0CAFD207140F2462012F0C5FD6071B5
:1004C0004FF4127012F0C0FDA07140F24A2012F0F9
:1004D000BBFDE07110BD002801DA404200B2704758
:1004E000DB4AD16CD36C5B1A8342FBD37047D9498A
:1004F000112008727047D848C16941F44021C16198
:10050000C16941F44011C161D4480021C1604FF478
:100510004061C164022141614FF47A7282614FF4FB
:100520004872026242620122026541600921416013
:1005300070472DE9F04F0020C94A85B04FF4F4719F
:1005400004461454401C00B28842FADBC548417E80
:1005500071B100214FF0140C7A2301FB03F001EB81
:1005600081039B0001EB81041BB20CEB840459E274
:10057000804690F825004FF00205C0074FF00306B3
:100580001BD098F81400002816D0B7483227CDE9C0
:100590000204CDE90076032118233A46084610F0FC
:1005A00016FDB248CDE90204CDE9007603211823F7
:1005B0003222084610F00BFDB6E0B8F97C00DFF8F7
:1005C000B0A20F27DFF8ACB2DFF88492012853DB2A
:1005D0001423002100941A460846019410F03BFCB5
:1005E0001223012100941A460846019410F033FCAE
:1005F00099F8000010F03C0F0BD0C10611D598F807
:100600001400F0B10F23CDE902A402211A46032001
:1006100013E09948CDE902040F2302211A46032072
:100620000BE010F00C0F0CD098F8140048B10F2319
:10063000CDE902B402211A460846CDE9007510F052
:10064000C6FC8E48406DC00716D10B230022142132
:100650000920009410F0E4F900235B221F210920F7
:10066000009410F0DDF998F8030004231330C1B2B0
:100670000022092010F02CFCB8F97C00022853DB82
:10068000142300941A4600211720019410F0E3FB74
:10069000122300941A4601211820019410F0DBFB6C
:1006A00099F8010010F03C0F0BD0C10611D598F855
:1006B0001400F0B10F23CDE902A402211A4619203B
:1006C00013E06F48CDE902040F2302211A461920D6
:1006D0000BE010F00C0F0CD098F8140048B10F2369
:1006E000CDE902B402211A461920CDE9007510F0B7
:1006F0006EFC6248406D800716D40B230022142143
:100700002020009410F08CF9002344221F21202087
:10071000009410F085F998F8030004231330C1B257
:100720000022202010F0D4FBB8F87A00C1464FF028
:100730000A0B4FF0010800282CD000941423232228
:1007400000213220019410F086FB00940223032242
:1007500014213520019410F07EFB00940223032223
:1007600014214F20019410F076FB99F825004F4694
:10077000800710D599F8140000280BD032213B488F
:10078000CDE90016CDE902040A46182300212B20EA
:1007900010F01DFC8DE00B23002214214220009458
:1007A00010F03EF9002322221F214220009410F075
:1007B00037F9DFF89CA0AAF1800ABAF97E00002878
:1007C00005DAF878042300221330C1B205E0F87886
:1007D0000423C0F12200C1B20222422010F078FBB3
:1007E000B8791E287ED2BAF90210A1F5AA42553A6C
:1007F00078D097F92600052190FBF1F0ADF81000B4
:10080000B9461422002104A810F0EAF8CDE90084CA
:100810004746BDF9103020220021332010F01BFB89
:1008200099F926000A282FDACDE9007509230C2250
:1008300005213D2010F00FFB99F9260002238DE8D9
:10084000910005210FA23D20039730E0845600104F
:1008500008C107200040024000C002400080014063
:10086000A20E082008C0072049F30100DFF30100B1
:10087000B1F40100CFF4010075F4010000C00920BB
:1008800093F401002025000064284FF009035FDA8B
:10089000CDE90075122205213A2010F0DCFA99F911
:1008A000260003238DE8B100FEA205213A2010F0B6
:1008B000BAFB00940E231B2202215C20019410F04D
:1008C000CAFA00231A1F08215C20009410F0A8F82F
:1008D0000023042208217620009410F0A1F80023C0
:1008E000272200E044E01F214320009410F098F8F4
:1008F0006FF00F0300221F216920009410F090F880
:1009000099F805004D46C0F12200C1B2042302222D
:10091000692010F0DDFAE44947468846B1F906102F
:1009200000910420CDE901700523E0A216214620A4
:10093000039710F078FBB8F90400642825DACDE9B4
:10094000000704230521DBA25D20CDE9026725E035
:10095000CDE9007518220521372010F07CFA99F9AD
:10096000260004238DE8D1000521D4A237209EE77C
:10097000BAF97E10CDE9026891FBFBF001B2CDE936
:1009800000180423CBA2052190E790FBFBF000B2F6
:100990008DE8D1000423C7A205215A2010F043FBA3
:1009A000A878401CC0B2A87003281CD3AC70E878AB
:1009B000401CC0B2E8700D2800D3EC702879401CB0
:1009C000C0B22871202800D32C716879401CC0B2B5
:1009D0006871112800D36C71A879401CC0B2A8714D
:1009E000282800D3AC7105B0BDE8F08FB54DB64FE7
:1009F000ED5C05EB450517F81560165407EB45054A
:100A0000401C6E781654401CAE781654401CEE788C
:100A10001654401C2E791654401C6D791554401CF8
:100A20005B1C1BB29C42E1DC491C09B20429FFF6A5
:100A300093ADD8E72DE9F04FA448D3B00522007854
:100A4000002101242AAE5090052802D0212802D08E
:100A500005E09FA000E0A4A0012106222A90A84F53
:100A600097F825005190C00708D0A6A046F82100AD
:100A700001F1010102F10102C9B2D2B2519880071D
:100A800008D5A6A046F8210001F1010102F10102FA
:100A9000C9B2D2B25198000606D5A6A046F82100E8
:100AA000491C521CC9B2D2B27F48037813F01C0F04
:100AB00006D0A6A346F82130491C521CC9B2D2B2B6
:100AC0007948407810F01C0F06D0A6A046F8210007
:100AD000491C521CC9B2D2B297F8270030B1A7A363
:100AE00046F82130491C521CC9B2D2B26E4BDFF815
:100AF000B891183309F115091B780BB1A5A30FE0C4
:100B0000694B99F800508033012DB3F9003002D0C1
:100B1000022D03D00AE04BB9A4A301E033B9A9A385
:100B200046F82130491C521CC9B2D2B25E4B1B336D
:100B30001D78552D0AD103F18F052D8835B9A7A54C
:100B400046F82150491C521CC9B2D2B25D78552DCD
:100B50000AD1554DAA356D8835B9A6A546F821505C
:100B6000491C521CC9B2D2B29D78552D0AD14E4DA6
:100B7000AA35AD8835B9A5A546F82150491C521CA7
:100B8000C9B2D2B2DB78552B0AD1474BAA33DB88E6
:100B900033B9A4A346F82130491C521CC9B2D2B2C1
:100BA000A64D2B7833B1A6A346F82130491C521C20
:100BB000C9B2D2B26B7833B1A7A346F82130491C31
:100BC000521CC9B2D2B2AB7823B1A9A3521C46F8C9
:100BD0002130D2B23B7ABA465B1CDBB239463B725B
:100BE000142B09D300230B72CD796D1CEDB2CD719E
:100BF000954201D38AF80730DFF8AC800DF1080B7D
:100C000008F15008434698F8002093F9045093F9EE
:100C100001100BEB85039E46292A3ED0002A3DD0C9
:100C2000374B6426042A1B7D4F93A8F1D003B3F9F8
:100C3000083093FBF6F74D9731D0C4469CF9040079
:100C40009CF901609CF90290371A052A464627D084
:100C5000112A01F0B981022A01F0CA814046407888
:100C6000801E4FFA80FC0C2A01F0E481142A01F066
:100C7000FC81102A01F00A82152A01F02882412AFB
:100C800001F03B82442A01F0B182452A01F0CB8475
:100C90007D48342A008886B2F8E09AE1FEE3FEE35C
:100CA000FEE300002020250008C10720202020208E
:100CB00042000000202020410000000020202025CC
:100CC00000000000DA0D0820EDF40100AB00001078
:100CD00020C2FBF0E0E2ED2EE7E0F0FFE420207A16
:100CE0003A305A20000000002020CAEEEDF2F0EE6B
:100CF000EBFC20E5ECEAEEF1F2E820200000000039
:100D000008C00720202020C0E2E0F0E8FF20F1E545
:100D1000F2E82121212020200000000020C0E2E094
:100D2000F0E8FF20E1E0F2E0F0E5E82121212020D9
:100D30000000000020C0F1E8ECECE5F2F0E8FF2054
:100D4000C0CAC121212120200000000020C0E2E013
:100D5000F0E8FF20E8F1F2EEF7EDE8EAE0204E31AE
:100D60000000000020C0E2E0F0E8FF20E8F1F2EE31
:100D7000F7EDE8EAE0204E320000000020C4D22067
:100D8000E1E0F2E0F0E5E820EDE5E8F1EFF02E201B
:100D9000000000002020C4D2204E3120EDE5E8F113
:100DA000EFF0E0E2E5ED202000000000C2EDE5F804
:100DB0002EF2E5ECEF2E4E31E7E0E2FBF8E5EDE058
:100DC00000000000C2EDE5F82EF2E5ECEF2E4E310A
:100DD000E7E0EDE8E6E5EDE000000000202020205F
:100DE000C0E2E0F0E8FF20D1CA20B9312020202065
:100DF0000000000020202020C0E2E0F0E8FF20D129
:100E0000CA20B9322020202000000000202020200D
:100E1000C0E2E0F0E8FF20D1CA20B9332020202032
:100E20000000000020202020C0E2E0F0E8FF20D1F8
:100E3000CA20B9342020202000000000E900001062
:100E400020C0E2E0F0E8FF20EFF0E5E4EEF5F02E60
:100E500020B931200000000020C0E2E0F0E8FF20CF
:100E6000EFF0E5E4EEF5F02E20B9322000000000AE
:100E700020C0E2E0F0E8FF20EFF0E5E4EEF5F02E30
:100E800020B933200000000060FB010002F0658102
:100E9000362A02F0E9834646032A02F04B85A8F57C
:100EA000A870252AC07C509003F04980A8F5A8704E
:100EB000282A807F864603F0688040464346407873
:100EC000401E4FFA80F84C2A03F0E68030461A2A7A
:100ED00003F0B882FD4E482A03F010831F2A03F066
:100EE0008D83202A03F0C083212A03F0EC83222A79
:100EF00003F03584232A03F07D84172A03F00F863C
:100F0000F3481E463E2AB0F97E000BEB800303F047
:100F100040863F2A03F06A86402A03F02587462A46
:100F200004F01C81492A04F022844A2A04F04484F3
:100F3000272A04F0D8840A2A04F0DA841C2A04F050
:100F4000F684E44E1B2A04F040871E2A04F0EA8748
:100F50001D2A05F00A80372A05F03C80DC482A2A41
:100F600090F8210005F06D802B2A05F0B880D84854
:100F7000B146D64EB0F94C00493E431E382A05F022
:100F8000D880392A05F0F3803A2A05F0B3823B2A4B
:100F900005F0E4823C2A05F095834D463D2A05F094
:100FA000D883072A05F0FE84082AFBD0122AF9D03C
:100FB000132AF7D0352AF5D0192AF3D0092A05F0DB
:100FC00017852C2A05F019854B2A05F01D8505F09B
:100FD00048BD79B101297ED0BF4C02297CD00329BC
:100FE0007BD004297AD0052979D0062978D0072921
:100FF00077D0ECE7B9A3B9A2B8A1B8A00EF0A2FED1
:101000000023022219460AF116049AF817000EF07E
:10101000A8FC608E00230222012180B20EF0A1FC08
:10102000E08D02220023114680B20EF09AFCB148F6
:10103000002307220088194680B20EF092FCAE48C9
:10104000002307220088012180B20EF08AFCAB4801
:10105000002307220088022180B20EF082FC9C4807
:10106000002380300722B0F87C00032180B20EF00C
:1010700078FCA34800230A22194600780EF071FC80
:10108000A04800230A22012100780EF06AFC9E4845
:1010900000230A22022100780EF063FC9B4C0023FF
:1010A0001322207819460EF05CFC6078002313228E
:1010B00001210EF056FCA0780023132202210EF02D
:1010C00050FC844C0023A41D1122208819460EF0E8
:1010D00048FC608806E00EE051E0B5E034E14AE10A
:1010E0007FE122E20023112201210EF03AFC0023CD
:1010F000A088112244E2864B86A11A468AA00EF0EF
:1011000021FE8F48002304220088194680B20EF089
:1011100028FC8C4800231A4690F90000012180B277
:101120000EF01FFC6B4C0123183C0E22208800217E
:101130000EF017FC012360880E2219460EF011FCF8
:10114000241D01232088132200210EF00AFC012314
:101150006088132219460EF004FC3C3C0A222078D9
:1011600000210EF061FD60780A2201210EF05CFD85
:10117000BAF87C0000230122022180B201E257A3C9
:1011800056A256A155A00EF0DDFD002320880422B2
:1011900019460EF0E6FB60880023042201210EF0C0
:1011A000E0FBA0880023042202210EF0DAFBE08895
:1011B0000023042203210EF0D4FB002320890922FE
:1011C00019460EF0CEFB60890023092201210EF0A2
:1011D000C8FBA0890023092202210EF0C2FBE0898E
:1011E0000023092203210EF0BCFB0023208A0E22DB
:1011F00019460EF0B6FB608A00230E2201210EF084
:10120000B0FBA08A00230E2202210EF0AAFBE08A86
:1012100000230E2203210EF0A4FB0023208B1322B7
:1012200019460EF09EFB608B0023132201210EF065
:1012300098FBA08B0023132202210EF092FB0023C7
:101240001322E08B03219CE124A324A223A123A049
:101250000EF078FD0023208C042219460EF081FB4D
:10126000608C0023042201210EF07BFBA08C002364
:10127000042202210EF075FBE08C002304220321DE
:101280000EF06FFB0023208D092219460EF069FB3A
:10129000608D0023092201210EF063FBA08D002345
:1012A000092202210EF05DFBE08D002309220321BB
:1012B0000EF057FB0023208E0E2219460EF051FB34
:1012C00000230E22608E01215BE10000EC12082059
:1012D00008C0072058C10720740D082020202020B6
:1012E00020202020202020202020202020202020FE
:1012F00000000000D4000010D0000010D600001044
:10130000BC000010BD000010BE000010EF00001077
:10131000DAF2010020202020202020202020202080
:1013200020202020202020003220202020202020CB
:10133000202020202020202020202020000000002D
:10134000C0000010B4000010AFF27003AFF27402DE
:10135000AFF27801AFF27C000EF0F4FC0023132210
:10136000194654469AF816000EF0FBFA0023132291
:101370000121607D05E1AFF29C03AFF2A002AFF264
:10138000A401AFF2A8000EF0DDFCF048002301221A
:10139000007819460EF0E5FAEC480122C01C002343
:1013A000007811460EF0DDFA99F8000000230122C2
:1013B00002210EF0D6FAE5480023533005220088BA
:1013C00019460EF0CEFAE14800237D300522008850
:1013D00001210EF0C6FADD4800235F3005220088A7
:1013E000CEE0DBA00290E0A00390E5A00490EAA08C
:1013F0000590EFA00690F4A00790F9A00890DEE910
:101400000112DB685BF825000EF09CFCCF4802223D
:101410008F383F21B0F97E000EF0C0F9F64C606DB8
:10142000002200F0010024210EF081FBC74D232192
:101430000F3D28780EF0E6FB606D0022C0F34000FF
:1014400040210EF074FB687821210EF0DBFB05F1E2
:101450003804002220884A210EF069FB60880022AF
:101460006A210EF064FBE54C0022592120780EF031
:101470005EFB6078002279210EF059FBE04C0022DF
:101480006821206880B20EF052FBDE4800226D21F8
:10149000006880B20EF04BFBDB4D02E074E0ABE283
:1014A0004DE32888002251210EF041FBD74E002247
:1014B000712130880EF03BFB688800225A210EF023
:1014C00036FB708800227A210EF031FBD04D0022CD
:1014D000412128780EF02BFBCE4E0022612130787E
:1014E0000EF025FB6878002242210EF020FB707878
:1014F000002262210EF01BFB2068002280B24321F3
:101500000EF015FB6068002280B244210EF00FFB44
:10151000C14C00226321206880B20EF008FB606895
:10152000002280B2642105F03ABABC4B1A4611463B
:1015300008460EF007FCBA4C20784FF000034FF03D
:10154000060219460EF00DFA0023062201219AF830
:1015500020000EF006FAB42011F076FD80B20023D0
:10156000062202210EF0FDF9A08800231022194660
:101570000EF0F7F9B62011F067FD002380B21022BB
:1015800002210EF0EEF922E5A6A002906F48293064
:10159000B0F90020B0F90200C82A05DDC82801DD35
:1015A000A6A00CE0ABA00AE0C82801DDAFA006E0D1
:1015B00066488F38B0F97C00C82801DDB1A00290E0
:1015C000B6A00390BBA00490C0A00590C5A0069053
:1015D000CAA00790CFA00890D4A00990D9A00A90E3
:1015E000DEA00B90E3A00C90E8A00D90EDA00E9073
:1015F000F2A00F90F7A0109088481530119021B1FB
:10160000681A022805DD891C05E0002088F804001E
:1016100003E0A94201DD88F804109AF80700554656
:10162000052807D298F904100BEB8100001D0EC8A5
:10163000029809E098F9042006EB80000BEB820188
:10164000091D50F8140C0EC90EF07CFB98F904002B
:10165000A0B198F9011089B1884203D1E34880F81C
:101660003C400BE0401A012802D0022804D005E0DB
:10167000DE4880F8284001E0DC480475334C012244
:101680008F3C6C21B4F87C0080B20EF050FA02223C
:101690004021B4F97E000EF081F880340122E08808
:1016A000232180B20EF043FAA0880122242180B2C7
:1016B0000EF03DFACE4C20784FF000024FF026019C
:1016C0000EF035FA207900225E210EF030FA207AF1
:1016D000002225210EF02BFA207B00223C210EF067
:1016E00026FA217E4D4800222A3000EB81003E215F
:1016F0000EF057FBA08B00227B210EF018FA287DFC
:1017000068B13A200DF0A9FFB84D20242C543A209E
:101710000DF0A3FF2C543A200DF09FFF2C54B54C34
:101720004FF4616100222068B0FBF1F080B27A21B1
:101730000EF0FDF921683C20B1FBF0F1B1FBF0F2B5
:1017400000FB121000225A21EDE6000017C107200D
:10175000202020203F202020202020202024202363
:1017600020402021000000002020202020202020D8
:10177000202020202020204A2020206A0000000075
:101780002020202020202020202020202020205920
:101790002020207900000000202020682020206DDB
:1017A0002020202020512071205A207A00000000A3
:1017B0002020207320202053202020202020204380
:1017C0002020204400000000202020662020204609
:1017D0002020202020202063202020640000000002
:1017E0002020202020202020202020202041206197
:1017F000204220620000000000C00920C800001044
:101800000801001020010010FA000010F60000107E
:10181000240100102601001010010010DAF201006E
:10182000384002402020CDE5EEEFF0E5E4E5EBE5C1
:10183000EDEDEEF1F2FC20200000000020C220F0CF
:10184000E0E1EEF2E520C1CFD1312CC1CFD1322081
:101850000000000020202020C220F0E0E1EEF2E5B0
:1018600020C1CFD1312020200000000020202020E6
:10187000C220F0E0E1EEF2E520C1CFD132202020FD
:10188000000000002020D0E0E1EEF2E020EEF220A7
:10189000E1E0F2E0F0E5E820000000002055E13D45
:1018A0002020206CC22049E13D2020202040C02083
:1018B000000000002055ED3D20202023C22049EDEE
:1018C0003D2020202024C020000000002030253AA8
:1018D000305E3A302620303C2F3E20202F307B20B7
:1018E0000000000020C1E0F2E0F0E5FF2020202011
:1018F00020202020202020200000000020C1CFD167
:1019000031202020202020202020202020202020C6
:101910000000000020C1CFD1322020202020202034
:1019200020202020202020200000000020CDE0E307
:10193000F0F3E7EAE02020202020202020202020B3
:101940000000000020D1E5F2FC20202020202020F3
:1019500020202020202020200000000020D1EFE5C2
:10196000F6F4F3EDEAF6E8E82020202020202020FD
:101970000000000020C6F3F0EDE0EB20F1EEE1FB0B
:10198000F2E8E920202020200000000020C1E0F241
:10199000E0F0E5E9EDFBE920E6F3F0EDE0EB2020F7
:1019A0000000000020C2E5F0F1E8FF20CFCE2020AB
:1019B00020202020202020200000000020D3F1F251
:1019C000E0EDEEE2EAE82020202020202020202068
:1019D0000000000020D1E1F0EEF120E0E2E0F0E8CC
:1019E000E92020202020202000000000DA0D08201F
:1019F0002040024000010010BAF87A3053B1519BE8
:101A00009B0710D5904B4F9848B190A295A19BA0F1
:101A100004F0F7BF9FA3A5A2AAA1B0A0F8E78A4A45
:101A200011460846F4E7B3A30293B84B1B784BB1B9
:101A3000B7A30393BCA30593C1A35746049328B14E
:101A4000C5A004E0CAA30393CFA3F4E7D4A00690F3
:101A5000D9A00790DEA00890E3A00990E8A00A9022
:101A6000EDA00B90F2A00C90F7A00D904D98FC4DBE
:101A70003028754800F115002ED00E900BEB810038
:101A8000001D0EC89BA00EF05DF9B5F87C00012288
:101A9000402180B20EF04BF802222121B5F97E00E0
:101AA0000DF07CFEB5F87A000022242180B20EF001
:101AB0003EF897F926000022772180B20EF037F821
:101AC000B5F90200A0F5AA41553907D14A1E5121A6
:101AD000E4A00EF066F906E00D90CFE70122512157
:101AE00080B20EF024F8B5F9080090FBF6F030282B
:101AF00003D198F80110082905D03C2806D198F8A0
:101B00000100092802D1D94880F83C40D84C012274
:101B10005B2120880EF00BF8608801225D210EF019
:101B200006F8A08801227B210EF001F8E08801224E
:101B30007D210DF0FCFF012220892921F3E4CD480D
:101B4000B9F1000F406D05D0C0F34000B9F1010FAD
:101B500003D006E000F0010003E0BAF87C20012A7F
:101B600002D048B1C4A008E0CFA20292D4A203924E
:101B7000354AC7A004922AE0D7A0519AD20701D0D3
:101B8000DBA213E0B64A803212F80920D30601D551
:101B9000DDA20BE0130701D5E1A207E0530701D551
:101BA000E5A203E012F03C0F01D1E9A20292EEA2FD
:101BB0000392F3A20492AA4A823212F809200AB1CF
:101BC000F5A200E0FAA205921F4A15320692002FF4
:101BD00001DCA94200DA317196F904500BEB850261
:101BE000121D5BF825100CCA0EF0ACF896F9020035
:101BF0000022401C80B221210DF099FF984896F9EF
:101C00000210B830012230F8110040210DF08FFF92
:101C1000934896F90210BC30012230F811002321BC
:101C20000DF085FF8E4896F90210B430002230F88E
:101C3000110024210DF07BFF7078022844F01187F9
:101C40008A4880F83C409EE4DAF2010020202020FF
:101C5000EDE520EFEEE4EAEBFEF7E5EDE0202020F5
:101C60002020000020202020202020C1E0F2E0F0F1
:101C7000E5FF202020202020202000002020202000
:101C8000202020C0C2C0D0C8DF2121202020202059
:101C900020200000E220E1E0F2E0F0E5E9EDEEECEA
:101CA00020E6F3F0EDE0EBE500000000202020202E
:101CB00020E2E2E5E4E8F2E520E5B820202020205B
:101CC0000000000020CFF0E82020EDE5EEE1F5EE89
:101CD000E4E8ECEEF1F2E8200000000020C1C0D200
:101CE000C0D0C5DF20CDC520C2C2C5C4C5CDC0206F
:101CF00000000000202020202020C1C0D2C0D0C57C
:101D0000DF2020202020202000000000BA0000104A
:101D1000202020F0E0E7F0FFE6E0E5F2F1FF2020F0
:101D2000202020200000000020202049F0E0E7F0E3
:101D30003D2020202021C020202020200000000065
:101D400020202055E1E0F23D202020202040C2202C
:101D5000202020200000000020202020C4D22E209F
:101D6000EDE5E8F1EFF0E0E2E5ED20200000000015
:101D700020202020E7E0F0FFE6E0E5F2F1FF202060
:101D8000202020200000000020202049E7E0F03D36
:101D9000202020202021C020202020200000000022
:101DA00020202074E1E0F2203D20202024B04320B8
:101DB0002020202000000000202020C7E0F0FFE4C9
:101DC0003D2020202077252020202020000000001A
:101DD00020202043E1E0F23D202020202051C02A95
:101DE000F72020200000000020202055FD31203D5C
:101DF00020202020205BC220202020200000000086
:101E000020202055FD32203D20202020205DC220B2
:101E1000202020200000000020202055FD33203D00
:101E200020202020207BC220202020200000000035
:101E300020202055FD34203D20202020207DC22060
:101E4000202020200000000020202055FD35203DCE
:101E5000202020202029C220202020200000000057
:101E600088C007202D2D2D2D2D2D0000DA0D0820E6
:101E7000E212082000C0092020202020C1CFD1215B
:101E800020C2DBCACBDED7C5CD2020200000000059
:101E90002020202020202020C1CFD132202020202F
:101EA000202020200000000020202020CED2D1D3EE
:101EB000D2D1D2C2D3C5D2202020202000000000E1
:101EC0002020C220D1D2D0D3CAD2D3D0C520C8C1FD
:101ED000DDCF20200000000020202020C1CFD12114
:101EE00020C2CACBDED7C5CD2020202000000000B4
:101EF00020E0E2E0F0E8FF20F1E5F2E820202020F9
:101F0000202020200000000020E0E2E0F0E8FF2098
:101F1000EFE5F0E5E3F0E5E22020202000000000FE
:101F200020E0E2E0F0E8FF2055E2FBF53C55ECE86C
:101F3000ED2020200000000020E0E2E0F0E8FF209B
:101F400055E2FBF53E55ECE0EAF1202000000000F0
:101F500020F1EEF1F2EEFFEDE8E5202D20EDEEF0C0
:101F6000ECE02020000000002055E8F1F2203D20A8
:101F700020202040C220202020202020000000001F
:101F80002049E8F1F2203D2020202023C0202020FD
:101F9000202020200000000020C4D220EDE5E8F140
:101FA000EFF0E0E2E5ED20202020202000000000FE
:101FB0002074E8F1F2203D20202024B0432020208E
:101FC000202020200000000099A39FA2A4A1AAA085
:101FD0000DF0B8FEAE480122212180F83C40AD4C06
:101FE000E08880B20DF0A3FD01224021A0881FE00F
:101FF00051985546C00719D04F9808B1A6A000E0E7
:10200000AA488BA3AAA2B0A102900DF09BFEA04803
:1020100005F14605002280F83C40A888232180B2C3
:102020000DF085FD01224021288801E0ACA0E8E701
:1020300080B283E5B0A00290B5A00390BAA004904E
:102040009A4815300590022F02DD86F804C002E0A0
:10205000A94200DA317198F90410B9A00BEB8102A2
:10206000121D5BF821100CCA09E0509821280BD0F2
:10207000B9A08E4B0146029003F11502BCA00DF0F1
:1020800061FE012002F08CB8BFA0F2E7C4480290C4
:10209000C4A0039031B1012908D002290AD0032934
:1020A0000CD00FE0C5A00290CAA00AE0CFA0029019
:1020B000D4A006E0D9A00290DEA002E0D7A0029052
:1020C000E2A003900346B7A1B548029AA0E4509855
:1020D000052810D0A0A0754B024602901533E1A14F
:1020E000E6A00DF02FFE01200EF01EFC00222121A3
:1020F000BAF874009CE7A4A0EDE7E0A3DFA2DFA19B
:10210000DEA00DF01FFE04218AF81D109AF82010A1
:10211000012922D0022922D003292DD006292DD031
:102120000C292DD0DBA1614802918AF81D401530A1
:10213000CDF80C0096F90410E2A00BEB8102536875
:102140005BF82120D9A10DF0FDFD96F9010096F96B
:102150000410884216DA307119E0E0A000E0E5A032
:102160000290EAA00390EFA00490AFF6A0000590C3
:102170004E4815300690DDE7F0A0F1E7F5A0EFE757
:10218000FAA0EDE7411A012901DD411E3171022853
:1021900000D1307102200EF0C7FB3E4C0022803C83
:1021A0002521608A0DF0C3FC00225E21A08A0DF07B
:1021B000BEFC00222621E08A0DF0B9FC00223C2161
:1021C000208B0DF0B4FC3948618B2A3000EB810084
:1021D00000223E210DF0E5FD00227B21A08B0DF0B9
:1021E000A6FC00222821E08BA8E400BF40F6026094
:1021F00010F02AFF01B25046AAF84C10402902DD27
:102200000021A0F84C10BAF94C0060B101280BD0A5
:1022100002280AD00ADD96F9011096F904209142AD
:1022200005DA3171DCE1ADE1B1E1BAE1E6E1D2E13B
:1022300020C2FBF5EEE420202020202020202020BA
:1022400020202020000000002049EDE0E3F03D20A8
:1022500020202020202040412020202000000000BD
:102260002055EDE0E3F03D2020202020202021C259
:102270002020202000000000202020202020CDC091
:10228000C3D0D3C7CAC020202020202000000000D7
:10229000DA0D082008C10720202020C0C2C0D0C805
:1022A000DF20D1C5D2C8212121202000DAF201008F
:1022B0002046F1E5F2E83D2020202020202040C3E8
:1022C000F6202020000000002055F1E5F2E83D2036
:1022D00020202020202023C22020202000000000D9
:1022E00020202020202020D1C5D2DC20202020202A
:1022F000202020200000000020CAEEEDF2F0EEEBDE
:10230000FC20E5ECEAEEF1F2E820202000000000DD
:1023100020C2FBF0E0E2EDE8E2E0FEF9E8E920E7C8
:10232000E0F0FFE40000000020C0E2F22EE2FBF04B
:10233000E0E2EDE8E22E20E7E0F0FFE4000000003C
:1023400020202020D1CFC5D6D4D3CDCAD6C8C8200E
:10235000202020200000000020C2FBEAEBFEF7E571
:10236000ED20202020202020202020200000000020
:102370002020CACECDD2D0CECBDC20C5CCCACED187
:10238000D2C820200000000020C2EAEBFEF7E5EDF5
:1023900020202020202020202020202000000000BD
:1023A000E80C0000202020EDE5E2EEE7ECEEE6E5AB
:1023B000ED212121202020200000000020202020CD
:1023C000CEF2F1F3F2F1F2E2F3E5F2202020202048
:1023D00000000000202020202020E1E0F2E0F0E5D5
:1023E000FF2020202020202000000000202020208E
:1023F000202020C0E2E0F0E8FF2020202020202044
:10240000000000002020202020202020F1E5F2E81C
:10241000202020202020202000000000202020203C
:102420002020C1E0F2E0F0E5FF2020202020202045
:102430000000000020202020F0E0E7F0FFE6E0E5CB
:10244000F2F1FF202020202000000000202020208A
:1024500020E7E0F0FFE6E0E5F2F1FF202020202079
:102460000000000020E4EBE8F2E5EBFCEDEEF1F219
:10247000FC202D202021F72E0000000020C2DBD000
:10248000C0C2CDC8C2C0DED9C8C920C7C0D0DFC451
:102490000000000020E2FBEAEBFEF7E5ED20202043
:1024A000202020202020202000000000C2DBD0C0FF
:1024B000C2CDC8C2C0DED9C8C920C7C0D0DFC420C1
:1024C00000000000202020C0C2D2CECCC0D2C8D78D
:1024D000C5D1CAC8C92020200000000020F0E0E7D4
:1024E00020E220ECE5F1FFF6202020202020202013
:1024F0000000000020F0E0E720E2203220ECE5F1CF
:10250000FFF6E020202020200000000020E4EBE87F
:10251000F2E5EBFCEDEEF1F2FC20202028F72E2076
:102520000000000020EEF7E5F0E5E4EDEEE520E246
:10253000EAEBFEF7E5EDE8E50000000020F0E0E75B
:1025400020E2203320ECE5F1FFF6E02020202020DF
:102550000000000020F0E0E720E220EFEEEBE3EEE9
:10256000E4E02020202020200000000020F0E0E710
:1025700020E220E3EEE42020202020202020202044
:1025800000000000EB4BECA103F1150203E0E94A67
:10259000EFA31532F4A1FAA00DF0D4FB00203071A6
:1025A0002CE096F9010096F90410884201DA3071A6
:1025B00004E0411A022901DD801EF8E796F90400C3
:1025C00010B1012803D019E0DA4B153311E0D94AD4
:1025D000DFA315320EE08A1A022A01DD891E20E6E9
:1025E00096F90410421E9142F1D0801E8142EBD038
:1025F000E9A3EFA2DCA1E2A00DF0A4FB01200EF004
:1026000093F9307928210DF078FC30795B21401C5A
:10261000C0B20DF072FC30797B21801CC0B20DF08D
:102620006CFC04F01EBAC34B1A46114608460DF066
:1026300089FB4FF4606010F007FD98F902104546E1
:102640004A42402100B20DF06AFB400100F5806073
:1026500086B24CA9304610F074FD50A9301D10F020
:1026600070FD48A906F1080010F06BFD49A906F1BC
:102670000C0010F066FD4AA906F1100010F061FD93
:102680004BA906F1140010F05CFD4FA906F11800EB
:1026900010F057FD9DF83001552808D0502843D040
:1026A00042287ED053287DD046287CD0B9E79DF8BB
:1026B00032015228B5D1C4A3C9A2CFA1D4A00DF034
:1026C00041FB9DF82401002240210DF030FA9DF8D5
:1026D0002501002223210DF02AFA9DF8260100226F
:1026E00024210DF024FA9DF82201002225210DF06D
:1026F0001EFA9DF8200100225E210DF018FA9DF8C7
:102700002101401E0C2801D38DF8214189489DF8F4
:1027100021112A3000EB8100002228210DF041FB1D
:102720000020AAF84C007CE79DF83201412802D035
:1027300042284ED075E7BCA00290C1A003909DF83E
:102740002801412803D19DF8290141287ED001228A
:102750000021281D0EF039F9BFA00490C4A00590F7
:10276000C9A04CE08DF8294179E000BF0DF0DFF9F8
:102770009DF82401002240210DF0D9F99DF8250192
:10278000002223210DF0D3F99DF8260100222421F7
:102790000DF0CDF99DF82201002225210DF0C7F999
:1027A00002E083E0D6E278E39DF8200100225E217A
:1027B0000DF0BDF99DF82101401E0C2873D200BF19
:1027C0005C489DF821112A3000EB8100002266212F
:1027D00097E0B3A002909AA003909DF828014128A9
:1027E00003D19DF8290141284DD001220021281D47
:1027F0000EF0EBF898A004909DA00590AEA0069076
:1028000095F904500BEB8501091D5BF825000EC9F5
:102810000DF098FA9DF82C0100223E210DF087F969
:102820009DF82D0100223D210DF081F99DF82E012A
:10283000002246210DF07BF99DF82A0100225B2140
:102840000DF075F99DF82801002200E01BE03C2105
:102850000DF06DF99DF82901401E0C2882D23548F3
:102860009DF829112A3000EB810000225D210DF036
:1028700098FA9DF83C019DF83D11002200EB0120E3
:1028800080B22B2172E792A0049097A002AD03467C
:10289000059007CD0DF056FABAF84A0000222B2118
:1028A00080B263E7FFE78DF8214189E79DF83201A7
:1028B000432809D0532829D05A2837D0052657282D
:1028C00035D04B2834D0ACE6AFF2E04002908CA07B
:1028D00020E07FA088E101220021281D0EF075F87C
:1028E0005DA005908CA045E18DF8294171E100BF04
:1028F0009DF831010022401C2B21E2E28DF821419C
:10290000E8E20DF04EFAAAF84C408AE6AFF2245005
:10291000029087A003902CA004909DF828014128E4
:10292000D9D19DF829014128D5D1D2E70CE162E146
:102930009AE10000DAF2010020C6F3F0EDE0EB20AE
:10294000EFF3F1F2202020202020202000000000C2
:1029500020CEF7E8F1F2E8F2FC20E6F3F0EDE0EB50
:1029600020202020000000002028202020202020DF
:1029700020202020202020202020202000000000D7
:10298000202020C6D3D0CDC0CB20D1CEC1DBD2C831
:10299000C920202000000000207B202020202020B3
:1029A00020202020202020202020202000000000A7
:1029B000205B2020202020202020202020202020DC
:1029C000202020200000000020203025282020305A
:1029D0005E2030403A30233A3024202000000000AE
:1029E0002020202020202020C8C1DDCF2020202032
:1029F0002020202000000000202020E8EBE820E23A
:102A0000EAEBFEF7E5EDE8E52020202000000000DD
:102A100020202020CFE5F0E5E7E0E3F0F3E7EAE06F
:102A20002020202000000000C0E2E0F0E8FF20F1BC
:102A3000E5F2E82128E7E0EDE8E62E2900000000B5
:102A400020203025662020305E2030403A30233A66
:102A50003024202000000000202020202020F3F13E
:102A6000F2F0E0EDE5EDE020202020200000000065
:102A70002020305B5D2020303C20303E3A303D3A13
:102A80003046202000000000202020202055ECE8C7
:102A9000ED3D20202BC2202020202020000000001F
:102AA000C0E2E0F0E8FF20F1E5F2E82128E7E0E20B
:102AB000FBF82E2900000000202020202055ECE00B
:102AC000EAF13D20202BC220202020200000000021
:102AD00020202020EDE520F3F1F2F0E0EDE5EDE03F
:102AE0002020202000000000202020202055F1E59B
:102AF000F2E83D20202BC2202020202000000000F2
:102B0000202020202020E1E0F2E0F0E5E820202055
:102B100020202020000000002020305B5D2020309D
:102B20003C20303E3A303D3A302920200000000061
:102B300020E0F1E8ECECE5F2F0E8FF20E1E0F2E083
:102B4000F0E5E82000000000E3A00290E8A0039078
:102B5000EDA004909DF82801412803D19DF829019A
:102B6000412840D001220021281D0DF02EFFECA0AD
:102B70000590F1A0069095F904500BEB8501091D15
:102B80005BF825000EC90DF0DDF89DF82C01002240
:102B90003E210CF0CCFF9DF82D0100223D210CF0D0
:102BA000C6FF9DF82E01002229210CF0C0FF9DF8E0
:102BB0002A0100225B210CF0BAFF9DF828010022B7
:102BC0003C210CF0B4FF9DF82901401E0C28BFF4F5
:102BD0008BAE9DF82911DE48002200EB81005D21BB
:102BE0000DF0DFF884E6DBA002AD0346059007CDCB
:102BF0000DF0A8F87CE6DDA00290E2A00390E7A02B
:102C00000490C1A00590EBA00690F0A00790F5A05D
:102C10000890FAA00990FFA037E000BF8DF821418D
:102C200068E000BF9DF82901002205EB80007721B4
:102C30000DF0B7F8BDF8400101227A210CF077FFC2
:102C40009DF823019DF82711012200EB012080B29D
:102C50003C210CF06CFFBDF8420101223E210CF03A
:102C600066FFAAF84C60DCE4F0480290C5A003902F
:102C7000CAA00490A4A00590EDA00690D3A0079050
:102C8000D8A00890F0A00990F5A00A9095F90470DA
:102C90000BEB8700001D0EC85BF827000DF052F803
:102CA0009DF831010022401C21210CF040FF9DF8CD
:102CB0002401002240210CF03AFF9DF8250100225A
:102CC00023210CF034FF9DF82601002224210CF072
:102CD0002EFF9DF82201002225210CF028FF9DF8EF
:102CE000200100225E210CF022FF9DF82101401EF0
:102CF0000C2893D29DF82101954D002205EB800010
:102D000028210DF04EF89DF82C01002269210CF0CD
:102D10000EFF9DF82D0100226C210CF008FF9DF89C
:102D20002E01002273210CF002FF9DF82A010022DF
:102D300071210CF0FCFE9DF82801002272210CF09C
:102D4000F6FE9DF82901401E0C28FFF46BAF8DF8AC
:102D5000294167E7C8A002909DF832014C2806D0AF
:102D6000542806D0552806D0752806D007E0C8A0FC
:102D700004E0CDA002E0D2A000E0D7A00390AFF223
:102D8000B83004909DF82801412803D19DF829010D
:102D9000412879D001220021281D0DF016FEAFF246
:102DA00048300590AFF29020069095F904500BEB57
:102DB0008501091D5BF825000EC90CF0C3FF9DF8C5
:102DC0002C0100223E210CF0B2FE9DF82D010022C4
:102DD0003D210CF0ACFE9DF82E01002229210CF0C3
:102DE000A6FE9DF82A0100225B210CF0A0FE9DF8B2
:102DF000280100223C210CF09AFE9DF82901401E7A
:102E00000C2801D38DF829419DF829115048002242
:102E100000EB81005D210CF0C4FF00BF9DF8310183
:102E20000022401C2B210CF082FE9DF82401002280
:102E300040210CF07CFE9DF82501002223210CF09E
:102E400076FE9DF82601002224210CF070FE9DF8EC
:102E50002201002225210CF06AFE9DF820010022AB
:102E60005E210CF064FE9DF82101401E0C2801D368
:102E70008DF821419DF821113548002200EB810099
:102E8000282103F015BCFFE7AFF2BC3002AD0346CA
:102E9000059007CD0CF056FFC0E7AFF6B0200290CA
:102EA00093A00390AFF2E0400490974802AD034630
:102EB000059007CD0CF046FF9DF831010022401C23
:102EC00021210CF034FE9DF82401002240210CF059
:102ED0002EFE1BE138E10000202020C2FBF0E0E2E2
:102EE000EDE8E2E0FEF9E8E9202020200000000003
:102EF00020202020202020E7E0F0FFE420202020D8
:102F000020202020000000002030252F2820202F06
:102F1000305E2030403A30233A3024200000000058
:102F2000202020202020E7E0E2E5F0F8E5ED202059
:102F3000202020200000000020305B2F5D20202F6B
:102F4000303C20303E3A303D3A302920000000002D
:102F500004F3010020202020EDE520E7E0E2E5F089
:102F6000F8E5ED2020202020000000002020202077
:102F7000202020D0E0E7F0FFE420202020202020A7
:102F80000000000020202020202020E1E0F2E0F0DE
:102F9000E5E82020202020200000000020CDE0F7E0
:102FA000E0EBEE20202020202020202020202020C8
:102FB000000000002020202020202020202055E19B
:102FC000E0F23D20203CC2200000000020CAEEEDCF
:102FD000E5F6202020202020202020202020202056
:102FE000000000002030712F7720202F3072203019
:102FF000693A306C3A307320000000002020202015
:1030000020202020202055E1E0F23D20203EC2205B
:103010000000000020202020CEF2E4E0EDEE202091
:1030200020207AE02AF72E2000000000E80C0000A3
:1030300020202020202020202055E1E0F23D2020EB
:103040003CC2202000000000202020202020202042
:103050002055E1E0F23D20203EC22020000000008B
:1030600020A8ECEAEEF1F2FC20202020207AE02AD1
:10307000F72E202000000000202020C0E2E0F0E831
:10308000FF20C1CFD1204E2B2020202000000000A7
:103090002020202020EEF2EAEBFEF7E8EBF1FF2003
:1030A0002020202000000000202020202020EFE50C
:1030B000F0E5E3F0E5E220202020202000000000E1
:1030C000202020E7E0E2FBF8E5EDEE2055E2FBF5FD
:1030D0002E20202000000000202020E7E0EDE8E680
:1030E000E5EDEE2055E2FBF52E202020000000004B
:1030F00020EFF0E5E4EEF5F0E0EDE8F2E5EBFF209F
:10310000B921202000000000DC1200009DF82501FC
:10311000002223210CF00BFD9DF826010022242122
:103120000CF005FD9DF82201002225210CF0FFFC8A
:103130009DF8200100225E210CF0F9FC9DF8210190
:10314000401E0C28BFF4DAAB9DF8211199480022EB
:1031500000EB81002821FFF7D4BBDFF85C92A3F5D8
:10316000B850883801D195A05EE0A3F5B8507C38FE
:1031700001D198A058E0A3F59050D83801D19BA078
:1031800052E0A3F59050CC3801D19EA04CE0A3F5BD
:10319000B8507A3801D1A1A046E0A3F5B8507538EF
:1031A00001D1A4A040E0A3F59050CA3801D1A7A056
:1031B0003AE0A3F59050C53801D1AAA034E040F61A
:1031C0007810834201D1ADA02EE040F66C118B4205
:1031D00001D1B0A028E0A3F59052E83A01D1B3A004
:1031E00022E0A3F5B852983A01D1B6A01CE0A3F5AD
:1031F0009052D43A01D1B9A016E0A3F5B852843A5E
:1032000001D1BCA010E0A3F51062923A01D1BFA099
:103210000AE0A3F51062793A01D1C2A004E083422A
:10322000D1D08B42D5D0C5A00290CAA00390CFA028
:103230000490D4A00590D9A00690DEA00790E3A04A
:103240000890E8A00990EDA00A90F2A00B90F7A0DA
:103250000C90FC480EF1040E0D90BEE80E0047469F
:103260005BF825000CF06EFD3879082802D1F6488D
:1032700080F83C40B9F90A004C46202805DA0022C3
:10328000212180B20CF053FC05E04FF0FF322121E8
:10329000EEA00CF086FDB4F90C000D2805DA002232
:1032A000402180B20CF043FC05E04FF0FF3240219A
:1032B000E6A00CF076FDB4F90E00642805DA0022D1
:1032C000232180B20CF033FC05E04FF0FF322321C4
:1032D000DEA00CF066FD384CDD4D8034606AA842FB
:1032E00006DB6FF004023F21DAA00CF05AFD03E088
:1032F00000223F210CF0A1FA00222B2109200CF022
:1033000016FC0022282130460CF011FCA06AA842CD
:1033100006DB6FF004022921CEA00CF042FD03E091
:10332000002229210CF089FAA06AA84206DB6FF07E
:1033300004022921C7A00CF034FD03E0002229215A
:103340000CF07BFAE06AA84206DB6FF004023C2135
:10335000C0A00CF026FD03E000223C210CF06DFA29
:10336000206BA84206DB6FF004023E21B9A00CF0EE
:1033700018FD03E000223E210CF05FFA6FF0030419
:1033800022465B21B5A00CF00CFD22462421B3A0FF
:103390000CF007FD22462521B0A00CF002FD2246CC
:1033A0005E21AEA00CF0FDFC22462621ABA00CF065
:1033B000F8FCBBE204F3010088C00720202020C8ED
:1033C000C1DDCF3232302F36302D32344120202033
:1033D00000000000202020C8C1DDCF3232302F365F
:1033E000302D31324120202000000000202020C854
:1033F000C1DDCF3232302F34382D323441202020FD
:1034000000000000202020C8C1DDCF3232302F3430
:10341000382D31324120202000000000202020C81B
:10342000C1DDCF3232302F36302D313041202020D7
:1034300000000000202020C8C1DDCF3232302F36FE
:10344000302D35412020202000000000202020C801
:10345000C1DDCF3232302F34382D313041202020A1
:1034600000000000202020C8C1DDCF3232302F34D0
:10347000382D35412020202000000000202020C8C9
:10348000C1DDCF3232302F32342D32344120202072
:1034900000000000202020C8C1DDCF3232302F32A2
:1034A000342D31324120202000000000202020C88F
:1034B000C1DDCF3232302F34382D3430412020203E
:1034C00000000000202020C8C1DDCF3232302F366E
:1034D000302D34304120202000000000202020C862
:1034E000C1DDCF3232302F34382D32304120202010
:1034F00000000000202020C8C1DDCF3232302F363E
:10350000302D32304120202000000000202020C833
:10351000C1DDCF3232302F32342D353041202020E2
:1035200000000000202020C8C1DDCF3232302F3211
:10353000342D32354120202000000000202020D2F0
:10354000E8EF20EDE5E8E7E2E5F1F2E5ED20202007
:1035500000000000C4E0F2E020E8E7E3EEF22E20F5
:1035600030212F30402F302300000000F8E0F1F12F
:10357000E82020202020532F4E30303030303F20A4
:1035800000000000D3CAD33230322E2B2820532F14
:103590004E3030303030292000000000CFCE2020C7
:1035A00020202020202076202020205B202020208A
:1035B00000000000C1CFD131202D20202020532F2A
:1035C0004E30303030303C2000000000C1CFD132CE
:1035D000202D20202020532F4E30303030303E2000
:1035E0000000000052533233322020202020207669
:1035F00020202024202020200000000043414E20D5
:10360000504448202D2020762020202520202020D6
:103610000000000043414E20534448202D202076D6
:103620002020205E202020200000000045746865D6
:10363000726E65742D2020762020202620202020E8
:103640000000000030220000DA0D08202A2A0000C5
:1036500040420F002A2A2A2A2A2A00002D2D2D2D29
:103660002D2D2D2D2D000000ED4FA3F5B8508838DD
:1036700002D1AFF2B82068E0A3F5B8507C3802D18F
:10368000AFF2B02061E0A3F59050D83802D1AFF28C
:10369000A4205AE0A3F59050CC3802D1AFF29C2080
:1036A00053E0A3F5B8507A3802D1AFF290204CE045
:1036B000A3F5B850753802D1AFF2882045E0A3F5E4
:1036C0009050CA3802D1AFF27C203EE0A3F5905072
:1036D000C53802D1AFF2742037E0A3F51060783816
:1036E00002D1AFF2682030E0A3F510606C3802D14F
:1036F000AFF2602029E0A3F59050E83802D1AFF294
:10370000542022E0A3F5B8508E3801D1C5A01CE0AA
:10371000A3F59050D43802D1AFF2402015E0A3F5C4
:10372000B8507F3801D1C5A00FE0A3F510609238E2
:1037300002D1AFF2282008E0A3F51060793802D159
:10374000AFF2202001E0AFF20C200290AFF2FC10AB
:103750000390AFF2E8100490BEA00590AFF2AC1059
:103760000690AFF298100790C0480EF1040E089032
:10377000BEE80E005BF825000CF0E4FAB7F90A0089
:10378000202805DA0022212180B20CF0D0F906E0D1
:103790004FF0FF322121AFF24C100CF002FBB7F9D1
:1037A0000C000D2805DA0022402180B20CF0BFF990
:1037B00006E04FF0FF324021AFF270100CF0F1FA4A
:1037C000B7F90E00642805DA0022232180B20CF03C
:1037D000AEF906E04FF0FF322321AFF290100CF06B
:1037E000E0FA8F4DA24F8035686AB84207DB6FF070
:1037F00004023F21AFF2A4100CF0D3FA03E0002240
:103800003F210CF01AF800222B214FF461700CF0CC
:103810008EF90022282130460CF089F9A86AB842B6
:1038200007DB6FF004022921AFF2D8100CF0B9FACF
:1038300003E0002229210CF000F8E86AB84207DB17
:103840006FF004023C21AFF2F4100CF0AAFA03E08E
:1038500000223C210BF0F1FF286BB84207DB6FF030
:1038600004023E21AFF214200CF09BFA03E0002288
:103870003E210BF0E2FF98F904004146032802D1F3
:103880004A78092A13D098F90110A1B1012915D05D
:1038900002291FD0032925D004292BD005292ED099
:1038A000062934D0072938D0082939D03EE071489C
:1038B00080F83C403AE078BB142238E0022835DA40
:1038C000C0F10100C0B202225FF00C010CF07CFAE2
:1038D00003F0C7B8022829DAC0F101000222C0B201
:1038E0000F21F3E7022821DAC0F101000222C0B261
:1038F0001221EBE7032819DAC0F1020012E00428D4
:1039000014DAC0F103000622C0B20321DEE7042866
:103910000CDAC0F1030005E008E0C0F1040001E0AA
:10392000C0F105000A22C0B21146CFE700220021F3
:103930000846CBE750A0029055A003905AA00490EF
:103940005FA0059064A0069069A007906EA0089003
:1039500073A0099078A00A907DA00B9082A00C9093
:1039600087A00D908CA00E9091A00F9096A0109023
:103970009BA01190A0A01290A5A01390AAA01490B3
:10398000AFA01590B4A01690B9A01790BEA0189043
:10399000C3A01990C8A01A90CDA01B90D2A01C90D3
:1039A000D7A01D90DCA01E90E1A01F90E6A0209063
:1039B000EBA02190F0A02290F5A02390FA4824904B
:1039C000FAA02590FFA02690022F02DD86F804C001
:1039D00002E0A94200DA317196F90440FFA00BEB36
:1039E0008401D1E901235BF824100CF0ABF901202C
:1039F0000CF09AFF96F9040014280FDABAF8500078
:103A00000022401C3C21544680B20CF090F8B4F8DF
:103A100062004FF000024FF02801EBE12CE20000C1
:103A200088C00720202020C8C1DDCF3232302F3699
:103A3000302D33304120202000000000202020C8FD
:103A4000C1DDCF3232302F36302D313541202020AC
:103A500000000000D3CAD330302B2E302820532F43
:103A60004E3030303030292000000000302200007D
:103A700040420F00DA0D082020D1F2E0EDE4E0F042
:103A8000F2EDFBE520202020202020200000000077
:103A900020C2F0E5ECFF20E820E4E0F2E020202066
:103AA000202020200000000020D1E8EDF5F0EEED10
:103AB000E8E7E0F6E8FF20202020202000000000BA
:103AC000202020E2F0E5ECE5EDE820E820E4E0F25B
:103AD000FB2020200000000020D1F2F0F3EAF2F3F6
:103AE000F0E02020202020202020202000000000C6
:103AF00020CCEDE5ECEEEDE8EAE0202020202020CF
:103B0000202020790000000020CEF1EDEEE2EDEE65
:103B1000E920E8F1F2EEF7ED2E204E3C0000000027
:103B200020C7E22EF1E8E3ED2E20202028202020DF
:103B3000202020200000000020CEF2EAEBFEF7E576
:103B4000EDE8E520F1E8E3EDE0EBE0200000000027
:103B50002020E0E2E0F0E8E82020202029202020BA
:103B6000202020200000000020C0CFC220E8F1F279
:103B7000EEF7EDE8EAEEE220202020200000000031
:103B8000205420EFF0EEE2E5F0EAE8202020F6E510
:103B9000EFE820200000000020E1E0F2E0F0E5E89E
:103BA000202020202071ECE8ED2E202000000000D5
:103BB00020556D61783D2020202020202021C2202A
:103BC00020202020000000002055E130B03D2020C2
:103BD000202020202040C2202020202000000000A3
:103BE0002055E13230B03D20202020202023C2206B
:103BF00020202020000000002055F1E8E3ED3D20CA
:103C000020202020205EC220202020200000000054
:103C100020556D696E2EF1E5F2E83D202026C22088
:103C2000202020200000000020556D61782EF1E555
:103C3000F2E83D202046C220202020200000000085
:103C4000205530E13D20202020202020203EC22091
:103C500020202020000000002049E1EA2E3D202005
:103C600020202020206AC0202020202000000000EA
:103C70002049E72EECE0F52E3D202020204AC020F0
:103C8000202020200000000020496D61783D202088
:103C900020202020205D4120202020200000000046
:103CA00020496D696E3D202020202020207BC020EF
:103CB0002020202000000000204BE2FBF02EE7E057
:103CC000F02E3D202020205B20202020000000003E
:103CD0002054E72EE2EAEB2EE02EF12E2021F120F7
:103CE000202020200000000020746D61783D2020FD
:103CF000202020202024B04320202020000000008D
:103D00002045746865726E65742020202020202074
:103D1000202020200000000020C2EDE5F8EDE8E5BD
:103D200020E4E0F2F7E8EAE820202020000000008C
:103D300020CFEEFDEBE5ECE5EDF2EDFBE920EA2D21
:103D4000EBFC2E200000000020E1E0F2E0F0E5E8CE
:103D500020202020202020202051252000000000AD
:103D600020C0E2E0F0E8E9EDFBE520F0E5EBE5203E
:103D7000202020200000000020D1E5F0E8E9EDFB44
:103D8000E9204E2020202020202020770000000065
:103D9000204D4F4442555320414452455353202017
:103DA0002020205700000000EFF2010020CAE0EBC5
:103DB000E8E1F0EEE2EAE820202020202020202088
:103DC0000000000020D2E5F1F22020202020202059
:103DD0002020202020202020000000002020202063
:103DE00020D3D1D2C0CDCEC2CAC8202020202020CE
:103DF0000000000008B1F94801E0F848401D0BF050
:103E0000D0FFB4F85A004FF000024FF0290108B17A
:103E1000F3A000E0F4A00BF0C4FF94F824005528B0
:103E20006BD06FF003027921F1A00BF0BAFF34F8E8
:103E3000520F0122212180B20BF079FE608801220D
:103E4000402180B20BF073FEA0880122232180B2B2
:103E50000BF06DFE608901225E2180B20BF067FEDF
:103E6000A0890022262180B20BF061FEE08B0122A6
:103E70003E2180B20BF05BFE0AF15804002220883C
:103E8000242180B20BF053FEA08902226A2180B265
:103E90000BF04DFEE08903225B2180B20BF047FE60
:103EA000208A01225D2180B20BF041FEA08A01220E
:103EB0007B2180B20BF03BFEE08A01224A2180B2D6
:103EC0000BF035FE608B0022212180B20BF02FFE1B
:103ED000E08B0022712180B20BF029FE20890022A4
:103EE000462180B20BF023FEB4F9200098B10022E5
:103EF000512180B20BF01BFE13E06FF00702792115
:103F0000BDA00BF04EFFBF4800227921B0F8700031
:103F10000BF00DFE8BE76FF001025121BAA00BF000
:103F200040FFB848002280307721406A0BF085FCC2
:103F3000B44800225721B0F87600FEF779B8B4A053
:103F40000290B9A00390BEA00490C3A00590A3481E
:103F5000509A1F3006902AB1A0F115029AF81C0061
:103F60004BF82020A94201DA317103E0022F01DD74
:103F700086F804C098F904400BEB8400D0E90123D3
:103F80005BF82410BAA0FEF77AB89AF809005446F4
:103F9000401CC0B28AF809000F2808D300200EF197
:103FA0000101C9B26072A177032900D3A077B64896
:103FB00002908A480A300390A07F20B1012804D0E3
:103FC000022817D003E0B1A000E0B6A0049002AD33
:103FD000BAA00ECD0BF0B6FE96F9010060B1012833
:103FE0000FD0022812D0032815D0042818D0052895
:103FF0001BD01EE0B7A0E9E7BC495E2081F82A008B
:1040000017E0BA485E2180F82D1012E0B7495E2013
:1040100081F830000DE0B5495E2081F8330008E0FA
:10402000B2495E2081F8360003E0B0495E2081F895
:104030003A00AF4D28784FF000024FF026010BF008
:1040400076FD287900225E210BF071FD287A00228E
:1040500025210BF06CFD287B00223C210BF067FD35
:10406000297E5E480022343000EB81003E210BF0B7
:1040700098FEA88B00227B210BF059FD207D0028A3
:104080007ED03A200BF0E9FA984C202525543A20AE
:104090000BF0E3FA25541BE45A4EB6F9720030B126
:1040A00001280DD002280DD0032813D00CE091A0D8
:1040B00002904A481F3003901538049005901BE089
:1040C00092A000E097A00290B6F97400092803D8E6
:1040D0009AA010E09FA0F6E7A0F10A02032A01D8F7
:1040E000A2A008E010F1090201D3A6A003E00C3061
:1040F000022801D8A9A003901C46A94201DA217127
:1041000003E0012F01DD84F8048041F26C000EF021
:104110009BFF0128A7A0049045D0ACA00590B1A0BA
:1041200006902E481F3007901538089094F9041017
:10413000B8A00BEB810253685BF82120AFA10BF014
:1041400001FEB6F97400002800DA404280B2002275
:1041500021210BF0ECFC41F274006178861E071FF0
:1041600041F26E08022920D00EF06EFF04B23046F4
:104170000EF06AFF05B238460EF066FF06B200E0A8
:1041800046E340460EF060FF00222321CDE90012F5
:1041900000B223462A4631460BF027FC5FF00200AE
:1041A0000CF0C2FB77E7A1A0B8E70EF04DFF05B217
:1041B00030460EF049FF06B238460EF045FF07B212
:1041C00040460EF041FFA17800B2491CC9B223223B
:1041D000CDE900212B4632463946DDE7D0F2010019
:1041E000E0E2F2EEEC2E0000F0F3F7ED2E0000001E
:1041F000E2FBEAEB2E000000F7E5F0E5E72079F1BD
:104200002E00000088C00720C2DBCACB2E000000B1
:1042100020C8C1DDCF3232302F36302D3132C02DA3
:10422000312F32200000000020C8C1DDCF323230F3
:104230002F36302D3132C02D322F322000000000B9
:1042400020C8C1DDCF3232302F34382D3132C02D6D
:10425000312F32200000000020C8C1DDCF323230C3
:104260002F34382D3132C02D322F32200000000083
:10427000D1D2C0CDC4C0D0D2CDDBC520D3D1D22EB7
:104280002DCAC82000000000CC18000020202020EB
:104290009A209C202D20E2FBE1EEF020202020201F
:1042A00000000000202020BF209D202D20F3F1F2EF
:1042B000E0EDEEE2EAE020200000000020D3D1D2C1
:1042C000C0CDCEC2CAC02020C2D0C5CCC5CDC8206A
:1042D000000000002020202020A420202D20E2FB30
:1042E000F5EEE4202020202000000000DA0D082058
:1042F0002040024020C2FBEAEBFEF7E5EDEE202075
:1043000020202020202020200000000020CFE5F0E9
:10431000E8EEE420202020202020203120F7E0F1CA
:104320000000000020CFE5F0E8EEE420202020206F
:10433000203120F1F3F2EAE80000000020D7E0F19C
:10434000EEE2EEE920EFEEFFF120474D542B212065
:104350000000000020CFE5F0E8EEE420202020203F
:104360003120EDE5E4E5EBFF0000000020D7E0F1AF
:10437000EEE2EEE920EFEEFFF120474D542B202135
:104380000000000020D7E0F1EEE2EEE920EFEEFFC2
:10439000F120474D542D21200000000020D7E0F1EE
:1043A000EEE2EEE920EFEEFFF120474D542D202103
:1043B0000000000020D1E8EDF5F0EEEDE8E7E0F6D2
:1043C000E8FF20F7E5F0E5E7000000002049502075
:1043D0003030302E3030302E3030302E3030232000
:1043E0000000000020D1E8EDF5F0EEEDE8E7E8F0A0
:1043F000EEE2E0F2FC20202000000000202020203F
:10440000C2D0C5CCC5CDC82028534E545029202039
:104410000000000020202020D1C8CDD5D0CECDC8AE
:10442000C7C0D6C8DF2020200000000020202020A8
:1044300020C8CDD2C5D0CDC5D2202020202020201C
:1044400000000000F3A202929AF822205646552A54
:1044500007D0F64A0392F64A0492059206927477C0
:1044600014E096F82320552AF2A2039206D0EF4AD0
:104470000492EF4A05920692022206E0F3A2049209
:10448000EA4A0592EA4A069203227277A94201DAC1
:10449000017103E0022F01DD80F804C093F90440AC
:1044A000F0A00BEB8401D1E901235BF824100BF0A1
:1044B00049FC01200CF038FA96F822004FF0000277
:1044C00055284FF021010CD0D948401F0BF069FC52
:1044D00096F823004FF0000255284FF0400103D01A
:1044E00085E0D3480A38F1E7D1480A380BF059FC87
:1044F000E24800222321B0F86E001EE5E0A20292FD
:10450000E5A20392EAA20492EFA20592F4A2069217
:10451000F94A079218320892F8A20992C44A153251
:104520000A92A94201DA017103E0022F01DD80F84D
:1045300004C093F90440F7A00BEB8401D1E90123F7
:104540005BF824100BF0FEFB01200CF0EDF9307845
:1045500030B301282AD06FF004022121F3A000BF5C
:104560000BF01FFC707838B301282BD06FF00402D9
:104570004021EEA00BF015FCB07848B301282DD0F7
:104580006FF004022321E9A00BF00BFCF07858B384
:1045900001282FD06FF004022821E4A002F088B88F
:1045A000A34821216FF00202401FD9E7A048212132
:1045B0006FF002020A38D3E79D4840216FF00202F3
:1045C000401FD7E79A4840216FF002020A38D1E72E
:1045D000974823216FF00202401FD5E7944823211A
:1045E0006FF002020A38CFE76FF0020228219048EC
:1045F000401FD3E76FF002022821FEE3CDA2029212
:10460000B1A20392BC4A049218320592BBA2069250
:10461000874A15320792A94201DA017103E0022F9D
:1046200001DD80F804C093F90450BAA00BEB8501BA
:10463000D1E901235BF825100BF084FB01200CF07D
:1046400073F9307810B1012805D00AE078480022CB
:104650002821401F03E07648002228210A380BF069
:10466000A0FB8AF8344016E5A94201DA197103E08B
:10467000022F01DD83F804C06D4BB4A21533B9A13C
:10468000BEA00BF05FFB01200CF04EF9307920B199
:10469000012807D003280AD00EE0654800223C21FB
:1046A000401F07E0624800223C210A3802E0002255
:1046B0003C219EA00BF075FB704802223A21B0F914
:1046C0007E0001F0BBBCA94201DA197103E0022FA0
:1046D00001DD83F804C0564BAEA21533B3A1B9A0D7
:1046E0000BF030FB01200CF01FF9707920B101288C
:1046F0000CD0022812D01BE000224021B7A00BF002
:1047000050FB5E491E208031088111E000224021CB
:10471000B4A00BF046FB40F2CA3106E00022402173
:10472000B2A00BF03EFB45F2555154488030018158
:1047300000222421AEA00BF034FB50480122B830F7
:104740003C2100880BF0F3F94C480122BC303E219B
:1047500000880BF0ECF900222321A748D1E1A942FF
:1047600001DA197103E0022F01DD83F804C0304B38
:10477000A2A215338DA1A7A00BF0E4FA01200CF042
:10478000D3F8B07920B1012809D0022812D01BE05B
:104790000022402191A00BF004FB1E2006E0002225
:1047A000402190A00BF0FDFA40F2CA30334980312D
:1047B000488109E0002240218CA00BF0F2FA2F483A
:1047C00045F25551803041810022242188A00BF010
:1047D000E8FA2A480122B8305B2140880BF0A7F99B
:1047E00026480122BC305D2140880BF0A0F9002250
:1047F000232185E18DA2029266A203927FA20492F8
:104800000B4A15320592A94201DA01711EE119E144
:104810000EE3000020C0CFC22031E920F3F0EEE229
:10482000E5EDFC20212020200000000030220000C7
:10483000DAF2010020C0CFC22032E920F3F0EEE22C
:10484000E5EDFC20402020200000000020CFE5F016
:10485000E8EEE420C0CFC232202020202023F72E13
:1048600000000000202020C0CFC220C8D1D2CED767
:10487000CDC8CACEC22020200000000088C007207A
:1048800020D0E5EBE520E0E22EB9312020202020E9
:10489000202020210000000020D0E5EBE520E0E210
:1048A0002EB93220202020202020204000000000AF
:1048B00020D0E5EBE520E0E22EB9332020202020B7
:1048C000202020230000000020D0E5EBE520F1E0CF
:1048D000ECEEEAE0EBE8E1F0EEE2EAE800000000EE
:1048E00020D0E5EBE520E1E0F2E0F0E5E820202053
:1048F0002020202800000000FC18000020C1CFD19B
:10490000312BC1CFD1322020202020202020202078
:10491000000000002020202020202020D2C5D1D25D
:10492000202020202020202000000000D0C0C1CE68
:10493000D72E000020D0E5EBE520E0E2E0F0E8FF34
:104940002020202028202020000000002049E1E035
:10495000F23D20202020202020202020203A41202D
:104960000000000020D0E5EBE520202020202020C2
:1049700020203C20202020200000000020D2C5D193
:10498000D220D1C0CCCECAC0CBC8C1D0CEC2CAC042
:10499000000000002055313D202020203CC220494D
:1049A000313D202020203EC0000000002055F03D79
:1049B000402020242020202020F8E8EC3D20202347
:1049C000000000002020202020D2C5D1D220C1CF5D
:1049D000D13120202020202000000000556D696E7C
:1049E00000000000556D6178000000005532300075
:1049F0002820202024290000CC0000102055323D22
:104A0000202020205BC22049323D202020205DC094
:104A1000000000002020202020D2C5D1D220C1CF0C
:104A2000D132202020202020000000002055F03D21
:104A3000402020242020202020202023202020214E
:104A400000000000022F01DD80F804C093F904503B
:104A5000F8A00BEB8501D1E901235BF825100BF0E1
:104A600071F901200BF060FFF07920B101280AD024
:104A7000022814D01EE000224021AFF2A0000BF06B
:104A800090F91E2007E000224021AFF2A8000BF0B1
:104A900088F940F2CA30ED49088148810AE00022D5
:104AA0004021AFF2B8000BF07CF9E84845F25551CF
:104AB0000181418100222421AFF2CC000BF071F979
:104AC000E24E012238363C2130880BF030F8351D9B
:104AD000012228883E210BF02AF8DD4800222321FC
:104AE000008880B20BF023F8708801225B210BF064
:104AF0001EF8688801225D210BF019F8002221219F
:104B0000D448008880B20BF012F8D3480122242147
:104B1000008880B20BF00BF88AF83540A3E5CFA2ED
:104B20000292D4A20392D9A20492DEA20592E34A91
:104B30000692A94201DA017103E0022F01DD80F83B
:104B400004C093F904000BEB8002121D5BF82010E7
:104B50000CCADBA00BF0F6F801200BF0E5FE0AF121
:104B60007A0400226088212180B20AF0E0FF2088C8
:104B70000022402180B20AF0DAFFA088002223211F
:104B800080B20AF0D4FFB148002224218038008886
:104B9000B3E4D1A20292D6A24BF82020DAA25A6046
:104BA000DFA29A60E4A2DA60A84AC44B803A5C466D
:104BB000B2F90020A9421044E54A4BF820300BEB33
:104BC000800042608260304601DA017103E0022F0A
:104BD00001DD80F804C096F9040004EB8001D1E9FE
:104BE00001235BF82010DBA0FDF749BADFA002909B
:104BF000E4A00390E9A00490EEA00590F3A0069035
:104C0000F8A00790FDA00890AC4834460990A9424E
:104C100001DA217103E0012F01DD84F8048094F9A9
:104C200004100BEB810253685BF82120F9A1FFA06F
:104C30000BF088F802200BF077FE94F902000022B6
:104C4000401C80B221210AF072FF804994F90200D1
:104C50001831095C69B19AF814006FF003024FF043
:104C6000400108B1F7A001E0B94844300BF099F8D1
:104C700007E0764900228C3131F9100040210AF01A
:104C80008DFD724994F902005C3131F81010F1B3D6
:104C90006FF001022321AFF6A8200BF082F800BFCD
:104CA0006A4994F90200683131F8101081B36FF04D
:104CB00001022421AFF6C8200BF073F8634994F980
:104CC000020074316FF0010231F810004FF05B0107
:104CD000A0B3AFF6E42000BF0BF063F85B4994F992
:104CE00002007A316FF0010231F810004FF05D01DF
:104CF00080B3AFF6043000BF0BF053F8534894F97B
:104D0000021080306FF0010230F8110001E00CE079
:104D100015E04FF0280100B3AFF62C300BF041F84E
:104D20004A4994F902008631F6E14849002262318D
:104D300031F9100023210AF031FDB1E708E04349C1
:104D400000226E3131F9100024210AF027FDB5E769
:104D5000BEA0C1E7FFE7BDA0CEE7BCA0DEE7BBA0D9
:104D60001CE4AFF6743019E4BAA00290BFA003901F
:104D7000C4A004908FA0059094A0069099A00790DD
:104D80009EA008904D4834460990A94201DA21714D
:104D900003E0022F01DD84F804C094F90450BFA0A1
:104DA0000BEB8501D1E901235BF825100AF0CAFF5E
:104DB00001200BF0B9FD94F902000022401C80B2E2
:104DC00021210AF0B4FE214994F9020040314FF04C
:104DD0000002085C4FF04001FF2828D0B5A000BFBA
:104DE0000AF0DFFF194994F9020092314FF00002F6
:104DF00031F810004FF0230100E0FBE3A8B1ADA0B3
:104E00000AF0CFFF114994F90200683131F810100F
:104E100061B16FF005022421AFF62C400AF0C1FF0A
:104E20000A4994F902009A3148E182E183E17EE186
:104E3000EFE30000202020D2C5D1D220C1CFD13154
:104E40002BC1CFD1322020200000000008C1072054
:104E5000CC000010CE000010D000001020C1E0F205
:104E6000E0F0E5E920202020202020202020204004
:104E70000000000020C8F1F2EEF7EDE8EAEEE220D3
:104E800020202020202020210000000020C4E0F26B
:104E9000F7E8EAEEE220F2E5ECEFE5F02E20202341
:104EA0000000000020D1F3F5E8F520EAEEEDF2E095
:104EB000EAF2EEE22020202400000000EFF20100E0
:104EC000202020202020D1D2D0D3CAD2D3D0C020BD
:104ED000202020200000000020C4E0F2F7E8EA20B3
:104EE000F2E5ECEFE5F02E204E312020000000002E
:104EF00020D1F3F5EEE920EAEEEDF2E0EAF2204E01
:104F0000312020200000000020D1F3F5EEE920EA56
:104F1000EEEDF2E0EAF2204E322020200000000008
:104F200020D1F3F5EEE920EAEEEDF2E0EAF2204ED0
:104F3000332020200000000020D1F3F5EEE920EA24
:104F4000EEEDF2E0EAF2204E3420202000000000D6
:104F5000DC1200002020C2CDC5D8CDC8C520C4C0F9
:104F6000D2D7C8CAC82020200000000020F2E5ECFB
:104F7000EFE5F0E0F2F3F0E0202020202040B04305
:104F80000000000020746D61782020202020202067
:104F9000202020202023B0430000000020746D69F1
:104FA0006E20202020202020202020202024B043FC
:104FB0000000000020D0E5EBE5202020202020206C
:104FC00020202020205B20200000000020C7E2F3EA
:104FD000EA2020202020202020202020205D2020CA
:104FE0000000000020C4E8F1EFEBE5E920202020DC
:104FF00020202020202820200000000020534E4D9B
:1050000050205452415020202020202020292020B0
:1050100000000000202020D2C5CCCFC5D0C0D2D304
:10502000D0DB204E21202020000000002020C2CD17
:10503000C5D8CDC8C920C4C0D2D7C8CA2020202016
:1050400000000000EDE5E8F1EFF02E00E2EAEB2EC3
:105050000000000020F2E5EAF3F92EF1EEF1F22E65
:1050600020402020202020200000000020E0E2E05E
:10507000F0E8E9EDEEE520F1EEF1F2EEFFEDE8E526
:10508000000000002020202020202020202D202390
:105090002020202020202020000000002020D1D32C
:1050A000D5CEC920CACECDD2C0CAD2204E21202012
:1050B00000000000EDE5E7E0ECEA2E0031F810001A
:1050C0006FF001024FF05B0180B3AFF6DC6000BF10
:1050D0000AF067FE94F90200A8496FF0010231F866
:1050E00010004FF05D0178B3AFF6FC600AF059FE96
:1050F000A24894F9021008306FF0010230F8110054
:105100004FF0280138B3AFF6187000BF0AF049FE1F
:105110009A4994F9020010316FF0010231F8100041
:105120004FF0290100287FF41CAE18E60DE094A092
:1051300056E693A064E691490022343931F9100013
:1051400024210AF02BFB6BE602E0AFF20010BFE770
:10515000AFF20810CAE7AFF20C10D7E78A4B49ACA0
:105160000DCB0DC489A002908EA0039093A0049053
:1051700098A005909DA00690A2A00790A7A00890D7
:10518000ACA00990B1A00A90B6A00B90BBA00C9067
:10519000C0A00D90C5A00E90CAA00F90CFA01090F7
:1051A000D4A01190D9A01290DEA01390E3A0149087
:1051B000E8A01590EDA01690F2A01790F7A0189017
:1051C000FD4CFC481990208C28B9FA480390A0F6B1
:1051D000547004900590A94201DA317103E0022F66
:1051E00001DD86F804C096F90450F4A00BEB8501AC
:1051F000D1E901235BF825100AF0A4FD01200BF092
:1052000093FB208C20B16FF002022121F1A003E07A
:105210006FF003022121F1480AF0C3FD608C20B138
:105220006FF002024021EBA003E06FF00302402187
:10523000EA480AF0B6FD7078022846D00021232003
:10524000CDE90001B4F92A30B4F92820B4F92610C8
:10525000B4F924000AF0C9FB7178242004293BD05A
:105260005FF00001CDE90001B4F93230B4F930202B
:10527000B4F92E10B4F92C000AF0B7FB717829208C
:1052800006292DD05FF00001CDE90001B4F96630A8
:10529000B4F96420B4F96210B4F960000AF0A5FB17
:1052A000B4F85C0000225B2180B20AF040FCB4F844
:1052B0005E0000225D2180B20AF039FCB4F93400AE
:1052C0006FF00D05FF280FD017E0B078401CC0B27A
:1052D0002321CDE90010B5E7B178491CC9B2C1E777
:1052E000B178491CC9B2CFE7E18EFF2905D1218FE2
:1052F000FF2902D1618FFF2913D0727825210B2A53
:1053000015D00022CDE90012B4F93A30B4F93820B2
:10531000B4F936100AF069FBB4F93C00FF280AD052
:1053200014E02A462521AEA00AF03BFDF4E7B2784E
:10533000521CD2B2E6E7E18FFF2907D1B4F8401042
:10534000FF2903D1B4F84210FF2914D071780D2938
:1053500012D000225E21CDE9001200BFB4F9423024
:10536000B4F94020B4F93E100AF03FFBB4F9440010
:10537000FF2802D05AE13EE144E14BE1AAC10720F7
:10538000E7E0ECEAEDF3F20038F301002045746841
:1053900065726E657420202020202020202021208E
:1053A000000000002044484350EAEBE8E5EDF2201D
:1053B000202020202020402000000000204950E034
:1053C000E4F0E5F1202020202020202020202020B3
:1053D0000000000020203030302E3030302E3030B1
:1053E000302E3030232020200000000020CCE0F1BF
:1053F000EAE020EFEEE4F1E5F2E820202020202092
:105400000000000020203030302E3030302E303080
:10541000302E3030242020200000000020D8EBFE69
:10542000E7202020202020202020202020202020B5
:105430000000000020203030302E3030302E303050
:10544000302E3030292020200000000020CFEEF048
:10545000F22EF7F2E5EDE8FF202020202020205B4F
:105460000000000020CFEEF0F22EE7E0EFE8F1E8D8
:10547000202020202020205D0000000020436F6DB0
:105480006D756E697479203C20202020202020201A
:105490000000000020C0E4F0E5F1E0F220E4EBFFC2
:1054A0002054524150204E31000000002020303066
:1054B000302E3030302E3030302E3030252020202D
:1054C0000000000020C0E4F0E5F1E0F220E4EBFF92
:1054D0002054524150204E32000000002020303035
:1054E000302E3030302E3030302E30305E202020C4
:1054F0000000000020C0E4F0E5F1E0F220E4EBFF62
:105500002054524150204E33000000002020303003
:10551000302E3030302E3030302E303026202020CB
:105520000000000020C0E4F0E5F1E0F220E4EBFF31
:105530002054524150204E340000000020203030D2
:10554000302E3030302E3030302E30302A20202097
:105550000000000020C0E4F0E5F1E0F220E4EBFF01
:105560002054524150204E350000000020203030A1
:10557000302E3030302E3030302E30302820202069
:105580000000000020CFE0F0EEEBFC20F3F1F2E0B1
:10559000EDEEE2EEEA202020000000002057454218
:1055A000E8EDF2E5F0F4E5E9F1E0203E20202020EE
:1055B000000000003022000088C0072020D3D1D294
:1055C000C0CDCEC2CAC82045746865726E657420AD
:1055D00000000000C2CACB2E0000000008420000FC
:1055E00020202020EDE5E0EAF2E8E2E5ED202020B1
:1055F0002000000074E12A465E21AFF21C000AF090
:10560000D0FBB3E6B178491CC9B25E22CDE90021D6
:10561000A4E6FEE3B4F84610FF2907D1B4F8481019
:10562000FF2903D1B4F84A10FF2914D0727826213B
:105630000F2A17D05FF00002CDE90012B4F94A300A
:10564000B4F94820B4F946100AF0CFF9B4F94C0087
:10565000FF280BD016E02A462621AFF27C000AF084
:10566000A0FBF3E7B278521CD2B2E5E7B4F84E10D3
:10567000FF2907D1B4F85010FF2903D1B4F8521014
:10568000FF2914D072782A21112A17D05FF0000266
:10569000CDE90012B4F95230B4F95020B4F94E10EB
:1056A0000AF0A3F9B4F95400FF280BD016E02A46FB
:1056B0002A21AFF2D4000AF074FBF3E7B278521C4F
:1056C000D2B2E5E7B4F85610FF2907D1B4F8581064
:1056D000FF2903D1B4F85A10FF2939D07278282154
:1056E000132A3CD05FF00002CDE90012B4F95A3021
:1056F000B4F95820B4F956100AF077F9D4490020CB
:1057000049AC0A5C2254401CC0B20928F9D30025D8
:105710008DF82D517078B2780A2824D000233C21CE
:1057200020460AF045F9CB4900200A5C2254401C6F
:10573000C0B20328F9D38DF827517078B2781528B4
:1057400013D000233E2149A80AF032F901F089B9AB
:105750002A462821AFF278100AF023FBCEE7B27870
:10576000521CD2B2C0E70123D9E70123EAE7BAA06D
:105770000290BFA00390C4A00490C9A00590304639
:10578000B9F11E0F03D14F9A0AB1CB4A0592CB4A09
:105790000692A94201DA017103E0022F01DD80F8CF
:1057A00004C096F90410C6A00BEB8102121D5BF831
:1057B00021100CCAFCF763BCC7A00290CCA00390D8
:1057C000D1A00490D6A00590DBA00690E0A00790A1
:1057D000E5A00890EAA00990EFA00A90B7483446E7
:1057E0000B90A94201DA217103E0022F01DD84F858
:1057F00004C094F90410EEA00BEB8102121D5BF8BB
:1058000021100CCA0AF09EFA01200BF08DF894F9D1
:1058100002000022401C80B221210AF088F994F98C
:105820000200E94D6FF002024FF0400135F8100020
:10583000C00702D0A1481F3801E0A0481A380AF07A
:10584000B0FA94F902006FF002024FF0230135F82C
:105850001000800702D599481F3801E097481A3890
:105860000AF09FFA94F902006FF002024FF024014F
:1058700035F81000400702D590481F3801E08F48E6
:105880001A380AF08EFA94F902006FF002024FF013
:10589000260135F81000000702D588481F3801E0BE
:1058A00086481A380AF07DFA94F902006FF0020275
:1058B0004FF0250135F81000C00602D57F481F388B
:1058C00001E07E481A380AF06CFA94F902006FF091
:1058D00002024FF05E0135F8100080067EF587AEBB
:1058E00076481F38A2E3B9A3BEA2C4A1C9A0F5E3BC
:1058F000CE4802906038039018300490183005901C
:10590000CB4806906D4807903046022F02DD80F8A4
:1059100004C002E0A94200DA017196F90410C5A0A2
:105920000BEB8102121D5BF821100CCA42E7C7A0E5
:105930000290CCA00390D1A00490D6A00590BEF117
:10594000000F1DD0D9A00690CCA00790DDA0089034
:10595000E2A00990C9A00A90E6A00B90EBA00C90E1
:10596000F0A00D90554AF5A0CDE90E02A2F1150068
:10597000954E11904D9BD63E1090302B04D005E0F3
:10598000F4A00690F9A0E0E7CDE90E208E48801F34
:10599000A1B1012912D0022910D0032910D0042965
:1059A0000ED005290CD006290CD007290AD00829C9
:1059B00008D0022F08DD80F804C008E0002105E0CF
:1059C000032103E0062101E0A94200DA017190F908
:1059D000041007460BEB8102121D5BF821100CCA64
:1059E000E8A00AF0AFF901200AF09EFFB6F87C00AB
:1059F0000122402180B20AF09AF802222321B6F94E
:105A00007E0009F063FE704D012264355B21288819
:105A10000AF08DF8688801225D210AF088F8A888CC
:105A200001227B210AF083F8E88801227D210AF017
:105A30007EF89AF82700554640B1287D30B16FF0C6
:105A400004022421D5A00AF0ACF9B3E1ACE10000D6
:105A5000F612082020E3072020D0E5EBE520B9313D
:105A600020202020202020202020202000000000B6
:105A700020D0E5EBE520B932202020202020202076
:105A8000202020200000000020D0E5EBE520B933E5
:105A90002020202020202020202020200000000086
:105AA00020C7E0E2EEE4F1EAE8E520F3F1F2E0ED10
:105AB000EEE2EAE800000000DC120000EFF2010074
:105AC000202020C0C2C0D0C8C9CDDBC520D0C5CBE6
:105AD000C52020200000000020C0E2E0F0E8FF2008
