:020000040000FA
:10000000786C0010C5010000C9010000CB010000A0
:10001000CD010000CF010000D10100000000000070
:10002000000000000000000000000000D3010000FC
:10003000D501000000000000D70100002FA500003E
:10004000DB010000DB010000DB010000DB01000040
:10005000DB010000EF390100DB010000D9220100C3
:10006000DB010000DB010000DB010000DB01000020
:10007000DB010000DB010000DB010000DB01000010
:10008000DB010000DB010000DB010000DB01000000
:10009000DB010000DB010000DB010000DB010000F0
:1000A000DB010000D91F0100DB010000DB010000C3
:1000B00025450100DB010000DB010000DB01000041
:1000C000DB01000000F002F800F06DF80AA090E8F3
:1000D000000C82448344AAF10107DA4501D100F003
:1000E00062F8AFF2090EBAE80F0013F0010F18BF63
:1000F000FB1A43F001031847B0D90300F0D90300FD
:100100000A444FF0000C10F8013B13F0070408BF3D
:1001100010F8014B1D1108BF10F8015B641E05D0DB
:1001200010F8016B641E01F8016BF9D113F0080F90
:100130001EBF10F8014BAD1C0C1B09D16D1E58BF22
:1001400001F801CBFAD505E014F8016B01F8016B59
:100150006D1EF9D59142D6D37047000000230024CC
:1001600000250026103A28BF78C1FBD8520728BFC7
:1001700030C148BF0B607047642915F01F86732992
:1001800016F05980002070471FB519F07BFF16F05C
:1001900041F904000020002119F05EFF401C60605E
:1001A0001FBD10B510BD16F010F91146FFF7ECFF9A
:1001B0000AF042FA16F042F903B4FFF7F2FF03BC6B
:1001C00016F046F908480047FEE7FEE7FEE7FEE7BF
:1001D000FEE7FEE7FEE7FEE7FEE7FEE70348044929
:1001E000024A044B70470000C5000000786A001006
:1001F000786C0010786A0010FEE710B517F072FDF9
:1002000017F012FE17F004FE17F07EFD17F0BEFD8A
:10021000AFF30080BDE8104017F0CCBD10B518F06A
:1002200069FC19F0E5FA18F0BDFCBDE8104018F0C3
:1002300035BE18F07DBB18F045B909B100207047F4
:1002400016F0FABD0020704790F900308B4200DABA
:10025000027090F90030934200DD0170704790F910
:1002600000308B4200DA017090F90010914200DDFD
:1002700002707047B0F900308B4200DA0180B0F9AB
:100280000010914200DD02807047B0F900308B42CF
:1002900000DA0280B0F90030934200DD018070473F
:1002A00003688B4200DA02600368934200DD01605C
:1002B000704700000FB41CB5084B06AA7B44694682
:1002C0000090059815F08DFF04460020694615F052
:1002D0009BFF20461CBC5DF814FB0000495F010039
:1002E00070B5064615F018FF0468054630460A2228
:1002F000002115F0A4FF2C6070BD7047FFFFFFFFC9
:1003000030B54E482021C0F8A01100BFD0F8A01190
:100310004906FBD500F180000322C0F8842048493B
:10032000C0F828114FF00001C0F82C114FF0010364
:10033000C0F88C30434C446003604FF0AA03C360A4
:100340004FF05504C460A0F1800000BFD0F8885081
:100350006D01FBD540F8802FC360C460C0F88810E1
:10036000394A4264C0F848118168A0F180006FEA00
:1003700011618A073549D0F80C2102F0030207D039
:1003800092B3012A46D0022A4AD0032A51D13BE037
:100390002AB1012A11D0022A27D0032A49D150F8C4
:1003A000882FC2F30E02521C53000268C2F30742A8
:1003B000521CB3FBF2F2264B0CE050F8882FC2F32C
:1003C0000E02521C53000268C2F30742521CB3FBD8
:1003D000F2F2204B5A43C36FA0F18800DBB203F165
:1003E0000103B2FBF3F223E00EE050F8882FC2F3D2
:1003F0000E02521C53000268C2F30742521CB3FBA8
:10040000F2F24FF4FA43E5E7D0F80421104BD2B2F0
:10041000521C0BE0D0F804210E4BD2B2521C05E066
:10042000D0F804214FF4FA43D2B2521CB3FBF2F2DB
:100430000A6043F23A01016030BD000000C00F4085
:10044000000002084F00030048F100411CC00720D3
:1004500000093D008096980010B54FF4027010F02E
:1004600063FAFB4C207040F20A2010F05DFA6070D5
:100470004FF4037010F058FAA07040F20E2010F004
:1004800053FAE0704FF4047010F04EFA207240F20C
:10049000122010F049FA60724FF4057010F044FA1F
:1004A000A07240F2162010F03FFAE0724FF4117083
:1004B00010F03AFA207140F2462010F035FA6071DF
:1004C0004FF4127010F030FAA07140F24A2010F090
:1004D0002BFAE07110BD002801DA404200B27047EB
:1004E000DC4A516C536C5B1A8342FBD37047DA4988
:1004F000112008727047D948C16941F44021C16197
:10050000C16941F44011C161D5480021C1604FF477
:100510004061C164022141614FF47A7282614FF4FB
:100520004872026242620122026541600921416013
:1005300070472DE9F04F0020CA4A85B04FF4F4719E
:1005400004461454401C00B28842FADBC648017EBF
:1005500071B100214FF0140C7A2301FB03F001EB81
:1005600081039B0001EB81041BB20CEB84045AE273
:10057000804690F824004FF00205C0074FF00306B4
:100580001BD098F81500002816D0B8483227CDE9BE
:100590000204CDE90076032118233A4608460FF0FD
:1005A00062FBB348CDE90204CDE9007603211823AC
:1005B000322208460FF057FBB8E0B8F97A00DFF8AE
:1005C0009492DFF8B0A20F27DFF8ACB2A9F10809C6
:1005D000012853DB1423002100941A460846019495
:1005E0000FF085FA1223012100941A46084601945F
:1005F0000FF07DFA99F8000010F03C0F0BD0C10607
:1006000011D598F81500F0B10F23CDE902A402210D
:100610001A46032013E09948CDE902040F23022172
:100620001A4603200BE010F00C0F0CD098F81500C0
:1006300048B10F23CDE902B402211A460846CDE99C
:1006400000750FF010FB8E48406DC00716D10B23CC
:1006500000221421092000940FF02EF800235B22C1
:100660001F21092000940FF027F898F805000423B3
:100670001330C1B2002209200FF076FAB8F97A00DF
:10068000022853DB142300941A46002117200194FA
:100690000FF02DFA122300941A460121182001941C
:1006A0000FF025FA99F8010010F03C0F0BD0C106AD
:1006B00011D598F81500F0B10F23CDE902A402215D
:1006C0001A46192013E06F48CDE902040F230221D6
:1006D0001A4619200BE010F00C0F0CD098F81500FA
:1006E00048B10F23CDE902B402211A461920CDE901
:1006F00000750FF0B8FA6248406D800716D40B23DE
:1007000000221421202000940EF0D6FF0023442262
:100710001F21202000940EF0CFFF98F8050004233D
:100720001330C1B2002220200FF01EFAB8F8780072
:10073000DFF820A1C1464FF00A0B4FF00108AAF1E3
:10074000800A00282CD00094142323220021322078
:1007500001940FF0CCF900940223032214213520D8
:1007600001940FF0C4F900940223032214214F20B6
:1007700001940FF0BCF999F824004F46800710D57A
:1007800099F8150000280BD032203949CDE9021420
:10079000CDE900060246182300212B200FF063FA52
:1007A00089E00B2300221421422000940EF084FFE4
:1007B000002322221F21422000940EF07DFFBAF96F
:1007C0007600002805DA7879042300221330C1B2BC
:1007D00005E078790423C0F12200C1B20222422050
:1007E0000FF0C2F9387A1E287ED2BAF90010A1F5AE
:1007F000AA42553A78D097F92500052190FBF1F0EF
:10080000ADF81000B9461422002104A8FFF732FD0C
:10081000CDE900844746BDF9103020220021332065
:100820000FF065F999F925000A282FDACDE900754E
:1008300009230C2205213D200FF059F999F92500D3
:1008400002238DE8910005210FA23D20039730E09F
:10085000342C082020C107200040024000C0024084
:10086000008001408EE9072020C0072099A10100E7
:100870002FA2010001A301001FA30100C5A20100D6
:1008800000C00920E3A201002025000064284FF0E9
:1008900009035EDACDE90075122205213A200FF036
:1008A00026F999F9250003238DE8B100FEA2052160
:1008B0003A200FF004FA00940E231B2202215C2040
:1008C00001940FF014F900231A1F08215C200094F2
:1008D0000EF0F2FE002304220821762000940EF090
:1008E000EBFE0023272200E043E01F214320009479
:1008F0000EF0E2FE6FF00F0300221F21692000942A
:100900000EF0DAFE99F807004D46C0F12200C1B2A0
:100910000423022269200FF027F94746BAF97E0026
:100920000421CDE90007CDE90217D0460523DFA257
:10093000162146200FF0C3F9B8F97C00642825DAA7
:10094000CDE9000704230521DAA25D20CDE9026785
:1009500025E0CDE900751822052137200FF0C7F8F2
:1009600099F9250004238DE8D1000521D3A2372071
:100970009FE7BAF97610CDE9026891FBFBF001B26E
:10098000CDE900180423CBA2052191E790FBFBF0F1
:1009900000B28DE8D1000423C6A205215A200FF031
:1009A0008EF92879401CC0B2287103281CD32C7101
:1009B0006879401CC0B268710D2800D36C71A879A9
:1009C000401CC0B2A871202800D3AC71E879401C4B
:1009D000C0B2E871112800D3EC71287A401CC0B273
:1009E0002872282800D32C7205B0BDE8F08FB54DD1
:1009F000B54FED5C05EB450517F81560165407EB90
:100A00004505401C6E781654401CAE781654401CA8
:100A1000EE781654401C2E791654401C6D791554EE
:100A2000401C5B1C1BB29C42E1DC491C09B204293E
:100A3000FFF692ADD8E72DE9F04FA44AD9B00521D1
:100A400012780020012491460DF1A80C052A03D04C
:100A5000B9F1210F02D005E09DA000E0A2A02A90EC
:100A600001200621A64D95F82460F20708D0A5A222
:100A70004CF8202000F1010001F10101C0B2C9B21F
:100A8000B20708D5A5A24CF8202000F1010001F121
:100A90000101C0B2C9B2320606D5A6A24CF8202088
:100AA000401C491CC0B2C9B2954AF832137813F001
:100AB0001C0F06D0A5A34CF82030401C491CC0B226
:100AC000C9B28F4AF832527812F01C0F06D0A5A294
:100AD0004CF82020401C491CC0B2C9B2A74A137868
:100AE0006D32012BB2F9002002D0022B03D00AE0B4
:100AF0004AB9A3A201E032B9A7A24CF82020401CB9
:100B0000491CC0B2C9B29D4A921D1378552B0AD117
:100B100002F199031B8833B9A5A34CF82030401C7F
:100B2000491CC0B2C9B25378552B0AD1934B9F339D
:100B30005B8833B9A4A34CF82030401C491CC0B2D8
:100B4000C9B29378552B0AD18C4B9F339B8833B90C
:100B5000A3A34CF82030401C491CC0B2C9B2D278C3
:100B6000552A0AD1854A9F32D28832B9A2A24CF8BE
:100B70002020401C491CC0B2C9B2A54A137833B129
:100B8000A4A34CF82030401C491CC0B2C9B2537811
:100B900033B1A6A34CF82030401C491CC0B2C9B2E6
:100BA000927822B1A7A2491C4CF82020C9B2AA7A97
:100BB000AA46521CD2B22846AA72142A09D300228D
:100BC0008272437A5B1CDBB243728B4201D38AF898
:100BD0000920DFF8A8810DF1080B08F13D08424615
:100BE00098F8000092F9045092F901100BEB850778
:100BF000292856D0002855D0414A0528527D5592C3
:100C0000424692F9022096464DD0424692F904306F
:100C100092F90120D31A062801F03482122801F03B
:100C20005184022801F0628442465278921E56B2E4
:100C30000D2801F07C84152801F09684112801F01C
:100C4000A084162801F0C084412801F0D3844428F0
:100C500001F04A85C146452801F06987284A41F2DA
:100C60007C7C803241F2D828B2F90820342802F086
:100C70008B83362802F0BE85032803F03D80204A8E
:100C80002528127D579203F0EE821D4A282892F8FB
:100C90001D8003F00D831B2803F092836F4F4828BB
:100CA000DEE05AE1FEE3FEE32020250020202020A4
:100CB00042000000202020410000000020202025CC
:100CC00000000000C6E807203DA301002BC207205A
:100CD00020C2FBF0E0E2ED2EE7E0F0FFE420207A16
:100CE0003A305A20000000002020CAEEEDF2F0EE6B
:100CF000EBFC20E5ECEAEEF1F2E820200000000039
:100D000020C00720202020C0E2E0F0E8FF20F1E52D
:100D1000F2E82121212020200000000020C0E2E094
:100D2000F0E8FF20E1E0F2E0F0E5E82121212020D9
:100D30000000000020C0F1E8ECECE5F2F0E8FF2054
:100D4000C0CAC121212120200000000020C0E2E013
:100D5000F0E8FF20E8F1F2EEF7EDE8EAE0204E31AE
:100D60000000000020C0E2E0F0E8FF20E8F1F2EE31
:100D7000F7EDE8EAE0204E32000000002BC107202A
:100D8000C2EDE5F82EF2E5ECEF2E4E31E7E0E2FBA6
:100D9000F8E5EDE000000000C2EDE5F82EF2E5EC2C
:100DA000EF2E4E31E7E0EDE8E6E5EDE00000000073
:100DB00020202020C0E2E0F0E8FF20D1CA20B93195
:100DC000202020200000000020202020C0E2E0F0B1
:100DD000E8FF20D1CA20B9322020202000000000E6
:100DE00020202020C0E2E0F0E8FF20D1CA20B93363
:100DF000202020200000000020202020C0E2E0F081
:100E0000E8FF20D1CA20B9342020202000000000B3
:100E100069C2072020C0E2E0F0E8FF20EFF0E5E43F
:100E2000EEF5F02E20B931200000000020C0E2E0F5
:100E3000F0E8FF20EFF0E5E4EEF5F02E20B93220E7
:100E40000000000020C0E2E0F0E8FF20EFF0E5E461
:100E5000EEF5F02E20B9332000000000CDED072084
:100E600003F00E831F2803F08C83202803F0D68420
:100E7000212803F00385222803F04A85232803F064
:100E80009085182803F00286B2F97C703E280BEB9F
:100E9000870C03F0358602F5A4725278521E52B2C6
:100EA0003F2803F05A86402804F08880462804F042
:100EB0003681492804F032844A2804F052842728D5
:100EC00004F0E5840B2804F0E7841C2804F0058571
:100ED000C8461E2804F0F286372804F01287FF4F18
:100EE0002A2897F8207004F044872B2804F08E8776
:100EF000FA4EDFF8EC93B6F94E603746761EB446EC
:100F000009F10106382804F0AC87392804F0C687B7
:100F10003A2805F079813B2805F099813C2805F0B5
:100F20004A8245463D2805F08A82082805F0458317
:100F30000928FBD01328F9D01428F7D03528F5D08C
:100F40001A28F3D00A2805F0D1832C2805F0D38382
:100F50004B2805F0D78305F0EBBBD1B1E14E012959
:100F60007DD0E14C02297BD003297AD0042979D0A5
:100F7000052978D00629EED0072975D0082974D024
:100F8000092973D00A2972D00B2971D00C2970D08D
:100F9000E1E7D6A3D5A2D5A1D4A00DF055FD00233D
:100FA000022219460AF116049AF816000DF05BFBAE
:100FB000A08E00230222012180B20DF054FB208E6E
:100FC00002220023114680B20DF04DFBCD480023D4
:100FD00007220088194680B20DF045FBCA4800235D
:100FE00007220088012180B20DF03DFBC748002395
:100FF00007220088022180B20DF035FBB74800239C
:1010000080300722B0F87400032180B20DF02BFB72
:10101000BF4800230A22194600780DF024FBBD4882
:1010200000230A22012100780DF01DFBBA4800239D
:101030000A22022100780DF016FBB84C002313227F
:10104000207819460DF00FFB607800231322012150
:101050000DF009FB00231322A07802210AE01CE016
:101060005EE0BFE000E187E194E1DDE1E2E12BE257
:101070001BE358E30DF0F7FAA94C00231122208856
:1010800019460DF0F0FA60880023112201210DF0BD
:10109000EAFA0023A08811226CE1A24BA2A11A4611
:1010A000A6A00DF0D1FC308800230422194680B29E
:1010B0000DF0D9FAA74800231A4690F90000012143
:1010C00080B20DF0D0FA964C01231E3C0E222088EF
:1010D00000210DF0C8FA012360880E2219460DF098
:1010E000C2FA241D01232088132200210DF0BBFA2F
:1010F00001236088132219460DF0B5FA3C3C0A2200
:10110000207800210DF012FC60780A2201210DF0F8
:101110000DFC002301220221BAF87A0005F004BB7D
:1011200072A372A271A171A00DF08EFC0023208821
:10113000042219460DF097FA608800230422012149
:101140000DF091FAA0880023042202210DF08BFA01
:10115000E0880023042203210DF085FA0023208972
:10116000092219460DF07FFA608900230922012126
:101170000DF079FAA0890023092202210DF073FAFB
:10118000E0890023092203210DF06DFA0023208A53
:101190000E2219460DF067FA608A00230E22012103
:1011A0000DF061FAA08A00230E2202210DF05BFAF5
:1011B000E08A00230E2203210DF055FA0023208B34
:1011C000132219460DF04FFA608B002313220121E0
:1011D0000DF049FAA08B0023132202210DF043FAEF
:1011E000E08B5EE241A341A240A140A00DF02CFCA7
:1011F0000023208C042219460DF035FA608C002360
:10120000042201210DF02FFAA08C002304220221D8
:101210000DF029FAE08C0023042203210DF023FABB
:101220000023208D092219460DF01DFA608D002340
:10123000092201210DF017FAA08D002309220221B5
:101240000DF011FAE08D0023092203210DF00BFAB5
:101250000023208E0E2219460DF005FA00230E22DF
:10126000608E012105F062BA20A320A21FA13AA03E
:101270000DF0EAFB1A4C00234A3403222088012196
:101280000DF0F1F960880023032202210DF0EBF943
:101290000322A088002311460DF0E5F90023E08821
:1012A000082219460DF0DFF92089002308220121C8
:1012B0000DF0D9F960890023082202210DF0D3F93D
:1012C0000023A0890D2219460DF0CDF9E0890023F5
:1012D0000D2201210DF0C7F9208A49E020C0072026
:1012E0008EED072040C2072060E807202020202044
:1012F00020202020202020202020202020202020EE
:101300000000000054C2072050C2072056C2072028
:101310003CC207203DC207203EC207206FC2072003
:101320006EC107202AA1010020202020202020209B
:1013300020202020202020202020200032202020BB
:10134000202020202020202020202020202020209D
:101350000000000034C2072043414E2020202020FE
:1013600020202020202020202020202000000000FD
:1013700000230D22022175E7EBA3F1A2F6A1FCA048
:101380000DF062FB01222821FF48008880B20DF099
:1013900050FA05E0E4A3EAA2EFA1FCA00DF054FB93
:1013A00000222121FF48008880B20DF042FAFE4859
:1013B00000224021008880B20DF03BFAFB4C012254
:1013C000232120880DF035FA6088012224210DF0B8
:1013D00030FA241D0122208825210DF02AFA608888
:1013E00001225E210DF025FAB43C0122B4F874000C
:1013F0003C2180B20DF01DFA02223E21B4F97600A4
:101400000DF04EF878340D22207803210DF08EFA7D
:101410006078132203210DF089FA052203219AF83E
:1014200024000DF083FA96E5E14B1A461146084672
:1014300005F065B9AFF24C13AFF25012DDA1E3A095
:101440000DF002FBD048002308220088194680B224
:101450000DF009F9308800230822012180B20DF037
:1014600002F9D248002330381322C088194680B2CE
:101470000DF0F9F80AF1240400230F221946607CCC
:101480000DF0F1F8D7480023132290F8290001212C
:101490000DF0E9F800230F220121207C0DF0E3F884
:1014A000002301E091E2BBE313220221A07C0DF0B6
:1014B000DAF8002311220221E07C0DF0D4F8002399
:1014C000132203212078CDE6AFF2E013AFF2E4124D
:1014D000AFF2E811C4A00DF0B7FA98F902000023AA
:1014E000401C80B2032219460DF0BDF898F90200A5
:1014F000C34CC0EBC00000EB400004EB40000023F5
:10150000408C062219460DF0AEF898F9020000232F
:10151000C0EBC00000EB400004EB40000E228088CE
:1015200019460DF0A0F898F902000023C0EBC000A6
:1015300000EB400004EB40001322C08819460DF078
:1015400092F898F902000023C0EBC00000EB4000C5
:10155000042234F8100001210DF085F898F90200FA
:101560000023C0EBC00000EB400004EB4000092268
:10157000408801210DF077F898F902000023C0EBB4
:10158000C00000EB400004EB40000E220089012166
:101590000DF069F898F902000023C0EBC00000EBE1
:1015A000400004EB40001322008A01210DF05BF89B
:1015B00098F902000023C0EBC00000EB400004EBF0
:1015C00040000422408902210DF04DF898F90200F4
:1015D0000023C0EBC00000EB400004EB40000922F8
:1015E000808902210DF03FF898F902000023C0EB3A
:1015F000C00000EB400004EB40000E22C089022135
:101600000DF031F898F902000023C0EBC00000EBA8
:10161000400004EB40001322408A02210DF023F821
:1016200098F902000023C0EBC00000EB400004EB7F
:1016300040000422808A03210DF015F898F9020079
:101640000023C0EBC00000EB400004EB4000092287
:10165000C08A03210DF007F898F902000023C0EBBF
:10166000C00000EB400004EB40000E22008B032181
:101670000CF0F9FF98F902000023C0EBC00000EB6A
:10168000400004EB40001022C08B03210CF0EBFF64
:1016900098F90200C0EBC00000EB400004EB4000F2
:1016A000008C002313220321DCE556A002905BA0EE
:1016B000039060A0049065A005906AA006906FA0BA
:1016C000079074A03F1D08900ECF5BF825000DF029
:1016D000BBF936480222B0383F21B0F976000CF051
:1016E000DFFE724C606D002200F0010024210DF03D
:1016F000A0F82E4D2321383D28780DF005F9606DB6
:101700000022C0F3400040210DF093F868782121B9
:101710000DF0FAF8254C00224A2120880DF089F8B6
:1017200060880022C4E024E153742020202020207F
:1017300053743120202053743220202000000000F8
:1017400049E1202020203E20493120202025493217
:101750002020205E0000000055E1202020203C20B9
:101760005531202020235532202020240000000065
:10177000556E202020202820D83120202021D8324A
:10178000202020400000000050C20720706C202064
:1017900020202820D83120202021D832202020408D
:1017A000000000004CC207204EC2072050C1072095
:1017B0002AA101004374726C2020202020202020C8
:1017C000202020202020202000000000556E65638E
:1017D0002020202020202020202020202020202009
:1017E0000000000026F107204C422020202020206D
:1017F0002020202020202020202020200000000069
:1018000000F00720202020203F2020202020202022
:101810002024202320402021000000002020202020
:1018200020202020202020202020204A2020206A44
:101830000000000020202020202020202020202028
:10184000202020592020207900000000202020683E
:101850002020206D2020202020512071205A207A25
:101860000000000020202073202020532020202072
:10187000202020432020204400000000202020665B
:1018800020202046202020202020206320202064AB
:1018900000000000202020202020202020202020C8
:1018A00020412061204220620000000000C0092089
:1018B0006A210CF0BEFFDB4C0022592120780CF08D
:1018C000B8FF6078002279210CF0B3FFD64C0022DB
:1018D0006821206880B20CF0ACFFD44800226D2152
:1018E000006880B20CF0A5FFD14E00225121308853
:1018F0000CF09FFFCF4D0022712128880CF099FF3A
:10190000708800225A210CF094FF688800227A2106
:101910000CF08FFFC84E0022412130780CF089FF77
:10192000C64D0022612128780CF083FF70780022D8
:1019300042210CF07EFF6878002262210CF079FFD2
:101940002068002280B243210CF073FF60680022FF
:1019500080B244210CF06DFFB94C00226321206855
:1019600080B20CF066FF6068002280B2642104F04F
:1019700021BEB44B1A46114608460DF065F8B24C2C
:1019800020784FF000034FF0060219460CF06BFE72
:101990000023062201219AF81F000CF064FEB420F7
:1019A0000EF0C2FF80B20023062202210CF05BFE83
:1019B000A0880023102219460CF055FEB6200EF028
:1019C000B3FF002380B21022D4E4A0A00290A54867
:1019D000B0F90020B0F90200C82A05DDC82801DDF1
:1019E000A1A00CE0A6A00AE0C82801DDAAA006E09C
:1019F0009C48B038B0F97400C82801DDACA0029052
:101A0000B1A00390B6A00490BBA00590C0A04890E0
:101A1000C5A04990CAA04A90CFA04B90D4A04C90AA
:101A2000D9A0904A4D90DEA05A324E90137848A823
:101A30008C4F50F8233006935378B03F464650F809
:101A400023300793937850F823300893D37850F8D5
:101A500023300993137950F823300A93537950F8BF
:101A600023300B939279D4A350F822000C90B7F94D
:101A700006000BEB80000361D5A34361DAA3836109
:101A8000DFA3C361E4A30362E9A34362EEA383621D
:101A9000F3A3C362F8A303636A4B1533436321B115
:101AA000681A022804DD891C04E00020307102E07D
:101AB000A94200DD31719AF809005546052807D280
:101AC00096F904000BEB8000001D0EC8029809E097
:101AD00096F904100CEB80000BEB8101091D50F806
:101AE000140C0EC90CF0B0FF96F90400A0B196F9E1
:101AF000011089B1884203D1E54880F83C400BE0F1
:101B0000401A012802D0022804D005E0E04880F8FD
:101B1000284001E0DE480475DE4E0A240122B6F9B1
:101B200008006C2190FBF4F080B20CF082FEB6F954
:101B30000A00E8B390FBF4F000B2012240210CF05F
:101B4000AFFC07F17C0401226088232180B20CF0F5
:101B500070FE20880122242180B20CF06AFECE4C57
:101B600020784FF000024FF026010CF062FE207941
:101B700000225E210CF05DFE207A002225210CF06F
:101B800058FE207B00223C210CF053FE217E2D4884
:101B900000222A3000EB81003E210CF084FFA08B54
:101BA00000227B210CF045FE687D78B13A2000E0F0
:101BB00032E00CF0D4FBB64D20242C543A200CF02B
:101BC000CEFB2C543A200CF0CAFB2C54B34C4FF4EF
:101BD000616100222068B0FBF1F080B27A210CF044
:101BE00028FE21683C20B1FBF0F1B1FBF0F200FBD4
:101BF000121000225A210CF01CFECC200EF094FE94
:101C0000002380B2132219460CF02DFD002304227C
:101C10001946A34804F087BDB6F90C00404289E795
:101C200040E1000048C2072088C207205800001089
:101C30007AC2072076C207205C0000105E00001008
:101C400090C207202AA10100384002402020CDE5A3
:101C5000EEEFF0E5E4E5EBE5EDEDEEF1F2FC202052
:101C60000000000050C1072020C220F0E0E1EEF2A9
:101C7000E520C1CFD1312CC1CFD1322000000000EE
:101C800020202020C220F0E0E1EEF2E520C1CFD1FB
:101C9000312020200000000020202020C220F0E081
:101CA000E1EEF2E520C1CFD132202020000000007B
:101CB0002020D0E0E1EEF2E020EEF220E1E0F2E0E0
:101CC000F0E5E820000000002055E13D2020206CD8
:101CD000C22049E13D2020202040C020000000001B
:101CE0002055ED3D20202023C22049ED3D2020201D
:101CF0002024C020000000002030253A305E3A3019
:101D00002620303C2F3E20202F307B20000000007A
:101D100020C1E0F2E0F0E5FF204E3120202020201D
:101D2000202020200000000020C1E0F2E0F0E5FFCC
:101D3000204E3220202020202020202000000000E3
:101D400020C1E0F2E0F0E5FF204E332020202020EB
:101D5000202020200000000020C1E0F2E0F0E5FF9C
:101D6000204E3420202020202020202000000000B1
:101D700020C1E0F2E0F0E5FF204E352020202020B9
:101D8000202020200000000020C1E0F2E0F0E5FF6C
:101D9000204E36202020202020202020000000007F
:101DA00020C1E0F2E0F0E5FF204E37202020202087
:101DB000202020200000000020C1CFD13120202091
:101DC0002020202020202020202020200000000093
:101DD00020C1CFD1322020202020202020202020F0
:101DE000202020200000000020CDE0E3F0F3E7EA0F
:101DF000E0202020202020202020202000000000A3
:101E000020D1E5F2FC2020202020202020202020AE
:101E1000202020200000000020D1EFE5F6F4F3EDB3
:101E2000EAF6E8E820202020202020200000000002
:101E300020C6F3F0EDE0EB20F1EEE1FBF2E8E92063
:101E4000202020200000000020C1E0F2E0F0E5E9C1
:101E5000EDFBE920E6F3F0EDE0EB202000000000D0
:101E600020D3F1F2E0EDEEE2EAE82020202020206D
:101E7000202020200000000020D1E1F0EEF120E041
:101E8000E2E0F0E8E92020202020202000000000EF
:101E9000C6E8072000F007202040024080C207204B
:101EA00050C20720104602EB400202EB0010B74A76
:101EB00002EB800090F83D00C0070ED05598E0B1CD
:101EC000B34BB4A2B9A1BFA00CF0BEFD98F90200BB
:101ED0000022401C80B2232149E5CEEBCE00BF4D4D
:101EE00000EB400005EB4000828C5AB1559820B1C0
:101EF000A74BBBA2C0A1C6A0E6E7A54B1A46114658
:101F00000846E1E7B0F90A00002803DDC6A0039007
:101F1000CBA002E0D0A00390D5A00590DAA0049059
:101F2000DFA00690E4A00790E9A00890EEA0099039
:101F3000F3A00A90F8A00B90954815300C900BEB8D
:101F40008100FBA1D0E90123FFA00CF07DFD98F9F1
:101F500002000022401C80B240210CF06AFC98F97B
:101F600002000A26C0EBC00000EB400005EB400079
:101F70000122B0F90800242190FBF6F080B20CF0A9
:101F800058FC98F90200C0EBC00000EB400005EBE4
:101F90004001B1F90A00002801DCB1F90C0002226D
:101FA00023210CF07DFA98F902000022C0EBC0005A
:101FB00000EB400005EB40003F21B0F904000CF0BD
:101FC0006FFA98F902000022C0EBC00000EB40005D
:101FD00005EB40007721408A0CF02BFC98F90200B9
:101FE0000122C0EBC00000EB400005EB4000B0F95F
:101FF0000E10B0F9100041434FF47A7091FBF0F0ED
:1020000080B251210CF015FC98F80100082802D18B
:10201000D34880F83C4098F902000122C0EBC00090
:1020200000EB400005EB40005121C0890CF001FCA1
:1020300098F902000122C0EBC00000EB400005EB64
:1020400040003C21B0F9140090FBF6F080B20CF097
:10205000F0FB98F902000022C0EBC00000EB40004A
:1020600005EB40003E21008A0CF0E3FB98F90200EA
:102070000122C0EBC00000EB400005EB40005B21FB
:10208000C08A74E4B748BEF1000F406D05D0C0F3BC
:102090004000BEF1010F03D006E000F0010003E0B4
:1020A000BAF87A20012A02D048B1AFA008E0BAA25B
:1020B0000292BFA20392364AB1A0049228E0C2A0C5
:1020C000F20701D0C6A212E0CB4A12F80E20D606C3
:1020D00001D5CAA20BE0160701D5CEA207E056072C
:1020E00001D5D2A203E012F03C0F01D1D5A2029299
:1020F000DAA2C14E0392DFA2B61C049216F80E209B
:102100000AB1E2A200E0E7A20592214A1532069246
:10211000002B01DCA94201DA88F8041098F9045078
:102120000BEB8502121D5BF825100CCA0CF08CFC21
:1021300098F902000022401C80B221210CF079FBAA
:10214000AD4898F902103830012230F811004021D2
:102150000CF06FFBA84898F902103C30012230F8CF
:10216000110023210CF065FBA34898F902103430CC
:10217000002230F8110024210CF05BFB98F80100DC
:10218000022844F0D582764898E10000ECED072063
:102190002AA1010020202020EDE520EFEEE4EAEB6B
:1021A000FEF7E5EDE0202020202000002020202068
:1021B00020C1E0F2E0F0E5FF20B92320202020201C
:1021C0002020000020202020202020C0C2C0D0C815
:1021D000DF212020202020202020000000F00720E8
:1021E00020202020202020202020202020202020EF
:1021F00020202020202000002020202020EDE5208D
:10220000EFE5F0E5E4E0FEF2F1FF20202020000001
:102210002020D1E8E3EDE0EBFB20F2E5EBE5ECE597
:10222000F2F0E8E82020000020202020E7E0F0FF86
:10223000E6E0E5F2F1FF2020202020200000000051
:102240002049E7E0F03D2020202020202023C0204E
:102250002020202000000000202020F0E0E7F0FFF8
:10226000E6E0E5F2F1FF2020202020200000000021
:102270002049F0E0E7F03D20202020202023C0204E
:1022800020202020000000002055E1E0F2203D2029
:1022900020202024C2202020202020200000000018
:1022A0002074E1E0F2203D202020203FB043202098
:1022B000202020200000000020534F4320203D20FC
:1022C0002020207725202020202020200000000032
:1022D0002043E1E0F2203D2020202051C02AF720B9
:1022E000202020200000000020534F4820203D20C7
:1022F0002020203E2520202020202020000000003B
:1023000020496D6178203D202020203C4120202064
:1023100020202020000000002052425420203D2098
:102320002020205BF720202020202020000000001B
:10233000202020202020475946503438373520208F
:1023400020202020000000002020202020C1C0D21A
:10235000C0D0C5DF204E40202020202000000000FB
:10236000C6E8072000C0092020202020C1CFD121AD
:1023700020C2DBCACBDED7C5CD2020200000000064
:102380002020202020202020C1CFD132202020203A
:10239000202020200000000020202020CED2D1D3F9
:1023A000D2D1D2C2D3C5D2202020202000000000EC
:1023B0002020C220D1D2D0D3CAD2D3D0C520C8C108
:1023C000DDCF20200000000020202020C1CFD1211F
:1023D00020C2CACBDED7C5CD2020202000000000BF
:1023E00020E0E2E0F0E8FF20F1E5F2E82020202004
:1023F000202020200000000018C1072020E0E2E09B
:10240000F0E8FF20EFE5F0E5E3F0E5E22020202012
:102410000000000020E0E2E0F0E8FF2055E2FBF5DC
:102420003C55ECE8ED2020200000000020E0E2E038
:10243000F0E8FF2055E2FBF53E55ECE0EAF1202004
:102440000000000020F1EEF1F2EEFFEDE8E5202DB6
:1024500020EDEEF0ECE02020000000002055E8F137
:10246000F2203D2020202040C220202020202020BB
:10247000000000002049E8F1F2203D202020202328
:10248000C0202020202020200000000020C4D220D6
:10249000EDE5E8F1EFF0E0E2E5ED2020202020205E
:1024A000000000002074E8F1F2203D20202024B03C
:1024B00043202020202020200000000080F83C4005
:1024C00004F036B99AA3A0A2A5A1ABA00CF0BCFA67
:1024D000AF480122212180F83C40AE4C608880B298
:1024E0000CF0A7F90122402120881EE05546F00794
:1024F00019D0559808B1A8A000E0AC488CA3ACA2B4
:10250000B1A102900CF0A0FAA14805F14805002203
:1025100080F83C40A888232180B20CF08AF901227F
:102520004021288801E0AEA0E8E780B2D4E4B2A060
:102530000290B7A00390BCA004909C481530059071
:10254000022B02DD88F8046003E0A94201DA88F872
:10255000041098F90410BAA00BEB8102121D5BF86D
:1025600021100CCA03F0B3B9B9F1210F07D0BAA0FA
:102570008E4B0146029003F11502BDA0F2E7C2A006
:10258000F6E7C7480290C7A0039031B1012908D0EF
:1025900002290AD003290CD00FE0C8A00290CDA0D8
:1025A0000AE0D2A00290D7A006E0DCA00290E1A051
:1025B00002E0DAA00290E5A003900346B9A1B84872
:1025C000029A04F09CB800BFB9F1050F10D0A2A088
:1025D000764B024602901533E2A1E8A00CF034FAE3
:1025E00001200DF023F800222121BAF872009CE7A7
:1025F000A5A0EDE7E1A3E1A2E0A1E0A00CF024FAA0
:1026000004218AF81C109AF81F10012922D00229EF
:1026100022D003292DD006292DD00C292DD0DDA1C3
:10262000624802918AF81C401530039098F9041012
:10263000E4A00BEB810253685BF82120DBA10CF0D6
:1026400003FA98F9010098F90410884217DA88F81B
:1026500004001AE0E1A000E0E6A00290EBA00390E5
:10266000F0A00490AFF67010059050481530069019
:10267000DCE7F2A0F1E7F7A0EFE7FCA0EDE7411AF5
:10268000012902DD411E88F80410022801D188F8D2
:10269000040002200CF0CAFF3E4C00227C3C2521A5
:1026A000608A0CF0C6F800225E21A08A0CF0C1F806
:1026B00000222621E08A0CF0BCF800223C21208B6D
:1026C0000CF0B7F83948618B2A3000EB810000220A
:1026D0003E210CF0E8F900227B21A08B0CF0A9F838
:1026E00000222821E08BCCE440F602600EF01CF9B9
:1026F00001B25046AAF84E10402902DD0021A0F890
:102700004E10BAF94E0070B101280DD002280CD03D
:102710000CDD98F9011098F90420914207DA00BF06
:1027200088F80410DEE1ADE1B1E1BBE1E8E1D4E11C
:1027300020C2FBF5EEE420202020202020202020B5
:1027400020202020000000002049EDE0E3F03D20A3
:1027500020202020202040412020202000000000B8
:102760002055EDE0E3F03D2020202020202021C254
:102770002020202000000000202020202020CDC08C
:10278000C3D0D3C7CAC020202020202000000000D2
:10279000C6E807201CC10720202020C0C2C0D0C826
:1027A000DF20D1C5D2C82121212020002AA101008B
:1027B0002046F1E5F2E83D2020202020202040C3E3
:1027C000F6202020000000002055F1E5F2E83D2031
:1027D00020202020202023C22020202000000000D4
:1027E00020202020202020D1C5D2DC202020202025
:1027F000202020200000000020CAEEEDF2F0EEEBD9
:10280000FC20E5ECEAEEF1F2E820202000000000D8
:1028100020C2FBF0E0E2EDE8E2E0FEF9E8E920E7C3
:10282000E0F0FFE40000000020C0E2F22EE2FBF046
:10283000E0E2EDE8E22E20E7E0F0FFE40000000037
:1028400020202020D1CFC5D6D4D3CDCAD6C8C82009
:10285000202020200000000020C2FBEAEBFEF7E56C
:10286000ED2020202020202020202020000000001B
:102870002020CACECDD2D0CECBDC20C5CCCACED182
:10288000D2C820200000000020C2EAEBFEF7E5EDF0
:1028900020202020202020202020202000000000B8
:1028A000E80C0000202020EDE5E2EEE7ECEEE6E5A6
:1028B000ED212121202020200000000020202020C8
:1028C000CEF2F1F3F2F1F2E2F3E5F2202020202043
:1028D00000000000202020202020E1E0F2E0F0E5D0
:1028E000FF20202020202020000000002020202089
:1028F000202020C0E2E0F0E8FF202020202020203F
:10290000000000002020202020202020F1E5F2E817
:102910002020202020202020000000002020202037
:102920002020C1E0F2E0F0E5FF2020202020202040
:102930000000000020202020F0E0E7F0FFE6E0E5C6
:10294000F2F1FF2020202020000000002020202085
:1029500020E7E0F0FFE6E0E5F2F1FF202020202074
:102960000000000020E4EBE8F2E5EBFCEDEEF1F214
:10297000FC202D202021F72E0000000020C2DBD0FB
:10298000C0C2CDC8C2C0DED9C8C920C7C0D0DFC44C
:102990000000000020E2FBEAEBFEF7E5ED2020203E
:1029A000202020202020202000000000C2DBD0C0FA
:1029B000C2CDC8C2C0DED9C8C920C7C0D0DFC420BC
:1029C00000000000202020C0C2D2CECCC0D2C8D788
:1029D000C5D1CAC8C92020200000000020F0E0E7CF
:1029E00020E220ECE5F1FFF620202020202020200E
:1029F0000000000020F0E0E720E2203220ECE5F1CA
:102A0000FFF6E020202020200000000020E4EBE87A
:102A1000F2E5EBFCEDEEF1F2FC20202028F72E2071
:102A20000000000020EEF7E5F0E5E4EDEEE520E241
:102A3000EAEBFEF7E5EDE8E50000000020F0E0E756
:102A400020E2203320ECE5F1FFF6E02020202020DA
:102A50000000000020F0E0E720E220EFEEEBE3EEE4
:102A6000E4E02020202020200000000020F0E0E70B
:102A700020E220E3EEE4202020202020202020203F
:102A800000000000EE4BEFA103F1150203E0EC4A59
:102A9000F2A31532F7A1FDA00BF0D6FF002088F8B5
:102AA00004002DE098F9010098F90410884202DA38
:102AB00088F8040004E0411A022901DD801EF7E7CE
:102AC00098F9040010B1012803D019E0DC4B15334C
:102AD00011E0DB4AE1A315320EE08A1A022A01DD79
:102AE000891E1DE698F90410421E9142F1D0801E05
:102AF0008142EBD0EBA3F1A2DEA1E4A00BF0A4FF96
:102B000001200CF093FD98F8040028210CF077F8D0
:102B100098F804005B21401CC0B20CF070F898F8E3
:102B200004007B21801CC0B20CF069F8C8E4C44BDF
:102B30001A46114608460BF087FF4FF460600DF00F
:102B4000F3FE99F902104D464A42402100B20BF0C3
:102B500068FF400100F5806086B253A930460DF051
:102B600060FF57A9301D0DF05CFF4FA906F108006A
:102B70000DF057FF50A906F10C000DF052FF51A9BE
:102B800006F110000DF04DFF52A906F114000DF0F2
:102B900048FF56A906F118000DF043FF9DF84C01BF
:102BA000552808D0502843D042287DD053287CD0C7
:102BB00046287BD084E49DF84E015228B6D1C5A3A7
:102BC000CAA2D0A1D5A00BF03FFF9DF84001002282
:102BD00040210BF02EFE9DF84101002223210BF035
:102BE00028FE9DF84201002224210BF022FE9DF8D0
:102BF0003E01002225210BF01CFE9DF83C01002225
:102C00005E210BF016FE9DF83D01401E0C2801D3FD
:102C10008DF83D418A489DF83D112A3000EB810036
:102C2000002228210BF03FFF0020AAF84E0047E4C5
:102C30009DF84E014128BDD1BE480290A5A0039049
:102C40009DF84401412803D19DF8450141284FD00A
:102C500001220021281DFDF702FBB7A00490BCA0B3
:102C60000590C1A0069095F904500BEB8501091D54
:102C70005BF825000EC90BF0E7FE9DF84801002225
:102C80003E210BF0D6FD9DF8490100223D210BF0BD
:102C9000D0FD9DF84A01002229210BF0CAFD002237
:102CA0009DF846015B2102E03FE08EE22FE30BF04E
:102CB000C0FD9DF8440100223C210BF0BAFD9DF8B7
:102CC0004501401E0C2801D38DF845415C489DF814
:102CD00045112A3000EB810000225D210BF0E3FE5C
:102CE0009DF858019DF8591100EB012080B242E097
:102CF000A3A00490A8A002AD0346059007CD0BF059
:102D0000A3FEBAF84C0000222B2180B213E300BFCF
:102D10004B489DF83D112A3000EB8100002228210C
:102D20000BF0C1FEAAF84E4000E79DF84E01432883
:102D300009D0532822D05A2830D0052657287CD0D5
:102D40004B287BD0F2E6AFF25C40029098A019E0ED
:102D50008BA082E101220021281DFDF780FA76A0D8
:102D600005907BA030E000BF8DF845415AE000BFE0
:102D70009DF84D01401C00222B21DCE2AFF2944073
:102D8000029091A0039053A004909DF84401412823
:102D9000E0D19DF845014128DCD1D9E790A002900F
:102DA00095A003909AA004909DF84401412803D176
:102DB0009DF84501412842D001220021281DFDF740
:102DC0004EFA99A005909EA0069095F904500BEB41
:102DD0008501091D5BF825000EC90BF035FE9DF835
:102DE000480100223E210BF024FD9DF849010022FC
:102DF0003D210BF01EFD9DF84A01002229210BF018
:102E000018FD9DF8460100225B210BF012FD9DF894
:102E1000440100223C210BF00CFD9DF84501401EB1
:102E20000C28A1D206489DF845112A3000EB8100FC
:102E300000225D210BF037FE9AE715E14EE10BE130
:102E40002AA1010020C6F3F0EDE0EB20EFF3F1F250
:102E500020202020202020200000000020CEF7E8A5
:102E6000F1F2E8F2FC20E6F3F0EDE0EB2020202088
:102E700000000000202820202020202020202020CA
:102E8000202020202020202000000000202020C61C
:102E9000D3D0CDC0CB20D1CEC1DBD2C8C920202019
:102EA00000000000207B2020202020202020202047
:102EB000202020202020202000000000205B202057
:102EC0002020202020202020202020202020202002
:102ED0000000000020203025282020305E203040D7
:102EE0003A30233A30242020000000002020202007
:102EF00020202020C8C1DDCF20202020202020201D
:102F000000000000202020E8EBE820E2EAEBFEF7DA
:102F1000E5EDE8E520202020000000002020202012
:102F2000CFE5F0E5E7E0E3F0F3E7EAE0202020205A
:102F300000000000040D0000202020202020F3F1DC
:102F4000F2F0E0EDE5EDE020202020200000000080
:102F50002020305B5D2020303C20303E3A303D3A2E
:102F60003029202000000000202020202055ECE8FF
:102F7000ED3D20202BC2202020202020000000003A
:102F800020202020EDE520F3F1F2F0E0EDE5EDE08A
:102F90002020202000000000202020202055F1E5E6
:102FA000F2E83D20202BC22020202020000000003D
:102FB000202020202020E1E0F2E0F0E5E8202020A1
:102FC000202020200000000020E0F1E8ECECE5F2F9
:102FD000F0E8FF20E1E0F2E0F0E5E820000000008A
:102FE000202020C2FBF0E0E2EDE8E2E0FEF9E8E9B3
:102FF000202020200000000020202020202020E78A
:10300000E0F0FFE42020202020202020000000000D
:103010002030252F2820202F305E2030403A3023CA
:103020003A30242000000000202020202020E7E06B
:10303000E2E5F0F8E5ED202020202020000000004F
:1030400020305B2F5D20202F303C20303E3A303D39
:103050003A30292000000000D6A002AD03460590BA
:1030600007CD0BF0F1FC83E6D8A00290DDA0039021
:10307000E2A00490AFF268000590E6A00690EBA0F5
:103080000790F0A00890F5A00990FAA038E000BFE2
:103090008DF83D4169E000BF9DF84501002205EB38
:1030A000800077210BF0FFFCBDF85C0101227A2142
:1030B0000BF0BFFB9DF83F019DF84311012200EB8F
:1030C000012080B23C210BF0B4FBBDF85E0101226F
:1030D0003E210BF0AEFBAAF84E6027E5EB480290CC
:1030E000C0A00390C5A00490AFF2DC000590E8A05A
:1030F0000690CEA00790D3A00890EBA00990F0A076
:103100000A9095F904700BEB8700001D0EC85BF860
:1031100027000BF099FC9DF84D010022401C212155
:103120000BF087FB9DF84001002240210BF081FB52
:103130009DF84101002223210BF07BFB9DF8420109
:10314000002224210BF075FB9DF83E010022252171
:103150000BF06FFB9DF83C0100225E210BF069FB38
:103160009DF83D01401E0C2892D29DF83D01DA4D9C
:10317000002205EB800028210BF095FC9DF848010A
:10318000002269210BF055FB9DF8490100226C21BA
:103190000BF04FFB9DF84A01002273210BF049FB15
:1031A0009DF84601002271210BF043FB9DF844017C
:1031B000002272210BF03DFB9DF84501401E0C28BA
:1031C000FFF46AAF8DF8454166E7C4A002909DF810
:1031D0004E014C2806D0542806D0552806D0752814
:1031E00006D007E0C3A004E0C8A002E0CDA000E044
:1031F000D2A00390AFF2243004909DF844014128FE
:1032000003D19DF84501412878D001220021281DD5
:10321000FDF725F8AFF2E0200590AFF2CC20069044
:1032200095F904500BEB8501091D5BF825000EC9CB
:103230000BF00AFC9DF8480100223E210BF0F9FA40
:103240009DF8490100223D210BF0F3FA9DF84A0157
:10325000002229210BF0EDFA9DF8460100225B21A6
:103260000BF0E7FA9DF8440100223C210BF0E1FA53
:103270009DF84501401E0C2801D38DF845419DF86D
:1032800045119548002200EB81005D210BF00BFCFD
:103290009DF84D010022401C2B210BF0CAFA9DF82D
:1032A0004001002240210BF0C4FA9DF841010022A8
:1032B00023210BF0BEFA9DF84201002224210BF0DD
:1032C000B8FA9DF83E01002225210BF0B2FA9DF8D4
:1032D0003C0100225E210BF0ACFA9DF83D01401E3E
:1032E0000C2801D38DF83D419DF83D117A4800220C
:1032F00000EB8100282103F054B8FFE7AFF28030E3
:1033000002AD0346059007CD0BF09EFBC0E7AFF67C
:10331000242002908FA00390AFF24840049093487D
:1033200002AD0346059007CD0BF08EFB9DF84D01D5
:103330000022401C21210BF07CFA9DF84001002264
:1033400040210BF076FA9DF84101002223210BF079
:1033500070FA9DF84201002224210BF06AFA9DF8D0
:103360003E01002225210BF064FA9DF83C01002269
:103370005E210BF05EFA9DF83D01401E0C28FFF423
:10338000C7AC8DF83D41C3E4A2F5B850883801D1EF
:1033900077A06AE1624501D17BA066E1424501D197
:1033A0007FA062E1A2F59050CC3801D182A05CE10F
:1033B0000EE1000020202020EDE520E7E0E2E5F02E
:1033C000F8E5ED2020202020000000002020202013
:1033D000202020D0E0E7F0FFE42020202020202043
:1033E0000000000020202020202020E1E0F2E0F07A
:1033F000E5E82020202020200000000020CDE0F77C
:10340000E0EBEE2020202020202020202020202063
:10341000000000002020202020202020202055E136
:10342000E0F23D20203CC2200000000020CAEEED6A
:10343000E5F62020202020202020202020202020F1
:10344000000000002030712F7720202F30722030B4
:10345000693A306C3A3073200000000020202020B0
:1034600020202020202055E1E0F23D20203EC220F7
:103470000000000020202020CEF2E4E0EDEE20202D
:1034800020207AE02AF72E2000000000E80C00003F
:1034900020202020202020202055E1E0F23D202087
:1034A0003CC22020000000002020202020202020DE
:1034B0002055E1E0F23D20203EC220200000000027
:1034C00020A8ECEAEEF1F2FC20202020207AE02A6D
:1034D000F72E20200000000054A10100202020C071
:1034E000E2E0F0E8FF20C1CFD1204E2B20202020A9
:1034F000000000002020202020EEF2EAEBFEF7E89A
:10350000EBF1FF20202020200000000020202020C0
:103510002020EFE5F0E5E3F0E5E220202020202068
:1035200000000000202020E7E0E2FBF8E5EDEE20BF
:1035300055E2FBF52E20202000000000202020E78F
:10354000E0EDE8E6E5EDEE2055E2FBF52E2020204B
:103550000000000020EFF0E5E4EEF5F0E0EDE8F229
:10356000E5EBFF20B921202000000000EC12000054
:10357000202020C8C1DDCF3232302F36302D3234FA
:103580004120202000000000202020C8C1DDCF32D3
:1035900032302F36302D3132412020200000000003
:1035A000202020C8C1DDCF3232302F34382D3234C4
:1035B0004120202000000000202020C8C1DDCF32A3
:1035C00032302F34382D31324120202000000000CD
:1035D000A2F5B8507A3801D1A2A046E0A2F5B850C1
:1035E000753801D1A5A040E0A2F59050CA3801D1AC
:1035F000A8A03AE0A2F59050C53801D1ABA034E0C4
:1036000040F67810824201D1AEA02EE040F66C1157
:103610008A4201D1B1A028E0A2F59053E83B01D144
:10362000B4A022E0A2F5B853983B01D1B7A01CE0AA
:10363000A2F59053D43B01D1BAA016E0A2F5B8533D
:10364000843B01D1BDA010E0A2F51063923B01D1F3
:10365000C0A00AE0A2F51063793B01D1C3A004E049
:103660008242D1D08A42D5D0C6A00290CBA003908E
:10367000D0A00490D5A00590DAA00690DFA0079016
:10368000E4A00890E9A00990EEA00A90F3A00B90A6
:10369000F8A00C90AFF668703F1D0D900ECF4E460F
:1036A0005BF825000BF0D0F93079082802D1F748F3
:1036B00080F83C40F64CB4F90A00202805DA0022D4
:1036C000212180B20BF0B5F805E04FF0FF32212147
:1036D000F0A00BF0E8F9B4F90C000D2805DA00228F
:1036E000402180B20BF0A5F805E04FF0FF324021F9
:1036F000E8A00BF0D8F9B4F90E00642805DA00222E
:10370000232180B20BF095F805E04FF0FF32232122
:10371000E0A00BF0C8F9DE4CDF4D8034E069A84230
:1037200006DB6FF004023F21DCA00BF0BCF903E0E4
:1037300000223F210AF003FF00222B2109200BF079
:1037400078F80022282105200BF073F8206AA8429F
:1037500006DB6FF004022921D0A00BF0A4F903E0EE
:10376000002229210AF0EBFE206AA84206DB6FF056
:1037700004022921C9A00BF096F903E000222921B7
:103780000AF0DDFE606AA84206DB6FF004023C210D
:10379000C2A00BF088F903E000223C210AF0CFFE22
:1037A000A06AA84206DB6FF004023E21BBA00BF02A
:1037B0007AF903E000223E210AF0C1FE6FF0030413
:1037C00022465B21B7A00BF06EF922462421B5A05A
:1037D0000BF069F922462521B2A00BF064F92246CC
:1037E0005E21B0A00BF05FF922462621ADA00BF0C0
:1037F0005AF97DE2A64EA2F5B850883802D1AFF250
:10380000902086E1624502D1AFF2842081E14245F9
:1038100002D1AFF274207CE1A2F59050CC3802D1F5
:10382000AFF26C2075E1A2F5B8507A3801D10DA045
:103830006FE1A2F5B850753801D110A069E1A2F589
:103840009050CA3801D113A063E1A2F59050C53859
:1038500001D116A05DE1A2F51060783801D119A060
:1038600057E125E1202020C8C1DDCF3232302F368C
:10387000302D31304120202000000000202020C8C1
:10388000C1DDCF3232302F36302D3541202020207F
:1038900000000000202020C8C1DDCF3232302F349C
:1038A000382D31304120202000000000202020C889
:1038B000C1DDCF3232302F34382D35412020202049
:1038C00000000000202020C8C1DDCF3232302F326E
:1038D000342D32344120202000000000202020C858
:1038E000C1DDCF3232302F32342D31324120202011
:1038F00000000000202020C8C1DDCF3232302F343C
:10390000382D34304120202000000000202020C825
:10391000C1DDCF3232302F36302D343041202020DF
:1039200000000000202020C8C1DDCF3232302F340B
:10393000382D32304120202000000000202020C8F7
:10394000C1DDCF3232302F36302D323041202020B1
:1039500000000000202020C8C1DDCF3232302F32DD
:10396000342D35304120202000000000202020C8C8
:10397000C1DDCF3232302F32342D3235412020207C
:1039800000000000202020D2E8EF20EDE5E8E7E28B
:10399000E5F1F2E5ED20202000000000C4E0F2E0B7
:1039A00020E8E7E3EEF22E2030212F30402F3023A5
:1039B00000000000F8E0F1F1E82020202020532F43
:1039C0004E30303030303F2000000000D3CAD332B8
:1039D00030322E2B2820532F4E30303030302920DB
:1039E00000000000CFCE20202020202020207620A4
:1039F0002020205B2020202000000000C1CFD131FA
:103A0000202D20202020532F4E30303030303C20CD
:103A100000000000C1CFD132202D20202020532FC4
:103A20004E30303030303E200000000052533233F0
:103A3000322020202020207620202024202020201A
:103A40000000000043414E20504448202D202076A5
:103A500020202025202020200000000043414E206F
:103A6000534448202D2020762020205E2020202036
:103A70000000000045746865726E65742D20207624
:103A8000202020262020202000000000C6E807205B
:103A9000A0C007202A2A000040420F002A2A2A2A12
:103AA0002A2A00002D2D2D2D2D2D2D2D2D0000002D
:103AB000A2F510606C3802D1AFF2E01029E0A2F557
:103AC0009050E83802D1AFF2D41022E0A2F5B850FD
:103AD0008E3801D1DCA01CE0A2F59050D43802D180
:103AE000AFF2C01015E0A2F5B8507F3801D1DCA0CC
:103AF0000FE0A2F51060923802D1AFF2A81008E0F2
:103B0000A2F51060793802D1AFF2A01001E0AFF257
:103B10008C100290AFF27C100390AFF2681004900A
:103B2000D5A00590AFF22C100690AFF218100790B8
:103B3000D7483F1D08900ECF5BF825000AF084FFA0
:103B4000B6F90A003546202805DA0022212180B284
:103B50000AF06FFE06E04FF0FF322121AFF2CC00F9
:103B60000AF0A1FFB5F90C000D2805DA002240216A
:103B700080B20AF05EFE06E04FF0FF324021AFF265
:103B8000EC000AF090FFB5F90E00642805DA002277
:103B9000232180B20AF04DFE06E04FF0FF322321D0
:103BA000AFF210100AF07FFFBA4DBB4EE869B04289
:103BB00007DB6FF004023F21AFF220100AF073FF21
:103BC00003E000223F210AF0BAFC00222B214FF42F
:103BD00061700AF02EFE0022282105200AF029FE3D
:103BE000286AB04207DB6FF004022921AFF25410BB
:103BF0000AF059FF03E0002229210AF0A0FC686ABC
:103C0000B04207DB6FF004023C21AFF270100AF003
:103C10004AFF03E000223C210AF091FCA86AB0426E
:103C200007DB6FF004023E21AFF290100AF03BFF79
:103C300003E000223E210AF082FC99F90400494683
:103C4000032802D14A78092A13D099F90110A1B1A9
:103C5000012915D002291FD0032925D004292BD0F2
:103C600005292ED0062934D0072938D0082939D083
:103C70003EE08A4880F83C403AE078BB142238E0C5
:103C8000022835DAC0F10100C0B202225FF00C0157
:103C90000AF01CFF02F04CBD022829DAC0F1010035
:103CA0000222C0B20F21F3E7022821DAC0F101009D
:103CB0000222C0B21221EBE7032819DAC0F1020098
:103CC00012E0042814DAC0F103000622C0B2032176
:103CD000DEE704280CDAC0F1030005E008E0C0F1DB
:103CE000040001E0C0F105000A22C0B21146CFE78E
:103CF000002200210846CBE769A002906EA0039045
:103D000073A0049078A005907DA0069082A00790F3
:103D100087A008908CA0099091A00A9096A00B9083
:103D20009BA00C90A0A00D90A5A00E90AAA00F9013
:103D3000AFA01090B4A01190B9A01290BEA01390A3
:103D4000C3A01490C8A01590CDA01690D2A0179033
:103D5000D7A01890DCA01990E1A01A90E6A01B90C3
:103D6000EBA01C90F0A01D90F5A01E90FA481F90AB
:103D7000FAA02090FFA02190022B02DD89F80460B8
:103D800003E0A94201DA89F8041099F90410FFA0B0
:103D90000BEB8102121D5BF821100CCA0AF054FED5
:103DA00001200BF043FC99F9040011284ADABAF813
:103DB00052000022401C3C21544680B20AF039FDDA
:103DC000B4F862004FF000024FF0280110B1E24851
:103DD0001F3801E0E0481A380AF065FEB4F85C00CC
:103DE0004FF000024FF0290108B1EEA000E0EFA073
:103DF0000AF059FE94F82300552824D06FF00302EE
:103E00007921ECA00AF04FFE34F8540F0122212151
:103E100080B20AF00EFD60880122402180B20AF0D3
:103E200008FDA0880122232180B20AF002FD6089EA
:103E300001225E2180B20AF0FCFCA089002226212A
:103E400080B2BBE1C2E1FAE1202020C8C1DDCF325F
:103E500032302F36302D333041202020000000003A
:103E6000202020C8C1DDCF3232302F36302D313501
:103E70004120202000000000D3CAD330302B2E3048
:103E80002820532F4E3030303030292000000000E1
:103E90003027000020C1072040420F00C6E807205D
:103EA00020D1F2E0EDE4E0F0F2EDFBE5202020206F
:103EB000202020200000000020C2F0E5ECFF20E8D8
:103EC00020E4E0F2E020202020202020000000005C
:103ED00020D1F2F0F3EAF2F3F0E0202020202020BD
:103EE000202020200000000020CCEDE5ECEEEDE8E5
:103EF000EAE020202020202020202079000000005F
:103F000020CEF1EDEEE2EDEEE920E8F1F2EEF7ED94
:103F10002E204E3C0000000020C7E22EF1E8E3ED29
:103F20002E202020282020202020202000000000FB
:103F300020CEF2EAEBFEF7E5EDE8E520F1E8E3ED6F
:103F4000E0EBE020000000002020E0E2E0F0E8E804
:103F500020202020292020202020202000000000D8
:103F600020C0CFC220E8F1F2EEF7EDE8EAEEE22061
:103F70002020202000000000205420EFF0EEE2E599
:103F8000F0EAE8202020F6E5EFE82020000000001D
:103F900020E1E0F2E0F0E5E8202020202071ECE8CC
:103FA000ED2E20200000000020556D61783D20207E
:103FB000202020202021C2202020202000000000DE
:103FC0002055E1E0F26D6178203D20202040C220A4
:103FD00020202020000000002055E13230B03D209C
:103FE000202020202023C2202020202000000000AC
:103FF0002055F1E8E3ED3D2020202020205EC22066
:10400000202020200000000020556D696E2EF1E573
:10401000F2E83D202026C2202020202000000000C1
:10402000205530E13D20202020202020203EC220AD
:1040300020202020000000002049E1EA2E3D202021
:1040400020202020206AC020202020200000000006
:104050002049E72EECE0F52E3D202020204AC0200C
:10406000202020200000000020496D61783D2020A4
:1040700020202020205D4120202020200000000062
:10408000204B696D61783D2020202020207B20205E
:104090002020202000000000204BE2FBF02EE7E073
:1040A000F02E3D202020205B20202020000000005A
:1040B0002054E72EE2EAEB2EE02EF12E2021F12013
:1040C000202020200000000020746D61783D202019
:1040D000202020202024B0432020202000000000A9
:1040E0002045746865726E65742020202020202091
:1040F000202020200000000020C2EDE5F8EDE8E5DA
:1041000020E4E0F2F7E8EAE82020202000000000A8
:1041100020CFEEFDEBE5ECE5EDF2EDFBE920EA2D3D
:10412000EBFC2E200000000020E1E0F2E0F0E5E8EA
:1041300020202020202020202051252000000000C9
:1041400020C0E2E0F0E8E9EDFBE520F0E5EBE5205A
:1041500020202020000000003FA1010020CAE0EB49
:10416000E8E1F0EEE2EAE8202020202020202020D4
:104170000000000020D2E5F1F220202020202020A5
:1041800020202020202020200000000020202020AF
:1041900020D3D1D2C0CDCEC2CAC82020202020201A
:1041A00000000000E0E2F2EEEC2E0000F0F3F7ED8C
:1041B0002E000000E2FBEAEB2E0000000AF039FBC3
:1041C000608B01223E2180B20AF033FB0AF15A04CF
:1041D00000222088242180B20AF02BFB6089022271
:1041E0006A2180B20AF025FBA08903225B2180B2FC
:1041F0000AF01FFBE08901225D2180B20AF019FB61
:10420000208A01227B2180B20AF013FB608A0122FE
:104210004A2180B20AF00DFBE08A0022212180B2FF
:104220000AF007FB608B0022712180B20AF001FBCB
:10423000B4F91C0088B100225121FEF776B96FF065
:1042400007027921E6A00AF02EFCE8480022792135
:10425000B0F870000AF0EDFAD6E56FF001025121D6
:10426000E3A002F09EB8E4A00290E9A00390EEA0C3
:104270000490F3A00590F84806902AB1A0F1150229
:104280009AF81B004BF82020A94202DA89F80410A2
:1042900003E0022B01DD89F8046099F90410EFA016
:1042A0000BEB8102121D5BF821100CCA01F00FBB51
:1042B0009AF80B005446401CC0B28AF80B000F2835
:1042C00009D3002008F1010808F0FF01E0726177CE
:1042D000032900D36077E7480290DF481538039040
:1042E000607F20B1012804D0022817D003E0E2A0AB
:1042F00000E0E7A0049002ADEBA00ECD0AF0A4FB15
:1043000099F9010060B101280FD0022812D00328CA
:1043100015D0042818D005281BD01EE0E8A0E9E736
:10432000ED495E2081F82A0017E0EB495E2081F814
:104330002D0012E0E8495E2081F830000DE0E649EA
:104340005E2081F8330008E0E3495E2081F8360002
:1043500003E0E1495E2081F83A00E04D28784FF013
:1043600000024FF026010AF064FA287900225E214B
:104370000AF05FFA287A002225210AF05AFA287BEF
:1043800000223C210AF055FA297EB348002215305C
:1043900000EB81003E210AF086FBA88B00227B21E6
:1043A0000AF047FA607D00287ED03A2009F0D7FF56
:1043B000C94D20242C543A2009F0D1FF2C5469E433
:1043C000C7A002909AF821005746552808D0CA483D
:1043D0000390A14815380490059006903C7716E0AC
:1043E00097F822005528C5A0039007D0C248049032
:1043F0009948153805900690022007E0C5A0049062
:10440000BD48059094481538069003203877A94296
:1044100002DA89F8041003E0022B01DD89F8046058
:1044200099F90440C1A00BEB8401D1E901235BF8A9
:1044300024100AF009FB01200BF0F8F897F821008E
:104440004FF0000255284FF021010CD082481A3855
:104450000AF029FB97F822004FF0000255284FF090
:10446000400103D086E07C481F38F1E77A481F38C6
:104470000AF019FB5D4800222321B0F86E00DCE64B
:10448000B0A00290B5A00390BAA00490BFA0059080
:10449000C4A006907748C030079018300890C7A095
:1044A00009906D480A9000E0A8E3A94202DA89F871
:1044B000041003E0022B01DD89F8046099F904106F
:1044C000C4A00BEB8102121D5BF821100CCA0AF08C
:1044D000BBFA01200BF0AAF8387820B3012828D0C5
:1044E0006FF004022121C1A00AF0DDFA787830B320
:1044F00001282AD06FF004024021BCA00AF0D3FAB0
:10450000B87840B301282CD06FF004022321B7A063
:104510000AF0C9FAF87850B301282ED06FF00402DF
:104520002821B2A09DE64C4821216FF002021A38E2
:10453000DAE7494821216FF002021F38D4E74648E4
:1045400040216FF002021A38D8E7434840216FF04B
:1045500002021F38D2E7404823216FF002021A38C6
:10456000D6E73D4823216FF002021F38D0E76FF0F5
:104570000202282138481A3873E66FF00202282117
:104580003DE39CA0029081A003903A48C030049083
:104590001830059089A006902F480790A94202DAAA
:1045A00089F8041003E0022B01DD89F8046099F911
:1045B000045088A00BEB8501D1E901235BF825109D
:1045C0000AF042FA01200BF031F8387810B10128D6
:1045D00005D020E12048002228211A3819E115E1F0
:1045E000F7E5F0E5E72079F12E000000A0C00720F4
:1045F000C2DBCACB2E00000020C8C1DDCF32323072
:104600002F36302D3132C02D312F322000000000E6
:1046100020C8C1DDCF3232302F36302D3132C02D9F
:10462000322F32200000000020C8C1DDCF323230EE
:104630002F34382D3132C02D312F322000000000B0
:1046400020C8C1DDCF3232302F34382D3132C02D69
:10465000322F3220000000003FA10100D1D2C0CD96
:10466000C4C0D0D2CDDBC520D3D1D22E2DCAC82014
:1046700000000000F81C0000202020209A209C2030
:104680002D20E2FBE1EEF0202020202000000000A1
:10469000202020BF209D202D20F3F1F2E0EDEEE25E
:1046A000EAE020200000000020D3D1D2C0CDCEC24D
:1046B000CAC02020C2D0C5CCC5CDC8200000000093
:1046C0002020202020A420202D20E2FBF5EEE42055
:1046D0002020202000000000C6E8072020400240E3
:1046E00020C0CFC22031E920F3F0EEE2E5EDFC205E
:1046F00021202020000000003027000020C0CFC271
:104700002032E920F3F0EEE2E5EDFC20402020200D
:104710000000000020CFE5F0E8EEE420C0CFC23278
:10472000202020202023F72E00000000202020C081
:10473000CFC220C8D1D2CED7CDC8CACEC220202069
:104740000000000020D0E5EBE520E0E22EB93120AA
:1047500020202020202020210000000020D0E5EB98
:10476000E520E0E22EB93220202020202020204029
:104770000000000020D0E5EBE520E0E22EB9332078
:1047800020202020202020230000000020D0E5EB66
:10479000E520F1E0ECEEEAE0EBE8E1F0EEE2EAE859
:1047A0000000000020D0E5EBE520E1E0F2E0F0E5DC
:1047B000E8202020202020280000000020C1CFD1A8
:1047C000312BC1CFD13220202020202020202020BA
:1047D000000000002020202020202020D2C5D1D29F
:1047E000202020202020202000000000D0C0C1CEAA
:1047F000D72E000020D0E5EBE520E0E2E0F0E8FF76
:104800002020202028202020000000000022282135
:10481000FB480AF048F98AF83140D0E5A94202DAAB
:1048200089F8041003E0022B01DD89F80460F44BE1
:10483000F4A21F33F9A1FFA00AF006F901200AF043
:10484000F5FE387920B1012807D0032809D00EE001
:10485000EB4800223C21401D07E000223C21E848B3
:1048600003E000223C21AFF27C000AF01CF9F7487B
:1048700002223A21B0F9760001F078BAA94202DAB0
:1048800089F8041003E0022B01DD89F80460DC4B99
:10489000EFA21F33F4A1FAA00AF0D6F801200AF023
:1048A000C5FE787920B1012809D002280FD018E080
:1048B00000224021F8A00AF0F6F81E200EE00022A7
:1048C0004021F7A00AF0EFF840F2CA3006E00022DB
:1048D0004021F5A00AF0E7F845F25550DB49803158
:1048E000088000222421F1A00AF0DDF8D748012237
:1048F000B0303C21008809F09CFFD4480122B4303C
:104900003E21008809F095FF00222321E948AFE00D
:10491000A94202DA89F8041003E0022B01DD89F8CC
:104920000460B74BE4A21F33CFA1E9A00AF08CF8D2
:1049300001200AF07BFEB87920B1012809D00228B5
:104940000FD018E000224021D3A00AF0ACF81E20BE
:104950000EE000224021D2A00AF0A5F840F2CA30B1
:1049600006E000224021D0A00AF09DF845F2555003
:10497000B6498031488000222421CCA00AF093F867
:10498000B2480122B0305B21408809F052FFAF48A5
:104990000122B4305D21408809F04BFF0022232121
:1049A00065E0D1A00290AAA00390C3A0049094480F
:1049B0001F300590A94202DA89F8041003E0022BA7
:1049C00001DD89F8046099F90450CDA00BEB850155
:1049D000D1E901235BF825100AF036F801200AF02E
:1049E00025FEF87920B1012809D002280FD019E05E
:1049F00000224021A8A00AF056F81E200EE0002256
:104A00004021A7A00AF04FF840F2CA3006E0002289
:104A10004021A5A00AF047F845F255508B49803156
:104A20000880488000222421A0A00AF03CF8874D8D
:104A30000122B0353C21288809F0FBFE2E1D012201
:104A400030883E2109F0F5FE9A4800222321008893
:104A500080B209F0EEFE688801225B2109F0E9FED0
:104A6000708801225D2109F0E4FE00222121AA487C
:104A7000008880B209F0DDFEA848012224210088C8
:104A800080B209F0D6FE8AF8324098E4A4A00290E1
:104A9000A9A00390AEA00490B3A0059058481F3081
:104AA0000690A94202DA89F8041003E0022B01DD26
:104AB00089F8046099F904400BEB8400D0E90123E4
:104AC0005BF82410AEA009F0BFFF01200AF0AEFD94
:104AD0000AF1780400226088212180B209F0A9FE41
:104AE00020880022402180B209F0A3FEA088002285
:104AF000232180B209F09DFE00222421E088BEE43B
:104B0000A5A00290AAA24BF82720AFA2CCF80420BF
:104B1000B3A2CCF80820B8A2CCF80C20384ABAF9D5
:104B20007E401F323C4458464BF824200BEB840453
:104B3000B74A6260A2604A46A94201DA117102E0F6
:104B4000022B00DD167199F9044000EB8401B1A03D
:104B5000D1E901235BF82410C1E3B4A00290B9A00D
:104B60000390BEA00490C3A00590C8A00690CDA05D
:104B70000790D2A0089022484C461F300990A942C5
:104B800001DA217102E0012B00DD227194F9041099
:104B9000D6A00BEB810253685BF82120CDA109F070
:104BA00053FF02200AF042FD94F902000022401C4B
:104BB00080B2212109F03DFE94F90210D148002273
:104BC00030F91100402109F06BFCCE4994F9020044
:104BD000303931F8101079B16FF001022321AFF6AE
:104BE0002C2009F060FF00BFC64994F90200243967
:104BF00031F8101009B187E1C1E1CAE173E373E351
:104C000020A101002049E1E0F23D202020202020C9
:104C100020202020203A41200000000020D0E5EB99
:104C2000E52020202020202020203C2020202020A3
:104C30000000000020D2C5D1D220D1C0CCCECAC045
:104C4000CBC8C1D0CEC2CAC000000000A0C007209F
:104C50002055313D202020203CC22049313D2020DC
:104C600020203EC0000000002055F03D40202024C0
:104C70002020202020F8E8EC3D2020230000000028
:104C80002020202020D2C5D1D220C1CFD131202058
:104C90002020202000000000556D696E00000000FB
:104CA000556D61780000000055323000282020202A
:104CB000242900004CC207202055323D202020200E
:104CC0005BC22049323D202020205DC00000000052
:104CD0002020202020D2C5D1D220C1CFD132202007
:104CE00020202020000000002055F03D40202024FE
:104CF0002020202020202023202020210000000030
:104D0000202020D2C5D1D220C1CFD1312BC1CFD1CB
:104D100032202020000000004EC2072050C2072091
:104D200020C1E0F2E0F0E5E9202020202020202032
:104D3000202020400000000020C8F1F2EEF7EDE84E
:104D4000EAEEE22020202020202020210000000088
:104D500020C4E0F2F7E8EAEEE220F2E5ECEFE5F05D
:104D60002E2020230000000020D1F3F5E8F520EAF2
:104D7000EEEDF2E0EAF2EEE2202020240000000056
:104D8000202020202020D1D2D0D3CAD2D3D0C020FE
:104D9000202020200000000020C4E0F2F7E8EA20F4
:104DA000F2E5ECEFE5F02E204E312020000000006F
:104DB00020D1F3F5EEE920EAEEEDF2E0EAF2204E42
:104DC000312020200000000020D1F3F5EEE920EA98
:104DD000EEEDF2E0EAF2204E32202020000000004A
:104DE00020D1F3F5EEE920EAEEEDF2E0EAF2204E12
:104DF000332020200000000020D1F3F5EEE920EA66
:104E0000EEEDF2E0EAF2204E342020200000000017
:104E1000EC1200002020C2CDC5D8CDC8C520C4C02A
:104E2000D2D7C8CAC82020200000000020F2E5EC3C
:104E3000EFE5F0E0F2F3F0E0202020202040B04346
:104E40000000000020746D617820202020202020A8
:104E5000202020202023B0430000000020746D6932
:104E60006E20202020202020202020202024B0433D
:104E70000000000020D0E5EBE520202020202020AD
:104E800020202020205B20200000000020C7E2F32B
:104E9000EA2020202020202020202020205D20200B
:104EA0000000000020C4E8F1EFEBE5E9202020201D
:104EB00020202020202820200000000020534E4DDC
:104EC00050205452415020202020202020292020F2
:104ED00000000000202020D2C5CCCFC5D0C0D2D346
:104EE000D0DB204E21202020000000002020C2CD59
:104EF000C5D8CDC8C920C4C0D2D7C8CA2020202058
:104F000000000000A4C107206FF001022421AFF6C9
:104F10005C5009F0C8FD00BF94F90200F3496FF03E
:104F2000010231F810004FF05B0188B3AFF67C50FE
:104F300009F0B9FDED4994F90200891D6FF00102F5
:104F400031F810004FF05D0170B3AFF6985000BF1C
:104F500009F0A9FDE54894F902100C306FF0010248
:104F600030F811004FF0280100B3AFF6B85000BF81
:104F700009F099FDDD4994F902001231B1E0DB49F5
:104F80000022123931F91000232109F089FA2BE6A9
:104F900008E0D6490022891F31F91000242109F0C8
:104FA0007FFAB9E7D2A0C3E7D1A0D1E7D0A0DFE76D
:104FB000CFA001F0F6B9AFF60460FAE7CEA00290F8
:104FC000D3A00390D8A00490AFF258100590AFF290
:104FD00044100690AFF234100790AFF22010089002
:104FE000D7484C460990A94201DA217102E0022B10
:104FF00000DD267194F90410D2A00BEB8102121D82
:105000005BF821100CCA09F01FFD01200AF00EFB0D
:1050100094F902000022401C80B2212109F009FC11
:10502000B24994F9020034394FF00002085C4FF0A5
:105030004001FF285FD0C9A009F035FDAB4994F9C4
:10504000020026314FF0000231F810004FF023012A
:10505000F0B3C2A009F027FDA44994F902000C396D
:1050600031F81010A9B36FF005022421AFF6BC602F
:1050700009F019FD9D4994F902002E316FF00102EB
:1050800031F810004FF05B0120B3AFF6D86000BFDD
:1050900009F009FD954994F9020036316FF00102DB
:1050A00031F810004FF05D0190B3AFF6F86000BF2B
:1050B00009F0F9FC8D4894F902103E306FF00102BE
:1050C00030F811004FF0280138B3AFF6187002E045
:1050D00013E014E01DE009F0E6FC844994F90200B5
:1050E00046316FF0010231F810004FF0290100281D
:1050F0007FF461AF5CE79BA09EE79AA0AAE77B499B
:105100000022891F31F91000242109F0C9F9B1E703
:1051100001E077A0BCE776A0CAE775A0D7E7884C86
:1051200053AF493415CC15C790A0029095A00390B9
:105130009AA004909FA00590A4A00690A9A0079013
:10514000AEA00890B3A00990B8A00A90BDA00B90A3
:10515000C2A00C90C7A00D90CCA00E90D1A00F9033
:10516000D6A01090DBA01190E0A01290E5A01390C3
:10517000EAA01490EFA01590F4A05C4C1690F948AA
:10518000EC3C1790208C20B9F6480390F648049028
:1051900005904F46A94201DA397102E0022B00DD89
:1051A0003E7197F90450F1A00BEB8501D1E9012381
:1051B0005BF8251009F048FC01200AF037FA208C32
:1051C00020B16FF002022121EEA004E06FF0030293
:1051D0002121AFF6E43009F066FC608C20B16FF05D
:1051E00002024021E7A004E06FF003024021AFF685
:1051F000004009F058FC79782320022945D000218D
:10520000CDE90001B4F92A30B4F92820B4F9261008
:10521000B4F9240009F06BFA79782420042938D0F5
:105220005FF00001CDE90001B4F93230B4F930206B
:10523000B4F92E10B4F92C0009F059FA7978292024
:1052400006292AD05FF00001CDE90001B4F96630EB
:10525000B4F96420B4F96210B4F9600009F047FAB7
:10526000B4F85C0000225B2180B209F0E2FAB4F8E5
:105270005E0000225D2180B209F0DBFAB4F934004F
:105280006FF00D05FF280CD014E0B978491CC9B2A5
:10529000B6E7B978491CC9B2C4E7B978491CC9B2A4
:1052A000D2E7E18EFF2905D1218FFF2902D1618F3D
:1052B000FF2915D07A7825210B2A12D05FF0000241
:1052C000CDE90012B4F93A30B4F93820B4F9361007
:1052D00009F00DFAB4F93C00FF2803D06BE13FE27E
:1052E00054E159E15CE151E3CEE200008CC10720BA
:1052F000E2EAEB2E0000000020F2E5EAF3F92EF1DD
:10530000EEF1F22E2040202020202020000000007E
:1053100020E0E2E0F0E8E9EDEEE520F1EEF1F2EE7A
:10532000FFEDE8E5000000002020202020202020C4
:10533000202D2023202020202020202000000000DD
:105340003FA101002020D1D3D5CEC920CACECDD2D5
:10535000C0CAD2204E21202000000000EDE5E7E089
:10536000ECEA2E00E7E0ECEAEDF3F2002045746889
:1053700065726E65742020202020202020202120AE
:10538000000000002044484350EAEBE8E5EDF2203D
:10539000202020202020402000000000204950E054
:1053A000E4F0E5F1202020202020202020202020D3
:1053B0000000000020203030302E3030302E3030D1
:1053C000302E3030232020200000000020CCE0F1DF
:1053D000EAE020EFEEE4F1E5F2E8202020202020B2
:1053E0000000000020203030302E3030302E3030A1
:1053F000302E3030242020200000000020D8EBFE8A
:10540000E7202020202020202020202020202020D5
:105410000000000020203030302E3030302E303070
:10542000302E3030292020200000000020CFEEF068
:10543000F22EF7F2E5EDE8FF202020202020205B6F
:105440000000000020CFEEF0F22EE7E0EFE8F1E8F8
:10545000202020202020205D0000000020436F6DD0
:105460006D756E697479203C20202020202020203A
:105470000000000020C0E4F0E5F1E0F220E4EBFFE2
:105480002054524150204E31000000002020303086
:10549000302E3030302E3030302E3030252020204D
:1054A0000000000020C0E4F0E5F1E0F220E4EBFFB2
:1054B0002054524150204E32000000002020303055
:1054C000302E3030302E3030302E30305E202020E4
:1054D0000000000020C0E4F0E5F1E0F220E4EBFF82
:1054E0002054524150204E33000000002020303024
:1054F000302E3030302E3030302E303026202020EC
:105500000000000020C0E4F0E5F1E0F220E4EBFF51
:105510002054524150204E340000000020203030F2
:10552000302E3030302E3030302E30302A202020B7
:105530000000000020C0E4F0E5F1E0F220E4EBFF21
:105540002054524150204E350000000020203030C1
:10555000302E3030302E3030302E30302820202089
:105560000000000030270000EC12000020D3D1D250
:10557000C0CDCEC2CAC82045746865726E657420FD
:1055800000000000C2CACB2E000000002A462521E0
:10559000FFA009F088FA9DE6BA78521CD2B28FE6D5
:1055A000E18FFF2907D1B4F84010FF2903D1B4F8E7
:1055B0004210FF2913D079780D2916D000225E21E0
:1055C000CDE90012B4F94230B4F94020B4F93E10EC
:1055D00009F08DF8B4F94400FF280DD018E02A46F0
:1055E0005E21EBA009F05FFAF4E7B978491CC9B273
:1055F0005E22CDE90021E5E7B4F84610FF2907D186
:10560000B4F84810FF2903D1B4F84A10FF2914D088
:105610007A7826210F2A16D05FF00002CDE9001219
:10562000B4F94A30B4F94820B4F9461009F05FF8EB
:10563000B4F94C00FF280AD015E02A462621D4A050
:1056400009F031FAF4E7BA78521CD2B2E6E7B4F8BE
:105650004E10FF2907D1B4F85010FF2903D1B4F838
:105660005210FF2913D07A782A21112A15D000224E
:10567000CDE90012B4F95230B4F95020B4F94E100B
:1056800009F035F8B4F95400FF280AD015E02A468D
:105690002A21BFA009F007FAF4E7BA78521CD2B267
:1056A000E6E7B4F85610FF2907D1B4F85810FF29DF
:1056B00003D1B4F85A10FF2924D07A782821132A6C
:1056C00026D00022CDE90012B4F95A30B4F958209E
:1056D000B4F9561009F00BF8B24A002053A9135C34
:1056E0000B54401CC0B20928F9D300208DF8550195
:1056F0007878BA780A280FD000233C2153A808F004
:10570000D9FF35E32A462821A1A009F0CCF9E3E727
:10571000BA78521CD2B2D5E70123EEE7A2A00290DC
:10572000A7A00390ACA00490B1A005904846BEF19C
:105730001E0F03D1559A0AB1B34A0592B34A069295
:10574000A94201DA017102E0022B00DD067199F92C
:1057500004400BEB8400D0E901235BF82410ACA0DB
:10576000B5E0B1A00290B6A00390BBA00490C0A089
:105770000590C5A00690CAA00790CFA00890D4A01D
:105780000990D9A00A90A1484C460B90A94201DA91
:10579000217102E0022B00DD267194F90410D8A0DB
:1057A0000BEB8102121D5BF821100CCA09F04CF9B9
:1057B000012009F03BFF94F902000022401C80B256
:1057C000212109F036F894F90200D34D6FF002025E
:1057D0004FF0400135F81000C00702D08B481F3849
:1057E00001E08A481A3809F05EF994F902006FF076
:1057F00002024FF0230135F81000800702D58348DC
:105800001F3801E081481A3809F04DF994F9020077
:105810006FF002024FF0240135F81000400702D566
:105820007A481F3801E079481A3809F03CF994F9B0
:1058300002006FF002024FF0260135F81000000759
:1058400002D572481F3801E070481A3809F02BF968
:1058500094F902006FF002024FF0250135F81000B4
:10586000C00602D569481F3801E068481A3809F0B7
:105870001AF994F902006FF002024FF05E0135F858
:10588000100080067EF576AE60481F3866E2A3A35E
:10589000A8A2AEA1B3A0B5E3B848029048380390DF
:1058A00018300490B6480590584806904846022B98
:1058B00001DD067102E0A94200DA017199F90440A4
:1058C000B0A00BEB8401D1E901235BF8241009F0AF
:1058D000BBF8012009F0AAFE13E7B0485546029034
:1058E000B8F1000F4FD0AEA00390B3A00490AB4826
:1058F000894A18380590B6A00690AFA00790A7482F
:105900004E463030543A089012F80E00C8B33F4863
:10591000579A153809900AB1B3A209920A903B48E8
:105920000B9015380C900D9061B301292AD00229F3
:1059300028D0032928D0042926D0052924D00629D7
:1059400023D0072921D008291FD0092041B20BEB11
:1059500081023071121D5BF821100CCAA8A009F059
:1059600073F8012009F062FE96F902000022401C43
:1059700080B2212108F05DFF674896F902101E38B9
:105980004AE16CE170E166E170E171E13BE3000046
:1059900020202020EDE5E0EAF2E8E2E5ED202020FD
:1059A000200000001426082020D0E5EBE520B931C6
:1059B0002020202020202020202020200000000067
:1059C00020D0E5EBE520B932202020202020202027
:1059D000202020200000000020D0E5EBE520B93396
:1059E0002020202020202020202020200000000037
:1059F00020C7E0E2EEE4F1EAE8E520F3F1F2E0EDC1
:105A0000EEE2EAE800000000EC1200003FA1010015
:105A1000202020C0C2C0D0C8C9CDDBC520D0C5CB96
:105A2000C52020200000000020C0E2E0F0E8FF20B8
:105A3000F1E5F2E820202020202020400000000096
:105A400020C0E2E0F0E8FF20E1E0F2E0F0E5E8204D
:105A5000202020230000000020C0E2E0F0E8FF202A
:105A6000C1CFD120202020202020202400000000B1
:105A700020C0E2E0F0E8FF20EFF0E5E4EE2D20208A
:105A8000202020200000000020F5F0E0EDE8F2E505
:105A9000EBE5E92020202020202020260000000027
:105AA00020C0E2E0F0E8FF20F1F3F5E8F520202047
:105AB000202020200000000020EAEEEDF2E0EAF2D3
:105AC000EEE22020202020202020202500000000C1
:105AD00020C0E2E0F0E8FF20E2EDE5F8EDE5E920A6
