:020000040000FA
:10000000F816082021020000250200002702000047
:10001000290200002B0200002D0200000000000059
:100020000000000000000000000000002F0200009F
:1000300031020000000000003302000085AD000026
:1000400037020000370200003702000037020000CC
:10005000370200005B4D0100370200004536010009
:1000600037020000370200003702000037020000AC
:10007000370200003702000037020000370200009C
:10008000370200003702000037020000370200008C
:10009000370200003702000037020000370200007C
:1000A000370200003702000037020000370200006C
:1000B00091580100370200003702000037020000AB
:1000C0003702000000F002F800F09BF80AA090E868
:1000D000000C82448344AAF10107DA4501D100F003
:1000E00090F8AFF2090EBAE80F0013F0010F18BF35
:1000F000FB1A43F001031847205C0400605C040015
:100100000A444FF0000C10F8013B13F0070408BF3D
:1001100010F8014B1D1108BF10F8015B641E05D0DB
:1001200010F8016B641E01F8016BF9D113F0080F90
:100130001EBF10F8014BAD1C0C1B09D16D1E58BF22
:1001400001F801CBFAD505E014F8016B01F8016B59
:100150006D1EF9D59142D6D37047000000230024CC
:1001600000250026103A28BF78C1FBD8520728BFC7
:1001700030C148BF0B6070476E2918F0198670298E
:1001800018F0EC8666291EF0F78465291EF0F484C9
:1001900067291EF0F18461291EF0F084692918F0A6
:1001A000CB85642918F0C885752918F0C5856F2995
:1001B00018F07286782918F0C4860368DB0928BF16
:1001C00041F08001632919F06A85732919F06F8560
:1001D000E32919F07A85002070471FB51EF0C5FC91
:1001E00019F05EFE0400002000211EF01DFB401CE3
:1001F0006060002000211EF001FBE0601FBD10B513
:1002000010BD1AF063F91146FFF7E7FF0AF03CFE54
:100210001AF081F903B4FFF7F2FF03BC1AF086F974
:1002200008480047FEE7FEE7FEE7FEE7FEE7FEE7D9
:10023000FEE7FEE7FEE7FEE703480449024A044BF7
:1002400070470000C5000000F8560010F81608209E
:10025000F8140820FEE710B51CF0C8F91CF054FA99
:100260001CF046FA1CF0D4F9AFF30080BDE8104052
:100270001CF010BA10B51DF021F81DF091FE1DF014
:1002800075F8BDE810401DF0EDB91CF035BF1CF04D
:10029000FDBC09B1002070471BF004BA0020704774
:1002A0000FB41CB5084B06AA7B446946009005981C
:1002B00019F0D3FC04460020694619F0E1FC204601
:1002C0001CBC5DF814FB0000D599010009684A05C3
:1002D00001D540B27047C905FCD500B27047096826
:1002E0004A0501D5C0B27047C905FCD580B2704738
:1002F000704770477047704700207047FFFFFFFF4F
:1003000030B54E482021C0F8A01100BFD0F8A01190
:100310004906FBD500F180000322C0F8842048493B
:10032000C0F828114FF00001C0F82C114FF0010364
:10033000C0F88C30434C446003604FF0AA03C360A4
:100340004FF05504C460A0F1800000BFD0F8885081
:100350006D01FBD540F8802FC360C460C0F88810E1
:10036000394A4264C0F848118168A0F180006FEA00
:1003700011618A073549D0F80C2102F0030207D039
:1003800092B3012A46D0022A4AD0032A51D13BE037
:100390002AB1012A11D0022A27D0032A49D150F8C4
:1003A000882FC2F30E02521C53000268C2F30742A8
:1003B000521CB3FBF2F2264B0CE050F8882FC2F32C
:1003C0000E02521C53000268C2F30742521CB3FBD8
:1003D000F2F2204B5A43C36FA0F18800DBB203F165
:1003E0000103B2FBF3F223E00EE050F8882FC2F3D2
:1003F0000E02521C53000268C2F30742521CB3FBA8
:10040000F2F24FF4FA43E5E7D0F80421104BD2B2F0
:10041000521C0BE0D0F804210E4BD2B2521C05E066
:10042000D0F804214FF4FA43D2B2521CB3FBF2F2DB
:100430000A6043F23A01016030BD000000C00F4085
:10044000000002084F00030048F1004108000010BE
:1004500000093D008096980010B54FF4027012F02C
:100460006DFBFA4C207040F20A2012F067FB6070BE
:100470004FF4037012F062FBA07040F20E2012F0F5
:100480005DFBE0704FF4047012F058FB207240F2F4
:10049000122012F053FB60724FF4057012F04EFB05
:1004A000A07240F2162012F049FBE0724FF4117076
:1004B00012F044FB207140F2462012F03FFB6071C5
:1004C0004FF4127012F03AFBA07140F24A2012F081
:1004D00035FBE07110BD002801DA404200B27047E0
:1004E000DB4A916C936C5B1A8342FBD37047D9490A
:1004F000112008727047D848C16941F44021C16198
:10050000C16941F44011C161D4480021C1604FF478
:100510004061C164022141614FF47A7282614FF4FB
:100520004872026242620122026541600921416013
:1005300070472DE9F04F0020C94A85B04FF4F4719F
:1005400004461454401C00B28842FADBC548417E80
:1005500071B100214FF0140C7A2301FB03F001EB81
:1005600081039B0001EB81041BB20CEB840459E274
:10057000804690F825004FF00205C0074FF00306B3
:100580001BD098F81400002816D0B7483227CDE9C0
:100590000204CDE90076032118233A46084610F0FC
:1005A000FEF9B248CDE90204CDE900760321182313
:1005B0003222084610F0F3F9B6E0B8F97C00DFF813
:1005C000B0A20F27DFF8ACB2DFF88492012853DB2A
:1005D0001423002100941A460846019410F023F9D0
:1005E0001223012100941A460846019410F01BF9C9
:1005F00099F8000010F03C0F0BD0C10611D598F807
:100600001400F0B10F23CDE902A402211A46032001
:1006100013E09948CDE902040F2302211A46032072
:100620000BE010F00C0F0CD098F8140048B10F2319
:10063000CDE902B402211A460846CDE9007510F052
:10064000AEF98E48406DC00716D10B23002214214D
:10065000092000940FF0CCFE00235B221F2109200B
:1006600000940FF0C5FE98F8030004231330C1B2C4
:100670000022092010F014F9B8F97C00022853DB9D
:10068000142300941A4600211720019410F0CBF88F
:10069000122300941A4601211820019410F0C3F887
:1006A00099F8010010F03C0F0BD0C10611D598F855
:1006B0001400F0B10F23CDE902A402211A4619203B
:1006C00013E06F48CDE902040F2302211A461920D6
:1006D0000BE010F00C0F0CD098F8140048B10F2369
:1006E000CDE902B402211A461920CDE9007510F0B7
:1006F00056F96248406D800716D40B23002214215E
:10070000202000940FF074FE002344221F2120209B
:1007100000940FF06DFE98F8030004231330C1B26B
:100720000022202010F0BCF8B8F87A00C1464FF043
:100730000A0B4FF0010800282CD000941423232228
:1007400000213220019410F06EF80094022303225D
:1007500014213520019410F066F80094022303223E
:1007600014214F20019410F05EF899F825004F46AF
:10077000800710D599F8140000280BD032213B488F
:10078000CDE90016CDE902040A46182300212B20EA
:1007900010F005F98DE00B23002214214220009473
:1007A0000FF026FE002322221F21422000940FF08A
:1007B0001FFEDFF89CA0AAF1800ABAF97E0000288B
:1007C00005DAF878042300221330C1B205E0F87886
:1007D0000423C0F12200C1B20222422010F060F8CE
:1007E000B8791E287ED2BAF90210A1F5AA42553A6C
:1007F00078D097F92600052190FBF1F0ADF81000B4
:10080000B9461422002104A80FF0D2FDCDE90084DE
:100810004746BDF9103020220021332010F003F8A4
:1008200099F926000A282FDACDE9007509230C2250
:1008300005213D200FF0F7FF99F9260002238DE8EE
:10084000910005210FA23D20039730E0B814082045
:100850000CC107200040024000C00240008001405F
:100860005A0F08200CC007207DED010013EE010097
:10087000E5EE010003EF0100A9EE010000C0092030
:10088000C7EE01002025000064284FF009035FDA5D
:10089000CDE90075122205213A200FF0C4FF99F925
:1008A000260003238DE8B100FEA205213A2010F0B6
:1008B000A2F800940E231B2202215C2001940FF069
:1008C000B2FF00231A1F08215C2000940FF090FD56
:1008D000002304220821762000940FF089FD0023D4
:1008E000272200E044E01F21432000940FF080FD08
:1008F0006FF00F0300221F21692000940FF078FD94
:1009000099F805004D46C0F12200C1B2042302222D
:1009100069200FF0C5FFE44947468846B1F9061043
:1009200000910420CDE901700523E0A216214620A4
:10093000039710F060F8B8F90400642825DACDE9CF
:10094000000704230521DBA25D20CDE9026725E035
:10095000CDE900751822052137200FF064FF99F9C1
:10096000260004238DE8D1000521D4A237209EE77C
:10097000BAF97E10CDE9026891FBFBF001B2CDE936
:1009800000180423CBA2052190E790FBFBF000B2F6
:100990008DE8D1000423C7A205215A2010F02BF8BE
:1009A000A878401CC0B2A87003281CD3AC70E878AB
:1009B000401CC0B2E8700D2800D3EC702879401CB0
:1009C000C0B22871202800D32C716879401CC0B2B5
:1009D0006871112800D36C71A879401CC0B2A8714D
:1009E000282800D3AC7105B0BDE8F08FB54DB64FE7
:1009F000ED5C05EB450517F81560165407EB45054A
:100A0000401C6E781654401CAE781654401CEE788C
:100A10001654401C2E791654401C6D791554401CF8
:100A20005B1C1BB29C42E1DC491C09B20429FFF6A5
:100A300093ADD8E72DE9F04FA448CDB00522037857
:100A4000002101249E462AA8052B03D0BEF1210FC8
:100A500002D005E09EA100E0A3A12A910121062277
:100A6000A74D95F825309C46DB0708D0A5A340F894
:100A7000213001F1010102F10102C9B2D2B25FEAF3
:100A80008C7308D5A5A340F8213001F1010102F1D2
:100A90000102C9B2D2B25FEA0C6306D5A5A340F841
:100AA0002130491C521CC9B2D2B27F4B1E7816F0BD
:100AB0001C0F06D0A5A640F82160491C521CC9B2E3
:100AC000D2B2794B5B7813F01C0F06D0A5A340F887
:100AD0002130491C521CC9B2D2B2DFF8CC8108F1D6
:100AE000150808F1670398F80060B3F90030012E8B
:100AF00002D0022E03D00AE04BB9A0A301E033B923
:100B0000A4A340F82130491C521CC9B2D2B2664B92
:100B10001B331E78552E0AD103F18B06368836B961
:100B2000A2A640F82160491C521CC9B2D2B25E781C
:100B3000552E0AD15C4EA636768836B9A1A640F865
:100B40002160491C521CC9B2D2B29E78552E0AD1DE
:100B5000554EA636B68836B9A0A640F82160491C85
:100B6000521CC9B2D2B2DB78552B0AD14E4BA633F8
:100B7000DB8833B99FA340F82130491C521CC9B20D
:100B8000D2B2A24B1E7836B1A1A640F82160491C12
:100B9000521CC9B2D2B25E7836B1A3A640F8216029
:100BA000491C521CC9B2D2B29B7823B1A4A3521CD7
:100BB00040F82130D2B22B7AAB465B1CDBB229461F
:100BC0002B72142B09D300230B72CD796D1CEDB25F
:100BD000CD71954201D38BF80730334F0DF1080AE0
:100BE0004C373B463A7893F9045093F901100AEBDD
:100BF0008509292A52D0002A51D04148CC3B007D9A
:100C000001906420B3F90830042A93FBF0F60096B3
:100C100046D0384690F9046090F9017090F902804E
:100C2000BF1B052A3DD0112A01F0A881022A01F03C
:100C3000B98106464078801E4FFA80FC0C2A01F0EC
:100C4000D381142A01F0EC81102A01F0FA81152ACF
:100C500001F01882412A01F02B82442A01F0A0827F
:100C6000452A01F0BA847C48342A008886B202F012
:100C7000EB80DFF834E0362A0EF14C0E02F01883D8
:100C80007646032A02F0AC851D48252AC07C86469C
:100C900003F0AB801A48B146807FDFE06AE1FEE3F3
:100CA000FEE3FEE3202025000CC1072020202020A9
:100CB00042000000202020410000000020202025CC
:100CC00000000000920E082021EF01006BC20720F7
:100CD00020C2FBF0E0E2ED2EE7E0F0FFE420207A16
:100CE0003A305A20000000002020CAEEEDF2F0EE6B
:100CF000EBFC20E5ECEAEEF1F2E820200000000039
:100D00000CC00720202020C0E2E0F0E8FF20F1E541
:100D1000F2E82121212020200000000020C0E2E094
:100D2000F0E8FF20E1E0F2E0F0E5E82121212020D9
:100D30000000000020C0F1E8ECECE5F2F0E8FF2054
:100D4000C0CAC121212120200000000020C0E2E013
:100D5000F0E8FF20E8F1F2EEF7EDE8EAE0204E31AE
:100D60000000000020C0E2E0F0E8FF20E8F1F2EE31
:100D7000F7EDE8EAE0204E3200000000C2EDE5F8B1
:100D80002EF2E5ECEF2E4E31E7E0E2FBF8E5EDE088
:100D900000000000C2EDE5F82EF2E5ECEF2E4E313A
:100DA000E7E0EDE8E6E5EDE000000000202020208F
:100DB000C0E2E0F0E8FF20D1CA20B9312020202095
:100DC0000000000020202020C0E2E0F0E8FF20D159
:100DD000CA20B9322020202000000000202020203E
:100DE000C0E2E0F0E8FF20D1CA20B9332020202063
:100DF0000000000020202020C0E2E0F0E8FF20D129
:100E0000CA20B9342020202000000000A9C20720F9
:100E100020C0E2E0F0E8FF20EFF0E5E4EEF5F02E90
:100E200020B931200000000020C0E2E0F0E8FF20FF
:100E3000EFF0E5E4EEF5F02E20B9322000000000DE
:100E400020C0E2E0F0E8FF20EFF0E5E4EEF5F02E60
:100E500020B933200000000094F501000646282A3E
:100E600002F0EA87FF484B464078401E4FFA80F96F
:100E70004C2A03F067801A2A03F03A82482A03F0CA
:100E800093821F2A03F01083202A03F04483212A2F
:100E900003F07183222A03F0B883232A03F001842C
:100EA000172A03F09285F0483E2AB0F97E000AEB3B
:100EB000800303F0C4853F2A03F0EF85402A03F046
:100EC0009986462A04F08D80492A04F09A834A2A9A
:100ED00004F0BC83272A04F051840A2A04F05384C6
:100EE0001C2A04F06F841B2A04F0B786DD4E1E2AEC
:100EF00004F061871D2A04F08187372A04F0B38744
:100F0000D9482A2A90F8210004F0E3872B2A05F01B
:100F10002E80D548B046D54EB0F94C00431E382A35
:100F200005F04F80392A05F06A803A2A05F02A82B6
:100F30003B2A05F04B823C2A05F0FC8246463D2ABE
:100F400005F03D83072A05F06584082AFBD0122AA4
:100F5000F9D0132AF7D0352AF5D0192AF3D0092A67
:100F600005F07E842C2A05F080844B2A05F08484C9
:100F700005F0AFBC79B101297ED0BD4C02297CD0EF
:100F800003297BD004297AD0052979D0062978D085
:100F9000072977D0ECE7B7A3B6A2B6A1B5A00EF0AB
:100FA000B9FB0023022219460BF116049BF8170027
:100FB0000EF0BFF9608E00230222012180B20EF0F4
:100FC000B8F9E08D02220023114680B20EF0B1F98B
:100FD000AE48002307220088194680B20EF0A9F916
:100FE000AB48002307220088012180B20EF0A1F94E
:100FF000A848002307220088022180B20EF099F948
:101000009948002380300722B0F87C00032180B289
:101010000EF08FF9A04800230A22194600780EF03E
:1010200088F99E4800230A22012100780EF081F9F8
:101030009B4800230A22022100780EF07AF9994C8D
:1010400000231322207819460EF073F960780023EC
:10105000132201210EF06DF9A07800231322022142
:101060000EF067F97F4C0023A41D11222088194639
:101070000EF05FF9608806E00EE051E0B5E034E183
:101080004AE180E124E20023112201210EF051F90E
:101090000023A088112274E1834B84A11A4688A002
:1010A0000EF038FB8C48002304220088194680B2D9
:1010B0000EF03FF9894800231A4690F900000121FB
:1010C00080B20EF036F9674C0123183C0E222088BE
:1010D00000210EF02EF9012360880E2219460EF031
:1010E00028F9241D01232088132200210EF021F964
:1010F00001236088132219460EF01BF9383C0A229E
:10110000207800210EF078FA60780A2201210EF092
:1011100073FABBF87C0000230122022180B2E5E2D1
:1011200054A354A253A153A00EF0F4FA0023208834
:10113000042219460EF0FDF86088002304220121E4
:101140000EF0F7F8A0880023042202210EF0F1F837
:10115000E0880023042203210EF0EBF8002320890D
:10116000092219460EF0E5F86089002309220121C1
:101170000EF0DFF8A0890023092202210EF0D9F831
:10118000E0890023092203210EF0D3F80023208AEE
:101190000E2219460EF0CDF8608A00230E2201219E
:1011A0000EF0C7F8A08A00230E2202210EF0C1F82B
:1011B000E08A00230E2203210EF0BBF80023208BCF
:1011C000132219460EF0B5F8608B0023132201217B
:1011D0000EF0AFF8A08B0023132202210EF0A9F825
:1011E00000231322E08B032180E222A321A221A16C
:1011F00020A00EF08FFA0023208C042219460EF056
:1012000098F8608C0023042201210EF092F8A08C43
:101210000023042202210EF08CF8E08C002304222B
:1012200003210EF086F80023208D092219460EF0C6
:1012300080F8608D0023092201210EF07AF8A08D3C
:101240000023092202210EF074F8E08D0023092208
:1012500003210EF06EF80023208E0E2219460EF0A8
:1012600068F83DE058C107200CC007205B13082038
:101270002C0E08202020202020202020202020208C
:1012800020202020202020200000000094C20720E1
:1012900090C2072096C207207CC207207DC207208B
:1012A0007EC20720AFC207200EED010020202020C3
:1012B000202020202020202020202020202020004E
:1012C000322020202020202020202020202020200C
:1012D000202020200000000080C2072074C20720C8
:1012E00000230E22608E012100E2AFF27803AFF2FC
:1012F0007C02AFF28001AFF284000EF00BFA002303
:10130000132219465C469BF816000EF012F80023D3
:1013100013220121607DE9E1AFF2A803AFF2AC0234
:10132000AFF2B001AFF2B4000EF0F4F9F1480023CF
:101330000122007819460DF0FCFFEE480122C01C86
:101340000023007811460DF0F4FF98F80000002308
:10135000012202210DF0EDFFE64800234F30052267
:10136000008819460DF0E5FFE24800237930052298
:10137000008801210DF0DDFFDE4800235B300522EF
:1013800000880221B2E1DCA00290E1A00390E6A077
:101390000490EBA00590F0A00690F5A00790FAA0AD
:1013A00009F104090890B9E80E005AF825000EF07A
:1013B000B1F9D04802228F383F21B0F97E000DF0FC
:1013C000D5FEF74C606D002200F0010024210EF0E4
:1013D00096F8C84D23210F3D28780EF0FBF8606D7C
:1013E0000022C0F3400040210EF089F868782121E6
:1013F0000EF0F0F805F13404002220884A210EF0A6
:101400007EF8608800226A210EF079F8E54C00220F
:10141000592120780EF073F86078002279210EF0BF
:101420006EF8E14C00226821206880B20EF067F867
:10143000DE4800226D21006880B20EF060F8DC4DBD
:101440000022512128880EF05AF8DA4E002271212C
:1014500030880EF054F8688800225A210EF04FF8B8
:10146000708800227A210EF04AF8D34D00224121E3
:1014700028780EF044F8D14E0022612130780EF029
:101480003EF86878002242210EF039F87078002288
:1014900062210EF034F82068002280B202E043E0BE
:1014A00080E224E343210EF02AF86068002280B233
:1014B00044210EF024F8C24C00226321206880B23F
:1014C0000EF01DF86068002280B2642105F09FB91B
:1014D000BC4B1A46114608460EF01CF9BA4C20784F
:1014E0004FF000034FF0060219460DF022FF0023D3
:1014F000062201219BF820000DF01BFFB42011F003
:101500001DFB80B20023062202210DF012FFA088ED
:101510000023102219460DF00CFFB62011F00EFB2F
:10152000002380B210222CE7A8A20292714A253231
:10153000B2F90030B2F90220C82B05DDC82A01DD5E
:10154000A8A20CE0ADA20AE0C82A01DDB1A206E023
:10155000684A8F3AB2F97C20C82A01DDB3A2029210
:10156000B8A20392BDA20492C2A20592C7A206929B
:10157000CCA20792D1A20892D6A20992DBA20A922B
:10158000E0A20B92E5A20C92EAA20D92EFA20E92BB
:10159000F4A20F92F9A210928A4A1532119231B137
:1015A0006A1A022A01DD891C01E0A94200DD3971B5
:1015B0009BF807605D46052E07D297F904100AEBE9
:1015C0008100001D0EC8029809E097F9042000EB85
:1015D00086000AEB8201091D50F8140C0EC90EF0AA
:1015E00099F897F90410A1B197F9010088B18142E7
:1015F00003D1E84880F83C400BE0081A012802D0EB
:10160000022804D005E0E34880F8284001E0E148E2
:101610000475384C01228F3C6C21B4F87C0080B2F8
:101620000DF06DFF02224021B4F97E000DF09EFD09
:1016300080340122E088232180B20DF060FFA08871
:101640000122242180B20DF05AFFD34C20784FF0B4
:1016500000024FF026010DF052FF207900225E219A
:101660000DF04DFF207A002225210DF048FF207B50
:1016700000223C210DF043FF217E524800222A30F7
:1016800000EB81003E210EF074F8A08B00227B213C
:101690000DF035FF287D68B13A200DF0C6FCBD4C39
:1016A000202525543A200DF0C0FC25543A200DF099
:1016B000BCFC2554B94C4FF4616100222068B0FB9A
:1016C000F1F080B27A210DF01AFF21683C20B1FBC5
:1016D000F0F1B1FBF0F200FB121000225A210DF0E4
:1016E0000EFFAF4800231222007819460DF021FEAC
:1016F0003EE400001BC10720202020203F202020A6
:101700002020202020242023204020210000000031
:101710002020202020202020202020202020204A9F
:101720002020206A000000002020202020202020EF
:101730002020202020202059202020790000000097
:10174000202020682020206D202020202051207182
:10175000205A207A000000002020207320202053EF
:1017600020202020202020432020204400000000B2
:1017700020202066202020462020202020202063BA
:101780002020206400000000202020202020202095
:101790002020202020412061204220620000000003
:1017A00000C0092088C20720C8C2072060000010BE
:1017B000BAC20720B6C20720E0C20720E2C2072053
:1017C000D0C207200EED0100384002402020CDE5B8
:1017D000EEEFF0E5E4E5EBE5EDEDEEF1F2FC2020D7
:1017E0000000000020C220F0E0E1EEF2E520C1CFD1
:1017F000D1312CC1CFD13220000000002020202088
:10180000C220F0E0E1EEF2E520C1CFD1312020206E
:101810000000000020202020C220F0E0E1EEF2E5F0
:1018200020C1CFD132202020000000002020D0E0B5
:10183000E1EEF2E020EEF220E1E0F2E0F0E5E82077
:10184000000000002055E13D2020206CC22049E12D
:101850003D2020202040C020000000002055ED3D0C
:1018600020202023C22049ED3D2020202024C0201C
:10187000000000002030253A305E3A302620303C0F
:101880002F3E20202F307B200000000020C1E0F2FE
:10189000E0F0E5FF20202020202020202020202014
:1018A0000000000020C1CFD13120202020202020A6
:1018B00020202020202020200000000020C1CFD1A7
:1018C0003220202020202020202020202020202006
:1018D0000000000020CDE0E3F0F3E7EAE020202064
:1018E00020202020202020200000000020D1E5F230
:1018F000FC2020202020202020202020202020200C
:101900000000000020D1EFE5F6F4F3EDEAF6E8E898
:1019100020202020202020200000000020C6F3F0FE
:10192000EDE0EB20F1EEE1FBF2E8E92020202020C1
:101930000000000020C1E0F2E0F0E5E9EDFBE92065
:10194000E6F3F0EDE0EB20200000000020C2E5F01F
:10195000F1E8FF20CFCE20202020202020202020B2
:101960000000000020D3F1F2E0EDEEE2EAE82020F2
:1019700020202020202020200000000020D1E1F0A5
:10198000EEF120E0E2E0F0E8E92020202020202015
:1019900000000000920E082020400240C0C2072034
:1019A000E6130820BBF87A205D4652B15FEA8C72DC
:1019B00010D5924B019848B191A297A19CA004F038
:1019C00058BFA1A3A6A2ACA1B1A0F8E78B4A1146CB
:1019D0000846F4E7B4A20292B94A127852B1B9A209
:1019E0000392BEA20592C3A2049295F827202AB1C1
:1019F000C6A204E0CBA20392D0A2F3E7D5A206923E
:101A0000DAA20792DFA20892E4A20992E9A20A925E
:101A10008046EEA200980B92F2A230280C927748F2
:101A2000F6A2FC4E0D9200F115002FD0CDF8380033
:101A30000AEB8100001D0EC89BA00DF06BFEB6F8EE
:101A40007C000122402180B20DF059FD02222121AB
:101A5000B6F97E000DF08AFBB6F87A000022242148
:101A600080B20DF04CFD95F926000022772180B25E
:101A70000DF045FDB6F90200A0F5AA41553907D190
:101A80004A1E5121E4A00DF074FE06E00D90CFE750
:101A90000122512180B20DF032FDB6F9081091FB00
:101AA000F8F0302802D17978082904D03C2805D1F3
:101AB0007878092802D1DA4880F83C40D94C0122D4
:101AC0005B2120880DF01BFD608801225D210DF057
:101AD00016FDA08801227B210DF011FDE088012276
:101AE0007D210DF00CFD012220892921EEE4CE4854
:101AF000C84ECC36406DB8F1000F05D0C0F34000A1
:101B0000B8F1010F03D006E000F0010003E0BBF8DC
:101B10007C20012A02D048B1C4A008E0CFA20292E2
:101B2000D4A20392354AC7A004922AE0D7A05FEA64
:101B3000CC7201D0DBA213E0B64A803212F8082042
:101B4000D30601D5DDA20BE0130701D5E1A207E022
:101B5000530701D5E5A203E012F03C0F01D1E9A241
:101B60000292EEA20392F3A20492AA4A823212F8DF
:101B700008200AB1F5A200E0FAA205921F4A153228
:101B80000692002F01DCA94200DA317196F9045067
:101B90000AEB8502121D5AF825100CCA0DF0BAFD89
:101BA00096F902000022401C80B221210DF0A7FC12
:101BB000984896F90210B430012230F81100402103
:101BC0000DF09DFC934896F90210B830012230F8D0
:101BD000110023210DF093FC8E4896F90210B030CD
:101BE000002230F8110024210DF089FC70780228C1
:101BF00044F06F868A4880F83C4079E50EED01009C
:101C000020202020EDE520EFEEE4EAEBFEF7E5ED05
:101C1000E02020202020000020202020202020C1A3
:101C2000E0F2E0F0E5FF202020202020202000002E
:101C300020202020202020C0C2C0D0C8DF212120A9
:101C40002020202020200000E220E1E0F2E0F0E56A
:101C5000E9EDEEEC20E6F3F0EDE0EBE5000000004E
:101C60002020202020E2E2E5E4E8F2E520E5B820AB
:101C7000202020200000000020CFF0E82020EDE50B
:101C8000EEE1F5EEE4E8ECEEF1F2E8200000000011
:101C900020C1C0D2C0D0C5DF20CDC520C2C2C5C4BE
:101CA000C5CDC02000000000202020202020C1C081
:101CB000D2C0D0C5DF20202020202020000000003E
:101CC0007AC20720202020F0E0E7F0FFE6E0E5F20E
:101CD000F1FF2020202020200000000020202049AB
:101CE000F0E0E7F03D2020202021C020202020200F
:101CF0000000000020202055E1E0F23D20202020BF
:101D00002040C22020202020000000002020202091
:101D1000C4D22E20EDE5E8F1EFF0E0E2E5ED202081
:101D20000000000020202020E7E0F0FFE6E0E5F2E0
:101D3000F1FF20202020202000000000202020494A
:101D4000E7E0F03D202020202021C020202020207E
:101D50000000000020202074E1E0F2203D2020203F
:101D600024B043202020202000000000202020C795
:101D7000E0F0FFE43D2020202077252020202020B7
:101D80000000000020202043E1E0F23D2020202040
:101D90002051C02AF72020200000000020202055DC
:101DA000FD31203D20202020205BC220202020204B
:101DB0000000000020202055FD32203D2020202062
:101DC000205DC2202020202000000000202020557F
:101DD000FD33203D20202020207BC22020202020F9
:101DE0000000000020202055FD34203D2020202030
:101DF000207DC2202020202000000000202020552F
:101E0000FD35203D202020202029C2202020202018
:101E1000000000008CC007202D2D2D2D2D2D000041
:101E2000920E08209A13082000C0092020202020AC
:101E3000C1CFD12120C2DBCACBDED7C5CD20202027
:101E4000000000002020202020202020C1CFD132FF
:101E50002020202020202020000000002020202002
:101E6000CED2D1D3D2D1D2C2D3C5D22020202020ED
:101E7000000000002020C220D1D2D0D3CAD2D3D0BB
:101E8000C520C8C1DDCF2020000000002020202078
:101E9000C1CFD12120C2CACBDED7C5CD2020202082
:101EA0000000000020E0E2E0F0E8FF20F1E5F2E8C9
:101EB00020202020202020200000000020E0E2E060
:101EC000F0E8FF20EFE5F0E5E3F0E5E22020202058
:101ED0000000000020E0E2E0F0E8FF2055E2FBF522
:101EE0003C55ECE8ED2020200000000020E0E2E07E
:101EF000F0E8FF2055E2FBF53E55ECE0EAF120204A
:101F00000000000020F1EEF1F2EEFFEDE8E5202DFB
:101F100020EDEEF0ECE02020000000002055E8F17C
:101F2000F2203D2020202040C22020202020202000
:101F3000000000002049E8F1F2203D20202020236D
:101F4000C0202020202020200000000020C4D2201B
:101F5000EDE5E8F1EFF0E0E2E5ED202020202020A3
:101F6000000000002074E8F1F2203D20202024B081
:101F700043202020202020200000000099A39FA2C1
:101F8000A4A1AAA00DF0C6FBAE480122212180F831
:101F90003C40AD4CE08880B20DF0B1FA0122402106
:101FA000A0881FE05D465FEACC7019D0019808B1A7
:101FB000A6A000E0AA488BA3AAA2B0A102900DF0AF
:101FC000A9FBA04805F14605002280F83C40A888FE
:101FD000232180B20DF093FA01224021288801E0EC
:101FE000ACA0E8E780B281E5B0A00290B5A0039074
:101FF000BAA004909A48153005903046022F02DDB1
:1020000080F804C002E0A94200DA017196F90410D8
:10201000B8A00AEB8102121D5AF821100CCA09E07F
:10202000BEF1210F0BD0B9A08D4B0146029003F1F8
:102030001502BCA00DF06EFB012002F007B8BFA096
:10204000F2E7C4480290C4A0039031B1012908D03E
:1020500002290AD003290CD00FE0C5A00290CAA023
:102060000AE0CFA00290D4A006E0D9A00290DEA0A2
:1020700002E0D7A00290E2A003900346B6A1B548C3
:10208000029A9CE4BEF1050F10D0A0A0744B02464A
:1020900002901533E0A1E6A00DF03CFB01200EF00C
:1020A0002BF900222121BBF874009BE7A3A0EDE7E8
:1020B000DFA3DFA2DEA1DEA00DF02CFB04218BF854
:1020C0001D109BF82010012921D0022921D00329BD
:1020D0002CD006292CD00C292CD0DBA160480291F1
:1020E0008BF81D401530039096F90410E2A00AEB1E
:1020F000810253685AF82120D9A10DF00BFB96F903
:10210000010096F90410884216DA307119E0E0A057
:1021100000E0E5A00290EAA00390EFA00490AFF6E3
:10212000AC0005904E4815300690DDE7F0A0F1E7D1
:10213000F5A0EFE7FAA0EDE7411A012901DD411E04
:102140003171022800D1307102200EF0D5F83E4CDA
:102150000022803C2521608A0DF0D1F900225E2109
:10216000A08A0DF0CCF900222621E08A0DF0C7F9F3
:1021700000223C21208B0DF0C2F93948618B2A30B6
:1021800000EB810000223E210DF0F3FA00227B21BA
:10219000A08B0DF0B4F900222821E08BA6E400BF4B
:1021A00040F6026010F0CAFC01B25846ABF84C1081
:1021B000402902DD0021A0F84C10BBF94C0060B1B1
:1021C00001280BD002280AD00ADD96F9011096F9F1
:1021D0000420914205DA3171DCE1ADE1B1E1BAE10F
:1021E000E6E1D2E120C2FBF5EEE420202020202011
:1021F0002020202020202020000000002049EDE0A9
:10220000E3F03D20202020202020404120202020DD
:10221000000000002055EDE0E3F03D2020202020CC
:10222000202021C22020202000000000202020208B
:102230002020CDC0C3D0D3C7CAC02020202020205A
:1022400000000000920E08200CC10720202020C0B2
:10225000C2C0D0C8DF20D1C5D2C821212120200092
:102260000EED01002046F1E5F2E83D20202020207F
:10227000202040C3F6202020000000002055F1E57A
:10228000F2E83D2020202020202023C220202020F2
:102290000000000020202020202020D1C5D2DC20FA
:1022A00020202020202020200000000020CAEEED69
:1022B000F2F0EEEBFC20E5ECEAEEF1F2E820202073
:1022C0000000000020C2FBF0E0E2EDE8E2E0FEF9F1
:1022D000E8E920E7E0F0FFE40000000020C0E2F2BF
:1022E0002EE2FBF0E0E2EDE8E22E20E7E0F0FFE492
:1022F0000000000020202020D1CFC5D6D4D3CDCAE5
:10230000D6C8C820202020200000000020C2FBEA00
:10231000EBFEF7E5ED2020202020202020202020AB
:10232000000000002020CACECDD2D0CECBDC20C50C
:10233000CCCACED1D2C820200000000020C2EAEBD7
:10234000FEF7E5ED20202020202020202020202046
:1023500000000000E80C0000202020EDE5E2EEE7A0
:10236000ECEEE6E5ED2121212020202000000000F8
:1023700020202020CEF2F1F3F2F1F2E2F3E5F22098
:102380002020202000000000202020202020E1E04C
:10239000F2E0F0E5FF2020202020202000000000B7
:1023A00020202020202020C0E2E0F0E8FF20202094
:1023B000202020200000000020202020202020209D
:1023C000F1E5F2E82020202020202020000000005D
:1023D000202020202020C1E0F2E0F0E5FF20202096
:1023E000202020200000000020202020F0E0E7F046
:1023F000FFE6E0E5F2F1FF202020202000000000B1
:102400002020202020E7E0F0FFE6E0E5F2F1FF20C9
:10241000202020200000000020E4EBE8F2E5EBFCA7
:10242000EDEEF1F2FC202D202021F72E000000001F
:1024300020C2DBD0C0C2CDC8C2C0DED9C8C920C747
:10244000C0D0DFC40000000020E2FBEAEBFEF7E5AD
:10245000ED2020202020202020202020000000002F
:10246000C2DBD0C0C2CDC8C2C0DED9C8C920C7C077
:10247000D0DFC42000000000202020C0C2D2CECC7B
:10248000C0D2C8D7C5D1CAC8C920202000000000CA
:1024900020F0E0E720E220ECE5F1FFF6202020200C
:1024A000202020200000000020F0E0E720E2203281
:1024B00020ECE5F1FFF6E0202020202000000000C5
:1024C00020E4EBE8F2E5EBFCEDEEF1F2FC2020205D
:1024D00028F72E200000000020EEF7E5F0E5E4EDFF
:1024E000EEE520E2EAEBFEF7E5EDE8E500000000AE
:1024F00020F0E0E720E2203320ECE5F1FFF6E020D9
:10250000202020200000000020F0E0E720E220EF63
:10251000EEEBE3EEE4E0202020202020000000008D
:1025200020F0E0E720E220E3EEE42020202020203D
:102530002020202000000000ED4BEEA103F1150249
:1025400003E0EB4AF1A31532F6A1FCA00DF0E2F88E
:10255000002030712CE096F9010096F904108842B1
:1025600001DA307104E0411A022901DD801EF8E72A
:1025700096F9040010B1012803D019E0DC4B1533A3
:1025800011E0DB4AE1A315320EE08A1A022A01DDCE
:10259000891E20E696F90410421E9142F1D0801E59
:1025A0008142EBD0EBA3F1A2DEA1E4A00DF0B2F8E2
:1025B00001200DF0A1FE307928210DF086F9307947
:1025C0005B21401CC0B20DF080F930797B21801C6A
:1025D000C0B20DF07AF904F07CB9C54B1A46114629
:1025E00008460DF097F84FF4606010F0A7FAE54D3B
:1025F00000B295F902104A4240210DF078F84001EE
:1026000000F5806086B24AA9304610F014FB4BA951
:10261000301D10F010FB694606F1080010F00BFBAE
:1026200001A906F10C0010F006FB48A906F1100004
:1026300010F001FB49A906F1140010F0FCFA4CA9B6
:1026400006F1180010F0F7FA9DF82801552808D077
:10265000502843D042287DD053287CD046287BD0B8
:10266000B9E79DF82A015228B5D1C7A3CCA2D2A1BF
:10267000D7A00DF04FF89DF80400002240210CF087
:102680003EFF9DF80500002223210CF038FF9DF845
:102690000600002224210CF032FF9DF802000022E7
:1026A00025210CF02CFF9DF8000000225E210CF08B
:1026B00026FF9DF80100401E0C2801D38DF8014033
:1026C0008B489DF801102A3000EB81000022282160
:1026D0000DF04FF80020ABF84C007CE79DF82A0184
:1026E0004128BDD1C0480290A7A003909DF82001C9
:1026F000412803D19DF8210141284FD0012200211A
:10270000281D0DF04AFEB9A00490BEA00590C3A0FC
:10271000069095F904600AEB8600001D0EC85AF871
:1027200026000CF0F7FF9DF8240100223E210CF05A
:10273000E6FE9DF8250100223D210CF0E0FE9DF80B
:102740002601002229210CF0DAFE00229DF8220148
:102750005B2102E03FE098E239E30CF0D0FE9DF807
:10276000200100223C210CF0CAFE9DF82101401EF0
:102770000C2801D38DF821415D489DF821112A30A4
:1027800000EB810000225D210CF0F3FF9DF8301179
:102790009DF8310101EB002080B24AE0A5A0049031
:1027A000AAA002AD0346059007CD0CF0B3FFBBF81D
:1027B0004A0000222B2180B21DE300BF4C489DF847
:1027C00001102A3000EB8100002228210CF0D1FFFB
:1027D000ABF84C40FFE69DF82A01432809D0532866
:1027E0002AD05A2838D0052657287ED04B287DD0AD
:1027F000F1E6AFF2544002909AA021E08DA08DE165
:1028000001220021281D0DF0C8FD78A005907DA0B3
:10281000069095F904500AEB8501091D5AF8250028
:102820000EC938E08DF821415AE000BF9DF829011A
:10283000401C00222B21DEE2AFF29C4002908FA0D0
:10284000039051A004909DF820014128D8D19DF813
:1028500021014128D4D1D1E78EA0029093A003900A
:1028600098A004909DF82001412803D19DF82101F2
:1028700041283CD001220021281D0DF08EFD97A09B
:1028800005909CA0069095F904600AEB8600001D57
:102890000EC85AF826000CF03DFF9DF824010022D6
:1028A0003E210CF02CFE9DF8250100223D210CF06C
:1028B00026FE9DF82601002229210CF020FE9DF81D
:1028C000220100225B210CF01AFE9DF8200100225B
:1028D0003C210CF014FE9DF82101401E0C28A1D2D1
:1028E00003489DF821112A3010E11EE156E114E160
:1028F0000EED010020C6F3F0EDE0EB20EFF3F1F276
:1029000020202020202020200000000020CEF7E8FA
:10291000F1F2E8F2FC20E6F3F0EDE0EB20202020DD
:10292000000000002028202020202020202020201F
:10293000202020202020202000000000202020C671
:10294000D3D0CDC0CB20D1CEC1DBD2C8C92020206E
:1029500000000000207B202020202020202020209C
:10296000202020202020202000000000205B2020AC
:102970002020202020202020202020202020202057
:102980000000000058C107202020302528202030DA
:102990005E2030403A30233A3024202000000000EE
:1029A0002020202020202020C8C1DDCF2020202072
:1029B0002020202000000000202020E8EBE820E27A
:1029C000EAEBFEF7E5EDE8E520202020000000001E
:1029D00020202020CFE5F0E5E7E0E3F0F3E7EAE0B0
:1029E0002020202000000000040D000020202020D6
:1029F0002020F3F1F2F0E0EDE5EDE02020202020B2
:102A0000000000002020305B5D2020303C20303E64
:102A10003A303D3A302920200000000020202020BC
:102A20002055ECE8ED3D20202BC220202020202046
:102A30000000000020202020EDE520F3F1F2F0E07E
:102A4000EDE5EDE0202020200000000020202020E7
:102A50002055F1E5F2E83D20202BC2202020202047
:102A600000000000202020202020E1E0F2E0F0E53E
:102A7000E8202020202020200000000020E0F1E8B5
:102A8000ECECE5F2F0E8FF20E1E0F2E0F0E5E82030
:102A900000000000202020C2FBF0E0E2EDE8E2E0D0
:102AA000FEF9E8E92020202000000000202020205E
:102AB000202020E7E0F0FFE420202020202020201C
:102AC000000000002030252F2820202F305E2030ED
:102AD000403A30233A3024200000000020202020FB
:102AE0002020E7E0E2E5F0F8E5ED2020202020209E
:102AF0000000000020305B2F5D20202F303C203074
:102B00003E3A303D3A3029200000000000EB8100C1
:102B100000225D210CF02DFE88E6D6A002AD034612
:102B2000059007CD0CF0F6FD80E6D8A00290DDA060
:102B30000390E2A00490AFF274000590E5A0069027
:102B4000EAA00790EFA00890F4A00990F9A037E060
:102B50008DF8014069E000BF9DF82101002205EBDE
:102B6000800077210CF005FEBDF82C0101227A21AE
:102B70000CF0C5FC9DF803009DF80710012200EB46
:102B8000012080B23C210CF0BAFCBDF82E010122DC
:102B90003E210CF0B4FCABF84C601CE5EB48029015
:102BA000C0A00390C5A00490AFF2E8000590E8A093
:102BB0000690CEA00790D3A00890EBA00990F0A0BB
:102BC0000A9095F904700AEB8700001D0EC85AF8A8
:102BD00027000CF09FFD9DF829010022401C2121B7
:102BE0000CF08DFC9DF80400002240210CF087FCC5
:102BF0009DF80500002223210CF081FC9DF80600C1
:102C0000002224210CF07BFC9DF8020000222521EB
:102C10000CF075FC9DF8000000225E210CF06FFCAA
:102C20009DF80100401E0C2892D29DF80100DA4D5B
:102C3000002205EB800028210CF09BFD9DF824016B
:102C4000002269210CF05BFC9DF8250100226C211B
:102C50000CF055FC9DF82601002273210CF04FFC6E
:102C60009DF82201002271210CF049FC9DF8200101
:102C7000002272210CF043FC9DF82101401E0C281B
:102C8000FFF46AAF8DF8214166E7C4A002909DF879
:102C90002A014C2806D0542806D0552806D075287D
:102CA00006D007E0C3A004E0C8A002E0CDA000E089
:102CB000D2A00390AFF2303004909DF8200141285B
:102CC00003D19DF82101412878D001220021281D3F
:102CD0000DF063FBAFF2EC200590AFF2D820069028
:102CE00095F904500AEB8501091D5AF825000EC913
:102CF0000CF010FD9DF8240100223E210CF0FFFB9A
:102D00009DF8250100223D210CF0F9FB9DF82601DC
:102D1000002229210CF0F3FB9DF8220100225B2107
:102D20000CF0EDFB9DF8200100223C210CF0E7FBAC
:102D30009DF82101401E0C2801D38DF821419DF8FA
:102D400021119548002200EB81005D210CF011FD5E
:102D50009DF829010022401C2B210CF0D0FB9DF88E
:102D60000400002240210CF0CAFB9DF8050000225F
:102D700023210CF0C4FB9DF80600002224210CF056
:102D8000BEFB9DF80200002225210CF0B8FB9DF847
:102D9000000000225E210CF0B2FB9DF80100401EF5
:102DA0000C2801D38DF801409DF801107A480022CB
:102DB00000EB8100282103F0B3BBFFE7AFF28C30BA
:102DC00002AD0346059007CD0CF0A4FCC0E7AFF6BA
:102DD000302002908FA00390AFF2544004909348AB
:102DE00002AD0346059007CD0CF094FC9DF8290137
:102DF0000022401C21210CF082FB9DF804000022DF
:102E000040210CF07CFB9DF80500002223210CF0F2
:102E100076FB9DF80600002224210CF070FB9DF843
:102E20000200002225210CF06AFB9DF80000002220
:102E30005E210CF064FB9DF80100401E0C28FFF49D
:102E4000BDAC8DF80140B9E4DFF8E481A3F5B850DA
:102E5000883801D177A064E1A3F5B8507C3801D15E
:102E60007AA05EE1A3F59050D83801D17DA058E159
:102E700004E1000020202020EDE520E7E0E2E5F07D
:102E8000F8E5ED2020202020000000002020202058
:102E9000202020D0E0E7F0FFE42020202020202088
:102EA0000000000020202020202020E1E0F2E0F0BF
:102EB000E5E82020202020200000000020CDE0F7C1
:102EC000E0EBEE20202020202020202020202020A9
:102ED000000000002020202020202020202055E17C
:102EE000E0F23D20203CC2200000000020CAEEEDB0
:102EF000E5F6202020202020202020202020202037
:102F0000000000002030712F7720202F30722030F9
:102F1000693A306C3A3073200000000020202020F5
:102F200020202020202055E1E0F23D20203EC2203C
:102F30000000000020202020CEF2E4E0EDEE202072
:102F400020207AE02AF72E2000000000E80C000084
:102F500020202020202020202055E1E0F23D2020CC
:102F60003CC2202000000000202020202020202023
:102F70002055E1E0F23D20203EC22020000000006C
:102F800020A8ECEAEEF1F2FC20202020207AE02AB2
:102F9000F72E20200000000038ED0100202020C086
:102FA000E2E0F0E8FF20C1CFD1204E2B20202020EE
:102FB000000000002020202020EEF2EAEBFEF7E8DF
:102FC000EBF1FF2020202020000000002020202006
:102FD0002020EFE5F0E5E3F0E5E2202020202020AE
:102FE00000000000202020E7E0E2FBF8E5EDEE2005
:102FF00055E2FBF52E20202000000000202020E7D5
:10300000E0EDE8E6E5EDEE2055E2FBF52E20202090
:103010000000000020EFF0E5E4EEF5F0E0EDE8F26E
:10302000E5EBFF20B9212020000000007412000011
:103030008CC00720202020C8C1DDCF3232302F368F
:10304000302D32344120202000000000202020C8F4
:10305000C1DDCF3232302F36302D313241202020A9
:1030600000000000202020C8C1DDCF3232302F34D4
:10307000382D32344120202000000000A3F590506C
:10308000CC3801D19CA04CE0A3F5B8507A3801D1DE
:103090009FA046E0A3F5B850753801D1A2A040E04A
:1030A000A3F59050CA3801D1A5A03AE0A3F59050FD
:1030B000C53801D1A8A034E040F67810834201D190
:1030C000ABA02EE040F66C118B4201D1AEA028E0FF
:1030D000A3F59052E83A01D1B1A022E0A3F5B8528D
:1030E000983A01D1B4A01CE0A3F59052D43A01D192
:1030F000B7A016E0A3F5B852843A01D1BAA010E007
:10310000A3F51062923A01D1BDA00AE0A3F51062C6
:10311000793A01D1C0A004E08342D1D08B42D5D00E
:10312000C3A00290C8A00390CDA00490D2A00590A7
:10313000D7A00690DCA00790E1A00890E6A0099037
:10314000EBA00A90F0A00B90F5A00C90AFF66C707D
:1031500009F104090D90B9E80E00F74F5AF825005F
:103160000CF0D8FA3879082802D1F44880F83C40AD
:10317000B8F90A004446202805DA0022212180B24D
:103180000CF0BDF905E04FF0FF322121ECA00CF06E
:10319000F0FAB4F90C000D2805DA0022402180B2C3
:1031A0000CF0ADF905E04FF0FF324021E4A00CF047
:1031B000E0FAB4F90E00642805DA0022232180B277
:1031C0000CF09DF905E04FF0FF322321DCA00CF05C
:1031D000D0FAD94DDB4C4C3D286AA04206DB6FF09B
:1031E00004023F21D8A00CF0C4FA03E000223F21E2
:1031F0000CF00BF800222B2109200CF080F90022A2
:10320000282130460CF07BF9686AA04206DB6FF09B
:1032100004022921CCA00CF0ACFA03E00022292101
:103220000BF0F3FF686AA04206DB6FF0040229216D
:10323000C5A00CF09EFA03E0002229210BF0E5FF67
:10324000A86AA04206DB6FF004023C21BEA00CF08D
:1032500090FA03E000223C210BF0D7FFE86AA0427D
:1032600006DB6FF004023E21B7A00CF082FA03E007
:1032700000223E210BF0C9FF6FF0030422465B21C0
:10328000B3A00CF076FA22462421B1A00CF071FA1A
:1032900022462521AEA00CF06CFA22465E21ACA09D
:1032A0000CF067FA22462621A9A00CF062FA93E2FC
:1032B000A14FA3F5B850CC3F883802D1AFF28C2093
:1032C00099E1A3F5B8507C3802D1AFF2802092E1A9
:1032D000A3F59050D83802D1AFF278208BE1A3F556
:1032E0009050CC3801D104A085E1A3F5B8507A38CC
:1032F00001D107A07FE131E1202020C8C1DDCF321C
:1033000032302F34382D313241202020000000008F
:10331000202020C8C1DDCF3232302F36302D313061
:103320004120202000000000202020C8C1DDCF3235
:1033300032302F36302D3541202020200000000073
:10334000202020C8C1DDCF3232302F34382D31302B
:103350004120202000000000202020C8C1DDCF3205
:1033600032302F34382D354120202020000000003D
:10337000202020C8C1DDCF3232302F32342D3234FC
:103380004120202000000000202020C8C1DDCF32D5
:1033900032302F32342D3132412020200000000005
:1033A000202020C8C1DDCF3232302F34382D3430C8
:1033B0004120202000000000202020C8C1DDCF32A5
:1033C00032302F36302D34304120202000000000D4
:1033D000202020C8C1DDCF3232302F34382D32309A
:1033E0004120202000000000202020C8C1DDCF3275
:1033F00032302F36302D32304120202000000000A6
:10340000202020C8C1DDCF3232302F32342D35306C
:103410004120202000000000202020C8C1DDCF3244
:1034200032302F32342D3235412020200000000070
:10343000202020D2E8EF20EDE5E8E7E2E5F1F2E533
:10344000ED20202000000000C4E0F2E020E8E7E3E7
:10345000EEF22E2030212F30402F302300000000CC
:10346000F8E0F1F1E82020202020532F4E303030BA
:1034700030303F2000000000D3CAD33230322E2B30
:103480002820532F4E3030303030292000000000EB
:10349000CFCE202020202020202076202020205B3E
:1034A0002020202000000000C1CFD131202D20207D
:1034B0002020532F4E30303030303C2000000000B0
:1034C000C1CFD132202D20202020532F4E3030303C
:1034D00030303E2000000000525332333220202092
:1034E0002020207620202024202020200000000002
:1034F00043414E20504448202D2020762020202576
:10350000202020200000000043414E20534448204A
:103510002D2020762020205E20202020000000008A
:1035200045746865726E65742D20207620202026F3
:10353000202020200000000058C10720920E082003
:103540002A2A000040420F002A2A2A2A2A2A00009A
:103550002D2D2D2D2D2D2D2D2D000000A3F5B85036
:10356000753802D1AFF2402045E0A3F59050CA383B
:1035700002D1AFF234203EE0A3F59050C53802D11D
:10358000AFF22C2037E0A3F51060783802D1AFF20B
:10359000202030E0A3F510606C3802D1AFF2182083
:1035A00029E0A3F59050E83802D1AFF20C2022E0D8
:1035B000A3F5B8508E3801D1C4A01CE0A3F59050FB
:1035C000D43802D1AFF2F81015E0A3F5B8507F3827
:1035D00001D1C4A00FE0A3F51060923802D1AFF280
:1035E000E01008E0A3F51060793802D1AFF2D810EE
:1035F00001E0AFF2C4100290AFF2B4100390AFF24A
:10360000A0100490BDA00590AFF264100690AFF238
:1036100050100790BF4809F104090890B9E80E005E
:10362000F0465AF825000CF075F8B7F90A00202882
:1036300005DA0022212180B20BF061FF06E04FF095
:10364000FF322121AFF208100CF093F8B7F90C000B
:103650000D2805DA0022402180B20BF050FF06E071
:103660004FF0FF324021AFF228100CF082F8B7F98A
:103670000E00642805DA0022232180B20BF03FFF00
:1036800006E04FF0FF322321AFF24C100CF071F83E
:10369000A14DA24F286AB84207DB6FF004023F2118
:1036A000AFF25C100CF065F803E000223F210BF054
:1036B000ACFD00222B214FF461700BF020FF0022A3
:1036C000282130460BF01BFF686AB84207DB6FF019
:1036D00004022921AFF290100CF04BF803E0002215
:1036E00029210BF092FDA86AB84207DB6FF00402B3
:1036F0003C21AFF2AC100CF03CF803E000223C217E
:103700000BF083FDE86AB84207DB6FF004023E214C
:10371000AFF2CC100CF02DF803E000223E210BF0AC
:1037200074FD98F904004146032802D14A78092A19
:1037300013D098F90110A1B1012915D002291FD089
:10374000032925D004292BD005292ED0062934D0D1
:10375000072938D0082939D03EE0714880F83C402C
:103760003AE078BB142238E0022835DAC0F10100D3
:10377000C0B202225FF00C010CF00EF803F0A9B801
:10378000022829DAC0F101000222C0B20F21F3E7BA
:10379000022821DAC0F101000222C0B21221EBE7B7
:1037A000032819DAC0F1020012E0042814DAC0F18B
:1037B00003000622C0B20321DEE704280CDAC0F1C0
:1037C000030005E008E0C0F1040001E0C0F10500DD
:1037D0000A22C0B21146CFE7002200210846CBE7FB
:1037E00050A0029055A003905AA004905FA00590AD
:1037F00064A0069069A007906EA0089073A009903D
:1038000078A00A907DA00B9082A00C9087A00D90CC
:103810008CA00E9091A00F9096A010909BA011905C
:10382000A0A01290A5A01390AAA01490AFA01590EC
:10383000B4A01690B9A01790BEA01890C3A019907C
:10384000C8A01A90CDA01B90D2A01C90D7A01D900C
:10385000DCA01E90E1A01F90E6A02090EBA021909C
:10386000F0A02290F5A02390FA482490FAA0259089
:10387000FFA02690022F02DD86F804C002E0A942D4
:1038800000DA317196F90410FFA00AEB8102121DD3
:103890005AF821100CCA0BF03DFF01200CF02CFD52
:1038A00096F9040011280FDABBF850000022401CE2
:1038B0003C215C4680B20BF022FEB4F862004FF06F
:1038C00000024FF02801EBE12CE20000202020C88C
:1038D000C1DDCF3232302F36302D33304120202021
:1038E00000000000202020C8C1DDCF3232302F364A
:1038F000302D31354120202000000000D3CAD330C4
:10390000302B2E302820532F4E30303030302920AD
:1039100000000000E42100000CC1072040420F001D
:10392000920E082020D1F2E0EDE4E0F0F2EDFBE5AC
:1039300020202020202020200000000020C2F0E5D0
:10394000ECFF20E820E4E0F2E020202020202020EE
:103950000000000020D1E8EDF5F0EEEDE8E7E0F63C
:10396000E8FF20202020202000000000202020E26E
:10397000F0E5ECE5EDE820E820E4E0F2FB20202093
:103980000000000020D1F2F0F3EAF2F3F0E0202092
:1039900020202020202020200000000020CCEDE569
:1039A000ECEEEDE8EAE02020202020202020207905
:1039B0000000000020CEF1EDEEE2EDEEE920E8F1AE
:1039C000F2EEF7ED2E204E3C0000000020C7E22E64
:1039D000F1E8E3ED2E2020202820202020202020A8
:1039E0000000000020CEF2EAEBFEF7E5EDE8E5206E
:1039F000F1E8E3EDE0EBE020000000002020E0E251
:103A0000E0F0E8E82020202029202020202020208D
:103A10000000000020C0CFC220E8F1F2EEF7EDE890
:103A2000EAEEE2202020202000000000205420EFB9
:103A3000F0EEE2E5F0EAE8202020F6E5EFE82020CD
:103A40000000000020E1E0F2E0F0E5E82020202086
:103A50002071ECE8ED2E20200000000020556D6163
:103A6000783D2020202020202021C220202020203E
:103A7000000000002055E130B03D20202020202013
:103A80002040C22020202020000000002055E132EC
:103A900030B03D20202020202023C22020202020C4
:103AA000000000002055F1E8E3ED3D20202020201B
:103AB000205EC220202020200000000020556D69DB
:103AC0006E2EF1E5F2E83D202026C22020202020A5
:103AD0000000000020556D61782EF1E5F2E83D20F0
:103AE0002046C2202020202000000000205530E188
:103AF0003D20202020202020203EC22020202020E9
:103B0000000000002049E1EA2E3D20202020202056
:103B1000206AC02020202020000000002049E72E3D
:103B2000ECE0F52E3D202020204AC020202020203F
:103B30000000000020496D61783D202020202020D9
:103B4000205D4120202020200000000020496D69D8
:103B50006E3D202020202020207BC02020202020FF
:103B600000000000204BE2FBF02EE7E0F02E3D20AD
:103B70002020205B20202020000000002054E72E81
:103B8000E2EAEB2EE02EF12E2021F1202020202051
:103B90000000000020746D61783D2020202020204E
:103BA0002024B0432020202000000000204574681D
:103BB00065726E6574202020202020202020202087
:103BC0000000000020C2EDE5F8EDE8E520E4E0F2B9
:103BD000F7E8EAE8202020200000000020CFEEFDDA
:103BE000EBE5ECE5EDF2EDFBE920EA2DEBFC2E2018
:103BF0000000000020E1E0F2E0F0E5E820202020D5
:103C000020202020205125200000000020C0E2E0DC
:103C1000F0E8E9EDFBE520F0E5EBE52020202020B1
:103C20000000000020D1E5F0E8E9EDFBE9204E209E
:103C3000202020202020207700000000204D4F442D
:103C400042555320414452455353202020202057B1
:103C50000000000023ED010020CAE0EBE8E1F0EEF7
:103C6000E2EAE82020202020202020200000000080
:103C700020D2E5F1F220202020202020202020202A
:103C800020202020000000002020202020D3D1D29E
:103C9000C0CDCEC2CAC820202020202000000000B5
:103CA00008B1F94801E0F848401D0BF062FDB4F896
:103CB0005A004FF000024FF0290108B1F3A000E0D4
:103CC000F4A00BF056FD94F8240055286BD06FF04B
:103CD00003027921F1A00BF04CFD34F8520F0122C0
:103CE000212180B20BF00BFC60880122402180B2C0
:103CF0000BF005FCA0880122232180B20BF0FFFB12
:103D0000608901225E2180B20BF0F9FBA0890022BC
:103D1000262180B20BF0F3FBE08B01223E2180B222
:103D20000BF0EDFB0BF1580400222088242180B217
:103D30000BF0E5FBA08902226A2180B20BF0DFFBC9
:103D4000E08903225B2180B20BF0D9FB208A01229B
:103D50005D2180B20BF0D3FBA08A01227B2180B2CF
:103D60000BF0CDFBE08A01224A2180B20BF0C7FBA9
:103D7000608B0022212180B20BF0C1FBE08B00227E
:103D8000712180B20BF0BBFB20890022462180B25A
:103D90000BF0B5FBB4F9200098B10022512180B29C
:103DA0000BF0ADFB13E06FF007027921BDA00BF023
:103DB000E0FCBF4800227921B0F870000BF09FFBB7
:103DC0008BE76FF001025121BAA00BF0D2FCB8488A
:103DD000002280307721006A0BF017FAB4480022E5
:103DE0005721B0F87600FEF7FDB8B4A00290B9A054
:103DF0000390BEA00490C3A00590A3481F30069076
:103E0000BEF1000F05D0A0F115029BF81C004AF886
:103E10002020A94201DA317103E0022F01DD86F88A
:103E200004C096F904400AEB8400D0E901235AF853
:103E30002410BAA0FEF7FEB89BF809005C46401CAF
:103E4000C0B28BF809000F2807D30020711CC9B23B
:103E50006072A177032900D3A077B64802908A4800
:103E60000A300390A07F20B1012804D0022817D087
:103E700003E0B1A000E0B6A0049002ADBAA00ECD60
:103E80000BF048FC99F9010060B101280FD002281D
:103E900012D0032815D0042818D005281BD01EE006
:103EA000B7A0E9E7BC495E2081F82A0017E0BA49CB
:103EB0005E2081F82D0012E0B7495E2081F83000C5
:103EC0000DE0B5495E2081F8330008E0B2495E207C
:103ED00081F8360003E0B0495E2081F83A00AF4D2A
:103EE00028784FF000024FF026010BF008FB2879EC
:103EF00000225E210BF003FB287A002225210BF023
:103F0000FEFA287B00223C210BF0F9FA297E5E485C
:103F10000022343000EB81003E210BF02AFCA88BFC
:103F200000227B210BF0EBFA207D00287ED03A2086
:103F30000BF07BF8984C202525543A200BF075F8AF
:103F400025541BE45A4EB6F9720030B101280DD049
:103F500002280DD0032813D00CE091A002904A480B
:103F60001F3003901538049005901BE092A000E0EC
:103F700097A00290B6F97400092803D89AA010E01F
:103F80009FA0F6E7A0F10A02032A01D8A2A008E048
:103F900010F1090201D3A6A003E00C30022801D8D9
:103FA000A9A003901C46A94201DA217103E0012F68
:103FB00001DD84F8049041F26C000EF0BFFD012891
:103FC000A7A0049045D0ACA00590B1A006902E48C3
:103FD0001F3007901538089094F90410B8A00AEB28
:103FE000810253685AF82120AFA10BF093FBB6F978
:103FF0007400002800DA404280B2002221210BF038
:104000007EFA41F274006178851E071F41F26E0846
:10401000022920D00EF092FD04B228460EF08EFD4B
:1040200005B238460EF08AFD06B200E047E340468E
:104030000EF084FD00222321CDE9001200B22346B8
:104040002A4631460BF0B9F95FF002000CF054F942
:1040500077E7A1A0B8E70EF071FD06B228460EF092
:104060006DFD05B238460EF069FD07B240460EF010
:1040700065FDA17800B2491CC9B22322CDE9002117
:1040800033462A463946DDE704ED0100E0E2F2EE70
:10409000EC2E0000F0F3F7ED2E000000E2FBEAEB5F
:1040A0002E000000F7E5F0E5E72079F12E00000092
:1040B0008CC00720C2DBCACB2E00000020C8C1DDA7
:1040C000CF3232302F36302D3132C02D312F3220C9
:1040D0000000000020C8C1DDCF3232302F36302D35
:1040E0003132C02D322F32200000000020C8C1DD47
:1040F000CF3232302F34382D3132C02D312F322093
:104100000000000020C8C1DDCF3232302F34382DFE
:104110003132C02D322F322000000000D1D2C0CD6C
:10412000C4C0D0D2CDDBC520D3D1D22E2DCAC82059
:104130000000000074180000202020209A209C20FD
:104140002D20E2FBE1EEF0202020202000000000E6
:10415000202020BF209D202D20F3F1F2E0EDEEE2A3
:10416000EAE020200000000020D3D1D2C0CDCEC292
:10417000CAC02020C2D0C5CCC5CDC82000000000D8
:104180002020202020A420202D20E2FBF5EEE4209A
:104190002020202000000000920E08202040024035
:1041A00020C2FBEAEBFEF7E5EDEE202020202020E8
:1041B000202020200000000020CFE5F0E8EEE420E1
:1041C000202020202020203120F7E0F100000000F6
:1041D00020CFE5F0E8EEE42020202020203120F15F
:1041E000F3F2EAE80000000020D7E0F1EEE2EEE9A9
:1041F00020EFEEFFF120474D542B2120000000005E
:1042000020CFE5F0E8EEE420202020203120EDE56D
:10421000E4E5EBFF0000000020D7E0F1EEE2EEE97C
:1042200020EFEEFFF120474D542B2021000000002D
:1042300020D7E0F1EEE2EEE920EFEEFFF120474D6E
:10424000542D21200000000020D7E0F1EEE2EEE93D
:1042500020EFEEFFF120474D542D202100000000FB
:1042600020D1E8EDF5F0EEEDE8E7E0F6E8FF20F725
:10427000E5F0E5E700000000204950203030302E06
:104280003030302E3030302E30302320000000000F
:1042900020D1E8EDF5F0EEEDE8E7E8F0EEE2E0F24F
:1042A000FC2020200000000020202020C2D0C5CC0F
:1042B000C5CDC82028534E545029202000000000AE
:1042C00020202020D1C8CDD5D0CECDC8C7C0D6C8DB
:1042D000DF202020000000002020202020C8CDD298
:1042E000C5D0CDC5D22020202020202000000000F5
:1042F000F3A002909BF822005E46552807D0F648AE
:104300000390F648049005900690747714E096F8B0
:1043100023005528F2A0039006D0EF480490EF4800
:1043200005900690022006E0F3A00490EA4805906C
:10433000EA48069003207077A94201DA197103E078
:10434000022F01DD83F804C093F90410F0A00AEBFA
:104350008102121D5AF821100CCA0BF0DBF9012062
:104360000BF0CAFF96F822004FF0000255284FF0DC
:1043700021010CD0D948401F0BF0FBF996F823001F
:104380004FF0000255284FF0400103D085E0D3489C
:104390000A38F1E7D1480A380BF0EBF9E24800227D
:1043A0002321B0F86E001EE5E0A00290E5A0039086
:1043B000EAA00490EFA00590F4A00690F9480790B9
:1043C00018300890F8A00990C44815300A90A94206
:1043D00001DA197103E0022F01DD83F804C093F9BB
:1043E0000410F7A00AEB8102121D5AF821100CCA22
:1043F0000BF090F901200BF07FFFF74C207828B3E9
:10440000012829D06FF004022121F4A00BF0B1F9AA
:10441000607838B301282BD06FF004024021EFA060
:104420000BF0A7F9A07848B301282DD06FF0040253
:104430002321EAA00BF09DF9E07858B301282FD092
:104440006FF004022821E5A002F06AB8A3482121F8
:104450006FF00202401FD9E7A04821216FF002024D
:104460000A38D3E79D4840216FF00202401FD7E78A
:104470009A4840216FF002020A38D1E79748232179
:104480006FF00202401FD5E7944823216FF002022B
:104490000A38CFE76FF0020228219048401FD3E787
:1044A0006FF002022821FEE3CEA00290B1A003909B
:1044B000BC48049018300590BBA006908748153082
:1044C0000790A94201DA197103E0022F01DD83F898
:1044D00004C093F90410BAA00AEB8102121D5AF825
:1044E00021100CCA0BF016F901200BF005FFBA4899
:1044F000007810B1012805D00AE078480022282170
:10450000401F03E07548002228210A380BF031F9DA
:104510008BF8344015E5A94201DA197103E0022F46
:1045200001DD83F804C06D4BB4A21533B9A1BFA05F
:104530000BF0F0F801200BF0DFFEA748007920B166
:10454000012807D003280AD00EE0644800223C214D
:10455000401F07E0614800223C210A3802E00022A7
:104560003C219EA00BF005F96F4802223A21B0F9D8
:104570007E0001F0ABBCA94201DA197103E0022F01
:1045800001DD83F804C0554BAEA21533B3A1B9A029
:104590000BF0C0F801200BF0AFFE8F48407920B13E
:1045A000012809D002280FD018E000224021B7A02E
:1045B0000BF0DFF81E200EE000224021B5A00BF02A
:1045C000D8F840F2CA3006E000224021B3A00BF038
:1045D000D0F845F2555054498031088100222421F9
:1045E000AFA00BF0C6F850480122B4303C2100883F
:1045F0000AF085FF4C480122B8303E2100880AF0BD
:104600007EFF00222321A848D1E1A94201DA1971D5
:1046100003E0022F01DD83F804C0304BA3A2153361
:104620008EA1A8A00BF076F801200BF065FE6A4879
:10463000807920B1012809D0022812D01BE0002285
:10464000402192A00BF095F81E2006E000224021A8
:1046500090A00BF08EF840F2CA3033498031488187
:1046600009E0002240218DA00BF083F82E4845F28E
:104670005551803041810022242189A00BF079F826
:1046800029480122B4305B2140880AF038FF2648CF
:104690000122B8305D2140880AF031FF0022232139
:1046A00084E18EA0029067A0039080A004900B4844
:1046B00015300590A94201DA19711FE11AE10EE3E4
:1046C00020C0CFC22031E920F3F0EEE2E5EDFC207E
:1046D0002120202000000000E42100000EED010058
:1046E00020C0CFC22032E920F3F0EEE2E5EDFC205D
:1046F000402020200000000020CFE5F0E8EEE4207C
:10470000C0CFC232202020202023F72E000000003E
:10471000202020C0CFC220C8D1D2CED7CDC8CACE8B
:10472000C2202020000000008CC0072020D0E5EB34
:10473000E520E0E22EB93120202020202020202179
:104740000000000020D0E5EBE520E0E22EB93220A9
:1047500020202020202020400000000020D0E5EB79
:10476000E520E0E22EB93320202020202020202345
:104770000000000020D0E5EBE520F1E0ECEEEAE0FF
:10478000EBE8E1F0EEE2EAE80000000020D0E5EB23
:10479000E520E1E0F2E0F0E5E820202020202028DC
:1047A00000000000A418000020C1CFD1312BC1CFE0
:1047B000D1322020202020202020202000000000B6
:1047C0002020202020202020D2C5D1D2202020202F
:1047D0002020202000000000A4130820D0C0C1CE5B
:1047E000D72E000020D0E5EBE520E0E2E0F0E8FF86
:1047F0002020202028202020000000002049E1E087
:10480000F23D20202020202020202020203A41207E
:104810000000000020D0E5EBE52020202020202013
:1048200020203C20202020200000000020D2C5D1E4
:10483000D220D1C0CCCECAC0CBC8C1D0CEC2CAC093
:10484000000000002055313D202020203CC220499E
:10485000313D202020203EC0000000002055F03DCA
:10486000402020242020202020F8E8EC3D20202398
:10487000000000002020202020D2C5D1D220C1CFAE
:10488000D13120202020202000000000556D696ECD
:1048900000000000556D61780000000055323000C6
:1048A00028202020242900008CC207202055323DDA
:1048B000202020205BC22049323D202020205DC0E6
:1048C000000000002020202020D2C5D1D220C1CF5E
:1048D000D132202020202020000000002055F03D73
:1048E00040202024202020202020202320202021A0
:1048F00000000000022F01DD83F804C093F904508A
:10490000F7A00AEB8501D1E901235AF825100AF036
:1049100001FF01200BF0F0FCF748C07920B101281D
:104920000AD0022811D01BE000224021AFF2A400DF
:104930000AF01FFF1E2010E000224021AFF2AC0061
:104940000AF017FF40F2CA3007E000224021AFF220
:10495000B4000AF00EFF45F25550E849088148813D
:1049600000222421AFF2C8000AF003FFE34D012228
:1049700034353C2128880AF0C2FD2E1D01223088E2
:104980003E210AF0BCFDDE4800222321008880B2CF
:104990000AF0B5FD688801225B210AF0B0FD70883D
:1049A00001225D210AF0ABFD00222121D5480088BB
:1049B00080B20AF0A4FDD44801222421008880B2EC
:1049C0000AF09DFD8BF83540A4E5D0A00290D5A05B
:1049D0000390DAA00490DFA00590E4480690A94275
:1049E00001DA197103E0022F01DD83F804C093F9A5
:1049F00004400AEB8400D0E901235AF82410DCA01B
:104A00000AF088FE01200BF077FC0BF17A040022FB
:104A10006088212180B20AF072FD208800224021A6
:104A200080B20AF06CFDA0880022232180B20AF037
:104A300066FDB2480022242180380088B3E4D2A267
:104A40000292D7A24AF82020DBA25A60E0A29A6024
:104A5000E5A2DA60A94AC54B803A5446B2F9002073
:104A60001044E74A4AF820300AEB80004260826036
:104A7000A2484C30A94201DA017103E0022F01DDA6
:104A800080F804C090F9040004EB8001D1E901230F
:104A90005AF82010DBA0FDF7CDBAE0A00290E5A007
:104AA0000390EAA00490EFA00590F4A00690F9A06E
:104AB0000790FEA0914C0890AC484C340990A94254
:104AC00001DA217103E0012F01DD84F8049094F9EB
:104AD00004100AEB810253685AF82120F9A1FFA0C3
:104AE0000AF018FE02200BF007FC94F902000022E5
:104AF000401C80B221210AF002FD804894F9021086
:104B00008830002230F9110040210AF02FFB7B4948
:104B100094F90200583131F81010F1B36FF001022E
:104B20002321AFF688200AF024FE00BF734994F9D0
:104B30000200643131F8101081B36FF001022421BA
:104B4000AFF6A8200AF015FE6C4994F90200703106
:104B50006FF0010231F810004FF05B01A0B3AFF627
:104B6000C42000BF0AF005FE644994F902007631C2
:104B70006FF0010231F810004FF05D0180B3AFF625
:104B8000E42000BF0AF0F5FD5C4894F902107C3087
:104B90006FF0010230F8110001E00CE015E04FF079
:104BA000280100B3AFF60C300AF0E3FD534994F945
:104BB00002008231F4E1514900225E3131F91000E6
:104BC00023210AF0D3FAB1E708E04C4900226A3108
:104BD00031F9100024210AF0C9FAB5E7C5A0C1E7F0
:104BE000FFE7C4A0CEE7C3A0DEE7C2A02CE4AFF687
:104BF000543029E4C1A00290C6A00390CBA0049039
:104C000098A005909DA00690A2A00790A7A03B4C5D
:104C1000089056484C340990A94201DA217103E00A
:104C2000022F01DD84F804C094F90410C5A00AEB3A
:104C30008102121D5AF821100CCA0AF06BFD0120E6
:104C40000BF05AFB94F902000022401C80B2212193
:104C50000AF055FC294994F902003C314FF000025A
:104C6000085C4FF04001FF2838D0BCA00AF081FD5D
:104C7000224994F902008E314FF0000231F8100001
:104C80004FF0230138B3B5A00AF073FD1B4994F926
:104C90000200643131F81010F1B16FF005022421E7
:104CA000AFF6084000E0EFE30AF063FD134994F922
:104CB000020096316FF0010231F810004FF05B01F5
:104CC00058B1AFF6284000BF0AF053FD0B4994F9E4
:104CD00002009E3146E16FE170E178E16AE1FEE3B6
:104CE000202020D2C5D1D220C1CFD1312BC1CFD1EC
:104CF0003220202000000000A41308200CC107204F
:104D00008CC207208EC2072090C2072020C1E0F28B
:104D1000E0F0E5E920202020202020202020204055
:104D20000000000020C8F1F2EEF7EDE8EAEEE22024
:104D300020202020202020210000000020C4E0F2BC
:104D4000F7E8EAEEE220F2E5ECEFE5F02E20202392
:104D50000000000020D1F3F5E8F520EAEEEDF2E0E6
:104D6000EAF2EEE2202020240000000023ED010002
:104D7000202020202020D1D2D0D3CAD2D3D0C0200E
:104D8000202020200000000020C4E0F2F7E8EA2004
:104D9000F2E5ECEFE5F02E204E312020000000007F
:104DA00020D1F3F5EEE920EAEEEDF2E0EAF2204E52
:104DB000312020200000000020D1F3F5EEE920EAA8
:104DC000EEEDF2E0EAF2204E32202020000000005A
:104DD00020D1F3F5EEE920EAEEEDF2E0EAF2204E22
:104DE000332020200000000020D1F3F5EEE920EA76
:104DF000EEEDF2E0EAF2204E342020200000000028
:104E0000741200002020C2CDC5D8CDC8C520C4C0B2
:104E1000D2D7C8CAC82020200000000020F2E5EC4C
:104E2000EFE5F0E0F2F3F0E0202020202040B04356
:104E30000000000020746D617820202020202020B8
:104E4000202020202023B0430000000020746D6942
:104E50006E20202020202020202020202024B0434D
:104E60000000000020D0E5EBE520202020202020BD
:104E700020202020205B20200000000020C7E2F33B
:104E8000EA2020202020202020202020205D20201B
:104E90000000000020C4E8F1EFEBE5E9202020202D
:104EA00020202020202820200000000020534E4DEC
:104EB0005020545241502020202020202029202002
:104EC00000000000202020D2C5CCCFC5D0C0D2D356
:104ED000D0DB204E21202020000000002020C2CD69
:104EE000C5D8CDC8C920C4C0D2D7C8CA2020202068
:104EF00000000000E2EAEB2E0000000020F2E5EAEC
:104F0000F3F92EF1EEF1F22E204020202020202077
:104F10000000000020E0E2E0F0E8E9EDEEE520F13D
:104F2000EEF1F2EEFFEDE8E5000000002020202089
:104F300020202020202D2023202020202020202061
:104F4000000000002020D1D3D5CEC920CACECDD2BA
:104F5000C0CAD2204E21202000000000EDE5E7E08D
:104F6000ECEA2E0031F810006FF001024FF05D0105
:104F700080B3AFF6D86000BF0AF0FBFB94F90210D3
:104F8000A3486FF0010230F811004FF0280128B358
:104F9000AFF6F8600AF0EDFB9D4994F90200083184
:104FA0006FF0010231F810004FF0290100287FF462
:104FB0001EAE1AE697A059E696A065E6944900222F
:104FC0003C3931F9100024210AF0D0F86EE6AFF236
:104FD000DC0079E6FFE7AFF2E400CDE7AFF2EC00EA
:104FE000D8E78E48D0E91A23006F4892CDE94930BE
:104FF0008BA0029090A0039095A004909AA0059099
:105000009FA00690A4A00790A9A00890AEA0099028
:10501000B3A00A90B8A00B90BDA00C90C2A00D90B8
:10502000C7A00E90CCA00F90D1A01090D6A0119048
:10503000DBA01290E0A01390E5A01490EAA01590D8
:10504000EFA01690F4A01790F9A01890FE48FF4C1E
:105050001990208C28B9FC480390A0F57760049043
:1050600005906B4E5A3EA94201DA317103E0022FDE
:1050700001DD86F804C096F90410F5A00AEB810260
:10508000121D5AF821100CCA0AF044FB01200BF043
:1050900033F9208C20B16FF002022121F2A004E04C
:1050A0006FF003022121AFF6F4700AF062FB608C0E
:1050B00020B16FF002024021EBA003E06FF0030289
:1050C0004021EB480AF055FB7078022847D00021B8
:1050D0002320CDE9000100BFB4F92A30B4F928201B
:1050E000B4F92610B4F924000AF067F97178242085
:1050F00004293BD05FF00001CDE90001B4F9323062
:10510000B4F93020B4F92E10B4F92C000AF055F996
:105110007178292006292DD05FF00001CDE900012A
:10512000B4F96630B4F96420B4F96210B4F96000DF
:105130000AF043F9B4F85C0000225B2180B20AF067
:10514000DEF9B4F85E0000225D2180B20AF0D7F9E2
:10515000B4F934006FF00D05FF280FD017E0B078D8
:10516000401CC0B22321CDE90010B5E7B178491C3D
:10517000C9B2C1E7B178491CC9B2CFE7E18EFF29B6
:1051800005D1218FFF2902D1618FFF2913D07278B9
:1051900025210B2A15D00022CDE90012B4F93A30AE
:1051A000B4F93820B4F936100AF007F9B4F93C0024
:1051B000FF280AD014E02A462521AEA00AF0D9FA29
:1051C000F4E7B278521CD2B2E6E7E18FFF2907D1AB
:1051D000B4F84010FF2903D1B4F84210FF2914D0CD
:1051E00071780D2912D000225E21CDE9001200BF96
:1051F000B4F94230B4F94020B4F93E100AF0DDF8B9
:10520000B4F94400FF2802D059E13EE144E14AE10B
:10521000B2C10720E7E0ECEAEDF3F20004ED010093
:105220002045746865726E6574202020202020203F
:1052300020202120000000002044484350EAEBE8F1
:10524000E5EDF2202020202020204020000000005A
:10525000204950E0E4F0E5F120202020202020200B
:10526000202020200000000020203030302E303060
:10527000302E3030302E303023202020000000002F
:1052800020CCE0F1EAE020EFEEE4F1E5F2E82020C6
:10529000202020200000000020203030302E303030
:1052A000302E3030302E30302420202000000000FE
:1052B00020D8EBFEE72020202020202020202020C6
:1052C000202020200000000020203030302E303000
:1052D000302E3030302E30302920202000000000C9
:1052E00020CFEEF0F22EF7F2E5EDE8FF20202020AF
:1052F0002020205B0000000020CFEEF0F22EE7E03F
:10530000EFE8F1E8202020202020205D00000000B0
:1053100020436F6D6D756E697479203C20202020CC
:10532000202020200000000020C0E4F0E5F1E0F2A1
:1053300020E4EBFF2054524150204E310000000089
:1053400020203030302E3030302E3030302E303083
:10535000252020200000000020C0E4F0E5F1E0F26C
:1053600020E4EBFF2054524150204E320000000058
:1053700020203030302E3030302E3030302E303053
:105380005E2020200000000020C0E4F0E5F1E0F203
:1053900020E4EBFF2054524150204E330000000027
:1053A00020203030302E3030302E3030302E303023
:1053B000262020200000000020C0E4F0E5F1E0F20B
:1053C00020E4EBFF2054524150204E3400000000F6
:1053D00020203030302E3030302E3030302E3030F3
:1053E0002A2020200000000020C0E4F0E5F1E0F2D7
:1053F00020E4EBFF2054524150204E3500000000C5
:1054000020203030302E3030302E3030302E3030C2
:10541000282020200000000020CFE0F0EEEBFC2050
:10542000F3F1F2E0EDEEE2EEEA20202000000000D1
:1054300020574542E8EDF2E5F0F4E5E9F1E0203EE1
:105440002020202000000000E42100008CC0072064
:1054500020D3D1D2C0CDCEC2CAC8204574686572EF
:105460006E65742000000000C2CACB2E0000000050
:10547000B440000020202020EDE5E0EAF2E8E2E57B
:10548000ED2020202000000075E12A465E21AFF2C9
:105490001C000AF06EF9B3E6B178491CC9B25E226D
:1054A000CDE90021A4E6B4F84610FF2907D1B4F8ED
:1054B0004810FF2903D1B4F84A10FF2915D072789B
:1054C00026210F2A18D00022CDE90012B4F94A3063
:1054D000B4F94820B4F9461009F06FFF00E0FDE38D
:1054E000B4F94C00FF280BD016E02A462621AFF273
:1054F0007C000AF03EF9F1E7B278521CD2B2E3E741
:10550000B4F84E10FF2907D1B4F85010FF2903D189
:10551000B4F85210FF2914D072782A21112A17D01A
:105520005FF00002CDE90012B4F95230B4F9502016
:10553000B4F94E1009F041FFB4F95400FF280BD024
:1055400016E02A462A21AFF2D4000AF012F9F3E756
:10555000B278521CD2B2E5E7B4F85610FF2907D151
:10556000B4F85810FF2903D1B4F85A10FF2939D0E4
:1055700072782821132A3CD05FF00002CDE9001296
:10558000B4F95A30B4F95820B4F9561009F015FF9F
:10559000D349002048AC0A5C2254401CC0B2092800
:1055A000F9D300258DF829517078B2780A2824D0D3
:1055B00000233C21204609F0E3FECA4900200A5C92
:1055C0002254401CC0B20328F9D38DF823517078BF
:1055D000B278152813D000233E2148A809F0D0FE48
:1055E00001F077B92A462821AFF278100AF0C1F805
:1055F000CEE7B278521CD2B2C0E70123D9E701232B
:10560000EAE7B9A00290BEA00390C3A00490C8A08E
:105610000590CD48B8F11E0F03D1019A0AB1CB4ACB
:105620000592CB4A0692A94201DA017103E0022FEA
:1056300001DD80F804C090F90440C6A00AEB8401A3
:10564000D1E901235AF82410FCF7F4BCC7A002905A
:10565000CCA00390D1A00490D6A00590DBA006902A
:10566000E0A00790E5A00890EAA00990EFA00A90BA
:10567000B748B54C0B90A94201DA217103E0022F23
:1056800001DD84F804C094F90410EEA00AEB810255
:10569000121D5AF821100CCA0AF03CF801200AF039
:1056A0002BFE94F902000022401C80B2212109F057
:1056B00026FFA54D94F90200AD1D6FF0020235F8EA
:1056C00010004FF04001C00702D0A1481F3801E090
:1056D0009F481A380AF04DF894F902006FF0020260
:1056E0004FF0230135F81000800702D598481F3885
:1056F00001E097481A380AF03CF894F902006FF07C
:1057000002024FF0240135F81000400702D59048FE
:105710001F3801E08E481A380AF02BF894F902007D
:105720006FF002024FF0260135F81000000702D595
:1057300087481F3801E086481A380AF01AF894F9A9
:1057400002006FF002024FF0250135F81000C0068C
:1057500002D57F481F3801E07D481A380AF009F861
:1057600094F902006FF002024FF05E0135F810006C
:1057700080067EF592AE76481F38A0E3B7A3BDA29F
:10578000C2A1C8A0F2E3CD4802906038039018305F
:10579000049018300590CA4806906D4807906A48F2
:1057A000022F02DD80F804C002E0A94200DA017194
:1057B00090F90440C3A00AEB8401D1E901235AF80F
:1057C000241041E7C5A00290CAA00390CFA0049086
:1057D000D4A00590EEB1D9A00690CCA00790DDA092
:1057E0000890E2A00990C9A00A90E6A00B90EBA057
:1057F0000C90F0A00D90564AF4A0CDE90E02524E46
:10580000A2F11500009BCC3E10901190302B04D0DB
:1058100005E0F4A00690F9A0E0E7CDE90E204A48A3
:10582000A1B1012912D0022910D0032910D00429D6
:105830000ED005290CD006290CD007290AD008293A
:1058400008D0022F08DD80F804C008E0002105E040
:10585000032103E0062101E0A94200DA017190F979
:10586000045007460AEB8501EAA0D1E901235AF862
:10587000251009F04FFF01200AF03EFDB6F87C002C
:105880000122402180B209F03AFE02222321B6F91A
:105890007E0009F003FC2C4D01226A355B2128882B
:1058A00009F02DFE688801225D2109F028FEA888F4
:1058B00001227B2109F023FEE88801227D2109F0E5
:1058C0001EFE9BF827005D4640B1287D30B16FF089
:1058D00004022421D5A009F04CFFB3E1ACE10000A3
:1058E000C8130820B4E3072020D0E5EBE520B93148
:1058F0002020202020202020202020200000000028
:1059000020D0E5EBE520B9322020202020202020E7
:10591000202020200000000020D0E5EBE520B93356
:1059200020202020202020202020202000000000F7
:1059300020C7E0E2EEE4F1EAE8E520F3F1F2E0ED81
:10594000EEE2EAE80000000058C1072074120000EF
:1059500023ED0100202020C0C2C0D0C8C9CDDBC5C6
:1059600020D0C5CBC52020200000000020C0E2E0F0
:10597000F0E8FF20F1E5F2E8202020202020204060
:105980000000000020C0E2E0F0E8FF20E1E0F2E0EB
:10599000F0E5E820202020230000000020C0E2E005
:1059A000F0E8FF20C1CFD12020202020202020247B
:1059B0000000000020C0E2E0F0E8FF20EFF0E5E4A6
:1059C000EE2D2020202020200000000020F5F0E017
:1059D000EDE8F2E5EBE5E92020202020202020263C
:1059E0000000000020C0E2E0F0E8FF20F1F3F5E85D
:1059F000F5202020202020200000000020EAEEEDED
:105A0000F2E0EAF2EEE220202020202020202025D3
:105A10000000000020C0E2E0F0E8FF20E2EDE5F841
:105A2000EDE5E920202020200000000020F2E5EC38
:105A3000EFE5F0E0F2F3F0FB202020202020205EB4
:105A400000000000202020D0C5CBC520C0C2C0D09F
:105A5000C8C820B92120202000000000202020ED0F
:105A6000E0E3F0F3E7EAE820342D3130C0202020D5
:105A700000000000202020D3F1F2E0EDEEE2E8F299
:105A8000E520F2EEEA202020000000002020C1C026
:105A9000D2C0D0C5DF20CDC0C3D0D3C7CAC020205C
:105AA00000000000C2EAEBFEF7E8F2E520E0E2F2D7
:105AB0002DF2FB20D1C5D2DC00000000EC18000064
:105AC000C43B00002020202020CAC0CBC8C1D0CEBB
:105AD000C2CAC02020202020000000002055E1E0A4
