:020000040000FA
:1000000028260010D9000000DD000000DF000000FD
:10001000E1000000E3000000E50000000000000037
:10002000000000000000000000000000E7000000E9
:10003000E900000000000000EB00000091CB000090
:10004000EF000000EF000000EF000000EF000000F4
:10005000EF0000005BA30100EF000000297D01001C
:10006000EF000000EF000000EF000000EF000000D4
:10007000EF000000EF000000EF000000EF000000C4
:10008000EF000000EF000000EF000000EF000000B4
:10009000EF000000EF000000EF000000EF000000A4
:1000A000EF00000089790100EF000000EF00000080
:1000B000EF000000EF000000EF000000EF00000084
:1000C000EF000000DFF80CD000F0CEF80048004749
:1000D00013CD00002826001005480047FEE7FEE784
:1000E000FEE7FEE7FEE7FEE7FEE7FEE7FEE7FEE7E8
:1000F000C500000090F900308B4200DA027090F9E0
:100100000030934200DD0170704790F900308B425F
:1001100000DA017090F90030934200DD0270704700
:10012000B0F900308B4200DA0180B0F90030934220
:1001300000DD02807047B0F900308B4200DA0280A7
:10014000B0F90030934200DD0180704703688B42B4
:1001500000DA02600368934200DD0160704700002E
:100160002C4B1A602C4B18702C4B19707047294877
:100170000068D0B127480068401E2649086014D1A5
:1001800025480078264908702448007840B2487015
:100190000846407808714FF0000022490870224953
:1001A000087022490870224908707047214A11607E
:1001B000214A107070471F480068A0B11D480068B0
:1001C000401E1C4908600ED11B4800781449087075
:1001D0004FF0000048701349087013490870134924
:1001E000087013490870704714490880704710B5AB
:1001F0001248008868B111480088A0F1010000B2DF
:100200000E4908800846008818B90021084614F0F5
:1002100051F810BDCC020010C8020010C902001035
:100220009A000010D4020010D5020010D60200106F
:10023000D7020010D0020010CA020010D80200102D
:10024000D2B201E000F8012B491EFBD27047002218
:10025000F6E710B504460846114602462046FFF769
:10026000EFFF204610BD0000064C074D06E0E06899
:1002700040F0010394E8070098471034AC42F6D3ED
:10028000FFF724FF88BB0100A8BB010070B501EB9C
:10029000020410F8015B15F0070301D110F8013BCF
:1002A0002A1106D110F8012B03E010F8016B01F8B8
:1002B000016B5B1EF9D12B0705D40023521E0FD40E
:1002C00001F8013BFAE710F8013B02F10202A1EB51
:1002D000030303E013F8015B01F8015B521EF9D53B
:1002E000A142D6D3002070BD02E008C8121F08C189
:1002F000002AFAD17047704700000000FFFFFFFF9F
:100300004FF020007649086000BF7548006810F083
:10031000400FFAD04FF003007249086072487349E9
:10032000C1F8A8014FF00000714908604FF00100CA
:10033000704908607048714908604FF00100A1F1F0
:10034000040108604FF0AA006D4908604FF05500A5
:100350006649C1F88C0000BF6848001D006810F0B5
:10036000806FF9D04FF00300664908604FF0AA0093
:100370005E49C1F88C004FF05500614908604FF0AC
:100380000000614908606148614908604FF0000061
:100390005649C1F8C8015F480068C0F301600328EE
:1003A00068D15448006810F0030006D0012823D01B
:1003B00002283FD003285CD100E000BF5548006808
:1003C000C0F30E0000F101004FEA40014748D0F8A9
:1003D0008800C0F3074000F10100B1FBF0F04E4986
:1003E00000FB01F03F490968C9B201F10101B0FB0E
:1003F000F1F04A4908603CE046480068C0F30E004E
:1004000000F101004FEA40013848D0F88800C0F3FD
:10041000074000F10100B1FBF0F0414900FB01F0A1
:1004200030490968C9B201F10101B0FBF1F03B4963
:1004300008601EE037480068C0F30E0000F10100BC
:100440004FEA40012948D0F88800C0F3074000F186
:100450000100B1FBF0F04FF4FA4100FB01F021493B
:100460000968C9B201F10101B0FBF1F02B49086044
:1004700000BF2FE01F48006810F0030006D00128DD
:1004800010D0022819D0032823D100E000BF15485E
:100490000068C0B200F101001F49B1FBF0F01F4934
:1004A000086016E00F480068C0B200F101001C4966
:1004B000B1FBF0F0194908600BE00A480068C0B2CF
:1004C00000F101004FF4FA41B1FBF0F0134908606C
:1004D00000BF00BF43F23A000449086070470000C3
:1004E000A0C10F4004C10F400000020800C00F402F
:1004F000ACC10F400CC10F404F00030084C00F403F
:100500008CC00F4080C00F4008C10F4048F100016F
:10051000C4C00F4088C00F4000093D00000000101B
:1005200080969800FF4A1268114600BFFD4A126883
:10053000521A8242FAD370474FF01100FA490872FA
:100540007047FA48C06940F44020F849C86108463D
:10055000C06940F44010C8614FF00000F449C86021
:100560004FF44060C8644FF0020048614FF47A7065
:1005700088614FF44870086248624FF001000865D6
:100580004FF0020048604FF009004860704700B526
:1005900089B04FF00000079009E04FF00001E54AF4
:1005A00007981154079800F1010000B207900798CE
:1005B000B0F5F47FF1DBE048007800287DD1DF481A
:1005C000007810F0010F20D0DD48007800281BD003
:1005D0000020DC4903223223CDE90032CDE90210AC
:1005E000182332220321084614F00CFC0020D649BF
:1005F00003223223CDE90032CDE902101823322242
:100600000321084614F0FEFBF5E0D048B0F90000E5
:10061000012876DB0020009014231A460146019041
:1006200014F0DDFA0020009012231A4601210190F7
:10063000084614F0D4FAC648007810F03C0F0DD1EB
:100640000020C44902220F23CDE90032CDE9021077
:100650001A460221032014F0D5FB32E0BC48007892
:1006600010F0100F10D0B648007838B30020BA4907
:1006700002220F23CDE90032CDE902101A460221F1
:10068000032014F0BFFB1CE0B148007810F0080F05
:1006900004D1AF48007810F0040F12D0A8480078B9
:1006A00060B10020AD4902220F23CDE90032CDE92F
:1006B00002101A460221084601E08FE201E014F020
:1006C000A1FBA748406D10F0010F1AD100200B23A9
:1006D000024614210090092013F0AAFE00200346D0
:1006E0005B221F210090092013F0A2FE9D48007894
:1006F0001330C0B20423002201460490092014F0F4
:10070000B7FA9248B0F90000022874DB002000908C
:1007100014231A4601460190172014F060FA0020B5
:10072000009012231A4601210190182014F057FA64
:100730008748407810F03C0F0DD100208A490222F2
:100740000F23CDE90032CDE902101A46022119200B
:1007500014F058FB2FE07E48407810F0100F10D0B6
:100760007748007838B300207B4902220F23CDE977
:100770000032CDE902101A460221192014F042FB82
:1007800019E07348407810F0080F04D170484078A1
:1007900010F0040F0FD06A48007860B100206F4954
:1007A00002220F23CDE90032CDE902101A460221C0
:1007B000192014F027FB6A48406DC0F34000D0B9FF
:1007C00000200B23024614210090202013F030FE5D
:1007D0000020034644221F210090202013F028FE11
:1007E000604800781330C0B2042300220146049010
:1007F000202014F03DFA5D480088002831D0002008
:1008000000901423232201460190322014F0E7F9CE
:10081000002000900223032214210190352014F0BF
:10082000DEF90020009002230322142101904F20C2
:1008300014F0D5F94148007810F0020F12D040486A
:1008400000780028DAD000203F4903223223CDE986
:100850000032CDE902101823322201462B2014F079
:10086000D1FA0AE100200B23024614210090422015
:1008700013F0DEFD0020034622221F2100904220BB
:1008800013F0D6FD3A48B0F9000000280BDA3548DD
:1008900000781330C0B204230022014604904220A5
:1008A00014F0E6F910E03248B0F9000000280BDB44
:1008B0002C480078C0F12200C0B204230222014675
:1008C0000490422014F0D4F92A4800781E286FDAE8
:1008D0002948B0F90000A0F5AA41553969D0274848
:1008E00090F900004FF0050190FBF1F000B2049088
:1008F0004FF014024FF0000104A8FFF711FC002094
:100900000121CDE90010BDF910302022014633202D
:1009100014F065F9194890F900000A284ADA022013
:1009200001212DE03C0200100040024000C00240C6
:1009300000800140760C0010A5000010A8010010F6
:10094000810000107FB0010015B10100FC00001013
:10095000DC010010ABB10100E7B1010005B20100FC
:1009600000C009205D000010C9B10100FA000010AC
:10097000B00100106000001002010010BC01001066
:1009800009230C22CDE9001005213D2014F027F9A0
:1009900001220020FF4B93F90030CDE901020093C2
:1009A00003920223FCA205213D2014F067FA3BE0EC
:1009B0004FE03AE0F74890F9000064281ADA022084
:1009C000012109231222CDE9001005213A2014F05B
:1009D00006F9012102220020EE4B93F90030CDE907
:1009E0000030CDE902210323ECA205213A2014F0C6
:1009F00045FA19E00220012109231822CDE900104F
:100A00000521372014F0EBF8012203200021E14BEF
:100A100093F90030CDE90031CDE902020423E0A2D0
:100A20000521372014F02AFA27E0DF48B0F900004A
:100A30000A2190FBF1F000B20121032204908DE81D
:100A400007000423D9A2039105213A2014F016FAD5
:100A500013E0D548B0F900000A2190FBF1F000B294
:100A6000012203210490CDE9012104230392009087
:100A7000CEA205213A2014F001FA002000900E23A6
:100A80001B22022101905C2014F0A9F800200346EB
:100A9000021F082100905C2013F0CAFC00200346CE
:100AA000042208210090762013F0C2FC00200346A7
:100AB00027221F210090432013F0BAFC00206FF082
:100AC0000F0302461F210090692013F0B1FCB948C2
:100AD0000078C0F12200C0B2042302220146049033
:100AE000692014F0C5F801200421B34BB3F900309C
:100AF000CDE900300523B1A2CDE902101621462030
:100B000014F0BCF9AF48B0F9000064280FDA0120F6
:100B10000321AC4BB3F90030CDE900300423A3A28C
:100B2000CDE9021005215D2014F0A8F914E0A548D4
:100B3000B0F900000A2190FBF1F000B2012103227C
:100B400000230490CDE9013203910090042397A281
:100B500005215A2014F092F99B48007800F1010019
:100B60009949087008460078032836DB4FF00000EA
:100B700008709648007800F1010094490870084612
:100B800000780D2802DB4FF00000087090480078D4
:100B900000F101008E49087008460078202802DB29
:100BA0004FF0000008708348007800F1010081498F
:100BB000087008460078112802DB4FF0000008702A
:100BC0008448007800F101008249087008460078E6
:100BD000282802DB4FF0000008708AE04FF0000088
:100BE000069082E04FF07A01069800FB01F0059034
:100BF000069800EB80004FEA800000B2089067E0A2
:100C000075490898085C00EB4000744911F8102001
:100C1000059800F10101059171490A546E4908983F
:100C2000085C00EB40004FF0010101EB40006B4914
:100C30000A5C059800F10101059169490A54664969
:100C40000898085C00EB40004FF0020101EB400007
:100C500062490A5C059800F10101059160490A5456
:100C60005D490898085C00EB40004FF0030101EB80
:100C700040005A490A5C059800F101010591584964
:100C80000A5455490898085C00EB40004FF00401F5
:100C900001EB400051490A5C059800F10101059102
:100CA0004F490A544C490898085C00EB40004FF04B
:100CB000050101EB400049490A5C059800F101017A
:100CC000059147490A54089800F1010000B20890C4
:100CD000069800EB800080001430089988428FDC71
:100CE000069800F1010000B2069006980428FFF66D
:100CF00079AF09B000BD00B5CBB04FF005000D9045
:100D00004FF000000E903748007805280ED136A22B
:100D10000E9800F10101C9B20E910FA941F82020EF
:100D20000D9800F10100C0B20D9011E02D4800783F
:100D300021280DD132A20E9800F10101C9B20E9105
:100D40000FA941F820200D9800F10100C0B20D90CC
:100D50003148007810F0010F0DD030A20E9800F14C
:100D60000101C9B20E910FA941F820200D9800F1A0
:100D70000100C0B20D902848007810F0020F6AD030
:100D80002CA20E9800F10101C9B20E910FA941F8F1
:100D900020205BE0BC010010202500002020250061
:100DA0002020202500000000B0010010202020415C
:100DB000000000005F000010EE0100102020202045
:100DC00042000000EC0100105C0000105D0000100B
:100DD0005E00001060000010AE0B001023B2010096
:100DE000760C00104C02001020C2FBF0E0E2ED2E69
:100DF000E7E0F0FFE420207A3A305A2000000000BB
:100E00002020CAEEEDF2F0EEEBFC20E5ECEAEEF18C
:100E1000F2E8202000000000A8010010202020C0DF
:100E2000E2E0F0E8FF20F1E5F2E821212120202096
:100E30000000000020C0E2E0F0E8FF20E1E0F2E086
:100E4000F0E5E82121212020000000000D9800F1AC
:100E50000100C0B20D90FF48007810F01C0F0DD0BB
:100E6000FDA20E9800F10101C9B20E910FA941F83F
:100E700020200D9800F10100C0B20D90F548407897
:100E800010F01C0F0DD0FAA20E9800F10101C9B2AA
:100E90000E910FA941F820200D9800F10100C0B279
:100EA0000D90F9480078012811D1F848008870B9F0
:100EB000F7A20E9800F10101C9B20E910FA941F8F5
:100EC00020200D9800F10100C0B20D9014E0EE4812
:100ED0000078022810D1ED48008868B9F2A20E9877
:100EE00000F10101C9B20E910FA941F820200D981F
:100EF00000F10100C0B20D90F1480078552810D1E2
:100F0000F048008868B9F0A20E9800F10101C9B25A
:100F10000E910FA941F820200D9800F10100C0B2F8
:100F20000D90E7484078552810D1E648408868B9C8
:100F3000EBA20E9800F10101C9B20E910FA941F880
:100F400020200D9800F10100C0B20D90EA48007811
:100F500000F10100E849087008460078142811DB08
:100F60004FF000000870E548007800F10100E34907
:100F70000870084601780D98814203DB4FF00000AD
:100F8000DE490870DE480078292870D1DC484078B6
:100F900000286ED1DBA3DBA2DAA1DAA011F045FDB7
:100FA000002302221946DD48007811F09BFA002345
:100FB00002220121DA48008880B211F093FA00235E
:100FC00002221146D748008880B211F08BFA002324
:100FD00007221946D448008880B211F083FA002312
:100FE00007220121D148008880B211F07BFA00234A
:100FF00007220221CE48008880B211F073FA002344
:1010000007220321CB48008880B211F06BFA00233D
:101010000A221946C848007811F064FA00230A220F
:101020000121C648007811F05DFA00230A2202214E
:10103000C348007811F056FA002313221946C1481C
:1010400090F9000080B211F04DFA00231322012123
:10105000BD48008880B211F045FA00231322022116
:10106000BA48008880B211F03DFA06F0B4BCF9E34A
:10107000FFE7A3484078012851D1B54B1A46B5A1E6
:10108000B9A011F0D2FC002304221946BC48008804
:1010900080B211F027FA00231A460121B94890F9CD
:1010A000000080B211F01EFAB748008880B2012318
:1010B0000E2200210C9011F015FAB348408880B23E
:1010C00001230E2219460C9011F00CFAAF4800884B
:1010D00080B20123132200210C9011F003FAAB48D7
:1010E000408880B20123132219460C9011F0FAF9BE
:1010F000584800780A2200210C9011F036FB554820
:1011000040780A2201210C9011F02FFB00230122CC
:1011100002219F48008880B211F0E4F9A5E77848E1
:101120004078022868D177A376A276A175A011F045
:101130007CFC9848006880B20023032219460C907A
:1011400011F0D0F99348406880B2002303220121B6
:101150000C9011F0C7F98F48806880B200230322F9
:1011600002210C9011F0BEF98A48C06880B20023B9
:10117000032211460C9011F0B5F98648006980B23F
:101180000023092219460C9011F0ACF981484069FE
:1011900080B20023092201210C9011F0A3F97D48AF
:1011A000806980B20023092202210C9011F09AF983
:1011B0007848C06980B20023092203210C9011F005
:1011C00091F97448006A80B20023132201210C9027
:1011D00011F088F97048006A80B2002313220221BE
:1011E0000C9011F07FF90023132203216B48006853
:1011F00080B211F077F938E741484078032828D1C8
:1012000040A340A23FA13FA011F00FFC624800683C
:1012100080B20023032219460C9011F063F95E4856
:10122000406880B20023032201210C9011F05AF98A
:101230005948806880B20023032202210C9011F0EB
:1012400051F95548C06880B20023032211460C9022
:10125000A6E014E1DC01001020C0E2E0F0E8FF208D
:10126000E8F1F2EEF7EDE8EAE0204E310000000090
:1012700020C0E2E0F0E8FF20E8F1F2EEF7EDE8EA66
:10128000E0204E3200000000FC010010540100106C
:10129000C2EDE5F82EF2E5ECEF2E4E31E7E0E2FB91
:1012A000F8E5EDE000000000C2EDE5F82EF2E5EC17
:1012B000EF2E4E31E7E0EDE8E6E5EDE0000000005E
:1012C000050000107801001020D1F0E0E1EEF2E01E
:1012D000EB20F8EBE5E9F4204E312020000000007F
:1012E00020D1F0E0E1EEF2E0EB20F8EBE5E9F420CC
:1012F0004E3220200000000062000010610000104B
:101300009A000010202020202020202020202020B3
:10131000202020202020202000000000920000102B
:10132000900000108C000010840200108002001059
:1013300086020010AE010010B6020010B7020010C5
:10134000B8020010BC0100100201001004010010DE
:1013500017B0010020202020202020202020202045
:10136000202020202020200032202020202020208B
:1013700020202020202020202020202000000000ED
:10138000400200108B020010E2010010E601001084
:10139000FC000010B00A0010D80A001084000010F1
:1013A00011F0A0F8FF48006980B200230822194616
:1013B0000C9011F097F8FB48406980B20023082296
:1013C00001210C9011F08EF8F648806980B200235C
:1013D000082202210C9011F085F8F248C06980B211
:1013E0000023082203210C9011F07CF8EE480068DD
:1013F00080B200230E2219460C9011F073F8EA48CF
:10140000406880B200230E2201210C9011F06AF88E
:10141000E548806880B200230E2202210C9011F072
:1014200061F8E148C06880B200230E2203210C90CD
:1014300011F058F8DC48006980B2002313221946E5
:101440000C9011F04FF8D848406980B20023132265
:1014500001210C9011F046F8D348806980B2002336
:10146000132202210C9011F03DF8CF48C06980B2E0
:101470000023132203210C9011F034F8F5E5CB483A
:10148000407804287DD1AFF28413AFF28812AFF216
:101490008C11AFF2901011F0C8FAC548006880B204
:1014A0000023032219460C9011F01CF8C048406834
:1014B00080B20023032201210C9011F013F8BC48E4
:1014C000806880B20023032202210C9011F00AF8F8
:1014D000B748C06880B20023032211460C9011F077
:1014E00001F8B348006980B20023072219460C9026
:1014F00010F0F8FFAE48406980B2002307220121B6
:101500000C9010F0EFFFAA48806980B200230722F8
:1015100002210C9010F0E6FFA548C06980B20023BC
:10152000072203210C9010F0DDFFA148006A80B271
:1015300000230B2219460C9010F0D4FF9C48406AFF
:1015400080B200230B2201210C9010F0CBFF9848B1
:10155000806A80B200230B2202210C9010F0C2FF9F
:101560009348C06A80B200230B2203210C9010F034
:10157000B9FF8F48006B80B200230F2219460C90F0
:1015800000E02BE010F0AEFF8948406B80B20023F2
:101590000F2201210C9010F0A5FF8548806B80B2CE
:1015A00000230F2202210C9010F09CFF8048C06B9A
:1015B00080B200230F2203210C9010F093FF002330
:1015C000132219467B48007810F08CFF0023132269
:1015D00001217948007810F085FF46E5734840788E
:1015E00001285DD175A37BA280A186A011F01DFA10
:1015F000012228218948008880B210F0AEFF002225
:1016000021218748008880B210F0A7FF00224021E6
:101610008448008880B210F0A0FF8348008880B220
:10162000012223210C9010F098FF7F48408880B25F
:10163000012224210C9010F090FF7C48008880B299
:10164000012225210C9010F088FF7848408880B254
:1016500001225E210C9010F080FF01223C21744891
:10166000008880B210F079FF02223E217148B0F963
:10167000000010F08EFD704800780D2203210C90C0
:1016800011F073F86C484078132203210C9011F08C
:101690006CF8052203216948007811F066F8E4E44B
:1016A00042484078022898D040484078022856D1D5
:1016B00042A348A24DA162A011F0B7F90022212156
:1016C0005748008880B210F048FF0022402155485A
:1016D000008880B210F041FF5348008880B2012298
:1016E00023210C9010F039FF4F48408880B201222E
:1016F00024210C9010F031FF4C48008880B2012268
:1017000025210C9010F029FF4848408880B2012222
:101710005E210C9010F021FF01223C2144480088FA
:1017200080B210F01AFF02223E214248B0F90000B8
:1017300010F02FFD404800780D2203210C9011F08D
:1017400014F83D484078132203210C9011F00DF855
:10175000052203213948007811F007F885E4134881
:101760004078032806D13C4B1A461146084611F032
:101770005CF97AE40D484078052874D1AFF27C43D7
:10178000AFF28042AFF28441AFF2884011F04DF9E0
:10179000324800780023012219460C9010F0A2FE76
:1017A0002F4861E0D80A0010000B00109A000010CA
:1017B000280B0010890000108800001053742020AE
:1017C00020202020537431202020537432202020E8
:1017D0000000000049E1202020203E204931202047
:1017E000202549322020205E0000000055E1202005
:1017F00020203C2055312020202355322020202439
:1018000000000000556E202020202820D831202004
:101810002021D8322020204000000000800200104B
:101820007C0200107E020010E2010010E6010010B0
:10183000AE010010B0010010DC010010A801001082
:10184000706C202020202820D83120202021D83260
:10185000202020400000000017B00100F601001019
:10186000F901001043E12AE000780023012211462B
:101870000C9010F037FEF04800780023012202217E
:101880000C9010F02FFEED48008880B20023052256
:1018900019460C9010F026FEE948008880B200231B
:1018A000052201210C9010F01DFEE648008880B250
:1018B0000023052202210C9010F014FE2EE4E248D1
:1018C000407806287ED1E1A02D90E6A02E90EBA0D6
:1018D0002F90F0A03090F5A03190FAA03290FFA0A8
:1018E0003390D94890F90400C01C2DA951F820006C
:1018F0000C90D54890F90400801C51F820000B9002
:10190000D14890F90400401C51F820000A90CE48BC
:1019100090F9040051F8200009900AA90EC911F0AD
:1019200084F802223F21F348B0F9000010F031FCA6
:10193000F148406D00F00100002224210C9010F0CD
:101940000CFEEE48007823210C9010F0E6FEEA48E9
:10195000406DC0F34000002240210C9010F0FDFDCE
:10196000E648407821210C9010F0D7FEE44800882A
:1019700080B200224A210C9010F0EFFDE048408830
:1019800080B200226A210C9010F0E7FDDD4800785B
:10199000002259210C9010F0E0FDDA484078002236
:1019A00079210C9010F0D9FDD748006880B2002250
:1019B00068210C9010F0D1FD00226D21D348006801
:1019C00080B200E05AE010F0C8FDD1480088002243
:1019D00051210C9010F0C1FDCE48008800227121E9
:1019E0000C9010F0BAFDCA48408800225A210C9091
:1019F00010F0B3FDC748408800227A210C9010F007
:101A0000ACFDC5480078002241210C9010F0A5FDE6
:101A1000C2480078002261210C9010F09EFDBE4863
:101A20004078002242210C9010F097FDBB4840788E
:101A3000002262210C9010F090FDB348006880B243
:101A4000002243210C9010F088FDAF48406880B21E
:101A5000002244210C9010F080FDB148006880B253
:101A6000002263210C9010F078FDAD48406880B2F0
:101A7000002264210C9010F070FDFFE47248407861
:101A80000728FAD1A74B1A461146084610F0CDFF99
:101A9000A54800784FF000034FF0060219460C905D
:101AA00010F020FD002306220121A048007810F04C
:101AB00019FD682013F05DFF80B200230622022189
:101AC0000C9010F00FFD98483838808F00231022BA
:101AD00019460C9010F006FD6A2013F04AFF80B200
:101AE0000023102202210C9010F0FCFCC6E45648A2
:101AF000007800287DD18EA02D908148B0F900009B
:101B0000C82807DD7E48B0F90200C82802DD8EA093
:101B10002D9016E07A48B0F90000C82802DD90A0A8
:101B20002D900EE07648B0F90200C82802DD92A0A0
:101B30002D9006E09648B0F90000C82801DD95A078
:101B40002D909AA02E909FA02F90A4A03090A9A095
:101B50003190AEA03290B3A03390B8A03490BDA025
:101B60003590C2A03690C7A03790CCA03890D1A0B5
:101B70003990D6A03A90DBA03B90E0483C903248A8
:101B8000407820B94FF000002F4908711CE02E4822
:101B900090F904002C4991F90110401A022807DD40
:101BA0002948407800F1020040B2274908710BE053
:101BB000254890F90100244991F90410884203DD79
:101BC0002148407820490871CD48007805281EDA60
:101BD0001D4890F90400C01C2DA951F820000C905C
:101BE000194890F90400801C51F820000B90164809
:101BF00000E04DE290F90400401C51F820000A90EA
:101C00002D9809900AA90EC910F00FFF88E10E481F
:101C100090F90400C01C2DA951F820000C900A482E
:101C200090F90400801C51F820000B90064890F9B0
:101C30000400401C66E10000FC01001036010010A9
:101C4000F0010010420100109A0000102020202016
:101C50003F2020202020202020242023204020213D
:101C600000000000202020202020202020202020F4
:101C70002020204A2020206A000000002020202070
:101C800020202020202020202020205920202079C2
:101C900000000000202020682020206D202020202F
:101CA00020512071205A207A00000000202020734B
:101CB00020202053202020202020204320202044AA
:101CC0000000000020202066202020462020202028
:101CD00020202063202020640000000020202020FD
:101CE000202020202020202020412061204220622E
:101CF00000000000B001001000C00920DC0100104D
:101D0000E201001078020010580200105402001086
:101D10006C02001068020010BA020010BC02001031
:101D20006002001017B00100384002408801001026
:101D30002020CDE5EEEFF0E5E4E5EBE5EDEDEEF1AD
:101D4000F2FC20200000000020C220F0E0E1EEF2D2
:101D5000E520C1CFD1312CC1CFD13220000000000D
:101D600020202020C220F0E0E1EEF2E520C1CFD11A
:101D7000312020200000000020202020C220F0E0A0
:101D8000E1EEF2E520C1CFD132202020000000009A
:101D9000AE0100102020D0E0E1EEF2E020EEF220D3
:101DA000E1E0F2E0F0E5E820000000002055E13D30
:101DB0002020206CC22049E13D2020202040C0206E
:101DC000000000002055ED3D20202023C22049EDD9
:101DD0003D2020202024C020000000002030253A93
:101DE000305E3A302620303C2F3E20202F307B20A2
:101DF0000000000020C1E0F2E0F0E5FF20202020FC
:101E000020202020202020200000000020C1CFD151
:101E100031202020202020202020202020202020B1
:101E20000000000020C1CFD132202020202020201F
:101E300020202020202020200000000020CDE0E3F2
:101E4000F0F3E7EAE020202020202020202020209E
:101E50000000000020D1E5F2FC20202020202020DE
:101E600020202020202020200000000020D1EFE5AD
:101E7000F6F4F3EDEAF6E8E82020202020202020E8
:101E80000000000020C6F3F0EDE0EB20F1EEE1FBF6
:101E9000F2E8E920202020200000000020C1E0F22C
:101EA000E0F0E5E9EDFBE920E6F3F0EDE0EB2020E2
:101EB0000000000020CFE0F1EFEEF0F22020202023
:101EC00020202020202020200000000020D3F1F23C
:101ED000E0EDEEE2EAE82020202020202020202053
:101EE0000000000020D1E1F0EEF120E0E2E0F0E8B7
:101EF000E920202020202020000000002CB001003C
:101F00006100001051F820000A90FF480078401F3F
:101F10000FA951F8200009900AA90EC910F085FDFB
:101F2000FA48007950B3F948407838B3F74890F947
:101F30000400F64991F90110884205D14FF00100E3
:101F4000F34981F83C0019E0F04890F90400EF49AA
:101F500091F90110401A012803D1ED4981F82800B8
:101F60000CE0EA4890F90400E84991F90110401AA0
:101F7000022803D14FF00100E549087501226C21C8
:101F8000E448008880B210F0E8FA02224021E248DA
:101F9000B0F9000010F0FDF801222321DF4800888D
:101FA00080B210F0DAFA01222421DD48008880B2E4
:101FB00010F0D3FADB4800784FF000024FF0260112
:101FC0000C9010F0CAFAD748203890F8240000226C
:101FD0005E210C9010F0C1FAD34800784FF0000257
:101FE0004FF025010C9010F0B8FACE48203890F848
:101FF0002C0000223C210C9010F0AFFACB48007866
:10200000CB4901EB80004FF000024FF03E010C90F5
:1020100010F060FDC3482038808F00227B210C9097
:1020200010F09BFAC3480078B0B13A200FF06FFF70
:10203000B7494FF020020A544FF03A000FF067FF03
:10204000B3494FF020020A544FF03A000FF05FFFFF
:10205000AF494FF020020A54B74800684FF461615D
:10206000B0FBF1F080B200227A210C9010F075FAEA
:10207000B14800683C21B0FBF1F0B0FBF1F201FB8C
:10208000120080B200225A210C9010F066FA15E47A
:102090009E48007804287ED1A848008830B9A8A3BB
:1020A000ADA2B3A1B8A010F0C0FC07E4BC48007812
:1020B00010F0020F10D09F48007830B1B94BBAA28F
:1020C000BFA1C5A010F0B1FCD7E4B64B1A4611462B
:1020D000084610F0AAFCD0E4C5A02D90CA480078AC
:1020E00020B9CAA02E90CFA0309003E0D3A02E90AC
:1020F000D8A03090DDA02F90E248007810B1E2A087
:10210000319001E0E6A03190EBA03290F0A0339046
:10211000F54834907D4890F90100C01C2DA951F874
:1021200020000C90794890F90100801C51F82000A3
:102130000B90764890F90100401C51F820000A905D
:102140000146ABA0DDE90B2310F06FFC012240211A
:102150007048008880B210F000FA022221216E48F7
:10216000B0F9000010F015F800222421DF480088A3
:1021700080B210F0F2F900227721DD4890F90000DA
:1021800080B210F0EAF9DB48B0F90000A0F5AA41EE
:10219000553907D100E016E04A1E5121D6A010F0B3
:1021A00099FC06E001225121D248008880B210F04B
:1021B000D4F956484078042886D14FF0010054499C
:1021C00081F83C0059E451480078052877D14F4800
:1021D000807828B9CA48406D00F001000C9004E0F6
:1021E000C748406DC0F340000C90484880780128F3
:1021F0000CD1C4480088012808D1C3A00B90C8A006
:102200002D90CDA02E9067482F904AE00C9810B1E9
:10221000CFA00B9001E0D4A00B906148007810F0A3
:10222000010F02D0D6A02D902AE0384890F9020084
:10223000D949085C10F0100F02D0D8A02D901FE0F3
:10224000324890F90200D449085C10F0080F02D01F
:10225000D8A02D9014E02D4890F90200CE49085CDA
:1022600010F0040F02D0D9A02D9009E0274890F972
:102270000200C949085C10F03C0F01D1D9A02D9093
:10228000DEA02E90E3A02F90204890F90200E749AD
:10229000085C10B1E6A0309001E0EBA030909248CD
:1022A00031901A4890F90100184991F90410401A28
:1022B000002805DD15484078144908710CE00CE24F
:1022C000124890F90100114991F90410884203DA8B
:1022D0000E4840780D4908710C4890F90400801CA4
:1022E0002DA951F820000A90084890F90400401CDC
:1022F00051F820000990054890F9040051F8200099
:1023000008900146ACE10000610000109A00001046
:10231000AE0B0010AE010010B0010010EE01001075
:10232000EC010010204002402840024038400240AA
:102330004BB0010081000010A4020010FA00001050
:10234000E220E1E0F2E0F0E5E9EDEEEC20E6F3F08A
:10235000EDE0EBE5000000002020202020E2E2E597
:10236000E4E8F2E520E5B82020202020000000006D
:1023700020CFF0E82020EDE5EEE1F5EEE4E8ECEE2C
:10238000F1F2E8200000000020C1C0D2C0D0C5DFBB
:1023900020CDC520C2C2C5C4C5CDC02000000000EC
:1023A000A801001017B0010020202020EDE520EF4B
:1023B000EEE4EAEBFEF7E5EDE0202020202000002F
:1023C00020202020202020C1E0F2E0F0E5FF2020A6
:1023D000202020202020000020202020202020C09D
:1023E000C2C0D0C8DF2121202020202020200000D2
:1023F000202020202020C1C0D2C0D0C5DF20202036
:102400002020202000000000B40200102020202006
:10241000E7E0F0FFE6E0E5F2F1FF202020202020B9
:102420000000000020202049E7E0F03D202020208F
:102430002021C0202020202000000000202020F0AB
:10244000E0E7F0FFE6E0E5F2F1FF20202020202089
:102450000000000020202049F0E0E7F03D2020208F
:102460002021C02020202020000000002020205516
:10247000E1E0F23D202020202040C220202020202A
:1024800000000000D801001020202020C4D22E20FF
:10249000EDE5E8F1EFF0E0E2E5ED202000000000DE
:1024A00020202074E1E0F2203D20202024B04320B1
:1024B0002020202000000000202020C7E0F0FFE4C2
:1024C0003D20202020772520202020200000000013
:1024D00020202043E1E0F23D202020202051C02A8E
:1024E000F7202020000000002CB00100AC010010FB
:1024F000BC010010020100102D2D2D2D2D2D0000EE
:1025000000C00920FC0000102020202020202020D6
:10251000C1CFD13220202020202020200000000028
:1025200020202020CED2D1D3D2D1D2C2D3C5D22026
:1025300020202020000000002020C220D1D2D0D3B3
:10254000CAD2D3D0C520C8C1DDCF202000000000F2
:1025500020202020C1CFD12120C2DBCACBDED7C5AD
:10256000CD2020200000000020202020C1CFD1213C
:1025700020C2CACBDED7C5CD20202020000000001D
:1025800020E0E2E0F0E8FF20F1E5F2E82020202062
:102590002020202000000000DC01001020E0E2E00C
:1025A000F0E8FF20EFE5F0E5E3F0E5E22020202071
:1025B0000000000020E0E2E0F0E8FF2055E2FBF53B
:1025C0003C55ECE8ED2020200000000020E0E2E097
:1025D000F0E8FF2055E2FBF53E55ECE0EAF1202063
:1025E0000000000020F1EEF1F2EEFFEDE8E5202D15
:1025F00020EDEEF0ECE02020000000002055E8F196
:10260000F2203D2020202040C22020202020202019
:10261000000000002049E8F1F2203D202020202386
:10262000C02020202020202000000000EA0100100F
:1026300020C4D220EDE5E8F1EFF0E0E2E5ED202066
:1026400020202020000000002074E8F1F2203D202E
:10265000202024B043202020202020200000000043
:10266000DDE909230B9810F0E0F9EC4890F902003D
:10267000401C80B2002221210A900FF06EFFE74833
:1026800090F90200E64931F8100080B201224021A1
:102690000A900FF062FFE14890F90200E14931F839
:1026A000100080B2012223210A900FF056FFDB4870
:1026B00090F90200DC4931F8100080B20022242198
:1026C0000A900FF04AFFD5484078022804D14FF015
:1026D0000100D64981F83C00D9E4D048007811289F
:1026E0001AD1D3A3D8A2DEA1E3A010F09EF94FF037
:1026F0000100CE4981F83C0002464FF02101E44838
:10270000008880B20FF029FF01224021E1480088B3
:1027100080B20FF022FFBAE4C048007802282CD122
:10272000DD48007810F0010F08D0DC48007810B1C7
:10273000DBA02D9004E0DF482D9001E0DEA02D907D
:102740002D98BBA3E2A2E8A10C9010F06EF94FF017
:102750000100B64981F83C004FF000024FF0230120
:10276000E748008880B20FF0F8FE01224021E548DA
:10277000008880B20FF0F1FE89E4A84800780C28A8
:1027800043D1E1A02D90E6A02E90EBA02F90F04831
:102790003090A24890F90100A04991F90410401A24
:1027A000022807DD9D484078A0F1020040B29B4915
:1027B00008710BE0994890F90100984991F90410CB
:1027C000884203DA9548407894490871934890F913
:1027D0000400801C2DA951F820000C908F4890F91E
:1027E0000400401C51F820000B908C4890F9040024
:1027F00051F820000A900146D6A0DDE90B2310F025
:1028000014F9012011F07DFD41E48448007814287A
:1028100014D1D6480078212802D1D5A02D9001E00E
:10282000D9A02D902D98A34BC94A01460C90DCA04D
:1028300010F0FBF8012011F064FD28E477480078DF
:10284000102830D1DC482D90DCA02E9073484078C1
:1028500020B9E0A02D90E5A02E9019E06F484078B7
:10286000012804D1E7A02D90ECA02E9010E06B4839
:102870004078022804D1EFA02D90F4A02E9007E01C
:1028800066484078032803D1EAA02D90F5A02E9049
:102890002E980C902D980B900246C8A1C6480C9B10
:1028A00010F0C3F810E45D48007815281BD1AF483C
:1028B0000078052802D1AEA02D9001E0B2A02D90A5
:1028C0002D98A34B0246EDA10C90F2A010F0ADF8AC
:1028D000012011F016FD00222121F448008880B269
:1028E0000FF03BFE6EE44D48007841287ED1E9A30D
:1028F000E8A2E8A1E7A010F098F84FF00400EC4936
:102900000870EC480078012802D1EBA02D9021E05E
:10291000E8480078022802D1EDA02D901AE0E548A1
:102920000078032802D1F0A02D9013E0E148007850
:10293000062802D1F2A02D900CE0DE4800780C2889
:1029400002D1F5A02D9005E0F9A02D904FF00100E7
:10295000D7490870D6480078042809D1FAA02E90EB
:10296000FFA02F90AFF68C3030907948319001E085
:1029700077482E90294890F90400401C2DA951F861
:1029800020000C90254890F9040051F820000B908D
:102990000246F9A1FEA00C9B10F047F81F4890F9E1
:1029A00001001E4991F90410884204DA1B4840785E
:1029B0001A4908710FE0194890F90100174991F977
:1029C0000410401A012806DD14484078A0F10100E7
:1029D00040B21249087111484078022801D10F49CC
:1029E0000871022011F08DFC002200E0FDE125219C
:1029F000ED4800880FF0B1FD00225E21EB48008811
:102A00000FF0ABFD00222621E94800880FF0A5FD5C
:102A100000223C21E7480088CEE100009A00001027
:102A2000E2010010E6010010DE010010AE0B001004
:102A300020C2FBF5EEE420202020202020202020B2
:102A400020202020000000002049EDE0E3F03D20A0
:102A500020202020202040412020202000000000B5
:102A60002055EDE0E3F03D2020202020202021C251
:102A70002020202000000000202020202020CDC089
:102A8000C3D0D3C7CAC020202020202000000000CF
:102A9000EE010010EC010010A801001081000010F0
:102AA000202020C0C2C0D0C8DF20D1C5D2C821217B
:102AB0002120200017B0010020202020202020D13C
:102AC000C5D2DC2020202020202020200000000073
:102AD0002046F1E5F2E83D2020202020202040C3C0
:102AE000F6202020000000002055F1E5F2E83D200E
:102AF00020202020202023C22020202000000000B1
:102B0000940000108E00001020CAEEEDF2F0EEEB03
:102B1000FC20E5ECEAEEF1F2E820202000000000C5
:102B200020C2FBF0E0E2EDE8E2E0FEF9E8E920E7B0
:102B3000E0F0FFE40000000020C0E2F22EE2FBF033
:102B4000E0E2EDE8E22E20E7E0F0FFE40000000024
:102B50002CB0010020202020D1CFC5D6D4D3CDCA9F
:102B6000D6C8C82020202020000000004C02001001
:102B700020C2EAEBFEF7E5ED2020202020202020D7
:102B8000202020200000000020C2FBEAEBFEF7E539
:102B9000ED202020202020202020202000000000E8
:102BA0002020CACECDD2D0CECBDC20C5CCCACED14F
:102BB000D2C8202000000000000E0000202020EDE0
:102BC000E5E2EEE7ECEEE6E5ED21212120202020F4
:102BD0000000000020202020CEF2F1F3F2F1F2E21A
:102BE000F3E5F220202020200000000020202020FB
:102BF0002020E1E0F2E0F0E5FF202020202020204E
:102C00000000000020202020202020C0E2E0F0E88A
:102C1000FF20202020202020000000002020202055
:102C200020202020F1E5F2E8202020202020202074
:102C300000000000202020202020C1E0F2E0F0E58C
:102C4000FF20202020202020000000002020202025
:102C5000F0E0E7F0FFE6E0E5F2F1FF2020202020A1
:102C6000000000002020202020E7E0F0FFE6E0E563
:102C7000F2F1FF20202020200000000020E4EBE8FB
:102C8000F2E5EBFCEDEEF1F2FC202D202021F72EF9
:102C90000000000020C2DBD0C0C2CDC8C2C0DED957
:102CA000C8C920C7C0D0DFC400000000F600001073
:102CB000B00000108801001020F0E0E720E220ECD6
:102CC000E5F1FFF620202020202020200000000039
:102CD00020F0E0E720E2203220ECE5F1FFF6E020F2
:102CE000202020200000000020F0E0E720E2203338
:102CF00020ECE5F1FFF6E02020202020000000007D
:102D000020F0E0E720E220EFEEEBE3EEE4E020202D
:102D1000202020200000000020F0E0E720E220E357
:102D2000EEE4202020202020202020200000000091
:102D300020E2FBEAEBFEF7E5ED202020202020201A
:102D4000202020200000000020E4EBE8F2E5EBFC6E
:102D5000EDEEF1F2FC20202028F72E2000000000EC
:102D600020EEF7E5F0E5E4EDEEE520E2EAEBFEF734
:102D7000E5EDE8E500000000C2DBD0C0C2CDC8C26E
:102D8000C0DED9C8C920C7C0D0DFC4200000000001
:102D9000202020C0C2D2CECCC0D2C8D7C5D1CAC88C
:102DA000C9202020000000008A0100108C010010C2
:102DB0008E010010900100100FF0CFFBFE48FF497C
:102DC000098800EB810000223E210C900FF082FE6A
:102DD00000227B21FA4800880FF0BFFB0022282147
:102DE000F84800880FF0B9FB76E4F74800784428EB
:102DF00073D140F6026012F0BCFD00B2F3490880C6
:102E00000846B0F90000402802DD4FF000000880BD
:102E1000EE48008850B9EE4BEE4AEFA1F4A00FF057
:102E200004FE4FF00000E84908718DE0E748008893
:102E300001280AD1F4A3E74AF9A1EDA00FF0F5FDAE
:102E40004FF00000E04908717EE0E0480088022869
:102E500031D1DD4890F90100DB4991F90410884235
:102E600004DAD9484078D84908710FE0D64890F97B
:102E70000100D54991F90410401A022806DDD24814
:102E80004078A0F1020040B2CF490871CE480079E5
:102E900030B9D04BE8A2E2A1D5A00FF0C6FD53E0B7
:102EA000C948007901284FD1D7A3CA4ADCA1D0A0D4
:102EB0000FF0BBFD48E0C548B0F90000022843DD33
:102EC000C14890F90100C04991F90410884205DA1F
:102ED000BD484078BC49087110E04FE0BA4890F90D
:102EE0000100B94991F90410401A022806DDB648DC
:102EF0004078A0F1020040B2B3490871B24890F99D
:102F00000410B248B0F90000401E814206D1BEA3B1
:102F1000B04AC3A1B6A00FF088FD15E0AA4890F909
:102F20000410AA48B0F90000801E814206D1A94BC6
:102F3000C1A2BBA1AEA00FF078FD05E0C4A3BEA264
:102F4000B7A1ABA00FF071FD012011F0DAF99E4896
:102F5000007928210C900FF0F2FE9B480079401C6C
:102F6000C0B25B210C900FF0EAFE97480079801CFC
:102F7000C0B27B210C900FF0E2FE45E4924800784D
:102F800045287DD1924B1A46114608460FF04DFD5B
:102F90004FF4606012F0EDFC80B20C908A4890F91A
:102FA0000200C0F1000002464FF0400104900C986E
:102FB00000B20FF01CFD80B20C900C984FEA40500C
:102FC0004FEA10400C900C9800F5806080B20C9095
:102FD0000BA90C9812F07BFD05A90C98001D12F0AE
:102FE00076FD09A90C98083012F071FD0AA90C9819
:102FF0000C3012F06CFD07A90C98103012F067FD30
:1030000008A90C98143012F062FD06A90C9818302B
:1030100012F05DFD9DF82C00552849D19DF82E0039
:10302000522845D190A396A29BA1A1A00FF0FDFC30
:103030009DF828000022402104900FF08EFA9DF8A0
:1030400029000022232104900FF087FA9DF82A001E
:103050000022242104900FF080FA9DF8260000221F
:10306000252104900FF079FA9DF8240000225E21BA
:1030700004900FF072FA9DF82500012805DB00E0AE
:10308000FEE39DF825000C2803DD4FF001008DF8CC
:1030900025009DF82500484901EB800000222821E9
:1030A00004900FF017FD4FF00000484908804FE3EF
:1030B0009DF82C0050287DD19DF82E00412879D113
:1030C00081482D9068A02E909DF81C0041281BD1AE
:1030D0009DF81D00412817D17CA02F9081A0309031
:1030E000309804902F9803902E9802902D9801907C
:1030F00002A90EC90FF099FC00222B217F480088FD
:1031000080B20FF02AFA3BE1012200212E48001D77
:10311000FCF7FBFF7AA02F907FA0309084A0319025
:10312000294890F90400C01C2DA951F820000490F2
:10313000254890F90400801C51F820000390224893
:1031400090F90400401C51F8200002901E4890F9AC
:10315000040051F82000019002A90EC90FF065FC8F
:103160009DF8200000223E2104900FF0F6F99DF812
:10317000210000223D2104900FF0EFF99DF822007C
:103180000022292104900FF0E8F99DF81E0000228A
:103190005B2104900FF0E1F99DF81C0000223C2116
:1031A00004900FF0DAF99DF81D00012803DB9DF86B
:1031B0001D00C9E022E1C9E04BB0010092010010FE
:1031C00094010010960100109A000010AC0000104D
:1031D00017B001002CB0010020C6F3F0EDE0EB20A9
:1031E000EFF3F1F22020202020202020000000001A
:1031F000202020C6D3D0CDC0CB20D1CEC1DBD2C8B9
:10320000C92020200000000020CEF7E8F1F2E8F20B
:10321000FC20E6F3F0EDE0EB202020200000000091
:103220002028202020202020202020202020202096
:103230002020202000000000205B202020202020D3
:1032400020202020202020202020202000000000FE
:10325000207B202020202020202020202020202013
:1032600020202020000000002020302528202030B1
:103270005E2030403A30233A302420200000000005
:103280002020202020202020C8C1DDCF2020202089
:103290002020202000000000202020E8EBE820E291
:1032A000EAEBFEF7E5EDE8E5202020200000000035
:1032B00020202020CFE5F0E5E7E0E3F0F3E7EAE0C7
:1032C00020202020000000001C0E000020202020D4
:1032D000EDE520F3F1F2F0E0EDE5EDE02020202037
:1032E00000000000202020202055F1E5F2E83D20DC
:1032F000202BC2202020202000000000940000107D
:10330000202020202020F3F1F2F0E0EDE5EDE02098
:1033100020202020000000002020305B5D20203095
:103320003C20303E3A303D3A302920200000000059
:10333000202020202055ECE8ED3D20202BC220202D
:1033400020202020000000000C2803DD4FF00100A9
:103350008DF81D009DF81D10FE4800EB8100002235
:103360005D2104900FF0B6FB9DF818109DF8190030
:1033700001EB002080B200222B2104900FF0EDF829
:103380009DF828000022402104900FF0E6F89DF8F7
:1033900029000022232104900FF0DFF89DF82A0075
:1033A0000022242104900FF0D8F89DF82600002276
:1033B000252104900FF0D1F89DF8240000225E2111
:1033C00004900FF0CAF89DF82500012803DB9DF852
:1033D00025000C2803DD4FF001008DF825009DF835
:1033E0002500DC4901EB80000022282104900FF029
:1033F00071FB4FF00100D849088058E69DF82C0079
:1034000042287ED19DF82E0043287AD1AFF60C00D9
:103410002D90D2A02E90AFF2B0102F909DF81C00EE
:10342000412813D19DF81D0041280FD1AFF264103F
:103430003090309804902F9803902E9802902D98F9
:10344000019002A90EC90FF0F0FA69E001220021F3
:10345000C848FCF75AFEAFF258103090AFF248104F
:103460003190C448001F90F90400C01C2DA951F8E8
:1034700020000490BF48001F90F90400801C51F800
:1034800020000390BB48001F90F90400401C51F835
:1034900020000290B748001F90F9040051F8200066
:1034A000019002A90EC90FF0C0FA9DF82000002279
:1034B0003E2104900FF051F89DF8210000223D219B
:1034C00004900FF04AF89DF8220000222921049070
:1034D0000FF043F89DF81E0000225B2104900FF0CE
:1034E0003CF89DF81C0000223C2104900FF035F8B8
:1034F0009DF81D00012803DB9DF81D000C2805DD4B
:1035000000E053E04FF001008DF81D009DF81D0014
:10351000904901EB800000225D2104900FF0DAFA5F
:103520009DF82D00401C00222B2104900FF015F86F
:103530009DF828000022402104900FF00EF89DF81D
:1035400029000022232104900FF007F89DF82A009B
:103550000022242104900FF000F89DF8260000229C
:10356000252104900EF0F9FF9DF8240000225E2131
:1035700004900EF0F2FF9DF82500012803DB9DF872
:1035800025000C2803DD4FF001008DF825009DF883
:103590002500704901EB80000022282104900FF0E3
:1035A00099FA4FF001006C49088080E59DF82C00E5
:1035B00042287DD19DF82E005A2879D16EA02D90F9
:1035C00073A02E9078A02F909DF81C00412812D156
:1035D0009DF81D0041280ED179A0309030980490BC
:1035E0002F9803902E9802902D98019002A90EC951
:1035F0000FF01BFA67E0012200215E48FCF785FD11
:1036000075A030907AA031905A48001F90F90400BC
:10361000C01C2DA951F8200004905648001F90F9B5
:103620000400801C51F8200003905248001F90F9BC
:103630000400401C51F8200002904E48001F90F9F1
:10364000040051F82000019002A90EC90FF0EDF915
:103650009DF8200000223E2104900EF07EFF9DF890
:10366000210000223D2104900EF077FF9DF82200FA
:103670000022292104900EF070FF9DF81E00002208
:103680005B2104900EF069FF9DF81C0000223C2194
:1036900004900EF062FF9DF81D00012803DB9DF8E9
:1036A0001D000C2803DD4FF001008DF81D0000E027
:1036B000AAE09DF81D00274901EB800000225D2152
:1036C00004900FF007FA9DF82D00401C00222B21DA
:1036D00004900EF042FF9DF8280000224021049043
:1036E0000EF03BFF9DF829000022232104900EF0EC
:1036F00034FF9DF82A000022242104900EF02DFFB3
:103700009DF826000022252104900EF026FF9DF84A
:10371000240000225E2104900EF01FFF9DF825007A
:10372000012803DB9DF825000C2803DD4FF0010084
:103730008DF825009DF82500064901EB8000002248
:10374000282104900FF0C6F94FF0010002490880CB
:103750007FE300004BB00100AC00001020202020CF
:103760002020E1E0F2E0F0E5E820202020202020E9
:10377000000000009E000010202020C2FBF0E0E2CC
:10378000EDE8E2E0FEF9E8E920202020000000005A
:1037900020202020202020E7E0F0FFE4202020202F
:1037A00020202020000000002030252F2820202F5E
:1037B000305E2030403A30233A30242000000000B0
:1037C00020202020EDE520E7E0E2E5F0F8E5ED201F
:1037D0002020202000000000202020202020E7E0E2
:1037E000E2E5F0F8E5ED2020202020200000000098
:1037F00020305B2F5D20202F303C20303E3A303D82
:103800003A302920000000009DF82C0042287ED18B
:103810009DF82E0057287AD1D4A02D90D9A02E90B3
:10382000DEA02F90AFF280003090E2A03190E7A0B0
:103830003290ECA03390F1A03490F6A03590FB4884
:1038400090F90400C01C2DA951F820000490F748FD
:1038500090F90400801C51F820000390F34890F97F
:103860000400401C51F820000290F04890F9040038
:1038700051F82000019002A90EC90FF0D6F800E01F
:10388000E9E29DF82D00401C0022212104900EF059
:1038900064FE9DF828000022402104900EF05DFE99
:1038A0009DF829000022232104900EF056FE9DF879
:1038B0002A000022242104900EF04FFE9DF82600DD
:1038C0000022252104900EF048FE9DF824000022DD
:1038D0005E2104900EF041FE9DF82500012803DBD7
:1038E0009DF825000C2803DD4FF001008DF8250020
:1038F0009DF82500CE4901EB80000022282104908C
:103900000FF0E8F89DF820000022692100E055E062
:1039100004900EF022FE9DF8210000226C210490FC
:103920000EF01BFE9DF822000022732104900EF081
:1039300014FE9DF81E000022712104900EF00DFE71
:103940009DF81C000022722104900EF006FE9DF8E6
:103950001D00012803DB9DF81D000C2803DD4FF03E
:1039600001008DF81D009DF81D00B14901EB80009C
:103970000022772104900FF0ADF8BDF8140080B25A
:1039800001227A2104900EF0E8FD9DF827109DF8A1
:103990002B0001EB002080B201223C2104900EF0AC
:1039A000DCFDBDF8160080B201223E2104900EF02D
:1039B000D4FD4FF005009F4908804AE29DF82C0095
:1039C00042287DD19DF82E004B2879D19A482D9020
:1039D0006CA02E9071A02F90AFF23420309097A061
:1039E00031907AA032907FA033909AA034909FA01B
:1039F00035908E4890F90400C01C2DA951F8200084
:103A000004908A4890F90400801C51F8200003902B
:103A1000864890F90400401C51F820000290834829
:103A200090F9040051F82000019002A90EC90EF08F
:103A3000FCFF9DF82D00401C0022212104900EF077
:103A40008CFD9DF828000022402104900EF085FD99
:103A50009DF829000022232104900EF07EFD9DF8A0
:103A60002A000022242104900EF077FD9DF8260004
:103A70000022252104900EF070FD9DF82400002204
:103A80005E2104900EF069FD9DF82500012803DBFE
:103A90009DF825000C2803DD4FF001008DF825006E
:103AA0009DF82500624901EB800000222821049046
:103AB0000FF010F89DF8200000226921049000E02A
:103AC000E0E00EF04AFD9DF8210000226C210490F8
:103AD0000EF043FD9DF822000022732104900EF0A9
:103AE0003CFD9DF81E000022712104900EF035FD72
:103AF0009DF81C000022722104900EF02EFD9DF80E
:103B00001D00012803DB9DF81D000C2803DD4FF08C
:103B100001008DF81D009DF81D00454901EB800056
:103B20000022772104900EF0D5FFBDF8140080B27A
:103B300001227A2104900EF010FD9DF827109DF8C7
:103B40002B0001EB002080B201223C2104900EF0FA
:103B500004FDBDF8160080B201223E2104900EF053
:103B6000FCFC4FF005003349088072E12020202042
:103B7000202020D0E0E7F0FFE4202020202020209B
:103B80000000000020202020202020E1E0F2E0F0D2
:103B9000E5E82020202020200000000020CDE0F7D4
:103BA000E0EBEE20202020202020202020202020BC
:103BB000000000002020202020202020202055E18F
:103BC000E0F23D20203CC2200000000020CAEEEDC3
:103BD000E5F620202020202020202020202020204A
:103BE000000000002030712F7720202F307220300D
:103BF000693A306C3A307320000000002020202009
:103C000020202020202055E1E0F23D20203EC2204F
:103C10000000000020202020CEF2E4E0EDEE202085
:103C200020207AE02AF72E20000000009A000010E1
:103C30004BB00100AC000010000E0000202020203E
:103C4000202020202055E1E0F23D20203CC2202011
:103C50000000000020202020202020202055E1E02E
:103C6000F23D20203EC220200000000020A8ECEA07
:103C7000EEF1F2FC20202020207AE02AF72E2020EE
:103C8000000000009DF82C0053287ED1F4A02D9058
:103C90009DF82E004C2802D1F7A02E9013E09DF83D
:103CA0002E00542802D1FAA02E900CE09DF82E0090
:103CB000552802D1FCA02E9005E09DF82E00752815
:103CC00001D1FFA02E90AFF660202F909DF81C0030
:103CD000412813D19DF81D0041280FD1AFF61420C3
:103CE0003090309804902F9803902E9802902D9841
:103CF000019002A90EC90EF098FE69E00122002190
:103D0000F548FCF702FAAFF608203090AFF6F8104D
:103D10003190F148001F90F90400C01C2DA951F802
:103D200020000490EC48001F90F90400801C51F81A
:103D300020000390E848001F90F90400401C51F84F
:103D400020000290E448001F90F9040051F8200080
:103D5000019002A90EC90EF068FE9DF82000002215
:103D60003E2104900EF0F9FB9DF8210000223D2138
:103D700004900EF0F2FB9DF822000022292104900D
:103D80000EF0EBFB9DF81E0000E062E000225B21DC
:103D900004900EF0E2FB9DF81C0000223C210490F0
:103DA0000EF0DBFB9DF81D00012803DB9DF81D00D4
:103DB0000C2803DD4FF001008DF81D009DF81D005B
:103DC000C64901EB800000225D2104900EF082FEC6
:103DD0009DF82D00401C00222B2104900EF0BDFB0D
:103DE0009DF828000022402104900EF0B6FB9DF8BB
:103DF00029000022232104900EF0AFFB9DF82A0039
:103E00000022242104900EF0A8FB9DF82600002239
:103E1000252104900EF0A1FB9DF8240000225E21D4
:103E200004900EF09AFB9DF82500012803DB9DF815
:103E300025000C2803DD4FF001008DF825009DF8CA
:103E40002500A64901EB80000022282104900EF0F5
:103E500041FE03F0C0BDA048001F0078342877D190
:103E60009F48B0F90000A0F5B851883902D19DA053
:103E70002D90ACE09A48B0F90000A0F5B8517C391B
:103E800002D19EA02D90A2E09548B0F90000A0F5C7
:103E90009051D83902D19FA02D9098E09048B0F968
:103EA0000000A0F59051CC3902D1A0A02D908EE059
:103EB0008B48B0F90000A0F5B8517A3902D1A1A021
:103EC0002D9084E08648B0F90000A0F5B85175390E
:103ED00002D1A2A02D907AE08148B0F90000A0F5AF
:103EE0009051CA3902D1A3A02D9070E07C48B0F95E
:103EF0000000A0F59051C53902D1A4A02D9066E034
:103F00007748B0F90000A0F51061783902D1A5A07A
:103F10002D905CE07248B0F90000A0F510616C399A
:103F200002D1A6A02D9052E06D48B0F90000A0F596
:103F30009051E83902D1A7A02D9048E06848B0F927
:103F40000000A0F5B851983903D1A8A02D903EE00B
:103F5000CFE26348B0F90000A0F59051D43902D106
:103F6000A8A02D9033E05E48B0F90000A0F5B8514C
:103F7000843902D1A9A02D9029E05948B0F9000058
:103F8000A0F51061923902D1AAA02D901FE05448EB
:103F9000B0F90000A0F51061793902D1ABA02D90E5
:103FA00015E04F48B0F90000A0F51061783902D152
:103FB0007CA02D900BE04A48B0F90000A0F51061FC
:103FC0006C3902D17DA02D9001E0A6A02D90ABA070
:103FD0002E90B0A02F90B5A03090BAA03190BFA085
:103FE0003290C4A03390C9A03490CEA03590D3A015
:103FF0003690D8A03790DD4838903748001F90F9A8
:104000000400C01C2DA951F820000C903248001F5C
:1040100090F90400801C51F820000B902E48001FDE
:1040200090F90400401C51F820000A902A48001F13
:1040300090F9040051F8200009900AA90EC90EF069
:10404000F4FC2548001F0079082804D14FF0010036
:10405000C74981F83C00C748B0F9000020288BE12F
:10406000202020C0E2E0F0E8FF20C1CFD1204E2B7D
:1040700020202020000000002020202020EEF2EA56
:10408000EBFEF7E8EBF1FF202020202000000000ED
:10409000202020202020EFE5F0E5E3F0E5E22020DD
:1040A0002020202000000000202020E7E0E2FBF894
:1040B000E5EDEE2055E2FBF52E202020000000006B
:1040C000202020E7E0EDE8E6E5EDEE2055E2FBF507
:1040D0002E202020000000009E0000104BB00100A8
:1040E00008010010202020C8C1DDCF3232302F3629
:1040F000302D32344120202000000000202020C834
:10410000C1DDCF3232302F36302D313241202020E8
:1041100000000000202020C8C1DDCF3232302F3413
:10412000382D32344120202000000000202020C8FB
:10413000C1DDCF3232302F34382D313241202020B2
:1041400000000000202020C8C1DDCF3232302F36E1
:10415000302D31304120202000000000202020C8D8
:10416000C1DDCF3232302F36302D35412020202096
:1041700000000000202020C8C1DDCF3232302F34B3
:10418000382D31304120202000000000202020C8A0
:10419000C1DDCF3232302F34382D35412020202060
:1041A00000000000202020C8C1DDCF3232302F3285
:1041B000342D32344120202000000000202020C86F
:1041C000C1DDCF3232302F32342D31324120202028
:1041D00000000000202020C8C1DDCF3232302F3453
:1041E000382D34304120202000000000202020C83D
:1041F000C1DDCF3232302F36302D343041202020F7
:1042000000000000202020C8C1DDCF3232302F3422
:10421000382D32304120202000000000202020C80E
:10422000C1DDCF3232302F36302D323041202020C8
:1042300000000000202020C8C1DDCF3232302F32F4
:10424000342D35304120202000000000202020C8DF
:10425000C1DDCF3232302F32342D32354120202093
:1042600000000000202020D2E8EF20EDE5E8E7E2A2
:10427000E5F1F2E5ED20202000000000C4E0F2E0CE
:1042800020E8E7E3EEF22E2030212F30402F3023BC
:1042900000000000F8E0F1F1E82020202020532F5A
:1042A0004E30303030303F2000000000D3CAD332CF
:1042B00030322E2B2820532F4E30303030302920F2
:1042C00000000000CFCE20202020202020207620BB
:1042D0002020205B2020202000000000C1CFD13111
:1042E000202D20202020532F4E30303030303C20E5
:1042F00000000000C1CFD132202D20202020532FDC
:104300004E30303030303E20000000005253323307
:104310003220202020202076202020242020202031
:104320000000000043414E20504448202D202076BC
:1043300020202025202020200000000043414E2086
:10434000534448202D2020762020205E202020204D
:104350000000000045746865726E65742D2020763B
:10436000202020262020202000000000302A0000ED
:10437000AE0B00101001001007DA00222121FF48C7
:10438000008880B20EF0E9F805E04FF0FF322121FD
:10439000FBA00EF09FFBFB48B0F900000D2807DAE8
:1043A00000224021F748008880B20EF0D6F805E0E0
:1043B0004FF0FF324021F2A00EF08CFBF248B0F932
:1043C0000000642807DA00222321EF48008880B229
:1043D0000EF0C3F805E04FF0FF322321E8A00EF005
:1043E00079FBEA480068EA49884206DB6FF004027C
:1043F0003F21E8A00EF06EFB05E000223F21E348DC
:1044000000680DF050FF00222B2109200EF0A5F8C6
:104410000022282105200EF0A0F8E0480068DC49C1
:10442000884206DB6FF004022921DAA00EF052FB6D
:1044300005E000222921D94800680DF034FFD74853
:104440000068D349884206DB6FF004022921D1A01D
:104450000EF040FB05E000222921D04800680DF055
:1044600022FFCF480068CA49884206DB6FF0040289
:104470003C21C8A00EF02EFB05E000223C21C848DC
:1044800000680DF010FFC7480068C149884206DB8C
:104490006FF004023E21BFA00EF01CFB05E00022DD
:1044A0003E21C04800680DF0FEFE6FF003025B2164
:1044B000BDA00EF00FFB6FF003022421BAA00EF096
:1044C00009FB6FF003022521B7A00EF003FB6FF08C
:1044D00003025E21B4A00EF0FDFA6FF00302262164
:1044E000B1A00EF0F7FA0022114610460EF00DFBB7
:1044F000AFE4B0480078362878D1AF48B0F9000072
:10450000A0F5B851883903D1AFF228402D90A6E02C
:10451000A948B0F90000A0F5B8517C3903D1AFF239
:1045200024402D909BE0A448B0F90000A0F59051E4
:10453000D83903D1AFF224402D9090E09E48B0F9D5
:104540000000A0F59051CC3903D1AFF220402D905E
:1045500085E09948B0F90000A0F5B8517A3903D147
:10456000AFF220402D907AE09348B0F90000A0F51A
:10457000B851753903D1AFF21C402D906FE08E48D1
:10458000B0F90000A0F59051CA3903D1AFF21C4038
:104590002D9064E08848B0F90000A0F59051C5392D
:1045A00003D1AFF218402D9059E08348B0F90000D4
:1045B000A0F51061783903D1AFF218402D904EE08C
:1045C0007D48B0F90000A0F510616C3903D1AFF25D
:1045D00014402D9043E07848B0F90000A0F59051C8
:1045E000E83904D1AFF214402D9038E0FAE1724876
:1045F000B0F90000A0F5B8518E3902D16FA02D900E
:104600002DE06D48B0F90000A0F59051D43903D1E8
:10461000AFF210402D9022E06748B0F90000A0F5FD
:10462000B8517F3902D16BA02D9018E06248B0F9E3
:104630000000A0F51061923903D1AFF208402D902F
:104640000DE05D48B0F90000A0F51061793903D1A3
:10465000AFF208402D9002E0AFF2F8302D90AFF2AB
:10466000E4302E90AFF2D4302F9060A03090AFF2B3
:1046700094303190AFF284303290624833904D489C
:1046800090F90400C01C2DA951F820000C90494855
:1046900090F90400801C51F820000B90454890F9D7
:1046A0000400401C51F820000A90424890F9040090
:1046B00051F8200009900AA90EC90EF0B6F92F484A
:1046C000B0F90000202807DA002221212B480088B9
:1046D00080B20DF042FF05E04FF0FF32212128A00B
:1046E0000EF0F8F92748B0F900000D2807DA00228B
:1046F00040212448008880B20DF02FFF05E04FF0E4
:10470000FF3240211EA00EF0E5F91F48B0F900006D
:10471000642807DA002223211B48008880B20DF0AC
:104720001CFF05E04FF0FF32232115A00EF0D2F957
:10473000164800681649884206DB6FF004023F21E4
:1047400014A00EF0C7F905E000223F210F480068D1
:104750000DF0A9FD00222B214FF461700DF0FDFE3C
:104760000022282105200DF0F8FE0C4800680849B9
:1047700088424EDB6FF00402292145E01001001051
:104780002A2A000012010010140100100C01001070
:1047900040420F002A2A2A2A2A2A00001C0100105F
:1047A00020010010240100102D2D2D2D2D2D2D2D3B
:1047B0002D0000009A00001008010010202020C8E1
:1047C000C1DDCF3232302F36302D33304120202022
:1047D00000000000202020C8C1DDCF3232302F364B
:1047E000302D31354120202000000000D3CAD330C5
:1047F000302B2E302820532F4E30303030302920AF
:1048000000000000302A0000AFF278000EF062F9DC
:1048100005E000222921ED4800680DF044FDEC4838
:104820000068EC49884207DB6FF004023C21AFF2DC
:104830009C000EF04FF905E000223C21E44800689E
:104840000DF031FDE4480068E249884207DB6FF073
:1048500004023E21AFF2C4000EF03CF905E0002254
:104860003E21DD4800680DF01EFDDC48007903287C
:1048700008D1DA484078092804D14FF00100D8491E
:1048800081F83C00D548407840B9D448007928B92F
:104890001422002108460EF038F929E6CF48407866
:1048A000012810D1CD4890F9040002280BDACB483A
:1048B00090F90400C0F10100C0B202220C210C905A
:1048C0000EF023F914E6C5484078022810D1C348F9
:1048D00090F9040002280BDAC04890F90400C0F1F6
:1048E0000100C0B202220F210C900EF00EF9FFE57C
:1048F000BA484078032810D1B84890F9040002283B
:104900000BDAB64890F90400C0F10100C0B20222EF
:1049100012210C900EF0F9F8EAE5B048407804282E
:1049200010D1AE4890F9040003280BDAAB4890F997
:104930000400C0F10200C0B20A2211460C900EF031
:10494000E4F8D5E5A5484078052810D1A34890F9AA
:10495000040004280BDAA14890F90400C0F1030018
:10496000C0B2062203210C900EF0CFF8C0E59B48A0
:104970004078062810D1994890F9040004280BDAF1
:10498000964890F90400C0F10300C0B20A22114613
:104990000C900EF0BAF8ABE59048407807280BD1A0
:1049A0008E4890F90400C0F10400C0B20A221146FA
:1049B0000C900EF0AAF89BE58848407808280BD1A7
:1049C000864890F90400C0F10500C0B20A221146E1
:1049D0000C900EF09AF88BE50022114610460EF06E
:1049E00094F885E57D48007803287ED17DA02D9040
:1049F00082A02E9087A02F908CA0309091A0319013
:104A000096A032909BA03390A0A03490A5A03590A2
:104A1000AAA03690AFA03790B4A03890B9A0399032
:104A2000BEA03A90C3A03B90C8A03C90CDA03D90C2
:104A3000D2A03E90D7A03F90DCA04090E1A0419052
:104A4000E6A04290EBA04390F0A04490F5A04590E2
:104A5000FA484690FAA04790FFA048905F4890F926
:104A600001005E4991F90410401A022807DD5B48F5
:104A70004078A0F1020040B2584908710BE0574855
:104A800090F90100554991F90410884203DA53481E
:104A9000407852490871514890F90400801C2DA9B2
:104AA00051F820000C904D4890F90400401C51F83A
:104AB00020000B90494890F9040051F820000A901A
:104AC0000146EBA0DDE90B230DF0AFFF01200FF055
:104AD00018FC424890F90400112866DA00223C21B3
:104AE000E9480088401C80B200E026E20DF035FD68
:104AF000E648008828B100222821E5480DF0EAFFA9
:104B000004E000222821E3480DF0E4FFE248008899
:104B100028B100222921E1A00DF0DCFF04E00022F1
:104B20002921E0A00DF0D6FFE048007855280CD1EF
:104B30006FF007027921DEA00DF0CCFF0022792171
:104B4000DE4800880DF009FD05E06FF003027921D1
:104B5000DBA00DF0BFFF01222121DB48008880B2DD
:104B60000DF0FBFC01224021D848008880B20DF0F6
:104B7000F4FC01222321D648008880B20DF0EDFC20
:104B800001225E21D348008880B20DF0E6FC0022AD
:104B90002621D148008880B20DF0DFFC01223E21A1
:104BA000CE48008880B20DF0D8FC00222421CC48E9
:104BB000008880B20DF0D1FC02226A21C948008829
:104BC00080B20DF0CAFC03225B218DE11C010010B4
:104BD0002001001040420F00240100109A00001034
:104BE000AE0B001020D1F2E0EDE4E0F0F2EDFBE5D9
:104BF00020202020202020200000000020C2F0E5FE
:104C0000ECFF20E820E4E0F2E0202020202020201B
:104C10000000000020D1F2F0F3EAF2F3F0E02020EF
:104C200020202020202020200000000020CCEDE5C6
:104C3000ECEEEDE8EAE02020202020202020207962
:104C40000000000020CEF1EDEEE2EDEEE920E8F10B
:104C5000F2EEF7ED2E204E3C0000000020C7E22EC1
:104C6000F1E8E3ED2E202020282020202020202005
:104C70000000000020CEF2EAEBFEF7E5EDE8E520CB
:104C8000F1E8E3EDE0EBE020000000002020E0E2AE
:104C9000E0F0E8E8202020202920202020202020EB
:104CA0000000000020C0CFC220E8F1F2EEF7EDE8EE
:104CB000EAEEE2202020202000000000205420EF17
:104CC000F0EEE2E5F0EAE8202020F6E5EFE820202B
:104CD0000000000020E1E0F2E0F0E5E820202020E4
:104CE0002071ECE8ED2E20200000000020556D61C1
:104CF000783D2020202020202021C220202020209C
:104D0000000000002055E130B03D20202020202070
:104D10002040C22020202020000000002055E13249
:104D200030B03D20202020202023C2202020202021
:104D3000000000002055F1E8E3ED3D202020202078
:104D4000205EC220202020200000000020556D6938
:104D50006E2EF1E5F2E83D202026C2202020202002
:104D600000000000205530E13D20202020202020A0
:104D7000203EC22020202020000000002049E1EA3F
:104D80002E3D202020202020206AC020202020200E
:104D9000000000002049E72EECE0F52E3D20202009
:104DA000204AC020202020200000000020496D6102
:104DB000783D202020202020205D41202020202020
:104DC00000000000204B696D61783D2020202020EC
:104DD000207B20202020202000000000204BE2FB30
:104DE000F02EE7E0F02E3D202020205B2020202028
:104DF000000000002054E72EE2EAEB2EE02EF12E18
:104E00002021F120202020200000000020746D616E
:104E1000783D2020202020202024B0432020202066
:104E20000000000020C2EDE5F8EDE8E520E4E0F246
:104E3000F7E8EAE820202020000000002CB0010064
:104E400020CAE0EBE8E1F0EEE2EAE82020202020B2
:104E5000202020200000000020D2E5F1F2202020B8
:104E600020202020202020202020202000000000C2
:104E70002020202020D3D1D2C0CDCEC2CAC820202D
:104E80002020202000000000D4000010E4000010CA
:104E900041B0010046B00100DE000010E0E2F2EE99
:104EA000EC2E0000F0F3F7ED2E000000A40100103E
:104EB000F7E5F0E5E72079F12E000000A6010010EB
:104EC000E2FBEAEB2E000000D6000010D800001034
:104ED000DA000010E0000010E2000010F200001004
:104EE000DC000010E6000010DC48008880B20DF005
:104EF00034FB01225D21DA48008880B20DF02DFBE1
:104F000001227B21D748008880B20DF026FB0122C8
:104F10004A21D548008880B20DF01FFB00222121D4
:104F2000D248008880B20DF018FB00227121D048D1
:104F3000008880B20DF011FBAFE4CE480078252840
:104F40005AD1CDA02D90D2A02E90D7A02F90DCA02A
:104F50003090E1A03190E6A03290EBA03390F0A029
:104F60003490F5A03590FAA03690FF483790FF486E
:104F7000007828B1FE482DA9FE4A127841F8220097
:104F8000BC4890F90100BB4991F90410884204DA49
:104F9000B8484078B74908710FE0B64890F9010069
:104FA000B44991F90410401A022806DDB14840784E
:104FB000A0F1020040B2AF490871AE4890F9040078
:104FC000801C2DA951F820000C90AA4890F90400EB
:104FD000401C51F820000B90A64890F9040051F8AD
:104FE00020000A900146E4A0DDE90B230DF01DFD31
:104FF00001200FF086F950E49E48007828287DD1E2
:10500000E3480078401CC0B2E14908700F280EDB6D
:105010004FF000000870DF48007800F10100C0B2D6
:10502000DC490870032802DB4FF000000870DA4802
:105030002D90CF482E90D748007808B9D7A02F9050
:10504000D4480078012801D1DAA02F90D148007807
:10505000022801D1DDA02F902F980C902E980B9054
:105060002D980A900146DFA0DDE90B230DF0DDFC51
:105070008048407828B94FF05E00E04981F82A0066
:1050800030E07C484078012805D14FF05E00DB49D4
:1050900081F82D0026E077484078022805D14FF0AE
:1050A0005E00D64981F830001CE072484078032841
:1050B00005D14FF05E00D14981F8330012E06D4810
:1050C0004078042805D14FF05E00CC4981F83600C5
:1050D00008E068484078052804D14FF05E00C749D1
:1050E00081F83A00C64800784FF000024FF02601E0
:1050F0000C900DF032FAC248203800E041E090F800
:10510000240000225E210C900DF027FABD480078A3
:105110004FF000024FF025010C900DF01EFAB84838
:10512000203890F82C0000223C210C900DF015FA4C
:10513000B5480078B54901EB80004FF000024FF010
:105140003E010C900DF0C6FCAD482038808F002247
:105150007B210C900DF001FAAD480078002802F098
:105160003A843A200CF0D3FEA4494FF020020A54AE
:105170004FF03A000CF0CBFEA0494FF020020A5449
:1051800009E43C4800781A2866D1A2A02D90A748CF
:10519000007855280AD0A6482E9075482F90309058
:1051A00031904FF00100A34908701BE0A24800783D
:1051B00055280BD0A1A02E909D482F906C48309080
:1051C00031904FF002009B4908700BE09BA02E909D
:1051D000A0A02F9096483090654831904FF0030082
:1051E00094490870234890F90100224991F904106C
:1051F000884204DA1F4840781E4908710FE01D48B4
:1052000090F901001B4991F90410401A022806DDAB
:1052100018484078A0F1020040B2164908711548BC
:1052200090F90400801C2DA951F820000C90114821
:1052300090F90400401C51F820000B900D4890F9A3
:10524000040051F820000A90014688A0DDE90B23F4
:105250000DF0EBFB012015E13CE10000E80000103F
:10526000EA000010EC000010F0000010F400001044
:10527000F80000109A00001020C8C1DDCF32323093
:105280002F36302D3234C020202020200000000096
:1052900020C8C1DDCF3232302F34382D3234C02017
:1052A000202020200000000020C8C1DDCF32323095
:1052B0002F36302D3132C02D32C1CFD10000000049
:1052C00020C8C1DDCF3232302F34382D3132C02DDD
:1052D00032C1CFD10000000020C8C1DDCF32323052
:1052E0002F36302D3132C02D31C1CFD1000000001A
:1052F00020C8C1DDCF3232302F34382D3132C02DAD
:1053000031C1CFD10000000020C8C1DDCF32323022
:105310002F34382D3430C020202020200000000001
:1053200020C8C1DDCF3232302F36302D3430C0208E
:10533000202020200000000020C8C1DDCF32323004
:105340002F34382D3230C02D31C1CFD100000000B4
:1053500020C8C1DDCF3232302F36382D3230C02D4B
:1053600031C1CFD1000000002CB00100800000103E
:1053700017B00100AB000010D1D2C0CDC4C0D0D254
:10538000CDDBC520D3D1D22E2DCAC820000000000D
:1053900063000010B1000010DC1D00002020202060
:1053A0009A209C202D20E2FBE1EEF02020202020FE
:1053B00000000000202020BF209D202D20F3F1F2CE
:1053C000E0EDEEE2EAE020200000000020202020B6
:1053D00020A420202D20E2FBF5EEE4202020202038
:1053E0000000000020D3D1D2C0CDCEC2CAC0202040
:1053F000C2D0C5CCC5CDC82000000000AE0B001047
:105400002040024028400240384002404BB001009A
:105410008100001020C0CFC22031E920F3F0EEE27D
:10542000E5EDFC2021202020000000009901001063
:10543000302A0000B00000109A01001020C0CFC236
:105440002032E920F3F0EEE2E5EDFC2040202020C0
:105450000000000020CFE5F0E8EEE420C0CFC2322B
:10546000202020202023F72E00000000202020C034
:10547000CFC220C8D1D2CED7CDC8CACEC22020201C
:10548000000000000EF03DFFFF480078552805D1D0
:1054900000222121FD480DF01DFB04E00022212106
:1054A000FB480DF017FBFB48007855280CD1002273
:1054B0004021F6480DF00EFB00222321F64800881B
:1054C00080B20DF04AF837E500224021F0480DF097
:1054D00001FB31E5F14800781F2859D1F0A02D904B
:1054E000F5A02E90FA482F9018303090F9A0319006
:1054F000FE483290E94890F90100E84991F904101A
:10550000884204DAE5484078E44908710FE0E3484E
:1055100090F90100E14991F90410401A022806DDD2
:10552000DE484078A0F1020040B2DC490871DB4857
:1055300090F90400801C2DA951F820000C90D74848
:1055400090F90400401C51F820000B90D34890F9CA
:10555000040051F820000A900146E5A0DDE90B2384
:105560000DF063FA01200EF0CCFEE748007828B970
:1055700000222821C6480DF0ADFADDE4E2480078AB
:105580000128A0D100222821C0480DF0A3FAD3E4BD
:10559000C248007820283FD1C04890F90100BF4997
:1055A00091F90410884204DABC484078BB4908717C
:1055B0000FE0BA4890F90100B84991F90410401A77
:1055C000022806DDB5484078A0F1020040B2B34998
:1055D0000871C64BCDA2D3A1D8A00DF026FA0120A8
:1055E0000EF08FFEC848407828B900223C21A84818
:1055F0000DF070FA08E0C4484078012804D1002278
:105600003C21A2480DF066FA02223A21D148B0F9B5
:1056100000000CF0BEFD8FE4A0480078212872D174
:105620009E4890F901009D4991F90410884204DADE
:105630009A484078994908710FE0984890F901001C
:10564000964991F90410401A022806DD93484078E3
:10565000A0F1020040B291490871A44BBEA2C4A1BE
:10566000C9A00DF0E2F901200EF04BFEA6488078AB
:1056700048B900224021CAA00DF02CFA4FF01E00BC
:10568000C94908801AE0A0488078012809D1002281
:105690004021C6A00DF01EFA40F2CA30C24908806F
:1056A0000CE099488078022808D100224021C1A04E
:1056B0000DF010FA45F25550BB4908800022242114
:1056C000BDA00DF007FABE48008880B201223C213F
:1056D0000C900CF042FFBB48008880B201223E21B2
:1056E0000C900CF03AFF00222321B748008880B2CA
:1056F0000CF033FF01222421B448008880B20CF062
:105700002CFF19E4FFE765480078222872D163482E
:1057100090F90100614991F90410884204DA5F4868
:1057200040785E4908710FE05C4890F901005B49E0
:1057300091F90410401A022806DD58484078A0F17B
:10574000020040B255490871684BA1A288A1A6A0E9
:105750000DF06BF901200EF0D4FD6B48C07848B90C
:10576000002240218EA00DF0B5F94FF01E00A44993
:1057700008801AE06448C078012809D1002240213D
:105780008AA00DF0A7F940F2CA309D4908800CE0CC
:105790005D48C078022808D10022402185A00DF084
:1057A00099F945F25550964908800022242182A09B
:1057B0000DF090F98248408880B201225B210C9064
:1057C0000CF0CBFE7F48408880B201225D210C9016
:1057D0000CF0C3FE002223218A48008880B20CF01E
:1057E000BCFE012224217948008880B20CF0B5FE6D
:1057F000C6E4FFE729480078232844D182A02D90F1
:1058000055A02E9072A02F9038483090234890F9E0
:105810000100224991F90410884204DA1F484078B7
:105820001E4908710FE01D4890F901001B4991F9CC
:105830000410401A022806DD18484078A0F1020042
:1058400040B216490871154890F90400801C2DA932
:1058500051F820000C90114890F90400401C51F8B8
:1058600020000B900D4890F904102DA850F821004D
:105870000A9001466AA0DDE90B230DF0D6F801205D
:105880000EF03FFDD8E044E19901001041B0010065
:1058900046B001009A010010A20100109A00001009
:1058A00020D0E5EBE520E0E2E0F0E8FF202020203A
:1058B000282020200000000020D0E5EBE520F1E0CA
:1058C000ECEEEAE0EBE8E1F0EEE2EAE800000000EE
:1058D0000C1E000020C1CFD1312BC1CFD1322020EE
:1058E0002020202020202020000000002CB00100DB
:1058F0002020202020202020D2C5D1D220202020EE
:105900002020202000000000E01000102049E1E0ED
:10591000F23D20202020202020202020203A41205D
:105920000000000020D0E5EBE520202020202020F2
:1059300020203C20202020200000000020D2C5D1C3
:10594000D220D1C0CCCECAC0CBC8C1D0CEC2CAC072
:1059500000000000B00100102055313D2020202023
:105960003CC22049313D202020203EC000000000E4
:105970002055F03D402020242020202020F8E8EC75
:105980003D202023000000002020202020D2C5D16F
:10599000D220C1CFD13120202020202000000000C3
:1059A000556D696E0000000026020010556D61788B
:1059B000000000005532300028202020242900005B
:1059C000E2010010E60100107C02001080020010CD
:1059D0002055323D202020205BC22049323D20202E
:1059E00020205DC0000000002020202020D2C5D152
:1059F000D220C1CFD1322020202020200000000062
:105A0000280200107E0200102055F03D4020202486
:105A10002020202020202023202020210000000002
:105A2000202020D2C5D1D220C1CFD1312BC1CFD19E
:105A30003220202000000000F848007960B90022E0
:105A40004021AFF2A4000DF045F84FF01E00F449DC
:105A50000880F449088020E0F048007901280CD142
:105A600000224021AFF2BC000DF034F840F2CA3001
:105A7000EB490880EB4908800FE0E84800790228EC
:105A80000BD100224021AFF2D4000DF023F845F2F3
:105A90005550E3490880E349088000222421AFF2F1
:105AA000E8000DF017F8E048008880B201223C21A0
:105AB0000C900CF052FDDD48008880B201223E219E
:105AC0000C900CF04AFD00222321D948008880B2B6
:105AD0000CF043FDD448408880B201225B210C9039
