:020000040000FA
:10000000A81B0820C5010000C9010000CB010000A9
:10001000CD010000CF010000D10100000000000070
:10002000000000000000000000000000D3010000FC
:10003000D501000000000000D70100003FAC000027
:10004000DB010000DB010000DB010000DB01000040
:10005000DB01000063430100DB0100004D2C0100C7
:10006000DB010000DB010000DB010000DB01000020
:10007000DB010000DB010000DB010000DB01000010
:10008000DB010000DB010000DB010000DB01000000
:10009000DB010000DB010000DB010000DB010000F0
:1000A000DB0100004D290100DB010000DB01000045
:1000B000994E0100DB010000DB010000DB010000C4
:1000C000DB01000000F002F800F06DF80AA090E8F3
:1000D000000C82448344AAF10107DA4501D100F003
:1000E00062F8AFF2090EBAE80F0013F0010F18BF63
:1000F000FB1A43F001031847C4E1030004E20300C4
:100100000A444FF0000C10F8013B13F0070408BF3D
:1001100010F8014B1D1108BF10F8015B641E05D0DB
:1001200010F8016B641E01F8016BF9D113F0080F90
:100130001EBF10F8014BAD1C0C1B09D16D1E58BF22
:1001400001F801CBFAD505E014F8016B01F8016B59
:100150006D1EF9D59142D6D37047000000230024CC
:1001600000250026103A28BF78C1FBD8520728BFC7
:1001700030C148BF0B607047642916F0D9827329DB
:1001800016F00F85002070471FB51AF085FB16F09A
:10019000F7FD0400002000211AF068FB401C60609D
:1001A0001FBD10B510BD16F0C6FD1146FFF7ECFFE0
:1001B0000AF0C4FD16F0F8FD03B4FFF7F2FF03BC2C
:1001C00016F0FCFD08480047FEE7FEE7FEE7FEE705
:1001D000FEE7FEE7FEE7FEE7FEE7FEE70348044929
:1001E000024A044B70470000C5000000B05B0010DD
:1001F000A81B0820A8190820FEE710B518F028FA57
:1002000018F0B4FA18F0A6FA18F034FAAFF3008038
:10021000BDE8104018F070BA10B519F081F819F067
:10022000F1FE19F0D5F8BDE8104019F04DBA18F0FC
:1002300095BF18F05DBD09B10020704717F0B2BA44
:100240000020704790F900308B4200DA027090F97C
:100250000030934200DD0170704790F900308B420E
:1002600000DA017090F90010914200DD02707047D1
:10027000B0F900308B4200DA0180B0F900109142F1
:1002800000DD02807047B0F900308B4200DA028056
:10029000B0F90030934200DD0180704703688B4263
:1002A00000DA02600368934200DD016070470000DD
:1002B0000FB41CB5084B06AA7B446946009005980C
:1002C00016F045FC04460020694616F053FC204613
:1002D0001CBC5DF814FB0000B968010070B506464F
:1002E00016F0D0FB0468054630460A22002116F0BD
:1002F0005CFC2C6070BD704770477047FFFFFFFFCC
:1003000030B54E482021C0F8A01100BFD0F8A01190
:100310004906FBD500F180000322C0F8842048493B
:10032000C0F828114FF00001C0F82C114FF0010364
:10033000C0F88C30434C446003604FF0AA03C360A4
:100340004FF05504C460A0F1800000BFD0F8885081
:100350006D01FBD540F8802FC360C460C0F88810E1
:10036000394A4264C0F848118168A0F180006FEA00
:1003700011618A073549D0F80C2102F0030207D039
:1003800092B3012A46D0022A4AD0032A51D13BE037
:100390002AB1012A11D0022A27D0032A49D150F8C4
:1003A000882FC2F30E02521C53000268C2F30742A8
:1003B000521CB3FBF2F2264B0CE050F8882FC2F32C
:1003C0000E02521C53000268C2F30742521CB3FBD8
:1003D000F2F2204B5A43C36FA0F18800DBB203F165
:1003E0000103B2FBF3F223E00EE050F8882FC2F3D2
:1003F0000E02521C53000268C2F30742521CB3FBA8
:10040000F2F24FF4FA43E5E7D0F80421104BD2B2F0
:10041000521C0BE0D0F804210E4BD2B2521C05E066
:10042000D0F804214FF4FA43D2B2521CB3FBF2F2DB
:100430000A6043F23A01016030BD000000C00F4085
:10044000000002084F00030048F100410CC00720E3
:1004500000093D008096980010B54FF4027010F02E
:1004600025FFFB4C207040F20A2010F01FFF607047
:100470004FF4037010F01AFFA07040F20E2010F03D
:1004800015FFE0704FF4047010F010FF207240F27E
:10049000122010F00BFF60724FF4057010F006FF91
:1004A000A07240F2162010F001FFE0724FF41170BC
:1004B00010F0FCFE207140F2462010F0F7FE607153
:1004C0004FF4127010F0F2FEA07140F24A2010F0CA
:1004D000EDFEE07110BD002801DA404200B2704725
:1004E000DC4A116C136C5B1A8342FBD37047DA4908
:1004F000112008727047D948C16941F44021C16197
:10050000C16941F44011C161D5480021C1604FF477
:100510004061C164022141614FF47A7282614FF4FB
:100520004872026242620122026541600921416013
:1005300070472DE9F04F0020CA4A85B04FF4F4719E
:1005400004461454401C00B28842FADBC648C17D00
:1005500071B100214FF0140C7A2301FB03F001EB81
:1005600081039B0001EB81041BB20CEB84045AE273
:10057000804690F823004FF00205C0074FF00306B5
:100580001BD098F81400002816D0B8483227CDE9BF
:100590000204CDE90076032118233A46084610F0FC
:1005A0002CF8B348CDE90204CDE9007603211823E5
:1005B0003222084610F021F8B8E0B8F97600DFF8EA
:1005C0009492DFF8B0A20F27DFF8ACB2A9F10C09C2
:1005D000012853DB1423002100941A460846019495
:1005E0000FF04FFF1223012100941A460846019490
:1005F0000FF047FF99F8000010F03C0F0BD0C10638
:1006000011D598F81400F0B10F23CDE902A402210E
:100610001A46032013E09948CDE902040F23022172
:100620001A4603200BE010F00C0F0CD098F81400C1
:1006300048B10F23CDE902B402211A460846CDE99C
:1006400000750FF0DAFF8E48406DC00716D10B23FE
:1006500000221421092000940FF0F8FC00235B22F3
:100660001F21092000940FF0F1FC98F803000423E7
:100670001330C1B2002209200FF040FFB8F9760014
:10068000022853DB142300941A46002117200194FA
:100690000FF0F7FE122300941A460121182001944E
:1006A0000FF0EFFE99F8010010F03C0F0BD0C106DF
:1006B00011D598F81400F0B10F23CDE902A402215E
:1006C0001A46192013E06F48CDE902040F230221D6
:1006D0001A4619200BE010F00C0F0CD098F81400FB
:1006E00048B10F23CDE902B402211A461920CDE901
:1006F00000750FF082FF6248406D800716D40B230F
:1007000000221421202000940FF0A0FC002344229A
:100710001F21202000940FF099FC98F80300042377
:100720001330C1B2002220200FF0E8FEB8F87400A8
:10073000DFF820A1C1464FF00A0B4FF00108AAF1E3
:10074000800A00282CD00094142323220021322078
:1007500001940FF096FE0094022303221421352009
:1007600001940FF08EFE00940223032214214F20E7
:1007700001940FF086FE99F823004F46800710D5AC
:1007800099F8140000280BD032213948CDE9001621
:10079000CDE902040A46182300212B200FF02DFF7B
:1007A00089E00B2300221421422000940FF04EFC1C
:1007B000002322221F21422000940FF047FCBAF9A7
:1007C0007200002805DAF878042300221330C1B241
:1007D00005E0F8780423C0F12200C1B202224220D1
:1007E0000FF08CFEB8791E287ED2B7F97C00A0F5F8
:1007F000AA41553978D097F92400052190FBF1F0F2
:10080000ADF81000B9461422002104A8FFF730FD0E
:10081000CDE900844746BDF9103020220021332065
:100820000FF02FFE99F924000A282FDACDE9007580
:1008300009230C2205213D200FF023FE99F9240005
:1008400002238DE8910005210FA23D20039730E09F
:100850006C190820080100100040024000C002404E
:10086000008001409608082008000010ADA9010092
:1008700043AA010015AB010033AB0100D9AA010066
:1008800000C00920F7AA01002025000064284FF0CD
:1008900009035EDACDE90075122205213A200FF036
:1008A000F0FD99F9240003238DE8B100FEA2052193
:1008B0003A200FF0CEFE00940E231B2202215C2072
:1008C00001940FF0DEFD00231A1F08215C20009424
:1008D0000FF0BCFB002304220821762000940FF0C7
:1008E000B5FB0023272200E043E01F2143200094B2
:1008F0000FF0ACFB6FF00F0300221F216920009462
:100900000FF0A4FB99F805004D46C0F12200C1B2DA
:100910000423022269200FF0F1FD4746BAF97A005C
:100920000421CDE90007CDE90217D0460523DFA257
:10093000162146200FF08DFEB8F97800642825DADC
:10094000CDE9000704230521DAA25D20CDE9026785
:1009500025E0CDE900751822052137200FF091FD23
:1009600099F9240004238DE8D1000521D3A2372072
:100970009FE7BAF97210CDE9026891FBFBF001B272
:10098000CDE900180423CBA2052191E790FBFBF0F1
:1009900000B28DE8D1000423C6A205215A200FF031
:1009A00058FEA878401CC0B2A87003281CD3AC70B5
:1009B000E878401CC0B2E8700D2800D3EC702879AC
:1009C000401CC0B22871202800D32C716879401CCB
:1009D000C0B26871112800D36C71A879401CC0B2F4
:1009E000A871282800D3AC7105B0BDE8F08FB54DD3
:1009F000B54FED5C05EB450517F81560165407EB90
:100A00004505401C6E781654401CAE781654401CA8
:100A1000EE781654401C2E791654401C6D791554EE
:100A2000401C5B1C1BB29C42E1DC491C09B204293E
:100A3000FFF692ADD8E72DE9F04FA44AD3B00521D7
:100A400012780020012491460DF1A808052A03D050
:100A5000B9F1210F02D005E09DA000E0A2A02A90EC
:100A600001200621A64D95F823C05FEACC7208D07C
:100A7000A4A248F8202000F1010001F10101C0B258
:100A8000C9B25FEA8C7208D5A4A248F8202000F110
:100A9000010001F10101C0B2C9B25FEA0C6206D5E2
:100AA000A4A248F82020401C491CC0B2C9B2944AF4
:100AB000F432137813F01C0F06D0A4A348F82030AA
:100AC000401C491CC0B2C9B29246527812F01C0FA9
:100AD00006D0A4A248F82020401C491CC0B2C9B2CC
:100AE000A64A13786B32012BB2F9002002D0022BF8
:100AF00003D00AE04AB9A2A201E032B9A6A248F89E
:100B00002020401C491CC0B2C9B29C4A921D1378D7
:100B1000552B0AD102F18F031B8833B9A4A348F8DF
:100B20002030401C491CC0B2C9B25378552B0AD1A1
:100B3000924B95335B8833B9A3A348F82030401C0F
:100B4000491CC0B2C9B29378552B0AD18B4B95334F
:100B50009B8833B9A2A348F82030401C491CC0B27E
:100B6000C9B2D278552A0AD1844A9532D28832B98C
:100B7000A1A248F82020401C491CC0B2C9B2A44A16
:100B8000137833B1A3A348F82030401C491CC0B2ED
:100B9000C9B2537833B1A5A348F82030401C491C92
:100BA000C0B2C9B2927822B1A6A2491C48F820204E
:100BB000C9B22A7AAB46521CD2B228462A72142AEB
:100BC00009D300220272C3795B1CDBB2C3718B4272
:100BD00001D38BF80720694E3B363246307892F9C4
:100BE000011092F9045002AA02EB85072A2858D076
:100BF000002857D0424A4FF06408B646127D4F9203
:100C0000A6F1C4020428B2F9022092FBF8F34B9338
:100C1000334602AE93F9013006EB830643D0574BBF
:100C2000F0463B33052893F902309E4601F04C8292
:100C3000524B3B3393F9046093F901309B1B062818
:100C400001F03183122801F0B383022801F06C8592
:100C50004A4E3B367678B61E76B20D2801F087856F
:100C6000152801F0A385112801F0AD85162801F0A3
:100C7000CD85422801F0E085452801F057864628B9
:100C800002F07A80DFF8F490DFF8D0A141F2CA2CAC
:100C9000A9F10909352802F0F784372802F0DB872B
:100CA000DEE07AE1FEE3FEE3202025002020202084
:100CB00042000000202020410000000020202025CC
:100CC00000000000CE07082051AB01005FC00720E4
:100CD00020C2FBF0E0E2ED2EE7E0F0FFE420207A16
:100CE0003A305A20000000002020CAEEEDF2F0EE6B
:100CF000EBFC20E5ECEAEEF1F2E820200000000039
:100D000008000010202020C0E2E0F0E8FF20F1E51C
:100D1000F2E82121212020200000000020C0E2E094
:100D2000F0E8FF20E1E0F2E0F0E5E82121212020D9
:100D30000000000020C0F1E8ECECE5F2F0E8FF2054
:100D4000C0CAC121212120200000000020C0E2E013
:100D5000F0E8FF20E8F1F2EEF7EDE8EAE0204E31AE
:100D60000000000020C0E2E0F0E8FF20E8F1F2EE31
:100D7000F7EDE8EAE0204E3200000000110100101B
:100D8000C2EDE5F82EF2E5ECEF2E4E31E7E0E2FBA6
:100D9000F8E5EDE000000000C2EDE5F82EF2E5EC2C
:100DA000EF2E4E31E7E0EDE8E6E5EDE00000000073
:100DB00020202020C0E2E0F0E8FF20D1CA20B93195
:100DC000202020200000000020202020C0E2E0F0B1
:100DD000E8FF20D1CA20B9322020202000000000E6
:100DE00020202020C0E2E0F0E8FF20D1CA20B93363
:100DF000202020200000000020202020C0E2E0F081
:100E0000E8FF20D1CA20B9342020202000000000B3
:100E10009FC0072020C0E2E0F0E8FF20EFF0E5E40B
:100E2000EEF5F02E20B931200000000020C0E2E0F5
:100E3000F0E8FF20EFF0E5E4EEF5F02E20B93220E7
:100E40000000000020C0E2E0F0E8FF20EFF0E5E461
:100E5000EEF5F02E20B933200000000040420F00D4
:100E6000032803F05580C146FF4A2628D27C4C92C5
:100E700003F0E081FC4A292892F81C8003F00182EB
:100E80001B2803F0FD83F94F492803F057842028DD
:100E900003F0D784212803F00D854FF01E0A222885
:100EA00003F03885232803F0A086242803F0EC867D
:100EB000182803F06487B2F9787002AA02EB870C55
:100EC0003F2803F09687EA4ADFF8A4A352780AF194
:100ED000180A521E52B2402803F0B787412804F086
:100EE0009981472804F046824A2804F042854B281D
:100EF00004F06385282804F0F7850B2804F0F985B1
:100F00001D2804F01A861C2805F06180C8461F2899
:100F100005F00B811E2805F02D81382805F05F8132
:100F2000D14F2B28FF7F05F09281AAF15C0A2C2873
:100F300005F0DD81CC4EDFF83493B6F94A60A9F1B3
:100F40004A093746761EB44609F10106392805F0EC
:100F5000FD823A2805F020833B2805F0D7833C2802
:100F600005F01C843D2805F0CB843E2805F07085F3
:100F7000082805F02E860928FBD01328F9D014285C
:100F8000F7D03628F5D01A28F3D00A2805F046867F
:100F90002D2805F0488605F04CBEC9B101297DD049
:100FA000B44C02297BD003297AD0042979D00529B1
:100FB00078D00629EFD0072975D0082974D00929DF
:100FC00073D00A2972D00B2971D00C2970D0E2E7B6
:100FD000A9A3A9A2A8A1A8A00EF000FA00230222AA
:100FE00019460BF114049BF815000EF006F8608EFC
:100FF00000230222012180B20DF0FFFFE08D0222CA
:101000000023114680B20DF0F8FFA148002307220B
:101010000088194680B20DF0F0FF9E480023072299
:101020000088012180B20DF0E8FF9B4800230722D1
:101030000088022180B20DF0E0FF8B480023803051
:101040000722B0F87000032180B20DF0D6FF93485C
:1010500000230A22194600780DF0CFFF90480023A4
:101060000A22012100780DF0C8FF8E4800230A22D1
:10107000022100780DF0C1FF8B4C00231322207851
:1010800019460DF0BAFF60780023132201210DF0FC
:10109000B4FF00231322A07802210AE01DE061E0E2
:1010A000C2E041E17FE18CE1D6E1DBE115E208E35A
:1010B000ECE30DF0A2FF6E4C0023A41D112220884A
:1010C00019460DF09AFF60880023112201210DF0CE
:1010D00094FF0023A088112263E1744B74A11A4687
:1010E00078A00EF07BF97D48002304220088194681
:1010F00080B20DF082FF7A4800231A4690F9000072
:10110000012180B20DF079FF594C0123183C0E22C9
:10111000208800210DF071FF012360880E221946FE
:101120000DF06BFF241D01232088132200210DF0F8
:1011300064FF01236088132219460DF05EFF5446B8
:101140009AF800000A2200210EF0BAF860780A220C
:1011500001210EF0B5F8BBF8760000230122022130
:1011600080B2ABE244A344A243A143A00EF036F9FF
:1011700000232088042219460DF03FFF60880023D9
:10118000042201210DF039FFA0880023042202214E
:101190000DF033FFE0880023042203210DF02DFF22
:1011A00000232089092219460DF027FF60890023BA
:1011B000092201210DF021FFA0890023092202212B
:1011C0000DF01BFFE0890023092203210DF015FF1C
:1011D0000023208A0E2219460DF00FFF608A00239B
:1011E0000E2201210DF009FFA08A00230E22022108
:1011F0000DF003FFE08A00230E2203210DF0FDFE17
:101200000023208B132219460DF0F7FE608B00237C
:10121000132201210DF0F1FEA08B002313220221E5
:101220000DF0EBFEE08B46E213A313A212A112A075
:101230000EF0D4F80023208C042219460DF0DDFEB8
:10124000608C0023042201210DF0D7FEA08C002326
:10125000042202210DF0D1FEE08C002304220321A0
:101260000DF0CBFE208D3DE008000010E00C0820C2
:101270004C0100106807082020202020202020207A
:1012800020202020202020202020202000000000DE
:101290008AC0072086C007208CC0072070C00720A6
:1012A00071C0072072C00720A5C007203EA9010019
:1012B000202020202020202020202020202020202E
:1012C000202020003220202020202020202020202C
:1012D00020202020202020200000000074C00720B3
:1012E00068C007200023092219460DF086FE608D94
:1012F0000023092201210DF080FEA08D0023092288
:1013000002210DF07AFEE08D0023092203210DF069
:1013100074FE0023208E0E2219460DF06EFE00236F
:101320000E22608E0121C9E1AFF2B403AFF2B80220
:10133000AFF2BC01FAA00EF051F8FF4C00230322DB
:10134000208801210DF059FE60880023032202212C
:101350000DF053FE0322A088002311460DF04DFE30
:101360000023E088082219460DF047FE208900235B
:10137000082201210DF041FE60890023082202218C
:101380000DF03BFE0023A0890D2219460DF035FE1D
:10139000E08900230D2201210DF02FFE208A002379
:1013A0000D2202218AE1E5A3EAA2F0A1F5A00EF048
:1013B00015F8FA4801222821008880B20DF003FFB9
:1013C00005E0DEA3E3A2E9A1F5A00EF007F8FA48D4
:1013D00000222121008880B20DF0F5FEF74800229E
:1013E0004021008880B20DF0EEFEF54C0122232151
:1013F00020880DF0E8FE6088012224210DF0E3FE34
:10140000241D0122208825210DF0DDFE60880122A7
:101410005E210DF0D8FEB03C0122B4F870003C21F2
:1014200080B20DF0D0FE02223E21B4F972000DF020
:1014300001FD54469AF800000D2203210DF040FFF3
:101440006078132203210DF03BFF052203219BF856
:1014500023000DF035FF9EE5DA4B1A46114608468B
:1014600005F0E5BBAFF2F013AFF2F412AFF2F811F2
:10147000AFF2FC100DF0B2FFD14800232938012251
:10148000007819460DF0B9FDCD4801222638002319
:10149000007811460DF0B1FDC94800232338012220
:1014A000007801E090E26BE302210DF0A6FDC44854
:1014B00000232A300522008819460DF09EFDC04801
:1014C000002354300522008801210DF096FDBC4810
:1014D000002336300522008863E7AFF26423AFF2C1
:1014E0006822AFF26C21B8A00DF078FF96F90200E7
:1014F0000023401C80B2032219460DF07EFD96F9B0
:1015000002008D4CC0EBC00000EB4000AE3404EB99
:1015100040000023408C062219460DF06EFD96F91E
:1015200002000023C0EBC00000EB400004EB4000D1
:101530000E22808819460DF060FD96F90200002306
:10154000C0EBC00000EB400004EB40001322C08859
:1015500019460DF052FD96F902000023C0EBC000C1
:1015600000EB4000042234F8100001210DF045FD8D
:1015700096F902000023C0EBC00000EB400004EB32
:1015800040000922408801210DF037FD96F9020044
:101590000023C0EBC00000EB400004EB40000E2233
:1015A000008901210DF029FD96F902000023C0EB0E
:1015B000C00000EB400004EB40001322008A012130
:1015C0000DF01BFD96F902000023C0EBC00000EBFC
:1015D000400004EB40000422408902210DF00DFD83
:1015E00096F902000023C0EBC00000EB400004EBC2
:1015F00040000922808902210DF0FFFC96F90200CB
:101600000023C0EBC00000EB400004EB40000E22C2
:10161000C08902210DF0F1FC96F902000023C0EB15
:10162000C00000EB400004EB40001322408A02217E
:101630000DF0E3FC96F902000023C0EBC00000EBC4
:10164000400004EB40000422808A03210DF0D5FC09
:1016500096F902000023C0EBC00000EB400004EB51
:1016600040000922C08A03210DF0C7FC96F9020050
:101670000023C0EBC00000EB400004EB40000E2252
:10168000008B03210DF0B9FC96F902000023C0EB9A
:10169000C00000EB400004EB40001022C08B03218F
:1016A0000DF0ABFC96F90200C0EBC00000EB40006F
:1016B00004EB4000008C0023132203210DF09DFC5D
:1016C00069E447A002904CA0039051A0049056A05A
:1016D00005905BA0069060A0079065A0089010465A
:1016E0003F1D50F825000ECF0DF078FE3448022241
:1016F000AC383F21B0F972000DF09CFB624C606D7C
:10170000002200F0010024210DF05DFD55469AF8FD
:10171000000023210DF0C2FD606DC0F34000B6E073
:1017200043414E2020202020202020202020202047
:101730002020202000000000EA0C08205374202004
:101740002020202053743120202053743220202068
:101750000000000049E1202020203E2049312020C7
:10176000202549322020205E0000000055E1202085
:1017700020203C20553120202023553220202024B9
:1017800000000000556E202020202820D831202085
:101790002021D832202020400000000086C00720F1
:1017A000706C202020202820D83120202021D83201
:1017B000202020400000000082C0072084C00720B5
:1017C000340100103EA901004C422020202020209E
:1017D0002020202020202020202020200000000089
:1017E000202020203F2020202020202020242023D3
:1017F0002040202100000000202020202020202048
:10180000202020202020204A2020206A00000000E4
:10181000202020202020202020202020202020598F
:101820002020207900000000202020682020206D4A
:101830002020202020512071205A207A0000000012
:1018400020202073202020532020202020202043EF
:101850002020204400000000202020662020204678
:101860002020202020202063202020640000000071
:101870002020202020202020202020202041206106
:10188000204220620000000000C0092070E0002219
:1018900040210DF098FC687821210DF0FFFCDA4C16
:1018A00000224A2120880DF08EFC608800226A21E7
:1018B0000DF089FCD54C0022592120780DF083FCD5
:1018C0006078002279210DF07EFCD14C0022682145
:1018D000206880B20DF077FCCE4800226D210068B0
:1018E00080B20DF070FCCC4D0022512128880DF003
:1018F0006AFCCA4E0022712130880DF064FC6888B1
:1019000000225A210DF05FFC708800227A210DF030
:101910005AFCC34D0022412128780DF054FCC14EE1
:101920000022612130780DF04EFC687800224221BF
:101930000DF049FC7078002262210DF044FC206813
:10194000002280B243210DF03EFC6068002280B28C
:1019500044210DF038FCB44C00226321206880B291
:101960000DF031FC6068002280B2642105F02EB9D0
:10197000AE4B1A46114608460DF030FDAC4C2078AF
:101980004FF000034FF0060219460DF036FB00231E
:10199000062201219BF81E000DF02FFBB4200FF052
:1019A00085FC80B20023062202210DF026FBA088D0
:1019B0000023102219460DF020FBB6200FF076FC14
:1019C000002380B21022ECE49AA002908E48B0F975
:1019D0000020B0F90200C82A05DDC82801DD9BA05F
:1019E0000CE0A0A00AE0C82801DDA4A006E086481B
:1019F000AC38B0F97000C82801DDA6A00290ABA0F9
:101A00000390B0A00490B5A00590BAA00690BFA026
:101A10000790C4A00890C9A00990CEA00A90D3A0B6
:101A20000B90D8A00C90DDA00D90E2A00E90E7A046
:101A30000F907E481530109021B1681A022804DDFD
:101A4000891C04E00020307102E0A94200DD317100
:101A50009BF807005D46052808D296F9041002A8F5
:101A600000EB8100001D0EC802980AE096F90420E0
:101A700002A901EB8201091D08EB80000EC950F894
:101A8000140C0DF0ABFC96F90400A0B196F901100E
:101A900089B1884203D1D34880F83C400BE0401A1A
:101AA000012802D0022804D005E0CE4880F8284062
:101AB00001E0CC480475544C01223C3C6C21208848
:101AC00080B20DF080FB02224021B4F902000DF03B
:101AD000B1F960890122232180B20DF074FB2089C5
:101AE0000122242180B20DF06EFBBF4C20784FF014
:101AF00000024FF026010DF066FB207900225E21E6
:101B00000DF061FB207A002225210DF05CFB207B8B
:101B100000223C210DF057FB217E444800222A3050
:101B200000EB81003E210DF088FCA08B00227B2180
:101B30000DF049FB287D68B13A200DF0DAF8A94C88
:101B4000202525543A200DF0D4F825543A200DF0E4
:101B5000D0F82554A54C4FF4616100222068B0FBF9
:101B6000F1F080B27A210DF02EFB21683C20B1FB10
:101B7000F0F1B1FBF0F200FB121000225A21F5E661
:101B8000BBF874005D4658B15FEA8C700DD54F9874
:101B900000283FF461AC254B95A29BA1A0A05FE477
:101BA000A5A3ABA2B0A1B6A05AE4BBA00290C048C6
:101BB000007850B1BFA00390C4A00590C9A00490C4
:101BC00095F8250028B1CDA004E0D2A00390D7A0BD
:101BD000F3E7DCA00690E1A00790E6A00890EBA058
:101BE0000990F0A00A90F5A00B90FAA00C90FFA02D
:101BF000054F0D904B98AC3F30280C48C14600F182
:101C0000150000D0FEE12CE2340100107EC0072058
:101C1000BCC0072008020010B0C00720ACC00720DD
:101C20000C0200100E020010C4C007203EA90100E3
:101C3000384002402020CDE5EEEFF0E5E4E5EBE5AD
:101C4000EDEDEEF1F2FC20200000000020C220F0BB
:101C5000E0E1EEF2E520C1CFD1312CC1CFD132206D
:101C60000000000020202020C220F0E0E1EEF2E59C
:101C700020C1CFD1312020200000000020202020D2
:101C8000C220F0E0E1EEF2E520C1CFD132202020E9
:101C9000000000002020D0E0E1EEF2E020EEF22093
:101CA000E1E0F2E0F0E5E820000000002055E13D31
:101CB0002020206CC22049E13D2020202040C0206F
:101CC000000000002055ED3D20202023C22049EDDA
:101CD0003D2020202024C020000000002030253A94
:101CE000305E3A302620303C2F3E20202F307B20A3
:101CF0000000000020C1E0F2E0F0E5FF20202020FD
:101D000020202020202020200000000020C1CFD152
:101D100031202020202020202020202020202020B2
:101D20000000000020C1CFD1322020202020202020
:101D300020202020202020200000000020CDE0E3F3
:101D4000F0F3E7EAE020202020202020202020209F
:101D50000000000020D1E5F2FC20202020202020DF
:101D600020202020202020200000000020D1EFE5AE
:101D7000F6F4F3EDEAF6E8E82020202020202020E9
:101D80000000000020C6F3F0EDE0EB20F1EEE1FBF7
:101D9000F2E8E920202020200000000020C1E0F22D
:101DA000E0F0E5E9EDFBE920E6F3F0EDE0EB2020E3
:101DB0000000000020D3F1F2E0EDEEE2EAE820209E
:101DC00020202020202020200000000020D1E1F051
:101DD000EEF120E0E2E0F0E8E920202020202020C1
:101DE00000000000CE07082020400240B4C00720B9
:101DF00020202020EDE520EFEEE4EAEBFEF7E5ED14
:101E0000E02020202020000020202020202020C1B1
:101E1000E0F2E0F0E5FF202020202020202000003C
:101E200020202020202020C0C2C0D0C8DF212120B7
:101E30002020202020200000E220E1E0F2E0F0E578
:101E4000E9EDEEEC20E6F3F0EDE0EBE5000000005C
:101E50002020202020E2E2E5E4E8F2E520E5B820B9
:101E6000202020200000000020CFF0E82020EDE519
:101E7000EEE1F5EEE4E8ECEEF1F2E820000000001F
:101E800020C1C0D2C0D0C5DF20CDC520C2C2C5C4CC
:101E9000C5CDC02000000000202020202020C1C08F
:101EA000D2C0D0C5DF20202020202020000000004C
:101EB0006EC00720202020F0E0E7F0FFE6E0E5F22A
:101EC000F1FF2020202020200000000020202049B9
:101ED000F0E0E7F03D2020202021C020202020201D
:101EE0000000000020202055E1E0F23D20202020CD
:101EF0002040C220202020200000000020202020A0
:101F0000C4D22E20EDE5E8F1EFF0E0E2E5ED20208F
:101F10000000000020202020E7E0F0FFE6E0E5F2EE
:101F2000F1FF202020202020000000002020204958
:101F3000E7E0F03D202020202021C020202020208C
:101F40000000000020202074E1E0F2203D2020204D
:101F500024B043202020202000000000202020C7A3
:101F6000E0F0FFE43D2020202077252020202020C5
:101F70000000000020202043E1E0F23D202020204E
:101F80002051C02AF72020200000000020202055EA
:101F9000FD31203D20202020205BC2202020202059
:101FA0000000000020202055FD32203D2020202070
:101FB000205DC2202020202000000000202020558D
:101FC000FD33203D20202020207BC2202020202007
:101FD0000000000020202055FD34203D202020203E
:101FE000207DC2202020202000000000202020553D
:101FF000FD35203D202020202029C2202020202027
:10200000000000000E90F046AFF27410361D0ECEA8
:102010000DF0E4F9B7F870000122402180B20DF014
:10202000D2F802222121B7F972000CF003FFB7F8B1
:102030006E000022242180B20DF0C5F895F924002D
:102040000022772180B20DF0BEF8B5F97C00A0F532
:10205000AA41553907D14A1E5121E0A00DF0EDF9F2
:1020600006E00D90CFE70122512180B20DF0ABF8D0
:10207000B7F9021091FBF9F0302803D198F801105C
:10208000082905D03C2806D198F80100092802D17A
:10209000D44880F83C40D44C01225B2120880DF0CC
:1020A00092F8608801225D210DF08DF8A088012250
:1020B0007B210DF088F8E08801227D210DF083F866
:1020C00001222089292151E403EB430101EB031094
:1020D000C5492A3101EB800090F83D00C00710D0BF
:1020E0004F98F8B1C14BAFF2F822C1A1C6A000BF12
:1020F0000DF074F998F902000022401C80B22321EF
:1021000034E4B94DCEEBCE0000EB4000C23505EB18
:102110004000818C59B14F9820B1B44BC0A2C6A1E8
:10212000CBA0E5E7B14B1A4611460846E0E7B0F907
:102130000A00002804DDAFF224200390CAA003E0C7
:10214000AFF290200390CEA00590D3A00490D8A029
:102150000690DDA00790E2A00890E7A00990ECA00F
:102160000A90F1A00B90A148F5A115300C90D6E98A
:102170000123F9A00DF032F998F902000022401C69
:1021800080B240210DF01FF898F902000122C0EB47
:10219000C00000EB400005EB4000242100890DF059
:1021A00012F898F90200C0EBC00000EB400005EB0C
:1021B0004001B1F90A00002801DCB1F90C0002224B
:1021C00023210CF037FE98F902000022C0EBC0007A
:1021D00000EB400005EB40003F21B0F904000CF09B
:1021E00029FE98F902000022C0EBC00000EB40007D
:1021F00005EB40007721408A0CF0E5FF98F90200DA
:102200000122C0EBC00000EB400005EB4000B0F93C
:102210000E10B0F9100041434FF47A7091FBF0F0CA
:1022200080B251210CF0CFFF98F80100082802D1AC
:102230006C4880F83C4098F902000122C0EBC000D5
:1022400000EB400005EB40005121C0890CF0BBFFC2
:1022500098F902000A21C0EBC00000EB400005EB3A
:1022600040000122B0F9140090FBF1F080B23C2153
:102270000CF0A9FF98F902000022C0EBC00000EBAF
:10228000400005EB40003E21008A0CF09CFF98F9CD
:1022900002000122C0EBC00000EB400005EB400053
:1022A0005B21C08A6BE4B2484646BEF1000F406D28
:1022B00005D0C0F34000BEF1010F03D006E000F0EE
:1022C000010003E0BBF87620012A02D048B1A9A0A2
:1022D00008E0B4A20292B9A20392444AABA00492CD
:1022E00027E0BCA05FEACC7201D0C0A211E01AF8CE
:1022F0000E20D70601D5C3A20BE0170701D5C7A250
:1023000007E0570701D5CBA203E012F03C0F01D143
:10231000CEA20292D3A20392DE4FD8A2049217F863
:102320000E200AB1DCA200E0E1A205922F4A15328C
:102330000692002B01DCA94200DA317196F90450B3
:1023400002A901EB8502121D51F825100CCA0DF0EF
:1023500045F896F902000022401C80B221210CF0C1
:1023600032FFCC4896F902103630012230F81100C5
:1023700040210CF028FFC74896F902103A3001229C
:1023800030F8110023210CF01EFFC24896F902100C
:102390003230002230F8110024210CF014FF707844
:1023A000022844F046840F4880F83C4004F041BCC9
:1023B000C5A3CBA2D0A1D6A00DF010F809480122E8
:1023C000212180F83C40B34CA41C608880B20CF002
:1023D000FAFE0122402103F087BF00002D2D2D2D94
:1023E0002D2D0000CE070820D60C08203EA90100A4
:1023F0002020202020C1E0F2E0F0E5FF20B92320DA
:10240000202020202020000020202020202020C06C
:10241000C2C0D0C8DF2120202020202020200000A2
:1024200020202020202020202020202020202020AC
:1024300020202020202000002020202020EDE5204A
:10244000EFE5F0E5E4E0FEF2F1FF202020200000BF
:102450002020D1E8E3EDE0EBFB20F2E5EBE5ECE555
:10246000F2F0E8E8202000002049E7E0F03D2020DD
:10247000202020202023C020202020200000000039
:102480002049F0E0E7F03D20202020202023C0203C
:1024900020202020000000002055E1E0F2203D2017
:1024A00020202024C2202020202020200000000006
:1024B0002074E1E0F2203D202020203FB043202086
:1024C000202020200000000020534F4320203D20EA
:1024D0002020207725202020202020200000000020
:1024E0002043E1E0F2203D2020202051C02AF720A7
:1024F000202020200000000020534F4820203D20B5
:102500002020203E25202020202020200000000028
:1025100020496D6178203D202020203C4120202052
:1025200020202020000000002052425420203D2086
:102530002020205BF7202020202020200000000009
:102540002020203120782047594650343837352014
:10255000202020200000000020202020C1C0D2C068
:10256000D0C5DF204E402020202020200000000089
:1025700000C0092020202020C1CFD12120C2DBCAE9
:10258000CBDED7C5CD202020000000002020202059
:1025900020202020C1CFD132202020202020202028
:1025A0000000000020202020CED2D1D3D2D1D2C230
:1025B000D3C5D22020202020000000002020C220EF
:1025C000D1D2D0D3CAD2D3D0C520C8C1DDCF20202C
:1025D0000000000020202020C1CFD12120C2CACB82
:1025E000DED7C5CD202020200000000020E0E2E062
:1025F000F0E8FF20F1E5F2E8202020202020202034
:102600000000000020E0E2E0F0E8FF20EFE5F0E568
:10261000E3F0E5E2202020200000000020E0E2E0DE
:10262000F0E8FF2055E2FBF53C55ECE8ED202020DA
:102630000000000020E0E2E0F0E8FF2055E2FBF5BA
:102640003E55ECE0EAF120200000000020F1EEF120
:10265000F2EEFFEDE8E5202D20EDEEF0ECE020209D
:10266000000000002055E8F1F2203D20202020400D
:10267000C220202020202020000000002049E8F176
:10268000F2203D2020202023C020202020202020B8
:1026900000000000FE00001020C4D220EDE5E8F1AB
:1026A000EFF0E0E2E5ED20202020202000000000F7
:1026B0002074E8F1F2203D20202024B04320202087
:1026C000202020200000000020C2FBF5EEE42020A6
:1026D000202020202020202020202020000000007A
:1026E0002049EDE0E3F03D20202020202020404143
:1026F00020202020000000002055EDE0E3F03D20E8
:1027000020202020202021C22020202000000000A6
:10271000202020202020CDC0C3D0D3C7CAC0202075
:1027200020202020000000005D465FEACC701AD017
:102730004F9808B1A6A000E0AA48AFF27403AAA27D
:10274000AFA102900CF04AFEB34805F14405002207
:1027500080F83C40A888232180B20CF034FD01228F
:102760004021288801E0ADA0E7E780B2ABE4B1A04A
:102770000290B6A00390BBA004909A481530059033
:10278000022B02DD88F8046003E0A94201DA88F830
:10279000041098F9041002A800EB8102121D50F8F1
:1027A00021100CCAB5A003F0C2B900BFB9F1210FC6
:1027B00007D0B8A08B4B0146029003F11502BBA0D5
:1027C000F1E7C0A0F6E7C5480290C5A0039031B17B
:1027D000012908D002290AD003290CD00FE0C6A095
:1027E0000290CBA00AE0D0A00290D5A006E0DAA02B
:1027F0000290DFA002E0D8A00290E3A0039003467D
:10280000B7A1B648029A04F012BA00BFB9F1050F99
:1028100010D0A0A0734B024602901533E0A1E6A0B1
:102820000CF0DCFD01200DF0CBFB00222121BBF8D8
:102830006E009AE7A3A0EDE7DFA3DFA2DEA1DEA092
:102840000CF0CCFD04218BF81B109BF81E10012905
:1028500023D0022923D003292ED006292ED00C29DB
:102860002ED0DBA15F4802918BF81B4015300390FE
:1028700098F9041002A800EB8102536850F8212057
:10288000D9A1DFA00CF0AAFD98F9010098F9041075
:10289000884217DA88F804001AE0DFA000E0E4A01C
:1028A0000290E9A00390EEA00490AFF6D03005901E
:1028B0004C4815300690DBE7EFA0F1E7F4A0EFE716
:1028C000F9A0EDE7411A012902DD411E88F8041044
:1028D000022801D188F8040002200DF071FBF84CA9
:1028E00000222521A0890CF06EFC00225E21E089E7
:1028F0000CF069FC00222621208A0CF064FC0022E6
:102900003C21608A0CF05FFC3648A18A2A3000EB3B
:10291000810000223E210CF090FD00227B21E08A04
:102920000CF051FC00222821208BBBE440F6026011
:102930000EF0BCFC01B25846ABF84A10402902DD4B
:102940000021A0F84A10BBF94A0070B1012811D04B
:1029500002281AD018DD98F9011098F90420914244
:102960002FDA00BF88F80410DCE11E4BD5A103F17B
:10297000150203E01B4AD9A31532DEA1E3A00CF037
:102980002DFD002088F80400DEE198F9010098F997
:102990000410884203DA00BF88F8040004E0411AFA
:1029A000022901DD801EF7E798F9040010B1012823
:1029B00003D0C9E10B4B1533BFE10A4AC7A3153257
:1029C000BCE18A1A022A01DD891ECBE7AAE10000D8
:1029D000202020C0C2C0D0C8DF20D1C5D2C821214C
:1029E000212020003EA901002046F1E5F2E83D202B
:1029F00020202020202040C3F620202000000000BE
:102A00002055F1E5F2E83D2020202020202023C29F
:102A10002020202000000000CE07082020202020B9
:102A2000202020D1C5D2DC202020202020202020E2
:102A30000000000020CAEEEDF2F0EEEBFC20E5EC29
:102A4000EAEEF1F2E82020200000000020C2FBF0B6
:102A5000E0E2EDE8E2E0FEF9E8E920E7E0F0FFE49B
:102A60000000000020C0E2F22EE2FBF0E0E2EDE820
:102A7000E22E20E7E0F0FFE400000000202020200C
:102A8000D1CFC5D6D4D3CDCAD6C8C82020202020C7
:102A90000000000020C2FBEAEBFEF7E5ED2020205D
:102AA0002020202020202020000000002020CACE4E
:102AB000CDD2D0CECBDC20C5CCCACED1D2C820203E
:102AC0000000000020C2EAEBFEF7E5ED2020202008
:102AD000202020202020202000000000E80C000002
:102AE000202020EDE5E2EEE7ECEEE6E5ED21212108
:102AF000202020200000000020202020CEF2F1F332
:102B0000F2F1F2E2F3E5F2202020202000000000A4
:102B1000202020202020E1E0F2E0F0E5FF2020202E
:102B2000202020200000000020202020202020C085
:102B3000E2E0F0E8FF20202020202020000000001C
:102B40002020202020202020F1E5F2E82020202055
:102B50002020202000000000202020202020C1E094
:102B6000F2E0F0E5FF2020202020202000000000DF
:102B700020202020F0E0E7F0FFE6E0E5F2F1FF2082
:102B800020202020000000002020202020E7E0F06E
:102B9000FFE6E0E5F2F1FF20202020200000000009
:102BA00020E4EBE8F2E5EBFCEDEEF1F2FC202D2069
:102BB0002021F72E0000000020C2DBD0C0C2CDC80B
:102BC000C2C0DED9C8C920C7C0D0DFC40000000021
:102BD00020E2FBEAEBFEF7E5ED202020202020207C
:102BE0002020202000000000C2DBD0C0C2CDC8C21F
:102BF000C0DED9C8C920C7C0D0DFC4200000000093
:102C0000202020C0C2D2CECCC0D2C8D7C5D1CAC81D
:102C1000C92020200000000020F0E0E720E220ECA6
:102C2000E5F1FFF6202020202020202000000000D9
:102C300020F0E0E720E2203220ECE5F1FFF6E02092
:102C4000202020200000000020E4EBE8F2E5EBFC6F
:102C5000EDEEF1F2FC20202028F72E2000000000ED
:102C600020EEF7E5F0E5E4EDEEE520E2EAEBFEF735
:102C7000E5EDE8E50000000020F0E0E720E2203389
:102C800020ECE5F1FFF6E0202020202000000000ED
:102C900020F0E0E720E220EFEEEBE3EEE4E020209E
:102CA000202020200000000020F0E0E720E220E3C8
:102CB000EEE4202020202020202020200000000002
:102CC0008800001020C6F3F0EDE0EB20EFF3F1F206
:102CD00020202020202020200000000020CEF7E827
:102CE000F1F2E8F2FC20E6F3F0EDE0EB202020200A
:102CF000000000002028202020202020202020204C
:102D0000202020202020202000000000202020C69D
:102D1000D3D0CDC0CB20D1CEC1DBD2C8C92020209A
:102D20000000000098F90410421E91423FF445AEA5
:102D3000801E81423FF43EAEF9A3FFA2AFF24C01E8
:102D4000AFF238000CF04AFB01200DF039F998F889
:102D5000040028210CF01DFC98F804005B21401CA5
:102D6000C0B20CF016FC98F804007B21801CC0B2A5
:102D70000CF00FFC03F05DBFF54B1A4611460846F8
:102D80000CF02CFB4FF460600EF090FA98F90210F2
:102D900000B24A4240210CF00EFB400100F5806079
:102DA00080B2054650A90EF0FEFA52A9281D0EF079
:102DB000FAFA694605F108000EF0F5FA01A905F1E5
:102DC0000C000EF0F0FA48A905F110000EF0EBFA35
:102DD00049A905F114000EF0E6FA51A905F1180011
:102DE0000EF0E1FA9DF84001552808D0502843D054
:102DF00042287ED053287DD046287CD0BAE79DF863
:102E000042015228B6D1D3A3D8A2DEA1E3A00CF090
:102E1000E5FA9DF80400002240210CF0D4F99DF859
:102E20000500002223210CF0CEF99DF806000022B7
:102E300024210CF0C8F99DF80200002225210CF095
:102E4000C2F99DF8000000225E210CF0BCF99DF84B
:102E50000100401E0C2801D38DF80140BC489DF8AC
:102E600001102A3000EB8100002228210CF0E5FA45
:102E70000020ABF84A007DE79DF842014128BDD112
:102E8000CC480290B3A003909DF82001412803D1C3
:102E90009DF82101412851D00122002108F10400B0
:102EA000FDF7DBF9C4A00490C9A00590CEA0069060
:102EB00098F9046002AD05EB8600001D0EC855F8B8
:102EC00026000CF08BFA9DF8240100223E210CF024
:102ED0007AF99DF8250100223D210CF074F99DF846
:102EE0002601002229210CF06EF99DF82201002212
:102EF00002E040E0E6E28AE35B210CF064F99DF831
:102F0000200100223C210CF05EF99DF82101401EB9
:102F10000C2801D38DF821418D489DF821112A30CC
:102F200000EB810000225D210CF087FA9DF844013E
:102F30009DF8451100EB012080B24CE0B0A0049058
:102F4000B5A002AD0346059007CD0CF047FABBF8DB
:102F5000480000222B2180B26DE300BF7C489DF821
:102F600001102A3000EB8100002228210CF065FAC4
:102F7000ABF84A40FEE69DF84201432809D05328A9
:102F80002CD05A283AD0052557287ED04B287DD002
:102F9000F0E6AFF26C400290A5A023E098A082E09A
:102FA0000122002108F10400FDF757F982A00590E5
:102FB00087A0069098F9046002AD05EB8600001D1D
:102FC0000EC855F826003AE08DF821415CE000BFBC
:102FD0009DF84101401C00222B212CE3AFF2B840A8
:102FE000029099A003905BA004909DF820014128D5
:102FF000D6D19DF821014128D2D1CFE798A00290E7
:103000009DA00390A2A004909DF82001412803D127
:103010009DF82101412845D00122002108F104003A
:10302000FDF71BF9A0A00590A5A0069098F9045003
:1030300002A800EB8501091D50F825000EC90CF00F
:10304000CDF99DF8240100223E210CF0BCF89DF83A
:10305000250100223D210CF0B6F89DF82601002242
:1030600029210CF0B0F89DF8220100225B210CF020
:10307000AAF89DF8200100223C210CF0A4F89DF84C
:103080002101401E0C289FD201E013E09DE1304851
:103090009DF821112A3000EB810000225D210CF007
:1030A000CCF995E78CA002AD0346059007CD0CF056
:1030B00095F98DE78EA0029093A0039098A00490BC
:1030C00073A005909CA00690A1A00790A6A00890D0
:1030D000ABA00990B0A00A9098F9047002AE06EB7C
:1030E0008700001D0EC856F827008EE18DF80140BC
:1030F000B8E100BF9DF82101002206EB8000772196
:103100000CF09BF9BDF8480101227A210CF05BF824
:103110009DF803009DF8071000EB012080B247E105
:10312000207B202020202020202020202020202044
:103130002020202000000000205B202020202020D4
:1031400020202020202020202020202000000000FF
:103150003EA9010020203025282020305E2030406C
:103160003A30233A30242020000000002020202084
:1031700020202020C8C1DDCF20202020202020209A
:1031800000000000202020E8EBE820E2EAEBFEF758
:10319000E5EDE8E520202020000000002020202090
:1031A000CFE5F0E5E7E0E3F0F3E7EAE020202020D8
:1031B00000000000040D0000202020202020F3F15A
:1031C000F2F0E0EDE5EDE0202020202000000000FE
:1031D0002020305B5D2020303C20303E3A303D3AAC
:1031E0003029202000000000202020202055ECE87D
:1031F000ED3D20202BC220202020202000000000B8
:1032000020202020EDE520F3F1F2F0E0EDE5EDE007
:103210002020202000000000202020202055F1E563
:10322000F2E83D20202BC2202020202000000000BA
:10323000202020202020E1E0F2E0F0E5E82020201E
:10324000202020200000000020E0F1E8ECECE5F276
:10325000F0E8FF20E1E0F2E0F0E5E8200000000007
:10326000202020C2FBF0E0E2EDE8E2E0FEF9E8E930
:10327000202020200000000020202020202020E707
:10328000E0F0FFE42020202020202020000000008B
:103290002030252F2820202F305E2030403A302348
:1032A0003A30242000000000202020202020E7E0E9
:1032B000E2E5F0F8E5ED20202020202000000000CD
:1032C00020305B2F5D20202F303C20303E3A303DB7
:1032D0003A3029200000000020202020EDE520E7E2
:1032E000E0E2E5F0F8E5ED202020202000000000DD
:1032F00020202020202020D0E0E7F0FFE420202024
:10330000202020200000000020202020202020E17C
:10331000E0F2E0F0E5E8202020202020000000007E
:1033200020CDE0F7E0EBEE20202020202020202000
:10333000202020200000000020202020202020200D
:10334000202055E1E0F23D20203CC220000000009A
:1033500020CAEEEDE5F6202020202020202020208D
:1033600020202020000000002030712F7720202F07
:1033700030722030693A306C3A307320000000001F
:103380002020202020202020202055E1E0F23D2098
:10339000203EC2200000000020202020CEF2E4E0E9
:1033A000EDEE202020207AE02AF72E2000000000F9
:1033B00001223C210BF007FFBDF84A0101223E210A
:1033C0000BF001FFABF84A50D4E4FA480290AFF298
:1033D000C8000390AFF2B8000490AFF24C10059013
:1033E000F5A00690AFF298000790AFF28400089025
:1033F000F7A00990FCA00A9098F9046002A800EBDD
:103400008601091D50F826000EC90BF0E7FF9DF854
:1034100041010022401C21210BF0D5FE9DF8040043
:10342000002240210BF0CFFE9DF805000022232151
:103430000BF0C9FE9DF80600002224210BF0C3FE0C
:103440009DF80200002225210BF0BDFE9DF8000032
:1034500000225E210BF0B7FE9DF80100401E0C28F3
:10346000BFF444AE9DF80100E54E002206EB80005B
:1034700028210BF0E2FF9DF82401002269210BF0C6
:10348000A2FE9DF8250100226C210BF09CFE9DF808
:103490002601002273210BF096FE9DF822010022E6
:1034A00071210BF090FE9DF82001002272210BF09B
:1034B0008AFE9DF82101401E0C28FFF41BAE8DF8FA
:1034C000214117E6CFA002909DF842014C2806D07A
:1034D000542806D0552806D0752806D007E0CFA07E
:1034E00004E0D4A002E0D9A000E0DEA00390AFF297
:1034F0009C3004909DF82001412803D19DF82101C2
:1035000041287BD00122002108F10400FCF7A5FE30
:10351000AFF25C300590AFF24830069098F9045055
:1035200002A800EB8501091D50F825000EC90BF01B
:1035300055FF9DF8240100223E210BF044FE9DF82A
:10354000250100223D210BF03EFE9DF826010022C0
:1035500029210BF038FE9DF8220100225B210BF09F
:1035600032FE9DF8200100223C210BF02CFE9DF83C
:103570002101401E0C2801D38DF821419DF8211115
:103580009F48002200EB81005D210BF056FF00BF39
:103590009DF841010022401C2B210BF014FE9DF8E8
:1035A0000400002240210BF00EFE9DF805000022D1
:1035B00023210BF008FE9DF80600002224210BF0C9
:1035C00002FE9DF80200002225210BF0FCFD9DF873
:1035D000000000225E210BF0F6FD9DF80100401E68
:1035E0000C2801D38DF801409DF801108448002279
:1035F00000EB8100282103F079B9FFE7AFF200402A
:1036000002AD0346059007CD0BF0E8FEC0E7AFF62C
:10361000E820029099A00390AFF2C84004909D4822
:1036200002AD0346059007CD0BF0D8FE9DF8410191
:103630000022401C21210BF0C6FD9DF80400002251
:1036400040210BF0C0FD9DF80500002223210BF066
:10365000BAFD9DF80600002224210BF0B4FD9DF870
:103660000200002225210BF0AEFD9DF80000002293
:103670005E210BF0A8FD9DF80100401E0C28FFF410
:103680006DAC8DF8014069E4834EA2F5B8508838DE
:1036900001D182A05CE0A2F5B8507C3801D185A0B0
:1036A00056E0A2F59050D83801D188A050E0A2F59C
:1036B0009050CC3801D18BA04AE0A2F5B8507A38AE
:1036C00001D18EA044E0A2F5B850753801D191A087
:1036D0003EE0624501D195A03AE0A2F59050C53890
:1036E00001D198A034E040F67810824201D19BA02D
:1036F0002EE040F66C118A4201D19EA028E0A2F58E
:103700009053E83B01D1A1A022E0A2F5B853983B29
:1037100001D1A4A01CE0A2F59053D43B01D1A7A0F5
:1037200016E0A2F5B853843B01D1AAA010E0A2F59F
:103730001063923B01D1ADA00AE0A2F51063793B82
:1037400001D1B0A004E08242D1D08A42D5D0B3A04A
:103750000290B8A00390BDA00490C2A00590C7A09D
:103760000690CCA00790D1A00890D6A00990DBA02D
:103770000A90E0A00B90E5A00C90EA480D903F1D48
:1037800002A80ECF50F825000BF028FE98F8040090
:10379000082802D1E44880F83C40B6F904003446D9
:1037A000202805DA0022212180B20BF00CFDC3E1B4
:1037B000BCE10000E80C0000202020202020202078
:1037C0002055E1E0F23D20203CC220200000000016
:1037D00020202020202020202055E1E0F23D202044
:1037E0003EC220200000000020A8ECEAEEF1F2FC2E
:1037F00020202020207AE02AF72E20200000000040
:1038000068A90100202020C0E2E0F0E8FF20C1CF3D
:10381000D1204E2B2020202000000000202020203E
:1038200020EEF2EAEBFEF7E8EBF1FF20202020206B
:1038300000000000202020202020EFE5F0E5E3F04C
:10384000E5E220202020202000000000202020E7AA
:10385000E0E2FBF8E5EDEE2055E2FBF52E2020201E
:1038600000000000202020E7E0EDE8E6E5EDEE2096
:1038700055E2FBF52E2020200000000020EFF0E5AF
:10388000E4EEF5F0E0EDE8F2E5EBFF20B9212020D1
:10389000000000007812000088000010202020C8DE
:1038A000C1DDCF3232302F36302D3234412020204E
:1038B00000000000202020C8C1DDCF3232302F367A
:1038C000302D31324120202000000000202020C86F
:1038D000C1DDCF3232302F34382D32344120202018
:1038E00000000000202020C8C1DDCF3232302F344C
:1038F000382D31324120202000000000202020C837
:10390000C1DDCF3232302F36302D313041202020F2
:1039100000000000202020C8C1DDCF3232302F3619
:10392000302D35412020202000000000202020C81C
:10393000C1DDCF3232302F34382D313041202020BC
:1039400000000000202020C8C1DDCF3232302F34EB
:10395000382D35412020202000000000202020C8E4
:10396000C1DDCF3232302F32342D3234412020208D
:1039700000000000202020C8C1DDCF3232302F32BD
:10398000342D31324120202000000000202020C8AA
:10399000C1DDCF3232302F34382D34304120202059
:1039A00000000000202020C8C1DDCF3232302F3689
:1039B000302D34304120202000000000202020C87D
:1039C000C1DDCF3232302F34382D3230412020202B
:1039D00000000000202020C8C1DDCF3232302F3659
:1039E000302D32304120202000000000202020C84F
:1039F000C1DDCF3232302F32342D353041202020FE
:103A000000000000202020C8C1DDCF3232302F322C
:103A1000342D32354120202000000000202020D20B
:103A2000E8EF20EDE5E8E7E2E5F1F2E5ED20202022
:103A300000000000C4E0F2E020E8E7E3EEF22E2010
:103A400030212F30402F302300000000F8E0F1F14A
:103A5000E82020202020532F4E30303030303F20BF
:103A600000000000D3CAD33230322E2B2820532F2F
:103A70004E3030303030292000000000CFCE2020E2
:103A800020202020202076202020205B20202020A5
:103A900000000000C1CFD131202D20202020532F45
:103AA0004E30303030303C2000000000C1CFD132E9
:103AB000202D20202020532F4E30303030303E201B
:103AC0000000000052533233322020202020207684
:103AD00020202024202020200000000043414E20F0
:103AE000504448202D2020762020202520202020F2
:103AF0000000000043414E20534448202D202076F2
:103B00002020205E202020200000000045746865F1
:103B1000726E65742D202076202020262020202003
:103B200000000000C8260000CE0708204FF0FF323A
:103B30002121FFA00BF081FCB4F906000D2805DA65
:103B40000022402180B20BF03EFB05E04FF0FF3237
:103B50004021F7A00BF071FCB4F90800642805DAE5
:103B60000022232180B20BF02EFB05E04FF0FF3244
:103B70002321EFA00BF061FCD9F8180055464C4604
:103B8000A84206DB6FF004023F21EAA00BF055FCCF
:103B900003E000223F210BF09CF900222B21092099
:103BA0000BF011FB0022282105200BF00CFBE06933
:103BB000A84206DB6FF004022921DEA00BF03DFCD9
:103BC00003E0002229210BF084F9E069A84206DB1A
:103BD0006FF004022921D7A00BF02FFC03E0002294
:103BE00029210BF076F9206AA84206DB6FF0040267
:103BF0003C21D0A00BF021FC03E000223C210BF083
:103C000068F9606AA84206DB6FF004023E21C9A091
:103C10000BF013FC03E000223E210BF05AF96FF089
:103C2000030422465B21C5A00BF007FC2246242199
:103C3000C2A00BF002FC22462521C0A00BF0FDFB28
:103C400022465E21BDA00BF0F8FB22462621BBA038
:103C50000BF0F3FB58E1BC4EA2F5B850883802D106
:103C6000AFF2C83066E0A2F5B8507C3802D1AFF2AE
:103C7000BC305FE0A2F59050D83802D1AFF2B4303A
:103C800058E0A2F59050CC3802D1AFF2A83051E004
:103C9000A2F5B8507A3802D1AFF2A0304AE0A2F5CE
:103CA000B850753802D1AFF2943043E0624502D18A
:103CB000AFF288303EE0A2F59050C53802D1AFF2A5
:103CC0007C3037E0A2F51060783802D1AFF2743062
:103CD00030E0A2F510606C3802D1AFF2683029E014
:103CE000A2F59050E83802D1AFF2603022E0A2F5A0
:103CF000B8508E3801D195A01CE0A2F59050D43870
:103D000002D1AFF2483015E0A2F5B8507F3801D1AA
:103D100094A00FE0A2F51060923802D1AFF23430D7
:103D200008E0A2F51060793802D1AFF2283001E046
:103D3000AFF218300290AFF204300390AFF2F420EB
:103D400004908EA00590AFF2B4200690AFF2A420AC
:103D50000790904808903F1D02A80ECF50F825000C
:103D60000BF03CFBB6F904003546202805DA0022AA
:103D7000212180B20BF027FA05E04FF0FF3221211C
:103D80006BA00BF05AFBB5F906000D2805DA0022EE
:103D9000402180B20BF017FA05E04FF0FF324021CE
:103DA00063A00BF04AFBB5F90800642805DA00228D
:103DB000232180B20BF007FA05E04FF0FF322321F8
:103DC0005BA00BF03AFBD9F8180055464E46A842C6
:103DD00006DB6FF004023F2156A00BF02EFB03E040
:103DE00000223F210BF075F800222B214FF4617067
:103DF0000BF0E9F90022282105200BF0E4F9F06925
:103E0000A84206DB6FF0040229214AA00BF015FB43
:103E100003E0002229210BF05CF8306AA84206DB9F
:103E20006FF004023C2143A00BF007FB03E00022EB
:103E30003C210BF04EF8706AA84206DB6FF00402DA
:103E40003E213CA00BF0F9FA03E000223E210BF0EA
:103E500040F898F90400032803D198F801100929C3
:103E600013D098F90110A1B1012915D002291FD052
:103E7000032925D004292BD005292ED0062934D09A
:103E8000072938D0082939D03EE0434880F83C4023
:103E90003AE078BB142238E0022835DAC0F101009C
:103EA000C0B202225FF00C010BF0DAFA02F0C1BEE0
:103EB000022829DAC0F101000222C0B20F21F3E783
:103EC000022821DAC0F101000222C0B21221EBE780
:103ED000032819DAC0F1020012E0042814DAC0F154
:103EE00003000622C0B20321DEE704280CDAC0F189
:103EF000030005E008E0C0F1040001E0C0F10500A6
:103F00000A22C0B21146CFE7002200210846CBE7C3
:103F100022A0029027A003902CA0049031A005902D
:103F200036A006903BA0079040A0089045A095E0E1
:103F30002A2A00002A2A2A2A2A2A00002D2D2D2D7D
:103F40002D2D2D2D2D00000088000010202020C8D0
:103F5000C1DDCF3232302F36302D3330412020209A
:103F600000000000202020C8C1DDCF3232302F36C3
:103F7000302D31354120202000000000D3CAD3303D
:103F8000302B2E302820532F4E3030303030292027
:103F900000000000C8260000CE07082020D1F2E073
:103FA000EDE4E0F0F2EDFBE52020202020202020B1
:103FB0000000000020C2F0E5ECFF20E820E4E0F281
:103FC000E0202020202020200000000020D1F2F05E
:103FD000F3EAF2F3F0E0202020202020202020200F
:103FE0000000000020CCEDE5ECEEEDE8EAE020205A
:103FF00020202020202020790000000020CEF1ED9C
:10400000EEE2EDEEE920E8F1F2EEF7ED2E204E3C87
:104010000000000020C7E22EF1E8E3ED2E20202072
:1040200028202020202020200000000020CEF2EABE
:10403000EBFEF7E5EDE8E520F1E8E3EDE0EBE0206D
:10404000000000002020E0E2E0F0E8E8202020204E
:10405000292020202020202000000000099091A08D
:104060000A9096A00B909BA00C90A0A00D90A5A0EC
:104070000E90AAA00F90AFA01090B4A01190B9A07C
:104080001290BEA01390C3A01490C8A01590CDA00C
:104090001690D2A01790D7A01890DCA01990E1A09C
:1040A0001A90E6A01B90EBA01C90F0A01D90F5A02C
:1040B0001E90FA481F90FAA02090FFA02190022B9A
:1040C00002DD88F8046003E0A94201DA88F80410F0
:1040D00098F9044002A800EB8401D1E9012350F8CB
:1040E0002410FBA00BF07AF901200BF069FF98F97E
:1040F0000400112851DABBF84E000022401C3C217C
:104100005C4680B20BF05FF8B4F85E004FF000023E
:104110004FF0280110B1E1481F3801E0DF481A389C
:104120000BF08BF9B4F858004FF000024FF0290162
:1041300008B1EDA000E0EEA00BF07FF994F82200AA
:10414000552863D06FF003027921EBA00BF075F9CD
:1041500034F8500F0122212180B20BF034F860882E
:104160000122402180B20BF02EF8A08801222321E9
:1041700080B20BF028F8608901225E2180B20BF03A
:1041800022F8A0890022262180B20BF01CF8608B57
:1041900001223E2180B20BF016F80BF156040022EA
:1041A0002088242180B20BF00EF8608902226A2157
:1041B00080B20BF008F8A08903225B2180B20BF0DB
:1041C00002F8E08901225D2180B20AF0FCFF208A1A
:1041D00001227B2180B20AF0F6FF608A01224A2187
:1041E00080B20AF0F0FFE08A0022212180B20AF0BA
:1041F000EAFF608B0022712180B20AF0E4FFB4F97B
:104200001C0088B100225121FEF7AFBA6FF00702FF
:104210007921BBA00BF011F9BC4800227921B0F83C
:104220006A000AF0D0FF93E76FF001025121B8A0B5
:1042300002F05CBBB8A00290BDA00390C2A00490A5
:10424000C7A005909548069032B1A0F115029BF8E1
:104250001A0002AC44F82020A94202DA89F80410BE
:1042600003E0022B01DD89F8046098F9044002A8FC
:1042700000EB8401D1E9012350F82410BEA001F025
:1042800056BC9BF809005C46401CC0B28BF8090084
:104290000F2806D3002008F10108607208F0FF0122
:1042A00076E179E120C0CFC220E8F1F2EEF7EDE847
:1042B000EAEEE2202020202000000000205420EF21
:1042C000F0EEE2E5F0EAE8202020F6E5EFE8202035
:1042D0000000000020E1E0F2E0F0E5E820202020EE
:1042E0002071ECE8ED2E20200000000020556D61CB
:1042F000783D2020202020202021C22020202020A6
:10430000000000002055E130B03D2020202020207A
:104310002040C22020202020000000002055E13253
:1043200030B03D20202020202023C220202020202B
:10433000000000002055F1E8E3ED3D202020202082
:10434000205EC220202020200000000020556D6942
:104350006E2EF1E5F2E83D202026C220202020200C
:1043600000000000205530E13D20202020202020AA
:10437000203EC22020202020000000002049E1EA49
:104380002E3D202020202020206AC0202020202018
:10439000000000002049E72EECE0F52E3D20202013
:1043A000204AC020202020200000000020496D610C
:1043B000783D202020202020205D4120202020202A
:1043C00000000000204B696D61783D2020202020F6
:1043D000207B20202020202000000000204BE2FB3A
:1043E000F02EE7E0F02E3D202020205B2020202032
:1043F000000000002054E72EE2EAEB2EE02EF12E22
:104400002021F120202020200000000020746D6178
:10441000783D2020202020202024B0432020202070
:10442000000000002045746865726E6574202020CD
:1044300020202020202020200000000020C2EDE5C8
:10444000F8EDE8E520E4E0F2F7E8EAE820202020B3
:104450000000000020CFEEFDEBE5ECE5EDF2EDFB1A
:10446000E920EA2DEBFC2E200000000020E1E0F224
:10447000E0F0E5E8202020202020202020512520E9
:104480000000000020C0E2E0F0E8E9EDFBE520F0EC
:10449000E5EBE520202020200000000053A90100CA
:1044A00020CAE0EBE8E1F0EEE2EAE820202020205C
:1044B000202020200000000020D2E5F1F220202062
:1044C000202020202020202020202020000000006C
:1044D0002020202020D3D1D2C0CDCEC2CAC82020D7
:1044E0002020202000000000E0E2F2EEEC2E000090
:1044F000F0F3F7ED2E000000E2FBEAEB2E000000E7
:10450000F7E5F0E5E72079F12E00000088000010C3
:10451000C2DBCACB2E00000020C8C1DDCF32323052
:104520002F36302D3132C02D312F322000000000C7
:1045300020C8C1DDCF3232302F36302D3132C02D80
:10454000322F32200000000020C8C1DDCF323230CF
:104550002F34382D3132C02D312F32200000000091
:1045600020C8C1DDCF3232302F34382D3132C02D4A
:10457000322F322000000000D1D2C0CDC4C0D0D232
:10458000CDDBC520D3D1D22E2DCAC820000000001B
:104590002177032900D32077F1480290F148039056
:1045A000207F20B1012804D0022817D003E0EEA01C
:1045B00000E0F3A0049002ADF7A00ECD0AF00EFFCC
:1045C00099F9010060B101280FD0022812D0032808
:1045D00015D0042818D005281BD01EE0F4A0E9E768
:1045E000F9495E2081F82A0017E0F7495E2081F83A
:1045F0002D0012E0F4495E2081F830000DE0F24910
:104600005E2081F8330008E0EF495E2081F8360033
:1046100003E0ED495E2081F83A00EC4D28784FF038
:1046200000024FF026010AF0CEFD287900225E211B
:104630000AF0C9FD287A002225210AF0C4FD287B52
:1046400000223C210AF0BFFD297EC64800222A3004
:1046500000EB81003E210AF0F0FEA88B00227B21B6
:104660000AF0B1FD207D00287ED03A200AF041FBFF
:10467000D54C202525543A200AF03BFB255415E45F
:10468000D3A002909BF820005F46552807D0D6485B
:104690000390B448049005900690FC7614E097F8D7
:1046A00021005528D1A0039006D0CF480490AD48F2
:1046B00005900690022006E0D2A00490CA4805901A
:1046C000A84806900320F876A94202DA89F8041077
:1046D00003E0022B01DD89F8046099F9044002A887
:1046E00000EB8401D1E9012350F82410CBA00AF09B
:1046F00075FE01200BF064FC97F820004FF00002DB
:1047000055284FF021010CD09648401F0AF095FE25
:1047100097F821004FF0000255284FF0400103D0D8
:1047200088E090480A38F1E78E480A380AF085FE9A
:10473000C04800222321B0F8680065E5BEA00290C1
:10474000C3A00390C8A00490CDA00590D2A006906D
:1047500083483030079018300890D5A009908148E0
:1047600015300A90A94200E0EFE302DA89F804105C
:1047700003E0022B01DD89F8046099F9044002A8E6
:1047800000EB8401D1E9012350F82410CEA00AF0F7
:1047900025FE01200BF014FC387820B3012828D026
:1047A0006FF004022121CEA00AF047FE787830B3E2
:1047B00001282AD06FF004024021C9A00AF03DFE72
:1047C000B87840B301282CD06FF004022321C4A094
:1047D0000AF033FEF87850B301282ED06FF00402AF
:1047E0002821BFA024E55F4821216FF00202401F6D
:1047F000DAE75C4821216FF002020A38D4E7594811
:1048000040216FF00202401FD8E7564840216FF068
:1048100002020A38D2E7534823216FF00202401FF8
:10482000D6E7504823216FF002020A38D0E76FF034
:10483000020228214B48401FFAE46FF002022821AF
:104840009BE3A9A002908EA00390454830300490CD
:104850001830059096A00690424815300790A9425E
:1048600002DA89F8041003E0022B01DD89F8046004
:1048700099F9045002A800EB8501D1E9012350F811
:10488000251091A00AF0AAFD01200BF099FB3878C1
:1048900010B1012805D00AE0324800222821401F2B
:1048A00003E03048002228210A380AF0C6FD8BF8C0
:1048B0003240E4E6A94202DA89F8041003E0022B50
:1048C00001DD89F80460274B8DA2153392A198A0D1
:1048D0000AF084FD01200BF073FB387920B1012828
:1048E00007D003280AD00EE01E4800223C21401FBA
:1048F00007E01C4800223C210A3802E000223C214B
:1049000077A00AF09AFD4B4802223A21B0F97200D2
:1049100001F09ABCA94202DA89F8041003E0022BE4
:1049200001DD89F804600F4B87A215338CA192A09A
:104930000AF054FD01200BF043FB787920B10128E7
:104940000BD002280AD039E10022402190A00AF0C1
:1049500074FD3848A0F87CA030E11DE124E100009E
:10496000DC1C00003EA90100202020209A209C2071
:104970002D20E2FBE1EEF0202020202000000000AE
:10498000202020BF209D202D20F3F1F2E0EDEEE26B
:10499000EAE020200000000020D3D1D2C0CDCEC25A
:1049A000CAC02020C2D0C5CCC5CDC82000000000A0
:1049B0002020202020A420202D20E2FBF5EEE42062
:1049C0002020202000000000CE07082020400240C8
:1049D00020C0CFC22031E920F3F0EEE2E5EDFC206B
:1049E0002120202000000000C826000020C0CFC2E7
:1049F0002032E920F3F0EEE2E5EDFC20402020201B
:104A00000000000020CFE5F0E8EEE420C0CFC23285
:104A1000202020202023F72E00000000202020C08E
:104A2000CFC220C8D1D2CED7CDC8CACEC220202076
:104A3000000000008800001020D0E5EBE520E0E257
:104A40002EB931202020202020202021000000002D
:104A500020D0E5EBE520E0E22EB932202020202016
:104A6000202020400000000020D0E5EBE520E0E21F
:104A70002EB93320202020202020202300000000F9
:104A800020D0E5EBE520F1E0ECEEEAE0EBE8E1F048
:104A9000EEE2EAE80000000020D0E5EBE520E1E0EE
:104AA000F2E0F0E5E820202020202028000000008F
:104AB00020C1CFD1312BC1CFD132202020202020C6
:104AC0002020202000000000202020202020202066
:104AD000D2C5D1D22020202020202020000000009C
:104AE000D0C0C1CED72E000020D0E5EBE520E0E21B
:104AF000E0F0E8FF202020202820202000000000F7
:104B00002049E1E0F23D202020202020202020200C
:104B1000203A41200000000020D0E5EBE5202020D5
:104B20002020202020203C202020202000000000E9
:104B300020D2C5D1D220D1C0CCCECAC0CBC8C1D022
:104B4000CEC2CAC0000000002055313D20202020E8
:104B50003CC22049313D202020203EC00000000002
:104B60002055F03D402020242020202020F8E8EC93
:104B70003D202023000000002020202020D2C5D18D
:104B8000D220C1CFD13120202020202000000000E1
:104B9000556D696E0000000000224021F7A00AF068
:104BA0004CFC40F2CA3006E000224021F5A00AF099
:104BB00044FC45F25550F449A1F87C000022242120
:104BC000F2A00AF03AFCF0480122AC303C21008807
:104BD0000AF0F9FAEC480122B0303E2100880AF0D0
:104BE000F2FA00222321EB48BBE0A94202DA89F85D
:104BF000041003E0022B01DD89F80460E64BE7A214
:104C0000AFF2A401EBA00AF0E9FB01200BF0D8F908
:104C1000B87920B101280CD0022815D01EE000225E
:104C20004021AFF294000AF008FCD748A0F87EA01B
:104C300014E000224021D1A00AF0FFFBD24940F24B
:104C4000CA30A1F87E0009E000224021CDA00AF080
:104C5000F4FBCD4845F25551A0F87E1000222421E6
:104C6000CAA00AF0EAFBC8480122AC305B214088A8
:104C70000AF0A9FAC4480122B0305D2140880AF048
:104C8000A2FA002223216BE0D0A00290AFF24810DC
:104C90000390C2A00490C0480590A94202DA89F8A6
:104CA000041003E0022B01DD89F8046099F9045037
:104CB00002A800EB8501D1E9012350F82510C9A015
:104CC0000AF08CFB01200BF07BF9F87920B1012868
:104CD0000ED0022814D01EE000224021AFF2501066
:104CE0000AF0ABFBA848A0F87CA0A0F87EA012E0D8
:104CF00000224021A1A00AF0A0FB40F2CA3006E049
:104D0000002240219FA00AF098FB45F255509E4991
:104D10007C3108804880002224219CA00AF08DFB71
:104D2000994D0122AC353C2128880AF04CFA2E1D01
:104D3000012230883E210AF046FA964800222321BB
:104D4000008880B20AF03FFA688801225B210AF0ED
:104D50003AFA708801225D210AF035FA00222121F9
:104D6000A648008880B20AF02EFAA5480122242124
:104D7000008880B20AF027FA8BF833407FE4A1A0C4
:104D80000290A6A00390ABA00490B0A0059082482A
:104D90000690A94202DA89F8041003E0022B01DD33
:104DA00089F8046099F9041002A800EB8102121D31
:104DB00050F821100CCAABA00AF010FB01200BF038
:104DC000FFF80BF1740400226088212180B20AF000
:104DD000FAF920880022402180B20AF0F4F9A08874
:104DE0000022232180B20AF0EEF900222421E0887B
:104DF000A3E4A2A0029002A8A6A240F82720ABA29A
:104E0000CCF80420AFA2CCF80820B4A2CCF80C2037
:104E1000BBF97A40604A3C44A94240F8242000EBA8
:104E20008404B44A6260A2604A4601DA117102E069
:104E3000022B00DD167199F9041000EB8102121D9E
:104E400050F821100CCAACA078E3B1A00290B6A033
:104E50000390BBA00490C0A00590C5A00690CAA076
:104E60000790CFA008904C484C460990A94201DA1F
:104E7000217102E0012B00DD227194F9041002A8D7
:104E800000EB8102536850F82120CBA1D0A00AF09A
:104E9000A5FA02200BF094F894F902000022401CBD
:104EA00080B221210AF08FF994F90210CE48002235
:104EB00030F91100402109F0BDFFCB4994F90200FF
:104EC000303931F81010F1B36FF001022321AFF641
:104ED000D8100AF0B2FA00BF94F902003AF81010A4
:104EE00091B36FF001022421AFF6F4100AF0A5FA95
:104EF000BD4994F9020018396FF0010231F8100031
:104F00004FF05B01B0B3AFF6102000BF0AF095FA86
:104F1000B54994F9020012396FF0010231F810001E
:104F20004FF05D0138B3AFF6302000BF0AF085FACC
:104F3000AD4894F902100C386FF0010230F81100FE
:104F40004FF0280102E00CE050E1F8E2A0B1AFF62A
:104F5000582000BF0AF071FAA34994F90200891F92
:104F6000EBE1A14900222A3931F91000232109F08F
:104F700061FFB1E742E143E144E1E1E2556D61786F
:104F8000000000005532300088000010282020204A
:104F90002429000082C0072053A901002055323D7A
:104FA000202020205BC22049323D202020205DC0EF
:104FB000000000002020202020D2C5D1D220C1CF67
:104FC000D132202020202020000000002055F03D7C
:104FD00040202024202020202020202320202021A9
:104FE00000000000202020D2C5D1D220C1CFD13175
:104FF0002BC1CFD1322020200000000084C0072028
:1050000086C0072020C1E0F2E0F0E5E92020202062
:1050100020202020202020400000000020C8F1F2A5
:10502000EEF7EDE8EAEEE2202020202020202021EB
:105030000000000020C4E0F2F7E8EAEEE220F2E52A
:10504000ECEFE5F02E2020230000000020D1F3F546
:10505000E8F520EAEEEDF2E0EAF2EEE2202020248C
:1050600000000000202020202020D1D2D0D3CAD29E
:10507000D3D0C020202020200000000020C4E0F277
:10508000F7E8EA20F2E5ECEFE5F02E204E312020A3
:105090000000000020D1F3F5EEE920EAEEEDF2E0A9
:1050A000EAF2204E312020200000000020D1F3F54C
:1050B000EEE920EAEEEDF2E0EAF2204E3220202086
:1050C0000000000020D1F3F5EEE920EAEEEDF2E079
:1050D000EAF2204E332020200000000020D1F3F51A
:1050E000EEE920EAEEEDF2E0EAF2204E3420202054
:1050F00000000000781200002020C2CDC5D8CDC825
:10510000C520C4C0D2D7C8CAC820202000000000D3
:1051100020F2E5ECEFE5F0E0F2F3F0E020202020D3
:105120002040B0430000000020746D6178202020F2
:1051300020202020202020202023B0430000000039
:1051400020746D696E202020202020202020202027
:105150002024B0430000000020D0E5EBE520202013
:105160002020202020202020205B20200000000084
:1051700020C7E2F3EA202020202020202020202029
:10518000205D20200000000020C4E8F1EFEBE5E9FD
:105190002020202020202020202820200000000087
:1051A00020534E4D5020545241502020202020208A
:1051B0002029202000000000202020D2C5CCCFC50F
:1051C000D0C0D2D3D0DB204E212020200000000010
:1051D0002020C2CDC5D8CDC8C920C4C0D2D7C8CA26
:1051E000202020200000000088010010D549002266
:1051F00031F91000242109F01DFE79E6D2A085E6E0
:10520000D1A093E6D0A0A5E6CFA001F06FBBAFF68A
:105210001850FAE7CEA00290D3A00390D8A0049033
:10522000AFF2CC000590AFF2B8000690AFF2A80044
:105230000790AFF294000890D7484C460990A942D5
:1052400001DA217102E0022B00DD267194F90410CD
:1052500002A800EB8102121D50F821100CCACFA049
:105260000AF0BCF801200AF0ABFE94F9020000221B
:10527000401C80B2212109F0A6FFB24994F9020036
:105280002E394FF00002085C4FF04001FF285ED03D
:10529000C8A000BF0AF0D1F8AA4994F9020024314D
:1052A0004FF0000231F810004FF02301E0B3C1A02D
:1052B0000AF0C3F894F902003AF81010A9B36FF09D
:1052C00005022421AFF6D0500AF0B7F89D4994F9B1
:1052D00002002C316FF0010231F810004FF05B0139
:1052E00020B3AFF6EC5000BF0AF0A7F8954994F947
:1052F000020034316FF0010231F810004FF05D010F
:1053000088B3AFF60C6000BF0AF097F88D4894F9A7
:1053100002103C306FF0010230F811004FF028010C
:1053200030B3AFF62C6002E013E014E01CE00AF0AA
:1053300084F8844994F9020044316FF0010231F895
:1053400010004FF0290100287FF461AF5CE79BA0BB
:10535000A0E79AA0ACE77B49002231F91000242194
:1053600009F068FDB2E701E077A0BDE776A0CBE7E2
:1053700075A0D8E7884C4BAF493415CC15C791A020
:10538000029096A003909BA00490A0A00590A5A0D9
:105390000690AAA00790AFA00890B4A00990B9A069
:1053A0000A90BEA00B90C3A00C90C8A00D90CDA0F9
:1053B0000E90D2A00F90D7A01090DCA01190E1A089
:1053C0001290E6A01390EBA01490F0A01590F5A019
:1053D0005C4C1690F948E23C1790608B20B9F74876
:1053E0000390F748049005904F46A94201DA3971BD
:1053F00002E0022B00DD3E7197F9041002A800EBD9
:105400008102121D50F821100CCAEEA009F0E6FF2F
:1054100001200AF0D5FD608B20B16FF0020221213E
:10542000EEA004E06FF003022121AFF61C700AF039
:1054300004F8A08B20B16FF002024021E7A004E045
:105440006FF003024021AFF6387009F0F6FF79786B
:105450002320022945D00021CDE90001B4F92430F0
:10546000B4F92220B4F92010B4F91E0009F009FEA5
:1054700079782420042938D05FF00001CDE90001BB
:10548000B4F92C30B4F92A20B4F92810B4F9260064
:1054900009F0F7FD7978292006292AD05FF000016C
:1054A000CDE90001B4F96030B4F95E20B4F95C10C4
:1054B000B4F95A0009F0E5FDB4F8560000225B216A
:1054C00080B209F080FEB4F8580000225D2180B25D
:1054D00009F079FEB4F92E006FF00D05FF280CD00D
:1054E00014E0B978491CC9B2B6E7B978491CC9B209
:1054F000C4E7B978491CC9B2D2E7218EFF2905D18A
:10550000618EFF2902D1A18EFF2914D07A7825213E
:105510000B2A11D05FF00002CDE90012B4F934304B
:10552000B4F93220B4F9301009F0ABFDB4F936000B
:10553000FF2802D069E155E15AE15DE13CE247E331
:10554000CFE200006A010010E2EAEB2E000000004A
:1055500020F2E5EAF3F92EF1EEF1F22E20402020C0
:10556000202020200000000020E0E2E0F0E8E9ED4B
:10557000EEE520F1EEF1F2EEFFEDE8E500000000CF
:105580002020202020202020202D2023202020200B
:10559000202020200000000053A901002020D1D3AA
:1055A000D5CEC920CACECDD2C0CAD2204E2120200D
:1055B00000000000EDE5E7E0ECEA2E00E7E0ECEAB1
:1055C000EDF3F2002045746865726E65742020204A
:1055D00020202020202021200000000020444843DB
:1055E00050EAEBE8E5EDF2202020202020204020AA
:1055F00000000000204950E0E4F0E5F120202020E8
:1056000020202020202020200000000020203030FA
:10561000302E3030302E3030302E303023202020CD
:105620000000000020CCE0F1EAE020EFEEE4F1E53C
:10563000F2E8202020202020000000002020303030
:10564000302E3030302E3030302E3030242020209C
:105650000000000020D8EBFEE720202020202020A2
:10566000202020202020202000000000202030309A
:10567000302E3030302E3030302E30302920202067
:105680000000000020CFEEF0F22EF7F2E5EDE8FF8B
:10569000202020202020205B0000000020CFEEF002
:1056A000F22EE7E0EFE8F1E8202020202020205D26
:1056B0000000000020436F6D6D756E697479203CA9
:1056C00020202020202020200000000020C0E4F026
:1056D000E5F1E0F220E4EBFF2054524150204E313E
:1056E0000000000020203030302E3030302E30309E
:1056F000302E3030252020200000000020C0E4F0B3
:10570000E5F1E0F220E4EBFF2054524150204E320C
:105710000000000020203030302E3030302E30306D
:10572000302E30305E2020200000000020C0E4F049
:10573000E5F1E0F220E4EBFF2054524150204E33DB
:105740000000000020203030302E3030302E30303D
:10575000302E3030262020200000000020C0E4F051
:10576000E5F1E0F220E4EBFF2054524150204E34AA
:105770000000000020203030302E3030302E30300D
:10578000302E30302A2020200000000020C0E4F01D
:10579000E5F1E0F220E4EBFF2054524150204E3579
:1057A0000000000020203030302E3030302E3030DD
:1057B000302E30302820202000000000C8260000B5
:1057C0007812000020D3D1D2C0CDCEC2CAC82045A5
:1057D000746865726E65742000000000C2CACB2E2A
:1057E000000000002A462521FAA009F026FE9DE6C9
:1057F000BA78521CD2B28FE6218FFF2905D1618F72
:10580000FF2902D1A18FFF2913D079780D2916D055
:1058100000225E21CDE90012B4F93C30B4F93A20FF
:10582000B4F9381009F02DFCB4F93E00FF280DD072
:1058300018E02A465E21E7A009F0FFFDF4E7B978F9
:10584000491CC9B25E22CDE90021E5E7B4F8401059
:10585000FF2907D1B4F84210FF2903D1B4F844104E
:10586000FF2914D07A7826210F2A16D05FF0000283
:10587000CDE90012B4F94430B4F94220B4F9401033
:1058800009F0FFFBB4F94600FF280AD015E02A46CC
:105890002621D0A009F0D1FDF4E7BA78521CD2B28B
:1058A000E6E7B4F84810FF2907D1B4F84A10FF29F9
:1058B00003D1B4F84C10FF2913D07A782A21112A89
:1058C00015D00022CDE90012B4F94C30B4F94A20C9
:1058D000B4F9481009F0D5FBB4F94E00FF280AD0FE
:1058E00015E02A462A21BBA009F0A7FDF4E7BA7803
:1058F000521CD2B2E6E7B4F85010FF2907D1B4F831
:105900005210FF2903D1B4F85410FF2925D07A781A
:105910002821132A27D00022CDE90012B4F95430EF
:10592000B4F95220B4F9501009F0ABFBAE4A002094
:105930004BA9135C0B54401CC0B20928F9D30020BA
:105940008DF835017878BA780A2810D000233C21E8
:105950004BA809F079FB01F06CB92A4628219DA0DB
:1059600009F06BFDE2E7BA78521CD2B2D4E701230A
:10597000EDE79EA00290A3A00390A8A00490ADA084
:1059800005904846BEF11E0F03D14F9A0AB1AF4AA7
:105990000592AF4A0692A94201DA017102E0022B98
:1059A00000DD067199F9041002A800EB8102121DB6
:1059B00050F821100CCAA7A0B9E0ACA00290B1A089
:1059C0000390B6A00490BBA00590C0A00690C5A00F
:1059D0000790CAA00890CFA00990D4A00A909C4834
:1059E0004C460B90A94201DA217102E0022B00DD46
:1059F000267194F9045002A800EB8501D1E9012336
:105A000050F82510CFA009F0E9FC01200AF0D8FADF
:105A100094F902000022401C80B2212109F0D3FB3E
:105A200094F90200CD4D6FF002024FF0400135F8BD
:105A30001000C00702D086481F3801E084481A3899
:105A400009F0FBFC94F902006FF002024FF0230111
:105A500035F81000800702D57D481F3801E07C48EA
:105A60001A3809F0EAFC94F902006FF002024FF0D4
:105A7000240135F81000400702D575481F3801E0B1
:105A800073481A3809F0D9FC94F902006FF0020249
:105A90004FF0260135F81000000702D56C481F387A
:105AA00001E06B481A3809F0C8FC94F902006FF065
:105AB00002024FF0250135F81000C00602D56448F7
:105AC0001F3801E062481A3809F0B7FC94F9020067
:105AD0006FF002024FF05E0135F8100080067EF58F
