:020000040000FA
:10000000781C0820C5010000C9010000CB010000D8
:10001000CD010000CF010000D10100000000000070
:10002000000000000000000000000000D3010000FC
:10003000D501000000000000D70100007BAF0000E8
:10004000DB010000DB010000DB010000DB01000040
:10005000DB010000A3460100DB0100008D2F010041
:10006000DB010000DB010000DB010000DB01000020
:10007000DB010000DB010000DB010000DB01000010
:10008000DB010000DB010000DB010000DB01000000
:10009000DB010000DB010000DB010000DB010000F0
:1000A000DB0100008D2C0100DB010000DB01000002
:1000B000D9510100DB010000DB010000DB01000081
:1000C000DB01000000F002F800F06DF80AA090E8F3
:1000D000000C82448344AAF10107DA4501D100F003
:1000E00062F8AFF2090EBAE80F0013F0010F18BF63
:1000F000FB1A43F00103184704E5030044E503003D
:100100000A444FF0000C10F8013B13F0070408BF3D
:1001100010F8014B1D1108BF10F8015B641E05D0DB
:1001200010F8016B641E01F8016BF9D113F0080F90
:100130001EBF10F8014BAD1C0C1B09D16D1E58BF22
:1001400001F801CBFAD505E014F8016B01F8016B59
:100150006D1EF9D59142D6D37047000000230024CC
:1001600000250026103A28BF78C1FBD8520728BFC7
:1001700030C148BF0B607047642916F07984732939
:1001800016F0AF86002070471FB51AF025FD16F057
:1001900097FF0400002000211AF008FD401C606059
:1001A0001FBD10B510BD16F066FF1146FFF7ECFF3E
:1001B0000AF068FF16F098FF03B4FFF7F2FF03BCE4
:1001C00016F09CFF08480047FEE7FEE7FEE7FEE763
:1001D000FEE7FEE7FEE7FEE7FEE7FEE70348044929
:1001E000024A044B70470000C5000000781A08203E
:1001F000781C0820781A0820FEE710B518F0C8FB14
:1002000018F054FC18F046FC18F0D4FBAFF3008053
:10021000BDE8104018F010BC10B519F021FA1AF022
:1002200091F819F075FABDE8104019F0EDBB19F01E
:1002300035B918F0FDBE09B10020704717F052BC67
:100240000020704790F900308B4200DA027090F97C
:100250000030934200DD0170704790F900308B420E
:1002600000DA017090F90010914200DD02707047D1
:10027000B0F900308B4200DA0180B0F900109142F1
:1002800000DD02807047B0F900308B4200DA028056
:10029000B0F90030934200DD0180704703688B4263
:1002A00000DA02600368934200DD016070470000DD
:1002B0000FB41CB5084B06AA7B446946009005980C
:1002C00016F0E5FD04460020694616F0F3FD2046D1
:1002D0001CBC5DF814FB0000F96B010070B506460C
:1002E00016F070FD0468054630460A22002116F01B
:1002F000FCFD2C6070BD704770477047FFFFFFFF2B
:1003000030B54E482021C0F8A01100BFD0F8A01190
:100310004906FBD500F180000322C0F8842048493B
:10032000C0F828114FF00001C0F82C114FF0010364
:10033000C0F88C30434C446003604FF0AA03C360A4
:100340004FF05504C460A0F1800000BFD0F8885081
:100350006D01FBD540F8802FC360C460C0F88810E1
:10036000394A4264C0F848118168A0F180006FEA00
:1003700011618A073549D0F80C2102F0030207D039
:1003800092B3012A46D0022A4AD0032A51D13BE037
:100390002AB1012A11D0022A27D0032A49D150F8C4
:1003A000882FC2F30E02521C53000268C2F30742A8
:1003B000521CB3FBF2F2264B0CE050F8882FC2F32C
:1003C0000E02521C53000268C2F30742521CB3FBD8
:1003D000F2F2204B5A43C36FA0F18800DBB203F165
:1003E0000103B2FBF3F223E00EE050F8882FC2F3D2
:1003F0000E02521C53000268C2F30742521CB3FBA8
:10040000F2F24FF4FA43E5E7D0F80421104BD2B2F0
:10041000521C0BE0D0F804210E4BD2B2521C05E066
:10042000D0F804214FF4FA43D2B2521CB3FBF2F2DB
:100430000A6043F23A01016030BD000000C00F4085
:10044000000002084F00030048F100410CC00720E3
:1004500000093D008096980010B54FF4027011F02D
:10046000C5F8FB4C207040F20A2011F0BFF8607014
:100470004FF4037011F0BAF8A07040F20E2011F0A2
:10048000B5F8E0704FF4047011F0B0F8207240F24B
:10049000122011F0ABF860724FF4057011F0A6F85D
:1004A000A07240F2162011F0A1F8E0724FF4117022
:1004B00011F09CF8207140F2462011F097F860711D
:1004C0004FF4127011F092F8A07140F24A2011F02E
:1004D0008DF8E07110BD002801DA404200B270478B
:1004E000DC4AD16CD36C5B1A8342FBD37047DA4988
:1004F000112008727047D948C16941F44021C16197
:10050000C16941F44011C161D5480021C1604FF477
:100510004061C164022141614FF47A7282614FF4FB
:100520004872026242620122026541600921416013
:1005300070472DE9F04F0020CA4A85B04FF4F4719E
:1005400004461454401C00B28842FADBC648817E3F
:1005500071B100214FF0140C7A2301FB03F001EB81
:1005600081039B0001EB81041BB20CEB84045BE272
:10057000804690F826004FF00205C0074FF00306B2
:100580001BD098F81700002816D0B8483227CDE9BC
:100590000204CDE90076032118233A46084610F0FC
:1005A000CCF9B348CDE90204CDE900760321182344
:1005B0003222084610F0C1F9B8E0B8F97A00DFF845
:1005C0009492DFF8B0A20F27DFF8ACB2A9F10409CA
:1005D000012853DB1423002100941A460846019495
:1005E00010F0EFF81223012100941A4608460194F6
:1005F00010F0E7F899F8000010F03C0F0BD0C1069E
:1006000011D598F81700F0B10F23CDE902A402210B
:100610001A46032013E09948CDE902040F23022172
:100620001A4603200BE010F00C0F0CD098F81700BE
:1006300048B10F23CDE902B402211A460846CDE99C
:10064000007510F07AF98E48406DC00716D10B2363
:1006500000221421092000940FF098FE00235B2251
:100660001F21092000940FF091FE98F80500042343
:100670001330C1B20022092010F0E0F8B8F97A0076
:10068000022853DB142300941A46002117200194FA
:1006900010F097F8122300941A46012118200194B3
:1006A00010F08FF899F8010010F03C0F0BD0C10644
:1006B00011D598F81700F0B10F23CDE902A402215B
:1006C0001A46192013E06F48CDE902040F230221D6
:1006D0001A4619200BE010F00C0F0CD098F81700F8
:1006E00048B10F23CDE902B402211A461920CDE901
:1006F000007510F022F96248406D800716D40B2374
:1007000000221421202000940FF040FE00234422F8
:100710001F21202000940FF039FE98F805000423D3
:100720001330C1B20022202010F088F8B8F8780009
:10073000C1464FF00A0B4FF0010800282CD000945E
:100740001423232200213220019410F03AF800945F
:100750000223032214213520019410F032F8009472
:100760000223032214214F20019410F02AF899F853
:1007700026004F46800710D599F8170000280BD0A7
:1007800032213B48CDE90016CDE902040A46182380
:1007900000212B2010F0D1F88DE00B230022142132
:1007A000422000940FF0F2FD002322221F2142205C
:1007B00000940FF0EBFDDFF89CA0AAF1800ABAF9D3
:1007C0007800002805DA7879042300221330C1B2BA
:1007D00005E078790423C0F12200C1B20222422050
:1007E00010F02CF8387A1E287ED2BAF90010A1F544
:1007F000AA42553A78D097F92700052190FBF1F0ED
:10080000ADF81000B9461422002104A8FFF730FD0E
:10081000CDE900844746BDF9103020220021332065
:100820000FF0CFFF99F927000A282FDACDE90075DC
:1008300009230C2205213D200FF0C3FF99F9270061
:1008400002238DE8910005210FA23D20039730E09F
:10085000DC5B0010080100100040024000C00240B4
:10086000008001406208082008000010EDAC010083
:1008700083AD010055AE010073AE010019AE010059
:1008800000C0092037AE01002025000064284FF089
:1008900009035FDACDE90075122205213A200FF035
:1008A00090FF99F9270003238DE8B100FEA20521EE
:1008B0003A2010F06EF800940E231B2202215C20D7
:1008C00001940FF07EFF00231A1F08215C20009482
:1008D0000FF05CFD002304220821762000940FF025
:1008E00055FD0023272200E044E01F21432000940F
:1008F0000FF04CFD6FF00F0300221F2169200094C0
:100900000FF044FD99F807004D46C0F12200C1B236
:100910000423022269200FF091FFE44947468846EC
:10092000B1F9021000910420CDE901700523E0A285
:1009300016214620039710F02CF8B8F9000064281F
:1009400025DACDE9000704230521DBA25D20CDE9EE
:10095000026725E0CDE900751822052137200FF048
:1009600030FF99F9270004238DE8D1000521D4A296
:1009700037209EE7BAF97810CDE9026891FBFBF0C9
:1009800001B2CDE900180423CBA2052190E790FB2A
:10099000FBF000B28DE8D1000423C7A205215A2044
:1009A0000FF0F7FF2879401CC0B2287103281CD330
:1009B0002C716879401CC0B268710D2800D36C712D
:1009C000A879401CC0B2A871202800D3AC71E87986
:1009D000401CC0B2E871112800D3EC71287A401C89
:1009E000C0B22872282800D32C7205B0BDE8F08F61
:1009F000B54DB64FED5C05EB450517F8156016547F
:100A000007EB4505401C6E781654401CAE78165412
:100A1000401CEE781654401C2E791654401C6D79FB
:100A20001554401C5B1C1BB29C42E1DC491C09B202
:100A30000429FFF691ADD8E72DE9F04FA44ADBB0C9
:100A4000052112780020012491460DF1A808052AFD
:100A500003D0B9F1210F02D005E09EA000E0A3A0D1
:100A60002A9001200621A74D95F826C05FEACC7296
:100A700008D0A5A248F8202000F1010001F10101F1
:100A8000C0B2C9B25FEA8C7208D5A5A248F820208E
:100A900000F1010001F10101C0B2C9B25FEA0C62CC
:100AA00006D5A5A248F82020401C491CC0B2C9B2F6
:100AB0007E4A121F137813F01C0F06D0A4A348F827
:100AC0002030401C491CC0B2C9B2784A121F52786B
:100AD00012F01C0F06D0A4A248F82020401C491C8C
:100AE000C0B2C9B2714A133213786D32012BB2F918
:100AF000002002D0022B03D00AE04AB9A0A201E0F4
:100B000032B9A5A248F82020401C491CC0B2C9B285
:100B1000664A19321378552B0AD102F199031B88C2
:100B200033B9A3A348F82030401C491CC0B2C9B255
:100B30005378552B0AD15D4BB2335B8833B9A2A3EE
:100B400048F82030401C491CC0B2C9B29378552BDC
:100B50000AD1564BB2339B8833B9A1A348F8203051
:100B6000401C491CC0B2C9B2D278552A0AD14F4A9A
:100B7000B232D28832B9A0A248F82020401C491CC9
:100B8000C0B2C9B2A24A137833B1A2A348F8203048
:100B9000401C491CC0B2C9B2537833B1A3A348F872
:100BA0002030401C491CC0B2C9B2927822B1A5A223
:100BB000491C48F82020C9B2AA7AAA46521CD2B2CF
:100BC0002846AA72142A09D300228272437A5B1C37
:100BD000DBB243728B4201D38AF80920334E0DF108
:100BE000080B50363246307892F9045092F90110D1
:100BF0000BEB85072A2854D0002853D0414A4FF0E8
:100C00006408B646D27D5892A6F1D0020428B2F903
:100C1000082092FBF8F35293334693F901300BEB23
:100C2000830640D0214BF0465033052893F902301B
:100C30009E4601F0E3811D4B503393F9046093F914
:100C400001309B1B062801F07F84122801F00285E9
:100C5000022801F01485154E50367678B61E76B20D
:100C60000D2801F02E85152801F04885112801F086
:100C70005285162801F07285422801F085854528A5
:100C800001F0E887C146462802F0558041F2887C91
:100C900041F27C78352802F0BB85372803F042808A
:100CA000DCE077E1FEE3FEE32020250008010010F0
:100CB00020202020420000002020204100000000D1
:100CC00020202025000000009A07082091AE010096
:100CD00063C0072020C2FBF0E0E2ED2EE7E0F0FF6A
:100CE000E420207A3A305A20000000002020CAEE8A
:100CF000EDF2F0EEEBFC20E5ECEAEEF1F2E820207C
:100D00000000000008000010202020C0E2E0F0E811
:100D1000FF20F1E5F2E82121212020200000000041
:100D200020C0E2E0F0E8FF20E1E0F2E0F0E5E821B9
:100D3000212120200000000020C0F1E8ECECE5F2C9
:100D4000F0E8FF20C0CAC1212121202000000000BE
:100D500020C0E2E0F0E8FF20E8F1F2EEF7EDE8EA8B
:100D6000E0204E310000000020C0E2E0F0E8FF206B
:100D7000E8F1F2EEF7EDE8EAE0204E320000000084
:100D8000C2EDE5F82EF2E5ECEF2E4E31E7E0E2FBA6
:100D9000F8E5EDE000000000C2EDE5F82EF2E5EC2C
:100DA000EF2E4E31E7E0EDE8E6E5EDE00000000073
:100DB00020202020C0E2E0F0E8FF20D1CA20B93195
:100DC000202020200000000020202020C0E2E0F0B1
:100DD000E8FF20D1CA20B9322020202000000000E6
:100DE00020202020C0E2E0F0E8FF20D1CA20B93363
:100DF000202020200000000020202020C0E2E0F081
:100E0000E8FF20D1CA20B9342020202000000000B3
:100E1000A3C0072020C0E2E0F0E8FF20EFF0E5E407
:100E2000EEF5F02E20B931200000000020C0E2E0F5
:100E3000F0E8FF20EFF0E5E4EEF5F02E20B93220E7
:100E40000000000020C0E2E0F0E8FF20EFF0E5E461
:100E5000EEF5F02E20B9332000000000032803F047
:100E6000C180FF4A2628927D559203F07283FC4A86
:100E7000292892F81F8003F091831B2803F0168421
:100E8000F84F492803F07284202803F0F0842128C9
:100E900003F03A86222803F06786232803F0B18600
:100EA000242803F0F786182803F06987B2F97C70CC
:100EB0003F280BEB870C03F09C8702F5A872527851
:100EC000521E52B2402803F0C187412804F0EE813F
:100ED000472804F09C824A2804F099854B2804F0A6
:100EE000B985282804F04C860B2804F04E861D286E
:100EF00004F06F864D2805F0C0801C2805F0F180B5
:100F0000C8461F2805F09A811E2805F0B9813828A7
:100F100005F0EA81D24F2B2897F8227005F01B824A
:100F20002C2805F05183CE4EDFF83893B6F94E6089
:100F3000A9F14A093746761EB44609F10106392857
:100F400005F06B833A2805F083833B2805F037844E
:100F50003C2805F058843D2805F0078545463E2885
:100F600005F0CE85082805F08B860928FBD01328CC
:100F7000F9D01428F7D03628F5D01A28F3D00A284B
:100F800005F0A3862D2805F0A5864C2805F0A98636
:100F900005F0BCBEC9B101297DD0B34C02297BD07C
:100FA00003297AD0042979D0052978D00629EFD0F1
:100FB000072975D0082974D0092973D00A2972D05D
:100FC0000B2971D00C2970D0E2E7A8A3A7A2A7A192
:100FD000A6A00EF0A3FB0023022219460AF1180472
:100FE0009AF818000EF0A9F9608E00230222012160
:100FF00080B20EF0A2F9E08D02220023114680B2E9
:101000000EF09BF99F48002307220088194680B202
:101010000EF093F99C48002307220088012180B23A
:101020000EF08BF99948002307220088022180B234
:101030000EF083F98A48002380300722B0F876004A
:10104000032180B20EF079F9914800230A22194653
:1010500000780EF072F98F4800230A2201210078EF
:101060000EF06BF98C4800230A22022100780EF062
:1010700064F98A4C00231322207819460EF05DF99A
:1010800060780023132201210EF057F90023132268
:10109000A07802210AE01CE05FE0C0E040E17EE1D0
:1010A0008BE1D4E1D9E113E203E3EDE30EF045F97E
:1010B0007B4C00231122208819460EF03EF96088EF
:1010C0000023112201210EF038F90023A0881122FB
:1010D00063E1744B74A11A4678A00EF01FFB7D48A3
:1010E000002304220088194680B20EF026F97A48BF
:1010F00000231A4690F90000012180B20EF01DF97C
:10110000674C01231E3C0E22208800210EF015F9A9
:10111000012360880E2219460EF00FF9241D0123C9
:101120002088132200210EF008F901236088132281
:1011300019460EF002F9403C0A22207800210EF0F8
:101140005FFA60780A2201210EF05AFA0023012288
:101150000221BAF87A0005F0D6BD44A343A243A108
:1011600042A00EF0DBFA00232088042219460EF07C
:10117000E4F860880023042201210EF0DEF8A08844
:101180000023042202210EF0D8F8E0880023042274
:1011900003210EF0D2F800232089092219460EF00F
:1011A000CCF860890023092201210EF0C6F8A0893D
:1011B0000023092202210EF0C0F8E0890023092251
:1011C00003210EF0BAF80023208A0E2219460EF0F1
:1011D000B4F8608A00230E2201210EF0AEF8A08A36
:1011E00000230E2202210EF0A8F8E08A00230E222E
:1011F00003210EF0A2F80023208B132219460EF0D3
:101200009CF8608B0023132201210EF096F8A08B2E
:101210000023132202210EF090F8E08B45E213A385
:1012200012A212A111A00EF079FA0023208C042240
:1012300019460EF082F8608C0023042201210EF082
:101240007CF8A08C0023042202210EF076F8E08CBA
:101250000023042203210EF070F8208D00233DE0CE
:1012600008000010AC0C08203407082020202020A3
:10127000202020202020202020202020202020206E
:10128000000000008EC007208AC0072090C0072001
:1012900074C0072075C0072076C00720A9C00720AA
:1012A0005E0100107EAC01002020202020202020A4
:1012B000202020202020202020202000322020203C
:1012C000202020202020202020202020202020201E
:1012D0000000000078C007206CC0072009221946D2
:1012E0000EF02BF8608D0023092201210EF025F865
:1012F000A08D0023092202210EF01FF8E08D0023AB
:10130000092203210EF019F80023208E0E2219461F
:101310000EF013F800230E22608E012105F0F4BCBC
:10132000AFF2B803AFF2BC02AFF2C001FAA00EF008
:10133000F5F9FF4C00230322208801210DF0FDFF69
:1013400060880023032202210DF0F7FF0322A0880A
:10135000002311460DF0F1FF0023E0880822194612
:101360000DF0EBFF20890023082201210DF0E5FF9D
:1013700060890023082202210DF0DFFF0023A089ED
:101380000D2219460DF0D9FFE08900230D2201211D
:101390000DF0D3FF208A00230D220221BEE7E5A332
:1013A000EAA2F0A1F5A00EF0B9F9FA48012228212D
:1013B000008880B20EF0A7F805E0DEA3E3A2E9A161
:1013C000F5A00EF0ABF9FA4800222121008880B286
:1013D0000EF099F8F74800224021008880B20EF004
:1013E00092F8F54C0122232120880EF08CF86088B9
:1013F000012224210EF087F8241D012220882521B6
:101400000EF081F8608801225E210EF07CF8BC3C71
:101410000122B4F876003C2180B20EF074F802226A
:101420003E21B4F978000DF0A5FE7C340D22207821
:1014300003210EF0E5F86078132203210EF0E0F8A6
:10144000052203219AF826000EF0DAF8A0E5DB4B1E
:101450001A461146084605F041BCAFF2F013AFF250
:10146000F412AFF2F811AFF2FC100EF057F9D248B7
:1014700000232B380122007819460DF05EFFCE487C
:10148000012228380023007811460DF056FFCA4883
:10149000002325380122007802210DF04EFFC648B6
:1014A0002A3001E089E2A2E30023008805221946E0
:1014B0000DF043FFC048002354300522008801216D
:1014C0000DF03BFFBC48002336300522008864E75E
:1014D000AFF26823AFF26C22AFF27021B8A00EF029
:1014E0001DF996F902000023401C80B20322194620
:1014F0000DF023FF96F90200B74CC0EBC00000EBE3
:10150000400004EB40000023408C062219460DF0F9
:1015100014FF96F902000023C0EBC00000EB40006E
:1015200004EB40000E22808819460DF006FF96F964
:1015300002000023C0EBC00000EB400004EB4000C1
:101540001322C08819460DF0F8FE96F90200002318
:10155000C0EBC00000EB4000042234F81000012171
:101560000DF0EBFE96F902000023C0EBC00000EB8B
:10157000400004EB40000922408801210DF0DDFE0F
:1015800096F902000023C0EBC00000EB400004EB22
:1015900040000E22008901210DF0CFFE96F90200D5
:1015A0000023C0EBC00000EB400004EB400013221E
:1015B000008A01210DF0C1FE96F902000023C0EB64
:1015C000C00000EB400004EB4000042240890221EF
:1015D0000DF0B3FE96F902000023C0EBC00000EB53
:1015E000400004EB40000922808902210DF0A5FE95
:1015F00096F902000023C0EBC00000EB400004EBB2
:1016000040000E22C08902210DF097FE96F90200DB
:101610000023C0EBC00000EB400004EB40001322AD
:10162000408A02210DF089FE96F902000023C0EBEA
:10163000C00000EB400004EB40000422808A03213C
:101640000DF07BFE96F902000023C0EBC00000EB1A
:10165000400004EB40000922C08A03210DF06DFE1A
:1016600096F902000023C0EBC00000EB400004EB41
:1016700040000E22008B03210DF05FFE96F9020060
:101680000023C0EBC00000EB400004EB4000102240
:10169000C08B03210DF051FE96F90200C0EBC00093
:1016A00000EB400004EB4000008C002313220321D8
:1016B00034E64AA002904FA0039054A0049059A091
:1016C00005905EA0069063A0079068A03F1D08905B
:1016D0000ECF5BF825000EF021F837480222B8380B
:1016E0003F21B0F978000DF045FD664D686D002290
:1016F00000F0010024210DF006FF2F4C23213C3C7B
:1017000020780DF06BFF686D0022C0F3400040218F
:101710000DF0F9FE6078B8E043414E2020202020F3
:101720002020202020202020202020200000000039
:10173000B60C082053742020202020205374312020
:1017400020205374322020200000000049E1202096
:1017500020203E2049312020202549322020205EB3
:101760000000000055E1202020203C2055312020A1
:10177000202355322020202400000000556E202018
:1017800020202820D83120202021D832202020409D
:10179000000000008AC00720706C20202020282034
:1017A000D83120202021D832202020400000000005
:1017B00086C0072088C00720400100107EAC0100D1
:1017C0004C422020202020202020202020202020CB
:1017D0002020202000000000E00E082020202020F3
:1017E0003F202020202020202024202320402021B2
:1017F0000000000020202020202020202020202069
:101800002020204A2020206A0000000020202020E4
:101810002020202020202020202020592020207936
:1018200000000000202020682020206D20202020A3
:1018300020512071205A207A0000000020202073BF
:10184000202020532020202020202043202020441E
:10185000000000002020206620202046202020209C
:101860002020206320202064000000002020202071
:1018700020202020202020202041206120422062A2
:101880000000000000C009206BE021210DF0A6FE41
:101890003C34002220884A210DF035FE6088002269
:1018A0006A210DF030FEDB4C0022592120780DF02A
:1018B0002AFE6078002279210DF025FED64C002208
:1018C0006821206880B20DF01EFED44800226D21F0
:1018D000006880B20DF017FED14E002251213088F1
:1018E0000DF011FECF4D0022712128880DF00BFE66
:1018F000708800225A210DF006FE688800227A21A5
:101900000DF001FEC84D0022412128780DF0FBFDAD
:10191000C64E0022612130780DF0F5FD6878002276
:1019200042210DF0F0FD7078002262210DF0EBFDF8
:101930002068002280B243210DF0E5FD606800229E
:1019400080B244210DF0DFFDB94C002263212068F4
:1019500080B20DF0D8FD6068002280B2642105F0ED
:101960008CB9B44B1A46114608460DF0D7FEB24C5E
:1019700020784FF000034FF0060219460DF0DDFC11
:101980000023062201219AF821000DF0D6FCB42094
:101990000FF02CFE80B20023062202210DF0CDFCB8
:1019A000A0880023102219460DF0C7FCB6200FF0C6
:1019B0001DFE002380B21022EFE4A0A00290A548F3
:1019C000B0F90020B0F90200C82A05DDC82801DD01
:1019D000A1A00CE0A6A00AE0C82801DDAAA006E0AC
:1019E0009C48B838B0F97600C82801DDACA0029058
:1019F000B1A00390B6A00490BBA00590C0A04890F1
:101A0000C5A04990CAA04A90CFA04B90D4A04C90BA
:101A1000D9A0904A4D90DEA05A324E90137848A833
:101A200050F823300693537850F823300793937877
:101A300050F823300893D37850F823300993137962
:101A400050F823300A93537950F823300B9392794E
:101A5000D5A350F822007F4A0C90B83AB2F906207C
:101A60000BEB82021361D6A35361DBA39361E0A366
:101A7000D361E5A31362EAA35362EFA39362F4A3D5
:101A8000D362F9A313636B4B1533536331B16A1AF5
:101A9000022A01DD891C01E0A94200DD317196F9BD
:101AA00004109AF809500BEB810000F10400052D99
:101AB0000EC801D2029803E008EB850050F8140C20
:101AC0000DF02CFE96F90400A0B196F9011089B131
:101AD000884203D1EA4880F83C400BE0401A0128D4
:101AE00002D0022804D005E0E54880F8284001E053
:101AF000E3480475E34C0A250122B4F908006C217F
:101B000090FBF5F080B20DF0FEFCB4F90A00F0B3E2
:101B100090FBF5F000B2012240210DF02BFB4D4C63
:101B20000122383C2321608880B20DF0ECFC208833
:101B30000122242180B20DF0E6FCD34C20784FF036
:101B400000024FF026010DF0DEFC207900225E211C
:101B50000DF0D9FC207A002225210DF0D4FC207B49
:101B600000223C210DF0CFFC217E324800222A3099
:101B700000EB81003E210DF000FEA08B00227B21B6
:101B80000DF0C1FC9AF8170078B13A2000E029E086
:101B90000DF04FFABA4D20242C543A200DF049FA9A
:101BA0002C543A200DF045FA2C54B84C4FF4616196
:101BB00000222068B0FBF1F080B27A210DF0A3FC86
:101BC00021683C20B1FBF0F1B1FBF0F200FB1210F8
:101BD00000225A210DF097FC002304221946AC483C
:101BE00005F090B8B4F90C00C0F1000090E7BAF825
:101BF0007800554658B15FEA8C7009D5589800288E
:101C00003FF425AC0B4BA3A2A8A1AEA023E465E151
:101C100069E1000082C00720C0C007201802001040
:101C2000B4C00720B0C00720D8C00720DAC0072002
:101C3000C8C007207EAC0100384002402020CDE51E
:101C4000EEEFF0E5E4E5EBE5EDEDEEF1F2FC202062
:101C5000000000004001001020C220F0E0E1EEF2A0
:101C6000E520C1CFD1312CC1CFD1322000000000FE
:101C700020202020C220F0E0E1EEF2E520C1CFD10B
:101C8000312020200000000020202020C220F0E091
:101C9000E1EEF2E520C1CFD132202020000000008B
:101CA0002020D0E0E1EEF2E020EEF220E1E0F2E0F0
:101CB000F0E5E820000000002055E13D2020206CE8
:101CC000C22049E13D2020202040C020000000002B
:101CD0002055ED3D20202023C22049ED3D2020202D
:101CE0002024C020000000002030253A305E3A3029
:101CF0002620303C2F3E20202F307B20000000008B
:101D000020C1E0F2E0F0E5FF204E3120202020202D
:101D1000202020200000000020C1E0F2E0F0E5FFDC
:101D2000204E3220202020202020202000000000F3
:101D300020C1E0F2E0F0E5FF204E332020202020FB
:101D4000202020200000000020C1E0F2E0F0E5FFAC
:101D5000204E3420202020202020202000000000C1
:101D600020C1E0F2E0F0E5FF204E352020202020C9
:101D7000202020200000000020C1E0F2E0F0E5FF7C
:101D8000204E36202020202020202020000000008F
:101D900020C1E0F2E0F0E5FF204E37202020202097
:101DA000202020200000000020C1CFD131202020A1
:101DB00020202020202020202020202000000000A3
:101DC00020C1CFD132202020202020202020202000
:101DD000202020200000000020CDE0E3F0F3E7EA1F
:101DE000E0202020202020202020202000000000B3
:101DF00020D1E5F2FC2020202020202020202020BF
:101E0000202020200000000020D1EFE5F6F4F3EDC3
:101E1000EAF6E8E820202020202020200000000012
:101E200020C6F3F0EDE0EB20F1EEE1FBF2E8E92073
:101E3000202020200000000020C1E0F2E0F0E5E9D1
:101E4000EDFBE920E6F3F0EDE0EB202000000000E0
:101E500020D3F1F2E0EDEEE2EAE82020202020207D
:101E6000202020200000000020D1E1F0EEF120E051
:101E7000E2E0F0E8E92020202020202000000000FF
:101E80009A070820E00E082020400240B8C0072032
:101E90008AC0072020202020EDE520EFEEE4EAEBC9
:101EA000FEF7E5EDE020202020200000202020206B
:101EB000202020C1E0F2E0F0E5FF202020202020BB
:101EC0002020000020202020202020C0C2C0D0C818
:101ED000DF21212020202020202000009BA3A1A280
:101EE000A6A1ACA092E6B1A00290B648007850B18D
:101EF000B5A00390BAA00590BFA0049095F8280063
:101F000028B1C3A004E0C8A00390CDA0F3E7D2A0FD
:101F10000690D7A00790DCA00890E1A00990E6A069
:101F20000A90EBA00B90F0A00C90F5A00D905298A9
:101F3000F94F3028F948C1462DD00E90361DF04695
:101F40000ECE9AA00DF0EAFBB7F8760001224021F0
:101F500080B20DF0D8FA02222121B7F978000DF0F5
:101F600009F9B7F874000022242180B20DF0CBFAF1
:101F700095F927000022772180B20DF0C4FAB7F955
:101F80000000A0F5AA41553907D14A1E5121E4A00D
:101F90000DF0F3FB06E00D90D0E70122512180B255
:101FA0000DF0B1FAB7F9081091FBF9F0302803D120
:101FB00098F80110082905D03C2806D198F80100AE
:101FC000092802D1D84880F83C40D84C01225B2136
:101FD00020880DF098FA608801225D210DF093FAB7
:101FE000A08801227B210DF08EFAE08801227D215C
:101FF0000DF089FA012220892921B0E403EB430185
:1020000001EB0310C9492A3101EB800090F83D0033
:10201000C00710D05898F8B1C04B153BAFF28C12E6
:10202000C3A1C9A00DF07AFB98F902000022401C60
:1020300080B2232193E4CEEBCE00C94D00EB4000EB
:1020400005EB4000818C69B1589828B1B34BC5A20B
:10205000153BCAA1CFA0E5E7B04B153B1A46114688
:102060000846DFE7B0F90A00002803DD6EA0039000
:10207000CEA002E054A00390D2A00590D7A0049077
:10208000DCA00690E1A00790E6A00890EBA00990E4
:10209000F0A00A90F5A00B90A0480C90D6E901237F
:1020A000F8A1FEA00DF03AFB98F902000022401CB6
:1020B00080B240210DF027FA98F902000A26C0EB01
:1020C000C00000EB400005EB40000122B0F9080021
:1020D000242190FBF6F080B20DF015FA98F9020079
:1020E000C0EBC00000EB400005EB4001B1F90A0075
:1020F000002801DCB1F90C00022223210DF03AF88E
:1021000098F902000022C0EBC00000EB400005EB94
:1021100040003F21B0F904000DF02CF898F90200BE
:102120000022C0EBC00000EB400005EB400077212F
:10213000408A0DF0E8F998F90200C0EBC00000EB0E
:10214000400005EB4000B0F90E10B3E1E220E1E001
:10215000F2E0F0E5E9EDEEEC20E6F3F0EDE0EBE5A2
:10216000000000002020202020E2E2E5E4E8F2E583
:1021700020E5B820202020200000000020CFF0E83B
:102180002020EDE5EEE1F5EEE4E8ECEEF1F2E820FA
:102190000000000020C1C0D2C0D0C5DF20CDC520C6
:1021A000C2C2C5C4C5CDC020000000002020202030
:1021B0002020C1C0D2C0D0C5DF2020202020202078
:1021C0000000000072C00720202020F0E0E7F0FFB0
:1021D000E6E0E5F2F1FF20202020202000000000B2
:1021E00020202049F0E0E7F03D2020202021C020E1
:1021F000202020200000000020202055E1E0F23DBA
:10220000202020202040C22020202020000000008C
:1022100020202020C4D22E20EDE5E8F1EFF0E0E20E
:10222000E5ED20200000000020202020E7E0F0FF66
:10223000E6E0E5F2F1FF2020202020200000000051
:1022400020202049E7E0F03D202020202021C02050
:10225000202020200000000020202074E1E0F22057
:102260003D20202024B0432020202020000000001A
:10227000202020C7E0F0FFE43D202020207725200B
:10228000202020200000000020202043E1E0F23D3B
:10229000202020202051C02AF7202020000000000C
:1022A00020202055FD31203D20202020205BC22011
:1022B000202020200000000020202055FD32203D5D
:1022C00020202020205DC2202020202000000000AF
:1022D00020202055FD33203D20202020207BC220BF
:1022E000202020200000000020202055FD34203D2B
:1022F00020202020207DC22020202020000000005F
:1023000020202055FD35203D202020202029C220DE
:1023100020202020000000008800001093AC010065
:102320002D2D2D2D2D2D00009A070820A20C082000
:102330002020202020C1E0F2E0F0E5FF20B923209A
:10234000202020202020000020202020202020C02D
:10235000C2C0D0C8DF212020202020202020000063
:10236000E00E0820202020202020202020202020D7
:10237000202020202020202020200000202020209D
:1023800020EDE520EFE5F0E5E4E0FEF2F1FF2020AE
:10239000202000002020D1E8E3EDE0EBFB20F2E577
:1023A000EBE5ECE5F2F0E8E8202000002049E7E06A
:1023B000F03D2020202020202023C020202020208D
:1023C000000000002049F0E0E7F03D202020202020
:1023D0002023C02020202020000000002055E1E024
:1023E000F2203D2020202024C22020202020202058
:1023F000000000002074E1E0F2203D202020203F7A
:10240000B0432020202020200000000020534F4314
:1024100020203D2020202077252020202020202043
:10242000000000002043E1E0F2203D202020205168
:10243000C02AF720202020200000000020534F4811
:1024400020203D202020203E25202020202020204C
:102450000000000020496D6178203D202020203CB4
:102460004120202020202020000000002052425443
:1024700020203D202020205BF7202020202020202D
:102480000000000020202031207820475946503499
:102490003837352020202020000000002020202078
:1024A000C1C0D2C0D0C5DF204E4020202020202037
:1024B00000000000B0F91000012241434FF47A708F
:1024C00091FBF0F080B251210DF01DF898F8010059
:1024D000082802D1BD4880F83C4098F9020001224A
:1024E000C0EBC00000EB400005EB40005121C0896B
:1024F0000DF009F898F902000122C0EBC00000EBD2
:10250000400005EB40003C21B0F9140090FBF6F0D0
:1025100080B20CF0F8FF98F902000022C0EBC00076
:1025200000EB400005EB40003E21008A0CF0EBFF81
:1025300098F902000122C0EBC00000EB400005EB5F
:1025400040005B21C08A58E5A1484646BEF1000F15
:10255000406D05D0C0F34000BEF1010F03D006E08E
:1025600000F0010003E0BAF87A20012A02D048B155
:1025700098A008E0A3A20292A8A20392AD4A9BA051
:10258000049229E0ACA05FEACC7201D0B0A212E0C4
:10259000B54A12F80E20D70601D5B4A20BE01707F2
:1025A00001D5B8A207E0570701D5BCA203E012F09D
:1025B0003C0F01D1BFA20292C4A2AB4F0392C9A2A9
:1025C000BF1C049217F80E200AB1CCA200E0D1A2E1
:1025D0000592984A15320692002B01DCA94200DAD6
:1025E000317196F904500BEB8502121D5BF8251032
:1025F0000CCA0DF093F896F902000022401C80B23C
:1026000021210CF080FF984896F902103C300122FD
:1026100030F8110040210CF076FF934896F9021033
:102620004030012230F8110023210CF06CFF8E485D
:1026300096F902103830002230F8110024210CF0F5
:1026400062FF7078022844F06183604880F83C4063
:1026500004F05CBBB5A3BBA2C0A1C6A00DF05EF8A0
:102660005A480122212180F83C407F4C241D60887B
:1026700080B20CF048FF0122402103F033BE5546E2
:102680005FEACC7019D0589808B1C0A000E0694842
:10269000A6A3C3A2C8A102900DF040F84B4805F1D3
:1026A0004805002280F83C40A888232180B20CF025
:1026B0002AFF01224021288801E0C5A0E8E780B276
:1026C0009BE4C9A00290CEA00390D3A004905948E7
:1026D00015300590022B02DD88F8046003E0A94262
:1026E00001DA88F8041098F90440D1A00BEB8401BA
:1026F000D1E901235BF8241003F065BAB9F1210F89
:1027000007D0D1A04B4B0146029003F11502D4A093
:10271000F2E7D9A0F6E7DE480290DEA0039031B1DF
:10272000012908D002290AD003290CD00FE0DFA02C
:102730000290E4A00AE0E9A00290EEA006E0F3A077
:102740000290F8A002E0F1A00290FCA003900346E2
:10275000D0A1CF48029A04F0C1BA00BFB9F1050F69
:1027600010D0B9A0334B024602901533F9A1FFA057
:102770000CF0D4FF01200DF0C3FD00222121BAF896
:1027800072009CE7BCA0EDE7F8A3F8A2F7A1F7A0C0
:102790000CF0C4FF04218AF81E109AF821100129B8
:1027A0000FD002290ED003290DD006290CD00C29F8
:1027B0000BD0F4A11F4802918AF81E4015300390F7
:1027C000ECE1FFE100E20BE20CE20DE29A070820E7
:1027D00000C0092020202020C1CFD12120C2DBCA87
:1027E000CBDED7C5CD2020200000000020202020F7
:1027F00020202020C1CFD1322020202020202020C6
:102800000000000020202020CED2D1D3D2D1D2C2CD
:10281000D3C5D22020202020000000002020C2208C
:10282000D1D2D0D3CAD2D3D0C520C8C1DDCF2020C9
:10283000000000007EAC010020202020C1CFD1216B
:1028400020C2CACBDED7C5CD20202020000000004A
:1028500020E0E2E0F0E8FF20F1E5F2E8202020208F
:1028600020202020000000000401001020E0E2E011
:10287000F0E8FF20EFE5F0E5E3F0E5E2202020209E
:102880000000000020E0E2E0F0E8FF2055E2FBF568
:102890003C55ECE8ED2020200000000020E0E2E0C4
:1028A000F0E8FF2055E2FBF53E55ECE0EAF1202090
:1028B0000000000020F1EEF1F2EEFFEDE8E5202D42
:1028C00020EDEEF0ECE02020000000002055E8F1C3
:1028D000F2203D2020202040C22020202020202047
:1028E000000000002049E8F1F2203D2020202023B4
:1028F000C0202020202020200000000020C4D22062
:10290000EDE5E8F1EFF0E0E2E5ED202020202020E9
:10291000000000002074E8F1F2203D20202024B0C7
:1029200043202020202020200000000020C2FBF5B2
:10293000EEE4202020202020202020202020202005
:10294000000000002049EDE0E3F03D2020202020A1
:102950002020404120202020000000002055EDE0F4
:10296000E3F03D2020202020202021C22020202014
:1029700000000000202020202020CDC0C3D0D3C7DD
:10298000CAC020202020202000000000202020C0DD
:10299000C2C0D0C8DF20D1C5D2C82121212020004B
:1029A0002046F1E5F2E83D2020202020202040C3F1
:1029B000F6202020000000002055F1E5F2E83D203F
:1029C00020202020202023C22020202000000000E2
:1029D00020202020202020D1C5D2DC202020202033
:1029E000202020200000000020CAEEEDF2F0EEEBE7
:1029F000FC20E5ECEAEEF1F2E820202000000000E7
:102A000020C2FBF0E0E2EDE8E2E0FEF9E8E920E7D1
:102A1000E0F0FFE40000000020C0E2F22EE2FBF054
:102A2000E0E2EDE8E22E20E7E0F0FFE40000000045
:102A300020202020D1CFC5D6D4D3CDCAD6C8C82017
:102A4000202020200000000020C2FBEAEBFEF7E57A
:102A5000ED20202020202020202020200000000029
:102A60002020CACECDD2D0CECBDC20C5CCCACED190
:102A7000D2C820200000000020C2EAEBFEF7E5EDFE
:102A800020202020202020202020202000000000C6
:102A9000EC0C0000202020EDE5E2EEE7ECEEE6E5B0
:102AA000ED212121202020200000000020202020D6
:102AB000CEF2F1F3F2F1F2E2F3E5F2202020202051
:102AC00000000000202020202020E1E0F2E0F0E5DE
:102AD000FF20202020202020000000002020202097
:102AE000202020C0E2E0F0E8FF202020202020204D
:102AF000000000002020202020202020F1E5F2E826
:102B00002020202020202020000000002020202045
:102B10002020C1E0F2E0F0E5FF202020202020204E
:102B20000000000020202020F0E0E7F0FFE6E0E5D4
:102B3000F2F1FF2020202020000000002020202093
:102B400020E7E0F0FFE6E0E5F2F1FF202020202082
:102B50000000000020E4EBE8F2E5EBFCEDEEF1F222
:102B6000FC202D202021F72E0000000020C2DBD009
:102B7000C0C2CDC8C2C0DED9C8C920C7C0D0DFC45A
:102B80000000000020E2FBEAEBFEF7E5ED2020204C
:102B900020202020202020200000000098F9041090
:102BA000E3A00BEB810253685BF82120DAA10CF063
:102BB000B5FD98F9010098F90410884216DA88F8F2
:102BC000040019E0E0A000E0E5A00290EAA0039074
:102BD000EFA00490AFF6F0600590F3480690EFE5A3
:102BE000F2A0F2E7F7A0F0E7FCA0EEE7411A012916
:102BF00002DD411E88F80410022801D188F8040083
:102C000002200DF07DFBFB4C00222521608A0CF098
:102C10007AFC00225E21A08A0CF075FC002226219D
:102C2000E08A0CF070FC00223C21208B0CF06BFC45
:102C3000DD48618B153000EB810000223E210CF055
:102C40009CFD00227B21A08B0CF05DFC0022282142
:102C5000E08B78E440F602600EF0C8FC01B250460A
:102C6000AAF84E10402902DD0021A0F84E10BAF952
:102C70004E0070B1012811D0022819D044DD98F916
:102C8000011098F9042091422BDA00BF88F8041053
:102C90002CE0C54BC44A153BD7A102E0C24ADCA3D5
:102CA000E1A1E7A00CF03AFD002088F804002BE039
:102CB00098F9010098F90410884202DA88F80400B3
:102CC00004E0411A022901DD801EF7E798F90400AB
:102CD00010B1012802D017E0B34B10E0CCA3B24AE8
:102CE0000EE08A1A022A01DD891ECFE798F9041046
:102CF000421E9142F2D0801E8142EDD0D6A3DCA2CA
:102D0000C9A1CFA00CF00AFD01200DF0F9FA98F846
:102D1000040028210CF0DDFD98F804005B21401C24
:102D2000C0B20CF0D6FD98F804007B21801CC0B224
:102D30000CF0CFFD8CE49C4B153B1A46114608461F
:102D40000CF0ECFC4FF460600EF050FC99F90210AE
:102D50004D464A42402100B20CF0CDFC400100F546
:102D6000806086B251A930460EF0BDFC56A9301DD8
:102D70000EF0B9FC694606F108000EF0B4FC01A99A
:102D800006F10C000EF0AFFC4FA906F110000EF09A
:102D9000AAFC50A906F114000EF0A5FC57A906F1F3
:102DA00018000EF0A0FC9DF84401552808D05028CA
:102DB00043D042287DD053287CD046287BD047E49E
:102DC0009DF846015228B5D1AFA3B5A2BAA1C0A0C3
:102DD0000CF0A4FC9DF80400002240210CF093FBB1
:102DE0009DF80500002223210CF08DFB9DF80600C4
:102DF000002224210CF087FB9DF8020000222521EF
:102E00000CF081FB9DF8000000225E210CF07BFBA2
:102E10009DF80100401E0C2801D38DF80140624846
:102E20009DF80110153000EB8100002228210CF0E4
:102E3000A4FC0020AAF84E000AE49DF846014128AF
:102E4000BDD1A948029090A003909DF83C01412873
:102E500003D19DF83D0141284FD001220021281DBA
:102E6000FDF7FBF9A1A00490A6A00590ABA00690E9
:102E700095F904500BEB8501091D5BF825000EC97F
:102E80000CF04CFC9DF8400100223E210CF03BFB75
:102E90009DF8410100223D210CF035FB9DF84201D7
:102EA000002229210CF02FFB00229DF83E015B211E
:102EB00002E063E1A6E23FE30CF025FB9DF83C0154
:102EC00000223C210CF01FFB9DF83D01401E0C2808
:102ED00001D38DF83D4134489DF83D11153000EB8C
:102EE000810000225D210CF048FC9DF85C019DF8FA
:102EF0005D1100EB012080B269E18EA0049093A0E7
:102F000002AD0346059007CD0CF008FCBAF84C0062
:102F100000222B2180B210E3C2DBD0C0C2CDC8C2D8
:102F2000C0DED9C8C920C7C0D0DFC420000000005F
:102F3000202020C0C2D2CECCC0D2C8D7C5D1CAC8EA
:102F4000C92020200000000020F0E0E720E220EC73
:102F5000E5F1FFF6202020202020202000000000A6
:102F600020F0E0E720E2203220ECE5F1FFF6E0205F
:102F7000202020200000000020E4EBE8F2E5EBFC3C
:102F8000EDEEF1F2FC20202028F72E2000000000BA
:102F900020EEF7E5F0E5E4EDEEE520E2EAEBFEF702
:102FA000E5EDE8E50000000093AC010020F0E0E76B
:102FB00020E2203320ECE5F1FFF6E0202020202065
:102FC0000000000020F0E0E720E220EFEEEBE3EE6F
:102FD000E4E02020202020200000000020F0E0E796
:102FE00020E220E3EEE420202020202020202020CA
:102FF000000000008800001020C6F3F0EDE0EB2098
:10300000EFF3F1F2202020202020202000000000FB
:1030100020CEF7E8F1F2E8F2FC20E6F3F0EDE0EB89
:103020002020202000000000202820202020202018
:103030002020202020202020202020200000000010
:10304000202020C6D3D0CDC0CB20D1CEC1DBD2C86A
:10305000C920202000000000207B202020202020EC
:1030600020202020202020202020202000000000E0
:10307000205B202020202020202020202020202015
:103080002020202000000000202030252820203093
:103090005E2030403A30233A3024202000000000E7
:1030A0002020202020202020C8C1DDCF202020206B
:1030B0002020202000000000202020E8EBE820E273
:1030C000EAEBFEF7E5EDE8E5202020200000000017
:1030D00020202020CFE5F0E5E7E0E3F0F3E7EAE0A9
:1030E0002020202000000000080D000020202020CB
:1030F0002020F3F1F2F0E0EDE5EDE02020202020AB
:10310000000000002020305B5D2020303C20303E5D
:103110003A303D3A302920200000000020202020B5
:103120002055ECE8ED3D20202BC22020202020203F
:103130000000000020202020EDE520F3F1F2F0E077
:10314000EDE5EDE0202020200000000020202020E0
:103150002055F1E5F2E83D20202BC2202020202040
:10316000000000009DF80110F448002200EB8100EF
:1031700028210CF002FBAAF84E40DBE59DF8460141
:10318000432809D0532825D05A2834D0052657285B
:103190007DD04B287CD0CDE5AFF2C0600290E8A096
:1031A0001CE0AFF2700078E001220021281DFDF73D
:1031B00054F8AFF2C8000590AFF2B80031E000BF9C
:1031C0008DF83D415BE000BF9DF84501401C0022A9
:1031D0002B21F4E2AFF2FC600290DFA00390AFF28B
:1031E000581004909DF83C014128DDD19DF83D0127
:1031F0004128D9D1D5E7DEA00290E3A00390E8A052
:1032000004909DF83C01412803D19DF83D014128DF
:1032100042D001220021281DFDF71FF8E6A00590ED
:10322000EBA0069095F904500BEB8501091D5BF8A6
:1032300025000EC90CF072FA9DF8400100223E21D3
:103240000CF061F99DF8410100223D210CF05BF981
:103250009DF84201002229210CF055F99DF83E010C
:1032600000225B210CF04FF99DF83C0100223C212B
:103270000CF049F99DF83D01401E0C28A0D29DF8A4
:103280003D11AE48002200EB81005D2101E00BE022
:1032900042E00CF072FA97E7D3A002AD0346059026
:1032A00007CD0CF03BFA8FE7D5A00290DAA003908F
:1032B000DFA00490BAA00590E3A00690E8A00790D4
:1032C000EDA00890F2A00990F7A036E08DF801403B
:1032D00068E000BF9DF83D01002205EB80007721EA
:1032E0000CF04BFABDF8580101227A210CF00BF9D1
:1032F0009DF803009DF80710012200EB012080B229
:103300003C210CF000F9BDF85A0101223E210CF0DD
:10331000FAF8AAF84E600DE5E9480290BEA00390C5
:10332000C3A004909EA00590E6A00690CCA00790B4
:10333000D1A00890E9A00990EEA00A9095F9047038
:103340000BEB8700001D0EC85BF827000CF0E6F9B8
:103350009DF845010022401C21210CF0D4F89DF875
:103360000400002240210CF0CEF89DF80500002258
:1033700023210CF0C8F89DF80600002224210CF04F
:10338000C2F89DF80200002225210CF0BCF89DF83F
:10339000000000225E210CF0B6F89DF80100401EEE
:1033A0000C2893D29DF80100644D002205EB8000AB
:1033B00028210CF0E2F99DF84001002269210CF06F
:1033C000A2F89DF8410100226C210CF09CF89DF8B8
:1033D0004201002273210CF096F89DF83E01002274
:1033E00071210CF090F89DF83C01002272210CF044
:1033F0008AF89DF83D01401E0C28FFF46BAF8DF854
:103400003D4167E7C1A002909DF846014C2806D0D7
:10341000542806D0552806D0752806D007E0C1A04C
:1034200004E0C6A002E0CBA000E0D0A00390AFF281
:10343000A83004909DF83C01412803D19DF83D013E
:10344000412878D001220021281DFCF706FFAFF2A9
:1034500064300590AFF25430069095F904500BEBB0
:103460008501091D5BF825000EC90CF057F99DF880
:10347000400100223E210CF046F89DF84101002257
:103480003D210CF040F89DF84201002229210CF06A
:103490003AF89DF83E0100225B210CF034F89DF8CB
:1034A0003C0100223C210CF02EF89DF83D01401E0D
:1034B0000C2801D38DF83D419DF83D111F48002295
:1034C00000EB81005D210CF058F900BF9DF845012B
:1034D0000022401C2B210CF016F89DF8040000225D
:1034E00040210CF010F89DF80500002223210CF07B
:1034F0000AF89DF80600002224210CF004F89DF83B
:103500000200002225210BF0FEFF9DF800000022A2
:103510005E210BF0F8FF9DF80100401E0C2801D33E
:103520008DF801409DF801100448002200EB810055
:10353000282103F010BA25E12DE140E1A8AC0100FB
:10354000202020202020E1E0F2E0F0E5E82020200B
:10355000202020200000000020E0F1E8ECECE5F263
:10356000F0E8FF20E1E0F2E0F0E5E82000000000F4
:10357000202020C2FBF0E0E2EDE8E2E0FEF9E8E91D
:10358000202020200000000020202020202020E7F4
:10359000E0F0FFE420202020202020200000000078
:1035A0002030252F2820202F305E2030403A302335
:1035B0003A30242000000000202020202020E7E0D6
:1035C000E2E5F0F8E5ED20202020202000000000BA
:1035D00020305B2F5D20202F303C20303E3A303DA4
:1035E0003A3029200000000020202020EDE520E7CF
:1035F000E0E2E5F0F8E5ED202020202000000000CA
:1036000020202020202020D0E0E7F0FFE420202010
:10361000202020200000000020202020202020E169
:10362000E0F2E0F0E5E8202020202020000000006B
:1036300020CDE0F7E0EBEE202020202020202020ED
:1036400020202020000000002020202020202020FA
:10365000202055E1E0F23D20203CC2200000000087
:1036600020CAEEEDE5F6202020202020202020207A
:1036700020202020000000002030712F7720202FF4
:1036800030722030693A306C3A307320000000000C
:103690002020202020202020202055E1E0F23D2085
:1036A000203EC2200000000020202020CEF2E4E0D6
:1036B000EDEE202020207AE02AF72E2000000000E6
:1036C000EC0C000020202020202020202055E1E0CC
:1036D000F23D20203CC220200000000020202020BD
:1036E000202020202055E1E0F23D20203EC2202075
:1036F0000000000020A8ECEAEEF1F2FC20202020DF
:10370000207AE02AF72E202000000000202020C090
:10371000E2E0F0E8FF20C1CFD1204E2B2020202076
:10372000000000002020202020EEF2EAEBFEF7E867
:10373000EBF1FF202020202000000000202020208E
:103740002020EFE5F0E5E3F0E5E220202020202036
:1037500000000000202020E7E0E2FBF8E5EDEE208D
:1037600055E2FBF52E20202000000000202020E75D
:10377000E0EDE8E6E5EDEE2055E2FBF52E20202019
:1037800000000000AFF2546002AD0346059007CD83
:103790000BF0C4FF9AE6AFF6BC400290AFA00390D6
:1037A000AFF21C700490B34802AD0346059007CDFC
:1037B0000BF0B4FF9DF845010022401C21210BF0C5
:1037C000A2FE9DF80400002240210BF09CFE9DF813
:1037D0000500002223210BF096FE9DF80600002232
:1037E00024210BF090FE9DF80200002225210BF011
:1037F0008AFE9DF8000000225E210BF084FE9DF8F9
:103800000100401E0C28FFF4ADAC8DF80140A9E486
:10381000624501D198A05CE0424501D19CA058E0EE
:10382000A2F59050D83801D19FA052E0A2F5905057
:10383000CC3801D1A2A04CE0A2F5B8507A3801D121
:10384000A5A046E0A2F5B850753801D1A8A040E087
:10385000A2F59050CA3801D1ABA03AE0A2F5905041
:10386000C53801D1AEA034E040F67810824201D1D3
:10387000B1A02EE040F66C118A4201D1B4A028E03C
:10388000A2F59053E83B01D1B7A022E0A2F5B853CE
:10389000983B01D1BAA01CE0A2F59053D43B01D1D2
:1038A000BDA016E0A2F5B853843B01D1C0A010E042
:1038B000A2F51063923B01D1C3A00AE0A2F5106308
:1038C000793B01D1C6A004E08242D1D08A42D5D052
:1038D000C9A00290CEA00390D3A00490D8A00590D8
:1038E000DDA00690E2A00790E7A00890ECA0099068
:1038F000F1A00A90F6A00B90FBA00C90AFF6D4704C
:103900003F1D0D900ECF4E465BF825000BF006FFD5
:103910003079082802D1FA4880F83C40F94CB4F9D3
:103920000A00202805DA0022212180B20BF0EBFDED
:1039300005E04FF0FF322121F3A00BF01EFFB4F998
:103940000C000D2805DA0022402180B20BF0DBFDCF
:1039500005E04FF0FF324021EBA00BF00EFFB4F971
:103960000E00642805DA0022232180B20BF0CBFD83
:1039700005E04FF0FF322321E3A00BF0FEFEE14C07
:10398000E24D8034606AA84206DB6FF004023F21FA
:10399000DFA00BF0F2FE03E000223F210BF039FC28
:1039A00000222B2109200BF0AEFD0022282105204A
:1039B0000BF0A9FDA06AA84206DB6FF004022921E2
:1039C000D3A00BF0DAFE03E0002229210BF021FC4A
:1039D000A06AA84206DB6FF004022921CCA00BF0FC
:1039E000CCFE03E0002229210BF013FCE06AA84280
:1039F00006DB6FF004023C21C5A00BF0BEFE03E025
:103A000000223C210BF005FC206BA84206DB6FF086
:103A100004023E21BEA00BF0B0FE03E000223E21D6
:103A20000BF0F7FB6FF0030422465B21BAA00BF00A
:103A3000A4FE22462421B8A00BF09FFE2246252199
:103A4000B5A00BF09AFE22465E21B3A00BF095FEC6
:103A500022462621B0A00BF090FEBFE220EFF0E559
:103A6000E4EEF5F0E0EDE8F2E5EBFF20B9212020EF
:103A7000000000006C120000202020C8C1DDCF3201
:103A800032302F36302D323441202020000000000B
:103A9000202020C8C1DDCF3232302F36302D3132D8
:103AA0004120202000000000202020C8C1DDCF32AE
:103AB00032302F34382D32344120202000000000D5
:103AC000202020C8C1DDCF3232302F34382D3132A2
:103AD0004120202000000000202020C8C1DDCF327E
:103AE00032302F36302D31304120202000000000B0
:103AF000202020C8C1DDCF3232302F36302D354165
:103B00002020202000000000202020C8C1DDCF326E
:103B100032302F34382D3130412020200000000079
:103B2000202020C8C1DDCF3232302F34382D35412E
:103B30002020202000000000202020C8C1DDCF323E
:103B400032302F32342D323441202020000000004A
:103B5000202020C8C1DDCF3232302F32342D313217
:103B60004120202000000000202020C8C1DDCF32ED
:103B700032302F34382D3430412020200000000016
:103B8000202020C8C1DDCF3232302F36302D3430E6
:103B90004120202000000000202020C8C1DDCF32BD
:103BA00032302F34382D32304120202000000000E8
:103BB000202020C8C1DDCF3232302F36302D3230B8
:103BC0004120202000000000202020C8C1DDCF328D
:103BD00032302F32342D35304120202000000000BB
:103BE000202020C8C1DDCF3232302F32342D323583
:103BF0004120202000000000202020D2E8EF20ED0E
:103C0000E5E8E7E2E5F1F2E5ED2020200000000024
:103C1000C4E0F2E020E8E7E3EEF22E2030212F307E
:103C2000402F302300000000F8E0F1F1E8202020D0
:103C30002020532F4E30303030303F200000000025
:103C4000D3CAD33230322E2B2820532F4E3030306F
:103C50003030292000000000CFCE2020202020205E
:103C6000202076202020205B202020200000000043
:103C7000C1CFD131202D20202020532F4E30303085
:103C800030303C2000000000C1CFD132202D202058
:103C90002020532F4E30303030303E2000000000C6
:103CA000525332333220202020202076202020241E
:103CB000202020200000000043414E205044482096
:103CC0002D2020762020202520202020000000000C
:103CD00043414E20534448202D2020762020205E52
:103CE000202020200000000045746865726E657415
:103CF0002D202076202020262020202000000000DB
:103D00009A070820880000102A2A000040420F006D
:103D10002A2A2A2A2A2A00002D2D2D2D2D2D2D2D3F
:103D20002D000000624502D1AFF2B42066E04245AA
:103D300002D1AFF2A42061E0A2F59050D83802D1B0
:103D4000AFF29C205AE0A2F59050CC3802D1AFF2ED
:103D5000902053E0A2F5B8507A3802D1AFF2882013
:103D60004CE0A2F5B850753802D1AFF27C2045E0A6
:103D7000A2F59050CA3802D1AFF274203EE0A2F50D
:103D80009050C53802D1AFF2682037E0A2F510603C
:103D9000783802D1AFF2602030E0A2F510606C38C4
:103DA00002D1AFF2542029E0A2F59050E83802D1B8
:103DB000AFF24C2022E0A2F5B8508E3801D1DDA040
:103DC0001CE0A2F59050D43802D1AFF2342015E0B7
:103DD000A2F5B8507F3801D1DCA00FE0A2F5106049
:103DE000923802D1AFF2202008E0A2F510607938B5
:103DF00002D1AFF2142001E0AFF204200290AFF242
:103E0000F0100390AFF2E0100490D6A00590AFF24E
:103E1000A0100690AFF290100790D8483F1D089070
:103E20000ECF4E465BF825000BF078FCD44DB5F96B
:103E30000A00202805DA0022212180B20BF063FB62
:103E400006E04FF0FF322121AFF244100BF095FC59
:103E5000B5F90C000D2805DA0022402180B20BF0E4
:103E600052FB06E04FF0FF324021AFF264100BF03E
:103E700084FCB5F90E00642805DA0022232180B203
:103E80000BF041FB06E04FF0FF322321AFF2881028
:103E90000BF073FCBA4DBB4F8035686AB84207DB44
:103EA0006FF004023F21AFF298100BF066FC03E0C4
:103EB00000223F210BF0ADF900222B214FF461705D
:103EC0000BF021FB0022282105200BF01CFBA86A27
:103ED000B84207DB6FF004022921AFF2CC100BF0DF
:103EE0004CFC03E0002229210BF093F9E86AB84268
:103EF00007DB6FF004023C21AFF2EC100BF03DFC4D
:103F000003E000223C210BF084F9286BB84207DB68
:103F10006FF004023E21AFF208200BF02EFC03E00C
:103F200000223E210BF075F996F90400032802D116
:103F30007178092913D096F90110A1B1012915D082
:103F400002291FD0032925D004292BD005292ED0E2
:103F5000062934D0072938D0082939D03EE08A48CC
:103F600080F83C403AE078BB142238E0022835DA89
:103F7000C0F10100C0B202225FF00C010BF010FC96
:103F800002F0C4BE022829DAC0F101000222C0B248
:103F90000F21F3E7022821DAC0F101000222C0B2AA
:103FA0001221EBE7032819DAC0F1020012E004281D
:103FB00014DAC0F103000622C0B20321DEE70428B0
:103FC0000CDAC0F1030005E008E0C0F1040001E0F4
:103FD000C0F105000A22C0B21146CFE7002200213D
:103FE0000846CBE769A002906EA0039073A00490EE
:103FF00078A005907DA0069082A0079087A00890E9
:104000008CA0099091A00A9096A00B909BA00C9078
:10401000A0A00D90A5A00E90AAA00F90AFA0109008
:10402000B4A01190B9A01290BEA01390C3A0149098
:10403000C8A01590CDA01690D2A01790D7A0189028
:10404000DCA01990E1A01A90E6A01B90EBA01C90B8
:10405000F0A01D90F5A01E90FA481F90FAA02090A5
:10406000FFA02190022B02DD89F8046003E0A94241
:1040700001DA89F8041099F90410FFA00BEB810212
:10408000121D5BF821100CCA0BF048FB01200CF04C
:1040900037F999F9040011284ADABAF852000022D7
:1040A000401C3C21544680B20BF02DFAB4F862005B
:1040B0004FF000024FF0280110B1E2481F3801E034
:1040C000E0481A380BF059FBB4F85C004FF00002DE
:1040D0004FF0290108B1EEA000E0EFA00BF04DFB7E
:1040E00094F82500552824D06FF003027921ECA024
:1040F0000BF043FB34F8540F0122212180B20BF066
:1041000002FA60880122402180B20BF0FCF9A088FD
:104110000122232180B20BF0F6F9608901225E2191
:1041200080B20BF0F0F9A0890022262180B2BBE119
:10413000C2E1FAE1202020C8C1DDCF3232302F3673
:10414000302D33304120202000000000202020C8E6
:10415000C1DDCF3232302F36302D31354120202095
:1041600000000000D3CAD330302B2E302820532F2C
:104170004E30303030302920000000002C29000063
:104180008800001040420F009A07082020D1F2E07A
:10419000EDE4E0F0F2EDFBE52020202020202020BF
:1041A0000000000020C2F0E5ECFF20E820E4E0F28F
:1041B000E0202020202020200000000020D1F2F06C
:1041C000F3EAF2F3F0E0202020202020202020201D
:1041D0000000000020CCEDE5ECEEEDE8EAE0202068
:1041E00020202020202020790000000020CEF1EDAA
:1041F000EEE2EDEEE920E8F1F2EEF7ED2E204E3C96
:104200000000000020C7E22EF1E8E3ED2E20202080
:1042100028202020202020200000000020CEF2EACC
:10422000EBFEF7E5EDE8E520F1E8E3EDE0EBE0207B
:10423000000000002020E0E2E0F0E8E8202020205C
:1042400029202020202020200000000020C0CFC2F4
:1042500020E8F1F2EEF7EDE8EAEEE220202020205F
:1042600000000000205420EFF0EEE2E5F0EAE82044
:104270002020F6E5EFE820200000000020E1E0F239
:10428000E0F0E5E8202020202071ECE8ED2E202051
:104290000000000020556D61783D20202020202066
:1042A0002021C22020202020000000002055E1E035
:1042B000F26D6178203D20202040C2202020202067
:1042C000000000002055E13230B03D2020202020A9
:1042D0002023C22020202020000000002055F1E8EB
:1042E000E3ED3D2020202020205EC2202020202041
:1042F0000000000020556D696E2EF1E5F2E83D20CA
:104300002026C2202020202000000000205530E17F
:104310003D20202020202020203EC22020202020C0
:10432000000000002049E1EA2E3D2020202020202E
:10433000206AC02020202020000000002049E72E15
:10434000ECE0F52E3D202020204AC0202020202017
:104350000000000020496D61783D202020202020B1
:10436000205D41202020202000000000204B696DAE
:1043700061783D2020202020207B2020202020202C
:1043800000000000204BE2FBF02EE7E0F02E3D2085
:104390002020205B20202020000000002054E72E59
:1043A000E2EAEB2EE02EF12E2021F1202020202029
:1043B0000000000020746D61783D20202020202026
:1043C0002024B043202020200000000020457468F5
:1043D00065726E657420202020202020202020205F
:1043E0000000000020C2EDE5F8EDE8E520E4E0F291
:1043F000F7E8EAE8202020200000000020CFEEFDB2
:10440000EBE5ECE5EDF2EDFBE920EA2DEBFC2E20EF
:104410000000000020E1E0F2E0F0E5E820202020AC
:1044200020202020205125200000000020C0E2E0B4
:10443000F0E8E9EDFBE520F0E5EBE5202020202089
:104440000000000093AC010020CAE0EBE8E1F0EED0
:10445000E2EAE82020202020202020200000000088
:1044600020D2E5F1F2202020202020202020202032
:1044700020202020000000002020202020D3D1D2A6
:10448000C0CDCEC2CAC820202020202000000000BD
:10449000E0E2F2EEEC2E0000F0F3F7ED2E0000006B
:1044A000E2FBEAEB2E0000000BF02DF8608B0122FE
:1044B0003E2180B20BF027F80AF15A04002220882E
:1044C000242180B20BF01FF8608902226A2180B299
:1044D0000BF019F8A08903225B2180B20BF013F8CE
:1044E000E08901225D2180B20BF00DF8208A0122C3
:1044F0007B2180B20BF007F8608A01224A2180B24A
:104500000BF001F8E08A0022212180B20AF0FBFFC3
:10451000608B0022712180B20AF0F5FFB4F91C0013
:1045200088B100225121FEF7CAB86FF00702792145
:10453000E6A00BF022F9E84800227921B0F87000DB
:104540000AF0E1FFD6E56FF001025121E3A002F08D
:1045500002BAE4A00290E9A00390EEA00490F3A0B8
:104560000590F84806902AB1A0F115029AF81D00AE
:104570004BF82020A94202DA89F8041003E0022B4C
:1045800001DD89F8046099F90440EFA00BEB840188
:10459000D1E901235BF8241001F015BB9AF80B0058
:1045A0005446401CC0B28AF80B000F2809D30020E3
:1045B00008F1010808F0FF01E072E177032900D358
:1045C000E077E7480290DF4815380390E07F20B19C
:1045D000012804D0022817D003E0E2A000E0E7A001
:1045E000049002ADEBA00ECD0BF098F899F9010004
:1045F00060B101280FD0022812D0032815D004285A
:1046000018D005281BD01EE0E8A0E9E7ED495E20A0
:1046100081F82A0017E0EB495E2081F82D0012E0B6
:10462000E8495E2081F830000DE0E6495E2081F81F
:10463000330008E0E3495E2081F8360003E0E149F9
:104640005E2081F83A00E04D28784FF000024FF0EC
:1046500026010AF058FF287900225E210AF053FF54
:10466000287A002225210AF04EFF287B00223C21D7
:104670000AF049FF297EB3480022153000EB810083
:104680003E210BF07AF8A88B00227B210AF03BFF39
:10469000E07D00287ED03A200AF0CBFCC94C2025D2
:1046A00025543A200AF0C5FC255469E4C7A00290BD
:1046B0009AF823005746552808D0CA480390A148C5
:1046C0001538049005900690BC7716E097F8240002
:1046D0005528C5A0039007D0C248049099481538C2
:1046E00005900690022007E0C5A00490BD48059003
:1046F0009448153806900320B877A94202DA89F861
:10470000041003E0022B01DD89F8046099F90440EC
:10471000C1A00BEB8401D1E901235BF824100AF05E
:10472000FDFF01200BF0ECFD97F823004FF0000295
:1047300055284FF021010CD082481A380BF01DF893
:1047400097F824004FF0000255284FF0400103D0A5
:1047500086E07C481F38F1E77A481F380BF00DF8E7
:104760005D4800222321B0F86E00DCE6B0A0029084
:10477000B5A00390BAA00490BFA00590C4A0069075
:104780007748C030079018300890C7A009906D484E
:104790000A9000E0A8E3A94202DA89F8041003E0D5
:1047A000022B01DD89F8046099F90410C4A00BEB19
:1047B0008102121D5BF821100CCA0AF0AFFF012024
:1047C0000BF09EFD387820B3012828D06FF004024A
:1047D0002121C1A00AF0D1FF787830B301282AD076
:1047E0006FF004024021BCA00AF0C7FFB87840B3C4
:1047F00001282CD06FF004022321B7A00AF0BDFFDE
:10480000F87850B301282ED06FF004022821B2A00E
:104810009DE64C4821216FF002021A38DAE7494838
:1048200021216FF002021F38D4E7464840216FF083
:1048300002021A38D8E7434840216FF002021F38BD
:10484000D2E7404823216FF002021A38D6E73D48EC
:1048500023216FF002021F38D0E76FF002022821F7
:1048600038481A3873E66FF0020228213DE39CA015
:10487000029081A003903A48C0300490183005900F
:1048800089A006902F480790A94202DA89F80410FF
:1048900003E0022B01DD89F8046099F9045088A037
:1048A0000BEB8501D1E901235BF825100AF036FFF7
:1048B00001200BF025FD387810B1012805D020E14A
:1048C0002048002228211A3819E115E1F7E5F0E522
:1048D000E72079F12E00000088000010C2DBCACB6F
:1048E0002E00000020C8C1DDCF3232302F36302DEF
:1048F0003132C02D312F32200000000020C8C1DD30
:10490000CF3232302F36302D3132C02D322F32207F
:104910000000000020C8C1DDCF3232302F34382DE6
:104920003132C02D312F32200000000020C8C1DDFF
:10493000CF3232302F34382D3132C02D322F322049
:104940000000000093AC0100D1D2C0CDC4C0D0D2D1
:10495000CDDBC520D3D1D22E2DCAC8200000000047
:10496000E81C0000202020209A209C202D20E2FB23
:10497000E1EEF0202020202000000000202020BFB9
:10498000209D202D20F3F1F2E0EDEEE2EAE0202080
:104990000000000020D3D1D2C0CDCEC2CAC020209A
:1049A000C2D0C5CCC5CDC8200000000020202020EA
:1049B00020A420202D20E2FBF5EEE4202020202062
:1049C000000000009A0708202040024020C0CFC20B
:1049D0002031E920F3F0EEE2E5EDFC20212020205B
:1049E000000000002C29000020C0CFC22032E920A6
:1049F000F3F0EEE2E5EDFC20402020200000000076
:104A000020CFE5F0E8EEE420C0CFC2322020202005
:104A10002023F72E00000000202020C0CFC220C895
:104A2000D1D2CED7CDC8CACEC220202000000000EF
:104A300020D0E5EBE520E0E22EB931202020202037
:104A4000202020210000000020D0E5EBE520E0E25E
:104A50002EB93220202020202020204000000000FD
:104A600020D0E5EBE520E0E22EB933202020202005
:104A7000202020230000000020D0E5EBE520F1E01D
:104A8000ECEEEAE0EBE8E1F0EEE2EAE8000000003C
:104A900020D0E5EBE520E1E0F2E0F0E5E8202020A1
:104AA000202020280000000020C1CFD1312BC1CF11
:104AB000D1322020202020202020202000000000B3
:104AC0002020202020202020D2C5D1D2202020202C
:104AD0002020202000000000D0C0C1CED72E000032
:104AE00020D0E5EBE520E0E2E0F0E8FF2020202008
:104AF000282020200000000000222821FB480AF086
:104B00003CFE8AF83540D0E5A94202DA89F8041063
:104B100003E0022B01DD89F80460F44BF4A21F339B
:104B2000F9A1FFA00AF0FAFD01200BF0E9FB3879AA
:104B300020B1012807D0032809D00EE0EB4800225D
:104B40003C21401D07E000223C21E84803E0002210
:104B50003C21AFF27C000AF010FEF74802223A2115
:104B6000B0F9780001F0F4BBA94202DA89F8041028
:104B700003E0022B01DD89F80460DC4BEFA21F3358
:104B8000F4A1FAA00AF0CAFD01200BF0B9FB787974
:104B900020B1012809D0022812D01BE000224021B8
:104BA000F8A00AF0EAFD1E2011E000224021F7A043
:104BB0000AF0E3FDE04840F2CA318030818009E02C
:104BC00000224021F3A00AF0D8FD45F25550DA4901
:104BD0008031888000222421EFA00AF0CEFDD64843
:104BE0000122B8303C2100880AF08DFCD248012215
:104BF000BC303E2100880AF086FC00222321E848D0
:104C0000AFE0A94202DA89F8041003E0022B01DDCB
:104C100089F80460B54BE3A21F33CEA1E7A00AF0E8
:104C20007DFD01200BF06CFBB87920B1012809D083
:104C300002280FD018E000224021D2A00AF09DFDEA
:104C40001E200EE000224021D0A00AF096FD40F286
:104C5000CA3006E000224021CEA00AF08EFD45F2C7
:104C60005550B5498031C88000222421CAA00AF0DD
:104C700084FDB1480122B8305B2140880AF043FC32
:104C8000AD480122BC305D2140880AF03CFC002286
:104C9000232165E0CFA00290A8A00390C1A00490BA
:104CA00092481F300590A94202DA89F8041003E007
:104CB000022B01DD89F8046099F90410CBA00BEBFD
:104CC0008102121D5BF821100CCA0AF027FD012099
:104CD0000BF016FBF87920B1012809D002280FD07B
:104CE00019E000224021A7A00AF047FD1E200EE097
:104CF00000224021A5A00AF040FD40F2CA3006E0A3
:104D000000224021A3A00AF038FD45F255508A49FF
:104D100080318880C880002224219FA00AF02DFDC8
:104D2000854E0122B8363C2130880AF0ECFB351D57
:104D3000012228883E210AF0E6FB9948002223211F
:104D4000008880B20AF0DFFB708801225B210AF044
:104D5000DAFB688801225D210AF0D5FB00222121BF
:104D6000A848008880B20AF0CEFBA748012224217F
:104D7000008880B20AF0C7FB8AF8364095E4A3A009
:104D80000290A8A00390ADA00490B2A0059057484F
:104D90001F300690A94202DA89F8041003E0022BC2
:104DA00001DD89F8046099F904000BEB8002121D03
:104DB0005BF820100CCAADA00AF0B0FC01200BF08B
:104DC0009FFA0AF1780400226088212180B20AF05B
:104DD0009AFB20880022402180B20AF094FBA08830
:104DE0000022232180B20AF08EFB00222421E088D9
:104DF000BBE4A4A00290A9A24BF82720ADA2CCF856
:104E00000420B2A2CCF80820B6A2CCF80C20374A75
:104E1000BAF97E401F323C4458464BF824200BEB35
:104E20008404B64A6260A2604A46A94201DA11715E
:104E300002E0022B00DD167199F9041000EB8102EB
:104E4000121D5BF821100CCAADA0C2E3B2A0029003
:104E5000B7A00390BCA00490C1A00590C6A0069086
:104E6000CBA00790D0A0089020484C461F30099056
:104E7000A94201DA217102E0012B00DD227194F9CF
:104E80000400CFA10BEB800253685BF82020D2A076
:104E90000AF044FC02200BF033FA94F902000022DD
:104EA000401C80B221210AF02EFB94F90210D04858
:104EB000002230F9110040210AF05CF9CC4994F944
:104EC0000200303931F8101069B16FF0010223216E
:104ED000AFF634200AF051FCC54994F90200243998
:104EE00031F8101086E1C2E177E377E374AC01009A
:104EF0002049E1E0F23D2020202020202020202019
:104F0000203A41200000000020D0E5EBE5202020E1
:104F10002020202020203C202020202000000000F5
:104F200020D2C5D1D220D1C0CCCECAC0CBC8C1D02E
:104F3000CEC2CAC000000000880000102055313DDC
:104F4000202020203CC22049313D202020203EC08E
:104F5000000000002055F03D40202024202020208B
:104F600020F8E8EC3D202023000000002020202035
:104F700020D2C5D1D220C1CFD13120202020202065
:104F800000000000556D696E00000000556D6178ED
:104F90000000000055323000282020202429000085
:104FA00086C007202055323D202020205BC22049AA
:104FB000323D202020205DC0000000002020202065
:104FC00020D2C5D1D220C1CFD13220202020202014
:104FD000000000002055F03D40202024202020200B
:104FE000202020232020202100000000202020D28B
:104FF000C5D1D220C1CFD1312BC1CFD13220202079
:105000000000000088C007208AC0072020C1E0F20D
:10501000E0F0E5E920202020202020202020204052
:105020000000000020C8F1F2EEF7EDE8EAEEE22021
:1050300020202020202020210000000020C4E0F2B9
:10504000F7E8EAEEE220F2E5ECEFE5F02E2020238F
:105050000000000020D1F3F5E8F520EAEEEDF2E0E3
:10506000EAF2EEE220202024000000002020202090
:105070002020D1D2D0D3CAD2D3D0C020202020200B
:105080000000000020C4E0F2F7E8EA20F2E5ECEFCF
:10509000E5F02E204E3120200000000020D1F3F555
:1050A000EEE920EAEEEDF2E0EAF2204E3120202097
:1050B0000000000020D1F3F5EEE920EAEEEDF2E089
:1050C000EAF2204E322020200000000020D1F3F52B
:1050D000EEE920EAEEEDF2E0EAF2204E3320202065
:1050E0000000000020D1F3F5EEE920EAEEEDF2E059
:1050F000EAF2204E34202020000000006C12000054
:105100002020C2CDC5D8CDC8C520C4C0D2D7C8CAFA
:10511000C82020200000000020F2E5ECEFE5F0E0E0
:10512000F2F3F0E0202020202040B04300000000F7
:1051300020746D6178202020202020202020202035
:105140002023B0430000000020746D696E202020F1
:1051500020202020202020202024B0430000000018
:1051600020D0E5EBE520202020202020202020203A
:10517000205B20200000000020C7E2F3EA2020206E
:105180002020202020202020205D20200000000062
:1051900020C4E8F1EFEBE5E92020202020202020AA
:1051A000202820200000000020534E4D5020545253
:1051B0004150202020202020202920200000000015
:1051C000202020D2C5CCCFC5D0C0D2D3D0DB204E3A
:1051D00021202020000000002020C2CDC5D8CDC84D
:1051E000C920C4C0D2D7C8CA202020200000000097
:1051F00094010010C9B36FF001022421AFF6605092
:105200000AF0BBFA94F90200F5496FF0010231F897
:1052100010004FF05B0148B3AFF67C500AF0ADFAD6
:10522000EF4994F90200891D6FF0010231F8100076
:105230004FF05D0178B3AFF6985000BF0AF09DFAC9
:10524000E74894F902100C306FF0010230F81100B9
:105250004FF0280110B3AFF6B85000BF0AF08DFA36
:10526000DF4994F902001231B3E009E011E0DC49B2
:105270000022123931F91000232109F07BFF2BE6BF
:10528000D7490022891F31F91000242109F072FF4B
:10529000B8E7D4A0C2E7FFE7D2A0CFE7D1A0DDE70F
:1052A000D0A001F058BBAFF60860FAE7CFA002909B
:1052B000D4A00390D9A00490AFF25C100590AFF297
:1052C00048100690AFF238100790AFF22410089003
:1052D000D8484C460990A94201DA217102E0022B1C
:1052E00000DD267194F90410D3A00BEB8102121D8E
:1052F0005BF821100CCA0AF011FA01200BF000F83B
:1053000094F902000022401C80B221210AF0FBF82F
:10531000B34994F9020034394FF00002085C4FF0B1
:105320004001FF285FD0CAA00AF027FAAC4994F9DF
:10533000020026314FF0000231F810004FF0230137
:10534000F0B3C3A00AF019FAA54994F902000C3988
:1053500031F81010A9B36FF005022421AFF6C06038
:105360000AF00BFA9E4894F902102E306FF00102F9
:1053700030F811004FF05B0120B3AFF6DC6000BFE6
:105380000AF0FBF9964894F9021036306FF00102EA
:1053900030F811004FF05D0190B3AFF6FC6000BF34
:1053A0000AF0EBF98E4894F902103E306FF00102DA
:1053B00030F811004FF0280138B3AFF61C7002E04E
:1053C00013E014E01DE00AF0D8F9854994F90200D1
:1053D00046316FF0010231F810004FF0290100282A
:1053E0007FF461AF5CE79CA09EE79BA0AAE77C49A5
:1053F0000022891F31F91000242109F0BBFEB1E71A
:1054000001E078A0BCE777A0CAE776A0D7E7894C8F
:1054100051AF493415CC15C791A0029096A00390C6
:105420009BA00490A0A00590A5A00690AAA007901C
:10543000AFA00890B4A00990B9A00A90BEA00B90AC
:10544000C3A00C90C8A00D90CDA00E90D2A00F903C
:10545000D7A01090DCA01190E1A01290E6A01390CC
:10546000EBA01490F0A01590F5A05D4C1690FA48B2
:10547000F43C1790208C28B9F7480390A0F5B6505B
:10548000049005904F46A94201DA397102E0022BDF
:1054900000DD3E7197F90410F0A00BEB8102121DA4
:1054A0005BF821100CCA0AF039F901200AF028FF34
:1054B000208C20B16FF002022121EEA004E06FF0F9
:1054C00003022121AFF6EC300AF057F9608C20B1CD
:1054D0006FF002024021E7A004E06FF003024021D8
:1054E000AFF608400AF049F979782320022946D01E
:1054F0005FF00001CDE90001B4F92A30B4F92820A9
:10550000B4F92610B4F9240009F05BFF797824205F
:10551000042938D05FF00001CDE90001B4F9323040
:10552000B4F93020B4F92E10B4F92C0009F049FF79
:105530007978292006292AD05FF00001CDE9000101
:10554000B4F96630B4F96420B4F96210B4F96000BB
:1055500009F037FFB4F85C0000225B2180B209F04B
:10556000D2FFB4F85E0000225D2180B209F0CBFFCB
:10557000B4F934006FF00D05FF280CD014E0B978B1
:10558000491CC9B2B6E7B978491CC9B2C4E7B978B1
:10559000491CC9B2D2E7E18EFF2905D1218FFF292D
:1055A00002D1618FFF2915D07A7825210B2A12D0DC
:1055B0005FF00002CDE90012B4F93A30B4F93820B6
:1055C000B4F9361009F0FDFEB4F93C00FF2803D011
:1055D00069E13EE252E157E15AE145E3CDE20000E4
:1055E0007C010010E2EAEB2E0000000020F2E5EA68
:1055F000F3F92EF1EEF1F22E204020202020202081
:105600000000000020E0E2E0F0E8E9EDEEE520F146
:10561000EEF1F2EEFFEDE8E5000000002020202092
:1056200020202020202D202320202020202020206A
:105630000000000093AC01002020D1D3D5CEC920BA
:10564000CACECDD2C0CAD2204E21202000000000F8
:10565000EDE5E7E0ECEA2E00E7E0ECEAEDF3F2003E
:105660002045746865726E657420202020202020FB
:1056700020202120000000002044484350EAEBE8AD
:10568000E5EDF22020202020202040200000000016
:10569000204950E0E4F0E5F12020202020202020C7
:1056A000202020200000000020203030302E30301C
:1056B000302E3030302E30302320202000000000EB
:1056C00020CCE0F1EAE020EFEEE4F1E5F2E8202082
:1056D000202020200000000020203030302E3030EC
:1056E000302E3030302E30302420202000000000BA
:1056F00020D8EBFEE7202020202020202020202082
:10570000202020200000000020203030302E3030BB
:10571000302E3030302E3030292020200000000084
:1057200020CFEEF0F22EF7F2E5EDE8FF202020206A
:105730002020205B0000000020CFEEF0F22EE7E0FA
:10574000EFE8F1E8202020202020205D000000006C
:1057500020436F6D6D756E697479203C2020202088
:10576000202020200000000020C0E4F0E5F1E0F25D
:1057700020E4EBFF2054524150204E310000000045
:1057800020203030302E3030302E3030302E30303F
:10579000252020200000000020C0E4F0E5F1E0F228
:1057A00020E4EBFF2054524150204E320000000014
:1057B00020203030302E3030302E3030302E30300F
:1057C0005E2020200000000020C0E4F0E5F1E0F2BF
:1057D00020E4EBFF2054524150204E3300000000E3
:1057E00020203030302E3030302E3030302E3030DF
:1057F000262020200000000020C0E4F0E5F1E0F2C7
:1058000020E4EBFF2054524150204E3400000000B1
:1058100020203030302E3030302E3030302E3030AE
:105820002A2020200000000020C0E4F0E5F1E0F292
:1058300020E4EBFF2054524150204E350000000080
:1058400020203030302E3030302E3030302E30307E
:1058500028202020000000002C29000020D3D1D2D5
:10586000C0CDCEC2CAC82045746865726E6574200A
:1058700000000000C2CACB2E000000002A462521ED
:10588000FAA009F07AFF9FE6BA78521CD2B291E6EC
:10589000E18FFF2907D1B4F84010FF2903D1B4F8F4
:1058A0004210FF2913D079780D2916D000225E21ED
:1058B000CDE90012B4F94230B4F94020B4F93E10F9
:1058C00009F07FFDB4F94400FF280DD018E02A4606
:1058D0005E21E6A009F051FFF4E7B978491CC9B28E
:1058E0005E22CDE90021E5E7B4F84610FF2907D193
:1058F000B4F84810FF2903D1B4F84A10FF2914D096
:105900007A7826210F2A16D05FF00002CDE9001226
:10591000B4F94A30B4F94820B4F9461009F051FD01
:10592000B4F94C00FF280AD015E02A462621CFA062
:1059300009F023FFF4E7BA78521CD2B2E6E7B4F8D4
:105940004E10FF2907D1B4F85010FF2903D1B4F845
:105950005210FF2913D07A782A21112A15D000225B
:10596000CDE90012B4F95230B4F95020B4F94E1018
:1059700009F027FDB4F95400FF280AD015E02A46A3
:105980002A21BAA009F0F9FEF4E7BA78521CD2B283
:10599000E6E7B4F85610FF2907D1B4F85810FF29EC
:1059A00003D1B4F85A10FF2925D07A782821132A78
:1059B00027D00022CDE90012B4F95A30B4F95820AA
:1059C000B4F9561009F0FDFCAD4A002051A9135C52
:1059D0000B54401CC0B20928F9D300208DF84D01AA
:1059E0007878BA780A2810D000233C2151A809F011
:1059F000CBFC01F08BB92A4628219CA009F0BDFE02
:105A0000E2E7BA78521CD2B2D4E70123EDE79DA0B9
:105A10000290A2A00390A7A00490ACA005904846D5
:105A2000BEF11E0F03D1589A0AB1AE4A0592AE4A92
:105A30000692A94201DA017102E0022B00DD067133
:105A400099F904000BEB8002121D5BF820100CCAC0
:105A5000A6A0B8E0ABA00290B0A00390B5A00490BF
:105A6000BAA00590BFA00690C4A00790C9A0089056
:105A7000CEA00990D3A00A909B484C460B90A94217
:105A800001DA217102E0022B00DD267194F9040095
:105A90000BEB8002121D5BF820100CCACFA009F09E
:105AA0003DFE01200AF02CFC94F902000022401C6B
:105AB00080B2212109F027FD94F90200CD4D6FF04D
:105AC00002024FF0400135F81000C00702D08648AE
:105AD0001F3801E084481A3809F04FFE94F902009B
