:020000040000FA
:10000000781C0820C5010000C9010000CB010000D8
:10001000CD010000CF010000D10100000000000070
:10002000000000000000000000000000D3010000FC
:10003000D501000000000000D7010000D7AF00008C
:10004000DB010000DB010000DB010000DB01000040
:10005000DB01000013470100DB010000FD2F010060
:10006000DB010000DB010000DB010000DB01000020
:10007000DB010000DB010000DB010000DB01000010
:10008000DB010000DB010000DB010000DB01000000
:10009000DB010000DB010000DB010000DB010000F0
:1000A000DB010000FD2C0100DB010000DB01000092
:1000B00049520100DB010000DB010000DB01000010
:1000C000DB01000000F002F800F06DF80AA090E8F3
:1000D000000C82448344AAF10107DA4501D100F003
:1000E00062F8AFF2090EBAE80F0013F0010F18BF63
:1000F000FB1A43F00103184774E50300B4E503005D
:100100000A444FF0000C10F8013B13F0070408BF3D
:1001100010F8014B1D1108BF10F8015B641E05D0DB
:1001200010F8016B641E01F8016BF9D113F0080F90
:100130001EBF10F8014BAD1C0C1B09D16D1E58BF22
:1001400001F801CBFAD505E014F8016B01F8016B59
:100150006D1EF9D59142D6D37047000000230024CC
:1001600000250026103A28BF78C1FBD8520728BFC7
:1001700030C148BF0B607047642916F0B184732901
:1001800016F0E786002070471FB51AF05DFD16F0E7
:10019000CFFF0400002000211AF040FD401C6060E9
:1001A0001FBD10B510BD16F09EFF1146FFF7ECFF06
:1001B0000AF096FF16F0D0FF03B4FFF7F2FF03BC7E
:1001C00016F0D4FF08480047FEE7FEE7FEE7FEE72B
:1001D000FEE7FEE7FEE7FEE7FEE7FEE70348044929
:1001E000024A044B70470000C5000000781A08203E
:1001F000781C0820781A0820FEE710B518F000FCDB
:1002000018F08CFC18F07EFC18F00CFCAFF30080AA
:10021000BDE8104018F048BC10B519F059FA1AF0B2
:10022000C9F819F0ADFABDE8104019F025BC19F075
:100230006DB918F035BF09B10020704717F08ABCBE
:100240000020704790F900308B4200DA027090F97C
:100250000030934200DD0170704790F900308B420E
:1002600000DA017090F90010914200DD02707047D1
:10027000B0F900308B4200DA0180B0F900109142F1
:1002800000DD02807047B0F900308B4200DA028056
:10029000B0F90030934200DD0180704703688B4263
:1002A00000DA02600368934200DD016070470000DD
:1002B0000FB41CB5084B06AA7B446946009005980C
:1002C00016F01DFE04460020694616F02BFE20465F
:1002D0001CBC5DF814FB0000696C010070B506469B
:1002E00016F0A8FD0468054630460A22002116F0E3
:1002F00034FE2C6070BD704770477047FFFFFFFFF2
:1003000030B54E482021C0F8A01100BFD0F8A01190
:100310004906FBD500F180000322C0F8842048493B
:10032000C0F828114FF00001C0F82C114FF0010364
:10033000C0F88C30434C446003604FF0AA03C360A4
:100340004FF05504C460A0F1800000BFD0F8885081
:100350006D01FBD540F8802FC360C460C0F88810E1
:10036000394A4264C0F848118168A0F180006FEA00
:1003700011618A073549D0F80C2102F0030207D039
:1003800092B3012A46D0022A4AD0032A51D13BE037
:100390002AB1012A11D0022A27D0032A49D150F8C4
:1003A000882FC2F30E02521C53000268C2F30742A8
:1003B000521CB3FBF2F2264B0CE050F8882FC2F32C
:1003C0000E02521C53000268C2F30742521CB3FBD8
:1003D000F2F2204B5A43C36FA0F18800DBB203F165
:1003E0000103B2FBF3F223E00EE050F8882FC2F3D2
:1003F0000E02521C53000268C2F30742521CB3FBA8
:10040000F2F24FF4FA43E5E7D0F80421104BD2B2F0
:10041000521C0BE0D0F804210E4BD2B2521C05E066
:10042000D0F804214FF4FA43D2B2521CB3FBF2F2DB
:100430000A6043F23A01016030BD000000C00F4085
:10044000000002084F00030048F100410CC00720E3
:1004500000093D008096980010B54FF4027011F02D
:10046000FDF8FB4C207040F20A2011F0F7F86070A4
:100470004FF4037011F0F2F8A07040F20E2011F06A
:10048000EDF8E0704FF4047011F0E8F8207240F2DB
:10049000122011F0E3F860724FF4057011F0DEF8ED
:1004A000A07240F2162011F0D9F8E0724FF41170EA
:1004B00011F0D4F8207140F2462011F0CFF86071AD
:1004C0004FF4127011F0CAF8A07140F24A2011F0F6
:1004D000C5F8E07110BD002801DA404200B2704753
:1004E000DC4AD16CD36C5B1A8342FBD37047DA4988
:1004F000112008727047D948C16941F44021C16197
:10050000C16941F44011C161D5480021C1604FF477
:100510004061C164022141614FF47A7282614FF4FB
:100520004872026242620122026541600921416013
:1005300070472DE9F04F0020CA4A85B04FF4F4719E
:1005400004461454401C00B28842FADBC648817E3F
:1005500071B100214FF0140C7A2301FB03F001EB81
:1005600081039B0001EB81041BB20CEB84045BE272
:10057000804690F826004FF00205C0074FF00306B2
:100580001BD098F81700002816D0B8483227CDE9BC
:100590000204CDE90076032118233A46084610F0FC
:1005A000FCF9B348CDE90204CDE900760321182314
:1005B0003222084610F0F1F9B8E0B8F97A00DFF815
:1005C0009492DFF8B0A20F27DFF8ACB2A9F10409CA
:1005D000012853DB1423002100941A460846019495
:1005E00010F01FF91223012100941A4608460194C5
:1005F00010F017F999F8000010F03C0F0BD0C1066D
:1006000011D598F81700F0B10F23CDE902A402210B
:100610001A46032013E09948CDE902040F23022172
:100620001A4603200BE010F00C0F0CD098F81700BE
:1006300048B10F23CDE902B402211A460846CDE99C
:10064000007510F0AAF98E48406DC00716D10B2333
:1006500000221421092000940FF0C8FE00235B2221
:100660001F21092000940FF0C1FE98F80500042313
:100670001330C1B20022092010F010F9B8F97A0045
:10068000022853DB142300941A46002117200194FA
:1006900010F0C7F8122300941A4601211820019483
:1006A00010F0BFF899F8010010F03C0F0BD0C10614
:1006B00011D598F81700F0B10F23CDE902A402215B
:1006C0001A46192013E06F48CDE902040F230221D6
:1006D0001A4619200BE010F00C0F0CD098F81700F8
:1006E00048B10F23CDE902B402211A461920CDE901
:1006F000007510F052F96248406D800716D40B2344
:1007000000221421202000940FF070FE00234422C8
:100710001F21202000940FF069FE98F805000423A3
:100720001330C1B20022202010F0B8F8B8F87800D9
:10073000C1464FF00A0B4FF0010800282CD000945E
:100740001423232200213220019410F06AF800942F
:100750000223032214213520019410F062F8009442
:100760000223032214214F20019410F05AF899F823
:1007700026004F46800710D599F8170000280BD0A7
:1007800032213B48CDE90016CDE902040A46182380
:1007900000212B2010F001F98DE00B230022142101
:1007A000422000940FF022FE002322221F2142202B
:1007B00000940FF01BFEDFF89CA0AAF1800ABAF9A2
:1007C0007800002805DA7879042300221330C1B2BA
:1007D00005E078790423C0F12200C1B20222422050
:1007E00010F05CF8387A1E287ED2BAF90010A1F514
:1007F000AA42553A78D097F92700052190FBF1F0ED
:10080000ADF81000B9461422002104A8FFF730FD0E
:10081000CDE900844746BDF9103020220021332065
:100820000FF0FFFF99F927000A282FDACDE90075AC
:1008300009230C2205213D200FF0F3FF99F9270031
:1008400002238DE8910005210FA23D20039730E09F
:10085000DC5B0010080100100040024000C00240B4
:100860000080014062080820080000105DAD010012
:10087000F3AD0100C5AE0100E3AE010089AE010099
:1008800000C00920A7AE01002025000064284FF019
:1008900009035FDACDE90075122205213A200FF035
:1008A000C0FF99F9270003238DE8B100FEA20521BE
:1008B0003A2010F09EF800940E231B2202215C20A7
:1008C00001940FF0AEFF00231A1F08215C20009452
:1008D0000FF08CFD002304220821762000940FF0F5
:1008E00085FD0023272200E044E01F2143200094DF
:1008F0000FF07CFD6FF00F0300221F216920009490
:100900000FF074FD99F807004D46C0F12200C1B206
:100910000423022269200FF0C1FFE44947468846BC
:10092000B1F9021000910420CDE901700523E0A285
:1009300016214620039710F05CF8B8F900006428EF
:1009400025DACDE9000704230521DBA25D20CDE9EE
:10095000026725E0CDE900751822052137200FF048
:1009600060FF99F9270004238DE8D1000521D4A266
:1009700037209EE7BAF97810CDE9026891FBFBF0C9
:1009800001B2CDE900180423CBA2052190E790FB2A
:10099000FBF000B28DE8D1000423C7A205215A2044
:1009A00010F027F82879401CC0B2287103281CD306
:1009B0002C716879401CC0B268710D2800D36C712D
:1009C000A879401CC0B2A871202800D3AC71E87986
:1009D000401CC0B2E871112800D3EC71287A401C89
:1009E000C0B22872282800D32C7205B0BDE8F08F61
:1009F000B54DB64FED5C05EB450517F8156016547F
:100A000007EB4505401C6E781654401CAE78165412
:100A1000401CEE781654401C2E791654401C6D79FB
:100A20001554401C5B1C1BB29C42E1DC491C09B202
:100A30000429FFF691ADD8E72DE9F04FA44ADBB0C9
:100A4000052112780020012491460DF1A808052AFD
:100A500003D0B9F1210F02D005E09EA000E0A3A0D1
:100A60002A9001200621A74D95F826C05FEACC7296
:100A700008D0A5A248F8202000F1010001F10101F1
:100A8000C0B2C9B25FEA8C7208D5A5A248F820208E
:100A900000F1010001F10101C0B2C9B25FEA0C62CC
:100AA00006D5A5A248F82020401C491CC0B2C9B2F6
:100AB0007E4A121F137813F01C0F06D0A4A348F827
:100AC0002030401C491CC0B2C9B2784A121F52786B
:100AD00012F01C0F06D0A4A248F82020401C491C8C
:100AE000C0B2C9B2714A133213786D32012BB2F918
:100AF000002002D0022B03D00AE04AB9A0A201E0F4
:100B000032B9A5A248F82020401C491CC0B2C9B285
:100B1000664A19321378552B0AD102F199031B88C2
:100B200033B9A3A348F82030401C491CC0B2C9B255
:100B30005378552B0AD15D4BB2335B8833B9A2A3EE
:100B400048F82030401C491CC0B2C9B29378552BDC
:100B50000AD1564BB2339B8833B9A1A348F8203051
:100B6000401C491CC0B2C9B2D278552A0AD14F4A9A
:100B7000B232D28832B9A0A248F82020401C491CC9
:100B8000C0B2C9B2A24A137833B1A2A348F8203048
:100B9000401C491CC0B2C9B2537833B1A3A348F872
:100BA0002030401C491CC0B2C9B2927822B1A5A223
:100BB000491C48F82020C9B2A87AAA46401CC0B2F5
:100BC000A87214280CD300228AF80A209AF8093057
:100BD0005B1CDBB28AF809308B4201D38AF809200A
:100BE000324E0DF1080B50363246307892F90450EF
:100BF00092F901100BEB85072A2851D0002850D01C
:100C0000404A4FF0640E0428D27D5692A6F1D002DD
:100C1000B2F9082092FBFEF35593334693F9013065
:100C20000BEB83063ED0DFF88480052808F15008DE
:100C3000434693F902309E4601F0EC81434693F916
:100C4000046093F901309B1B062801F08984122867
:100C500001F00C85022801F01E8546467678B61E06
:100C600076B20D2801F03985152801F05385112839
:100C700001F05D85162801F07D85422801F0908500
:100C8000452801F0F387C146462802F0608041F212
:100C9000887C41F27C78352802F0D8853728DDE061
:100CA0007AE1FDE3FDE300002020250008010010AB
:100CB00020202020420000002020204100000000D1
:100CC00020202025000000009A07082001AF010025
:100CD00063C0072020C2FBF0E0E2ED2EE7E0F0FF6A
:100CE000E420207A3A305A20000000002020CAEE8A
:100CF000EDF2F0EEEBFC20E5ECEAEEF1F2E820207C
:100D00000000000008000010202020C0E2E0F0E811
:100D1000FF20F1E5F2E82121212020200000000041
:100D200020C0E2E0F0E8FF20E1E0F2E0F0E5E821B9
:100D3000212120200000000020C0F1E8ECECE5F2C9
:100D4000F0E8FF20C0CAC1212121202000000000BE
:100D500020C0E2E0F0E8FF20E8F1F2EEF7EDE8EA8B
:100D6000E0204E310000000020C0E2E0F0E8FF206B
:100D7000E8F1F2EEF7EDE8EAE0204E320000000084
:100D8000C2EDE5F82EF2E5ECEF2E4E31E7E0E2FBA6
:100D9000F8E5EDE000000000C2EDE5F82EF2E5EC2C
:100DA000EF2E4E31E7E0EDE8E6E5EDE00000000073
:100DB00020202020C0E2E0F0E8FF20D1CA20B93195
:100DC000202020200000000020202020C0E2E0F0B1
:100DD000E8FF20D1CA20B9322020202000000000E6
:100DE00020202020C0E2E0F0E8FF20D1CA20B93363
:100DF000202020200000000020202020C0E2E0F081
:100E0000E8FF20D1CA20B9342020202000000000B3
:100E1000A3C0072020C0E2E0F0E8FF20EFF0E5E407
:100E2000EEF5F02E20B931200000000020C0E2E0F5
:100E3000F0E8FF20EFF0E5E4EEF5F02E20B93220E7
:100E40000000000020C0E2E0F0E8FF20EFF0E5E461
:100E5000EEF5F02E20B933200000000002F080876C
:100E6000032803F0DD80FF4A2628927D549203F088
:100E70008E83FC4A292892F81F8003F0AD831B283B
:100E800003F03284F84F492803F08E84202803F0C1
:100E90000C85212803F05686222803F08386232818
:100EA00003F0CA86242803F01087182803F08687E9
:100EB000B2F97C703F280BEB870C03F0B98702F581
:100EC000A8725278521E52B2402803F0DE874128A1
:100ED00004F00C82472804F0BA824A2804F0BB854B
:100EE0004B2804F0DB85282804F06E860B2804F0DC
:100EF00070861D2804F091864D2805F0E2801C289C
:100F000005F01781C8461F2805F0C0811E2805F08E
:100F1000DF81382805F01082D24F2B2897F82270F5
:100F200005F041822C2805F07783CE4EDFF8389308
:100F3000B6F94E60A9F14A093746761EB44609F162
:100F40000106392805F091833A2805F0A9833B284A
:100F500005F05D843C2805F08A843D2805F039853C
:100F600045463E2805F0F085082805F0AD8609289D
:100F7000FBD01328F9D01428F7D03628F5D01A283A
:100F8000F3D00A2805F0C6862D2805F0C8864C281F
:100F900005F0CC8605F0E0BEC9B101297DD0B34C87
:100FA00002297BD003297AD0042979D0052978D069
:100FB0000629EFD0072975D0082974D0092973D0E4
:100FC0000A2972D00B2971D00C2970D0E2E7A8A3AE
:100FD000A7A2A7A1A6A00EF0D1FB002302221946CA
:100FE0000AF118049AF818000EF0D7F9608E002361
:100FF0000222012180B20EF0D0F9E08D02220023FE
:10100000114680B20EF0C9F99F48002307220088DC
:10101000194680B20EF0C1F99C48002307220088CF
:10102000012180B20EF0B9F9994800230722008807
:10103000022180B20EF0B1F98A48002380300722E5
:10104000B0F87600032180B20EF0A7F99148002392
:101050000A22194600780EF0A0F98F4800230A22D0
:10106000012100780EF099F98C4800230A22022110
:1010700000780EF092F98A4C00231322207819464A
:101080000EF08BF960780023132201210EF085F910
:1010900000231322A07802210AE01CE05FE0C0E0F8
:1010A00040E17EE18BE1D4E1D9E113E203E3EDE33A
:1010B0000EF073F97B4C00231122208819460EF0A4
:1010C0006CF960880023112201210EF066F90023DB
:1010D000A088112263E1744B74A11A4678A00EF027
:1010E0004DFB7D48002304220088194680B20EF093
:1010F00054F97A4800231A4690F90000012180B281
:101100000EF04BF9674C01231E3C0E222088002173
:101110000EF043F9012360880E2219460EF03DF9C6
:10112000241D01232088132200210EF036F901230B
:101130006088132219460EF030F9403C0A222078CC
:1011400000210EF08DFA60780A2201210EF088FA53
:10115000002301220221BAF87A0005F0F9BD44A368
:1011600043A243A142A00EF009FB002320880422E1
:1011700019460EF012F960880023042201210EF0B6
:101180000CF9A0880023042202210EF006F9E08861
:101190000023042203210EF000F9002320890922F4
:1011A00019460EF0FAF860890023092201210EF099
:1011B000F4F8A0890023092202210EF0EEF8E0895C
:1011C0000023092203210EF0E8F80023208A0E22D2
:1011D00019460EF0E2F8608A00230E2201210EF07B
:1011E000DCF8A08A00230E2202210EF0D6F8E08A55
:1011F00000230E2203210EF0D0F80023208B1322AF
:1012000019460EF0CAF8608B0023132201210EF05C
:10121000C4F8A08B0023132202210EF0BEF8E08B4D
:1012200045E213A312A212A111A00EF0A7FA002307
:10123000208C042219460EF0B0F8608C00230422A2
:1012400001210EF0AAF8A08C0023042202210EF046
:10125000A4F8E08C0023042203210EF09EF8208DD8
:1012600000233DE008000010AC0C082034070820E3
:10127000202020202020202020202020202020206E
:1012800020202020000000008EC007208AC00720F8
:1012900090C0072074C0072075C0072076C00720C3
:1012A000A9C007205E010010EEAC01002020202024
:1012B000202020202020202020202020202020004E
:1012C000322020202020202020202020202020200C
:1012D000202020200000000078C007206CC00720DC
:1012E000092219460EF059F8608D002309220121C8
:1012F0000EF053F8A08D0023092202210EF04DF8C4
:10130000E08D0023092203210EF047F80023208EF0
:101310000E2219460EF041F800230E22608E0121A4
:1013200005F018BDAFF2B803AFF2BC02AFF2C001D6
:10133000FAA00EF023FAFF4C00230322208801219B
:101340000EF02BF860880023032202210EF025F80E
:101350000322A088002311460EF01FF80023E08826
:10136000082219460EF019F82089002308220121CD
:101370000EF013F860890023082202210EF00DF808
:101380000023A0890D2219460EF007F8E0890023FA
:101390000D2201210EF001F8208A00230D220221E6
:1013A000BEE7E5A3EAA2F0A1F5A00EF0E7F9FA483E
:1013B00001222821008880B20EF0D5F805E0DEA3D6
:1013C000E3A2E9A1F5A00EF0D9F9FA480022212103
:1013D000008880B20EF0C7F8F7480022402100884C
:1013E00080B20EF0C0F8F54C0122232120880EF0C7
:1013F000BAF86088012224210EF0B5F8241D0122DC
:10140000208825210EF0AFF8608801225E210EF0C1
:10141000AAF8BC3C0122B4F876003C2180B20EF060
:10142000A2F802223E21B4F978000DF0D3FE7C34FC
:101430000D22207803210EF013F960781322032186
:101440000EF00EF9052203219AF826000EF008F995
:10145000A0E5DB4B1A461146084605F064BCAFF226
:10146000F013AFF2F412AFF2F811AFF2FC100EF07D
:1014700085F9D24800232B380122007819460DF057
:101480008CFFCE48012228380023007811460DF049
:1014900084FFCA480023253801220078022101E098
:1014A0008EE2B1E30DF079FFC44800232A30052213
:1014B000008819460DF071FFC04800235430052202
:1014C000008801210DF069FFBC4800233630052259
:1014D000008864E7AFF26823AFF26C22AFF27021AC
:1014E000B8A00EF04BF996F902000023401C80B220
:1014F000032219460DF051FF96F90200B74CC0EBDC
:10150000C00000EB400004EB40000023408C0622AA
:1015100019460DF042FF96F902000023C0EBC0000F
:1015200000EB400004EB40000E22808819460DF0CD
:1015300034FF96F902000023C0EBC00000EB40002E
:1015400004EB40001322C08819460DF026FF96F9DF
:1015500002000023C0EBC00000EB4000042234F87E
:10156000100001210DF019FF96F902000023C0EBD5
:10157000C00000EB400004EB40000922408801213C
:101580000DF00BFF96F902000023C0EBC00000EB4A
:10159000400004EB40000E22008901210DF0FDFE09
:1015A00096F902000023C0EBC00000EB400004EB02
:1015B00040001322008A01210DF0EFFE96F902008F
:1015C0000023C0EBC00000EB400004EB400004220D
:1015D000408902210DF0E1FE96F902000023C0EBE4
:1015E000C00000EB400004EB40000922808902218A
:1015F0000DF0D3FE96F902000023C0EBC00000EB13
:10160000400004EB40000E22C08902210DF0C5FE0F
:1016100096F902000023C0EBC00000EB400004EB91
:1016200040001322408A02210DF0B7FE96F9020015
:101630000023C0EBC00000EB400004EB400004229C
:10164000808A03210DF0A9FE96F902000023C0EB69
:10165000C00000EB400004EB40000922C08A0321D7
:101660000DF09BFE96F902000023C0EBC00000EBDA
:10167000400004EB40000E22008B03210DF08DFE94
:1016800096F902000023C0EBC00000EB400004EB21
:1016900040001022C08B03210DF07FFE96F902005E
:1016A000C0EBC00000EB400004EB4000008C0023C6
:1016B0001322032134E64AA002904FA0039054A0C5
:1016C000049059A005905EA0069063A0079068A0C2
:1016D0003F1D08900ECF5BF825000EF04FF83748FD
:1016E0000222B8383F21B0F978000DF073FD664C46
:1016F000606D002200F0010024210DF034FF2F4D19
:1017000023213C3D28780DF099FF606D0022C0F345
:10171000400040210DF027FF6878B8E043414E209B
:1017200020202020202020202020202020202020B9
:1017300000000000B60C0820537420202020202038
:1017400053743120202053743220202000000000E8
:1017500049E1202020203E20493120202025493207
:101760002020205E0000000055E1202020203C20A9
:101770005531202020235532202020240000000055
:10178000556E202020202820D83120202021D8323A
:1017900020202040000000008AC00720706C20201C
:1017A00020202820D83120202021D832202020407D
:1017B0000000000086C0072088C0072040010010FC
:1017C000EEAC01004C4220202020202020202020B0
:1017D000202020202020202000000000E00E0820F3
:1017E000202020203F2020202020202020242023D3
:1017F0002040202100000000202020202020202048
:10180000202020202020204A2020206A00000000E4
:10181000202020202020202020202020202020598F
:101820002020207900000000202020682020206D4A
:101830002020202020512071205A207A0000000012
:1018400020202073202020532020202020202043EF
:101850002020204400000000202020662020204678
:101860002020202020202063202020640000000071
:101870002020202020202020202020202041206106
:10188000204220620000000000C009206CE02121FD
:101890000DF0D4FE05F13C04002220884A210DF011
:1018A00062FE608800226A210DF05DFEDF4C00229E
:1018B000592120780DF057FE6078002279210DF033
:1018C00052FEDB4C00226821206880B20DF04BFEF6
:1018D000D84800226D21006880B20DF044FED64D3C
:1018E0000022512128880DF03EFED44E00227121A5
:1018F00030880DF038FE688800225A210DF033FE42
:10190000708800227A210DF02EFECD4D002241215B
:1019100028780DF028FECB4E0022612130780DF0A2
:1019200022FE6878002242210DF01DFE7078002210
:1019300062210DF018FE2068002280B243210DF0D4
:1019400012FE6068002280B244210DF00CFEBE4CF5
:1019500000226321206880B20DF005FE606800223D
:1019600080B2642105F0ADB9B84B1A46114608465D
:101970000DF004FFB64C20784FF000034FF0060244
:1019800019460DF00AFD0023062201219AF82100D4
:101990000DF003FDB4200FF061FE80B2002306229B
:1019A00002210DF0FAFCA0880023102219460DF048
:1019B000F4FCB6200FF052FE002380B21022EEE4B9
:1019C000A4A00290A948B0F90020B0F90200C82AEA
:1019D00005DDC82801DDA6A00CE0ABA00AE0C82800
:1019E00001DDAFA006E0A148B838B0F97600C828FC
:1019F00001DDB1A00290B6A00390BBA00490C0A0EE
:101A00000590C5A04A90CAA04B90CFA04C90D4A0FE
:101A10004D90D9A04E90DEA0944A4F90E2A05A3249
:101A2000509013784AA850F823300693537850F812
:101A300023300793937850F823300893D37850F8E5
:101A400023300993137950F823300A93537950F8CF
:101A500023300B939279DAA350F82200834A0C903A
:101A6000B83AB2F906200BEB82021361DAA3536194
:101A7000DFA39361E4A3D361E9A31362EEA35362EE
:101A8000F3A39362F8A3D362FDA313636F4B1533E3
:101A9000536331B16A1A022A01DD891C01E0A942AF
:101AA00000DD317196F904109AF809500BEB8100B2
:101AB00000F10400052D0EC801D2029803E008EBE6
:101AC000850050F8140C0DF059FE96F90400A0B1F1
:101AD00096F9011089B1884203D1EF4880F83C4063
:101AE0000BE0401A012802D0022804D005E0EA48A1
:101AF00080F8284001E0E8480475E84D0A240122F6
:101B0000B5F908006C2190FBF4F080B20DF02BFDCC
:101B1000B5F90A00F0B300BF90FBF4F000B2012267
:101B200040210DF057FB514C0122383C23216088A5
:101B300080B20DF018FD20880122242180B20DF022
:101B400012FDD74C20784FF000024FF026010DF027
:101B50000AFD207900225E210DF005FD207A002289
:101B600025210DF000FD207B00223C210DF0FBFC27
:101B7000217E364800222A3000EB81003E210DF004
:101B80002CFEA08B00227B210DF0EDFC9AF81700B3
:101B900078B100E033E03A200DF07BFABE4C20250E
:101BA00025543A200DF075FA25543A200DF071FABB
:101BB0002554BC4C4FF4616100222068B0FBF1F069
:101BC00080B27A210DF0CFFC21683C20B1FBF0F10E
:101BD000B1FBF0F200FB121000225A210DF0C3FC01
:101BE000CC200FF03BFD002380B2132219460DF0EC
:101BF000D4FB002304221946AB4805F0A8B8B5F978
:101C00000C00C0F1000087E7BAF8781059B15FEA1C
:101C10008C7109D5569800283FF41BAC0B4BA3A23E
:101C2000A8A1AEA019E465E169E1000082C0072027
:101C3000C0C0072018020010B4C00720B0C00720A1
:101C4000D8C00720DAC00720C8C00720EEAC0100CA
:101C5000384002402020CDE5EEEFF0E5E4E5EBE58D
:101C6000EDEDEEF1F2FC202000000000400100103C
:101C700020C220F0E0E1EEF2E520C1CFD1312CC14D
:101C8000CFD132200000000020202020C220F0E030
:101C9000E1EEF2E520C1CFD131202020000000008C
:101CA00020202020C220F0E0E1EEF2E520C1CFD1DB
:101CB00032202020000000002020D0E0E1EEF2E001
:101CC00020EEF220E1E0F2E0F0E5E8200000000084
:101CD0002055E13D2020206CC22049E13D202020FC
:101CE0002040C020000000002055ED3D2020202392
:101CF000C22049ED3D2020202024C020000000000B
:101D00002030253A305E3A302620303C2F3E2020CD
:101D10002F307B200000000020C1E0F2E0F0E5FF62
:101D2000204E3120202020202020202000000000F4
:101D300020C1E0F2E0F0E5FF204E322020202020FC
:101D4000202020200000000020C1E0F2E0F0E5FFAC
:101D5000204E3320202020202020202000000000C2
:101D600020C1E0F2E0F0E5FF204E342020202020CA
:101D7000202020200000000020C1E0F2E0F0E5FF7C
:101D8000204E352020202020202020200000000090
:101D900020C1E0F2E0F0E5FF204E36202020202098
:101DA000202020200000000020C1E0F2E0F0E5FF4C
:101DB000204E37202020202020202020000000005E
:101DC00020C1CFD131202020202020202020202001
:101DD000202020200000000020C1CFD13220202070
:101DE0002020202020202020202020200000000073
:101DF00020CDE0E3F0F3E7EAE020202020202020BF
:101E0000202020200000000020D1E5F2FC2020202E
:101E10002020202020202020202020200000000042
:101E200020D1EFE5F6F4F3EDEAF6E8E820202020F3
:101E3000202020200000000020C6F3F0EDE0EB2081
:101E4000F1EEE1FBF2E8E920202020200000000074
:101E500020C1E0F2E0F0E5E9EDFBE920E6F3F0ED8A
:101E6000E0EB20200000000020D3F1F2E0EDEEE2F4
:101E7000EAE8202020202020202020200000000050
:101E800020D1E1F0EEF120E0E2E0F0E8E9202020CE
:101E900020202020000000009A070820E00E0820E3
:101EA00020400240B8C007208AC007202020202000
:101EB000EDE520EFEEE4EAEBFEF7E5EDE020202093
:101EC0002020000020202020202020C1E0F2E0F08F
:101ED000E5FF20202020202020200000202020209E
:101EE000202020C0C2C0D0C8DF21212020202020F7
:101EF000202000009BA3A1A2A6A1ACA092E6B1A1C4
:101F00000291B649097859B1B5A10391BAA10591D9
:101F1000BFA104919AF82800D04628B1C2A004E0DD
:101F2000C7A10391CCA1F2E7D1A00690D6A007905B
:101F3000DBA00890E0A00990E5A00A90EAA00B9031
:101F4000EFA00C90F4A00D905598F94D3028F94869
:101F5000F1462ED00E90361DF54F0ECED03799A0FB
:101F60000DF00CFCB5F876000122402180B20DF096
:101F7000FAFA02222121B5F978000DF02BF9B5F813
:101F800074000022242180B20DF0EDFA98F92700A8
:101F90000022772180B20DF0E6FAB5F90000A0F535
:101FA000AA41553907D14A1E5121E3A00DF015FC75
:101FB00006E00D90CFE70122512180B20DF0D3FA57
:101FC000B5F9081091FBF9F0302802D17978082989
:101FD00004D03C2805D17878092802D1D84880F867
:101FE0003C40D84C01225B2120880DF0BCFA60886F
:101FF00001225D210DF0B7FAA08801227B210DF0AE
:10200000B2FAE08801227D210DF0ADFA012220898B
:102010002921A7E403EB430101EB0310C9492A314D
:1020200001EB800090F83D00C00710D05698F8B141
:10203000C04B153BAFF28C12C3A1C9A00DF09EFBA3
:1020400098F902000022401C80B223218AE4CEEBE2
:10205000CE00C94D00EB400005EB4000818C69B11A
:10206000569828B1B34BC5A2153BCAA1CFA0E5E74E
:10207000B04B153B1A4611460846DFE7B0F90A0097
:10208000002803DD6EA00390CEA002E054A00390D0
:10209000D2A00590D7A00490DCA00690E1A0079004
:1020A000E6A00890EBA00990F0A00A90F5A00B9094
:1020B000A0480C90D6E90123F8A1FEA00DF05EFB2C
:1020C00098F902000022401C80B240210DF04BFA2A
:1020D00098F902000A26C0EBC00000EB400005EBB7
:1020E00040000122B0F90800242190FBF6F080B2F4
:1020F0000DF039FA98F90200C0EBC00000EB400087
:1021000005EB4001B1F90A00002801DCB1F90C002F
:10211000022223210DF05EF898F902000022C0EBA4
:10212000C00000EB400005EB40003F21B0F9040087
:102130000DF050F898F902000022C0EBC00000EB4F
:10214000400005EB40007721408A0DF00CFA98F929
:102150000200C0EBC00000EB400005EB4000B0F90E
:102160000E10B3E1E220E1E0F2E0F0E5E9EDEEECA3
:1021700020E6F3F0EDE0EBE5000000002020202059
:1021800020E2E2E5E4E8F2E520E5B8202020202086
:102190000000000020CFF0E82020EDE5EEE1F5EEB4
:1021A000E4E8ECEEF1F2E8200000000020C1C0D22B
:1021B000C0D0C5DF20CDC520C2C2C5C4C5CDC0209A
:1021C00000000000202020202020C1C0D2C0D0C5A7
:1021D000DF202020202020200000000072C00720E7
:1021E000202020F0E0E7F0FFE6E0E5F2F1FF20201C
:1021F000202020200000000020202049F0E0E7F00F
:102200003D2020202021C020202020200000000090
:1022100020202055E1E0F23D202020202040C22057
:10222000202020200000000020202020C4D22E20CA
:10223000EDE5E8F1EFF0E0E2E5ED20200000000040
:1022400020202020E7E0F0FFE6E0E5F2F1FF20208B
:10225000202020200000000020202049E7E0F03D61
:10226000202020202021C02020202020000000004D
:1022700020202074E1E0F2203D20202024B04320E3
:102280002020202000000000202020C7E0F0FFE4F4
:102290003D20202020772520202020200000000045
:1022A00020202043E1E0F23D202020202051C02AC0
:1022B000F72020200000000020202055FD31203D87
:1022C00020202020205BC2202020202000000000B1
:1022D00020202055FD32203D20202020205DC220DE
:1022E000202020200000000020202055FD33203D2C
:1022F00020202020207BC220202020200000000061
:1023000020202055FD34203D20202020207DC2208B
:10231000202020200000000020202055FD35203DF9
:10232000202020202029C220202020200000000082
:102330008800001003AD01002D2D2D2D2D2D000046
:102340009A070820A20C08202020202020C1E0F2BB
:10235000E0F0E5FF20B923202020202020200000ED
:1023600020202020202020C0C2C0D0C8DF21202073
:102370002020202020200000E00E08202020202007
:10238000202020202020202020202020202020204D
:10239000202000002020202020EDE520EFE5F0E5C2
:1023A000E4E0FEF2F1FF2020202000002020D1E810
:1023B000E3EDE0EBFB20F2E5EBE5ECE5F2F0E8E83D
:1023C000202000002049E7E0F03D202020202020B0
:1023D0002023C02020202020000000002049F0E021
:1023E000E7F03D20202020202023C0202020202096
:1023F000000000002055E1E0F2203D2020202024B4
:10240000C220202020202020000000002074E1E0D5
:10241000F2203D202020203FB043202020202020FB
:102420000000000020534F4320203D202020207733
:102430002520202020202020000000002043E1E073
:10244000F2203D2020202051C02AF72020202020EB
:102450000000000020534F4820203D202020203E37
:1024600025202020202020200000000020496D6130
:1024700078203D202020203C4120202020202020AA
:10248000000000002052425420203D202020205BEC
:10249000F7202020202020200000000020202031D4
:1024A00020782047594650343837352020202020C6
:1024B0000000000020202020C1C0D2C0D0C5DF20F5
:1024C0004E4020202020202000000000B0F9100005
:1024D000012241434FF47A7091FBF0F080B2512118
:1024E0000DF041F898F80100082802D1BD4880F8A5
:1024F0003C4098F902000122C0EBC00000EB400014
:1025000005EB40005121C0890DF02DF898F902002B
:102510000122C0EBC00000EB400005EB40003C2175
:10252000B0F9140090FBF6F080B20DF01CF898F9A9
:1025300002000022C0EBC00000EB400005EB4000B1
:102540003E21008A0DF00FF898F902000122C0EB3D
:10255000C00000EB400005EB40005B21C08A58E55D
:10256000A1484646BEF1000F406D05D0C0F34000C3
:10257000BEF1010F03D006E000F0010003E0BAF85D
:102580007A20012A02D048B198A008E0A3A20292C2
:10259000A8A20392AD4A9BA0049229E0ACA05FEAF6
:1025A000CC7201D0B0A212E0B54A12F80E20D706C4
:1025B00001D5B4A20BE0170701D5B8A207E0570771
:1025C00001D5BCA203E012F03C0F01D1BFA20292E0
:1025D000C4A2AB4F0392C9A2BF1C049217F80E20ED
:1025E0000AB1CCA200E0D1A20592984A1532069217
:1025F000002B01DCA94200DA317196F904500BEB93
:102600008502121D5BF825100CCA0DF0B7F896F97B
:1026100002000022401C80B221210CF0A4FF984847
:1026200096F902103C30012230F8110040210CF0E4
:102630009AFF934896F902104030012230F81100B9
:1026400023210CF090FF8E4896F9021038300022BA
:1026500030F8110024210CF086FF7078022844F035
:102660007B83604880F83C4004F076BBB5A3BBA2F6
:10267000C0A1C6A00DF082F85A480122212180F89D
:102680003C407F4C241D608880B20CF06CFF01221E
:10269000402103F04FBE55465FEACC7019D05698E2
:1026A00008B1C0A000E06948A6A3C3A2C8A10290D7
:1026B0000DF064F84B4805F14805002280F83C40D5
:1026C000A888232180B20CF04EFF012240212888E7
:1026D00001E0C5A0E8E780B29BE4C9A00290CEA0CB
:1026E0000390D3A00490594815300590022B02DDC9
:1026F00088F8046003E0A94201DA88F8041098F928
:102700000410D1A00BEB8102121D5BF821100CCA42
:1027100003F07DBAB9F1210F07D0D1A04B4B014690
:10272000029003F11502D4A0F2E7D9A0F6E7DE4843
:102730000290DEA0039031B1012908D002290AD00D
:1027400003290CD00FE0DFA00290E4A00AE0E9A08A
:102750000290EEA006E0F3A00290F8A002E0F1A043
:102760000290FCA003900346D0A1CF48029A04F047
:10277000DABA00BFB9F1050F10D0B9A0334B024649
:1027800002901533F9A1FFA00CF0F8FF01200DF025
:10279000E7FD00222121BAF872009CE7BCA0EDE71A
:1027A000F8A3F8A2F7A1F7A00CF0E8FF04218AF83B
:1027B0001E109AF8211001290FD002290ED00329EA
:1027C0000DD006290CD00C290BD0F4A11F48029182
:1027D0008AF81E4015300390ECE1FFE100E20BE2C5
:1027E0000CE20DE29A07082000C0092020202020DA
:1027F000C1CFD12120C2DBCACBDED7C5CD2020205E
:10280000000000002020202020202020C1CFD13235
:102810002020202020202020000000002020202038
:10282000CED2D1D3D2D1D2C2D3C5D2202020202023
:10283000000000002020C220D1D2D0D3CAD2D3D0F1
:10284000C520C8C1DDCF202000000000EEAC010093
:1028500020202020C1CFD12120C2CACBDED7C5CDB8
:10286000202020200000000020E0E2E0F0E8FF202F
:10287000F1E5F2E8202020202020202000000000A8
:102880000401001020E0E2E0F0E8FF20EFE5F0E5D1
:10289000E3F0E5E2202020200000000020E0E2E05C
:1028A000F0E8FF2055E2FBF53C55ECE8ED20202058
:1028B0000000000020E0E2E0F0E8FF2055E2FBF538
:1028C0003E55ECE0EAF120200000000020F1EEF19E
:1028D000F2EEFFEDE8E5202D20EDEEF0ECE020201B
:1028E000000000002055E8F1F2203D20202020408B
:1028F000C220202020202020000000002049E8F1F4
:10290000F2203D2020202023C02020202020202035
:102910000000000020C4D220EDE5E8F1EFF0E0E295
:10292000E5ED202020202020000000002074E8F1A8
:10293000F2203D20202024B04320202020202020F1
:102940000000000020C2FBF5EEE420202020202023
:102950002020202020202020000000002049EDE041
:10296000E3F03D2020202020202040412020202076
:10297000000000002055EDE0E3F03D202020202065
:10298000202021C220202020000000002020202024
:102990002020CDC0C3D0D3C7CAC0202020202020F3
:1029A00000000000202020C0C2C0D0C8DF20D1C558
:1029B000D2C82121212020002046F1E5F2E83D2067
:1029C00020202020202040C3F620202000000000EE
:1029D0002055F1E5F2E83D2020202020202023C2D0
:1029E000202020200000000020202020202020D1B6
:1029F000C5D2DC2020202020202020200000000044
:102A000020CAEEEDF2F0EEEBFC20E5ECEAEEF1F29E
:102A1000E82020200000000020C2FBF0E0E2EDE80A
:102A2000E2E0FEF9E8E920E7E0F0FFE40000000062
:102A300020C0E2F22EE2FBF0E0E2EDE8E22E20E739
:102A4000E0F0FFE40000000020202020D1CFC5D618
:102A5000D4D3CDCAD6C8C820202020200000000032
:102A600020C2FBEAEBFEF7E5ED202020202020200D
:102A700020202020000000002020CACECDD2D0CEC1
:102A8000CBDC20C5CCCACED1D2C8202000000000AB
:102A900020C2EAEBFEF7E5ED2020202020202020B8
:102AA0002020202000000000EC0C0000202020ED61
:102AB000E5E2EEE7ECEEE6E5ED2121212020202005
:102AC0000000000020202020CEF2F1F3F2F1F2E22B
:102AD000F3E5F2202020202000000000202020200C
:102AE0002020E1E0F2E0F0E5FF202020202020205F
:102AF0000000000020202020202020C0E2E0F0E89C
:102B0000FF20202020202020000000002020202066
:102B100020202020F1E5F2E8202020202020202085
:102B200000000000202020202020C1E0F2E0F0E59D
:102B3000FF20202020202020000000002020202036
:102B4000F0E0E7F0FFE6E0E5F2F1FF2020202020B2
:102B5000000000002020202020E7E0F0FFE6E0E574
:102B6000F2F1FF20202020200000000020E4EBE80C
:102B7000F2E5EBFCEDEEF1F2FC202D202021F72E0A
:102B80000000000020C2DBD0C0C2CDC8C2C0DED968
:102B9000C8C920C7C0D0DFC40000000020E2FBEAA3
:102BA000EBFEF7E5ED202020202020202020202013
:102BB0000000000098F90410E3A00BEB81025368B9
:102BC0005BF82120DAA10CF0D9FD98F9010098F901
:102BD0000410884216DA88F8040019E0E0A000E04A
:102BE000E5A00290EAA00390EFA00490AFF6F06099
:102BF0000590F3480690EFE5F2A0F2E7F7A0F0E7C2
:102C0000FCA0EEE7411A012902DD411E88F80410FC
:102C1000022801D188F8040002200DF0A1FBFB4C32
:102C200000222521608A0CF09EFC00225E21A08AF1
:102C30000CF099FC00222621E08A0CF094FC002282
:102C40003C21208B0CF08FFCDD48618B153000EBB4
:102C5000810000223E210CF0C0FD00227B21A08BD0
:102C60000CF081FC00222821E08B78E440F6026021
:102C70000EF0F4FC01B25046AAF84E10402902DDD5
:102C80000021A0F84E10BAF94E0070B1012811D001
:102C9000022819D044DD98F9011098F904209142D6
:102CA0002BDA00BF88F804102CE0C54BC44A153B52
:102CB000D7A102E0C24ADCA3E1A1E7A00CF05EFDCF
:102CC000002088F804002BE098F9010098F904101E
:102CD000884202DA88F8040004E0411A022901DD82
:102CE000801EF7E798F9040010B1012802D017E020
:102CF000B34B10E0CCA3B24A0EE08A1A022A01DDDF
:102D0000891ECFE798F90410421E9142F2D0801E2E
:102D10008142EDD0D6A3DCA2C9A1CFA00CF02EFD3C
:102D200001200DF01DFB98F8040028210CF001FE95
:102D300098F804005B21401CC0B20CF0FAFD98F832
:102D400004007B21801CC0B20CF0F3FD8CE49C4B92
:102D5000153B1A46114608460CF010FD4FF4606012
:102D60000EF07CFC99F902104D464A42402100B217
:102D70000CF0F1FC400100F5806080B2064651A9DC
:102D80000EF0E9FC52A9301D0EF0E5FC694606F193
:102D900008000EF0E0FC01A906F10C000EF0DBFCCF
:102DA00048A906F110000EF0D6FC49A906F114005E
:102DB0000EF0D1FC58A906F118000EF0CCFC9DF8DD
:102DC0004401552808D0502843D042287DD05328AC
:102DD0007CD046287BD047E49DF846015228B5D1E7
:102DE000AFA3B5A2BAA1C0A00CF0C8FC9DF8040026
:102DF000002240210CF0B7FB9DF8050000222321A2
:102E00000CF0B1FB9DF80600002224210CF0ABFB76
:102E10009DF80200002225210CF0A5FB9DF8000082
:102E200000225E210CF09FFB9DF80100401E0C2843
:102E300001D38DF8014062489DF80110153000EB78
:102E40008100002228210CF0C8FC0020AAF84E00C6
:102E50000AE49DF846014128BDD1A948029090A0FE
:102E600003909DF82001412803D19DF821014128BC
:102E70004FD001220021281DFDF7EFF9A1A00490F9
:102E8000A6A00590ABA0069095F904500BEB850128
:102E9000091D5BF825000EC90CF070FC9DF824019B
:102EA00000223E210CF05FFB9DF8250100223D2110
:102EB0000CF059FB9DF82601002229210CF053FB50
:102EC00000229DF822015B2102E063E1B8E251E3B8
:102ED0000CF049FB9DF8200100223C210CF043FB43
:102EE0009DF82101401E0C2801D38DF82141344862
:102EF0009DF82111153000EB810000225D210CF0BE
:102F00006CFC9DF860019DF8611100EB012080B21E
:102F100071E18EA0049093A002AD0346059007CD09
:102F20000CF02CFCBAF84C0000222B2180B222E3DA
:102F3000C2DBD0C0C2CDC8C2C0DED9C8C920C7C09C
:102F4000D0DFC42000000000202020C0C2D2CECCA0
:102F5000C0D2C8D7C5D1CAC8C920202000000000EF
:102F600020F0E0E720E220ECE5F1FFF62020202031
:102F7000202020200000000020F0E0E720E22032A6
:102F800020ECE5F1FFF6E0202020202000000000EA
:102F900020E4EBE8F2E5EBFCEDEEF1F2FC20202082
:102FA00028F72E200000000020EEF7E5F0E5E4ED24
:102FB000EEE520E2EAEBFEF7E5EDE8E500000000D3
:102FC00003AD010020F0E0E720E2203320ECE5F142
:102FD000FFF6E020202020200000000020F0E0E7A5
:102FE00020E220EFEEEBE3EEE4E0202020202020A2
:102FF0000000000020F0E0E720E220E3EEE42020E3
:103000002020202020202020000000008800001028
:1030100020C6F3F0EDE0EB20EFF3F1F220202020CA
:10302000202020200000000020CEF7E8F1F2E8F296
:10303000FC20E6F3F0EDE0EB202020200000000073
:103040002028202020202020202020202020202078
:103050002020202000000000202020C6D3D0CDC09A
:10306000CB20D1CEC1DBD2C8C92020200000000077
:10307000207B2020202020202020202020202020F5
:103080002020202000000000205B20202020202085
:1030900020202020202020202020202000000000B0
:1030A00020203025282020305E2030403A30233A3E
:1030B000302420200000000020202020202020207C
:1030C000C8C1DDCF202020202020202000000000CB
:1030D000202020E8EBE820E2EAEBFEF7E5EDE8E56A
:1030E000202020200000000020202020CFE5F0E557
:1030F000E7E0E3F0F3E7EAE0202020200000000012
:10310000080D0000202020202020F3F1F2F0E0ED57
:10311000E5EDE02020202020000000002020305B92
:103120005D2020303C20303E3A303D3A302920208E
:1031300000000000202020202055ECE8ED3D20205C
:103140002BC2202020202020000000002020202052
:10315000EDE520F3F1F2F0E0EDE5EDE020202020B8
:1031600000000000202020202055F1E5F2E83D205D
:10317000202BC22020202020000000009DF80110FC
:10318000FD48002200EB810028210CF026FBAAF864
:103190004E40DBE59DF84601432809D053282DD049
:1031A0005A283CD0052657287ED04B287DD0CDE527
:1031B000AFF2C0600290F1A024E0AFF2700080E0B6
:1031C00001220021281DFDF748F8AFF2C800059044
:1031D000AFF2B800069095F904500BEB8501091D7C
:1031E0005BF825000EC939E08DF821415BE000BF96
:1031F0009DF84501401C00222B21FEE2AFF20C702D
:103200000290E4A00390AFF2681004909DF82001B2
:103210004128D5D19DF821014128D1D1CDE7E3A0A6
:103220000290E8A00390EDA004909DF820014128B1
:1032300003D19DF82101412842D001220021281DFF
:10324000FDF70BF8EBA00590F0A0069095F904604F
:103250000BEB8600001D0EC85BF826000CF08EFA02
:103260009DF8240100223E210CF07DF99DF82501F6
:1032700000223D210CF077F99DF82601002229213A
:103280000CF071F99DF8220100225B210CF06BF922
:103290009DF8200100223C210CF065F99DF82101E8
:1032A000401E0C28A0D201E012E053E09DF821114D
:1032B000B148002200EB81005D210CF08EFA97E707
:1032C000D8A002AD0346059007CD0CF057FA8FE762
:1032D000DAA00290DFA00390E4A00490BFA00590C4
:1032E000E8A00690EDA00790F2A00890F7A0099042
:1032F000FCA00A9095F904700BEB8700001D0EC826
:103300005BF8270040E000BF8DF8014068E000BF97
:103310009DF82101002205EB800077210CF05DFA79
:10332000BDF8480101227A210CF01DF99DF8030037
:103330009DF80710012200EB012080B23C210CF027
:1033400012F9BDF84A0101223E210CF00CF9AAF84D
:103350004E60FBE4E9480290BEA00390C3A0049035
:103360009EA00590E6A00690CCA00790D1A0089062
:10337000E9A00990EEA00A9095F904500BEB8501A5
:10338000091D5BF825000EC90CF0F8F99DF8450100
:103390000022401C21210CF0E6F89DF804000022D8
:1033A00040210CF0E0F89DF80500002223210CF0EC
:1033B000DAF89DF80600002224210CF0D4F89DF8DC
:1033C0000200002225210CF0CEF89DF8000000221A
:1033D0005E210CF0C8F89DF80100401E0C2893D225
:1033E0009DF80100644D002205EB800028210CF0BF
:1033F000F4F99DF82401002269210CF0B4F89DF83D
:10340000250100226C210CF0AEF89DF82601002267
:1034100073210CF0A8F89DF82201002271210CF014
:10342000A2F89DF82001002272210CF09CF89DF872
:103430002101401E0C28FFF46BAF8DF8214167E796
:10344000C1A002909DF846014C2806D0542806D011
:10345000552806D0752806D007E0C1A004E0C6A014
:1034600002E0CBA000E0D0A00390AFF2CC300490FB
:103470009DF82001412803D19DF82101412878D0F1
:1034800001220021281DFCF7E8FEAFF288300590EC
:10349000AFF27830069095F904500BEB8501091DC9
:1034A0005BF825000EC90CF069F99DF82401002293
:1034B0003E210CF058F89DF8250100223D210CF02A
:1034C00052F89DF82601002229210CF04CF89DF8B5
:1034D000220100225B210CF046F89DF82001002219
:1034E0003C210CF040F89DF82101401E0C2801D32E
:1034F0008DF821419DF821111F48002200EB810029
:103500005D210CF06AF900BF9DF845010022401CC6
:103510002B210CF028F89DF80400002240210CF02B
:1035200022F89DF80500002223210CF01CF89DF8DC
:103530000600002224210CF016F89DF8020000225B
:1035400025210CF010F89DF8000000225E210CF0FF
:103550000AF89DF80100401E0C2801D38DF80140A7
:103560009DF801100448002200EB8100282103F09F
:1035700026BA25E12DE140E118AD010020202020F0
:103580002020E1E0F2E0F0E5E820202020202020CB
:103590000000000020E0F1E8ECECE5F2F0E8FF20AC
:1035A000E1E0F2E0F0E5E82000000000202020C289
:1035B000FBF0E0E2EDE8E2E0FEF9E8E9202020207F
:1035C0000000000020202020202020E7E0F0FFE481
:1035D0002020202020202020000000002030252F47
:1035E0002820202F305E2030403A30233A302420EB
:1035F00000000000202020202020E7E0E2E5F0F895
:10360000E5ED2020202020200000000020305B2F4E
:103610005D20202F303C20303E3A303D3A3029208A
:103620000000000020202020EDE520E7E0E2E5F0AA
:10363000F8E5ED20202020200000000020202020A0
:10364000202020D0E0E7F0FFE420202020202020D0
:103650000000000020202020202020E1E0F2E0F007
:10366000E5E82020202020200000000020CDE0F709
:10367000E0EBEE20202020202020202020202020F1
:10368000000000002020202020202020202055E1C4
:10369000E0F23D20203CC2200000000020CAEEEDF8
:1036A000E5F620202020202020202020202020207F
:1036B000000000002030712F7720202F3072203042
:1036C000693A306C3A30732000000000202020203E
:1036D00020202020202055E1E0F23D20203EC22085
:1036E0000000000020202020CEF2E4E0EDEE2020BB
:1036F00020207AE02AF72E2000000000EC0C0000C9
:1037000020202020202020202055E1E0F23D202014
:103710003CC220200000000020202020202020206B
:103720002055E1E0F23D20203EC2202000000000B4
:1037300020A8ECEAEEF1F2FC20202020207AE02AFA
:10374000F72E202000000000202020C0E2E0F0E85A
:10375000FF20C1CFD1204E2B2020202000000000D0
:103760002020202020EEF2EAEBFEF7E8EBF1FF202C
:103770002020202000000000202020202020EFE535
:10378000F0E5E3F0E5E2202020202020000000000A
:10379000202020E7E0E2FBF8E5EDEE2055E2FBF526
:1037A0002E20202000000000202020E7E0EDE8E6A9
:1037B000E5EDEE2055E2FBF52E2020200000000074
:1037C000AFF2786002AD0346059007CD0BF0D6FF4F
:1037D0009AE6AFF6E0400290AFA00390AFF24070DF
:1037E0000490B34802AD0346059007CD0BF0C6FF29
:1037F0009DF845010022401C21210BF0B4FE9DF8EC
:103800000400002240210BF0AEFE9DF805000022CE
:1038100023210BF0A8FE9DF80600002224210BF0C6
:10382000A2FE9DF80200002225210BF09CFE9DF8CF
:10383000000000225E210BF096FE9DF80100401E64
:103840000C28FFF49BAC8DF8014097E4624501D150
:1038500098A05CE0424501D19CA058E0A2F59050B0
:10386000D83801D19FA052E0A2F59050CC3801D1B8
:10387000A2A04CE0A2F5B8507A3801D1A5A046E04C
:10388000A2F5B850753801D1A8A040E0A2F590503B
:10389000CA3801D1ABA03AE0A2F59050C53801D1A9
:1038A000AEA034E040F67810824201D1B1A02EE003
:1038B00040F66C118A4201D1B4A028E0A2F59053E1
:1038C000E83B01D1B7A022E0A2F5B853983B01D163
:1038D000BAA01CE0A2F59053D43B01D1BDA016E0E4
:1038E000A2F5B853843B01D1C0A010E0A2F510634B
:1038F000923B01D1C3A00AE0A2F51063793B01D14C
:10390000C6A004E08242D1D08A42D5D0C9A002909C
:10391000CEA00390D3A00490D8A00590DDA006907F
:10392000E2A00790E7A00890ECA00990F1A00A900F
:10393000F6A00B90FBA00C90AFF6F8703F1D0D9019
:103940000ECF4E465BF825000BF018FF30790828A3
:1039500002D1FA4880F83C40F94CB4F90A0020281A
:1039600005DA0022212180B20BF0FDFD05E04FF0C9
:10397000FF322121F3A00BF030FFB4F90C000D2829
:1039800005DA0022402180B20BF0EDFD05E04FF09A
:10399000FF324021EBA00BF020FFB4F90E006428A9
:1039A00005DA0022232180B20BF0DDFD05E04FF0A7
:1039B000FF322321E3A00BF010FFE14CE24D8034F5
:1039C000606AA84206DB6FF004023F21DFA00BF023
:1039D00004FF03E000223F210BF04BFC00222B21CF
:1039E00009200BF0C0FD0022282105200BF0BBFDB3
:1039F000A06AA84206DB6FF004022921D3A00BF0D5
:103A0000ECFE03E0002229210BF033FCA06AA8425F
:103A100006DB6FF004022921CCA00BF0DEFE03E0F0
:103A2000002229210BF025FCE06AA84206DB6FF09A
:103A300004023C21C5A00BF0D0FE03E000223C2193
:103A40000BF017FC206BA84206DB6FF004023E214E
:103A5000BEA00BF0C2FE03E000223E210BF009FCE9
:103A60006FF0030422465B21BAA00BF0B6FE22469B
:103A70002421B8A00BF0B1FE22462521B5A00BF001
:103A8000ACFE22465E21B3A00BF0A7FE2246262103
:103A9000B0A00BF0A2FEBFE220EFF0E5E4EEF5F0FF
:103AA000E0EDE8F2E5EBFF20B92120200000000066
:103AB00070120000202020C8C1DDCF3232302F36F6
:103AC000302D32344120202000000000202020C86A
:103AD000C1DDCF3232302F36302D3132412020201F
:103AE00000000000202020C8C1DDCF3232302F344A
:103AF000382D32344120202000000000202020C832
:103B0000C1DDCF3232302F34382D313241202020E8
:103B100000000000202020C8C1DDCF3232302F3617
:103B2000302D31304120202000000000202020C80E
:103B3000C1DDCF3232302F36302D354120202020CC
:103B400000000000202020C8C1DDCF3232302F34E9
:103B5000382D31304120202000000000202020C8D6
:103B6000C1DDCF3232302F34382D35412020202096
:103B700000000000202020C8C1DDCF3232302F32BB
:103B8000342D32344120202000000000202020C8A5
:103B9000C1DDCF3232302F32342D3132412020205E
:103BA00000000000202020C8C1DDCF3232302F3489
:103BB000382D34304120202000000000202020C873
:103BC000C1DDCF3232302F36302D3430412020202D
:103BD00000000000202020C8C1DDCF3232302F3459
:103BE000382D32304120202000000000202020C845
:103BF000C1DDCF3232302F36302D323041202020FF
:103C000000000000202020C8C1DDCF3232302F322A
:103C1000342D35304120202000000000202020C815
:103C2000C1DDCF3232302F32342D323541202020C9
:103C300000000000202020D2E8EF20EDE5E8E7E2D8
:103C4000E5F1F2E5ED20202000000000C4E0F2E004
:103C500020E8E7E3EEF22E2030212F30402F3023F2
:103C600000000000F8E0F1F1E82020202020532F90
:103C70004E30303030303F2000000000D3CAD33205
:103C800030322E2B2820532F4E3030303030292028
:103C900000000000CFCE20202020202020207620F1
:103CA0002020205B2020202000000000C1CFD13147
:103CB000202D20202020532F4E30303030303C201B
:103CC00000000000C1CFD132202D20202020532F12
:103CD0004E30303030303E2000000000525332333E
:103CE0003220202020202076202020242020202068
:103CF0000000000043414E20504448202D202076F3
:103D000020202025202020200000000043414E20BC
:103D1000534448202D2020762020205E2020202083
:103D20000000000045746865726E65742D20207671
:103D30002020202620202020000000009A070820B4
:103D4000880000102A2A000040420F002A2A2A2A4E
:103D50002A2A00002D2D2D2D2D2D2D2D2D0000007A
:103D6000624502D1AFF2B42066E0424502D1AFF223
:103D7000A42061E0A2F59050D83802D1AFF29C2087
:103D80005AE0A2F59050CC3802D1AFF2902053E027
:103D9000A2F5B8507A3802D1AFF288204CE0A2F5F3
:103DA000B850753802D1AFF27C2045E0A2F59050B2
:103DB000CA3802D1AFF274203EE0A2F59050C53867
:103DC00002D1AFF2682037E0A2F51060783802D156
:103DD000AFF2602030E0A2F510606C3802D1AFF293
:103DE000542029E0A2F59050E83802D1AFF24C20DF
:103DF00022E0A2F5B8508E3801D1DDA01CE0A2F57A
:103E00009050D43802D1AFF2342015E0A2F5B8506A
:103E10007F3801D1DCA00FE0A2F51060923802D10A
:103E2000AFF2202008E0A2F51060793802D1AFF29D
:103E3000142001E0AFF204200290AFF2F0100390E2
:103E4000AFF2E0100490D6A00590AFF2A01006905B
:103E5000AFF290100790D8483F1D08900ECF4E4605
:103E60005BF825000BF08AFCD44DB5F90A00202838
:103E700005DA0022212180B20BF075FB06E04FF03D
:103E8000FF322121AFF244100BF0A7FCB5F90C0072
:103E90000D2805DA0022402180B20BF064FB06E019
:103EA0004FF0FF324021AFF264100BF096FCB5F9F1
:103EB0000E00642805DA0022232180B20BF053FBA8
:103EC00006E04FF0FF322321AFF288100BF085FCA3
:103ED000BA4DBB4F8035686AB84207DB6FF0040209
:103EE0003F21AFF298100BF078FC03E000223F2155
:103EF0000BF0BFF900222B214FF461700BF033FB64
:103F00000022282105200BF02EFBA86AB84207DB0F
:103F10006FF004022921AFF2CC100BF05EFC03E03D
:103F2000002229210BF0A5F9E86AB84207DB6FF0FF
:103F300004023C21AFF2EC100BF04FFC03E0002236
:103F40003C210BF096F9286BB84207DB6FF00402B6
:103F50003E21AFF208200BF040FC03E000223E219E
:103F60000BF087F996F90400032802D1717809292A
:103F700013D096F90110A1B1012915D002291FD043
:103F8000032925D004292BD005292ED0062934D089
:103F9000072938D0082939D03EE08A4880F83C40CB
:103FA0003AE078BB142238E0022835DAC0F101008B
:103FB000C0B202225FF00C010BF022FC02F0CCBE7A
:103FC000022829DAC0F101000222C0B20F21F3E772
:103FD000022821DAC0F101000222C0B21221EBE76F
:103FE000032819DAC0F1020012E0042814DAC0F143
:103FF00003000622C0B20321DEE704280CDAC0F178
:10400000030005E008E0C0F1040001E0C0F1050094
:104010000A22C0B21146CFE7002200210846CBE7B2
:1040200069A002906EA0039073A0049078A0059000
:104030007DA0069082A0079087A008908CA0099090
:1040400091A00A9096A00B909BA00C90A0A00D9020
:10405000A5A00E90AAA00F90AFA01090B4A01190B0
:10406000B9A01290BEA01390C3A01490C8A0159040
:10407000CDA01690D2A01790D7A01890DCA01990D0
:10408000E1A01A90E6A01B90EBA01C90F0A01D9060
:10409000F5A01E90FA481F90FAA02090FFA0219052
:1040A000022B02DD89F8046003E0A94201DA89F8F5
:1040B000041099F90440FFA00BEB8401D1E901231E
:1040C0005BF824100BF05AFB01200CF049F999F928
:1040D000040011284ADABAF852000022401C3C21A0
:1040E000544680B20BF03FFAB4F862004FF0000281
:1040F0004FF0280110B1E2481F3801E0E0481A38BB
:104100000BF06BFBB4F85C004FF000024FF029019C
:1041100008B1EEA000E0EFA00BF05FFB94F82500E3
:10412000552824D06FF003027921ECA00BF055FB49
:1041300034F8540F0122212180B20BF014FA608868
:104140000122402180B20BF00EFAA0880122232127
:1041500080B20BF008FA608901225E2180B20BF078
:1041600002FAA0890022262180B2BBE1C2E1FAE175
:10417000202020C8C1DDCF3232302F36302D3330F1
:104180004120202000000000202020C8C1DDCF32C7
:1041900032302F36302D31354120202000000000F4
:1041A000D3CAD330302B2E302820532F4E3030300E
:1041B0003030292000000000442900008800001051
:1041C00040420F009A07082020D1F2E0EDE4E0F031
:1041D000F2EDFBE520202020202020200000000020
:1041E00020C2F0E5ECFF20E820E4E0F2E02020200F
:1041F000202020200000000020D1F2F0F3EAF2F3AA
:10420000F0E020202020202020202020000000009E
:1042100020CCEDE5ECEEEDE8EAE0202020202020A7
:10422000202020790000000020CEF1EDEEE2EDEE3E
:10423000E920E8F1F2EEF7ED2E204E3C0000000000
:1042400020C7E22EF1E8E3ED2E20202028202020B8
:10425000202020200000000020CEF2EAEBFEF7E54F
:10426000EDE8E520F1E8E3EDE0EBE0200000000000
:104270002020E0E2E0F0E8E8202020202920202093
:10428000202020200000000020C0CFC220E8F1F252
:10429000EEF7EDE8EAEEE22020202020000000000A
:1042A000205420EFF0EEE2E5F0EAE8202020F6E5E9
:1042B000EFE820200000000020E1E0F2E0F0E5E877
:1042C000202020202071ECE8ED2E202000000000AE
:1042D00020556D61783D2020202020202021C22003
:1042E00020202020000000002055E1E0F26D6178E0
:1042F000203D20202040C22020202020000000005F
:104300002055E13230B03D20202020202023C22043
:1043100020202020000000002055F1E8E3ED3D20A2
:1043200020202020205EC22020202020000000002D
:1043300020556D696E2EF1E5F2E83D202026C22061
:104340002020202000000000205530E13D202020CA
:1043500020202020203EC22020202020000000001D
:104360002049E1EA2E3D202020202020206AC02084
:1043700020202020000000002049E72EECE0F52E50
:104380003D202020204AC0202020202000000000C6
:1043900020496D61783D202020202020205D412093
:1043A0002020202000000000204B696D61783D2016
:1043B00020202020207B2020202020200000000022
:1043C000204BE2FBF02EE7E0F02E3D202020205B8A
:1043D00020202020000000002054E72EE2EAEB2EEF
:1043E000E02EF12E2021F1202020202000000000CE
:1043F00020746D61783D2020202020202024B043AF
:1044000020202020000000002045746865726E6541
:1044100074202020202020202020202000000000C8
:1044200020C2EDE5F8EDE8E520E4E0F2F7E8EAE89F
:10443000202020200000000020CFEEFDEBE5ECE581
:10444000EDF2EDFBE920EA2DEBFC2E200000000050
:1044500020E1E0F2E0F0E5E82020202020202020EC
:10446000205125200000000020C0E2E0F0E8E9ED46
:10447000FBE520F0E5EBE5202020202000000000F7
:1044800003AD010020CAE0EBE8E1F0EEE2EAE8204B
:1044900020202020202020200000000020D2E5F154
:1044A000F22020202020202020202020202020203A
:1044B000000000002020202020D3D1D2C0CDCEC2C9
:1044C000CAC820202020202000000000E0E2F2EEF8
:1044D000EC2E0000F0F3F7ED2E000000E2FBEAEB1B
:1044E0002E0000000BF03FF8608B01223E2180B2CD
:1044F0000BF039F80AF15A0400222088242180B2F6
:104500000BF031F8608902226A2180B20BF02BF89F
:10451000A08903225B2180B20BF025F8E0890122FB
:104520005D2180B20BF01FF8208A01227B2180B22E
:104530000BF019F8608A01224A2180B20BF013F8BF
:10454000E08A0022212180B20BF00DF8608B00225E
:10455000712180B20BF007F8B4F91C0088B1002279
:104560005121FEF7B8B86FF007027921E6A00BF0F1
:1045700034F9E84800227921B0F870000AF0F3FF1E
:10458000D6E56FF001025121E3A002F018BAE4A0D1
:104590000290E9A00390EEA00490F3A00590F848E3
:1045A00006902AB1A0F115029AF81D004BF82020C0
:1045B000A94202DA89F8041003E0022B01DD89F830
:1045C000046099F904400BEB8400D0E901235BF807
:1045D0002410ECA001F01BBB9AF80B005446401CC1
:1045E000C0B28AF80B000F2809D3002008F1010897
:1045F00008F0FF01E072E177032900D3E077E74894
:104600000290DF4815380390E07F20B1012804D0E4
:10461000022817D003E0E2A000E0E7A0049002AD7A
:10462000EBA00ECD0BF0AAF899F9010060B10128BA
:104630000FD0022812D0032815D0042818D005283E
:104640001BD01EE0E8A0E9E7ED495E2081F82A00D2
:1046500017E0EB495E2081F82D0012E0E8495E206A
:1046600081F830000DE0E6495E2081F8330008E073
:10467000E3495E2081F8360003E0E1495E2081F8DD
:104680003A00E04D28784FF000024FF026010AF082
:104690006AFF287900225E210AF065FF287A00224D
:1046A00025210AF060FF287B00223C210AF05BFFF5
:1046B000297EB3480022153000EB81003E210BF02B
:1046C0008CF8A88B00227B210AF04DFFE07D0028AA
:1046D0007ED03A200AF0DDFCC94C202525543A2032
:1046E0000AF0D7FC255469E4C7A002909AF8230089
:1046F0005746552808D0CA480390A1481538049059
:1047000005900690BC7716E097F824005528C5A0C0
:10471000039007D0C2480490994815380590069038
:10472000022007E0C5A00490BD48059094481538C4
:1047300006900320B877A94202DA89F8041003E052
:10474000022B01DD89F8046099F90410C1A00BEB7C
:104750008102121D5BF821100CCA0BF00FF801202A
:104760000BF0FEFD97F823004FF0000255284FF0A4
:1047700021010CD082481A380BF02FF897F824004A
:104780004FF0000255284FF0400103D086E07C48EE
:104790001F38F1E77A481F380BF01FF85D480022F8
:1047A0002321B0F86E00DCE6B0A00290B5A0039023
:1047B000BAA00490BFA00590C4A006907748C0306E
:1047C000079018300890C7A009906D480A9000E043
:1047D000A8E3A94202DA89F8041003E0022B01DD04
:1047E00089F8046099F90410C4A00BEB8102121D32
:1047F0005BF821100CCA0AF0C1FF01200BF0B0FDDC
:10480000387820B3012828D06FF004022121C1A0FC
:104810000AF0E3FF787830B301282AD06FF0040261
:104820004021BCA00AF0D9FFB87840B301282CD0B1
:104830006FF004022321B7A00AF0CFFFF87850B33D
:1048400001282ED06FF004022821B2A09DE64C482A
:1048500021216FF002021A38DAE7494821216FF06E
:1048600002021F38D4E7464840216FF002021A388E
:10487000D8E7434840216FF002021F38D2E7404892
:1048800023216FF002021A38D6E73D4823216FF04A
:1048900002021F38D0E76FF00202282138481A3888
:1048A00073E66FF0020228213DE39CA0029081A0F4
:1048B00003903A48C03004901830059089A00690C3
:1048C0002F480790A94202DA89F8041003E0022B6E
:1048D00001DD89F8046099F9045088A00BEB85018B
:1048E000D1E901235BF825100AF048FF01200BF005
:1048F00037FD387810B1012805D020E1204800228A
:1049000028211A3819E115E1F7E5F0E5E72079F1FA
:104910002E00000088000010C2DBCACB2E00000071
:1049200020C8C1DDCF3232302F36302D3132C02D8C
:10493000312F32200000000020C8C1DDCF323230DC
:104940002F36302D3132C02D322F322000000000A2
:1049500020C8C1DDCF3232302F34382D3132C02D56
:10496000312F32200000000020C8C1DDCF323230AC
:104970002F34382D3132C02D322F3220000000006C
:1049800003AD0100D1D2C0CDC4C0D0D2CDDBC52093
:10499000D3D1D22E2DCAC82000000000001D000077
:1049A000202020209A209C202D20E2FBE1EEF02008
:1049B0002020202000000000202020BF209D202D4E
:1049C00020F3F1F2E0EDEEE2EAE02020000000004A
:1049D00020D3D1D2C0CDCEC2CAC02020C2D0C5CC37
:1049E000C5CDC820000000002020202020A42020C9
:1049F0002D20E2FBF5EEE420202020200000000026
:104A00009A0708202040024020C0CFC22031E92070
:104A1000F3F0EEE2E5EDFC20212020200000000074
:104A20004429000020C0CFC22032E920F3F0EEE29A
:104A3000E5EDFC20402020200000000020CFE5F024
:104A4000E8EEE420C0CFC232202020202023F72E21
:104A500000000000202020C0CFC220C8D1D2CED775
:104A6000CDC8CACEC22020200000000020D0E5EB37
:104A7000E520E0E22EB93120202020202020202136
:104A80000000000020D0E5EBE520E0E22EB9322066
:104A900020202020202020400000000020D0E5EB36
:104AA000E520E0E22EB93320202020202020202302
:104AB0000000000020D0E5EBE520F1E0ECEEEAE0BC
:104AC000EBE8E1F0EEE2EAE80000000020D0E5EBE0
:104AD000E520E1E0F2E0F0E5E82020202020202899
:104AE0000000000020C1CFD1312BC1CFD132202016
:104AF0002020202020202020000000002020202036
:104B000020202020D2C5D1D22020202020202020EB
:104B100000000000D0C0C1CED72E000020D0E5EBB1
:104B2000E520E0E2E0F0E8FF2020202028202020FF
:104B30000000000000222821FB480AF04EFE8AF8FF
:104B40003540D0E5A94202DA89F8041003E0022BCF
:104B500001DD89F80460F44BF4A21F33F9A1FFA032
:104B60000AF00CFE01200BF0FBFB387920B1012884
:104B700007D0032809D00EE0EB4800223C21401D5D
:104B800007E000223C21E84803E000223C21AFF28C
:104B90007C000AF022FEF74802223A21B0F97800A0
:104BA00001F0FEBBA94202DA89F8041003E0022BEF
:104BB00001DD89F80460DC4BEFA21F33F4A1FAA0F9
:104BC0000AF0DCFD01200BF0CBFB787920B1012845
:104BD00009D002280FD018E000224021F8A00AF0E6
:104BE000FCFD1E200EE000224021F7A00AF0F5FD9A
:104BF00040F2CA3006E000224021F5A00AF0EDFDA7
:104C000045F25550DB498031888000222421F1A0F3
:104C10000AF0E3FDD7480122B8303C2100880AF0B1
:104C2000A2FCD4480122BC303E2100880AF09BFC43
:104C300000222321E948B3E0A94202DA89F80410EE
:104C400003E0022B01DD89F80460B74BE4A21F33B7
:104C5000CFA1E9A00AF092FD01200BF081FBB87909
:104C600020B1012809D002280FD018E000224021ED
:104C7000D3A00AF0B2FD1E200EE000224021D2A0F7
:104C80000AF0ABFD40F2CA3006E000224021D0A07D
:104C90000AF0A3FD45F25550B6498031C880002284
:104CA0002421CCA00AF099FDB2480122B8305B2142
:104CB00040880AF058FCAF480122BC305D21408892
:104CC0000AF051FC0022232169E0D1A00290AAA0A1
:104CD0000390C3A0049094481F300590A94202DAC3
:104CE00089F8041003E0022B01DD89F8046099F9CA
:104CF0000450CDA00BEB8501D1E901235BF8251011
:104D00000AF03CFD01200BF02BFBF87920B10128C3
:104D100009D0022813D01DE000224021A8A00AF0EB
:104D20005CFD1E2006E000224021A7A00AF055FDF0
:104D300040F2CA308F4980318880C8800AE0002262
:104D40004021A3A00AF049FD8A4845F25551803020
:104D50008180C180002224219EA00AF03EFD854D65
:104D60000122B8353C2128880AF0FDFB2E1D0122C6
:104D700030883E210AF0F7FB984800222321008862
:104D800080B20AF0F0FB688801225B210AF0EBFB9D
:104D9000708801225D210AF0E6FB00222121A8484B
:104DA000008880B20AF0DFFBA64801222421008897
:104DB00080B20AF0D8FB8AF8364094E4A2A00290B0
:104DC000A7A00390ACA00490B1A0059056481F3056
:104DD0000690A94202DA89F8041003E0022B01DDF3
:104DE00089F8046099F90410AFA00BEB8102121D41
:104DF0005BF821100CCA0AF0C1FC01200BF0B0FADC
:104E00000AF1780400226088212180B20AF0ABFB0D
:104E100020880022402180B20AF0A5FBA088002251
:104E2000232180B20AF09FFB00222421E088BAE40B
:104E3000A3A00290A8A24BF82720ADA2CCF8042092
:104E4000B1A2CCF80820B6A2CCF80C20364ABAF9A8
:104E50007E401F323C4458464BF824200BEB840420
:104E6000B54A6260A2604A46A94201DA117102E0C5
:104E7000022B00DD167199F9041000EB8102121D5E
:104E80005BF821100CCAADA0C5E3B2A00290B7A098
:104E90000390BCA00490C1A00590C6A00690CBA032
:104EA0000790D0A0089020484C461F300990A94296
:104EB00001DA217102E0012B00DD227194F9041066
:104EC000D4A00BEB810253685BF82120CBA10AF040
:104ED00055FC02200BF044FA94F902000022401C19
:104EE00080B221210AF03FFB94F90210CF48002242
:104EF00030F9110040210AF06DF9CC4994F9020013
:104F0000303931F8101061B16FF001022321AFF692
:104F100034200AF062FC00BFC44994F9020024392D
:104F200086E1C4E17BE37BE3E4AC01002049E1E0FE
:104F3000F23D20202020202020202020203A412047
:104F40000000000020D0E5EBE520202020202020DC
:104F500020203C20202020200000000020D2C5D1AD
:104F6000D220D1C0CCCECAC0CBC8C1D0CEC2CAC05C
:104F700000000000880000102055313D2020202036
:104F80003CC22049313D202020203EC000000000CE
:104F90002055F03D402020242020202020F8E8EC5F
:104FA0003D202023000000002020202020D2C5D159
:104FB000D220C1CFD13120202020202000000000AD
:104FC000556D696E00000000556D617800000000AD
:104FD00055323000282020202429000086C00720D8
:104FE0002055323D202020205BC22049323D202028
:104FF00020205DC0000000002020202020D2C5D14C
:10500000D220C1CFD132202020202020000000005B
:105010002055F03D40202024202020202020202347
:105020002020202100000000202020D2C5D1D22045
:10503000C1CFD1312BC1CFD13220202000000000C0
:1050400088C007208AC0072020C1E0F2E0F0E5E92F
:1050500020202020202020202020204000000000B0
:1050600020C8F1F2EEF7EDE8EAEEE2202020202061
:10507000202020210000000020C4E0F2F7E8EAEE42
:10508000E220F2E5ECEFE5F02E2020230000000006
:1050900020D1F3F5E8F520EAEEEDF2E0EAF2EEE2F7
:1050A0002020202400000000202020202020D1D219
:1050B000D0D3CAD2D3D0C0202020202000000000AE
:1050C00020C4E0F2F7E8EA20F2E5ECEFE5F02E206C
:1050D0004E3120200000000020D1F3F5EEE920EA57
:1050E000EEEDF2E0EAF2204E312020200000000038
:1050F00020D1F3F5EEE920EAEEEDF2E0EAF2204EFF
:10510000322020200000000020D1F3F5EEE920EA53
:10511000EEEDF2E0EAF2204E332020200000000005
:1051200020D1F3F5EEE920EAEEEDF2E0EAF2204ECE
:105130003420202000000000701200002020C2CD8A
:10514000C5D8CDC8C520C4C0D2D7C8CAC820202061
:105150000000000020F2E5ECEFE5F0E0F2F3F0E013
:10516000202020202040B0430000000020746D610A
:105170007820202020202020202020202023B04321
:105180000000000020746D696E2020202020202067
:10519000202020202024B0430000000020D0E5EB98
:1051A000E52020202020202020202020205B2020FF
:1051B0000000000020C7E2F3EA2020202020202069
:1051C00020202020205D20200000000020C4E8F1E5
:1051D000EFEBE5E92020202020202020202820209F
:1051E0000000000020534E4D5020545241502020CA
:1051F000202020202029202000000000202020D274
:10520000C5CCCFC5D0C0D2D3D0DB204E21202020AA
:10521000000000002020C2CDC5D8CDC8C920C4C020
:10522000D2D7C8CA2020202000000000940100101E
:1052300031F81010C9B36FF001022421AFF66450A9
:105240000AF0CBFA94F90200F6496FF0010231F846
:1052500010004FF05B0148B3AFF680500AF0BDFA82
:10526000F04994F90200891D6FF0010231F8100035
:105270004FF05D0178B3AFF69C5000BF0AF0ADFA75
:10528000E84894F902100C306FF0010230F8110078
:105290004FF0280110B3AFF6BC5000BF0AF09DFAE2
:1052A000E04994F902001231B3E009E011E0DD4970
:1052B0000022123931F91000232109F08BFF2BE66F
:1052C000D8490022891F31F91000242109F082FFFA
:1052D000B8E7D5A0C2E7FFE7D3A0CFE7D2A0DDE7CC
:1052E000D1A001F06CBBAFF60C60FAE7D0A0029041
:1052F000D5A00390DAA00490AFF260100590AFF251
:105300004C100690AFF23C100790AFF228100890B6
:10531000D9484C460990A94201DA217102E0022BDA
:1053200000DD267194F90450D4A00BEB8501D1E97E
:1053300001235BF825100AF021FA01200BF010F888
:1053400094F902000022401C80B221210AF00BF9DE
:10535000B44994F9020034394FF00002085C4FF070
:105360004001FF285FD0CBA00AF037FAAD4994F98D
:10537000020026314FF0000231F810004FF02301F7
:10538000F0B3C4A00AF029FAA64994F902000C3936
:1053900031F81010A9B36FF005022421AFF6C460F4
:1053A0000AF01BFA9F4994F902002E316FF00102B6
:1053B00031F810004FF05B0120B3AFF6E06000BFA2
:1053C0000AF00BFA974994F9020036316FF00102A6
:1053D00031F810004FF05D0190B3AFF6007000BFE0
:1053E0000AF0FBF98F4894F902103E306FF0010289
:1053F00030F811004FF0280138B3AFF6207002E00A
:1054000013E014E01DE00AF0E8F9864994F902007F
:1054100046316FF0010231F810004FF029010028E9
:105420007FF461AF5CE79DA09EE79CA0AAE77D4961
:105430000022891F31F91000242109F0CBFEB1E7C9
:1054400001E079A0BCE778A0CAE777A0D7E78A484F
:105450001F38D0E91A24006F5292CDE9534091A031
:10546000029096A003909BA00490A0A00590A5A0F8
:105470000690AAA00790AFA00890B4A00990B9A088
:105480000A90BEA00B90C3A00C90C8A00D90CDA018
:105490000E90D2A00F90D7A01090DCA01190E1A0A8
:1054A0001290E6A01390EBA01490F0A01590F5A038
:1054B0005C4C1690F948F43C1790208C20B9F748C2
:1054C0000390F748049005904F46A94201DA3971DC
:1054D00002E0022B00DD3E7197F90410F1A00BEB06
:1054E0008102121D5BF821100CCA0AF047F9012055
:1054F0000AF036FF208C20B16FF002022121EFA0CC
:1055000004E06FF003022121AFF6F4300AF065F9F0
:10551000608C20B16FF002024021E8A004E06FF03F
:1055200003024021AFF610400AF057F979782320A2
:10553000022946D05FF00001CDE90001B4F92A301C
:10554000B4F92820B4F92610B4F9240009F069FF51
:1055500079782420042938D05FF00001CDE90001DA
:10556000B4F93230B4F93020B4F92E10B4F92C006B
:1055700009F057FF7978292006292AD05FF0000129
:10558000CDE90001B4F96630B4F96420B4F96210D1
:10559000B4F9600009F045FFB4F85C0000225B211B
:1055A00080B209F0E0FFB4F85E0000225D2180B215
:1055B00009F0D9FFB4F934006FF00D05FF280CD0C5
:1055C00014E0B978491CC9B2B6E7B978491CC9B228
:1055D000C4E7B978491CC9B2D2E7E18EFF2905D1E9
:1055E000218FFF2902D1618FFF2915D07A782521DB
:1055F0000B2A12D05FF00002CDE90012B4F93A3064
:10560000B4F93820B4F9361009F00BFFB4F93C00B6
:10561000FF2803D06BE140E254E159E15CE147E34C
:10562000CFE200007C010010E2EAEB2E0000000057
:1056300020F2E5EAF3F92EF1EEF1F22E20402020DF
:10564000202020200000000020E0E2E0F0E8E9ED6A
:10565000EEE520F1EEF1F2EEFFEDE8E500000000EE
:105660002020202020202020202D2023202020202A
:10567000202020200000000003AD01002020D1D315
:10568000D5CEC920CACECDD2C0CAD2204E2120202C
:1056900000000000EDE5E7E0ECEA2E00E7E0ECEAD0
:1056A000EDF3F2002045746865726E657420202069
:1056B00020202020202021200000000020444843FA
:1056C00050EAEBE8E5EDF2202020202020204020C9
:1056D00000000000204950E0E4F0E5F12020202007
:1056E000202020202020202000000000202030301A
:1056F000302E3030302E3030302E303023202020ED
:105700000000000020CCE0F1EAE020EFEEE4F1E55B
:10571000F2E820202020202000000000202030304F
:10572000302E3030302E3030302E303024202020BB
:105730000000000020D8EBFEE720202020202020C1
:1057400020202020202020200000000020203030B9
:10575000302E3030302E3030302E30302920202086
:105760000000000020CFEEF0F22EF7F2E5EDE8FFAA
:10577000202020202020205B0000000020CFEEF021
:10578000F22EE7E0EFE8F1E8202020202020205D45
:105790000000000020436F6D6D756E697479203CC8
:1057A00020202020202020200000000020C0E4F045
:1057B000E5F1E0F220E4EBFF2054524150204E315D
:1057C0000000000020203030302E3030302E3030BD
:1057D000302E3030252020200000000020C0E4F0D2
:1057E000E5F1E0F220E4EBFF2054524150204E322C
:1057F0000000000020203030302E3030302E30308D
:10580000302E30305E2020200000000020C0E4F068
:10581000E5F1E0F220E4EBFF2054524150204E33FA
:105820000000000020203030302E3030302E30305C
:10583000302E3030262020200000000020C0E4F070
:10584000E5F1E0F220E4EBFF2054524150204E34C9
:105850000000000020203030302E3030302E30302C
:10586000302E30302A2020200000000020C0E4F03C
:10587000E5F1E0F220E4EBFF2054524150204E3598
:105880000000000020203030302E3030302E3030FC
:10589000302E303028202020000000004429000055
:1058A0007012000020D3D1D2C0CDCEC2CAC82045CC
:1058B000746865726E65742000000000C2CACB2E49
:1058C000000000002A462521FAA009F086FF9DE687
:1058D000BA78521CD2B28FE6E18FFF2907D1B4F813
:1058E0004010FF2903D1B4F84210FF2913D0797872
:1058F0000D2916D000225E21CDE90012B4F9423004
:10590000B4F94020B4F93E1009F08BFDB4F944001D
:10591000FF280DD018E02A465E21E6A009F05DFFC1
:10592000F4E7B978491CC9B25E22CDE90021E5E768
:10593000B4F84610FF2907D1B4F84810FF2903D165
:10594000B4F84A10FF2914D07A7826210F2A16D0ED
:105950005FF00002CDE90012B4F94A30B4F94820F2
:10596000B4F9461009F05DFDB4F94C00FF280AD0E7
:1059700015E02A462621CFA009F02FFFF4E7BA78D8
:10598000521CD2B2E6E7B4F84E10FF2907D1B4F8A2
:105990005010FF2903D1B4F85210FF2913D07A78A0
:1059A0002A21112A15D00022CDE90012B4F9523073
:1059B000B4F95020B4F94E1009F033FDB4F9540095
:1059C000FF280AD015E02A462A21BAA009F005FFCF
:1059D000F4E7BA78521CD2B2E6E7B4F85610FF29C1
:1059E00007D1B4F85810FF2903D1B4F85A10FF2991
:1059F00025D07A782821132A27D00022CDE9001259
:105A0000B4F95A30B4F95820B4F9561009F009FD28
:105A1000AD4A002052A9135C0B54401CC0B20928A7
:105A2000F9D300208DF851017878BA780A2810D07F
:105A300000233C2152A809F0D7FC01F08DB92A4679
:105A400028219CA009F0C9FEE2E7BA78521CD2B224
:105A5000D4E70123EDE79DA00290A2A00390A7A0A8
:105A60000490ACA005904846BEF11E0F03D1569A93
:105A70000AB1AE4A0592AE4A0692A94201DA017114
:105A800002E0022B00DD067199F90440A9A00BEB9E
:105A90008401D1E901235BF82410B8E0ABA00290A7
:105AA000B0A00390B5A00490BAA00590BFA0069046
:105AB000C4A00790C9A00890CEA00990D3A00A90D6
:105AC0009B484C460B90A94201DA217102E0022B5F
:105AD00000DD267194F90450D2A00BEB8501D1E9C9
