:020000040000FA
:1000000020100820C5010000C9010000CB0100003C
:10001000CD010000CF010000D10100000000000070
:10002000000000000000000000000000D3010000FC
:10003000D501000000000000D70100002BA5000042
:10004000DB010000DB010000DB010000DB01000040
:10005000DB010000932C0100DB0100007D15010095
:10006000DB010000DB010000DB010000DB01000020
:10007000DB010000DB010000DB010000DB01000010
:10008000DB010000DB010000DB010000DB01000000
:10009000DB010000DB010000DB010000DB010000F0
:1000A000DB010000DB010000DB010000DB010000E0
:1000B000C9370100DB010000DB010000DB010000AB
:1000C000DB01000000F002F800F06DF80AA090E8F3
:1000D000000C82448344AAF10107DA4501D100F003
:1000E00062F8AFF2090EBAE80F0013F0010F18BF63
:1000F000FB1A43F00103184784C50300C4C503007D
:100100000A444FF0000C10F8013B13F0070408BF3D
:1001100010F8014B1D1108BF10F8015B641E05D0DB
:1001200010F8016B641E01F8016BF9D113F0080F90
:100130001EBF10F8014BAD1C0C1B09D16D1E58BF22
:1001400001F801CBFAD505E014F8016B01F8016B59
:100150006D1EF9D59142D6D37047000000230024CC
:1001600000250026103A28BF78C1FBD8520728BFC7
:1001700030C148BF0B607047642914F0B9847329FB
:1001800014F0EF86002070471FB518F065FD14F0DD
:10019000D7FF04000020002118F048FD401C6060DB
:1001A0001FBD10B510BD14F0A6FF1146FFF7ECFF00
:1001B0000AF03DFA14F0D8FF03B4FFF7F2FF03BCD6
:1001C00014F0DCFF08480047FEE7FEE7FEE7FEE725
:1001D000FEE7FEE7FEE7FEE7FEE7FEE70348044929
:1001E000024A044B70470000C50000002050001078
:1001F00020100820200E0820FEE710B516F008FC9D
:1002000016F094FC16F086FC16F014FCAFF3008098
:10021000BDE8104016F050BC10B517F061FA18F0A8
:10022000D1F817F0B5FABDE8104017F02DBC17F063
:1002300075B916F03DBF09B10020704715F092BCAA
:100240000020704790F900308B4200DA027090F97C
:100250000030934200DD0170704790F900308B420E
:1002600000DA017090F90010914200DD02707047D1
:10027000B0F900308B4200DA0180B0F900109142F1
:1002800000DD02807047B0F900308B4200DA028056
:10029000B0F90030934200DD0180704703688B4263
:1002A00000DA02600368934200DD016070470000DD
:1002B0000FB41CB5084B06AA7B446946009005980C
:1002C00014F025FE04460020694614F033FE204653
:1002D0001CBC5DF814FB0000794C010070B50646AB
:1002E00014F0B0FD0468054630460A22002114F0DF
:1002F0003CFE2C6070BD704770477047FFFFFFFFEA
:1003000030B54E482021C0F8A01100BFD0F8A01190
:100310004906FBD500F180000322C0F8842048493B
:10032000C0F828114FF00001C0F82C114FF0010364
:10033000C0F88C30434C446003604FF0AA03C360A4
:100340004FF05504C460A0F1800000BFD0F8885081
:100350006D01FBD540F8802FC360C460C0F88810E1
:10036000394A4264C0F848118168A0F180006FEA00
:1003700011618A073549D0F80C2102F0030207D039
:1003800092B3012A46D0022A4AD0032A51D13BE037
:100390002AB1012A11D0022A27D0032A49D150F8C4
:1003A000882FC2F30E02521C53000268C2F30742A8
:1003B000521CB3FBF2F2264B0CE050F8882FC2F32C
:1003C0000E02521C53000268C2F30742521CB3FBD8
:1003D000F2F2204B5A43C36FA0F18800DBB203F165
:1003E0000103B2FBF3F223E00EE050F8882FC2F3D2
:1003F0000E02521C53000268C2F30742521CB3FBA8
:10040000F2F24FF4FA43E5E7D0F80421104BD2B2F0
:10041000521C0BE0D0F804210E4BD2B2521C05E066
:10042000D0F804214FF4FA43D2B2521CB3FBF2F2DB
:100430000A6043F23A01016030BD000000C00F4085
:10044000000002084F00030048F1004100000010C6
:1004500000093D008096980010B54FF4027010F02E
:1004600009FBFB4C207040F20A2010F003FB607087
:100470004FF4037010F0FEFAA07040F20E2010F05E
:10048000F9FAE0704FF4047010F0F4FA207240F2C0
:10049000122010F0EFFA60724FF4057010F0EAFAD3
:1004A000A07240F2162010F0E5FAE0724FF41170DD
:1004B00010F0E0FA207140F2462010F0DBFA607193
:1004C0004FF4127010F0D6FAA07140F24A2010F0EA
:1004D000D1FAE07110BD002801DA404200B2704745
:1004E000DC4A516C536C5B1A8342FBD37047DA4988
:1004F000112008727047D948C16941F44021C16197
:10050000C16941F44011C161D5480021C1604FF477
:100510004061C164022141614FF47A7282614FF4FB
:100520004872026242620122026541600921416013
:1005300070472DE9F04F0020CA4A85B04FF4F4719E
:1005400004461454401C00B28842FADBC648417E7F
:1005500071B100214FF0140C7A2301FB03F001EB81
:1005600081039B0001EB81041BB20CEB84045AE273
:10057000804690F825004FF00205C0074FF00306B3
:100580001BD098F81400002816D0B8483227CDE9BF
:100590000204CDE90076032118233A4608460FF0FD
:1005A00010FCB348CDE90204CDE9007603211823FD
:1005B000322208460FF005FCB8E0B8F97800DFF801
:1005C0009492DFF8B0A20F27DFF8ACB2A9F10A09C4
:1005D000012853DB1423002100941A460846019495
:1005E0000FF033FB1223012100941A4608460194B0
:1005F0000FF02BFB99F8000010F03C0F0BD0C10658
:1006000011D598F81400F0B10F23CDE902A402210E
:100610001A46032013E09948CDE902040F23022172
:100620001A4603200BE010F00C0F0CD098F81400C1
:1006300048B10F23CDE902B402211A460846CDE99C
:1006400000750FF0BEFB8E48406DC00716D10B231E
:1006500000221421092000940FF0DCF800235B2213
:100660001F21092000940FF0D5F898F80300042307
:100670001330C1B2002209200FF024FBB8F9780032
:10068000022853DB142300941A46002117200194FA
:100690000FF0DBFA122300941A460121182001946E
:1006A0000FF0D3FA99F8010010F03C0F0BD0C106FF
:1006B00011D598F81400F0B10F23CDE902A402215E
:1006C0001A46192013E06F48CDE902040F230221D6
:1006D0001A4619200BE010F00C0F0CD098F81400FB
:1006E00048B10F23CDE902B402211A461920CDE901
:1006F00000750FF066FB6248406D800716D40B232F
:1007000000221421202000940FF084F800234422BA
:100710001F21202000940FF07DF898F80300042397
:100720001330C1B2002220200FF0CCFAB8F87600C6
:10073000DFF820A1C1464FF00A0B4FF00108AAF1E3
:10074000800A00282CD00094142323220021322078
:1007500001940FF07AFA0094022303221421352029
:1007600001940FF072FA00940223032214214F2007
:1007700001940FF06AFA99F825004F46800710D5CA
:1007800099F8140000280BD032213948CDE9001621
:10079000CDE902040A46182300212B200FF011FB9B
:1007A00089E00B2300221421422000940FF032F83C
:1007B000002322221F21422000940FF02BF8BAF9C7
:1007C0007400002805DAF878042300221330C1B23F
:1007D00005E0F8780423C0F12200C1B202224220D1
:1007E0000FF070FAB8791E287ED2B7F97E00A0F516
:1007F000AA41553978D097F92600052190FBF1F0F0
:10080000ADF81000B9461422002104A8FFF730FD0E
:10081000CDE900844746BDF9103020220021332065
:100820000FF013FA99F926000A282FDACDE900759E
:1008300009230C2205213D200FF007FA99F9260023
:1008400002238DE8910005210FA23D20039730E09F
:10085000E40D082014C107200040024000C00240FF
:10086000008001406E16001014C007206D8D01003D
:10087000038E0100D58E0100F38E0100998E0100D8
:1008800000C00920B78E01002025000064284FF029
:1008900009035EDACDE90075122205213A200FF036
:1008A000D4F999F9260003238DE8B100FEA20521B1
:1008B0003A200FF0B2FA00940E231B2202215C2092
:1008C00001940FF0C2F900231A1F08215C20009444
:1008D0000EF0A0FF002304220821762000940EF0E1
:1008E00099FF0023272200E043E01F2143200094CA
:1008F0000EF090FF6FF00F0300221F21692000947B
:100900000EF088FF99F805004D46C0F12200C1B2F3
:100910000423022269200FF0D5F94746BAF97C007A
:100920000421CDE90007CDE90217D0460523DFA257
:10093000162146200FF071FAB8F97A00642825DAFA
:10094000CDE9000704230521DAA25D20CDE9026785
:1009500025E0CDE900751822052137200FF075F943
:1009600099F9260004238DE8D1000521D3A2372070
:100970009FE7BAF97410CDE9026891FBFBF001B270
:10098000CDE900180423CBA2052191E790FBFBF0F1
:1009900000B28DE8D1000423C6A205215A200FF031
:1009A0003CFAA878401CC0B2A87003281CD3AC70D5
:1009B000E878401CC0B2E8700D2800D3EC702879AC
:1009C000401CC0B22871202800D32C716879401CCB
:1009D000C0B26871112800D36C71A879401CC0B2F4
:1009E000A871282800D3AC7105B0BDE8F08FB54DD3
:1009F000B54FED5C05EB450517F81560165407EB90
:100A00004505401C6E781654401CAE781654401CA8
:100A1000EE781654401C2E791654401C6D791554EE
:100A2000401C5B1C1BB29C42E1DC491C09B204293E
:100A3000FFF692ADD8E72DE9F04FA448D3B00522D8
:100A40000378002101242AA85093052B02D0212BE2
:100A500002D005E09EA100E0A3A12A910121062277
:100A6000A74E96F825805FEAC87308D0A5A340F882
:100A7000213001F1010102F10102C9B2D2B25FEAF3
:100A8000887308D5A5A340F8213001F1010102F1D6
:100A90000102C9B2D2B25FEA086306D5A5A340F845
:100AA0002130491C521CC9B2D2B2954BF6331D7885
:100AB00015F01C0F06D0A5A540F82150491C521C6A
:100AC000C9B2D2B299465B7813F01C0F06D0A5A329
:100AD00040F82130491C521CC9B2D2B2A74F07F1CD
:100AE0006D033D78B3F90030012D02D0022D03D003
:100AF0000AE04BB9A2A301E033B9A7A340F8213023
:100B0000491C521CC9B2D2B29C4B9B1D1D78552D5D
:100B10000AD103F191052D8835B9A5A540F82150DA
:100B2000491C521CC9B2D2B25D78552D0AD1934DE1
:100B300097356D8835B9A4A540F82150491C521C41
:100B4000C9B2D2B29D78552D0AD18C4D9735AD885A
:100B500035B9A3A540F82150491C521CC9B2D2B2E4
:100B6000DB78552B0AD1854B9733DB8833B9A2A3A9
:100B700040F82130491C521CC9B2D2B2A44B1D7896
:100B800035B1A4A540F82150491C521CC9B2D2B2BB
:100B90005D7835B1A5A540F82150491C521CC9B259
:100BA000D2B29B7823B1A7A3521C40F82130D2B215
:100BB000337AB2465B1CDBB231463372142B09D355
:100BC00000230B72CD796D1CEDB2CD71954201D32E
:100BD0008AF80730694E0DF1080B3D3633463278FE
:100BE00093F9045093F901100BEB850C292A57D087
:100BF000002A56D04248C83B3746007D4F906420BB
:100C0000B3F90430042A93FBF0F64E964AD05B48C1
:100C10003D3090F9046090F9017090F90200BE1B1C
:100C20008646052A3FD0DFF85491112A09F13D0983
:100C300000F0E687022A00F0F88748464078801ED8
:100C400047B20C2A01F0ED81142A01F00782102A24
:100C500001F01182152A01F02F82412A01F042820F
:100C6000442A01F0B982452A01F0E68441F27C7001
:100C700041F2D828342A02F07581362A02F03D84E8
:100C8000032A02F09D851E48252AC07C4C9003F063
:100C900064801B48282A90F81E8003F08480DDE0E1
:100CA00065E1FEE3FEE3FEE3202025002020202076
:100CB00042000000202020410000000020202025CC
:100CC00000000000A6150010118F01001FC20720B0
:100CD00020C2FBF0E0E2ED2EE7E0F0FFE420207A16
:100CE0003A305A20000000002020CAEEEDF2F0EE6B
:100CF000EBFC20E5ECEAEEF1F2E820200000000039
:100D000014C00720202020C0E2E0F0E8FF20F1E539
:100D1000F2E82121212020200000000020C0E2E094
:100D2000F0E8FF20E1E0F2E0F0E5E82121212020D9
:100D30000000000020C0F1E8ECECE5F2F0E8FF2054
:100D4000C0CAC121212120200000000020C0E2E013
:100D5000F0E8FF20E8F1F2EEF7EDE8EAE0204E31AE
:100D60000000000020C0E2E0F0E8FF20E8F1F2EE31
:100D7000F7EDE8EAE0204E32000000001FC1072036
:100D8000C2EDE5F82EF2E5ECEF2E4E31E7E0E2FBA6
:100D9000F8E5EDE000000000C2EDE5F82EF2E5EC2C
:100DA000EF2E4E31E7E0EDE8E6E5EDE00000000073
:100DB00020202020C0E2E0F0E8FF20D1CA20B93195
:100DC000202020200000000020202020C0E2E0F0B1
:100DD000E8FF20D1CA20B9322020202000000000E6
:100DE00020202020C0E2E0F0E8FF20D1CA20B93363
:100DF000202020200000000020202020C0E2E0F081
:100E0000E8FF20D1CA20B9342020202000000000B3
:100E10005FC2072020C0E2E0F0E8FF20EFF0E5E449
:100E2000EEF5F02E20B931200000000020C0E2E0F5
:100E3000F0E8FF20EFF0E5E4EEF5F02E20B93220E7
:100E40000000000020C0E2E0F0E8FF20EFF0E5E461
:100E5000EEF5F02E20B933200000000048461A2A93
:100E600003F02980DFF82494482A03F086801F2AA3
:100E700003F01C82202A03F05182212A03F07D8294
:100E8000222A03F0C382232A03F008838146172A0B
:100E900003F07983FE483E2AB0F97A300BEB830CDD
:100EA00003F0AB8300F5A4704078401E40B23F2AA7
:100EB00003F0EC84402A03F09385462A03F03F8632
:100EC000492A04F0C1814A2A04F0E281272A04F069
:100ED00040830A2A04F042831C2A04F063831B2AFD
:100EE00004F00284C8461E2A04F0E7851D2A04F097
:100EF0000786372A04F03986E54B2A2A93F82130F1
:100F000004F06B862B2A04F0B586E14BDFF87C9366
:100F1000B3F94C30A9F14A095F1EBC4609F101073B
:100F2000382A04F0D286392A04F0F6863A2A05F0E7
:100F30007F803B2A05F0C5803C2A05F074813D2A5C
:100F400005F0AA81072A05F0C182082AFBD0122ADF
:100F5000F9D0132AF7D0352AF5D0192AF3D0092A67
:100F600005F0D9822C2A05F0DB8205F0DFBA79B1D1
:100F700001297ED0C74C02297CD003297BD00429CB
:100F80007AD0052979D0062978D0072977D0ECE7DF
:100F9000C1A3C1A2C0A1C0A00DF004FE0023022283
:100FA00019460AF116049AF817000DF00AFC608E33
:100FB00000230222012180B20DF003FCE08D022209
:100FC0000023114680B20DF0FCFBB9480023072234
:100FD0000088194680B20DF0F4FBB64800230722C2
:100FE0000088012180B20DF0ECFBB34800230722FA
:100FF0000088022180B20DF0E4FBA5480023803078
:101000000722B0F87200032180B20DF0DAFBAB4882
:1010100000230A22194600780DF0D3FBA8480023CC
:101020000A22012100780DF0CCFBA64800230A22F9
:10103000022100780DF0C5FBA34C00231322207879
:1010400019460DF0BEFB60780023132201210DF03C
:10105000B8FBA0780023132202210DF0B2FB9B4CB9
:1010600000231122208819460DF0ABFB6088002375
:1010700006E00DE051E0B5E0F5E045E179E11DE283
:10108000112201210DF09DFB0023A088112240E2D6
:101090008F4B90A11A4694A00DF084FD9848002330
:1010A00004220088194680B20DF08BFB954800237E
:1010B0001A4690F90000012180B20DF082FB834CAA
:1010C00001231E3C0E22208800210DF07AFB012313
:1010D00060880E2219460DF074FB241D0123208820
:1010E000132200210DF06DFB0123608813221946A5
:1010F0000DF067FB4C4699F800000A2200210DF024
:10110000C3FC60780A2201210DF0BEFCBAF8780019
:1011100000230122022180B2FCE15FA35EA25EA156
:101120005DA00DF03FFD00232088042219460DF03C
:1011300048FB60880023042201210DF042FBA088B7
:101140000023042202210DF03CFBE088002304224E
:1011500003210DF036FB00232089092219460DF0EA
:1011600030FB60890023092201210DF02AFBA089B0
:101170000023092202210DF024FBE089002309222B
:1011800003210DF01EFB0023208A0E2219460DF0CC
:1011900018FB608A00230E2201210DF012FBA08AA9
:1011A00000230E2202210DF00CFBE08A00230E2208
:1011B00003210DF006FB0023208B132219460DF0AE
:1011C00000FB608B0023132201210DF0FAFAA08BA3
:1011D0000023132202210DF0F4FA00231322E08BE6
:1011E000032197E12CA32CA22BA12BA00DF0DAFC5C
:1011F0000023208C042219460DF0E3FA608C0023B2
:10120000042201210DF0DDFAA08C0023042202212A
:101210000DF0D7FAE08C0023042203210DF0D1FA5F
:101220000023208D092219460DF0CBFA608D002392
:10123000092201210DF0C5FAA08D00230922022107
:101240000DF0BFFAE08D0023092203210DF0B9FA59
:101250000023208E0E2219460DF0B3FA00230E2231
:10126000608E012156E10CA30BA20BA10AA00DF088
:1012700099FC00231322194654469AF816000DF0E3
:10128000A0FA002313220121607D43E1B81A001067
:1012900014C00720401500102020202020202020EE
:1012A00020202020202020202020202000000000BE
:1012B0004AC2072046C207204CC2072030C207207E
:1012C00031C2072032C2072065C2072062C1072051
:1012D000FE8C010020202020202020202020202003
:1012E000202020202020200032202020202020200C
:1012F000202020202020202020202020000000006E
:1013000034C2072028C20720AFF27403AFF278027C
:10131000AFF27C01AFF280000DF044FCF4480023F2
:101320000122007819460DF04CFAF1480122C01C48
:101330000023007811460DF044FA3878002301228A
:1013400002210DF03EFAEA480023553005220088BC
:1013500019460DF036FAE64800237F300522008852
:1013600001210DF02EFAE2480023613005220088A9
:10137000CFE0E0A00290E5A00390EAA00490EFA0E7
:101380000590F4A00690F9A00790FEA00CF1040CC3
:101390000890BCE80E005BF825000DF003FCD44873
:1013A000022285383F21B0F974000DF027F9FB4D7A
:1013B000686D002200F0010024210DF0E8FA4C468F
:1013C00099F8000023210DF04DFB686D0022C0F359
:1013D000400040210DF0DBFA607821210DF042FB46
:1013E000C34C00222B344A2120880DF0D0FA6088AB
:1013F00000226A210DF0CBFAE94C00225921207815
:101400000DF0C5FA6078002279210DF0C0FAE54CA4
:1014100000226821206880B20DF0B9FAE24800226B
:101420006D21006880B20DF0B2FAE04D002251212A
:1014300028880DF0ACFADE4E0022712130880DF0C4
:10144000A6FA688800225A210DF0A1FA70880022BD
:101450007A210DF09CFAD74D0022412128780DF019
:1014600096FAD54E0022612130780DF090FA687816
:10147000002242210DF08BFA7078002262210DF0DB
:1014800086FA2068002280B243210DF080FA60685D
:10149000002280B244210DF07AFAC84C206880B254
:1014A00002E03AE011E126E3002263210DF06FFA39
:1014B0006068002280B2642105F005B8C04B1A466E
:1014C000114608460DF06EFBBE4C20784FF000032D
:1014D0004FF0060219460DF074F90023062201218F
:1014E0009AF820000DF06DF9B4200FF0C3FA80B225
:1014F0000023062202210DF064F9A08800231022A7
:1015000019460DF05EF9B6200FF0B4FA002380B250
:10151000102202210DF055F927E5ABA20292744A80
:101520002B32B2F90030B2F90220C82B05DDC82AEF
:1015300001DDABA20CE0B0A20AE0C82A01DDB4A232
:1015400006E06B4A853AB2F97220C82A01DDB6A2DC
:101550000292BBA20392C0A20492C5A20592CAA2A3
:101560000692CFA20792D4A20892D9A20992DEA233
:101570000A92E3A20B92E8A20C92EDA20D92F2A2C3
:101580000E92F7A20F928E4A1532109231B16A1A5A
:10159000022A01DD891C01E0A94200DD31719AF8BF
:1015A0000750052D07D296F904100BEB8100001DA2
:1015B0000EC8029809E096F9042000EB85000BEBB9
:1015C0008201091D50F8140C0EC90DF0EBFA96F9C2
:1015D0000400A0B196F9011089B1884203D1E64810
:1015E00080F83C400BE0401A012802D0022804D0C9
:1015F00005E0E14880F8284001E0DF4804753C4CF4
:101600000122133C6C21208880B20DF0C0F9022227
:101610004021B4F902000CF0F1FF6089012223217E
:1016200080B20DF0B4F920890122242180B20DF09E
:10163000AEF9D24C20784FF000024FF026010DF0A9
:10164000A6F9207900225E210DF0A1F9207A00226E
:1016500025210DF09CF9207B00223C210DF097F90B
:10166000217E574800222A3000EB81003E210DF0F8
:10167000C8FAA08B00227B210DF089F99AF814009A
:1016800068B13A200CF019FFBB4C202525543A20B4
:101690000CF013FF25543A200CF00FFF2554B84CE2
:1016A0004FF4616100222068B0FBF1F080B27A2132
:1016B0000DF06DF921683C20B1FBF0F1B1FBF0F2C7
:1016C00000FB121000225A21F6E6BAF876205546A1
:1016D00052B15FEA887209D5394B4F9828B1A9A257
:1016E000AEA1B4A004F020BF70E174E177E1000086
:1016F00019C10720202020203F202020202020204A
:101700002024202320402021000000002020202031
:1017100020202020202020202020204A2020206A55
:101720000000000020202020202020202020202039
:10173000202020592020207900000000202020684F
:101740002020206D2020202020512071205A207A36
:101750000000000020202073202020532020202083
:10176000202020432020204400000000202020666C
:1017700020202046202020202020206320202064BC
:1017800000000000202020202020202020202020D9
:1017900020412061204220620000000000C009209A
:1017A0003EC207207CC207204C00001070C20720F8
:1017B0006CC2072094C2072096C2072084C207206B
:1017C000FE8C0100384002402020CDE5EEEFF0E530
:1017D000E4E5EBE5EDEDEEF1F2FC20200000000089
:1017E00020C220F0E0E1EEF2E520C1CFD1312CC1E2
:1017F000CFD132200000000020202020C220F0E0C5
:10180000E1EEF2E520C1CFD1312020200000000020
:1018100020202020C220F0E0E1EEF2E520C1CFD16F
:1018200032202020000000002020D0E0E1EEF2E095
:1018300020EEF220E1E0F2E0F0E5E8200000000018
:101840002055E13D2020206CC22049E13D20202090
:101850002040C020000000002055ED3D2020202326
:10186000C22049ED3D2020202024C020000000009F
:101870002030253A305E3A302620303C2F3E202062
:101880002F307B200000000020C1E0F2E0F0E5FFF7
:1018900020202020202020202020202000000000C8
:1018A00020C1CFD131202020202020202020202026
:1018B000202020200000000020C1CFD13220202095
:1018C0002020202020202020202020200000000098
:1018D00020CDE0E3F0F3E7EAE020202020202020E4
:1018E000202020200000000020D1E5F2FC20202054
:1018F0002020202020202020202020200000000068
:1019000020D1EFE5F6F4F3EDEAF6E8E82020202018
:10191000202020200000000020C6F3F0EDE0EB20A6
:10192000F1EEE1FBF2E8E920202020200000000099
:1019300020C1E0F2E0F0E5E9EDFBE920E6F3F0EDAF
:10194000E0EB20200000000020D3F1F2E0EDEEE219
:10195000EAE8202020202020202020200000000075
:1019600020D1E1F0EEF120E0E2E0F0E8E9202020F3
:101970002020202000000000A6150010204002407A
:1019800074C2072020202020EDE520EFEEE4EAEBF2
:10199000FEF7E5EDE0202020202000002020202080
:1019A000202020C1E0F2E0F0E5FF202020202020D0
:1019B0002020000020202020202020C0C2C0D0C82D
:1019C000DF21212020202020202000009CA3A2A293
:1019D000A7A1ADA086E6B24A1146084682E6B1A2AA
:1019E0000292B64A127852B1B5A20392BAA20592F7
:1019F000BFA2049295F827202AB1C3A204E0C8A28E
:101A00000392CDA2F3E7D2A20692D7A20792DCA25C
:101A10000892E1A20992E6A20A92EBA20B92F0A22E
:101A20000C92F5A280460D924E98F94E30289C48B3
:101A300000F115002ED00E900BEB8100001D0EC89A
:101A400098A00DF0AFF8B6F872000122402180B2E4
:101A50000CF09DFF02222121B6F974000CF0CEFD9E
:101A6000B6F870000022242180B20CF090FF95F9A6
:101A700026000022772180B20CF089FFB5F97E00A4
:101A8000A0F5AA41553907D14A1E5121E1A00DF018
:101A9000B8F806E00D90CFE70122512180B20CF09A
:101AA00076FFB6F9041091FBF8F0302802D179786E
:101AB000082904D03C2805D17878092802D1D748D4
:101AC00080F83C40D64C01225B2120880CF05FFF5F
:101AD000608801225D210CF05AFFA08801227B2141
:101AE0000CF055FFE08801227D210CF050FF01220F
:101AF00020892921E0E4CB48C54FC837406DBEF1AD
:101B0000000F05D0C0F34000BEF1010F03D006E086
:101B100000F0010003E0BAF87820012A02D048B1B1
:101B2000C1A008E0CCA20292D1A203925C4AC4A058
:101B3000049228E0D4A05FEAC87201D0D8A211E0D4
:101B400019F80E20D30601D5DBA20BE0130701D54F
:101B5000DFA207E0530701D5E3A203E012F03C0F38
:101B600001D1E7A20292ECA2A94B0392F0A2783332
:101B7000049213F80E200AB1F3A200E0F8A2059235
:101B8000474A15320692002E01DCA94200DA39716B
:101B900097F904500BEB8502121D5BF825100CCA57
:101BA0000DF000F897F902000022401C80B22121BC
:101BB0000CF0EDFE964897F90210B030012230F893
:101BC000110040210CF0E3FE914897F90210B43067
:101BD000012230F8110023210CF0D9FE8C4897F92E
:101BE0000210AC30002230F8110024210CF0CFFE9E
:101BF0007878022844F09A84884880F83C408BE446
:101C0000DDA3E3A2E8A1EEA00CF0CCFF8348012203
:101C1000212180F83C407E4C7A34608880B20CF000
:101C2000B6FE0122402103F09DBF55465FEAC87011
:101C300004D04F9808B1E8A0D9E1D7E1EDE1000068
:101C4000E220E1E0F2E0F0E5E9EDEEEC20E6F3F091
:101C5000EDE0EBE5000000002020202020E2E2E59E
:101C6000E4E8F2E520E5B820202020200000000074
:101C700020CFF0E82020EDE5EEE1F5EEE4E8ECEE33
:101C8000F1F2E8200000000020C1C0D2C0D0C5DFC2
:101C900020CDC520C2C2C5C4C5CDC02000000000F3
:101CA000FE8C0100202020202020C1C0D2C0D0C541
:101CB000DF20202020202020000000002EC207204E
:101CC000202020F0E0E7F0FFE6E0E5F2F1FF202041
:101CD000202020200000000020202049F0E0E7F034
:101CE0003D2020202021C0202020202000000000B6
:101CF00020202055E1E0F23D202020202040C2207D
:101D0000202020200000000020202020C4D22E20EF
:101D1000EDE5E8F1EFF0E0E2E5ED20200000000065
:101D200020202020E7E0F0FFE6E0E5F2F1FF2020B0
:101D3000202020200000000020202049E7E0F03D86
:101D4000202020202021C020202020200000000072
:101D500020202074E1E0F2203D20202024B0432008
:101D60002020202000000000202020C7E0F0FFE419
:101D70003D2020202077252020202020000000006A
:101D800020202043E1E0F23D202020202051C02AE5
:101D9000F72020200000000020202055FD31203DAC
:101DA00020202020205BC2202020202000000000D6
:101DB00020202055FD32203D20202020205DC22003
:101DC000202020200000000020202055FD33203D51
:101DD00020202020207BC220202020200000000086
:101DE00020202055FD34203D20202020207DC220B1
:101DF000202020200000000020202055FD35203D1F
:101E0000202020202029C2202020202000000000A7
:101E100094C007202D2D2D2D2D2D0000A61500106E
:101E2000AE1A001000C0092020202020C1CFD121EF
:101E300020C2DBCACBDED7C5CD20202000000000A9
:101E40002020202020202020C1CFD132202020207F
:101E5000202020200000000020202020CED2D1D33E
:101E6000D2D1D2C2D3C5D220202020200000000031
:101E70002020C220D1D2D0D3CAD2D3D0C520C8C14D
:101E8000DDCF20200000000020202020C1CFD12164
:101E900020C2CACBDED7C5CD202020200000000004
:101EA00020E0E2E0F0E8FF20F1E5F2E82020202049
:101EB000202020200000000020E0E2E0F0E8FF20E9
:101EC000EFE5F0E5E3F0E5E220202020000000004F
:101ED00020E0E2E0F0E8FF2055E2FBF53C55ECE8BD
:101EE000ED2020200000000020E0E2E0F0E8FF20EC
:101EF00055E2FBF53E55ECE0EAF120200000000041
:101F000020F1EEF1F2EEFFEDE8E5202D20EDEEF010
:101F1000ECE02020000000002055E8F1F2203D20F8
:101F200020202040C220202020202020000000006F
:101F30002049E8F1F2203D2020202023C02020204D
:101F4000202020200000000020C4D220EDE5E8F190
:101F5000EFF0E0E2E5ED202020202020000000004E
:101F60002074E8F1F2203D20202024B043202020DE
:101F7000202020200000000020C2FBF5EEE42020FD
:101F800020202020202020202020202000000000D1
:101F90002049EDE0E3F03D2020202020202040419A
:101FA00020202020000000002055EDE0E3F03D203F
:101FB00020202020202021C22020202000000000FE
:101FC000202020202020CDC0C3D0D3C7CAC02020CD
:101FD0002020202000000000202020C0C2C0D0C847
:101FE000DF20D1C5D2C8212121202000AD48AFF289
:101FF0007803ADA2B2A102900CF0D4FDB64805F171
:102000004605002280F83C40A888232180B20CF0CD
:10201000BEFC01224021288801E0B0A0E7E780B2A1
:1020200068E5B4A00290B9A00390BEA004909D48BA
:1020300015300590022E02DD89F8047003E0A942F4
:1020400001DA89F8041099F90440BCA00BEB840173
:10205000D1E901235BF8241003F09EBA509821289F
:1020600007D0BCA08F4B0146029003F11502BFA020
:10207000F2E7C4A0F6E7C9480290C9A0039031B1C5
:10208000012908D002290AD003290CD00FE0CAA0E8
:102090000290CFA00AE0D4A00290D9A006E0DEA072
:1020A0000290E3A002E0DCA00290E7A003900346C8
:1020B000BBA1BA48029A8DE45098052810D0A5A07B
:1020C000784B024602901533E5A1EBA00CF06AFDB7
:1020D00001200DF059FB00222121BAF870009EE783
:1020E000A8A0EDE7E4A3E4A2E3A1E3A00CF05AFD6D
:1020F00004218AF81D109AF82010012922D0022903
:1021000022D003292DD006292DD00C292DD0E0A1D5
:10211000644802918AF81D401530039099F9041023
:10212000E7A00BEB810253685BF82120DEA10CF0E5
:1021300039FD99F9010099F90410884217DA89F8F4
:1021400004001AE0E4A000E0E9A00290EEA00390F1
:10215000F3A00490AFF6E8000590524815300690C1
:10216000DCE7F5A0F1E7FAA0EFE7FFA0EDE7411A01
:10217000012902DD411E89F80410022801D189F8E5
:10218000040002200DF000FBFD4C00222521E08917
:102190000CF0FDFB00225E21208A0CF0F8FB0022EF
:1021A0002621608A0CF0F3FB00223C21A08A0CF06F
:1021B000EEFB3C48E18A2A3000EB810000223E2100
:1021C0000CF01FFD00227B21208B0CF0E0FB002295
:1021D0002821608B8EE400BF40F602600EF04AFCBE
:1021E00001B25046AAF84C10402902DD0021A0F8A7
:1021F0004C10BAF94C0070B1012811D002281AD045
:1022000048DD99F9011099F9042091422FDA00BFB5
:1022100089F8041030E0234BDAA103F1150203E042
:10222000204ADEA31532E3A1E8A00CF0BBFC00209D
:1022300089F804002EE099F9010099F90410884208
:1022400003DA00BF89F8040004E0411A022901DD25
:10225000801EF7E799F9040010B1012803D019E0B6
:10226000104B153311E00F4ACCA315320EE08A1A39
:10227000022A01DD891ECBE799F90410421E914222
:10228000F1D0801E8142EBD0D6A3DCA2C9A1CFA0A1
:102290000CF088FC01200DF077FA99F80400282151
:1022A000B8E10000FE8C01002046F1E5F2E83D2097
:1022B00020202020202040C3F62020200000000005
:1022C0002055F1E5F2E83D2020202020202023C2E7
:1022D0002020202000000000A61500102020202033
:1022E000202020D1C5D2DC2020202020202020202A
:1022F0000000000020CAEEEDF2F0EEEBFC20E5EC71
:10230000EAEEF1F2E82020200000000020C2FBF0FD
:10231000E0E2EDE8E2E0FEF9E8E920E7E0F0FFE4E2
:102320000000000020C0E2F22EE2FBF0E0E2EDE867
:10233000E22E20E7E0F0FFE4000000002020202053
:10234000D1CFC5D6D4D3CDCAD6C8C820202020200E
:102350000000000020C2FBEAEBFEF7E5ED202020A4
:102360002020202020202020000000002020CACE95
:10237000CDD2D0CECBDC20C5CCCACED1D2C8202085
:102380000000000020C2EAEBFEF7E5ED202020204F
:10239000202020202020202000000000E80C000049
:1023A000202020EDE5E2EEE7ECEEE6E5ED2121214F
:1023B000202020200000000020202020CEF2F1F379
:1023C000F2F1F2E2F3E5F2202020202000000000EC
:1023D000202020202020E1E0F2E0F0E5FF20202076
:1023E000202020200000000020202020202020C0CD
:1023F000E2E0F0E8FF202020202020200000000064
:102400002020202020202020F1E5F2E8202020209C
:102410002020202000000000202020202020C1E0DB
:10242000F2E0F0E5FF202020202020200000000026
:1024300020202020F0E0E7F0FFE6E0E5F2F1FF20C9
:1024400020202020000000002020202020E7E0F0B5
:10245000FFE6E0E5F2F1FF20202020200000000050
:1024600020E4EBE8F2E5EBFCEDEEF1F2FC202D20B0
:102470002021F72E0000000020C2DBD0C0C2CDC852
:10248000C2C0DED9C8C920C7C0D0DFC40000000068
:1024900020E2FBEAEBFEF7E5ED20202020202020C3
:1024A0002020202000000000C2DBD0C0C2CDC8C266
:1024B000C0DED9C8C920C7C0D0DFC42000000000DA
:1024C000202020C0C2D2CECCC0D2C8D7C5D1CAC865
:1024D000C92020200000000020F0E0E720E220ECEE
:1024E000E5F1FFF620202020202020200000000021
:1024F00020F0E0E720E2203220ECE5F1FFF6E020DA
:10250000202020200000000020E4EBE8F2E5EBFCB6
:10251000EDEEF1F2FC20202028F72E200000000034
:1025200020EEF7E5F0E5E4EDEEE520E2EAEBFEF77C
:10253000E5EDE8E50000000020F0E0E720E22033D0
:1025400020ECE5F1FFF6E020202020200000000034
:1025500020F0E0E720E220EFEEEBE3EEE4E02020E5
:10256000202020200000000020F0E0E720E220E30F
:10257000EEE4202020202020202020200000000049
:1025800094C0072020C6F3F0EDE0EB20EFF3F1F26A
:1025900020202020202020200000000020CEF7E86E
:1025A000F1F2E8F2FC20E6F3F0EDE0EB2020202051
:1025B0000000000020282020202020202020202093
:1025C000202020202020202000000000202020C6E5
:1025D000D3D0CDC0CB20D1CEC1DBD2C8C9202020E2
:1025E00000000000207B2020202020202020202010
:1025F000202020202020202000000000205B202020
:1026000020202020202020202020202020202020CA
:10261000000000000CF0A1FB99F804005B21401CB5
:10262000C0B20CF09AFB99F804007B21801CC0B268
:102630000CF093FB03F07ABFFF4B1A461146084695
:102640000CF0B0FA4FF460600EF014FA99F9021031
:1026500000B24A4240210CF092FA400100F580603D
:1026600085B24AA928460EF082FA50A9281D0EF01C
:102670007EFA694605F108000EF079FA01A905F124
:102680000C000EF074FA48A905F110000EF06FFA74
:1026900049A905F114000EF06AFA4FA905F11800D6
:1026A0000EF065FA9DF82801552808D0502843D02F
:1026B00042287ED053287DD046287CD0BAE79DF8AA
:1026C0002A015228B6D1DDA3E2A2E8A1EDA00CF0C8
:1026D00069FA9DF80400002240210CF058F99DF899
:1026E0000500002223210CF052F99DF8060000227B
:1026F00024210CF04CF99DF80200002225210CF059
:1027000046F99DF8000000225E210CF040F99DF88A
:102710000100401E0C2801D38DF80140C6489DF8E9
:1027200001102A3000EB8100002228210CF069FA08
:102730000020AAF84C007DE79DF82A014128BDD170
:10274000D6480290BDA003909DF82001412803D1F6
:102750009DF82101412850D00122002109F10400F7
:10276000FDF77BFDCEA00490D3A00590D8A00690E5
:1027700099F904500BEB8501091D5BF825000EC982
:102780000CF010FA9DF8240100223E210CF0FFF815
:102790009DF8250100223D210CF0F9F89DF8260155
:1027A000002229210CF0F3F800229DF822015B2180
:1027B00002E03EE0F5E298E30CF0E9F89DF8200134
:1027C00000223C210CF0E3F89DF82101401E0C286A
:1027D00001D38DF8214198489DF821112A3000EB52
:1027E000810000225D210CF00CFA9DF83C019DF85F
:1027F0003D1100EB012080B255E0BBA00490C0A0C9
:1028000002AD0346059007CD0CF0CCF9BAF84A00AA
:1028100000222B2180B27CE387489DF801102A30EA
:1028200000EB8100002228210CF0EBF9AAF84C40C3
:1028300000E79DF82A01432809D0532836D05A28AA
:102840007DD0052557287BD04B287AD0F2E6AFF211
:1028500068400290B0A0039078A004909DF82001F9
:10286000412803D19DF82101412812D001220021E5
:1028700009F10400FDF7F1FC89A005908EA00690F7
:1028800099F904600BEB8600001D0EC85BF826006A
:1028900025E095A078E000BF8DF8214144E000BF1D
:1028A0009DF82901401C00222B2132E3AFF2C840E1
:1028B00002909FA0039061A004909DF82001412800
:1028C00003D19DF821014128E3D00122002109F123
:1028D0000400FDF7C2FC72A0059077A049E00CF05F
:1028E00061F99DF8240100223E210CF050F89DF87A
:1028F000250100223D210CF04AF89DF82601002216
:1029000029210CF044F89DF8220100225B210CF0F3
:102910003EF89DF8200100223C210CF038F89DF88B
:102920002101401E0C28B7D243489DF821112A30BE
:1029300000EB810000225D210CF063F9B0E701E0BB
:1029400029E061E080A0029085A003908AA0049015
:102950009DF82001412803D19DF82101412812D082
:102960000122002109F10400FDF777FC88A0059001
:102970008DA0069099F904500BEB8501091D5BF8B9
:1029800025000EC9ABE78EA002AD0346059007CD2A
:102990000CF008F984E790A0029095A003909AA00B
:1029A000049075A005909EA00690A3A00790A8A0F3
:1029B0000890ADA00990B2A038E000BF8DF80140AA
:1029C000BFE100BF9DF82101002206EB80007721C6
:1029D0000CF017F9BDF8400101227A210BF0D7FF66
:1029E0009DF803009DF80710012200EB012080B242
:1029F0003C210BF0CCFFBDF8420101223E210BF03F
:102A0000C6FFAAF84C5015E624481C38029078A05E
:102A100003907DA0049058A005909FA0069086A0EA
:102A200007908BA00890A2A00990A7A00A9099F9FE
:102A300004700BEB870053E1FE8C01002020302551
:102A4000282020305E2030403A30233A30242020A5
:102A5000000000002020202020202020C8C1DDCF41
:102A6000202020202020202000000000202020E81E
:102A7000EBE820E2EAEBFEF7E5EDE8E52020202098
:102A80000000000020202020CFE5F0E5E7E0E3F0A3
:102A9000F3E7EAE02020202000000000040D000001
:102AA000202020202020F3F1F2F0E0EDE5EDE02001
:102AB00020202020000000002020305B5D202030FE
:102AC0003C20303E3A303D3A3029202000000000C2
:102AD000202020202055ECE8ED3D20202BC2202096
:102AE000202020200000000020202020EDE520F301
:102AF000F1F2F0E0EDE5EDE0202020200000000004
:102B0000202020202055F1E5F2E83D20202BC22096
:102B10002020202000000000202020202020E1E0B4
:102B2000F2E0F0E5E8202020202020200000000036
:102B300020E0F1E8ECECE5F2F0E8FF20E1E0F2E083
:102B4000F0E5E82000000000202020C2FBF0E0E2D9
:102B5000EDE8E2E0FEF9E8E9202020200000000096
:102B600020202020202020E7E0F0FFE4202020206B
:102B700020202020000000002030252F2820202F9A
:102B8000305E2030403A30233A30242000000000EC
:102B9000202020202020E7E0E2E5F0F8E5ED2020ED
:102BA000202020200000000020305B2F5D20202FFF
:102BB000303C20303E3A303D3A30292000000000C1
:102BC00020202020EDE520E7E0E2E5F0F8E5ED202B
:102BD000202020200000000020202020202020D0C5
:102BE000E0E7F0FFE420202020202020000000006B
:102BF00020202020202020E1E0F2E0F0E5E8202065
:102C0000202020200000000020CDE0F7E0EBEE20A7
:102C10002020202020202020202020200000000034
:102C20002020202020202020202055E1E0F23D20FF
:102C3000203CC2200000000020CAEEEDE5F6202076
:102C40002020202020202020202020200000000004
:102C50002030712F7720202F30722030693A306C6D
:102C60003A30732000000000202020202020202067
:102C7000202055E1E0F23D20203EC220000000006F
:102C800020202020CEF2E4E0EDEE202020207AE08B
:102C90002AF72E20000000002020202020202020C5
:102CA0002055E1E0F23D20203CC220200000000041
:102CB00020202020202020202055E1E0F23D20206F
:102CC0003EC220200000000020A8ECEAEEF1F2FC59
:102CD00020202020207AE02AF72E2020000000006B
:102CE000001D0EC85BF827000BF05CFF9DF8290162
:102CF0000022401C21210BF04AFE9DF80400002216
:102D000040210BF044FE9DF80500002223210BF02A
:102D10003EFE9DF80600002224210BF038FE9DF8AF
:102D20000200002225210BF032FE9DF80000002257
:102D30005E210BF02CFE9DF80100401E0C28BFF414
:102D40003DAE9DF80100F74E002206EB80002821E1
:102D50000BF057FF9DF82401002269210BF017FEAC
:102D60009DF8250100226C210BF011FE9DF8260133
:102D7000002273210BF00BFE9DF82201002271212D
:102D80000BF005FE9DF82001002272210BF0FFFDE3
:102D90009DF82101401E0C28FFF414AE8DF821414E
:102DA00010E6E1A002909DF82A014C2806D0542894
:102DB00006D0552806D0752806D007E0E0A004E02C
:102DC000E5A002E0EAA000E0EFA00390AFF29430AB
:102DD00004909DF82001412803D19DF8210141284C
:102DE0007AD00122002109F10400FDF736FAAFF292
:102DF00050300590AFF24030069099F904500BEB3B
:102E00008501091D5BF825000EC90BF0CBFE9DF86E
:102E1000240100223E210BF0BAFD9DF8250100227D
:102E20003D210BF0B4FD9DF82601002229210BF075
:102E3000AEFD9DF8220100225B210BF0A8FD9DF85C
:102E4000200100223C210BF0A2FD9DF82101401E33
:102E50000C2801D38DF821419DF82111B1480022A1
:102E600000EB81005D210BF0CCFE00BF9DF8290135
:102E70000022401C2B210BF08AFD9DF8040000224B
:102E800040210BF084FD9DF80500002223210BF06A
:102E90007EFD9DF80600002224210BF078FD9DF8B0
:102EA0000200002225210BF072FD9DF80000002297
:102EB0005E210BF06CFD9DF80100401E0C2801D333
:102EC0008DF801409DF801109648002200EB81002A
:102ED000282103F09EB9FFE7AFF2F43002AD0346BC
:102EE000059007CD0BF05EFEC0E7AFF60430029010
:102EF000ABA00390AFF2BC400490AF4802AD0346D4
:102F0000059007CD0BF04EFE9DF829010022401CD4
:102F100021210BF03CFD9DF80400002240210BF024
:102F200036FD9DF80500002223210BF030FD9DF8B1
:102F30000600002224210BF02AFD9DF80200002249
:102F400025210BF024FD9DF8000000225E210BF0EE
:102F50001EFD9DF80100401E0C28FFF45DAC8DF8AD
:102F6000014059E4954EA3F5B851883901D194A098
:102F70005AE0834201D198A056E0434501D19CA07C
:102F800052E0A3F59050CC3801D19FA04CE0A3F5BE
:102F9000B8507A3801D1A2A046E0A3F5B8507538F0
:102FA00001D1A5A040E0A3F59050CA3801D1A8A056
:102FB0003AE0A3F59050C53801D1ABA034E040F61B
:102FC00078118B4201D1AEA02EE040F66C10834206
:102FD00001D1B1A028E0A3F59052E83A01D1B4A004
:102FE00022E0A3F5B852983A01D1B7A01CE0A3F5AE
:102FF0009052D43A01D1BAA016E0A3F5B852843A5F
:1030000001D1BDA010E0A3F51062923A01D1C0A099
:103010000AE0A3F51062793A01D1C3A004E08B4223
:10302000D1D08342D5D0C6A00290CBA00390D0A02F
:103030000490D5A00590DAA00690DFA00790E4A048
:103040000890E9A00990EEA00A90F3A00B90F8A0D8
:103050000C90FD480CF1040C0D90BCE80E005BF8E0
:1030600025000BF09FFD99F80400082802D1F748CD
:1030700080F83C40B6F906003446202805DA0022E4
:10308000212180B20BF083FC05E04FF0FF322121BB
:10309000EFA00BF0B6FDB4F908000D2805DA002208
:1030A000402180B20BF073FC05E04FF0FF3240216D
:1030B000E7A00BF0A6FDB4F90A00642805DA0022A7
:1030C000232180B20BF063FC05E04FF0FF32232197
:1030D000DFA00BF096FD394DDE4C8035E869A0424B
:1030E00006DB6FF004023F21DBA00BF08AFD03E05A
:1030F00000223F210BF0D1FA00222B2109200BF0F6
:1031000046FC0022282105200BF041FC286AA04241
:1031100006DB6FF004022921CFA00BF072FDA3E1C2
:103120009EE10000288D0100202020C0E2E0F0E8B0
:10313000FF20C1CFD1204E2B2020202000000000F6
:103140002020202020EEF2EAEBFEF7E8EBF1FF2052
:103150002020202000000000202020202020EFE55B
:10316000F0E5E3F0E5E22020202020200000000030
:10317000202020E7E0E2FBF8E5EDEE2055E2FBF54C
:103180002E20202000000000202020E7E0EDE8E6CF
:10319000E5EDEE2055E2FBF52E202020000000009A
:1031A00020EFF0E5E4EEF5F0E0EDE8F2E5EBFF20EE
:1031B000B9212020000000009812000094C00720D0
:1031C000202020C8C1DDCF3232302F36302D3234AE
:1031D0004120202000000000202020C8C1DDCF3287
:1031E00032302F36302D31324120202000000000B7
:1031F000202020C8C1DDCF3232302F34382D323478
:103200004120202000000000202020C8C1DDCF3256
:1032100032302F34382D3132412020200000000080
:10322000202020C8C1DDCF3232302F36302D313052
:103230004120202000000000202020C8C1DDCF3226
:1032400032302F36302D3541202020200000000064
:10325000202020C8C1DDCF3232302F34382D31301C
:103260004120202000000000202020C8C1DDCF32F6
:1032700032302F34382D354120202020000000002E
:10328000202020C8C1DDCF3232302F32342D3234ED
:103290004120202000000000202020C8C1DDCF32C6
:1032A00032302F32342D31324120202000000000F6
:1032B000202020C8C1DDCF3232302F34382D3430B9
:1032C0004120202000000000202020C8C1DDCF3296
:1032D00032302F36302D34304120202000000000C5
:1032E000202020C8C1DDCF3232302F34382D32308B
:1032F0004120202000000000202020C8C1DDCF3266
:1033000032302F36302D3230412020200000000096
:10331000202020C8C1DDCF3232302F32342D35305D
:103320004120202000000000202020C8C1DDCF3235
:1033300032302F32342D3235412020200000000061
:10334000202020D2E8EF20EDE5E8E7E2E5F1F2E524
:10335000ED20202000000000C4E0F2E020E8E7E3D8
:10336000EEF22E2030212F30402F302300000000BD
:10337000F8E0F1F1E82020202020532F4E303030AB
:1033800030303F2000000000D3CAD33230322E2B21
:103390002820532F4E3030303030292000000000DC
:1033A000CFCE202020202020202076202020205B2F
:1033B0002020202000000000C1CFD131202D20206E
:1033C0002020532F4E30303030303C2000000000A1
:1033D000C1CFD132202D20202020532F4E3030302D
:1033E00030303E2000000000525332333220202083
:1033F00020202076202020242020202000000000F3
:1034000043414E20504448202D2020762020202566
:10341000202020200000000043414E20534448203B
:103420002D2020762020205E20202020000000007B
:1034300045746865726E65742D20207620202026E4
:103440002020202000000000781F0000A61500109A
:103450002A2A000040420F002A2A2A2A2A2A00008B
:10346000002229210BF019F9286AA04207DB6FF02E
:1034700004022921AFF220000BF0C3FB03E000227D
:1034800029210BF00AF9686AA04207DB6FF00402F9
:103490003C21AFF23C000BF0B4FB03E000223C21E6
:1034A0000BF0FBF8A86AA04207DB6FF004023E2194
:1034B000AFF25C000BF0A5FB03E000223E210BF015
:1034C000ECF86FF0030422465B21FDA00BF099FBA2
:1034D00022462421FAA00BF094FB22462521F8A0D5
:1034E0000BF08FFB22465E21F5A00BF08AFB2246F3
:1034F0002621F3A00BF085FB5EE1F44EA3F5B85155
:10350000883902D1AFF2483064E0834202D1AFF291
:1035100038305FE0434502D1AFF22C305AE0A3F5DA
:103520009050CC3802D1AFF2203053E0A3F5B85020
:103530007A3802D1AFF218304CE0A3F5B8507538A4
:1035400002D1AFF20C3045E0A3F59050CA3802D159
:10355000AFF204303EE0A3F59050C53802D1AFF28F
:10356000F82037E0A3F51060783802D1AFF2F020F0
:1035700030E0A3F510606C3802D1AFF2E42029E00E
:10358000A3F59050E83802D1AFF2DC2022E0A3F599
:10359000B8508E3801D1CEA01CE0A3F59050D4389D
:1035A00002D1AFF2C42015E0A3F5B8507F3801D1A5
:1035B000CDA00FE0A3F51060923802D1AFF2B02099
:1035C00008E0A3F51060793802D1AFF2A42001E041
:1035D000AFF294200290AFF280200390AFF27020FF
:1035E0000490C7A00590AFF230200690AFF22020E3
:1035F0000790C9480CF1040C0890BCE80E005BF879
:1036000025000BF0CFFAB6F906003546202805DA7A
:103610000022212180B20BF0BAF906E04FF0FF3210
:103620002121AFF2D4100BF0ECFAB5F908000D2807
:1036300005DA0022402180B20BF0A9F906E04FF034
:10364000FF324021AFF2F8100BF0DBFAB5F90A00B7
:10365000642805DA0022232180B20BF098F906E0F5
:103660004FF0FF322321AFF218200BF0CAFA974E29
:10367000AA4D8036F069A84207DB6FF004023F21B3
:10368000AFF22C200BF0BDFA03E000223F210BF03B
:1036900004F800222B214FF461700BF078F900221E
:1036A000282105200BF073F9306AA84207DB6FF080
:1036B00004022921AFF260200BF0A3FA03E00022FC
:1036C00029210AF0EAFF706AA84207DB6FF00402C2
:1036D0003C21AFF27C200BF094FA03E000223C2165
:1036E0000AF0DBFFB06AA84207DB6FF004023E215C
:1036F000AFF29C200BF085FA03E000223E210AF095
:10370000CCFF99F90400032803D199F80110092985
:1037100013D099F90110A1B1012915D002291FD0A8
:10372000032925D004292BD005292ED0062934D0F1
:10373000072938D0082939D03EE0794880F83C4044
:103740003AE078BB142238E0022835DAC0F10100F3
:10375000C0B202225FF00C010BF066FA02F0E6BE86
:10376000022829DAC0F101000222C0B20F21F3E7DA
:10377000022821DAC0F101000222C0B21221EBE7D7
:10378000032819DAC0F1020012E0042814DAC0F1AB
:1037900003000622C0B20321DEE704280CDAC0F1E0
:1037A000030005E008E0C0F1040001E0C0F10500FD
:1037B0000A22C0B21146CFE7002200210846CBE71B
:1037C00058A002905DA0039062A0049067A00590AD
:1037D0006CA0069071A0079076A008907BA009903D
:1037E00080A00A9085A00B908AA00C908FA00D90CD
:1037F00094A00E9099A00F909EA01090A3A011905D
:10380000A8A01290ADA01390B2A01490B7A01590EC
:10381000BCA01690C1A01790C6A01890CBA019907C
:10382000D0A01A90D5A01B90DAA01C90DFA01D900C
:10383000E4A01E90E9A01F90EE482090EEA02190F9
:10384000F3A02290022E02DD89F8047003E0A94261
:1038500001DA89F8041099F90440F3A00BEB840114
:10386000D1E901235BF824100BF09CF901200BF047
:103870008BFF99F90400112820DABAF850000022D1
:10388000401C3C21544680B20BF081F8B4F8600033
:103890004FF000024FF0280110B1D6481F3801E068
:1038A000D4481A380BF0ADF9B4F85A004FF00002C2
:1038B0004FF0290108B1E2A0C7E1C5E1F6E100003F
:1038C0002D2D2D2D2D2D2D2D2D00000094C00720E8
:1038D000202020C8C1DDCF3232302F36302D33309A
:1038E0004120202000000000202020C8C1DDCF3270
:1038F00032302F36302D313541202020000000009D
:10390000D3CAD330302B2E302820532F4E303030B6
:103910003030292000000000781F000040420F00D6
:10392000A615001020D1F2E0EDE4E0F0F2EDFBE5A9
:1039300020202020202020200000000020C2F0E5D0
:10394000ECFF20E820E4E0F2E020202020202020EE
:103950000000000020D1F2F0F3EAF2F3F0E02020C2
:1039600020202020202020200000000020CCEDE599
:10397000ECEEEDE8EAE02020202020202020207935
:103980000000000020CEF1EDEEE2EDEEE920E8F1DE
:10399000F2EEF7ED2E204E3C0000000020C7E22E94
:1039A000F1E8E3ED2E2020202820202020202020D8
:1039B0000000000020CEF2EAEBFEF7E5EDE8E5209E
:1039C000F1E8E3EDE0EBE020000000002020E0E281
:1039D000E0F0E8E8202020202920202020202020BE
:1039E0000000000020C0CFC220E8F1F2EEF7EDE8C1
:1039F000EAEEE2202020202000000000205420EFEA
:103A0000F0EEE2E5F0EAE8202020F6E5EFE82020FD
:103A10000000000020E1E0F2E0F0E5E820202020B6
:103A20002071ECE8ED2E20200000000020556D6193
:103A3000783D2020202020202021C220202020206E
:103A4000000000002055E130B03D20202020202043
:103A50002040C22020202020000000002055E1321C
:103A600030B03D20202020202023C22020202020F4
:103A7000000000002055F1E8E3ED3D20202020204B
:103A8000205EC220202020200000000020556D690B
:103A90006E2EF1E5F2E83D202026C22020202020D5
:103AA00000000000205530E13D2020202020202073
:103AB000203EC22020202020000000002049E1EA12
:103AC0002E3D202020202020206AC02020202020E1
:103AD000000000002049E72EECE0F52E3D202020DC
:103AE000204AC020202020200000000020496D61D5
:103AF000783D202020202020205D412020202020F3
:103B000000000000204B696D61783D2020202020BE
:103B1000207B20202020202000000000204BE2FB02
:103B2000F02EE7E0F02E3D202020205B20202020FA
:103B3000000000002054E72EE2EAEB2EE02EF12EEA
:103B40002021F120202020200000000020746D6141
:103B5000783D2020202020202024B0432020202039
:103B6000000000002045746865726E657420202096
:103B700020202020202020200000000020C2EDE591
:103B8000F8EDE8E520E4E0F2F7E8EAE8202020207C
:103B90000000000020CFEEFDEBE5ECE5EDF2EDFBE3
:103BA000E920EA2DEBFC2E200000000020E1E0F2ED
:103BB000E0F0E5E8202020202020202020512520B2
:103BC0000000000020C0E2E0F0E8E9EDFBE520F0B5
:103BD000E5EBE520202020200000000020D1E5F0CA
:103BE000E8E9EDFBE9204E2020202020202020774E
:103BF00000000000138D010020CAE0EBE8E1F0EEC8
:103C0000E2EAE820202020202020202000000000E0
:103C100020D2E5F1F220202020202020202020208A
:103C200020202020000000002020202020D3D1D2FE
:103C3000C0CDCEC2CAC82020202020200000000015
:103C4000E0E2F2EEEC2E0000FAA00AF0DAFF94F8BF
:103C50002400552865D06FF003027921F7A00AF0FF
:103C6000D0FF34F8520F0122212180B20AF08FFEDA
:103C700060880122402180B20AF089FEA0880122DA
:103C8000232180B20AF083FE608901225E2180B286
:103C90000AF07DFEA0890022262180B20AF077FE7C
:103CA000608B01223E2180B20AF071FE0AF15804B5
:103CB00000222088242180B20AF069FE6089022255
:103CC0006A2180B20AF063FEA08903225B2180B2E0
:103CD0000AF05DFEE08901225D2180B20AF057FE04
:103CE000208A01227B2180B20AF051FE608A0122E3
:103CF0004A2180B20AF04BFEE08A0022212180B2E4
:103D00000AF045FE608B0022712180B20AF03FFE6E
:103D1000B4F91C0098B10022512180B20AF037FE9C
:103D200013E06FF007027921C6A00AF06AFFC848C5
:103D300000227921B0F86C000AF029FE91E76FF0BB
:103D400001025121C3A00AF05CFFC148002280306B
:103D50007721C0690AF0A1FC00E5C0A00290C5A0CF
:103D60000390CAA00490CFA00590D44806904C9A26
:103D70002AB1A0F115029AF81C004BF82020A942A4
:103D800002DA89F8041003E0022E01DD89F80470DC
:103D900099F90440CAA00BEB8401D1E901235BF837
:103DA000241001F0F9BB9AF809005446401CC0B237
:103DB0008AF809000F2809D3002008F1010808F04B
:103DC000FF016072A177032900D3A077C248029057
:103DD000BA4815380390A07F20B1012804D00228EA
:103DE00017D003E0BDA000E0C2A0049002ADC7A0C0
:103DF0000ECD0AF0D7FE99F9010060B101280FD06D
:103E0000022812D0032815D0042818D005281BD06A
:103E10001EE0C4A0E9E7C9495E2081F82A0017E046
:103E2000C6495E2081F82D0012E0C4495E2081F869
:103E300030000DE0C1495E2081F8330008E0BF4941
:103E40005E2081F8360003E0BC495E2081F83A002C
:103E5000BB4D28784FF000024FF026010AF097FD85
:103E6000287900225E210AF092FD287A002225217D
:103E70000AF08DFD287B00223C210AF088FD297E76
:103E80008E480022153000EB81003E210AF0B9FE79
:103E9000A88B00227B210AF07AFD207D00287ED0AD
:103EA0003A200AF00AFBA54D20242C543A200AF0AF
:103EB00004FB2C5452E4A3A202929AF82220D0468A
:103EC000552A09D0A54A03927C4A153A04920592D4
:103ED000069288F81D4017E098F82320552AA0A2E2
:103EE000039207D09D4A0492744A153A05920692AD
:103EF000022207E0A0A20492984A05926F4A153A5E
:103F00000692032288F81D20A94201DA017102E01D
:103F1000022E00DD077199F904109DA00BEB8102C0
:103F2000121D5BF821100CCA0AF03CFE01200BF0B8
:103F30002BFC98F822004FF0000255284FF0210189
:103F40000DD05E48B0F11A000AF05BFE98F823002D
:103F50004FF0000255284FF0400103D0A0E1574830
:103F60001F38F1E755481F380AF04BFE3848002249
:103F70002321B0F86A00FEF752B88BA2029290A2F9
:103F8000039295A204929AA205929FA20692524A87
:103F90003032079218320892A1A2099200E04DE354
:103FA000464A0A92A94201DA017102E0022E00DDBE
:103FB000077190F90410A0A00BEB8102121D5BF8B1
:103FC00021100CCA0AF0EEFD01200BF0DDFB99F880
:103FD00000004C4630B3012828D06FF004022121A4
:103FE0009BA000BF0AF00DFE6078E0B101281ED052
:103FF0006FF00402402196A00AF003FEA07898B169
:10400000012815D06FF00402232191A00AF0F9FDD8
:10401000E07850B101280CD06FF0040228218CA068
:1040200002F0F7B818E122E12CE136E119E123E1D1
:104030002DE137E1F0F3F7ED2E000000E2FBEAEBB3
:104040002E000000F7E5F0E5E72079F12E000000F2
:1040500094C00720C2DBCACB2E00000020C8C1DDFF
:10406000CF3232302F36302D3132C02D312F322029
:104070000000000020C8C1DDCF3232302F36302D95
:104080003132C02D322F32200000000020C8C1DDA7
:10409000CF3232302F34382D3132C02D312F3220F3
:1040A0000000000020C8C1DDCF3232302F34382D5F
:1040B0003132C02D322F322000000000138D01005C
:1040C000D1D2C0CDC4C0D0D2CDDBC520D3D1D22E69
:1040D0002DCAC820000000007018000020202020F9
:1040E0009A209C202D20E2FBE1EEF02020202020D1
:1040F00000000000202020BF209D202D20F3F1F2A1
:10410000E0EDEEE2EAE020200000000020D3D1D272
:10411000C0CDCEC2CAC02020C2D0C5CCC5CDC8201B
:10412000000000002020202020A420202D20E2FBE1
:10413000F5EEE4202020202000000000A61500104D
:104140002040024020C0CFC22031E920F3F0EEE24F
:10415000E5EDFC202120202000000000781F000059
:1041600020C0CFC22032E920F3F0EEE2E5EDFC20E2
:10417000402020200000000020CFE5F0E8EEE42001
:10418000C0CFC232202020202023F72E00000000C4
:10419000202020C0CFC220C8D1D2CED7CDC8CACE11
:1041A000C22020200000000020D0E5EBE520E0E266
:1041B0002EB93120202020202020202100000000C6
:1041C00020D0E5EBE520E0E22EB9322020202020AF
:1041D000202020400000000020D0E5EBE520E0E2B8
:1041E0002EB9332020202020202020230000000092
:1041F00020D0E5EBE520F1E0ECEEEAE0EBE8E1F0E1
:10420000EEE2EAE80000000020D0E5EBE520E1E086
:10421000F2E0F0E5E8202020202020280000000027
:1042200020C1CFD1312BC1CFD1322020202020205E
:1042300020202020000000002020202020202020FE
:10424000D2C5D1D220202020202020200000000034
:10425000D0C0C1CED72E00006FF002022121F84855
:10426000C0E6F74821216FF00202401FBAE66FF066
:1042700002024021F248BFE6F14840216FF00202FD
:10428000401FB9E66FF002022321ED48BEE6EC487C
:1042900023216FF00202401FB8E66FF002022821CE
:1042A000E748BDE66FF002022821FDE3E5A2029295
:1042B000AFF2C4020392E94A049218320592AFF2B7
:1042C000A0020692DE4A1A320792A94201DA01716F
:1042D00002E0022E00DD077190F904100BEB810261
:1042E000121D5BF821100CCAAFF2B4000AF05AFCA0
:1042F00001200BF049FA99F8000010B1012804D010
:1043000009E000222821CE4803E0CD4800222821E0
:10431000401F0AF076FC8AF834401DE5A94201DA14
:10432000017102E0022E00DD0771C54BCCA21A33E9
:10433000D1A1D7A00AF036FC01200BF025FA99F89C
:10434000040020B1012806D0032809D00EE0002285
:104350003C21BB4808E0BA4800223C21401F03E052
:1043600000223C21AFF218100AF04BFCCE4802228A
:104370003A21B0F9740001F02DBCA94201DA0171B3
:1043800002E0022E00DD0771AD4BC8A21A33CDA1A9
:10439000D2A00AF007FC01200BF0F6F999F805000D
:1043A00020B1012809D002280FD018E000224021B6
:1043B000D0A00AF026FC1E200EE000224021CFA053
:1043C0000AF01FFC40F2CA3006E000224021CDA0D6
:1043D0000AF017FC45F25550B349A1F87E000022BF
:1043E0002421C9A00AF00DFCAF480122B0303C21C5
:1043F00000880AF0CCFAAC480122B4303E21008893
:104400000AF0C5FA00222321C148AEE0A94201DA30
:10441000017102E0022E00DD0771894BBDA21A3343
:10442000A8A1C2A00AF0BEFB01200BF0ADF999F8DB
:10443000060020B1012809D002280FD018E0002280
:104440004021ACA00AF0DDFB1E200EE0002240213E
:10445000AAA00AF0D6FB40F2CA3006E000224021B2
:10446000A8A00AF0CEFB45F255508F498031088054
:1044700000222421A4A00AF0C4FB8B480122B03002
:104480005B2140880AF083FA87480122B4305D211D
:1044900040880AF07CFA0022232165E0A9A202925A
:1044A00082A203929BA20492654A1A320592A94203
:1044B00001DA017102E0022E00DD077190F904506B
:1044C000A6A00BEB8501D1E901235BF825100AF0CA
:1044D00069FB01200BF058F999F8070020B1012879
:1044E00009D002280FD01AE00022402181A00AF052
:1044F00088FB1E200EE00022402180A00AF081FBF4
:1045000040F2CA3006E0002240217EA00AF079FB8A
:1045100045F255506449A1F87E00803108800022A0
:10452000242179A00AF06DFB5F4D0122B0353C21BA
:1045300028880AF02CFA2E1D012230883E210AF02C
:1045400026FA734800222321008880B20AF01FFA5D
:10455000688801225B210AF01AFA708801225D2125
:104560000AF015FA002221218248008880B20AF060
:104570000EFA814801222421008880B20AF007FA4D
:104580008AF8354096E47DA0029082A0039087A02F
:1045900004908CA005902A481A300690A94202DAAD
:1045A00089F8041003E0022E01DD89F8047099F9FE
:1045B00004108AA00BEB8102121D5BF821100CCABB
:1045C0000AF0F0FA01200BF0DFF80AF1760400227D
:1045D0006088212180B20AF0DAF920880022402187
:1045E00080B20AF0D4F9A0880022232180B20AF018
:1045F000CEF900222421E088BDE47EA0029083A2AF
:104600004BF8232087A2CCF804208CA2CCF80820F9
:1046100090A2CCF80C200A4ABAF97C401A32234402
:1046200058464BF823200BEB8303904A5A609A605C
:10463000A94202DA89F804101EE119E1D3E2000070
:10464000F98C010020D0E5EBE520E0E2E0F0E8FFA6
:10465000202020202820202000000000A01800009A
:104660002049E1E0F23D20202020202020202020B1
:10467000203A41200000000020D0E5EBE52020207A
:104680002020202020203C2020202020000000008E
:1046900020D2C5D1D220D1C0CCCECAC0CBC8C1D0C7
:1046A000CEC2CAC00000000094C007202055313D92
:1046B000202020203CC22049313D202020203EC027
:1046C000000000002055F03D402020242020202024
:1046D00020F8E8EC3D2020230000000020202020CE
:1046E00020D2C5D1D220C1CFD131202020202020FE
:1046F00000000000556D696E00000000556D617886
:10470000000000005532300028202020242900001D
:1047100042C207202055323D202020205BC2204984
:10472000323D202020205DC00000000020202020FD
:1047300020D2C5D1D220C1CFD132202020202020AC
:10474000000000002055F03D4020202420202020A3
:10475000202020232020202100000000202020D223
:10476000C5D1D220C1CFD1312BC1CFD13220202011
:104770000000000044C2072046C2072020C1E0F22A
:10478000E0F0E5E9202020202020202020202040EB
:104790000000000020C8F1F2EEF7EDE8EAEEE220BA
:1047A00020202020202020210000000020C4E0F252
:1047B000F7E8EAEEE220F2E5ECEFE5F02E20202328
:1047C0000000000020D1F3F5E8F520EAEEEDF2E07C
:1047D000EAF2EEE220202024000000002020202029
:1047E0002020D1D2D0D3CAD2D3D0C02020202020A4
:1047F0000000000020C4E0F2F7E8EA20F2E5ECEF68
:10480000E5F02E204E3120200000000020D1F3F5ED
:10481000EEE920EAEEEDF2E0EAF2204E312020202F
:104820000000000020D1F3F5EEE920EAEEEDF2E021
:10483000EAF2204E322020200000000020D1F3F5C3
:10484000EEE920EAEEEDF2E0EAF2204E33202020FD
:104850000000000020D1F3F5EEE920EAEEEDF2E0F1
:10486000EAF2204E342020200000000098120000C0
:10487000022E01DD89F8047099F9044000EB8401EF
:10488000D9A0D1E901235BF82410FEE3DCA2029257
:10489000E1A20392E6A20492EBA20592F0A2069294
:1048A000F5A20792FAA20892FF4A4C460992A94241
:1048B00001DA217102E0012E00DD207194F904106B
:1048C0000BEB810253685BF82120F8A1FDA00AF0F0
:1048D00069F902200AF058FF94F902000022401CF6
:1048E00080B221210AF053F894F90210FB4800220B
:1048F00030F91100402109F081FEF84994F90200D5
:10490000303931F81010F1B36FF001022321AFF606
:10491000D4000AF076F900BFF04994F90200243976
:1049200031F8101081B36FF001022421AFF6F400CA
:104930000AF067F9E94994F9020018396FF00102A9
:1049400031F810004FF05B01A0B3AFF6101000BFBC
:104950000AF057F9E14994F9020012396FF00102A7
:1049600031F810004FF05D0180B3AFF6301000BF9A
:104970000AF047F9D94894F902100C386FF0010297
:1049800030F8110001E00CE015E04FF0280100B311
:10499000AFF658100AF035F9D04994F90200891F92
:1049A000AEE0CE4900222A3931F91000232109F066
:1049B00025FEB1E708E0C94900221E3931F910008F
:1049C000242109F01BFEB5E7C5A0C1E7FFE7C4A09D
:1049D000CEE7C3A0DEE7C2A063E4AFF6A01060E4B8
:1049E000C1A00290C6A00390CBA0049096A0059011
:1049F0009BA00690A0A00790A5A00890AA484C46AE
:104A00000990A94201DA217102E0022E00DD27712E
:104A100094F90410C6A00BEB8102121D5BF8211063
:104A20000CCA0AF0BFF801200AF0AEFE94F90200A9
:104A30000022401C80B2212109F0A9FFA74994F966
:104A400002004C394FF00002085C4FF04001FF2893
:104A500061D0BDA00AF0D5F8A04994F90200891DE3
:104A60004FF0000231F810004FF02301F0B3B6A070
:104A70000AF0C7F8994994F90200243931F8101066
:104A8000A9B36FF005022421AFF650200AF0B9F85F
:104A9000924994F902000E316FF0010231F81000D2
:104AA0004FF05B01B0B300E0F1E3AFF6702000BF60
:104AB0000AF0A7F8894994F9020016316FF0010253
:104AC00031F810004FF05D0190B3AFF6902000BFB9
:104AD0000AF097F8814894F902101E306FF0010235
:104AE00030F811004FF0280138B301E015E016E06E
:104AF000AFF6B8200AF085F8784994F9020026311B
:104B00006FF0010231F810004FF0290100287FF406
:104B100064AF60E70DE08EA09CE78DA0A8E76F4929
:104B200000221E3931F91000242109F067FDAFE79A
:104B300001E06BA0BCE76AA0CAE769A0DAE75A48BF
:104B40001F38D0E91A23006F4A92CDE94B3082A07A
:104B5000029087A003908CA0049091A0059096A04D
:104B600006909BA00790A0A00890A5A00990AAA0DD
:104B70000A90AFA00B90B4A00C90B9A00D90BEA06D
:104B80000E90C3A00F90C8A01090CDA01190D2A0FD
:104B90001290D7A01390DCA01490E1A01590E6A08D
:104BA0001690EB48EB4C1790A08B28B9E84803907F
:104BB000A0F54E6004900590C846A94202DA88F834
:104BC000041003E0022E01DD88F8047098F9045007
:104BD000E1A00BEB8501D1E901235BF8251009F079
:104BE000E1FF0120C4E1C6E32020C2CDC5D8CDC875
:104BF000C520C4C0D2D7C8CAC820202000000000E9
:104C000020F2E5ECEFE5F0E0F2F3F0E020202020E8
:104C10002040B0430000000020746D617820202007
:104C200020202020202020202023B043000000004E
:104C300020746D696E20202020202020202020203C
:104C40002024B0430000000020D0E5EBE520202028
:104C50002020202020202020205B20200000000099
:104C600020C7E2F3EA20202020202020202020203E
:104C7000205D20200000000020C4E8F1EFEBE5E912
:104C8000202020202020202020282020000000009C
:104C900020534E4D5020545241502020202020209F
:104CA0002029202000000000138D0100202020D2A8
:104CB000C5CCCFC5D0C0D2D3D0DB204E2120202000
:104CC000000000002020C2CDC5D8CDC8C920C4C076
:104CD000D2D7C8CA202020200000000098C1072099
:104CE000E2EAEB2E0000000020F2E5EAF3F92EF1F3
:104CF000EEF1F22E20402020202020200000000095
:104D000020E0E2E0F0E8E9EDEEE520F1EEF1F2EE90
:104D1000FFEDE8E5000000002020202020202020DA
:104D2000202D2023202020202020202000000000F3
:104D30002020D1D3D5CEC920CACECDD2C0CAD22050
:104D40004E21202000000000EDE5E7E0ECEA2E0017
:104D5000E7E0ECEAEDF3F2002045746865726E65F9
:104D6000742020202020202020202120000000006E
:104D70002044484350EAEBE8E5EDF22020202020D3
:104D80002020402000000000204950E0E4F0E5F140
:104D90002020202020202020202020200000000093
:104DA00020203030302E3030302E3030302E303029
:104DB000232020200000000020CCE0F1EAE020EFDA
:104DC000EEE4F1E5F2E820202020202000000000A1
:104DD00020203030302E3030302E3030302E3030F9
:104DE000242020200000000020D8EBFEE720202017
:104DF0002020202020202020202020200000000033
:104E000020203030302E3030302E3030302E3030C8
:104E1000292020200000000020CFEEF0F22EF7F233
:104E2000E5EDE8FF202020202020205B000000008E
:104E300020CFEEF0F22EE7E0EFE8F1E8202020208E
:104E40002020205D0000000020436F6D6D756E69AD
:104E50007479203C20202020202020200000000009
:104E600020C0E4F0E5F1E0F220E4EBFF20545241F1
:104E700050204E310000000020203030302E3030E5
:104E8000302E3030302E3030252020200000000021
:104E900020C0E4F0E5F1E0F220E4EBFF20545241C1
:104EA00050204E320000000020203030302E3030B4
:104EB000302E3030302E30305E20202000000000B8
:104EC00020C0E4F0E5F1E0F220E4EBFF2054524191
:104ED00050204E330000000020203030302E303083
:104EE000302E3030302E30302620202000000000C0
:104EF00020C0E4F0E5F1E0F220E4EBFF2054524161
:104F000050204E340000000020203030302E303051
:104F1000302E3030302E30302A202020000000008B
:104F200020C0E4F0E5F1E0F220E4EBFF2054524130
:104F300050204E350000000020203030302E303020
:104F4000302E3030302E303028202020000000005D
:104F5000781F000094C0072020D3D1D2C0CDCEC28C
:104F6000CAC82045746865726E6574200000000030
:104F70000AF00AFCA08B20B16FF002022121FFA0F1
:104F800004E06FF003022121AFF6387009F039FE1A
:104F9000E08B20B16FF002024021F8A004E06FF036
:104FA00003024021AFF6547009F02BFE98F801106F
:104FB0002320022945D00021CDE90001B4F9263093
:104FC000B4F92420B4F92210B4F9200009F03DFC12
:104FD00098F801102420042938D00021CDE90001DF
:104FE000B4F92E30B4F92C20B4F92A10B4F9280001
:104FF00009F02BFC98F80110292006292BD000215C
:10500000CDE90001B4F96230B4F96020B4F95E1062
:10501000B4F95C0009F019FCB4F8580000225B21D7
:1050200080B209F0B4FCB4F85A0000225D2180B2CD
:1050300009F0ADFCB4F930006FF00D05FF280FD07A
:1050400017E098F80210491CC9B2B5E798F80210A9
:10505000491CC9B2C2E798F80210491CC9B2CFE78F
:10506000618EFF2905D1A18EFF2902D1E18EFF2992
:1050700017D098F8012025210B2A18D05FF00002E4
:10508000CDE90012B4F9363000E085E2B4F93420FD
:10509000B4F9321009F0D9FBB4F93800FF280BD06D
:1050A00013E02A462521B7A009F0ABFDF4E798F8F4
:1050B0000220521CD2B2E3E7618FFF2905D1A18FF4
:1050C000FF2902D1E18FFF2915D098F801100D2991
:1050D00017D000225E21CDE9001200BFB4F93E30A6
:1050E000B4F93C20B4F93A1009F0AFFBB4F9400030
:1050F000FF280ED019E02A465E21A2A009F081FD0A
:10510000F4E798F80210491CC9B25E22CDE90021EB
:10511000E4E7B4F84210FF2907D1B4F84410FF299E
:1051200003D1B4F84610FF2915D098F801202621A4
:105130000F2A16D05FF00002CDE90012B4F9463014
:10514000B4F94420B4F9421009F07FFBB4F94800E7
:10515000FF280BD016E02A4626218AA009F051FD2F
:10516000F4E798F80220521CD2B2E5E7B4F84A10EE
:10517000FF2907D1B4F84C10FF2903D1B4F84E1021
:10518000FF2914D098F801202A21112A15D00022D5
:10519000CDE90012B4F94E30B4F94C20B4F94A10FC
:1051A00009F053FBB4F95000FF280BD016E02A4653
:1051B0002A2174A009F025FDF4E798F80220521C7A
:1051C000D2B2E5E7B4F85210FF2907D1B4F8541071
:1051D000FF2903D1B4F85610FF2928D098F80120F0
:1051E0002821132A29D00022CDE90012B4F9563023
:1051F000B4F95420B4F9521009F027FB664A002094
:105200004AA9135C0B54401CC0B20928F9D30020F2
:105210008DF8310198F8010098F802200A2811D081
:1052200000233C214AA809F0F3FA01F07FB92A468D
:10523000282154A009F0E5FCE0E798F80220521C70
:10524000D2B2D1E70123ECE754A0029059A0039019
:105250005EA0049063A005904846BEF11E0F03D1E6
:105260004F9A0AB1654A0592654A0692A94201DA47
:10527000017102E0022E00DD077199F904400BEB89
:105280008400D0E901235BF824105EA084E15DE195
:1052900062A0029067A003906CA0049071A005909A
:1052A00076A006907BA0079080A0089085A009902A
:1052B0008AA00A9052484C460B90A94201DA21710B
:1052C00002E0022E00DD277194F9041089A00BEB97
:1052D0008102121D5BF821100CCA09F063FC012049
:1052E0000AF052FA94F902000022401C80B22121F7
:1052F00009F04DFB94F90200844D6FF002024FF06B
:10530000400135F81000C00702D03D481F3801E0C9
:105310003B481A3809F075FC94F902006FF002025C
:105320004FF0230135F81000800702D534481F38AC
:1053300001E033481A3809F064FC94F902006FF078
:1053400002024FF0240135F81000400702D52C4826
:105350001F3801E02A481A3809F053FC94F902007A
:105360006FF002024FF0260135F81000000703D558
:1053700023481F38CDE0F7E3CAE00000C2CACB2EB5
:105380000000000020202020EDE5E0EAF2E8E2E560
:10539000ED20202020000000244E001020D0E5EB5E
:1053A000E520B9312020202020202020202020208E
:1053B0000000000020D0E5EBE520B93220202020BD
:1053C00020202020202020200000000020D0E5EB1D
:1053D000E520B9332020202020202020202020205C
:1053E0000000000020C7E0E2EEE4F1EAE8E520F387
:1053F000F1F2E0EDEEE2EAE80000000098120000B1
:10540000138D0100202020C0C2C0D0C8C9CDDBC58B
:1054100020D0C5CBC52020200000000020C0E2E045
:10542000F0E8FF20F1E5F2E82020202020202040B5
:105430000000000020C0E2E0F0E8FF20E1E0F2E040
:10544000F0E5E820202020230000000020C0E2E05A
:10545000F0E8FF20C1CFD1202020202020202024D0
:105460000000000020C0E2E0F0E8FF20EFF0E5E4FB
:10547000EE2D2020202020200000000020F5F0E06C
:10548000EDE8F2E5EBE5E920202020202020202691
:105490000000000020C0E2E0F0E8FF20F1F3F5E8B2
:1054A000F5202020202020200000000020EAEEED42
:1054B000F2E0EAF2EEE22020202020202020202529
:1054C0000000000020C0E2E0F0E8FF20E2EDE5F897
:1054D000EDE5E920202020200000000020F2E5EC8E
:1054E000EFE5F0E0F2F3F0FB202020202020205E0A
:1054F00000000000202020D0C5CBC520C0C2C0D0F5
:10550000C8C820B9212020200000000062C1072067
:10551000C94809F076FB94F902006FF002024FF0DF
:10552000250135F81000C00602D5C348401F00E031
:10553000C14809F066FB94F902006FF002024FF0D7
:105540005E0135F8100080067EF5AAAEBA48401F0D
:1055500039E3BAA3BFA2C5A1CAA0FEE3CF48029017
:10556000603803901830049018300590CC480690AD
:10557000B1481A3007904846022E01DD077102E05B
:10558000A94200DA017199F90410C6A00BEB81025F
:10559000121D5BF821100CCA09F004FB01200AF06F
:1055A000F3F842E6C5A00290CAA00390CFA00490F1
:1055B000D4A00590B8F1000F1CD0D8A00690CBA0C5
:1055C0000790DCA00890E1A00990C8A00A90E5A08F
:1055D0000B90EAA00C90EFA00D90974AF3A01A321E
:1055E000CDE90E02A2F115004E9B10901190302BC8
:1055F00004D005E0F3A00690F8A0E1E7CDE90E2085
:10560000C846A1B1012912D0022910D0032910D017
:1056100004290ED005290CD006290CD007290AD060
:10562000082908D0022E0ADD88F804700BE000205B
:1056300002E0032000E0062088F8040003E0A9420D
:1056400001DA88F8041098F90410EAA00BEB810243
:10565000121D5BF821100CCA09F0A4FA01200AF00F
:1056600093F8EA4E01224021B6F8720080B209F0A8
:105670008EF902222321B6F9740008F057FF06F5CF
:105680009975012228885B2109F081F96888012237
:105690005D2109F07CF9A88801227B2109F077F9C6
:1056A000E88801227D2109F072F99AF82700554611
:1056B00040B1287D30B16FF004022421D4A009F05C
:1056C000A0FA05E000222421B6F9700008F096FF48
:1056D00098F80100032803D1A87F08B985F8334062
:1056E00005F82F4F6C70A0E5CC4855460290B8F1F4
:1056F000000F71D0CAA003907CA00490C748C34A91
:1057000018380590CCA0069078A00790C3484E4664
:1057100030307832089012F80E00F0B346484C9AB8
:10572000401D09900AB1CAA209920A9042481A3053
:105730000B9015380C900D9081B3012954D002299B
:1057400052D0032952D0042950D005294ED0062921
:105750004ED007294CD008294AD0092041B20BEB82
:1057600081023071121D5BF821100CCABEA009F035
:1057700019FA01200AF008F896F902000022401CEC
:1057800080B2212109F003F9A04896F90210B03047
:10579000012230F81100402101E021E024E009F06D
:1057A000F6F89A4896F90210B430012230F8110048
:1057B000232109F0ECF8954896F90210AC3000224C
:1057C00030F81100242109F0E2F896F9020088B1BE
:1057D00001281DD024E0FFE77AA00390A8A08CE761
:1057E000ADA0099041A0A0E70020B7E70320B5E7EE
:1057F0000620B3E7707808B9A87F20B185F831405A
:1058000085F830400CE085F82F4085F8324007E0FD
:10581000707808B9A87F68B185F8324085F82F40C4
:105820007A494FF46170A1F87E008031088085F8D4
:105830003540FAE43CE10000F98C0100202020ED25
:10584000E0E3F0F3E7EAE820342D3130C0202020F7
:1058500000000000202020D3F1F2E0EDEEE2E8F2BB
:10586000E520F2EEEA202020000000002020C1C048
:10587000D2C0D0C5DF20CDC0C3D0D3C7CAC020207E
:1058800000000000C2EAEBFEF7E8F2E520E0E2F2F9
:105890002DF2FB20D1C5D2DC00000000E81800008A
:1058A0007C3B00002020202020CAC0CBC8C1D0CE25
:1058B000C2CAC02020202020000000002055E1E0C6
:1058C000F2203D202020202040C220202020202027
:1058D0000000000020EEF2EAE0EBE8E1F0F3E9F28C
:1058E000E52055E1E0F22020000000002020EDE05E
:1058F000E6E0F2E8E5EC209A20E8EBE8209C2020A6
:10590000000000002049E1E0F2203D20202020207E
:1059100023C02020202020200000000020EEF2EAFA
:10592000E0EBE8E1F0F3E9F2E52049E1E0F22020E4
:10593000000000002074E1E0F2203D20202020241F
:10594000B0432020202020200000000020EEF2EABA
:10595000E0EBE8E1F0F3E9F2E52074E1E0F2202089
:10596000000000002055272B27FD3120202020207B
:105970002020205BC2202020000000002055272B83
:1059800027FD3220202020202020205DC220202042
:10599000000000002055272B27FD33202020202049
:1059A0002020207BC2202020000000002055272B33
:1059B00027FD3420202020202020207DC2202020F0
:1059C00000000000202020EDE0E6ECE8F2E520A455
:1059D00020E4EBFF2020202000000000EAE0EBE8BC
:1059E000E1F0EEE2EAE820EDF3EBFF2049E1E0F23E
:1059F0000000000020CAC0CBC8C1D0CEC2CAC0209F
:105A0000C1C0D2C0D0C5C8200000000094C007208B
:105A1000EDE5E8F1EFF0E0E2E5ED0000301F000019
:105A200020EEF2EAE0EBE8E1F0F3E9F2E52049E804
:105A3000F1F220200000000020EEF2EAE0EBE8E1C5
:105A4000F0F3E9F2E52055E8F1F220200000000033
:105A500020E4E0F2F7E8EA20EDE5E8F1EFF0E0E23B
:105A6000E5ED2020000000002020CAC0CBC8C1D036
:105A7000CEC2CAC020C1CFD121202020000000000A
:105A8000EAE0EBE8E1F0EEE2EAE820EDF3EBFF20FC
:105A900049E8F1F20000000020EEF2EAE0EBE8E174
:105AA000F0F3E9F2E52074E8F1F2202000000000B4
:105AB00085F8304085F83140B2E6F2A00290F74810
:105AC000039015380490022E02DD88F8047003E07C
:105AD000A94201DA88F8041099F90410F0A00BEB40
