:020000040000FA
:1000000028260010D9000000DD000000DF000000FD
:10001000E1000000E3000000E50000000000000037
:10002000000000000000000000000000E7000000E9
:10003000E900000000000000EB00000053BB0000DE
:10004000EF000000EF000000EF000000EF000000F4
:10005000EF000000654D0100EF0000003D4B010086
:10006000EF000000EF000000EF000000EF000000D4
:10007000EF000000EF000000EF000000EF000000C4
:10008000EF000000EF000000EF000000EF000000B4
:10009000EF000000EF000000EF000000EF000000A4
:1000A000EF000000A14A0100EF000000EF00000097
:1000B000EF000000EF000000EF000000EF00000084
:1000C000EF000000DFF80CD000F0CAF8004800474D
:1000D000A7BC00002826001005480047FEE7FEE701
:1000E000FEE7FEE7FEE7FEE7FEE7FEE7FEE7FEE7E8
:1000F000C500000090F900308B4200DA027090F9E0
:100100000030934200DD0170704790F900308B425F
:1001100000DA017090F90030934200DD0270704700
:10012000B0F900308B4200DA0180B0F90030934220
:1001300000DD02807047B0F900308B4200DA0280A7
:10014000B0F90030934200DD0180704703688B42B4
:1001500000DA02600368934200DD0160704700002E
:100160002B4B1A602B4B18702B4B1970704728487B
:100170000068C8B126480068401E2549086013D1B0
:1001800024480078254908702348007840B2487018
:1001900008464078087100202149087021490870FC
:1001A00021490870214908707047214A1160214A8D
:1001B000107070471E48006898B11D480068401EC6
:1001C0001B4908600DD11B480078144908700020B5
:1001D000487013490870134908701349087013498F
:1001E0000870704714490880704710B5124800889D
:1001F00060B111480088401E00B20F4908800846CF
:10020000008818B90021084611F09AFC10BD0000C2
:10021000CC020010C8020010C90200109A000010A1
:10022000D4020010D5020010D6020010D702001030
:10023000D0020010CA020010D802001040EA0103E8
:100240009B070AD102E008C9121F08C0042AFAD28B
:1002500003E011F8013B00F8013B521EF9D2704750
:10026000064C074D06E0E06840F0010394E8070003
:1002700098471034AC42F6D3FFF728FF5C5A0100D0
:100280007C5A010070B501EB020410F8015B15F017
:10029000070301D110F8013B2A1106D110F8012BF8
:1002A00003E010F8016B01F8016B5B1EF9D12B071D
:1002B00006D4002301E001F8013B521EFBD50CE0FF
:1002C00010F8013B02F10202A1EB030303E013F873
:1002D000015B01F8015B521EF9D5A142D5D3002084
:1002E00070BD02E008C8121F08C1002AFAD1704789
:1002F000704700000000000000000000FFFFFFFF4B
:1003000020207549086000BF7348006810F0400F56
:10031000FAD003207149086071487249C1F8A801F8
:100320004FF00000704908604FF001006F4908600D
:100330006F48704908604FF00100A1F104010860A6
:100340004FF0AA006C4908604FF055006549C1F8AC
:100350008C0000BF6948006810F0806FFAD003205D
:10036000674908604FF0AA005E49C1F88C004FF061
:100370005500614908604FF000006249086062481A
:10038000624908604FF000005649C1F8C8015B4857
:100390000068C0F30160032868D15448006810F079
:1003A000030006D0012823D002283FD003285CD1C7
:1003B00000E000BF51480068C0F30E0000F10100EA
:1003C0004FEA40014748D0F88800C0F3074000F1E9
:1003D0000100B1FBF0F14E4801FB00F13F4800681D
:1003E000C0B200F10100B1FBF0F04A4908603CE006
:1003F00042480068C0F30E0000F101004FEA4001DE
:100400003848D0F88800C0F3074000F10100B1FB84
:10041000F0F1414801FB00F130480068C0B200F142
:100420000100B1FBF0F03B4908601EE03348006872
:10043000C0F30E0000F101004FEA40012948D0F856
:100440008800C0F3074000F10100B1FBF0F14FF468
:10045000FA4001FB00F121480068C0B200F1010040
:10046000B1FBF0F02B49086000BF2FE01F48006887
:1004700010F0030006D0012810D0022819D003285C
:1004800023D100E000BF15480068C0B200F10100B0
:100490001F49B1FBF0F01F49086016E00F480068E3
:1004A000C0B200F101001C49B1FBF0F0194908602D
:1004B0000BE00A480068C0B200F101004FF4FA41B5
:1004C000B1FBF0F01349086000BF00BF43F23A00EF
:1004D0000449086070470000A0C10F4004C10F40EC
:1004E0000000020800C00F40ACC10F400CC10F401B
:1004F0004F00030084C00F408CC00F4088C00F40E5
:1005000080C00F4008C10F4048F10001C4C00F4037
:1005100000093D0000000010809698001120FE495F
:1005200008727047FD48C06940F44020FB49C8612B
:100530000846C06940F44010C8610020F849C8600E
:100540004FF44060C864022048614FF47A708861BB
:100550004FF4487008624862012008650220486034
:100560000920486070472DE9F04186B0002504E07D
:100570000020EC494855681C05B2B5F5F47FF7DB5F
:10058000E948007800287ED1E848007810F0010F93
:100590001AD0E7480078002815D00023E54A032147
:1005A00032208DE80F0018230246084612F09DF80D
:1005B0000023E14A032132208DE80F001823024670
:1005C000084612F092F8E3E0DC48B0F90000012898
:1005D0006DDB00230093019314231A460021084683
:1005E00011F083FF00230093019312231A46012187
:1005F000084611F07AFFD248007810F03C0F0BD17A
:100600000023D04A02210F208DE80F000346024646
:10061000032012F06AF82BE0C948007810F0100FA0
:100620000ED0C348007818B30023C74A02210F2018
:100630008DE80F0003460246032012F056F817E03B
:10064000BF48007810F0080F04D1BD48007810F0C2
:10065000040F0DD0B648007850B10023BB4A0221E8
:100660000F208DE80F0003460246084612F03DF8C1
:10067000B748406D10F0010F19D1002300930B23F0
:100680000022142100E05FE2092011F009FB0023A1
:100690005B221F210920009311F002FBAD48007876
:1006A0001330C1B204230022092011F066FFA348D1
:1006B000B0F9000002286BDB0023009301931423A0
:1006C0001A460021172011F010FF00230093019318
:1006D00012231A460121182011F007FF984840788C
:1006E00010F03C0F0BD100239B4A02210F208DE814
:1006F0000F0003460246192011F0F7FF2BE0904847
:10070000407810F0100F0ED08948007818B30023FD
:100710008D4A02210F208DE80F0003460246192062
:1007200011F0E3FF17E08648407810F0080F04D17D
:100730008348407810F0040F0DD07D48007850B108
:100740000023824A02210F208DE80F000346024653
:10075000192011F0CAFF7E48406DC0F34000B8B9BF
:10076000002300930B2300221421202011F098FA7B
:10077000002344221F212020009311F091FA754894
:1007800000781330C1B204230022202011F0F5FEBE
:100790007248008800282FD000230093019314236F
:1007A00023220021322011F0A0FE002300930193A8
:1007B000022303221421352011F097FE0023009319
:1007C00001930223032214214F2011F08EFE57487B
:1007D000007810F0020F10D0554800780028DAD0C9
:1007E0000023554A032132208DE80F0018230246CA
:1007F00000212B2011F079FFFEE0002300930B2352
:1008000000221421422011F04BFA002322221F2142
:100810004220009311F044FA5148B0F9000000283A
:1008200009DA4C4800781330C1B204230022422078
:1008300011F0A3FE0EE04A48B0F90000002809DBE1
:1008400044480078C0F12200C1B2042302224220B1
:1008500011F093FE3F48C01C00781E285ADA414828
:10086000B0F90000A0F5AA41553954D03E4890F99E
:100870000000052190FBF1F000B205901422002148
:1008800005A8FFF74DFC00230122CDE90023BDF9A7
:10089000143020220021332011F027FE324890F935
:1008A00000000A2818DA02230122CDE900230923D7
:1008B0000C2205213D2011F018FE012300212A48B9
:1008C00090F900008DE80B000393022327A2052175
:1008D0003D2011F045FF65E0234890F900006428B1
:1008E00048DA02230122CDE900230923122205213F
:1008F0003A2011F0FAFD0123022200211A4890F952
:1009000000008DE80F00032319A205213A2011F001
:1009100027FF47E05CE046E00040024000C00240A4
:1009200000800140760C0010A5000010A801001006
:1009300081000010534F0100E94F0100FC0000103E
:10094000DC0100107F500100BB500100D9500100B4
:1009500000C009205D0000109D500100FA00001049
:10096000B001001002010010BC01001020250000A1
:100970002020250002230122CDE90023092318228B
:100980000521372011F0B1FD012303220021FF488A
:1009900090F900008DE80F000423FDA20521372007
:1009A00011F0DEFE28E0FC48B0F900000A2190FBBF
:1009B000F1F00FFA80F801230322CDE90083CDE99D
:1009C00002230423F5A205213A2011F0C9FE13E009
:1009D000F148B0F900000A2190FBF1F00FFA80F81D
:1009E00001230322CDE90083CDE902230423EBA2F6
:1009F00005213A2011F0B4FE0023009301930E2349
:100A00001B2202215C2011F070FD00231A1F082117
:100A10005C20009311F044F9002304220821762081
:100A2000009311F03DF9002327221F21432000935A
:100A300011F036F9002300936FF00F0300221F21FD
:100A4000692011F02DF9D7480078C0F12200C1B219
:100A500004230222692011F090FD01230422D248D0
:100A6000B0F90000CDE90132039300900523CFA235
:100A70001621462011F074FECE48B0F9000064281B
:100A80000FDA01230322CB48B0F90000CDE901328F
:100A9000039300900423C1A205215D2011F060FEA4
:100AA00014E0C448B0F900000A2190FBF1F00FFAFD
:100AB00080F8012303220021CDE90081CDE9022342
:100AC0000423B6A205215A2011F04AFEB548C01EE3
:100AD0000078401CB349C91E0870084600780328F6
:100AE00031DB00200870481C0078401C491C08704D
:100AF000084600780D2801DB00200870A948401E38
:100B00000078401CA749491E087008460078202834
:100B100001DB00200870A3480078401CA149087040
:100B200008460078112801DB002008709D48401C11
:100B30000078401C9B49491C08700846007828280A
:100B400064DB0020087061E000265DE07A2006FB8F
:100B500000F706EB8600800004B24DE09648005D89
:100B600000EB4000954911F8102038467F1C94494D
:100B70000A549148005D00EB4000012101EB400068
:100B80008E490A5C38467F1C8D490A548A48005DAC
:100B900000EB4000022101EB400088490A5C384626
:100BA0007F1C87490A548448005D00EB4000032104
:100BB00001EB400081490A5C38467F1C80490A5499
:100BC0007D48005D00EB4000042101EB40007B49C3
:100BD0000A5C38467F1C7A490A547748005D00EB6E
:100BE0004000052101EB400074490A5C38467F1C37
:100BF00073490A54601C04B206EB8600800014306E
:100C0000A042ABDC701C06B2042E9FDB06B0BDE830
:100C1000F081F0B5C3B0052500246A4800780528A6
:100C200009D169A22046611CCCB207A941F8202055
:100C3000681CC5B20CE063480078212808D168A27E
:100C40002146601CC4B207A840F82120681CC5B228
:100C50006948007810F0010F08D068A22046611C96
:100C6000CCB207A941F82020681CC5B262480078C0
:100C700010F0020F08D067A22146601CC4B207A87A
:100C800040F82120681CC5B26848007810F01C0F9D
:100C900008D067A22046611CCCB207A941F82020E9
:100CA000681CC5B26148407810F01C0F08D066A2DD
:100CB0002046611CCCB207A941F82020681CC5B2AF
:100CC0006748007801280CD16648008848B966A2B8
:100CD0002046611CCCB207A941F82020681CC5B28F
:100CE0000FE05F48007802280BD15E48008840B9C9
:100CF00063A22146601CC4B207A840F82120681CEA
:100D0000C5B26548007855280BD16448008840B9C1
:100D100063A22146601CC4B207A840F82120681CC9
:100D2000C5B25D48407855280BD15C48408840B931
:100D300061A22046611CCCB207A941F82020681CA2
:100D4000C5B21848C01C0078401C1649C91C087060
:100D50000846007814280CDB00200870481E007834
:100D6000401C491E087008460078A84201DB00209C
:100D7000087057480078292806D15548407800283F
:100D800003D154A353A2B1E0FEE31CE1BC01001067
:100D90002020202500000000B0010010202020416C
:100DA000000000005F000010EE0100102020202055
:100DB00042000000EC010010AE0B0010F7500100E3
:100DC000760C00104C02001020C2FBF0E0E2ED2E89
:100DD000E7E0F0FFE420207A3A305A2000000000DB
:100DE0002020CAEEEDF2F0EEEBFC20E5ECEAEEF1AD
:100DF000F2E8202000000000A8010010202020C000
:100E0000E2E0F0E8FF20F1E5F2E8212121202020B6
:100E10000000000020C0E2E0F0E8FF20E1E0F2E0A6
:100E2000F0E5E8212121202000000000DC01001075
:100E300020C0E2E0F0E8FF20E8F1F2EEF7EDE8EAAA
:100E4000E0204E310000000020C0E2E0F0E8FF208A
:100E5000E8F1F2EEF7EDE8EAE0204E3200000000A3
:100E6000FC01001054010010C2EDE5F82EF2E5EC93
:100E7000EF2E4E31E7E0E2FBF8E5EDE00000000088
:100E8000C2EDE5F82EF2E5ECEF2E4E31E7E0EDE8AD
:100E9000E6E5EDE00000000005000010780100101C
:100EA00020D1F0E0E1EEF2E0EB20F8EBE5E9F42010
:100EB0004E3120200000000020D1F0E0E1EEF2E011
:100EC000EB20F8EBE5E9F4204E3220200000000092
:100ED0009A000010202020202020202020202020E8
:100EE000202020202020202000000000AFF21C0144
:100EF000AFF220000FF009FD002302221946FF483F
:100F000000780FF01BFC002302220121FC4800881E
:100F100080B20FF013FC002302221146F94800882A
:100F200080B20FF00BFC002307221946F648008818
:100F300080B20FF003FC002307220121F348008850
:100F400080B20FF0FBFB002307220221F04800884B
:100F500080B20FF0F3FB002307220321ED48008845
:100F600080B20FF0EBFB00230A221946EA48007812
:100F70000FF0E4FB00230A220121E84800780FF07B
:100F8000DDFB00230A220221E54800780FF0D6FBA2
:100F9000002313221946E34890F9000080B20FF0B5
:100FA000CDFB002313220121DF48008880B20FF01F
:100FB000C5FB002313220221DC48008880B20FF019
:100FC000BDFB06F066B9DA48407801284BD1D94B11
:100FD0001A46D9A1DDA00FF098FC0023042219467F
:100FE000E048008880B20FF0A9FB00231A460121D7
:100FF000DD4890F9000080B20FF0A0FBDB490988C2
:1010000088B201230E2200210FF098FBD7494988AE
:1010100088B201230E2219460FF090FBD4490988AB
:1010200088B20123132200210FF088FBD0494988A0
:1010300088B20123132219460FF080FBCD490878AE
:101040000A2200210FF02CFCCA4948780A2201210B
:101050000FF026FC002301220221C748008880B23D
:101060000FF06CFBADE7B2484078022862D1AFF2D6
:101070009C13AFF2A012AFF2A411AFF2A8100FF0C0
:1010800044FCBE49096888B20023032219460FF0C8
:1010900055FBBA49496888B20023032201210FF0A9
:1010A0004DFBB649896888B20023032202210FF064
:1010B00045FBB249C96888B20023032211460FF0EC
:1010C0003DFBAE49096988B20023092219460FF099
:1010D00035FBAA49496988B20023092201210FF092
:1010E0002DFBA649896988B20023092202210FF04D
:1010F00025FBA249C96988B20023092203210FF008
:101100001DFB9E49096A88B20023132201210FF0BA
:1011100015FB9B49096A88B20023132202210FF0B4
:101120000DFB0023132203219648006880B20FF0C4
:1011300005FB46E77E48407803287ED1AFF26C235A
:10114000AFF27022AFF27421AFF278200FF0DDFB26
:101150008B49096888B20023032219460FF0EEFA82
:101160008749496888B20023032201210FF0E6FA7B
:101170008349896888B20023032202210FF0DEFA36
:101180007F49C96888B20023032211460FF0D6FABE
:101190007B49096988B20023082219460FF0CEFA6C
:1011A0007749496988B20023082201210FF0C6FA65
:1011B0007349896988B20023082202210FF0BEFA20
:1011C0006F49C96988B20023082203210FF0B6FADB
:1011D0006D49096888B200230E2219460FF0AEFA55
:1011E0006949496888B200230E2201210FF0A6FA4E
:1011F0006549896888B200230E2202210FF09EFA09
:101200006149C96888B200230E2203210FF096FAC3
:101210005D49096988B20023132219460FF08EFA3E
:101220005949496988B20023132201210FF086FA37
:101230005549896988B2002300E00CE0132202219D
:101240000FF07CFA5049C96988B2002313220321A8
:101250000FF074FAB5E63648407804284DD1AFF265
:101260008C33AFF29032AFF29431AFF298300FF08E
:101270004CFB4649096888B20023032219460FF047
:101280005DFA4249496888B20023032201210FF028
:1012900055FA3E49896888B20023032202210FF0E3
:1012A0004DFA3A49C96888B20023032211460FF06B
:1012B00045FA3649096988B20023072219460FF01A
:1012C0003DFA3249496988B20023072201210FF013
:1012D00035FA2E49896988B20023072202210FF0CE
:1012E0002DFA2A49C96988B20023072203210FF089
:1012F00025FA2649096A88B24AE095E09200001072
:10130000900000108C000010840200108002001079
:1013100086020010AE010010B6020010B7020010E5
:10132000B8020010BC0100100201001004010010FE
:101330009A000010EB4E01002020202020202020C9
:1013400020202020202020202020200032202020AB
:10135000202020202020202020202020202020208D
:1013600000000000400200108B020010E20100109B
:10137000E6010010DC010010FC000010B00A0010B3
:10138000D80A001084000010000B0010280B001079
:1013900000230B2219460FF0D1F9FF49496A88B2A0
:1013A00000230B2201210FF0C9F9FB49896A88B299
:1013B00000230B2202210FF0C1F9F749C96A88B254
:1013C00000230B2203210FF0B9F9F349096B88B20E
:1013D00000230F2219460FF0B1F9EF49496B88B28B
:1013E00000230F2201210FF0A9F9EB49896B88B284
:1013F00000230F2202210FF0A1F9E749C96B88B23F
:1014000000230F2203210FF099F90023132219461C
:10141000E24800780FF092F9002313220121E048FE
:1014200000780FF08BF9CCE5DE484078012857D1E1
:10143000DDA3E3A2E8A1EEA00FF067FA01222821C4
:10144000F148008880B20FF0BAF900222121EF485C
:10145000008880B20FF0B3F900224021EC480088E8
:1014600080B20FF0ACF9EB49098888B20122232140
:101470000FF0A5F9E749498888B2012224210FF02D
:101480009EF9E549098888B2012225210FF097F9D4
:10149000E149498888B201225E210FF090F90122CA
:1014A0003C21DE48008880B20FF089F902223E21FB
:1014B000DB48B0F900000FF065F8DA4908780D2232
:1014C00003210FF0EDF9D7494878132203210FF0DB
:1014D000E7F905220321D44800780FF0E1F970E51F
:1014E000B048407802289ED0AE484078022852D1B9
:1014F000ADA3B3A2B8A1CDA00FF007FA002221211D
:10150000C248008880B20FF05AF900224021C0483A
:10151000008880B20FF053F9BE49098888B20122D1
:1015200023210FF04CF9BB49498888B201222421BC
:101530000FF045F9B849098888B2012225210FF03A
:101540003EF9B549498888B201225E210FF037F98A
:1015500001223C21B148008880B20FF030F902220C
:101560003E21AF48B0F900000FF00CF8AD49087803
:101570000D2203210FF094F9AA4948781322032180
:101580000FF08EF9052200E012E20321A648007850
:101590000FF086F915E583484078032806D1A94B5A
:1015A0001A46114608460FF0B0F90AE57D48407822
:1015B000052837D1AFF2E463AFF2E862AFF2EC6135
:1015C000AFF2F0600FF0A1F99F49087800230122E3
:1015D00019460FF0B3F89D490878002301221146FF
:1015E0000FF0ACF89A4908780023012202210FF08D
:1015F000A5F89849098888B20023052219460FF0FA
:101600009DF89549098888B20023052201210FF031
:1016100095F89249098888B20023052202210FF02B
:101620008DF8CEE45F48407806287ED18CA02590C6
:1016300091A0269096A027909BA02890A0A02990EA
:10164000A5A02A90AAA02B90564E96F90460F61CED
:1016500025AF57F82630534E96F90460B61C57F85C
:101660002620504E96F90460761C57F826104D4EF1
:1016700096F9046057F826000FF047F902223F213F
:101680006748B0F900000EF07DFF9F49496D01F0F9
:101690000100002224210FF092F8624908782321EA
:1016A0000FF0DEF89849496DC1F340000022402157
:1016B0000FF085F85B49487821210FF0D1F85549A2
:1016C000098888B200224A210FF079F851494988E7
:1016D00088B200226A210FF072F88C490878002243
:1016E00059210FF06CF889494878002279210FF0D0
:1016F00066F88749096888B2002268210FF05FF810
:1017000000226D218348006880B20FF058F88249AA
:101710000888002251210FF052F8804908880022E1
:1017200071210FF04CF87C4900E00AE14888002262
:101730005A210FF044F87949488800227A210FF0A5
:101740003EF877490878002241210FF038F87549B2
:101750000878002261210FF032F8714948780022A0
:1017600042210FF02CF86F494878002262210FF0D7
:1017700026F86749096888B2002243210FF01FF854
:101780006349496888B2002244210FF018F866497D
:10179000096888B20022C9E0280B001089000010F7
:1017A000880000109A000010537420202020202070
:1017B0005374312020205374322020200000000078
:1017C00049E1202020203E20493120202025493297
:1017D0002020205E0000000055E1202020203C2039
:1017E00055312020202355322020202400000000E5
:1017F000556E202020202820D83120202021D832CA
:101800002020204000000000800200107C02001018
:101810007E020010E2010010E6010010AE0100108F
:10182000B0010010DC010010A8010010706C202035
:1018300020202820D83120202021D83220202040EC
:1018400000000000EB4E0100F6010010F90100104D
:10185000FC01001036010010F001001042010010E0
:10186000202020203F202020202020202024202352
:1018700020402021000000002020202020202020C7
:10188000202020202020204A2020206A0000000064
:10189000202020202020202020202020202020590F
:1018A0002020207900000000202020682020206DCA
:1018B0002020202020512071205A207A0000000092
:1018C000202020732020205320202020202020436F
:1018D00020202044000000002020206620202046F8
:1018E00020202020202020632020206400000000F1
:1018F0002020202020202020202020202041206186
:10190000204220620000000000C009207802001080
:1019100058020010540200106C02001068020010FF
:10192000BA020010BC0200106002001063210EF029
:1019300046FFC649496888B2002264210EF03FFF85
:1019400088E4C34840780728FAD1C24B1A461146AA
:1019500008460EF0DAFFC04908784FF000034FF058
:10196000060219460EF0EAFE002306220121BB48BA
:1019700000780EF0E3FE682011F0E6FB86B200234B
:101980000622022130460EF0D9FEB3493839888F3D
:101990000023102219460EF0D1FE6A2011F0D4FB6C
:1019A00086B200231022022130460EF0C7FE51E419
:1019B000A748007800287ED1A9A02590AE48B0F9AC
:1019C0000000C82807DDAC48B0F90200C82802DDD5
:1019D000AAA0259016E0A848B0F90000C82802DDAA
:1019E000ACA025900EE0A448B0F90200C82802DDA2
:1019F000AEA0259006E0B348B0F90000C82801DD8C
:101A0000B1A02590B6A02690BBA02790C0A028909A
:101A1000C5A02990CAA02A90CFA02B90D4A02C902A
:101A2000D9A02D90DEA02E90E3A02F90E8A03090BA
:101A3000EDA03190F2A03290F7A03390FC483490A2
:101A40008348407818B90020814908711BE080481C
:101A500090F904007E4991F90110401A022806DD30
:101A60007B484078801C40B2794908710BE0784887
:101A700090F90100764991F90410884203DD744819
:101A8000407873490871EB480078052818DA704EE1
:101A900096F90460F61C25AF57F826306C4E96F97F
:101AA0000460B61C57F82620694E96F90460761C2F
:101AB00057F8261000E0D1E125980EF026FF1AE035
:101AC000634E96F90460F61C25AF57F82630604E39
:101AD00096F90460B61C57F826205D4E96F904600E
:101AE000761C57F82610D34E3678761F07AF57F876
:101AF00026000EF00AFF5648007940B3544840785B
:101B000028B3534890F90400514991F901108842D3
:101B100004D10120C84981F83C0018E04C4890F9F4
:101B200004004B4991F90110401A012803D1C24920
:101B300081F828000BE0464890F90400444991F9E7
:101B40000110401A022802D10120BB490875012268
:101B50006C215C48008880B20EF031FE02224021E8
:101B6000B648B0F900000EF00DFD01222321B44863
:101B7000008880B20EF023FE01222421B1480088A3
:101B800080B20EF01CFEB04908784FF000024FF012
:101B900026010EF014FEAC49203991F824000022F1
:101BA0005E210EF00CFEA94908784FF000024FF0BC
:101BB00025010EF004FEA449203991F82C000022E2
:101BC0003C210EF0FCFD24490978A14A02EB81007A
:101BD0004FF000024FF03E010EF0CAFE9A49203944
:101BE000888F00227B210EF0EAFD9A48007888B1A8
:101BF0003A200EF01FFC904920220A543A200EF0A1
:101C000019FC8D4920220A543A200EF013FC8A490F
:101C100020220A54904800684FF46161B0FBF1F053
:101C200086B200227A2130460EF0C9FD8A4800684B
:101C30003C21B0FBF1F0B0FBF1F201FB120086B2E7
:101C400000225A2130460EF0BAFD48E4600200102E
:101C50009A000010EB4E010038400240880100104D
:101C60002020CDE5EEEFF0E5E4E5EBE5EDEDEEF17E
:101C7000F2FC202000000000E201001020C220F051
:101C8000E0E1EEF2E520C1CFD1312CC1CFD132203D
:101C90000000000020202020C220F0E0E1EEF2E56C
:101CA00020C1CFD1312020200000000020202020A2
:101CB000C220F0E0E1EEF2E520C1CFD132202020B9
:101CC00000000000AE0100102020D0E0E1EEF2E0C4
:101CD00020EEF220E1E0F2E0F0E5E8200000000074
:101CE0002055E13D2020206CC22049E13D202020EC
:101CF0002040C020000000002055ED3D2020202382
:101D0000C22049ED3D2020202024C02000000000FA
:101D10002030253A305E3A302620303C2F3E2020BD
:101D20002F307B200000000020C1E0F2E0F0E5FF52
:101D30002020202020202020202020200000000023
:101D400020C1CFD131202020202020202020202081
:101D5000202020200000000020C1CFD132202020F0
:101D600020202020202020202020202000000000F3
:101D700020CDE0E3F0F3E7EAE0202020202020203F
:101D8000202020200000000020D1E5F2FC202020AF
:101D900020202020202020202020202000000000C3
:101DA00020D1EFE5F6F4F3EDEAF6E8E82020202074
:101DB000202020200000000020C6F3F0EDE0EB2002
:101DC000F1EEE1FBF2E8E9202020202000000000F5
:101DD00020C1E0F2E0F0E5E9EDFBE920E6F3F0ED0B
:101DE000E0EB20200000000020CFE0F1EFEEF0F269
:101DF0002020202020202020202020200000000063
:101E000020D3F1F2E0EDEEE2EAE8202020202020CD
:101E1000202020200000000020D1E1F0EEF120E0A1
:101E2000E2E0F0E8E920202020202020000000004F
:101E3000004F010061000010AE0B0010B001001057
:101E4000EE010010EC01001020400240284002404A
:101E50001F4F010081000010A4020010AF4800785D
:101E600004287DD1AE48008830B9AEA3B3A2B9A191
:101E7000BEA00EF04AFD63E5C248007810F0020FE4
:101E800010D0C148007830B1C04BC1A2C6A1CCA0CF
:101E90000EF03BFD54E5BD4B1A46114608460EF0C8
:101EA00034FD4DE5CCA02590D148007820B9D1A0D3
:101EB0002690D6A0289003E0DAA02690DFA02890F4
:101EC000E4A02790E948007810B1E9A0299001E04A
:101ED000EDA02990F2A02A90F7A02B90FC482C901E
:101EE0008E4890F90100C01C25AE56F820308B4872
:101EF00090F90100801C56F82020884890F90100D4
:101F0000401C56F82010B4A00EF0FFFC0122402126
:101F1000F048008880B20EF052FC02222121EE48E7
:101F2000B0F900000EF02EFB00222421EB480088BF
:101F300080B20EF044FC00227721E94890F90000BD
:101F400080B20EF03CFCE748B0F90000A0F5AA41D1
:101F5000553906D14A1E5121E3A00EF009FD07E0D4
:101F60000FE001225121DF48008880B20EF027FCEB
:101F70006A48407804288DD10120DD4981F83C0071
:101F8000DEE466480078052871D16448807820B97D
:101F9000D848406D00F0010603E0D648406DC0F31C
:101FA00040065E48807801280BD1D348008801287C
:101FB00007D1D2A7D7A02590DCA026907348279000
:101FC00047E00EB1DFA700E0E4A76E48007810F00C
:101FD000010F02D0E7A025902AE0504890F90200B6
:101FE000EA49085C10F0100F02D0E9A025901FE02C
:101FF0004A4890F90200E549085C10F0080F02D049
:10200000E9A0259014E0454890F90200DF49085CFA
:1020100010F0040F02D0EAA0259009E03F4890F9A3
:102020000200DA49085C10F03C0F01D1EAA02590CB
:10203000EFA02690F4A02790384890F90200F849C4
:10204000085C10B1F7A0289001E0FCA02890A048FF
:102050002990324890F90100304991F90410401A52
:10206000002805DD2D4840782C4908710CE0F7E187
:102070002A4890F90100294991F90410884203DAAD
:102080002648407825490871244890F90400801CAE
:102090000DF1940C5CF82030204890F90400401CAD
:1020A0005CF820201D4890F904005CF820103846A8
:1020B0000EF02BFC194991F90210491C88B200223C
:1020C00021210EF07CFB154991F90210E14A32F80A
:1020D000111088B2012240210EF071FB0F4991F9D5
:1020E0000210DD4A32F8111088B2012223210EF0CD
:1020F00066FB0A4991F90210D84A32F8111088B2E9
:10210000002224210EF05BFB04484078022803D112
:102110000120774981F83C0012E400009A00001089
:10212000FA000010E220E1E0F2E0F0E5E9EDEEEC8B
:1021300020E6F3F0EDE0EBE5000000002020202099
:1021400020E2E2E5E4E8F2E520E5B82020202020C6
:102150000000000020CFF0E82020EDE5EEE1F5EEF4
:10216000E4E8ECEEF1F2E8200000000020C1C0D26B
:10217000C0D0C5DF20CDC520C2C2C5C4C5CDC020DA
:1021800000000000A801001081000010EB4E0100CB
:1021900020202020EDE520EFEEE4EAEBFEF7E5ED70
:1021A000E02020202020000020202020202020C10E
:1021B000E0F2E0F0E5FF2020202020202020000099
:1021C00020202020202020C0C2C0D0C8DF21212014
:1021D0002020202020200000202020202020C1C0FE
:1021E000D2C0D0C5DF202020202020200000000009
:1021F000B402001020202020E7E0F0FFE6E0E5F246
:10220000F1FF202020202020000000002020204975
:10221000E7E0F03D202020202021C02020202020A9
:1022200000000000202020F0E0E7F0FFE6E0E5F20B
:10223000F1FF202020202020000000002020204945
:10224000F0E0E7F03D2020202021C02020202020A9
:102250000000000020202055E1E0F23D2020202059
:102260002040C2202020202000000000D8010010C3
:1022700020202020C4D22E20EDE5E8F1EFF0E0E2AE
:10228000E5ED20200000000020202074E1E0F22095
:102290003D20202024B043202020202000000000EA
:1022A000202020C7E0F0FFE43D20202020772520DB
:1022B000202020200000000020202043E1E0F23D0B
:1022C000202020202051C02AF720202000000000DC
:1022D000004F0100AE010010B0010010AC01001071
:1022E000BC010010020100102D2D2D2D2D2D000000
:1022F000AE0B001000C00920FC00001020202020A0
:1023000020202020C1CFD1322020202020202020BA
:102310000000000020202020CED2D1D3D2D1D2C2C2
:10232000D3C5D22020202020000000002020C22081
:10233000D1D2D0D3CAD2D3D0C520C8C1DDCF2020BE
:102340000000000020202020C1CFD12120C2DBCA04
:10235000CBDED7C5CD20202000000000202020208B
:10236000C1CFD12120C2CACBDED7C5CD20202020AD
:102370000000000020E0E2E0F0E8FF20F1E5F2E8F4
:10238000202020202020202000000000DC01001060
:1023900020E0E2E0F0E8FF20EFE5F0E5E3F0E5E241
:1023A000202020200000000020E0E2E0F0E8FF20F4
:1023B00055E2FBF53C55ECE8ED2020200000000044
:1023C00020E0E2E0F0E8FF2055E2FBF53E55ECE0CE
:1023D000EAF120200000000020F1EEF1F2EEFFED26
:1023E000E8E5202D20EDEEF0ECE0202000000000DC
:1023F0002055E8F1F2203D2020202040C22020205E
:1024000020202020000000002049E8F1F2203D209B
:1024100020202023C0202020202020200000000099
:10242000EA01001020C4D220EDE5E8F1EFF0E0E28F
:10243000E5ED202020202020000000002074E8F19D
:10244000F2203D20202024B04320202020202020E6
:1024500000000000E2010010E6010010DE010010A3
:10246000C6480078112818D1C5A3CBA2D0A1D6A008
:102470000EF04BFA0120DA4981F83C0001222121BB
:10248000D848008880B20EF09AF901224021D6483F
:10249000008880B20EF093F9EDE4B8480078022885
:1024A00028D1D248007810F0010F08D0D048007829
:1024B00010B1D0A0259004E0D348259001E0D3A02E
:1024C0002590AFA3D7A2DDA125980EF01EFA01201A
:1024D000C34981F83C0000222321DE48008880B2F5
:1024E0000EF06DF901224021DB48008880B20EF029
:1024F00066F9C0E4A14800780C283CD1D7A025900B
:10250000DCA02690E1A02790E64828909B4890F90F
:1025100001009A4991F90410401A022806DD9748F3
:102520004078801E40B2954908710BE0934890F9BD
:102530000100924991F90410884203DA8F484078EB
:102540008E4908718D4890F90400801C25AE56F81C
:1025500020308A4890F90400401C56F82020874813
:1025600090F9040056F82010CFA00EF0CEF901200B
:102570000FF00DFB7FE481480078142812D1D04879
:102580000078212802D1CFA0259001E0D3A025908A
:102590009D4BC44AD7A025990EF0B7F901200FF042
:1025A000F6FA68E47548007810282CD1D7482590B1
:1025B000D7A026907148407820B9DBA02590E0A0F4
:1025C000269019E06D484078012804D1E2A02590BA
:1025D000E7A0269010E069484078022804D1EAA0DC
:1025E0002590EFA0269007E064484078032803D1A7
:1025F000E5A02590F0A02690C5A1C448DDE92523DB
:102600000EF083F937E45D480078152819D1AC48FD
:102610000078052802D1ABA0259001E0AFA025905D
:10262000A04BEBA1F0A0259A0EF06FF901200FF05E
:10263000AEFA00222121F248008880B20EF0BFF8E5
:1026400019E44E48007841287ED1E7A3E6A2E6A12E
:10265000E5A00EF05AF90420EA490870EA4800782B
:10266000012802D1E9A0259020E0E748007802285F
:1026700002D1ECA0259019E0E3480078032802D1AC
:10268000EEA0259012E0E0480078062802D1F1A0E3
:1026900025900BE0DC4800780C2802D1F3A02590AF
:1026A00004E0F8A025900120D6490870D5480078AC
:1026B000042809D1F9A02690FEA02790AFF6B0100B
:1026C00028907848299001E0764826902B4890F988
:1026D0000400401C25A951F82030284890F9040036
:1026E00051F82020F9A1FFA00EF00FF9234890F92E
:1026F0000100224991F90410884204DA1F48407809
:102700001E4908710EE01D4890F901001B4991F91E
:102710000410401A012805DD18484078401E40B2D8
:102720001649087115484078022801D113490871EB
:1027300002200FF02CFA00222521F04800880EF02C
:102740003EF800225E2100E0F3E1ED4800880EF043
:1027500036F800222621EB4800880EF030F80022DF
:102760003C21E94800880EF02AF8E849E84A128836
:1027700001EB820000223E21CCE100009A00001013
:1027800020C2FBF5EEE42020202020202020202065
:1027900020202020000000002049EDE0E3F03D2053
:1027A0002020202020204041202020200000000068
:1027B0002055EDE0E3F03D2020202020202021C204
:1027C0002020202000000000202020202020CDC03C
:1027D000C3D0D3C7CAC02020202020200000000082
:1027E000AE0B0010EE010010EC010010A80100106B
:1027F00081000010202020C0C2C0D0C8DF20D1C579
:10280000D2C8212121202000EB4E010020202020D1
:10281000202020D1C5D2DC202020202020202020F4
:10282000000000002046F1E5F2E83D2020202020B5
:10283000202040C3F6202020000000002055F1E5B4
:10284000F2E83D2020202020202023C2202020202C
:1028500000000000940000108E00001020CAEEED71
:10286000F2F0EEEBFC20E5ECEAEEF1F2E8202020BD
:102870000000000020C2FBF0E0E2EDE8E2E0FEF93B
:10288000E8E920E7E0F0FFE40000000020C0E2F209
:102890002EE2FBF0E0E2EDE8E22E20E7E0F0FFE4DC
:1028A00000000000004F010020202020D1CFC5D61D
:1028B000D4D3CDCAD6C8C8202020202000000000D4
:1028C0004C02001020C2EAEBFEF7E5ED20202020AC
:1028D00020202020202020200000000020C2FBEA31
:1028E000EBFEF7E5ED2020202020202020202020D6
:1028F000000000002020CACECDD2D0CECBDC20C537
:10290000CCCACED1D2C8202000000000E00D0000CB
:10291000202020EDE5E2EEE7ECEEE6E5ED212121D9
:10292000202020200000000020202020CEF2F1F303
:10293000F2F1F2E2F3E5F220202020200000000076
:10294000202020202020E1E0F2E0F0E5FF20202000
:10295000202020200000000020202020202020C057
:10296000E2E0F0E8FF2020202020202000000000EE
:102970002020202020202020F1E5F2E82020202027
:102980002020202000000000202020202020C1E066
:10299000F2E0F0E5FF2020202020202000000000B1
:1029A00020202020F0E0E7F0FFE6E0E5F2F1FF2054
:1029B00020202020000000002020202020E7E0F040
:1029C000FFE6E0E5F2F1FF202020202000000000DB
:1029D00020E4EBE8F2E5EBFCEDEEF1F2FC202D203B
:1029E0002021F72E0000000020C2DBD0C0C2CDC8DD
:1029F000C2C0DED9C8C920C7C0D0DFC400000000F3
:102A0000F6000010B00000108801001020F0E0E790
:102A100020E220ECE5F1FFF62020202020202020DD
:102A20000000000020F0E0E720E2203220ECE5F199
:102A3000FFF6E020202020200000000020F0E0E74A
:102A400020E2203320ECE5F1FFF6E02020202020DA
:102A50000000000020F0E0E720E220EFEEEBE3EEE4
:102A6000E4E02020202020200000000020F0E0E70B
:102A700020E220E3EEE4202020202020202020203F
:102A80000000000020E2FBEAEBFEF7E5ED2020204D
:102A900020202020202020200000000020E4EBE85F
:102AA000F2E5EBFCEDEEF1F2FC20202028F72E20E1
:102AB0000000000020EEF7E5F0E5E4EDEEE520E2B1
:102AC000EAEBFEF7E5EDE8E500000000C2DBD0C070
:102AD000C2CDC8C2C0DED9C8C920C7C0D0DFC4209B
:102AE00000000000202020C0C2D2CECCC0D2C8D767
:102AF000C5D1CAC8C9202020000000008A010010EA
:102B00008C0100108E010010900100101F4F010079
:102B1000920100100DF02CFF00227B21FF4800885D
:102B20000DF04DFE00222821FD4800880DF047FEE3
:102B3000B2E4FC48007844286FD140F6026010F0FF
:102B400003FB00B2F84908800846B0F900004028AD
:102B500001DD00200880F448008848B9F34BF44AAE
:102B6000F4A1FAA00DF0D1FE0020EE4908718AE030
:102B7000ED480088012809D1FAA3ED4AFFA1F3A08E
:102B80000DF0C3FE0020E74908717CE0E6480088AC
:102B9000022830D1E34890F90100E24991F904108C
:102BA000884204DADF484078DE4908710EE0DD48EB
:102BB00090F90100DB4991F90410401A022805DD63
:102BC000D8484078801E40B2D6490871D54800796F
:102BD00030B9D74BEFA2E9A1DCA00DF096FE52E090
:102BE000D048007901284ED1DEA3D14AE3A1D7A075
:102BF0000DF08BFE47E0CC48B0F90000022842DD22
:102C0000C84890F90100C74991F90410884205DAD3
:102C1000C4484078C34908710FE04BE0C14890F9BF
:102C20000100C04991F90410401A022805DDBD4891
:102C30004078801E40B2BB490871BA4890F9040040
:102C4000B949B1F90010491E884206D1C5A3B84A56
:102C5000CAA1BEA00DF059FE15E0B24890F90400DB
:102C6000B149B1F90010891E884206D1B04BC9A202
:102C7000C2A1B6A00DF049FE05E0CCA3C5A2BFA13C
:102C8000B2A00DF042FE01200EF081FFA5490879A7
:102C900028210DF04BFFA3490979491CC8B25B21DB
:102CA0000DF044FF9F490979891CC8B27B210DF0C2
:102CB0003DFF1EE49B480078452840F080869B4BF2
:102CC0001A46114608460DF020FE4FF4606010F0E1
:102CD0003BFA86B2934890F902004242402130B25A
:102CE0000DF0FCFD86B27005060C06F5806086B21C
:102CF00006A9304610F0BCFA6946301D10F0B8FA4B
:102D000004A906F1080010F0B3FA05A906F10C00B9
:102D100010F0AEFA02A906F1100010F0A9FA03A90A
:102D200006F1140010F0A4FA01A906F1180010F041
:102D30009FFA9DF8180055283FD19DF81A00522897
:102D40003BD1A0A3A5A2ABA1B0A00DF0DEFD9DF8E4
:102D50001400002240210DF032FD9DF815000022E4
:102D600023210DF02CFD9DF81600002224210DF0EA
:102D700026FD9DF81200002225210DF020FD9DF872
:102D8000100000225E210DF01AFD9DF811000128AF
:102D900003DB9DF811000C2802DD01208DF81100E5
:102DA0009DF811109F4A02EB8100002228210DF0AE
:102DB000DFFD00205C490880F7E29DF818005028EC
:102DC0007DD19DF81A004128FAD1974825907DA021
:102DD00026909DF80800412813D19DF8090041284C
:102DE0000FD192A0279097A0289025A80FC80DF08A
:102DF0008CFD00222B219948008880B20DF0DFFC69
:102E000065E0012200214748001DFDF77EF994A0EE
:102E1000279099A028909EA02990424F97F904707E
:102E2000FF1C0DF1940C5CF827303E4F97F90470AD
:102E3000BF1C5CF827203B4F97F904707F1C5CF89F
:102E40002710384F97F904705CF827000DF05DFDEE
:102E50009DF80C0000223E210DF0B1FC9DF80D0004
:102E600000223D210DF0ABFC9DF80E00002229212F
:102E70000DF0A5FC9DF80A0000225B210DF09FFCDF
:102E80009DF8080000223C210DF099FC9DF80900F6
:102E9000012803DB9DF809000C2802DD01208DF8D4
:102EA00009009DF809105F4A02EB810000225D21B4
:102EB0000DF05EFD9DF804109DF8052000E004E192
:102EC00001EB022188B200222B210DF078FC9DF845
:102ED0001400002240210DF072FC9DF81500002224
:102EE00023210DF06CFC9DF81600002224210DF02A
:102EF00066FC9DF81200002225210DF060FC9DF873
:102F0000100000225E210DF05AFC9DF811000128EE
:102F100003DB9DF811000C28C6E0C6E09401001008
:102F2000960100109A000010AC000010EB4E01005A
:102F3000004F010020C6F3F0EDE0EB20EFF3F1F2DB
:102F4000202020202020202000000000202020C65B
:102F5000D3D0CDC0CB20D1CEC1DBD2C8C920202058
:102F60000000000020CEF7E8F1F2E8F2FC20E6F3E2
:102F7000F0EDE0EB202020200000000020282020A1
:102F80002020202020202020202020202020202041
:102F900000000000205B2020202020202020202076
:102FA000202020202020202000000000207B202046
:102FB0002020202020202020202020202020202011
:102FC0000000000020203025282020305E203040E6
:102FD0003A30233A30242020000000002020202016
:102FE00020202020C8C1DDCF20202020202020202C
:102FF00000000000202020E8EBE820E2EAEBFEF7EA
:10300000E5EDE8E520202020000000002020202021
:10301000CFE5F0E5E7E0E3F0F3E7EAE02020202069
:10302000000000001F4F0100FC0D000020202020A8
:10303000EDE520F3F1F2F0E0EDE5EDE020202020D9
:1030400000000000202020202055F1E5F2E83D207E
:10305000202BC2202020202000000000940000101F
:10306000202020202020F3F1F2F0E0EDE5EDE0203B
:1030700020202020000000002020305B5D20203038
:103080003C20303E3A303D3A3029202000000000FC
:10309000202020202055ECE8ED3D20202BC22020D0
:1030A000202020200000000002DD01208DF811000A
:1030B0009DF81110FF4A02EB8100002228210DF03B
:1030C00057FC0120FC49088076E69DF8180042284C
:1030D0007DD19DF81A004328FAD1AFF28470259073
:1030E000F6A02690AFF2241027909DF80800412802
:1030F0000BD19DF80900412807D1AFF2D0002890EC
:1031000025A80FC80DF001FC5BE001220021F14869
:10311000FCF7FBFFAFF2B8002890AFF2A4002990B3
:10312000EC4F3F1F97F90470FF1C0DF1940C5CF8F5
:103130002730E84F3F1F97F90470BF1C5CF8272029
:10314000E44F3F1F97F904707F1C5CF82710E14F94
:103150003F1F97F904705CF827000DF0D6FB9DF82F
:103160000C0000223E210DF02AFB9DF80D000022EC
:103170003D210DF024FB9DF80E00002229210DF0C9
:103180001EFB9DF80A0000225B210DF018FB9DF844
:10319000080000223C210DF012FB9DF809000128D7
:1031A00003DB9DF809000C2802DD01208DF80900E1
:1031B0009DF80910BF4A02EB810000225D210DF04D
:1031C000D7FB9DF81910481C00222B2100E037E0A6
:1031D0000DF0F5FA9DF81400002240210DF0EFFAF1
:1031E0009DF81500002223210DF0E9FA9DF8160044
:1031F000002224210DF0E3FA9DF81200002225217F
:103200000DF0DDFA9DF8100000225E210DF0D7FAD6
:103210009DF81100012803DB9DF811000C2802DD48
:1032200001208DF811009DF81110A24A02EB8100D7
:10323000002228210DF09CFB01209F490880BCE35F
:103240009DF8180042287ED19DF81A005A28FAD11C
:10325000A1A02590A6A02690ABA027909DF80800DD
:1032600041280AD19DF80900412806D1ACA0289038
:1032700025A80FC80DF049FB59E00122002195480F
:10328000FCF743FFACA02890B1A02990914F3F1FBD
:1032900097F90470FF1C0DF1940C5CF827308D4FEA
:1032A0003F1F97F90470BF1C5CF82720894F3F1F10
:1032B00097F904707F1C5CF82710864F3F1F97F921
:1032C00004705CF827000DF020FB9DF80C00002234
:1032D0003E210DF074FA9DF80D0000223D210DF005
:1032E0006EFA9DF80E00002229210DF068FA9DF873
:1032F0000A0000225B210DF062FA9DF8080000220E
:103300003C210DF05CFA9DF80900012803DB9DF8D3
:1033100009000C2802DD01208DF809009DF8091034
:10332000644A02EB810000225D210DF021FB9DF833
:103330001910481C00222B210DF041FA9DF81400B1
:103340000022402100E031E00DF039FA9DF815002F
:10335000002223210DF033FA9DF8160000222421CB
:103360000DF02DFA9DF81200002225210DF027FA0C
:103370009DF8100000225E210DF021FA9DF8110049
:10338000012803DB9DF811000C2802DD01208DF8D7
:1033900011009DF81110474A02EB810000222821FC
:1033A0000DF0E6FA01204449088006E39DF8180074
:1033B00042287ED19DF81A005728FAD16AA025909C
:1033C0006FA0269074A027904FA0289078A02990F5
:1033D0007DA02A9082A02B9087A02C908CA02D906D
:1033E0003C4F3F1F97F90470FF1C0DF1940C5CF8E3
:1033F0002730384F3F1F97F90470BF1C5CF8272017
:10340000344F3F1F97F904707F1C5CF82710314F31
:103410003F1F97F904705CF827000DF076FA9DF8CD
:103420001910481C002221210DF0C9F99DF8140043
:10343000002240210DF0C3F99DF815000022232140
:103440000DF0BDF99DF81600002224210DF0B7F90A
:103450009DF81200002225210DF0B1F99DF8100011
:1034600000225E210DF0ABF99DF81100012803DB6D
:103470009DF811000C2802DD01208DF811009DF847
:1034800011100C4A02EB8100002228210DF070FA85
:103490009DF80C00002269210DF091F99DF80D00B6
:1034A00000226C210DF08BF99DF80E000022732193
:1034B000BAE0F8E01F4F0100AC00001020202020EF
:1034C0002020E1E0F2E0F0E5E8202020202020208C
:1034D000000000009E000010202020C2FBF0E0E26F
:1034E000EDE8E2E0FEF9E8E92020202000000000FD
:1034F00020202020202020E7E0F0FFE420202020D2
:1035000020202020000000002030252F2820202F00
:10351000305E2030403A30233A3024200000000052
:1035200020202020EDE520E7E0E2E5F0F8E5ED20C1
:103530002020202000000000202020202020E7E084
:10354000E2E5F0F8E5ED202020202020000000003A
:1035500020305B2F5D20202F303C20303E3A303D24
:103560003A3029200000000020202020202020D0F8
:10357000E0E7F0FFE42020202020202000000000D1
:1035800020202020202020E1E0F2E0F0E5E82020CB
:10359000202020200000000020CDE0F7E0EBEE200E
:1035A000202020202020202020202020000000009B
:1035B0002020202020202020202055E1E0F23D2066
:1035C000203CC2200000000020CAEEEDE5F62020DD
:1035D000202020202020202020202020000000006B
:1035E0002030712F7720202F30722030693A306CD4
:1035F0003A307320000000002020202020202020CE
:10360000202055E1E0F23D20203EC22000000000D5
:1036100020202020CEF2E4E0EDEE202020207AE0F1
:103620002AF72E20000000000DF0C9F89DF80A00CE
:10363000002271210DF0C3F89DF8080000227221CC
:103640000DF0BDF89DF80900012803DB9DF8090085
:103650000C2802DD01208DF809009DF80910F94AB7
:1036600002EB8100002277210DF082F9BDF80010F5
:1036700088B201227A210DF0A2F89DF813109DF86E
:10368000172001EB022188B201223C210DF097F8AE
:10369000BDF8021088B201223E210DF090F80520FD
:1036A000E949088089E19DF8180042287ED19DF8FB
:1036B0001A004B28FAD1E5482590AFF23C1026902D
:1036C000AFF22C102790AFF2C0102890E0A0299004
:1036D000AFF20C102A90AFF2F8002B90E2A02C90E1
:1036E000E7A02D90EC4F97F90470FF1C0DF1940C9E
:1036F0005CF82730E84F97F90470BF1C5CF827206E
:10370000E54F97F904707F1C5CF82710E24F97F99A
:1037100004705CF827000DF0F8F89DF81910481CAB
:10372000002221210DF04BF89DF8140000224021C9
:103730000DF045F89DF81500002223210DF03FF80B
:103740009DF81600002224210DF039F89DF8120092
:10375000002225210DF033F89DF8100000225E2193
:103760000DF02DF89DF81100012803DB9DF81100E4
:103770000C2802DD01208DF811009DF81110B14ACE
:1037800002EB8100002228210DF0F2F89DF80C00D8
:10379000002269210DF013F89DF80D0000226C2124
:1037A0000DF00DF89DF80E00002200E03FE07321BF
:1037B0000DF005F89DF80A00002271210CF0FFFFC2
:1037C0009DF80800002272210CF0F9FF9DF8090015
:1037D000012803DB9DF809000C2802DD01208DF88B
:1037E00009009DF80910974A02EB81000022772119
:1037F0000DF0BEF8BDF8001088B201227A210CF05D
:10380000DEFF9DF813109DF8172001EB022188B20E
:1038100001223C210CF0D3FFBDF8021088B2012236
:103820003E210CF0CCFF052087490880C5E09DF8BB
:1038300018005328FAD199A025909DF81A004C2819
:1038400002D19CA0269013E09DF81A00542802D1C2
:103850009EA026900CE09DF81A00552802D1A1A048
:10386000269005E09DF81A00752801D1A3A02690A6
:10387000AFF6B00027909DF8080041280BD19DF8C5
:103880000900412807D1AFF65C00289025A80FC891
:103890000DF03BF858E0012200217F48001DFCF7A5
:1038A00034FCAFF644002890AFF6340029907A4FEC
:1038B00097F90470FF1C0DF1940C5CF82730764FDB
:1038C00097F90470BF1C5CF82720734F97F90470B8
:1038D0007F1C5CF82710704F97F904705CF8270084
:1038E0000DF013F89DF80C0000223E210CF067FF4C
:1038F0009DF80D0000223D210CF061FF9DF80E00A7
:10390000002229210CF05BFF9DF80A0000225B21B8
:103910000CF055FF9DF8080000223C210CF04FFFF1
:103920009DF80900012803DB9DF809000C2802DD41
:1039300001208DF809009DF80910424A02EB810030
:1039400000225D210DF014F89DF81910481C00228A
:103950002B210CF034FF9DF81400002240210CF0C4
:103960002EFF9DF81500002223210CF028FF9DF862
:103970001600002224210CF022FF9DF812000022E4
:1039800025210CF01CFF9DF8100000225E210CF098
:1039900016FF9DF81100012803DB9DF811000C288B
:1039A00002DD01208DF811009DF81110254A02EB6F
:1039B0008100002228210CF0DBFF03F06ABC3648AE
:1039C000007834283BD15348B0F90000A0F5B85135
:1039D000883902D150A0259060E14E48B0F900002E
:1039E000A0F5B8517C3902D151A0259056E1494843
:1039F000B0F90000A0F59051D83902D152A025901D
:103A00004CE14448B0F90000A0F59051CC3902D106
:103A100053A0259042E13F48B0F90000A0F5B8510D
:103A20007A3902D154A0259038E13A48B0F9000023
:103A3000A0F5B851753903D155A025902EE126E2A5
:103A4000B2E000001F4F0100AC000010E00D0000CC
:103A500020202020202020202055E1E0F23D2020C1
:103A60003CC2202000000000202020202020202018
:103A70002055E1E0F23D20203EC220200000000061
:103A800020A8ECEAEEF1F2FC20202020207AE02AA7
:103A9000F72E2020000000009A000010202020C0F7
:103AA000E2E0F0E8FF20C1CFD1204E2B20202020E3
:103AB000000000002020202020EEF2EAEBFEF7E8D4
:103AC000EBF1FF20202020200000000020202020FB
:103AD0002020EFE5F0E5E3F0E5E2202020202020A3
:103AE00000000000202020E7E0E2FBF8E5EDEE20FA
:103AF00055E2FBF52E20202000000000202020E7CA
:103B0000E0EDE8E6E5EDEE2055E2FBF52E20202085
:103B10000000000008010010202020C8C1DDCF32C5
:103B200032302F36302D323441202020000000006A
:103B3000202020C8C1DDCF3232302F36302D313237
:103B40004120202000000000202020C8C1DDCF320D
:103B500032302F34382D3234412020200000000034
:103B6000202020C8C1DDCF3232302F34382D313201
:103B70004120202000000000202020C8C1DDCF32DD
:103B800032302F36302D313041202020000000000F
:103B9000202020C8C1DDCF3232302F36302D3541C4
:103BA0002020202000000000C148B0F90000A0F54E
:103BB0009051CA3902D1BFA025906FE0BC48B0F93E
:103BC0000000A0F59051C53902D1C0A0259065E054
:103BD000B748B0F90000A0F51061783902D1C1A052
:103BE00025905BE0B248B0F90000A0F510616C3997
:103BF00002D1C2A0259051E0AD48B0F90000A0F577
:103C00009051E83902D1C3A0259047E0A848B0F907
:103C10000000A0F5B851983902D1C4A025903DE02C
:103C2000A348B0F90000A0F59051D43902D1C5A045
:103C3000259033E09E48B0F90000A0F5B8518439D2
:103C400002D1C6A0259029E09948B0F90000A0F55E
:103C50001061923902D1C7A025901FE09448B0F9B5
:103C60000000A0F51061793902D1C8A0259015E0B7
:103C70008F48B0F90000A0F51061783902D199A001
:103C800025900BE08A48B0F90000A0F510616C396E
:103C900002D19AA0259001E0C2A02590C7A026904D
:103CA000CCA02790D1A02890D6A02990DBA02A9064
:103CB000E0A02B90E5A02C90EAA02D90EFA02E90F4
:103CC000F4A02F90F9483090F94E96F90460F61C54
:103CD00025AF57F82630F64E96F90460B61C57F813
:103CE0002620F34E96F90460761C57F82610F04E05
:103CF00096F9046057F826000CF007FEEC480079AE
:103D0000082803D10120EB4981F83C00EA48B0F9CA
:103D10000000202807DA00222121E748008880B22D
:103D20000CF04DFD05E04FF0FF322121E3A00CF037
:103D30001FFEE348B0F900000D2807DA00224021F9
:103D4000DF48008880B20CF03AFD05E04FF0FF320A
:103D50004021DAA00CF00CFEDA48B0F9000064282B
:103D600007DA00222321D748008880B20CF027FD13
:103D700005E04FF0FF322321D0A00CF0F9FDD2482E
:103D80000068D249884206DB6FF004023F21D0A0D0
:103D90000CF0EEFD05E000223F21CB4800680CF05E
:103DA00060FC00222B2103200CF009FD00222821B9
:103DB00005200CF004FDC8480068C449884206DBB1
:103DC0006FF004022921C2A00CF0D2FD05E0002210
:103DD0002921C14800680CF044FCBF480068BB4979
:103DE000884206DB6FF004022921B9A00CF0C0FD67
:103DF00005E000222921B84800680CF032FCB748E1
:103E00000068B249884206DB6FF004023C21B0A092
:103E10000CF0AEFD05E000223C21B04800680CF03B
:103E200020FCAF480068A949884206DB6FF0040215
:103E30003E21A7A00CF09CFD05E000223E21A848F1
:103E400000680CF00EFC6FF003025B21A5A00CF0E3
:103E50008FFD6FF003022421A2A00CF089FD6FF00A
:103E6000030225219FA00CF083FD6FF003025E2169
:103E70009CA00CF07DFD6FF00302262199A00CF0B0
:103E800077FD0022114610460CF088FD95E5884824
:103E9000007836280AD10648B0F90000A0F5B851DC
:103EA000883904D1AFF290302590C7E174E31FE167
:103EB00008010010202020C8C1DDCF3232302F345D
:103EC000382D31304120202000000000202020C863
:103ED000C1DDCF3232302F34382D35412020202023
:103EE00000000000202020C8C1DDCF3232302F3248
:103EF000342D32344120202000000000202020C832
:103F0000C1DDCF3232302F32342D313241202020EA
:103F100000000000202020C8C1DDCF3232302F3415
:103F2000382D34304120202000000000202020C8FF
:103F3000C1DDCF3232302F36302D343041202020B9
:103F400000000000202020C8C1DDCF3232302F34E5
:103F5000382D32304120202000000000202020C8D1
:103F6000C1DDCF3232302F36302D3230412020208B
:103F700000000000202020C8C1DDCF3232302F32B7
:103F8000342D35304120202000000000202020C8A2
:103F9000C1DDCF3232302F32342D32354120202056
:103FA00000000000202020D2E8EF20EDE5E8E7E265
:103FB000E5F1F2E5ED20202000000000C4E0F2E091
:103FC00020E8E7E3EEF22E2030212F30402F30237F
:103FD00000000000F8E0F1F1E82020202020532F1D
:103FE0004E30303030303F2000000000D3CAD33292
:103FF00030322E2B2820532F4E30303030302920B5
:1040000000000000CFCE202020202020202076207D
:104010002020205B2020202000000000C1CFD131D3
:10402000202D20202020532F4E30303030303C20A7
:1040300000000000C1CFD132202D20202020532F9E
:104040004E30303030303E200000000052533233CA
:1040500032202020202020762020202420202020F4
:104060000000000043414E20504448202D2020767F
:1040700020202025202020200000000043414E2049
:10408000534448202D2020762020205E2020202010
:104090000000000045746865726E65742D202076FE
:1040A0002020202620202020000000008027000063
:1040B0009A000010AE0B0010100100102A2A000018
:1040C00012010010140100100C01001040420F00FA
:1040D0002A2A2A2A2A2A00001C0100102001001086
:1040E000240100102D2D2D2D2D2D2D2D2D00000006
:1040F000F948B0F90000A0F5B8517C3903D1AFF20E
:10410000D05025909AE0F448B0F90000A0F5905105
:10411000D83903D1AFF2D05025908FE0EE48B0F9F6
:104120000000A0F59051CC3903D1AFF2CC502590CE
:1041300084E0E948B0F90000A0F5B8517A3903D11C
:10414000AFF2CC50259079E0E348B0F90000A0F53B
:10415000B851753903D1AFF2C85025906EE0DE48F2
:10416000B0F90000A0F59051CA3903D1AFF2BC20DC
:10417000259063E0D848B0F90000A0F59051C5390A
:1041800003D1AFF2B820259058E0D348B0F9000031
:10419000A0F51061783903D1AFF2B82025904DE039
:1041A000CD48B0F90000A0F510616C3903D1AFF231
:1041B000B420259042E0C848B0F90000A0F5905125
:1041C000E83903D1AFF2B420259037E0C248B0F906
:1041D0000000A0F5B8518E3902D1C0A025902DE085
:1041E000BD48B0F90000A0F59051D43903D1AFF229
:1041F000AC20259022E0B848B0F90000A0F5B851F5
:104200007F3902D1BBA0259018E0B348B0F9000077
:10421000A0F51061923903D1AFF2A82025900DE0EE
:10422000AD48B0F90000A0F51061793903D1AFF2C3
:10423000A420259002E0AFF294202590AFF28420D4
:104240002690AFF270202790B0A02890AFF23420D3
:104250002990AFF220202A90B2482B90B24E96F9C6
:104260000460F61C25AF57F82630AF4E96F904606F
:10427000B61C57F82620AC4E96F90460761C57F809
:104280002610A94E96F9046057F826000CF03DFB65
:10429000A648B0F90000202807DA00222121A3480F
:1042A000008880B20CF08BFA06E04FF0FF3221213B
:1042B000AFF2F8100CF05CFB9D48B0F900000D283F
:1042C00007DA002240219A48008880B20CF077FA81
:1042D00006E04FF0FF324021AFF220200CF048FB07
:1042E0009448B0F90000642807DA0022232191489D
:1042F000008880B20CF063FA06E04FF0FF32232111
:10430000AFF248200CF034FB8B4800688B498842A0
:1043100007DB6FF004023F21AFF24C200CF028FBCA
:1043200005E000223F21844800680CF09AF9002241
:104330002B214FF496700CF042FA00222821052020
:104340000CF03DFA7E4800687C49884207DB6FF03C
:1043500004022921AFF288200CF00AFB05E00022BC
:104360002921774800680CF07CF976480068734989
:10437000884207DB6FF004023C21AFF2AC200CF066
:10438000F7FA05E000223C216E4800680CF069F95C
:104390006D4800686949884207DB6FF004023E21DE
:1043A000AFF2D4200CF0E4FA05E000223E2166488A
:1043B00000680CF056F95C480079032807D15A4888
:1043C0004078092803D10120604981F83C00564813
:1043D000407840B95448007928B914220021084691
:1043E0000CF0DCFA52E55048407801280FD14E48D5
:1043F00090F9040002280ADA4B4991F90410C1F13E
:104400000101C8B202220C210CF0C8FA3EE5464870
:10441000407802280FD1444890F9040002280ADAB3
:10442000414991F90410C1F10101C8B202220F21E2
:104430000CF0B4FA2AE53C48407803280FD13A48FA
:1044400090F9040002280ADA374991F90410C1F101
:104450000101C8B2022212210CF0A0FA16E532487E
:10446000407804280FD1304890F9040003280ADA74
:104470002D4991F90410C1F10201C8B20A22114676
:104480000CF08CFA02E52848407805280FD1264820
:1044900090F9040004280ADA234991F90410C1F1C3
:1044A0000301C8B2062203210CF078FAEEE41E489C
:1044B000407806284CD11C4890F90400042847DABB
:1044C000194991F90410C1F10301C8B20A22114639
:1044D0000CF064FADAE4000008010010202020C883
:1044E000C1DDCF3232302F36302D33304120202005
:1044F00000000000202020C8C1DDCF3232302F362E
:10450000302D31354120202000000000D3CAD330A7
:10451000302B2E302820532F4E3030303030292091
:1045200000000000802700009A0000101001001019
:1045300012010010140100100C01001040420F0085
:104540001C0100102001001024010010AE0B00100F
:104550009048407807280AD18E4991F90410C1F19A
:104560000401C8B20A2211460CF018FA8EE48948F8
:10457000407808280AD1874991F90410C1F1050152
:10458000C8B20A2211460CF009FA7FE40022114653
:1045900010460CF003FA79E47E48007803287ED1B7
:1045A0007DA0259082A0269087A027908CA028909F
:1045B00091A0299096A02A909BA02B90A0A02C902F
:1045C000A5A02D90AAA02E90AFA02F90B4A03090BF
:1045D000B9A03190BEA03290C3A03390C8A034904F
:1045E000CDA03590D2A03690D7A03790DCA03890DF
:1045F000E1A03990E6A03A90EBA03B90F0A03C906F
:10460000F5A03D90FA483E90FAA03F90FFA0409060
:10461000604890F901005F4991F90410401A02289E
:1046200006DD5C484078801E40B25A4908710BE0B4
:10463000584890F90100574991F90410884203DA6B
:104640005448407853490871524890F90400801C3E
:1046500025AE56F820304F4890F90400401C56F81B
:1046600020204C4890F9040056F82010EDA00CF0E2
:104670004CF901200DF08BFA464890F904001128FE
:1046800066DA00223C21ED480088401C80B20CF024
:1046900096F8EB48008838B10022282100E01BE2A0
:1046A000E8480CF065F904E000222821E6480CF007
:1046B0005FF9E648008828B100222921E4A00CF027
:1046C00057F904E000222921E3A00CF051F9E44855
:1046D000007855280CD16FF007027921E1A00CF089
:1046E00047F900227921E24800880CF068F805E0DB
:1046F0006FF003027921DFA00CF03AF901222121A9
:10470000DE48008880B20CF05AF801224021DC48D3
:10471000008880B20CF053F801222321D948008888
:1047200080B20CF04CF801225E21D748008880B29C
:104730000CF045F800222621D448008880B20CF005
:104740003EF801223E21D248008880B20CF037F8B2
:1047500000222421CF48008880B20CF030F80222D9
:104760006A21CD48008880B20CF029F803225B2131
:10477000CA48008880B20CF022F801225D21C848A6
:10478000008880B20CF01BF801227B21C54800880C
:1047900080B289E19A00001020D1F2E0EDE4E0F06F
:1047A000F2EDFBE52020202020202020000000004A
:1047B00020C2F0E5ECFF20E820E4E0F2E020202039
:1047C000202020200000000020D1F2F0F3EAF2F3D4
:1047D000F0E02020202020202020202000000000C9
:1047E00020CCEDE5ECEEEDE8EAE0202020202020D2
:1047F000202020790000000020CEF1EDEEE2EDEE69
:10480000E920E8F1F2EEF7ED2E204E3C000000002A
:1048100020C7E22EF1E8E3ED2E20202028202020E2
:10482000202020200000000020CEF2EAEBFEF7E579
:10483000EDE8E520F1E8E3EDE0EBE020000000002A
:104840002020E0E2E0F0E8E82020202029202020BD
:10485000202020200000000020C0CFC220E8F1F27C
:10486000EEF7EDE8EAEEE220202020200000000034
:10487000205420EFF0EEE2E5F0EAE8202020F6E513
:10488000EFE820200000000020E1E0F2E0F0E5E8A1
:10489000202020202071ECE8ED2E202000000000D8
:1048A00020556D61783D2020202020202021C2202D
:1048B00020202020000000002055E130B03D2020C5
:1048C000202020202040C2202020202000000000A6
:1048D0002055E13230B03D20202020202023C2206E
:1048E00020202020000000002055F1E8E3ED3D20CD
:1048F00020202020205EC220202020200000000058
:1049000020556D696E2EF1E5F2E83D202026C2208B
:104910002020202000000000205530E13D202020F4
:1049200020202020203EC220202020200000000047
:104930002049E1EA2E3D202020202020206AC020AE
:1049400020202020000000002049E72EECE0F52E7A
:104950003D202020204AC0202020202000000000F0
:1049600020496D61783D202020202020205D4120BD
:104970002020202000000000204B696D61783D2040
:1049800020202020207B202020202020000000004C
:10499000204BE2FBF02EE7E0F02E3D202020205BB4
:1049A00020202020000000002054E72EE2EAEB2E19
:1049B000E02EF12E2021F1202020202000000000F8
:1049C00020746D61783D2020202020202024B043D9
:1049D000202020200000000020C2EDE5F8EDE8E5F1
:1049E00020E4E0F2F7E8EAE82020202000000000C0
:1049F000004F010020CAE0EBE8E1F0EEE2EAE82037
:104A000020202020202020200000000020D2E5F1DE
:104A1000F2202020202020202020202020202020C4
:104A2000000000002020202020D3D1D2C0CDCEC253
:104A3000CAC820202020202000000000D400001040
:104A4000E4000010154F01001A4F0100DE000010B5
:104A5000E0E2F2EEEC2E0000F0F3F7ED2E000000A5
:104A6000A4010010F7E5F0E5E72079F12E00000041
:104A7000A6010010E2FBEAEB2E000000D6000010B9
:104A8000D8000010DA000010E0000010E200001072
:104A9000F2000010DC000010E6000010E80000103A
:104AA000EA000010EC0000100BF089FE01224A2100
:104AB000F248008880B20BF082FE00222121F048EB
:104AC000008880B20BF07BFE00227121ED48008847
:104AD00080B20BF074FE85E4EB480078252847D1BE
:104AE000EAA02590EFA02690F4A02790F9A02890A6
:104AF000FE482990FE48007828B1FE4925A8FE4AC4
:104B0000127840F82210E04890F90100DE4991F94E
:104B10000410884204DADC484078DB4908710EE072
:104B2000D94890F90100D84991F90410401A022897
:104B300005DDD5484078801E40B2D3490871D2487F
:104B400090F90400801C25AE56F82030CE4890F92C
:104B50000400401C56F82020CB4890F9040056F879
:104B60002010E6A00BF0D1FE01200DF010F839E482
:104B7000C548007828287ED1E6480078401CC0B29D
:104B8000E44908700F280BDB00200870E248007829
:104B9000401CC0B2E0490870032801DB0020087007
:104BA000DE482590D3482690DB48007808B9DCA081
:104BB0002790D9480078012801D1DFA02790D64856
:104BC0000078022801D1E2A02790E7A025A90EC90C
:104BD0000BF09BFEAC48407820B95E20E84981F894
:104BE0002A002BE0A8484078012804D15E20E4493F
:104BF00081F82D0022E0A4484078022804D15E20EC
:104C0000DF4981F8300019E09F484078032804D13B
:104C10005E20DB4981F8330010E09B48407804288F
:104C200004D15E20D64981F8360007E096484078E6
:104C3000052803D15E20D24981F83A00D14908788D
:104C40004FF000024FF026010BF0B9FDCD4920399D
:104C500091F8240000225E210BF0B1FDCA490878CA
:104C60004FF000024FF025010BF0A9FDC549203996
:104C700091F82C0000E027E000223C210BF09FFD82
:104C8000C2490978C24A02EB81004FF000024FF09E
:104C90003E010BF06DFEBB492039888F00227B213D
:104CA0000BF08DFDBB480078002802F0F2823A201C
:104CB0000BF0C0FBB24920220A543A200BF0BAFB99
:104CC000AF4920220A5405E46F4800781A287DD1A4
:104CD000B1A02590B6480078552809D0B54826904F
:104CE00084482790289029900120B349087019E042
:104CF000B248007855280AD0B1A02690AD48279038
:104D00007C48289029900220AB4908700AE0ACA0AA
:104D10002690B1A02790A748289076482990032094
:104D2000A5490870584890F90100574991F90410B5
:104D3000884204DA54484078534908710EE05248DA
:104D400090F90100504991F90410401A022805DD3C
:104D50004D484078801E40B24B4908714A4890F94E
:104D60000400801C25AE56F82030474890F9040016
:104D7000401C56F82020444890F9040056F82010B2
:104D80009BA00BF0C2FD01200CF001FF88480078C9
:104D9000552805D1002221219B480BF0E9FD04E0B4
:104DA0000022212199480BF0E3FD84480078552822
:104DB0000DD10022402194480BF0DAFD002223217E
:104DC0009348008880B20BF0FAFC84E605E00022EC
:104DD00040218E480BF0CCFD7DE62B4800781F2843
:104DE00049D18CA0259091A026904C483030279036
:104DF0001830289093A029903C482A90224890F996
:104E00000100214991F90410884204DA1E484078D3
:104E10001D4908710EE01C4890F901001A4991F9EA
:104E20000410401A022805DD17484078801E40B261
:104E300015490871144890F90400801C25AE56F8F5
:104E40002030114890F90400401C56F820200E48EC
:104E500090F9040056F8201080A00BF056FD0120B8
:104E60000CF095FE8348007830B90022282167486D
:104E70000BF07EFD2FE60AE1FEE00000F0000010DE
:104E8000F4000010F80000109A00001020C8C1DDE6
:104E9000CF3232302F36302D3130C020202020202C
:104EA0000000000020C8C1DDCF3232302F34382D51
:104EB0003130C020202020200000000020C8C1DDAB
:104EC000CF3232302F36302D35C020202020202008
:104ED0000000000020C8C1DDCF3232302F34382D21
:104EE00035C020202020202000000000004F0100BD
:104EF00080000010EB4E0100AB000010D1D2C0CDFD
:104F0000C4C0D0D2CDDBC520D3D1D22E2DCAC8206B
:104F10000000000063000010B1000010101D000030
:104F2000202020209A209C202D20E2FBE1EEF02082
:104F30002020202000000000202020BF209D202DC8
:104F400020F3F1F2E0EDEEE2EAE0202000000000C4
:104F50002020202020A420202D20E2FBF5EEE420BC
:104F6000202020200000000020D3D1D2C0CDCEC20E
:104F7000CAC02020C2D0C5CCC5CDC82000000000CA
:104F8000AE0B001020400240284002403840024052
:104F90001F4F01008100001020C0CFC22031E92046
:104FA000F3F0EEE2E5EDFC202120202000000000DF
:104FB0009901001080270000B00000109A01001035
:104FC00020C0CFC22032E920F3F0EEE2E5EDFC2074
:104FD000402020200000000020CFE5F0E8EEE42093
:104FE000C0CFC232202020202023F72E0000000056
:104FF000202020C0CFC220C8D1D2CED7CDC8CACEA3
:10500000C220202000000000154F01001A4F0100AF
:10501000A201001020D0E5EBE520E0E2E0F0E8FF9F
:1050200020202020282020200000000020D0E5EBB8
:10503000E520F1E0ECEEEAE0EBE8E1F0EEE2EAE8B0
:105040000000000020C1CFD1312BC1CFD1322020B0
:1050500020202020202020200000000020202020D0
:1050600020202020D2C5D1D2202020202020202086
:1050700000000000E0100010FA480078012842F01B
:10508000088100222821F8480BF072FC23E5F7483C
:10509000007820283ED1F54890F90100F34991F9B4
:1050A0000410884204DAF1484078F04908710EE0B3
:1050B000EE4890F90100ED4991F90410401A0228D8
:1050C00005DDEA484078801E40B2E8490871E84BA7
:1050D000E8A2EEA1F3A00BF018FC01200CF057FDA4
:1050E000E048407828B900223C21F4480BF040FC0D
:1050F00008E0DC484078012804D100223C21DA484D
:105100000BF036FC02223A21ED48B0F900000BF01A
:1051100039FAE0E4D548007821286DD1D34890F9D8
:105120000100D24991F90410884204DACF4840784E
:10513000CE4908710EE0CD4890F90100CB4991F9B4
:105140000410401A022805DDC8484078801E40B28D
:10515000C6490871C64BDBA2E0A1E6A00BF0D5FB67
:1051600001200CF014FDBF48807840B90022402196
:10517000E6A00BF0FDFB1E20E64908801AE0B948C6
:105180008078012809D100224021E3A00BF0F0FB38
:1051900040F2CA30DF4908800CE0B248807802282B
:1051A00008D100224021DEA00BF0E2FB45F2555071
:1051B000D849088000222421DAA00BF0D9FBDB4972
:1051C000098888B201223C210BF0F9FAD8490988F4
:1051D00088B201223E210BF0F2FA00222321D548A9
:1051E000008880B20BF0EBFA01222421D24800881B
:1051F00080B20BF0E4FA6EE49C48007822286DD16E
:105200009A4890F90100994991F90410884204DA0A
:1052100096484078954908710EE0944890F901004D
:10522000924991F90410401A022805DD8F48407810
:10523000801E40B28D4908718D4BC0A2A7A1C5A0A8
:105240000BF063FB01200CF0A2FC8648C07840B94B
:1052500000224021ADA00BF08BFB1E20C34908802B
:105260001AE08048C078012809D100224021AAA074
:105270000BF07EFB40F2CA30BC4908800CE0794854
:10528000C078022808D100224021A5A00BF070FBB5
:1052900045F25550B549088000222421A1A00BF009
:1052A00067FBA249498888B201225B210BF087FA8B
:1052B0009F49498888B201225D210BF080FA0022C3
:1052C0002321AB48008880B20BF079FA0122242117
:1052D0009948008880B20BF072FA48E4634800787D
:1052E00023287ED1A3A0259076A0269093A0279076
:1052F0005F4828905D4890F901005C4991F90410DD
:10530000884204DA59484078584908710EE05748F5
:1053100090F90100554991F90410401A022805DD61
:1053200052484078801E40B2504908714F4890F969
:105330000400801C25AE56F820304C4890F904003B
:10534000401C56F82020494890F9040056F82010D7
:105350008EA00BF0DAFA01200CF019FC414800791C
:1053600050B90022402169A00BF002FB1E206949C0
:1053700008807E4908801EE03A48007901280BD158
:105380000022402164A00BF0F3FA40F2CA306149D8
:105390000880764908800EE03248007902280AD158
:1053A000002240215EA00BF0E3FA45F25550594926
:1053B00008806E490880002224215AA00BF0D8FAF8
:1053C0005A49098888B201223C210BF0F8F9584962
:1053D000098888B201223E210BF0F1F90022232135
:1053E00000E021E05348008880B20BF0E8F94F4913
:1053F000498888B201225B210BF0E1F94C494988C8
:1054000088B201225D210BF0DAF9002221215848EF
:10541000008880B20BF0D3F901222421464800888D
:1054200080B20BF0CCF94EE410480078172816D162
:105430005CA0259061A0269066A027906BA0289084
:105440000B482990094890F90100084991F9041086
:10545000884205DA0548407804490871E1E015E121
:10546000D0E00000E0100010154F01009A0000107D
:10547000004F01002049E1E0F23D202020202020C3
:1054800020202020203A41200000000020D0E5EB21
:10549000E52020202020202020203C20202020202B
:1054A0000000000020D2C5D1D220D1C0CCCECAC0CD
:1054B000CBC8C1D0CEC2CAC0000000001A4F010044
:1054C000B00100102055313D202020203CC2204951
:1054D000313D202020203EC0000000002055F03D3E
:1054E000402020242020202020F8E8EC3D2020230C
:1054F000000000002020202020D2C5D1D220C1CF22
:10550000D13120202020202000000000556D696E40
:105510000000000026020010556D617800000000B8
:10552000553230002820202024290000E2010010FC
:10553000E60100107C020010800200102055323D70
:10554000202020205BC22049323D202020205DC049
:10555000000000002020202020D2C5D1D220C1CFC1
:10556000D13220202020202000000000280200103E
:105570007E0200102055F03D4020202420202020D5
:10558000202020232020202100000000202020D2E5
:10559000C5D1D220C1CFD1312BC1CFD132202020D3
:1055A0000000000020C1E0F2E0F0E5E9202020202A
:1055B00020202020202020400000000020C8F1F200
:1055C000EEF7EDE8EAEEE220202020202020202146
:1055D0000000000020C4E0F2F7E8EAEEE220F2E585
:1055E000ECEFE5F02E2020230000000020D1F3F5A1
:1055F000E8F520EAEEEDF2E0EAF2EEE220202024E7
:1056000000000000ED4890F90100EC4991F9041008
:10561000401A022805DDE9484078801E40B2E7497B
:105620000871E64890F90400801C25AE56F8203039
:10563000E24890F90400401C56F82020DF4890F919
:10564000040056F82010DEA00BF05FF901200CF0EA
:105650009EFA00222121E048008880B20BF0AFF8CA
:1056600000224021DD48008880B20BF0A8F800221B
:105670002321DB48008880B20BF0A1F8002224210E
:10568000D848008880B20BF09AF8FFE4CB48007845
:105690003E2844D1D4A02590D9A02690DEA0279002
:1056A000E3A02890E8A02990EDA02A90F2A02B90EA
:1056B000F7482C90C14890F90100C04991F90410B5
:1056C000884204DABD484078BC4908710EE0BB4806
:1056D00090F90100B94991F90410401A022805DD3A
:1056E000B6484078801E40B2B4490871B34890F97A
:1056F0000400801C25AE56F82030B04890F9040014
:10570000401C56F82020AD4890F9040056F82010AF
:10571000E0A00BF0FAF801200CF039FAB6E4A74843
:1057200000783F287CD1E1A02590E6A02690EBA050
:105730002790F0A02890F5A02990FAA02A90FFA029
:105740002B90D3482C909D4890F901009B4991F9EA
:105750000410884204DA99484078984908710EE0AC
:10576000964890F90100954991F90410401A0128D2
:1057700005DD92484078401E40B2904908718F483C
:1057800090F90400401C25A951F820308B4890F96D
:10579000040051F82020EFA1F4A00BF0B6F802208D
:1057A0000CF0F5F9854991F90210491C88B20022E4
:1057B00021210BF004F8814991F90210F14A32F9E4
:1057C0001100002240210AF0DDFE7C4890F9020021
:1057D000ED4931F8100050B9784991F90210EB4ABF
:1057E00032F91100002223210AF0CCFE06E06FF00E
:1057F00001022321AFF684500BF0BAF86F4890F9FC
:105800000200E34931F8100058B96C4991F90210CF
:10581000E04A32F91100002224210AF0B3FE07E029
:105820005BE06FF001022421AFF6B8500BF0A0F856
:10583000624890F90200D84931F8100030B96FF091
:1058400001025B21D5A00BF093F806E06FF0010296
:105850005B21AFF6E0500BF08BF8584890F902004E
:10586000D04931F8100030B96FF001025D21CBA0B2
:105870000BF07EF806E06FF001025D21AFF60C60E0
:105880000BF076F84D4890F90200C74931F8100046
:1058900030B96FF001022821C0A00BF069F806E0D2
:1058A0006FF001022821AFF634600BF061F8434835
:1058B00090F90200BD4931F8100030B96FF00102D3
:1058C0002921B6A00BF054F823E46FF0010229213E
:1058D000AFF660600BF04CF81BE4384800784028C5
:1058E00069D1B3A02590B8A02690BDA0279081A033
:1058F000289086A029908BA02A9090A02B90644895
:105900002C902E4890F901002C4991F904108842FE
:1059100004DA2A484078294908710EE0274890F9AE
:105920000100264991F90410401A022805DD234898
:105930004078801E40B221490871204890F9040047
:10594000801C25AE56F820301C4890F90400401CFD
:1059500056F82020194890F9040056F82010A6A007
:105960000AF0D3FF01200CF012F9144991F902104A
:10597000491C88B2002221210AF021FF0F4890F92A
:105980000200A349085CFF2805D100224021A1A004
:105990000AF0EEFF04E000224021A0A00AF0E8FF98
:1059A000064890F902009F4931F8100020B9002202
:1059B000232198A038E1ADE139E100009A00001000
:1059C000202020202020D1D2D0D3CAD2D3D0C020B2
:1059D0002020202000000000FC000010FA00001031
:1059E000FE0000100001001020C4E0F2F7E8EA20F9
:1059F000F2E5ECEFE5F02E204E3120200000000013
:105A000020C4E0F2F7E8EA20F2E5ECEFE5F02E2022
:105A10004E3220200000000020C4E0F2F7E8EA2027
:105A2000F2E5ECEFE5F02E204E33202000000000E0
:105A300020D1F3F5EEE920EAEEEDF2E0EAF2204EB5
:105A4000312020200000000020D1F3F5EEE920EA0B
:105A5000EEEDF2E0EAF2204E3220202000000000BD
:105A600020D1F3F5EEE920EAEEEDF2E0EAF2204E85
:105A7000332020200000000020D1F3F5EEE920EAD9
:105A8000EEEDF2E0EAF2204E34202020000000008B
:105A9000004F01002020C2CDC5D8CDC8C520C4C04C
:105AA000D2D7C8CAC82020200000000020F2E5ECB0
:105AB000EFE5F0E0F2F3F0E0202020202040B043BA
:105AC0000000000020746D6178202020202020201C
:105AD000202020202023B0430000000020746D69A6
