:020000040000FA
:1000000038210010D9000000DD000000DF000000F2
:10001000E1000000E3000000E50000000000000037
:10002000000000000000000000000000E7000000E9
:10003000E900000000000000EB00000069C90000BA
:10004000EF000000EF000000EF000000EF000000F4
:10005000EF000000D5670100EF00000041650100DE
:10006000EF000000EF000000EF000000EF000000D4
:10007000EF000000EF000000EF000000EF000000C4
:10008000EF000000EF000000EF000000EF000000B4
:10009000EF000000EF000000EF000000EF000000A4
:1000A000EF000000F3640100EF000000EF0000002B
:1000B000EF000000EF000000EF000000EF00000084
:1000C000EF000000DFF80CD000F0BAF8004800475D
:1000D000EBCA00003821001005480047FEE7FEE7A4
:1000E000FEE7FEE7FEE7FEE7FEE7FEE7FEE7FEE7E8
:1000F000C500000090F900308B4200DA027090F9E0
:100100000030934200DD0170704790F900308B425F
:1001100000DA017090F90030934200DD0270704700
:10012000B0F900308B4200DA0180B0F90030934220
:1001300000DD02807047B0F900308B4200DA0280A7
:10014000B0F90030934200DD0180704703688B42B4
:1001500000DA02600368934200DD0160704700002E
:100160002C4B1A602C4B18702C4B19707047294877
:100170000068D0B127480068401E2649086014D1A5
:1001800025480078264908702448007840B2487015
:100190000846407808714FF0000022490870224953
:1001A000087022490870224908707047214A11607E
:1001B000214A107070471F480068A0B11D480068B0
:1001C000401E1C4908600ED11B4800781449087075
:1001D0004FF0000048701349087013490870134924
:1001E000087013490870704714490880704710B5AB
:1001F0001248008868B111480088A0F1010000B2DF
:100200000E4908800846008818B90021084613F0F6
:100210007FF810BDD8020010D4020010D5020010E3
:10022000A6000010E0020010E1020010E20200103F
:10023000E3020010DC020010D6020010E4020010FD
:10024000064C074D06E0E06840F0010394E8070023
:1002500098471034AC42F6D3FFF738FFE87401003A
:100260000875010070B501EB020410F8015B15F090
:10027000070301D110F8013B2A1106D110F8012B18
:1002800003E010F8016B01F8016B5B1EF9D12B073D
:1002900005D40023521E0FD401F8013BFAE710F8F1
:1002A000013B02F10202A1EB030303E013F8015B3F
:1002B00001F8015B521EF9D5A142D6D3002070BDD2
:1002C00002E008C8121F08C1002AFAD1704770471F
:1002D000002001E001C1121F002AFBD1704700007D
:1002E000000000000000000000000000000000000E
:1002F000000000000000000000000000FFFFFFFF02
:100300004FF020007649086000BF7548006810F083
:10031000400FFAD04FF003007249086072487349E9
:10032000C1F8A8014FF00000714908604FF00100CA
:10033000704908607048714908604FF00100A1F1F0
:10034000040108604FF0AA006D4908604FF05500A5
:100350006649C1F88C0000BF6848001D006810F0B5
:10036000806FF9D04FF00300664908604FF0AA0093
:100370005E49C1F88C004FF05500614908604FF0AC
:100380000000614908606148614908604FF0000061
:100390005649C1F8C8015F480068C0F301600328EE
:1003A00068D15448006810F0030006D0012823D01B
:1003B00002283FD003285CD100E000BF5548006808
:1003C000C0F30E0000F101004FEA40014748D0F8A9
:1003D0008800C0F3074000F10100B1FBF0F04E4986
:1003E00000FB01F03F490968C9B201F10101B0FB0E
:1003F000F1F04A4908603CE046480068C0F30E004E
:1004000000F101004FEA40013848D0F88800C0F3FD
:10041000074000F10100B1FBF0F0414900FB01F0A1
:1004200030490968C9B201F10101B0FBF1F03B4963
:1004300008601EE037480068C0F30E0000F10100BC
:100440004FEA40012948D0F88800C0F3074000F186
:100450000100B1FBF0F04FF4FA4100FB01F021493B
:100460000968C9B201F10101B0FBF1F02B49086044
:1004700000BF2FE01F48006810F0030006D00128DD
:1004800010D0022819D0032823D100E000BF15485E
:100490000068C0B200F101001F49B1FBF0F01F4934
:1004A000086016E00F480068C0B200F101001C4966
:1004B000B1FBF0F0194908600BE00A480068C0B2CF
:1004C00000F101004FF4FA41B1FBF0F0134908606C
:1004D00000BF00BF43F23A000449086070470000C3
:1004E000A0C10F4004C10F400000020800C00F402F
:1004F000ACC10F400CC10F404F00030084C00F403F
:100500008CC00F4080C00F4008C10F4048F100016F
:10051000C4C00F4088C00F4000093D00000000101B
:10052000809698000146002902DA484200B27047DE
:100530000846FCE74FF01100FF4908727047FF487A
:10054000C06940F44020FD49C8610846C06940F4D4
:100550004010C8614FF00000F949C8604FF4406096
:10056000C8644FF0020048614FF47A7088614FF41C
:100570004870086248624FF0010008654FF00200C1
:1005800048604FF009004860704700B589B04FF0EF
:100590000000079009E04FF00001EA4A0798115463
:1005A000079800F1010000B207900798B0F5F47FBA
:1005B000F1DBE548007800287DD1E448007810F0B0
:1005C000010F20D0E248007800281BD00020E1492C
:1005D00003223223CDE90032CDE902101823322262
:1005E0000321084613F03CFC0020DB4903223223A0
:1005F000CDE90032CDE9021018233222032108464A
:1006000013F02EFCF5E0D548B0F90000012876DBA8
:100610000020009014231A460146019013F00DFBB0
:100620000020009012231A4601210190084613F081
:1006300004FBCB48007810F03C0F0DD10020C949D5
:1006400002220F23CDE90032CDE902101A46022121
:10065000032013F005FC32E0C148007810F0100FC1
:1006600010D0BB48007838B30020BF4902220F23C6
:10067000CDE90032CDE902101A460221032013F021
:10068000EFFB1CE0B648007810F0080F04D1B44826
:10069000007810F0040F12D0AD48007860B100204F
:1006A000B24902220F23CDE90032CDE902101A46E9
:1006B0000221084601E08EE201E013F0D1FBAC48D4
:1006C000406D10F0010F1AD100200B2302461421B7
:1006D0000090092012F0DAFE002003465B221F2161
:1006E0000090092012F0D2FEA24800781330C0B268
:1006F0000423002201460490092013F0E7FA9748EA
:10070000B0F90000022874DB0020009014231A4680
:1007100001460190172013F090FA00200090122358
:100720001A4601210190182013F087FA8C4840786E
:1007300010F03C0F0DD100208F4902220F23CDE98C
:100740000032CDE902101A460221192013F088FB6D
:100750002FE08348407810F0100F10D07C480078CC
:1007600038B30020804902220F23CDE90032CDE9C1
:1007700002101A460221192013F072FB19E0784882
:10078000407810F0080F04D17548407810F0040F3D
:100790000FD06F48007860B10020744902220F2307
:1007A000CDE90032CDE902101A460221192013F0DA
:1007B00057FB6F48406DC0F34000D0B900200B23B9
:1007C000024614210090202012F060FE0020034613
:1007D00044221F210090202012F058FE6548007826
:1007E0001330C0B20423002201460490202013F0ED
:1007F0006DFA62480088002831D000200090142350
:10080000232201460190322013F017FA00200090B5
:100810000223032214210190352013F00EFA002048
:10082000009002230322142101904F2013F005FAB7
:100830004648007810F0020F12D045480078002892
:10084000DAD00020444903223223CDE90032CDE939
:1008500002101823322201462B2013F001FB09E17C
:1008600000200B23024614210090422012F00EFEBD
:100870000020034622221F210090422012F006FE93
:100880003F48B0F9000000280BDA3A4800781330EE
:10089000C0B20423002201460490422013F016FA4D
:1008A00010E03748B0F9000000280BDB3148007831
:1008B000C0F12200C0B2042302220146049042206B
:1008C00013F004FA2F4800781E2834DA2E48B0F9C5
:1008D0000000A0F5AA4155397DD02C4890F90000C0
:1008E0004FF0050190FBF1F000B204904FF01402BC
:1008F0004FF0000104A8FFF713FC00200121CDE90F
:100900000010BDF9103020220146332013F095F974
:100910001E4890F900000A2847DA02200121092325
:100920000C22CDE9001005213D2013F086F90122AB
:100930000020164B2CE089E00040024000C002403D
:100940000080014088070010B1000010B4010010C1
:1009500081000010DD690100736A010008010010C8
:10096000E8010010096B0100456B0100636B010099
:1009700000C009205D000010276B01000601001077
:10098000BC010010600000100E010010C801001032
:1009900093F90030CDE90102009303920223FFA2F4
:1009A00005213D2013F098FA3BE0FD4890F9000046
:1009B00064281CDA0220012109231222CDE900104B
:1009C00005213A2013F039F9012102220020F44BCD
:1009D00093F9003000E025E0CDE90030CDE90221B7
:1009E0000323F0A205213A2013F076FA19E0022041
:1009F000012109231822CDE900100521372013F029
:100A00001CF9012203200021E54B93F90030CDE9C8
:100A10000031CDE902020423E3A20521372013F0BF
:100A20005BFA27E0E248B0F900000A2190FBF1F000
:100A300000B20121032204908DE807000423DDA207
:100A4000039105213A2013F047FA13E0D848B0F992
:100A500000000A2190FBF1F000B201220321049072
:100A6000CDE90121042303920090D2A205213A206E
:100A700013F032FA002000900E231B220221019075
:100A80005C2013F0DAF800200346021F08210090D2
:100A90005C2012F0FBFC0020034604220821009099
:100AA000762012F0F3FC0020034627221F2100903D
:100AB000432012F0EBFC00206FF00F0302461F21D1
:100AC0000090692012F0E2FCBC480078C0F12200DE
:100AD000C0B20423022201460490692013F0F6F804
:100AE00001200421B64BB3F90030CDE900300523D5
:100AF000B4A2CDE902101621462013F0EDF9B34857
:100B0000B0F9000064280FDA01200321AF4BB3F9DC
:100B10000030CDE900300423A6A2CDE90210052162
:100B20005D2013F0D9F914E0A848B0F900000A21BB
:100B300090FBF1F000B20121032200230490CDE9E3
:100B400001320391009004239AA205215A2013F048
:100B5000C3F99F48007800F101009D4908700846DC
:100B60000078032836DB4FF00000087099480078C1
:100B700000F1010097490870084600780D2802DB53
:100B80004FF0000008709448007800F1010092498D
:100B9000087008460078202802DB4FF0000008703B
:100BA0008648007800F10100844908700846007802
:100BB000112802DB4FF0000008708848007800F12F
:100BC00001008649087008460078282802DB4FF0AB
:100BD000000008708AE04FF00000069082E04FF0BD
:100BE0007A01069800FB01F00590069800EB800062
:100BF0004FEA800000B2089067E079490898085CE5
:100C000000EB4000774911F81020059800F1010130
:100C1000059175490A5472490898085C00EB400038
:100C20004FF0010101EB40006E490A5C059800F1AC
:100C3000010105916C490A5469490898085C00EB68
:100C400040004FF0020101EB400066490A5C059844
:100C500000F10101059164490A5461490898085C52
:100C600000EB40004FF0030101EB40005D490A5CDE
:100C7000059800F1010105915B490A54584908980B
:100C8000085C00EB40004FF0040101EB40005549C7
:100C90000A5C059800F10101059153490A54504935
:100CA0000898085C00EB40004FF0050101EB4000A4
:100CB0004C490A5C059800F1010105914A490A5422
:100CC000089800F1010000B20890069800EB80003F
:100CD00080001430089988428FDC069800F10100EA
:100CE00000B2069006980428FFF679AF09B000BD5F
:100CF00000B5CBB04FF005000D904FF000000E9006
:100D00003A48007805280ED139A20E9800F1010169
:100D1000C9B20E910FA941F820200D9800F10100F1
:100D2000C0B20D9011E03148007821280DD136A2D3
:100D30000E9800F10101C9B20E910FA941F82020CF
:100D40000D9800F10100C0B20D903548007810F008
:100D5000010F0DD033A20E9800F10101C9B20E911E
:100D60000FA941F820200D9800F10100C0B20D90AC
:100D70002B48007810F0020F0DD030A20E9800F131
:100D80000101C9B20E910FA941F820200D9800F180
:100D90000100C0B20D902F4800785DE020250000D2
:100DA000C801001020202500202020250000000080
:100DB000BC01001020202041000000005F00001056
:100DC000FA0100102020202042000000F80100104D
:100DD0005C0000105D0000105E000010600000105C
:100DE000C0060010816B0100880700105802001037
:100DF00020C2FBF0E0E2ED2EE7E0F0FFE420207AF5
:100E00003A305A20000000002020CAEEEDF2F0EE49
:100E1000EBFC20E5ECEAEEF1F2E820200000000017
:100E2000B4010010202020C0E2E0F0E8FF20F1E54E
:100E3000F2E82121212020200000000020C0E2E073
:100E4000F0E8FF20E1E0F2E0F0E5E82121212020B8
:100E500000000000E801001010F01C0F0DD0FFA2F0
:100E60000E9800F10101C9B20E910FA941F820209E
:100E70000D9800F10100C0B20D90FE48407810F0CE
:100E80001C0F0DD0FCA20E9800F10101C9B20E9109
:100E90000FA941F820200D9800F10100C0B20D907B
:100EA000FB480078012811D1FA48008870B9FAA2ED
:100EB0000E9800F10101C9B20E910FA941F820204E
:100EC0000D9800F10100C0B20D9014E0F0480078D8
:100ED000022810D1EF48008868B9F5A20E9800F1F9
:100EE0000101C9B20E910FA941F820200D9800F11F
:100EF0000100C0B20D90F4480078552810D1F34895
:100F0000008868B9F2A20E9800F10101C9B20E91F1
:100F10000FA941F820200D9800F10100C0B20D90FA
:100F2000E9484078552810D1E848408868B9EEA2D1
:100F30000E9800F10101C9B20E910FA941F82020CD
:100F40000D9800F10100C0B20D90ED48007800F15D
:100F50000100EB49087008460078142811DB4FF0B7
:100F600000000870E748007800F10100E5490870CA
:100F7000084601780D98814203DB4FF00000E149FB
:100F80000870E1480078292870D1DF4840780028AF
:100F90006ED1DEA3DDA2DDA1DCA010F06FFD002389
:100FA00002221946DF48007810F06CFC0023022270
:100FB0000121DD48008880B210F064FC0023022289
:100FC0001146DA48008880B210F05CFC002307224A
:100FD0001946D748008880B210F054FC002307223D
:100FE0000121D448008880B210F04CFC0023072275
:100FF0000221D148008880B210F044FC002307226F
:101000000321CE48008880B210F03CFC00230A2265
:101010001946CB48007810F035FC00230A22012144
:10102000C848007810F02EFC00230A220221C6488E
:10103000007810F027FC002313221946C34890F9CA
:10104000000080B210F01EFC002313220121C048D2
:10105000008880B210F016FC002313220221BD4844
:10106000008880B210F00EFC06F08ABBD0E3FFE7E8
:10107000A5484078012851D1B74B1A46B7A1BCA06A
:1010800010F0FCFC002304221946BF48008880B2FF
:1010900010F0F8FB00231A460121BC4890F900002B
:1010A00080B210F0EFFBBA48008880B201230E2214
:1010B00000210C9010F0E6FBB548408880B2012377
:1010C0000E2219460C9010F0DDFBB248008880B269
:1010D0000123132200210C9010F0D4FBAD4840886E
:1010E00080B20123132219460C9010F0CBFB61480B
:1010F00000780A2200210C9010F078FC5D484078BE
:101100000A2201210C9010F071FC0023012202211F
:10111000A148008880B210F0B5FBA5E77A48407876
:10112000022857D179A379A278A178A010F0A6FC63
:101130009A48008880B20023032219460C9010F0D0
:10114000A1FB9648408880B20023032201210C9025
:1011500010F098FB9148808880B20023032202217E
:101160000C9010F08FFB8D48C08880B200230322C2
:1011700011460C9010F086FB8848008980B200234D
:10118000092219460C9010F07DFB8448408980B2FA
:101190000023092201210C9010F074FB7F48808904
:1011A00080B20023092202210C9010F06BFB7B48D7
:1011B000C08980B20023092203210C9010F062FB49
:1011C0007648008A80B20023132201210C9010F08F
:1011D00059FB49E74C484078032806D14BA34BA262
:1011E0004AA14AA010F04AFC3EE74748407804284C
:1011F00014D146A345A245A144A010F03FFC002312
:10120000132219466648007810F03CFB0023132295
:1012100001216448007810F035FB25E73A48407812
:10122000012819D160A366A26BA171A010F026FC61
:10123000012228213F48008880B210F065FB00227F
:1012400021217148008880B210F05EFB002240210D
:101250006E48008880B2DBE01FE1000020C0E2E0C1
:10126000F0E8FF20E8F1F2EEF7EDE8EAE0204E3199
:1012700000000000E801001020C0E2E0F0E8FF20DC
:10128000E8F1F2EEF7EDE8EAE0204E32000000006F
:101290000802001060010010C2EDE5F82EF2E5EC46
:1012A000EF2E4E31E7E0E2FBF8E5EDE00000000054
:1012B000C2EDE5F82EF2E5ECEF2E4E31E7E0EDE879
:1012C000E6E5EDE0000000000500001084010010DC
:1012D00020D1F0E0E1EEF2E0EB20F8EBE5E9F420DC
:1012E0004E3120200000000020D1F0E0E1EEF2E0DD
:1012F000EB20F8EBE5E9F4204E322020000000005E
:101300006200001061000010A600001020202020C4
:1013100020202020202020202020202020202020CD
:10132000000000009E0000109C00001098000010BB
:10133000900200108C02001092020010BA010010FE
:10134000C2020010C3020010C4020010C801001045
:101350000E010010100100107569010020202020EE
:10136000202020202020202020202020202020009D
:10137000322020202020202020202020202020205B
:1013800020202020000000004C02001097020010D6
:10139000EE010010F2010010080100105C060010C0
:1013A000850000108400001053742020202020208D
:1013B000537431202020537432202020000000007C
:1013C00049E1202020203E2049312020202549329B
:1013D0002020205E0000000055E1202020203C203D
:1013E00055312020202355322020202400000000E9
:1013F000556E202020202820D83120202021D832CE
:101400002020204000000000880200108A02001006
:1014100010F07AFAFF48008880B2012223210C9054
:1014200010F072FAFB48408880B2012224210C900F
:1014300010F06AFAF848008880B2012225210C9049
:1014400010F062FAF448408880B201225E210C90CC
:1014500010F05AFA01223C21F048008880B210F0C6
:1014600053FA02223E21EE48B0F9000010F0F8F8DD
:10147000EC4800780D2203210C9010F0B7FAE948EF
:101480004078132203210C9010F0B0FA05220321BA
:10149000E548007810F0AAFAE6E5E448407802282A
:1014A000FAD0E2484078022859D1AFF20413AFF2E3
:1014B000F002AFF2DC01DEA010F0E0FA0022212100
:1014C000E148008880B210F01FFA00224021DF4876
:1014D000008880B210F018FACE48008880B201224D
:1014E00023210C9010F010FACA48408880B20122E3
:1014F00024210C9010F008FAC748008880B201221D
:1015000025210C9010F000FAC348408880B20122D7
:101510005E210C9010F0F8F901223C21BF480088B0
:1015200080B210F0F1F902223E21BD48B0F900006E
:1015300010F096F8BB4800780D2203210C9010F0B3
:1015400055FAB8484078132203210C9010F04EFA57
:1015500005220321B448007810F048FA84E5B34826
:101560004078032806D1BA4B1A461146084610F0B7
:1015700085FA79E5AD48407805283DD1AFF274236E
:10158000AFF27822AFF27C21AFF2802010F076FA31
:10159000B04800780023012219460C9010F072F92F
:1015A000AD4800780023012211460C9010F06AF932
:1015B000AA4800780023012202210C9010F062F961
:1015C000A748008880B20023052219460C9010F02D
:1015D00059F9A448008880B20023052201210C900B
:1015E00010F050F9A048008880B2002305220221A3
:1015F0000C9010F047F937E58C48407806287ED1EA
:101600009AA02D909FA02E90A4A02F90A9A03090DA
:10161000AEA03190B3A03290B8A03390834890F937
:101620000400C01C2DA951F820000C907F4890F9AF
:101630000400801C51F820000B907C4890F90400B5
:10164000401C51F820000A90784890F9040051F8A5
:10165000200009900AA90EC910F010FA02223F21B9
:101660006F48B0F900000FF0FBFFAA48406D00F092
:101670000100002224210C9010F046F969480078FE
:1016800023210C9010F08AF9A248406DC0F340006D
:10169000002240210C9010F037F962484078212157
:1016A0000C9010F07BF95B48008880B200224A2140
:1016B0000C9010F029F95748408880B200226A2126
:1016C0000C9010F021F994480078002259210C90D8
:1016D00010F01AF990484078002279210C9010F00F
:1016E00013F98E48006880B2002268210C9010F037
:1016F0000BF900226D218A48006880B200E05AE0B0
:1017000010F002F987480088002251210C9010F057
:10171000FBF885480088002271210C9010F0F4F845
:101720008048408800225A210C9010F0EDF87E4845
:10173000408800227A210C9010F0E6F87B4800786F
:10174000002241210C9010F0DFF879480078002247
:1017500061210C9010F0D8F87448407800224221A2
:101760000C9010F0D1F872484078002262210C9061
:1017700010F0CAF86948006880B2002243210C903A
:1017800010F0C2F86548406880B2002244210C90F5
:1017900010F0BAF86748006880B2002263210C900C
:1017A00010F0B2F86348406880B2002264210C90C7
:1017B00010F0AAF858E41D4840780728FAD1244BC5
:1017C0001A461146084610F059F95B4800784FF068
:1017D00000034FF0060219460C9010F053F8002356
:1017E000062201215548007810F04CF8682013F0CB
:1017F000A0F880B20023062202210C9010F042F8DB
:101800004D483838808F0023102219460C9097E0FD
:10181000A3E00000EE010010F2010010BA01001078
:10182000BC010010E8010010B4010010A600001077
:10183000706C202020202820D83120202021D83270
:101840002020204000000000880200108A020010C2
:101850007569010002020010050200100802001064
:1018600042010010FC0100104E0100102020202039
:101870003F20202020202020202420232040202121
:1018800000000000202020202020202020202020D8
:101890002020204A2020206A000000002020202054
:1018A00020202020202020202020205920202079A6
:1018B00000000000202020682020206D2020202013
:1018C00020512071205A207A00000000202020732F
:1018D000202020532020202020202043202020448E
:1018E000000000002020206620202046202020200C
:1018F00020202063202020640000000020202020E1
:101900002020202020202020204120612042206211
:101910000000000000C009208402001064020010D2
:10192000600200107802001074020010C60200105D
:10193000C80200106C0200103840024094010010F0
:101940000FF0A0FF6A2012F0F4FF80B200231022F3
:1019500002210C900FF096FF3BE4AD480078002880
:101960007DD1ACA02D90B148B0F90000C82807DDAA
:10197000AE48B0F90200C82802DDADA02D9016E0F7
:10198000AA48B0F90000C82802DDAFA02D900EE0F3
:10199000A648B0F90200C82802DDB1A02D9006E0EB
:1019A000B548B0F90000C82801DDB4A02D90B9A059
:1019B0002E90BEA02F90C3A03090C8A03190CDA093
:1019C0003290D2A03390D7A03490DCA03590E1A023
:1019D0003690E6A03790EBA03890F0A03990F5A0B3
:1019E0003A90FAA03B90FF483C908948407820B953
:1019F0004FF00000864908711CE0854890F904000A
:101A0000834991F90110401A022807DD8048407887
:101A100000F1020040B27E4908710BE07C4890F969
:101A200001007B4991F90410884203DD7848407831
:101A300077490871EC48007805281EDA744890F957
:101A40000400C01C2DA951F820000C90704890F99A
:101A50000400801C51F820000B906D4800E0E8E184
:101A600090F90400401C51F820000A902D9809902C
:101A70000AA90EC910F002F820E0654890F90400A8
:101A8000C01C2DA951F820000C90614890F9040069
:101A9000801C51F820000B905D4890F90400401C18
:101AA00051F820000A90D0480078401F0FA951F843
:101AB000200009900AA90EC90FF0E0FF54480079F0
:101AC00050B35348407838B3514890F90400504916
:101AD00091F90110884205D14FF00100C34981F806
:101AE0003C0019E04A4890F90400494991F9011075
:101AF000401A012803D1BD4981F828000CE0444870
:101B000090F90400424991F90110401A022803D1CA
:101B10004FF00100B549087501226C215648008834
:101B200080B20FF0F1FE02224021B148B0F900006E
:101B30000FF096FD01222321AE48008880B20FF0FD
:101B4000E3FE01222421AC48008880B20FF0DCFEC5
:101B5000AA4800784FF000024FF026010C900FF0D9
:101B6000D3FEA648203890F8240000225E210C9075
:101B70000FF0CAFEA24800784FF000024FF0250196
:101B80000C900FF0C1FE9D48203890F82C000022E8
:101B90003C210C900FF0B8FE9A4800789A4901EB6E
:101BA00080004FF000024FF03E010C900FF0BBFFA1
:101BB00092482038808F00227B210C900FF0A4FEE9
:101BC00092480078B0B13A200FF081FC87494FF07D
:101BD00020020A544FF03A000FF079FC83494FF08D
:101BE00020020A544FF03A000FF071FC7F494FF089
:101BF00020020A54864800684FF46161B0FBF1F09E
:101C000080B200227A210C900FF07EFE804801E124
:101C1000A60000102020CDE5EEEFF0E5E4E5EBE5D1
:101C2000EDEDEEF1F2FC202000000000EE010010CE
:101C300020C220F0E0E1EEF2E520C1CFD1312CC18D
:101C4000CFD132200000000020202020C220F0E070
:101C5000E1EEF2E520C1CFD13120202000000000CC
:101C600020202020C220F0E0E1EEF2E520C1CFD11B
:101C70003220202000000000BA0100102020D0E017
:101C8000E1EEF2E020EEF220E1E0F2E0F0E5E82023
:101C9000000000002055E13D2020206CC22049E1D9
:101CA0003D2020202040C020000000002055ED3DB8
:101CB00020202023C22049ED3D2020202024C020C8
:101CC000000000002030253A305E3A302620303CBB
:101CD0002F3E20202F307B200000000020C1E0F2AA
:101CE000E0F0E5FF202020202020202020202020C0
:101CF0000000000020C1CFD1312020202020202052
:101D000020202020202020200000000020C1CFD152
:101D100032202020202020202020202020202020B1
:101D20000000000020CDE0E3F0F3E7EAE02020200F
:101D300020202020202020200000000020D1E5F2DB
:101D4000FC202020202020202020202020202020B7
:101D50000000000020D1EFE5F6F4F3EDEAF6E8E844
:101D600020202020202020200000000020C6F3F0AA
:101D7000EDE0EB20F1EEE1FBF2E8E920202020206D
:101D80000000000020C1E0F2E0F0E5E9EDFBE92011
:101D9000E6F3F0EDE0EB20200000000020CFE0F1C2
:101DA000EFEEF0F2202020202020202020202020F4
:101DB0000000000020D3F1F2E0EDEEE2EAE820209E
:101DC00020202020202020200000000020D1E1F051
:101DD000EEF120E0E2E0F0E8E920202020202020C1
:101DE000000000008A69010061000010C0060010B8
:101DF000BC010010FA010010F80100102040024060
:101E00002840024038400240A969010081000010CA
:101E1000B002001000683C21B0FBF1F0B0FBF1F221
:101E200001FB120080B200225A210C900FF06CFDD1
:101E3000C0E4B248007804287ED1B148008830B9A7
:101E4000B0A3B6A2BBA1C1A00FF018FEB2E4C54872
:101E5000007810F0020F10D0C348007830B1C34BA7
:101E6000C3A2C9A1CEA00FF009FEA3E4BF4B1A463E
:101E7000114608460FF002FE9CE4CFA02D90D448F6
:101E8000007820B9D3A02E90D8A0309003E0DDA038
:101E90002E90E2A03090E7A02F90EC48007810B18F
:101EA000EBA0319001E0F0A03190F5A03290FAA0C3
:101EB0003390FF483490914890F90100C01C2DA93F
:101EC00051F820000C908D4890F90100801C51F8C9
:101ED00020000B90894890F90100401C51F8200027
:101EE0000A900146B4A0DDE90B230FF0C7FD0122E3
:101EF0004021F048008880B20FF006FD0222212127
:101F0000ED48B0F900000FF0ABFB00222421EB48B4
:101F1000008880B20FF0F8FC00227721E84890F9A1
:101F2000000080B20FF0F0FCE648B0F90000A0F528
:101F3000AA41553907D100E016E04A1E5121E2A01E
:101F40000FF0F1FD06E001225121DE48008880B249
:101F50000FF0DAFC69484078042886D14FF0010080
:101F6000DB4981F83C0025E464480078052877D1F6
:101F70006248807828B9D748406D00F001000C9085
:101F800004E0D448406DC0F340000C905B4880787A
:101F900001280CD1D0480088012808D1CFA00B908F
:101FA000D4A02D90D9A02E9070482F904AE00C9884
:101FB00010B1DCA00B9001E0E0A00B906948007824
:101FC00010F0010F02D0E3A02D902AE04B4890F9C9
:101FD0000200E649085C10F0100F02D0E4A02D903A
:101FE0001FE0464890F90200E049085C10F0080F35
:101FF00002D0E5A02D9014E0404890F90200DB49A2
:10200000085C10F0040F02D0E5A02D9009E03B48D9
:1020100090F90200D549085C10F03C0F01D1E6A010
:102020002D90EBA02E90F0A02F90344890F9020054
:10203000F349085C10B1F3A0309001E0F7A03090B4
:102040009B4831902D4890F901002C4991F90410DA
:10205000401A002805DD29484078284908710CE01D
:10206000FFE1264890F90100244991F904108842C3
:1020700003DA2248407821490871204890F9040089
:10208000801C2DA951F820000A901C4890F90400EA
:10209000401C51F820000990184890F9040051F8AC
:1020A000200008900146DDE909230B980FF0E6FCBB
:1020B000124890F90200401C80B2002221210A90AF
:1020C0000FF022FC0D4890F90200DA4931F81000B7
:1020D00080B2012240210A900FF016FC074890F9C7
:1020E0000200D54931F8100080B2012223210A9064
:1020F0000FF00AFC014890F902009FE1A6000010D1
:1021000006010010E220E1E0F2E0F0E5E9EDEEEC9E
:1021100020E6F3F0EDE0EBE50000000020202020B9
:1021200020E2E2E5E4E8F2E520E5B82020202020E6
:102130000000000020CFF0E82020EDE5EEE1F5EE14
:10214000E4E8ECEEF1F2E8200000000020C1C0D28B
:10215000C0D0C5DF20CDC520C2C2C5C4C5CDC020FA
:1021600000000000B401001081000010756901003A
:1021700020202020EDE520EFEEE4EAEBFEF7E5ED90
:10218000E02020202020000020202020202020C12E
:10219000E0F2E0F0E5FF20202020202020200000B9
:1021A00020202020202020C0C2C0D0C8DF21212034
:1021B0002020202020200000202020202020C1C01E
:1021C000D2C0D0C5DF202020202020200000000029
:1021D000C002001020202020E7E0F0FFE6E0E5F25A
:1021E000F1FF202020202020000000002020204996
:1021F000E7E0F03D202020202021C02020202020CA
:1022000000000000202020F0E0E7F0FFE6E0E5F22B
:10221000F1FF202020202020000000002020204965
:10222000F0E0E7F03D2020202021C02020202020C9
:102230000000000020202055E1E0F23D2020202079
:102240002040C2202020202000000000E4010010D7
:1022500020202020C4D22E20EDE5E8F1EFF0E0E2CE
:10226000E5ED20200000000020202074E1E0F220B5
:102270003D20202024B0432020202020000000000A
:10228000202020C7E0F0FFE43D20202020772520FB
:10229000202020200000000020202043E1E0F23D2B
:1022A000202020202051C02AF720202000000000FC
:1022B0008A690100BA010010BC010010B8010010C9
:1022C000C80100100E0100102D2D2D2D2D2D000008
:1022D000C006001000C009200801001020202020A6
:1022E00020202020C1CFD1322020202020202020DB
:1022F0000000000020202020CED2D1D3D2D1D2C2E3
:10230000D3C5D22020202020000000002020C220A1
:10231000D1D2D0D3CAD2D3D0C520C8C1DDCF2020DE
:102320000000000020202020C1CFD12120C2DBCA24
:10233000CBDED7C5CD2020200000000020202020AB
:10234000C1CFD12120C2CACBDED7C5CD20202020CD
:102350000000000020E0E2E0F0E8FF20F1E5F2E814
:10236000202020202020202000000000E801001074
:1023700020E0E2E0F0E8FF20EFE5F0E5E3F0E5E261
:10238000202020200000000020E0E2E0F0E8FF2014
:1023900055E2FBF53C55ECE8ED2020200000000064
:1023A00020E0E2E0F0E8FF2055E2FBF53E55ECE0EE
:1023B000EAF120200000000020F1EEF1F2EEFFED46
:1023C000E8E5202D20EDEEF0ECE0202000000000FC
:1023D0002055E8F1F2203D2020202040C22020207E
:1023E00020202020000000002049E8F1F2203D20BC
:1023F00020202023C02020202020202000000000BA
:10240000F601001020C4D220EDE5E8F1EFF0E0E2A3
:10241000E5ED202020202020000000002074E8F1BD
:10242000F2203D20202024B0432020202020202006
:1024300000000000EE010010F2010010DB4931F84D
:10244000100080B2002224210A900FF05DFAD848D3
:102450004078022804D14FF00100D64981F83C00B1
:10246000E6E4D348007811281AD1D3A3D8A2DEA17C
:10247000E3A00FF003FB4FF00100CE4981F83C00D0
:1024800002464FF02101E448008880B20FF03CFA88
:1024900001224021E148008880B20FF035FAC7E4FC
:1024A000C348007802282CD1DD48007810F0010FD5
:1024B00008D0DC48007810B1DBA02D9004E0DF48A4
:1024C0002D9001E0DEA02D902D98BBA3E2A2E8A103
:1024D0000C900FF0D3FA4FF00100B64981F83C00A0
:1024E0004FF000024FF02301E748008880B20FF060
:1024F0000BFA01224021E548008880B20FF004FA6F
:1025000096E4AB4800780C2843D1E1A02D90E6A0DA
:102510002E90EBA02F90F0483090A54890F9010044
:10252000A34991F90410401A022807DDA048407819
:10253000A0F1020040B29E4908710BE09C4890F95E
:1025400001009B4991F90410884203DA98484078C9
:1025500097490871964890F90400801C2DA951F8FC
:1025600020000C90924890F90400401C51F8200083
:102570000B908F4890F9040051F820000A90014612
:10258000D6A0DDE90B230FF079FA012010F0E7FE69
:102590004EE487480078142814D1D64800782128C2
:1025A00002D1D5A02D9001E0D9A02D902D98A34B5C
:1025B000C94A01460C90DCA00FF060FA012010F02F
:1025C000CEFE35E47A480078102830D1DC482D90D2
:1025D000DCA02E907648407820B9E0A02D90E5A0B0
:1025E0002E9019E072484078012804D1E7A02D9080
:1025F000ECA02E9010E06E484078022804D1EFA0A5
:102600002D90F4A02E9007E069484078032803D16C
:10261000EAA02D90F5A02E902E980C902D980B905E
:102620000246C8A1C6480C9B0FF028FA0EE4604889
:10263000007815281BD1AF480078052802D1AEA03C
:102640002D9001E0B2A02D902D98A34B0246EDA154
:102650000C90F2A00FF012FA012010F080FE002280
:102660002121F448008880B20FF04EF904E450486C
:10267000007841287ED1E9A3E8A2E8A1E7A00FF005
:10268000FDF94FF00400EC490870EC48007801288F
:1026900002D1EBA02D9021E0E8480078022802D179
:1026A000EDA02D901AE0E5480078032802D1F0A0B3
:1026B0002D9013E0E1480078062802D1F2A02D9079
:1026C0000CE0DE4800780C2802D1F5A02D9005E042
:1026D000F9A02D904FF00100D7490870D648007836
:1026E000042809D1FAA02E90FFA02F90AFF62C203D
:1026F00030907948319001E077482E902C4890F93D
:102700000400401C2DA951F820000C90284890F995
:10271000040051F820000B900246F9A1FEA00C9B8A
:102720000FF0ACF9224890F90100214991F9041009
:10273000884204DA1E4840781D4908710FE01C48A1
:1027400090F901001A4991F90410401A012806DD98
:1027500017484078A0F1010040B2154908711448AB
:102760004078022801D112490871022010F0F7FDCB
:10277000002200E0FCE12521ED4800880FF0C4F8BC
:1027800000225E21EB4800880FF0BEF800222621CF
:10279000E94800880FF0B8F800223C21E74800889B
:1027A0000FF0B2F8E648E7490988CDE1EA010010E8
:1027B000A6000010C006001020C2FBF5EEE42020A9
:1027C0002020202020202020202020200000000089
:1027D0002049EDE0E3F03D20202020202020404152
:1027E00020202020000000002055EDE0E3F03D20F7
:1027F00020202020202021C22020202000000000B6
:10280000202020202020CDC0C3D0D3C7CAC0202084
:102810002020202000000000FA010010F801001024
:10282000B401001081000010202020C0C2C0D0C818
:10283000DF20D1C5D2C821212120200075690100E7
:1028400020202020202020D1C5D2DC2020202020C4
:1028500020202020000000002046F1E5F2E83D2085
:1028600020202020202040C3F6202020000000004F
:102870002055F1E5F2E83D2020202020202023C231
:102880002020202000000000A00000109A0000106E
:1028900020CAEEEDF2F0EEEBFC20E5ECEAEEF1F210
:1028A000E82020200000000020C2FBF0E0E2EDE87C
:1028B000E2E0FEF9E8E920E7E0F0FFE400000000D4
:1028C00020C0E2F22EE2FBF0E0E2EDE8E22E20E7AB
:1028D000E0F0FFE4000000008A69010020202020D1
:1028E000D1CFC5D6D4D3CDCAD6C8C8202020202069
:1028F000000000005802001020C2EAEBFEF7E5EDF0
:102900002020202020202020202020200000000047
:1029100020C2FBEAEBFEF7E5ED202020202020205E
:1029200020202020000000002020CACECDD2D0CE12
:10293000CBDC20C5CCCACED1D2C8202000000000FC
:10294000080E0000202020EDE5E2EEE7ECEEE6E5E3
:10295000ED21212120202020000000002020202027
:10296000CEF2F1F3F2F1F2E2F3E5F22020202020A2
:1029700000000000202020202020E1E0F2E0F0E52F
:10298000FF202020202020200000000020202020E8
:10299000202020C0E2E0F0E8FF202020202020209E
:1029A000000000002020202020202020F1E5F2E877
:1029B0002020202020202020000000002020202097
:1029C0002020C1E0F2E0F0E5FF20202020202020A0
:1029D0000000000020202020F0E0E7F0FFE6E0E526
:1029E000F2F1FF20202020200000000020202020E5
:1029F00020E7E0F0FFE6E0E5F2F1FF2020202020D4
:102A00000000000020E4EBE8F2E5EBFCEDEEF1F273
:102A1000FC202D202021F72E0000000020C2DBD05A
:102A2000C0C2CDC8C2C0DED9C8C920C7C0D0DFC4AB
:102A30000000000002010010BC0000109401001012
:102A400020F0E0E720E220ECE5F1FFF62020202056
:102A5000202020200000000020F0E0E720E22032CB
:102A600020ECE5F1FFF6E02020202020000000000F
:102A700020F0E0E720E2203320ECE5F1FFF6E02053
:102A8000202020200000000020F0E0E720E220EFDE
:102A9000EEEBE3EEE4E02020202020200000000008
:102AA00020F0E0E720E220E3EEE4202020202020B8
:102AB000202020200000000020E2FBEAEBFEF7E5EA
:102AC000ED202020202020202020202000000000B9
:102AD00020E4EBE8F2E5EBFCEDEEF1F2FC20202047
:102AE00028F72E200000000020EEF7E5F0E5E4EDE9
:102AF000EEE520E2EAEBFEF7E5EDE8E50000000098
:102B0000C2DBD0C0C2CDC8C2C0DED9C8C920C7C0D0
:102B1000D0DFC42000000000202020C0C2D2CECCD4
:102B2000C0D2C8D7C5D1CAC8C92020200000000023
:102B300096010010980100109A0100109C010010ED
:102B4000A96901009E01001000EB810000223E21D6
:102B50000C900EF0E8FF00227B21FF4800880EF069
:102B6000D3FE00222821FD4800880EF0CDFE77E438
:102B7000FB480078442873D140F6026011F0D9FE7A
:102B800000B2F84908800846B0F90000402802DD8C
:102B90004FF000000880F348008850B9F24BF34A28
:102BA000F3A1F9A00EF06AFF4FF00000EC490871A4
:102BB0008DE0EC48008801280AD1F9A3EB4AFEA178
:102BC000F1A00EF05BFF4FF00000E54908717EE0D8
:102BD000E4480088022831D1E14890F90100E04939
:102BE00091F90410884204DADD484078DC49087124
:102BF0000FE0DB4890F90100D94991F90410401A1F
:102C0000022806DDD6484078A0F1020040B2D4493F
:102C10000871D348007930B9D44BEDA2E6A1DAA00F
:102C20000EF02CFF53E0CE48007901284FD1DCA3F1
:102C3000CE4AE1A1D4A00EF021FF48E0C948B0F986
:102C40000000022843DDC64890F90100C44991F90B
:102C50000410884205DAC2484078C149087110E082
:102C60004FE0BF4890F90100BD4991F90410401AA6
:102C7000022806DDBA484078A0F1020040B2B84907
:102C80000871B74890F90410B648B0F90000401E2A
:102C9000814206D1C2A3B54AC7A1BBA00EF0EEFE89
:102CA00015E0AF4890F90410AE48B0F90000801E5E
:102CB000814206D1AD4BC6A2BFA1B3A00EF0DEFE8D
:102CC00005E0C9A3C2A2BCA1AFA00EF0D7FE0120AF
:102CD00010F045FBA248007928210C900FF05CF819
:102CE0009F480079401CC0B25B210C900FF054F853
:102CF0009B480079801CC0B27B210C900FF04CF8EF
:102D000046E49748007845287DD1974B1A461146EE
:102D100008460EF0B3FE4FF4606011F00AFE80B278
:102D20000C908F4890F90200C0F1000002464FF06D
:102D3000400104900C9800B20EF082FE80B20C901C
:102D40000C984FEA40504FEA10400C900C9800F558
:102D5000806080B20C900BA90C9811F098FE05A928
:102D60000C98001D11F093FE09A90C98083011F081
:102D70008EFE0AA90C980C3011F089FE07A90C9858
:102D8000103011F084FE08A90C98143011F07FFE69
:102D900006A90C98183011F07AFE9DF82C005528E1
:102DA00049D19DF82E00522845D195A39AA2A0A101
:102DB000A5A00EF063FE9DF828000022402104909B
:102DC0000EF0A2FD9DF829000022232104900EF0B0
:102DD0009BFD9DF82A000022242104900EF094FD12
:102DE0009DF826000022252104900EF08DFD9DF80F
:102DF000240000225E2104900EF086FD9DF825003F
:102E0000012805DB00E0ABE39DF825000C2803DD7D
:102E10004FF001008DF825009DF82500904901EB49
:102E200080000022282104900EF07DFE4FF000006B
:102E30004C4908804DE39DF82C0050287ED19DF828
:102E40002E0041287AD187482D906DA02E909DF8B4
:102E50001C0041281BD19DF81D00412817D182A0DC
:102E60002F9087A03090309804902F9803902E9840
:102E700002902D98019002A90EC90EF0FFFD0022CC
:102E80002B218548008880B20EF03EFD39E10122F9
:102E900000213348001DFDF738F980A02F9085A050
:102EA00030908AA031902E4890F90400C01C2DA9C2
:102EB00051F8200004902A4890F90400801C51F831
:102EC00020000390264890F90400401C51F820008F
:102ED0000290234890F9040051F82000019002A9C3
:102EE0000EC90EF0CBFD9DF8200000223E2104907B
:102EF0000EF00AFD9DF8210000223D2104900EF005
:102F000003FD9DF822000022292104900EF0FCFC14
:102F10009DF81E0000225B2104900EF0F5FC9DF848
:102F20001C0000223C2104900EF0EEFC9DF81D00D8
:102F3000012805DB9DF81D000C2800E01FE103DDE2
:102F40004FF001008DF81D009DF81D00444901EB74
:102F5000800000225D21C5E0A0010010A201001048
:102F6000A6000010B8000010756901008A69010010
:102F700020C6F3F0EDE0EB20EFF3F1F2202020206B
:102F80002020202000000000202020C6D3D0CDC06B
:102F9000CB20D1CEC1DBD2C8C92020200000000048
:102FA00020CEF7E8F1F2E8F2FC20E6F3F0EDE0EBFA
:102FB0002020202000000000202820202020202089
:102FC0002020202020202020202020200000000081
:102FD000205B2020202020202020202020202020B6
:102FE0002020202000000000207B20202020202006
:102FF0002020202020202020202020200000000051
:1030000020203025282020305E2030403A30233ADE
:10301000302420200000000020202020202020201C
:10302000C8C1DDCF2020202020202020000000006B
:10303000202020E8EBE820E2EAEBFEF7E5EDE8E50A
:10304000202020200000000020202020CFE5F0E5F7
:10305000E7E0E3F0F3E7EAE02020202000000000B2
:10306000A9690100240E000020202020EDE520F3B6
:10307000F1F2F0E0EDE5EDE020202020000000007E
:10308000202020202055F1E5F2E83D20202BC22011
:103090002020202000000000A00000102020202080
:1030A0002020F3F1F2F0E0EDE5EDE02020202020FB
:1030B000000000002020305B5D2020303C20303EAE
:1030C0003A303D3A30292020000000002020202006
:1030D0002055ECE8ED3D20202BC220202020202090
:1030E0000000000004900EF01EFD9DF818109DF8E1
:1030F000190001EB002080B200222B2104900EF079
:1031000003FC9DF828000022402104900EF0FCFBF7
:103110009DF829000022232104900EF0F5FB9DF874
:103120002A000022242104900EF0EEFB9DF82600D8
:103130000022252104900EF0E7FB9DF824000022D8
:103140005E2104900EF0E0FB9DF82500012803DBD2
:103150009DF825000C2803DD4FF001008DF82500B7
:103160009DF82500FF4901EB8000002228210490F2
:103170000EF0D9FC4FF00101FB4801805AE69DF8A2
:103180002C0042287ED19DF82E0043287AD1AFF63C
:1031900004002D90F5A02E90AFF29C102F909DF87A
:1031A0001C00412813D19DF81D0041280FD1AFF21A
:1031B00048103090309804902F9803902E980290E9
:1031C0002D98019002A90EC90EF058FC69E0012269
:1031D0000021EC48FCF799FFAFF240103090AFF2BD
:1031E0002C103190E748001F90F90400C01C2DA955
:1031F00051F820000490E348001F90F90400801C5F
:1032000051F820000390DF48001F90F90400401C93
:1032100051F820000290DB48001F90F9040051F89B
:103220002000019002A90EC90EF028FC9DF8200094
:1032300000223E2104900EF067FB9DF82100002241
:103240003D2104900EF060FB9DF822000022292110
:1032500004900EF059FB9DF81E0000225B210490A3
:103260000EF052FB9DF81C0000223C2104900EF051
:103270004BFB9DF81D00012803DB9DF81D000C2869
:1032800005DD00E053E04FF001008DF81D009DF8D2
:103290001D00B44901EB800000225D2104900EF076
:1032A00042FC9DF82D00401C00222B2104900EF0C2
:1032B0002BFB9DF828000022402104900EF024FBF7
:1032C0009DF829000022232104900EF01DFB9DF89B
:1032D0002A000022242104900EF016FB9DF82600FF
:1032E0000022252104900EF00FFB9DF824000022FF
:1032F0005E2104900EF008FB9DF82500012803DBF9
:103300009DF825000C2803DD4FF001008DF8250005
:103310009DF82500934901EB8000002228210490AC
:103320000EF001FC4FF001008F49088082E59DF806
:103330002C0042287DD19DF82E005A2879D192A0E8
:103340002D9097A02E909CA02F909DF81C004128B6
:1033500012D19DF81D0041280ED19DA030903098CB
:1033600004902F9803902E9802902D98019002A916
:103370000EC90EF083FB67E0012200218148FCF7B3
:10338000C4FE99A030909EA031907E48001F90F915
:103390000400C01C2DA951F8200004907948001F9A
:1033A00090F90400801C51F8200003907548001F1C
:1033B00090F90400401C51F8200002907148001F51
:1033C00090F9040051F82000019002A90EC90EF0F6
:1033D00055FB9DF8200000223E2104900EF094FA47
:1033E0009DF8210000223D2104900EF08DFA9DF8F9
:1033F00022000022292104900EF086FA9DF81E007A
:1034000000225B2104900EF07FFA9DF81C00002240
:103410003C2104900EF078FA9DF81D00012803DB92
:103420009DF81D000C2803DD4FF001008DF81D00F4
:1034300000E04FE09DF81D004A4901EB80000022AA
:103440005D2104900EF06FFB9DF82D00401C0022C2
:103450002B2104900EF058FA9DF8280000224021FC
:1034600004900EF051FA9DF82900002223210490C7
:103470000EF04AFA9DF82A000022242104900EF052
:1034800043FA9DF826000022252104900EF03CFA14
:103490009DF8240000225E2104900EF035FA9DF87C
:1034A0002500012803DB9DF825000C2803DD4FF0E3
:1034B00001008DF825009DF825002A4901EB8000C8
:1034C0000022282104900EF02EFB4FF00100264927
:1034D0000880BFE39DF82C00422840D19DF82E00C3
:1034E00057283CD14CA02D9051A02E9056A02F9043
:1034F00031A030905AA031905FA0329064A03390F8
:1035000069A034906EA035901E48001F90F9040009
:10351000C01C2DA951F8200004901A48001F90F9F2
:103520000400801C51F8200003901648001F90F9F9
:103530000400401C51F8200002901248001F90F92E
:10354000040051F82000019002A90EC90EF096FA6D
:103550009DF82D00401C002221210490BCE050E188
:103560007AE30000A9690100B800001020202020A3
:103570002020E1E0F2E0F0E5E820202020202020DB
:1035800000000000AA000010202020C2FBF0E0E2B2
:10359000EDE8E2E0FEF9E8E920202020000000004C
:1035A00020202020202020E7E0F0FFE42020202021
:1035B00020202020000000002030252F2820202F50
:1035C000305E2030403A30233A30242000000000A2
:1035D00020202020EDE520E7E0E2E5F0F8E5ED2011
:1035E0002020202000000000202020202020E7E0D4
:1035F000E2E5F0F8E5ED202020202020000000008A
:1036000020305B2F5D20202F303C20303E3A303D73
:103610003A3029200000000020202020202020D047
:10362000E0E7F0FFE4202020202020200000000020
:1036300020202020202020E1E0F2E0F0E5E820201A
:10364000202020200000000020CDE0F7E0EBEE205D
:1036500020202020202020202020202000000000EA
:103660002020202020202020202055E1E0F23D20B5
:10367000203CC2200000000020CAEEEDE5F620202C
:1036800020202020202020202020202000000000BA
:103690002030712F7720202F30722030693A306C23
:1036A0003A3073200000000020202020202020201D
:1036B000202055E1E0F23D20203EC2200000000025
:1036C00020202020CEF2E4E0EDEE202020207AE041
:1036D0002AF72E20000000000EF016F99DF82800B1
:1036E0000022402104900EF00FF99DF829000022DD
:1036F000232104900EF008F99DF82A0000222421CD
:1037000004900EF001F99DF8260000222521049076
:103710000EF0FAF89DF8240000225E2104900EF0CD
:10372000F3F89DF82500012803DB9DF825000C28FF
:1037300003DD4FF001008DF825009DF82500FF49BD
:1037400001EB80000022282104900EF0ECF99DF896
:1037500020000022692104900EF0D6F89DF8210087
:1037600000226C2104900EF0CFF89DF82200002278
:10377000732104900EF0C8F89DF81E0000227121FC
:1037800004900EF0C1F89DF81C00002272210490F4
:103790000EF0BAF89DF81D00012803DB9DF81D000E
:1037A0000C2803DD4FF001008DF81D009DF81D1061
:1037B000E24800EB81000022772104900EF0B3F97B
:1037C000BDF8140080B201227A2104900EF09CF81A
:1037D0009DF827109DF82B0001EB002080B20122FC
:1037E0003C2104900EF090F8BDF8160080B2012242
:1037F0003E2104900EF088F84FF00500D049088073
:1038000028E29DF82C0042287ED19DF82E004B28FE
:103810007AD1CC482D90AFF2E8102E90AFF2D810AC
:103820002F90AFF26C203090C7A03190AFF2B8105B
:103830003290AFF2A4103390C9A03490CEA035904E
:10384000D34890F90400C01C2DA951F82000049021
:10385000CF4890F90400801C51F820000390CC4818
:1038600090F90400401C51F820000290C84890F9DB
:10387000040051F82000019002A90EC90EF0FEF8D4
:103880009DF82D00401C0022212104900EF03CF8F0
:103890009DF828000022402104900EF035F89DF894
:1038A00029000022232104900EF02EF89DF82A0012
:1038B0000022242104900EF027F89DF82600002213
:1038C000252104900EF020F89DF8240000225E21AE
:1038D00004900EF019F89DF82500012803DB9DF8EF
:1038E00025000C2803DD4FF001008DF825009DF820
:1038F0002500924901EB80000022282104900EF05F
:1039000012F99DF8200000E057E0002269210490A0
:103910000DF0FAFF9DF8210000226C2104900DF0BB
:10392000F3FF9DF822000022732104900DF0ECFFBC
:103930009DF81E000022712104900DF0E5FF9DF816
:103940001C000022722104900DF0DEFF9DF81D0086
:10395000012803DB9DF81D000C2803DD4FF001005A
:103960008DF81D009DF81D00744901EB80000022B8
:10397000772104900EF0D7F8BDF8140080B2012230
:103980007A2104900DF0C0FF9DF827109DF82B00C0
:1039900001EB002080B201223C2104900DF0B4FF25
:1039A000BDF8160080B201223E2104900DF0ACFF5C
:1039B0004FF00500624908804CE19DF82C00532827
:1039C0007ED174A02D909DF82E004C2802D177A0B6
:1039D0002E9013E09DF82E00542802D179A02E904D
:1039E0000CE09DF82E00552802D17CA02E9005E019
:1039F0009DF82E00752801D17EA02E90AFF60020F4
:103A00002F909DF81C00412813D19DF81D004128DE
:103A10000FD1AFF6AC103090309804902F980390EF
:103A20002E9802902D98019002A90EC90EF026F84A
:103A300066E0012200215648001DFCF766FBAFF648
:103A4000A4103090AFF694103190514890F90400D2
:103A5000C01C2DA951F8200004904D4890F9040095
:103A6000801C51F820000390494890F90400401C44
:103A700051F820000290464890F9040051F82000C7
:103A8000019002A90EC90DF0F9FF9DF82000002257
:103A90003E2104900DF038FF9DF8210000223D21C9
:103AA00004900DF031FF9DF822000022292104909E
:103AB0000DF02AFF9DF81E0000225B21049000E01B
:103AC000C8E00DF021FF9DF81C0000223C2104906D
:103AD0000DF01AFF9DF81D00012803DB9DF81D0065
:103AE0000C2803DD4FF001008DF81D009DF81D002E
:103AF000124901EB800000225D2104900EF013F8C2
:103B00009DF82D00401C00222B2104900DF0FCFE9E
:103B10009DF828000022402104900DF0F5FE9DF84C
:103B200029000022232104900DF0EEFE9DF82A00CA
:103B30000022242104900DF0E7FE67E0A96901004E
:103B4000B8000010080E0000202020202020202097
:103B50002055E1E0F23D20203CC220200000000082
:103B600020202020202020202055E1E0F23D2020B0
:103B70003EC220200000000020A8ECEAEEF1F2FC9A
:103B800020202020207AE02AF72E202000000000AC
:103B9000A6000010202020C0E2E0F0E8FF20C1CF06
:103BA000D1204E2B202020200000000020202020AB
:103BB00020EEF2EAEBFEF7E8EBF1FF2020202020D8
:103BC00000000000202020202020EFE5F0E5E3F0B9
:103BD000E5E220202020202000000000202020E717
:103BE000E0E2FBF8E5EDEE2055E2FBF52E2020208B
:103BF00000000000202020E7E0EDE8E6E5EDEE2003
:103C000055E2FBF52E202020000000009DF8260044
:103C10000022252104900DF077FE9DF8240000225B
:103C20005E2104900DF070FE9DF82500012803DB55
:103C30009DF825000C2803DD4FF001008DF82500CC
:103C40009DF82500C44901EB800000222821049042
:103C50000DF069FF03F094BDC0480078342877D197
:103C6000BF48B0F90000A0F5B851883902D1BDA015
:103C70002D90ACE0BA48B0F90000A0F5B8517C39FD
:103C800002D1BEA02D90A2E0B548B0F90000A0F589
:103C90009051D83902D1BFA02D9098E0B048B0F92A
:103CA0000000A0F59051CC3902D1C0A02D908EE03B
:103CB000AB48B0F90000A0F5B8517A3902D1C1A0E3
:103CC0002D9084E0A648B0F90000A0F5B8517539F0
:103CD00002D1C2A02D907AE0A148B0F90000A0F571
:103CE0009051CA3902D1C3A02D9070E09C48B0F920
:103CF0000000A0F59051C53902D1C4A02D9066E016
:103D00009748B0F90000A0F51061783902D1C5A03C
:103D10002D905CE09248B0F90000A0F510616C397C
:103D200002D1C6A02D9052E08D48B0F90000A0F558
:103D30009051E83902D1C7A02D9048E08848B0F9E9
:103D40000000A0F5B851983903D1C8A02D903EE0ED
:103D5000A1E28348B0F90000A0F59051D43902D116
:103D6000C8A02D9033E07E48B0F90000A0F5B8510E
:103D7000843902D1C9A02D9029E07948B0F900001A
:103D8000A0F51061923902D1CAA02D901FE07448AD
:103D9000B0F90000A0F51061793902D1CBA02D90C7
:103DA00015E06F48B0F90000A0F51061783902D134
:103DB0009CA02D900BE06A48B0F90000A0F51061BE
:103DC0006C3902D19DA02D9001E0C6A02D90CBA012
:103DD0002E90D0A02F90D5A03090DAA03190DFA007
:103DE0003290E4A03390E9A03490EEA03590F3A097
:103DF0003690F8A03790FD483890584890F9040064
:103E0000C01C2DA951F820000C90544890F90400D2
:103E1000801C51F820000B90504890F90400401C81
:103E200051F820000A904D4890F9040051F8200004
:103E300009900AA90EC90DF021FE4848007908280A
:103E400004D14FF00100EA4981F83C00E948B0F99B
:103E50000000202807DA00222121E648008880B2ED
:103E60000DF052FD05E04FF0FF322121E2A00DF0F0
:103E70005AFEE248B0F900000D2807DA002240217E
:103E8000DE48008880B20DF03FFD05E04FF0FF32C4
:103E90004021D9A00DF047FED948B0F900006428B0
:103EA00007DA00222321D648008880B20DF02CFDCD
:103EB00005E04FF0FF322321CFA00DF034FED148B2
:103EC0000068D149884206DB6FF004023F21CFA091
:103ED0000DF029FE05E000223F21CA4800680DF0E0
:103EE00049FC00222B2109200DF00EFD0022282183
:103EF00005200DF009FDC7480068C349884206DB6C
:103F00006FF004022921C1A00DF00DFE05E0002292
:103F10002921C04800680DF02DFCBE480068BA4950
:103F2000884206DB6FF004022921B8A00DF0FBFDEA
:103F300005E000222921B74800680DF01BFCB648B7
:103F40000068B149884206DB6FF004023C21AFA053
:103F50000DF0E9FD68E161E1A9690100A60000102A
:103F600014010010202020C8C1DDCF3232302F369E
:103F7000302D32344120202000000000202020C8B5
:103F8000C1DDCF3232302F36302D3132412020206A
:103F900000000000202020C8C1DDCF3232302F3495
:103FA000382D32344120202000000000202020C87D
:103FB000C1DDCF3232302F34382D31324120202034
:103FC00000000000202020C8C1DDCF3232302F3663
:103FD000302D31304120202000000000202020C85A
:103FE000C1DDCF3232302F36302D35412020202018
:103FF00000000000202020C8C1DDCF3232302F3435
:10400000382D31304120202000000000202020C821
:10401000C1DDCF3232302F34382D354120202020E1
:1040200000000000202020C8C1DDCF3232302F3206
:10403000342D32344120202000000000202020C8F0
:10404000C1DDCF3232302F32342D313241202020A9
:1040500000000000202020C8C1DDCF3232302F34D4
:10406000382D34304120202000000000202020C8BE
:10407000C1DDCF3232302F36302D34304120202078
:1040800000000000202020C8C1DDCF3232302F34A4
:10409000382D32304120202000000000202020C890
:1040A000C1DDCF3232302F36302D3230412020204A
:1040B00000000000202020C8C1DDCF3232302F3276
:1040C000342D35304120202000000000202020C861
:1040D000C1DDCF3232302F32342D32354120202015
:1040E00000000000202020D2E8EF20EDE5E8E7E224
:1040F000E5F1F2E5ED20202000000000C4E0F2E050
:1041000020E8E7E3EEF22E2030212F30402F30233D
:1041100000000000F8E0F1F1E82020202020532FDB
:104120004E30303030303F2000000000D3CAD33250
:1041300030322E2B2820532F4E3030303030292073
:1041400000000000CFCE202020202020202076203C
:104150002020205B2020202000000000C1CFD13192
:10416000202D20202020532F4E30303030303C2066
:1041700000000000C1CFD132202D20202020532F5D
:104180004E30303030303E20000000005253323389
:1041900032202020202020762020202420202020B3
:1041A0000000000043414E20504448202D2020763E
:1041B00020202025202020200000000043414E2008
:1041C000534448202D2020762020205E20202020CF
:1041D0000000000045746865726E65742D202076BD
:1041E000202020262020202000000000B8270000EA
:1041F000C00600101C0100102A2A00001E01001039
:10420000200100101801001040420F002A2A2A2A1B
:104210002A2A0000280100102C01001000223C2155
:10422000FB4800680DF0A6FAFA480068FA4988428F
:1042300007DB6FF004023E21AFF230000DF073FC9B
:1042400005E000223E21F34800680DF093FA6FF07C
:1042500003025B21F1A00DF066FC6FF00302242144
:10426000EEA00DF060FC6FF003022521EBA00DF035
:104270005AFC6FF003025E21E8A00DF054FC6FF0D1
:1042800003022621E5A00DF04EFC00221146104647
:104290000DF064FCDEE4E4480078362878D1E34889
:1042A000B0F90000A0F5B851883903D1AFF24C3015
:1042B0002D90A6E0DD48B0F90000A0F5B8517C399A
:1042C00003D1AFF248302D909BE0D848B0F9000000
:1042D000A0F59051D83903D1AFF248302D9090E03D
:1042E000D248B0F90000A0F59051CC3903D1AFF21B
:1042F00044302D9085E0CD48B0F90000A0F5B851CC
:104300007A3903D1AFF244302D907AE0C748B0F942
:104310000000A0F5B851753903D1AFF240302D90AF
:104320006FE0C248B0F90000A0F59051CA3903D13E
:10433000AFF240302D9064E0BC48B0F90000A0F529
:104340009051C53903D1AFF23C302D9059E0B748B8
:10435000B0F90000A0F51061783903D1AFF23C301C
:104360002D904EE0B148B0F90000A0F510616C3915
:1043700003D1AFF238302D9043E0AC48B0F90000E3
:10438000A0F59051E83904D1AFF238302D9038E0E3
:10439000FAE1A648B0F90000A0F5B8518E3902D173
:1043A000A3A02D902DE0A148B0F90000A0F59051F8
:1043B000D43903D1AFF234302D9022E09B48B0F9CC
:1043C0000000A0F5B8517F3902D19FA02D9018E0D0
:1043D0009648B0F90000A0F51061923903D1AFF210
:1043E0002C302D900DE09148B0F90000A0F510613F
:1043F000793903D1AFF22C302D9002E0AFF21C30AE
:104400002D90AFF208302E90AFF2F8202F9094A0AC
:104410003090AFF2B8203190AFF2A8203290964899
:104420003390814890F90400C01C2DA951F8200058
:104430000C907D4890F90400801C51F820000B90EE
:10444000794890F90400401C51F820000A90764801
:1044500090F9040051F8200009900AA90EC90DF046
:104460000DFB8648B0F90000202807DA0022212140
:104470008248008880B20DF047FA06E04FF0FF3224
:104480002121AFF28C200DF04EFB7D48B0F90000E9
:104490000D2807DA002240217948008880B20DF00B
:1044A00033FA06E04FF0FF324021AFF2B4200DF0B6
:1044B0003AFB7448B0F90000642807DA002223218F
:1044C0007048008880B20DF01FFA06E04FF0FF320E
:1044D0002321AFF2DC200DF026FB6B4800684E492B
:1044E000884207DB6FF004023F21AFF2E0200DF0BD
:1044F0001AFB05E000223F21634800680DF03AF9FD
:1045000000222B214FF461700DF0FEF900222821CA
:1045100005200DF0F9F95D4800683F49884207DB46
:104520006FF004022921AFF21C300DF0FCFA05E017
:1045300000222921554800680DF01CF93448006814
:104540003549884207DB6FF004023C21AFF244306A
:104550000DF0E9FA05E000223C212D4800680DF03D
:1045600009F92C4800682C49884207DB6FF00402E7
:104570003E21AFF268300DF0D6FA05E000223E2170
:10458000244800680DF0F6F827480079032808D180
:1045900025484078092804D14FF001003C4981F8B2
:1045A0003C002148407840B91F48007928B91422BE
:1045B000002108460DF0D2FA6CE61B48407801282D
:1045C00010D1194890F9040002280BDA164890F926
:1045D0000400C0F10100C0B202220C210C900DF0C9
:1045E000BDFA57E610484078022853D10E4890F99A
:1045F000040002284EDA0C4890F90400C0F10100D2
:10460000C0B202220F210C900DF0A8FA42E6000081
:104610002C0100103001001040420F002D2D2D2DD7
:104620002D2D2D2D2D000000A600001014010010CE
:10463000202020C8C1DDCF3232302F36302D33302C
:104640004120202000000000202020C8C1DDCF3202
:1046500032302F36302D313541202020000000002F
:10466000D3CAD330302B2E302820532F4E30303049
:104670003030292000000000B82700001C01001085
:104680001E01001020010010180100102801001068
:10469000C0060010BB484078032810D1B94890F9F3
:1046A000040002280BDAB74890F90400C0F10100B9
:1046B000C0B2022212210C900DF050FAEAE5B14886
:1046C0004078042810D1AF4890F9040003280BDA91
:1046D000AC4890F90400C0F10200C0B20A221146B1
:1046E0000C900DF03BFAD5E5A6484078052810D18E
:1046F000A44890F9040004280BDAA24890F90400B9
:10470000C0F10300C0B2062203210C900DF026FA7E
:10471000C0E59C484078062810D19A4890F90400DA
:1047200004280BDA974890F90400C0F10300C0B2E6
:104730000A2211460C900DF011FAABE59148407831
:1047400007280BD18F4890F90400C0F10400C0B2D3
:104750000A2211460C900DF001FA9BE58948407839
:1047600008280BD1874890F90400C0F10500C0B2B9
:104770000A2211460C900DF0F1F98BE5002211464A
:1047800010460DF0EBF985E57E48007803287ED1D0
:104790007DA02D9082A02E9087A02F908CA030908D
:1047A00091A0319096A032909BA03390A0A034901D
:1047B000A5A03590AAA03690AFA03790B4A03890AD
:1047C000B9A03990BEA03A90C3A03B90C8A03C903D
:1047D000CDA03D90D2A03E90D7A03F90DCA04090CD
:1047E000E1A04190E6A04290EBA04390F0A044905D
:1047F000F5A04590FA484690FAA04790FFA048904F
:10480000604890F901005F4991F90410401A0228AC
:1048100007DD5C484078A0F1020040B259490871B8
:104820000BE0584890F90100564991F9041088426C
:1048300003DA5448407853490871524890F904000B
:10484000801C2DA951F820000C904E4890F90400CE
:10485000401C51F820000B904A4890F9040051F890
:1048600020000A900146EBA0DDE90B230DF006F9CC
:1048700001200EF074FD434890F90400112866DA17
:1048800000223C21E9480088401C80B200E020E280
:104890000DF03AF8E648008828B100222821E548C2
:1048A0000DF041F904E000222821E3480DF03BF926
:1048B000E248008828B100222921E1A00DF033F957
:1048C00004E000222921E0A00DF02DF9E048007855
:1048D00055280CD16FF007027921DEA00DF023F9E5
:1048E00000227921DE4800880DF00EF805E06FF017
:1048F00003027921DBA00DF016F901222121DB480A
:10490000008880B20DF000F801224021D8480088CC
:1049100080B20CF0F9FF01222321D648008880B232
:104920000CF0F2FF01225E21D348008880B20CF027
:10493000EBFF00222621D148008880B20CF0E4FF72
:1049400001223E21CE48008880B20CF0DDFF00221B
:104950002421CC48008880B20CF0D6FF02226A21C4
:10496000C948008880B20CF0CFFF03225B21C74802
:10497000008880B20CF0C8FF01225D21C448008885
:1049800080B287E1A600001020D1F2E0EDE4E0F073
:10499000F2EDFBE520202020202020200000000058
:1049A00020C2F0E5ECFF20E820E4E0F2E020202047
:1049B000202020200000000020D1F2F0F3EAF2F3E2
:1049C000F0E02020202020202020202000000000D7
:1049D00020CCEDE5ECEEEDE8EAE0202020202020E0
:1049E000202020790000000020CEF1EDEEE2EDEE77
:1049F000E920E8F1F2EEF7ED2E204E3C0000000039
:104A000020C7E22EF1E8E3ED2E20202028202020F0
:104A1000202020200000000020CEF2EAEBFEF7E587
:104A2000EDE8E520F1E8E3EDE0EBE0200000000038
:104A30002020E0E2E0F0E8E82020202029202020CB
:104A4000202020200000000020C0CFC220E8F1F28A
:104A5000EEF7EDE8EAEEE220202020200000000042
:104A6000205420EFF0EEE2E5F0EAE8202020F6E521
:104A7000EFE820200000000020E1E0F2E0F0E5E8AF
:104A8000202020202071ECE8ED2E202000000000E6
:104A900020556D61783D2020202020202021C2203B
:104AA00020202020000000002055E130B03D2020D3
:104AB000202020202040C2202020202000000000B4
:104AC0002055E13230B03D20202020202023C2207C
:104AD00020202020000000002055F1E8E3ED3D20DB
:104AE00020202020205EC220202020200000000066
:104AF00020556D696E2EF1E5F2E83D202026C2209A
:104B00002020202000000000205530E13D20202002
:104B100020202020203EC220202020200000000055
:104B20002049E1EA2E3D202020202020206AC020BC
:104B300020202020000000002049E72EECE0F52E88
:104B40003D202020204AC0202020202000000000FE
:104B500020496D61783D202020202020205D4120CB
:104B60002020202000000000204B696D61783D204E
:104B700020202020207B202020202020000000005A
:104B8000204BE2FBF02EE7E0F02E3D202020205BC2
:104B900020202020000000002054E72EE2EAEB2E27
:104BA000E02EF12E2021F120202020200000000006
:104BB00020746D61783D2020202020202024B043E7
:104BC000202020200000000020C2EDE5F8EDE8E5FF
:104BD00020E4E0F2F7E8EAE82020202000000000CE
:104BE0008A69010020CAE0EBE8E1F0EEE2EAE820A1
:104BF00020202020202020200000000020D2E5F1ED
:104C0000F2202020202020202020202020202020D2
:104C1000000000002020202020D3D1D2C0CDCEC261
:104C2000CAC820202020202000000000E000001042
:104C3000F00000109F690100A4690100EA00001063
:104C4000E0E2F2EEEC2E0000F0F3F7ED2E000000B3
:104C5000B0010010F7E5F0E5E72079F12E00000043
:104C6000B2010010E2FBEAEB2E000000E2000010AF
:104C7000E4000010E6000010EC000010EE00001050
:104C8000FE000010E8000010F2000010F400001018
:104C9000F60000100CF038FE01227B21D748008876
:104CA00080B20CF031FE01224A21D548008880B242
:104CB0000CF02AFE00222121D248008880B20CF09C
:104CC00023FE00227121D048008880B20CF01CFE27
:104CD00072E4CE48007825285AD1CDA02D90D2A0DC
:104CE0002E90D7A02F90DCA03090E1A03190E6A0CC
:104CF0003290EBA03390F0A03490F5A03590FAA05C
:104D00003690FF483790FF48007828B1FE492DA81B
:104D1000FE4A127840F82210BC4890F90100BB49C5
:104D200091F90410884204DAB8484078B74908710C
:104D30000FE0B64890F90100B44991F90410401A07
:104D4000022806DDB1484078A0F1020040B2AF4928
:104D50000871AE4890F90400801C2DA951F820007C
:104D60000C90AA4890F90400401C51F820000B90C8
:104D7000A64890F9040051F820000A900146E4A0EA
:104D8000DDE90B230CF07AFE01200EF0E8FA13E4C3
:104D90009E48007828287DD1E3480078401CC0B2A6
:104DA000E14908700F280EDB4FF000000870DF4863
:104DB000007800F10100C0B2DC490870032802DB72
:104DC0004FF000000870DA482D90CF482E90D74859
:104DD000007808B9D7A02F90D4480078012801D1D5
:104DE000DAA02F90D1480078022801D1DDA02F90C1
:104DF0002F980C902E980B902D980A900146DFA0CA
:104E0000DDE90B230CF03AFE8048407828B94FF0DA
:104E10005E00E04981F82A0030E07C4840780128B3
:104E200005D14FF05E00DB4981F82D0026E0774880
:104E30004078022805D14FF05E00D64981F8300055
:104E40001CE072484078032805D14FF05E00D1493C
:104E500081F8330012E06D484078042805D14FF006
:104E60005E00CC4981F8360008E0684840780528A3
:104E700004D14FF05E00C74981F83A00C648007877
:104E80004FF000024FF026010C900CF03DFDC2489F
:104E9000203800E041E090F8240000225E210C90D0
:104EA0000CF032FDBD4800784FF000024FF02501B4
:104EB0000C900CF029FDB848203890F82C00002206
:104EC0003C210C900CF020FDB5480078B54901EB71
:104ED00080004FF000024FF03E010C900CF023FEDA
:104EE000AD482038808F00227B210C900CF00CFD07
:104EF000AD480078002802F043843A200CF0E7FA2D
:104F0000A4494FF020020A544FF03A000CF0DFFAA7
:104F1000A0494FF020020A540FE43C4800781A28B8
:104F20006BD1A2A02D90A748007855280AD0A6489A
:104F30002E9075482F90309031904FF00100A3498A
:104F400008701BE0A248007855280BD0A1A02E9035
:104F50009D482F906C48309031904FF002009B4953
:104F600008700BE09BA02E90A0A02F909648309048
:104F7000654831904FF0030094490870234890F938
:104F80000100224991F90410884204DA1F48407850
:104F90001E4908710FE01D4890F901001B4991F965
:104FA0000410401A022806DD18484078A0F10200DB
:104FB00040B216490871154890F90400801C2DA9CB
:104FC00051F820000C90114890F90400401C51F851
:104FD00020000B900D4890F9040051F820000A9031
:104FE000014688A0DDE90B230CF048FD01200EF0FE
:104FF000B6F974480078552810E132E1F800001045
:10500000FC0000100001001004010010A6000010B8
:1050100020C8C1DDCF3232302F36302D3234C0209F
:10502000202020200000000020C8C1DDCF32323017
:105030002F34382D3234C0202020202000000000E2
:1050400020C8C1DDCF3232302F36302D3132C02D65
:1050500032C1CFD10000000020C8C1DDCF323230D4
:105060002F34382D3132C02D32C1CFD10000000095
:1050700020C8C1DDCF3232302F36302D3132C02D35
:1050800031C1CFD10000000020C8C1DDCF323230A5
:105090002F34382D3132C02D31C1CFD10000000066
:1050A00020C8C1DDCF3232302F34382D3430C0200B
:1050B000202020200000000020C8C1DDCF32323087
:1050C0002F36302D3430C02020202020000000005A
:1050D00020C8C1DDCF3232302F34382D3230C02DD0
:1050E00031C1CFD10000000020C8C1DDCF32323045
:1050F0002F36382D3230C02D31C1CFD10000000005
:105100008A6901008000001075690100B700001075
:10511000D1D2C0CDC4C0D0D2CDDBC520D3D1D22E08
:105120002DCAC8200000000063000010BD00001060
:10513000C41C0000202020209A209C202D20E2FB6F
:10514000E1EEF0202020202000000000202020BFE1
:10515000209D202D20F3F1F2E0EDEEE2EAE02020A8
:10516000000000002020202020A420202D20E2FB91
:10517000F5EEE420202020200000000020D3D1D232
:10518000C0CDCEC2CAC02020C2D0C5CCC5CDC8209B
:1051900000000000C00600102040024028400240ED
:1051A00038400240A96901008100001020C0CFC230
:1051B0002031E920F3F0EEE2E5EDFC202120202073
:1051C00000000000A5010010B8270000BC0000107E
:1051D000A601001020C0CFC22032E920F3F0EEE299
:1051E000E5EDFC20402020200000000020CFE5F06D
:1051F000E8EEE420C0CFC232202020202023F72E6A
:1052000000000000202020C0CFC220C8D1D2CED7BD
:10521000CDC8CACEC22020200000000005D1002247
:105220002121FE480CF07FFC04E000222121FC48F3
:105230000CF079FCFB48007855280CD10022402165
:10524000F6480CF070FC00222321F748008880B259
:105250000CF05AFB3CE500224021F1480CF063FCC5
:1052600036E5F24800781F2859D1F1A02D90F6A01C
:105270002E90FB482F9018303090FAA03190FF48C4
:105280003290EA4890F90100E84991F90410884207
:1052900004DAE6484078E54908710FE0E34890F900
:1052A0000100E24991F90410401A022806DDDF48A6
:1052B0004078A0F1020040B2DC490871DB4890F967
:1052C0000400801C2DA951F820000C90D74890F9BB
:1052D0000400401C51F820000B90D44890F90400C1
:1052E00051F820000A900146E5A0DDE90B230CF0FF
:1052F000C5FB01200EF033F8E748007828B90022FA
:105300002821C7480CF00FFCE2E4E34800780128AC
:10531000A0D100222821C1480CF005FCD8E4C348E4
:10532000007820283FD1C14890F90100BF4991F988
:105330000410884204DABD484078BC4908710FE087
:10534000BA4890F90100B94991F90410401A0228AD
:1053500006DDB6484078A0F1020040B2B3490871BA
:10536000C64BCEA2D3A1D9A00CF088FB01200DF032
:10537000F6FFC948407828B900223C21A8480CF023
:10538000D2FB08E0C4484078012804D100223C2127
:10539000A2480CF0C8FB02223A21D248B0F9000022
:1053A0000CF05EF994E4A1480078212872D19F485E
:1053B00090F901009D4991F90410884204DA9B4854
:1053C00040789A4908710FE0984890F90100974990
:1053D00091F90410401A022806DD94484078A0F1A3
:1053E000020040B291490871A44BBFA2C4A1CAA057
:1053F0000CF044FB01200DF0B2FFA748807848B9BB
:1054000000224021CAA00CF08EFB4FF01E00CA49BA
:1054100008801AE0A0488078012809D100224021A4
:10542000C6A00CF080FB40F2CA30C34908800CE0F3
:1054300099488078022808D100224021C1A00CF0B0
:1054400072FB45F25550BC49088000222421BEA0C1
:105450000CF069FBBE48008880B201223C210C9010
:105460000CF052FABB48008880B201223E210C9019
:105470000CF04AFA00222321B748008880B20CF0D1
:1054800043FA01222421B548008880B20CF03CFA8E
:105490001EE4FFE765480078222872D1634890F93E
:1054A0000100624991F90410884204DA5F484078AB
:1054B0005E4908710FE05D4890F901005B4991F980
:1054C0000410401A022806DD58484078A0F1020076
:1054D00040B256490871694BA1A289A1A6A00CF05F
:1054E000CDFA01200DF03BFF6B48C07848B900228F
:1054F00040218FA00CF017FB4FF01E00A44908803C
:105500001AE06548C078012809D1002240218BA00B
:105510000CF009FB40F2CA309D4908800CE05E485F
:10552000C078022808D10022402186A00CF0FBFAA6
:1055300045F25550964908800022242182A00CF0A3
:10554000F2FA8348408880B201225B210C900CF073
:10555000DBF98048408880B201225D210C900CF07C
:10556000D3F9002223218B48008880B20CF0CCF9BB
:10557000012224217948008880B20CF0C5F906E4A4
:10558000FFE72A480078232846D183A02D9056A013
:105590002E9073A02F9039483090244890F9010044
:1055A000224991F90410884204DA204840781F49C2
:1055B00008710FE01D4890F901001C4991F9041091
:1055C000401A022806DD19484078A0F1020040B2D6
:1055D00016490871154890F90400801C2DA951F84E
:1055E00020000C90114890F90400401C51F8200054
:1055F0000B900E4890F9040051F820000A900146E3
:105600006BA0DDE90B230CF039FA01200DF0A7FEA9
:105610002148007908B9D7E040E1E2E09F69010044
:10562000A4690100A6010010AE010010A600001040
:1056300020D0E5EBE520E0E2E0F0E8FF20202020AC
:10564000282020200000000020D0E5EBE520F1E03C
:10565000ECEEEAE0EBE8E1F0EEE2EAE80000000060
:10566000F41C000020C1CFD1312BC1CFD13220207A
:105670002020202020202020000000008A69010036
:105680002020202020202020D2C5D1D22020202060
:105690002020202000000000F20B00102049E1E053
:1056A000F23D20202020202020202020203A4120D0
:1056B0000000000020D0E5EBE52020202020202065
:1056C00020203C20202020200000000020D2C5D136
:1056D000D220D1C0CCCECAC0CBC8C1D0CEC2CAC0E5
:1056E00000000000BC0100102055313D202020208A
:1056F0003CC22049313D202020203EC00000000057
:105700002055F03D402020242020202020F8E8ECE7
:105710003D202023000000002020202020D2C5D1E1
:10572000D220C1CFD1312020202020200000000035
:10573000556D696E0000000032020010556D6178F1
:1057400000000000553230002820202024290000CD
:10575000EE010010F2010010880200108C0200100F
:105760002055323D202020205BC22049323D2020A0
:1057700020205DC0000000002020202020D2C5D1C4
:10578000D220C1CFD13220202020202000000000D4
:10579000340200108A0200102055F03D40202024E1
:1057A0002020202020202023202020210000000075
:1057B000202020D2C5D1D220C1CFD1312BC1CFD111
:1057C000322020200000000000224021AFF2A00083
:1057D0000CF0A9F94FF01E00FC490880FC49088034
:1057E00020E0FC48007901280CD100224021AFF2D2
:1057F000B4000CF098F940F2CA30F4490880F4493A
:1058000008800FE0F348007902280BD100224021E4
:10581000AFF2D0000CF087F945F25550EB49088003
:10582000EB49088000222421AFF2E4000CF07BF960
:10583000E948008880B201223C210C900CF064F809
:10584000E648008880B201223E210C900CF05CF802
:1058500000222321E248008880B20CF055F8DE488F
:10586000408880B201225B210C900CF04DF8DB489F
:10587000408880B201225D210C900CF045F8002296
:105880002121D848008880B20CF03EF80122242162
:10589000D548008880B20CF037F8DBE4D3480078B4
:1058A000172862D1D2A02D90D7A02E90DCA02F90E7
:1058B000E1A03090E6483190CC4890F90100CB4906
:1058C00091F90410884204DAC8484078C749087141
:1058D0000FE0C64890F90100C44991F90410401A3C
:1058E000022806DDC1484078A0F1020040B2BF495D
:1058F0000871BE4890F90400801C2DA951F82000C1
:105900000C90BA4890F90400401C51F820000B900C
:10591000B64890F904102DA850F821000A900146CD
:10592000CCA0DDE90B230CF0A9F801200DF017FD48
:1059300000222121CD48008880B20BF0E5FF002233
:105940004021CB48008880B20BF0DEFF00222321EB
:10595000C848008880B20BF0D7FF00222421C64837
:10596000008880B20BF0D0FF74E4A04800783E2895
:105970004BD1C2A02D90C7A02E90CCA02F90D1A02B
:105980003090D6A03190DBA03290E0A03390B048A8
:105990003490964890F90100944991F90410884296
:1059A00004DA92484078914908710FE08F4890F9E5
:1059B00001008E4991F90410401A022806DD8B4837
:1059C0004078A0F1020040B288490871874890F9F8
:1059D0000400801C2DA951F820000C90834890F9F8
:1059E0000400401C51F820000B90804890F90400FE
:1059F00051F820000A900146CAA0DDE90B230CF003
:105A00003DF801200DF0ABFC24E4784800783F28F5
:105A10007ED1CAA02D90CFA02E90D4A02F90D9A037
:105A20003090DEA03190E3A03290E8A03390884817
:105A300034906E4890F901006C4991F90410884245
:105A400004DA6A484078694908710FE0674890F9BC
:105A50000100664991F90410401A012806DD6348E7
:105A60004078A0F1010040B2604908715F4890F9A8
:105A70000400401C2DA951F820000C905B4890F9BF
:105A8000040051F820000B900246D6A1DBA00C9B2D
:105A90000BF0F4FF02200DF062FC544890F9020074
:105AA000401C80B2002221210C900BF02DFF4F48AA
:105AB00090F90200D74931F91000002240210C90E2
:105AC0000BF0CEFD494890F90200D34931F810009F
:105AD00058B9464890F90200D04931F91000002227
